{
  "contractName": "BudgetClub",
  "abi": [
    {
      "constant": true,
      "inputs": [
        {
          "name": "number",
          "type": "uint256"
        }
      ],
      "name": "listRegisteredUsers",
      "outputs": [
        {
          "name": "",
          "type": "string"
        },
        {
          "name": "",
          "type": "address"
        }
      ],
      "payable": false,
      "stateMutability": "view",
      "type": "function"
    },
    {
      "constant": true,
      "inputs": [
        {
          "name": "",
          "type": "uint256"
        }
      ],
      "name": "submittedSink",
      "outputs": [
        {
          "name": "",
          "type": "uint256"
        }
      ],
      "payable": false,
      "stateMutability": "view",
      "type": "function"
    },
    {
      "constant": true,
      "inputs": [],
      "name": "timeVoteStarted",
      "outputs": [
        {
          "name": "",
          "type": "uint256"
        }
      ],
      "payable": false,
      "stateMutability": "view",
      "type": "function"
    },
    {
      "constant": true,
      "inputs": [],
      "name": "getCandidatesLength",
      "outputs": [
        {
          "name": "",
          "type": "uint256"
        }
      ],
      "payable": false,
      "stateMutability": "view",
      "type": "function"
    },
    {
      "constant": true,
      "inputs": [],
      "name": "getRegisteredUsersLength",
      "outputs": [
        {
          "name": "",
          "type": "uint256"
        }
      ],
      "payable": false,
      "stateMutability": "view",
      "type": "function"
    },
    {
      "constant": true,
      "inputs": [],
      "name": "gasCost",
      "outputs": [
        {
          "name": "",
          "type": "uint256"
        }
      ],
      "payable": false,
      "stateMutability": "view",
      "type": "function"
    },
    {
      "constant": true,
      "inputs": [
        {
          "name": "number",
          "type": "uint256"
        }
      ],
      "name": "listCandidates",
      "outputs": [
        {
          "name": "",
          "type": "string"
        },
        {
          "name": "",
          "type": "address"
        }
      ],
      "payable": false,
      "stateMutability": "view",
      "type": "function"
    },
    {
      "constant": true,
      "inputs": [],
      "name": "numberOfSinks",
      "outputs": [
        {
          "name": "",
          "type": "uint256"
        }
      ],
      "payable": false,
      "stateMutability": "view",
      "type": "function"
    },
    {
      "constant": false,
      "inputs": [],
      "name": "startVote",
      "outputs": [],
      "payable": false,
      "stateMutability": "nonpayable",
      "type": "function"
    },
    {
      "constant": false,
      "inputs": [
        {
          "name": "ranked",
          "type": "uint256[]"
        }
      ],
      "name": "weightCandidates",
      "outputs": [],
      "payable": false,
      "stateMutability": "nonpayable",
      "type": "function"
    },
    {
      "constant": true,
      "inputs": [
        {
          "name": "number",
          "type": "uint256"
        }
      ],
      "name": "showVotes",
      "outputs": [
        {
          "name": "",
          "type": "address[]"
        }
      ],
      "payable": false,
      "stateMutability": "view",
      "type": "function"
    },
    {
      "constant": true,
      "inputs": [],
      "name": "coalitionSizeFactorIncrease",
      "outputs": [
        {
          "name": "",
          "type": "uint256"
        }
      ],
      "payable": false,
      "stateMutability": "view",
      "type": "function"
    },
    {
      "constant": false,
      "inputs": [
        {
          "name": "suggestion",
          "type": "uint256"
        }
      ],
      "name": "changeRegistrationCostSuggestion",
      "outputs": [],
      "payable": false,
      "stateMutability": "nonpayable",
      "type": "function"
    },
    {
      "constant": true,
      "inputs": [],
      "name": "termLength",
      "outputs": [
        {
          "name": "",
          "type": "uint256"
        }
      ],
      "payable": false,
      "stateMutability": "view",
      "type": "function"
    },
    {
      "constant": false,
      "inputs": [],
      "name": "subsidize",
      "outputs": [],
      "payable": true,
      "stateMutability": "payable",
      "type": "function"
    },
    {
      "constant": false,
      "inputs": [
        {
          "name": "data",
          "type": "uint256[]"
        }
      ],
      "name": "sort",
      "outputs": [
        {
          "name": "",
          "type": "uint256[]"
        }
      ],
      "payable": false,
      "stateMutability": "nonpayable",
      "type": "function"
    },
    {
      "constant": true,
      "inputs": [],
      "name": "coalitionSizeFactor",
      "outputs": [
        {
          "name": "",
          "type": "uint256"
        }
      ],
      "payable": false,
      "stateMutability": "view",
      "type": "function"
    },
    {
      "constant": false,
      "inputs": [],
      "name": "changeRegistrationCost",
      "outputs": [],
      "payable": false,
      "stateMutability": "nonpayable",
      "type": "function"
    },
    {
      "constant": true,
      "inputs": [
        {
          "name": "",
          "type": "uint256"
        }
      ],
      "name": "finalBudget",
      "outputs": [
        {
          "name": "",
          "type": "uint256"
        }
      ],
      "payable": false,
      "stateMutability": "view",
      "type": "function"
    },
    {
      "constant": true,
      "inputs": [],
      "name": "numberOfRepresentatives",
      "outputs": [
        {
          "name": "",
          "type": "uint256"
        }
      ],
      "payable": false,
      "stateMutability": "view",
      "type": "function"
    },
    {
      "constant": false,
      "inputs": [],
      "name": "endVote",
      "outputs": [],
      "payable": false,
      "stateMutability": "nonpayable",
      "type": "function"
    },
    {
      "constant": true,
      "inputs": [],
      "name": "sayhi",
      "outputs": [],
      "payable": false,
      "stateMutability": "view",
      "type": "function"
    },
    {
      "constant": true,
      "inputs": [],
      "name": "checkRegistrationSuggestions",
      "outputs": [
        {
          "name": "",
          "type": "uint256"
        }
      ],
      "payable": false,
      "stateMutability": "view",
      "type": "function"
    },
    {
      "constant": true,
      "inputs": [],
      "name": "quota",
      "outputs": [
        {
          "name": "",
          "type": "uint256"
        }
      ],
      "payable": false,
      "stateMutability": "view",
      "type": "function"
    },
    {
      "constant": true,
      "inputs": [],
      "name": "voteStarted",
      "outputs": [
        {
          "name": "",
          "type": "bool"
        }
      ],
      "payable": false,
      "stateMutability": "view",
      "type": "function"
    },
    {
      "constant": true,
      "inputs": [],
      "name": "getRepresentivesLength",
      "outputs": [
        {
          "name": "",
          "type": "uint256"
        }
      ],
      "payable": false,
      "stateMutability": "view",
      "type": "function"
    },
    {
      "constant": false,
      "inputs": [],
      "name": "apply",
      "outputs": [],
      "payable": false,
      "stateMutability": "nonpayable",
      "type": "function"
    },
    {
      "constant": true,
      "inputs": [],
      "name": "registrationCost",
      "outputs": [
        {
          "name": "",
          "type": "uint256"
        }
      ],
      "payable": false,
      "stateMutability": "view",
      "type": "function"
    },
    {
      "constant": true,
      "inputs": [],
      "name": "getContractValue",
      "outputs": [
        {
          "name": "",
          "type": "uint256"
        }
      ],
      "payable": false,
      "stateMutability": "view",
      "type": "function"
    },
    {
      "constant": true,
      "inputs": [
        {
          "name": "text",
          "type": "string"
        }
      ],
      "name": "chat",
      "outputs": [],
      "payable": false,
      "stateMutability": "view",
      "type": "function"
    },
    {
      "constant": true,
      "inputs": [
        {
          "name": "number",
          "type": "uint256"
        }
      ],
      "name": "listRepresentives",
      "outputs": [
        {
          "name": "",
          "type": "string"
        },
        {
          "name": "",
          "type": "address"
        },
        {
          "name": "",
          "type": "uint256"
        },
        {
          "name": "",
          "type": "uint256[]"
        }
      ],
      "payable": false,
      "stateMutability": "view",
      "type": "function"
    },
    {
      "constant": true,
      "inputs": [],
      "name": "numberOfTurns",
      "outputs": [
        {
          "name": "",
          "type": "uint256"
        }
      ],
      "payable": false,
      "stateMutability": "view",
      "type": "function"
    },
    {
      "constant": true,
      "inputs": [],
      "name": "timeVoteEnded",
      "outputs": [
        {
          "name": "",
          "type": "uint256"
        }
      ],
      "payable": false,
      "stateMutability": "view",
      "type": "function"
    },
    {
      "constant": false,
      "inputs": [
        {
          "name": "myVote",
          "type": "address[]"
        }
      ],
      "name": "vote",
      "outputs": [],
      "payable": false,
      "stateMutability": "nonpayable",
      "type": "function"
    },
    {
      "constant": false,
      "inputs": [
        {
          "name": "name",
          "type": "string"
        }
      ],
      "name": "register",
      "outputs": [],
      "payable": true,
      "stateMutability": "payable",
      "type": "function"
    },
    {
      "inputs": [
        {
          "name": "cost",
          "type": "uint256"
        },
        {
          "name": "term",
          "type": "uint256"
        },
        {
          "name": "reps",
          "type": "uint256"
        },
        {
          "name": "option",
          "type": "uint256"
        },
        {
          "name": "sinks",
          "type": "uint256"
        },
        {
          "name": "q",
          "type": "uint256"
        },
        {
          "name": "gas",
          "type": "uint256"
        },
        {
          "name": "turns",
          "type": "uint256"
        },
        {
          "name": "sizeFactor",
          "type": "uint256"
        },
        {
          "name": "sizeFactorIncrease",
          "type": "uint256"
        }
      ],
      "payable": false,
      "stateMutability": "nonpayable",
      "type": "constructor"
    },
    {
      "anonymous": false,
      "inputs": [
        {
          "indexed": false,
          "name": "message",
          "type": "string"
        },
        {
          "indexed": false,
          "name": "name",
          "type": "string"
        }
      ],
      "name": "message",
      "type": "event"
    },
    {
      "constant": false,
      "inputs": [],
      "name": "sendOut",
      "outputs": [],
      "payable": false,
      "stateMutability": "nonpayable",
      "type": "function"
    },
    {
      "constant": false,
      "inputs": [
        {
          "name": "budget",
          "type": "uint256[]"
        }
      ],
      "name": "submitBudget",
      "outputs": [],
      "payable": false,
      "stateMutability": "nonpayable",
      "type": "function"
    },
    {
      "constant": false,
      "inputs": [
        {
          "name": "spender",
          "type": "address"
        },
        {
          "name": "name",
          "type": "string"
        }
      ],
      "name": "submitSink",
      "outputs": [],
      "payable": false,
      "stateMutability": "nonpayable",
      "type": "function"
    },
    {
      "constant": false,
      "inputs": [],
      "name": "endBudgetSubmit",
      "outputs": [],
      "payable": false,
      "stateMutability": "nonpayable",
      "type": "function"
    },
    {
      "constant": false,
      "inputs": [],
      "name": "decideBudget",
      "outputs": [],
      "payable": false,
      "stateMutability": "nonpayable",
      "type": "function"
    },
    {
      "constant": true,
      "inputs": [
        {
          "name": "a_bar",
          "type": "uint256"
        },
        {
          "name": "b_bar",
          "type": "uint256"
        },
        {
          "name": "a_floor",
          "type": "uint256"
        },
        {
          "name": "b_floor",
          "type": "uint256"
        }
      ],
      "name": "negotiate",
      "outputs": [
        {
          "name": "",
          "type": "uint256[]"
        }
      ],
      "payable": false,
      "stateMutability": "view",
      "type": "function"
    },
    {
      "constant": true,
      "inputs": [
        {
          "name": "budget1",
          "type": "uint256[]"
        },
        {
          "name": "budget2",
          "type": "uint256[]"
        },
        {
          "name": "nego",
          "type": "uint256[]"
        },
        {
          "name": "coalitionSize",
          "type": "uint256"
        }
      ],
      "name": "negoToBudget",
      "outputs": [
        {
          "name": "",
          "type": "uint256[]"
        }
      ],
      "payable": false,
      "stateMutability": "view",
      "type": "function"
    },
    {
      "constant": true,
      "inputs": [
        {
          "name": "number",
          "type": "uint256"
        }
      ],
      "name": "listSinks",
      "outputs": [
        {
          "name": "",
          "type": "string"
        },
        {
          "name": "",
          "type": "address"
        }
      ],
      "payable": false,
      "stateMutability": "view",
      "type": "function"
    },
    {
      "constant": true,
      "inputs": [],
      "name": "getSinksLength",
      "outputs": [
        {
          "name": "",
          "type": "uint256"
        }
      ],
      "payable": false,
      "stateMutability": "view",
      "type": "function"
    },
    {
      "constant": true,
      "inputs": [
        {
          "name": "number",
          "type": "uint256"
        }
      ],
      "name": "listFinalBudget",
      "outputs": [
        {
          "name": "",
          "type": "uint256"
        }
      ],
      "payable": false,
      "stateMutability": "view",
      "type": "function"
    }
  ],
  "bytecode": "0x60606040526000600860006101000a81548160ff02191690831515021790555060006009556000600a556000600b5534156200003a57600080fd5b6040516101408062004acc83398101604052620000619067800000000000000090620000ed565b89898989838060018190555050826003819055508160048190555080600c819055505050505085600d8190555084600e8190555083600f8190555082601081905550816011819055508060128190555060018887811515620000bf57fe5b040160168190555050505050505050505050620001f1565b6000620000e58251620001e7565b905092915050565b6000806000806000806000806000806101408b8d031260018114620001125762000117565b600080fd5b506000620001288d828e01620000d7565b9a505060206200013b8d828e01620000d7565b99505060406200014e8d828e01620000d7565b9850506060620001618d828e01620000d7565b9750506080620001748d828e01620000d7565b96505060a0620001878d828e01620000d7565b95505060c06200019a8d828e01620000d7565b94505060e0620001ad8d828e01620000d7565b935050610100620001c18d828e01620000d7565b925050610120620001d58d828e01620000d7565b9150509295989b9194979a5092959850565b6000819050919050565b6148cb80620002016000396000f300606060405260043610610225576000357c0100000000000000000000000000000000000000000000000000000000900463ffffffff1680630cf35f441461022a57806310c432f21461026157806313dcd43e14610297578063161893d0146102b95780631859df65146102e25780631afad36d1461030b5780631b0d3f40146103345780631d5e3fe51461034957806322ca968b1461037257806326f9098b146103a95780632cd15220146103be57806347792fc5146103e75780634c0a6af0146103fc5780635846fc46146104115780636687d4fe146104335780636904d24114610469578063717a55d21461048b5780637392445a146104b457806379b18cd1146104d65780638b2e4883146104ff57806390f10ed1146105355780639ec8b0261461053f578063a5982ddb14610575578063a90cc0d91461059e578063ad012af0146105b3578063ae0689ac146105e9578063af0ab71514610612578063b922394614610649578063bc9c707d1461065e578063c0fc41e614610673578063c6214bf11461069c578063cebe09c9146106c5578063d0dc0180146106ee578063d5268b2214610717578063d87311aa14610740578063db595b3b14610776578063dc4a7f7f1461078b578063dc82697c146107b4578063de8caa1e146107dd578063dee6472f146107ff578063e0abab9e14610838578063e32ba07814610861578063ed00af9814610897578063ed081329146108c0578063f2c298be146108e2575b600080fd5b341561023557600080fd5b61024a6004610245903690614298565b6108f9565b6040516102589291906145a2565b60405180910390f35b341561026c57600080fd5b610281600461027c903690614298565b610a08565b60405161028e919061468f565b60405180910390f35b34156102a257600080fd5b6102b760046102b290369061406a565b610a2c565b005b34156102c457600080fd5b6102cc610c1f565b6040516102d9919061468f565b60405180910390f35b34156102ed57600080fd5b6102f5610c25565b604051610302919061468f565b60405180910390f35b341561031657600080fd5b61031e610c32565b60405161032b919061468f565b60405180910390f35b341561033f57600080fd5b610347610c3e565b005b341561035457600080fd5b61035c610d46565b604051610369919061468f565b60405180910390f35b341561037d57600080fd5b610392600461038d903690614298565b610d4c565b6040516103a09291906145a2565b60405180910390f35b34156103b457600080fd5b6103bc610e8f565b005b34156103c957600080fd5b6103d1610eca565b6040516103de919061468f565b60405180910390f35b34156103f257600080fd5b6103fa610ed0565b005b341561040757600080fd5b61040f6114b2565b005b341561041c57600080fd5b610431600461042c903690614123565b611504565b005b341561043e57600080fd5b610453600461044e903690614298565b611601565b6040516104609190614543565b60405180910390f35b341561047457600080fd5b6104896004610484903690614123565b6116af565b005b341561049657600080fd5b61049e6117a7565b6040516104ab919061468f565b60405180910390f35b34156104bf57600080fd5b6104d460046104cf903690614298565b6117ad565b005b34156104e157600080fd5b6104e961185e565b6040516104f6919061468f565b60405180910390f35b341561050a57600080fd5b61051f600461051a903690614298565b611864565b60405161052c919061468f565b60405180910390f35b61053d611888565b005b341561054a57600080fd5b61055f600461055a903690614123565b61188a565b60405161056c9190614565565b60405180910390f35b341561058057600080fd5b6105886118aa565b604051610595919061468f565b60405180910390f35b34156105a957600080fd5b6105b16118b0565b005b34156105be57600080fd5b6105d360046105ce903690614298565b6118d2565b6040516105e0919061468f565b60405180910390f35b34156105f457600080fd5b6105fc6118f6565b604051610609919061468f565b60405180910390f35b341561061d57600080fd5b610632600461062d903690614298565b6118fc565b6040516106409291906145a2565b60405180910390f35b341561065457600080fd5b61065c611a0c565b005b341561066957600080fd5b610671611aa3565b005b341561067e57600080fd5b610686611ada565b604051610693919061468f565b60405180910390f35b34156106a757600080fd5b6106af611ba7565b6040516106bc919061468f565b60405180910390f35b34156106d057600080fd5b6106d8611bb4565b6040516106e5919061468f565b60405180910390f35b34156106f957600080fd5b610701611bba565b60405161070e9190614587565b60405180910390f35b341561072257600080fd5b61072a611bcd565b604051610737919061468f565b60405180910390f35b341561074b57600080fd5b610760600461075b903690614176565b611bda565b60405161076d9190614565565b60405180910390f35b341561078157600080fd5b610789611f47565b005b341561079657600080fd5b61079e612021565b6040516107ab919061468f565b60405180910390f35b34156107bf57600080fd5b6107c7612027565b6040516107d4919061468f565b60405180910390f35b34156107e857600080fd5b6107fd60046107f8903690614245565b612046565b005b341561080a57600080fd5b61081f600461081a903690614298565b612137565b60405161082f94939291906145d2565b60405180910390f35b341561084357600080fd5b61084b612329565b604051610858919061468f565b60405180910390f35b341561086c57600080fd5b610881600461087c9036906142ca565b61232f565b60405161088e9190614565565b60405180910390f35b34156108a257600080fd5b6108aa6125ba565b6040516108b7919061468f565b60405180910390f35b34156108cb57600080fd5b6108e060046108db9036906140d0565b6125c0565b005b6108f760046108f2903690614245565b612728565b005b61090161379e565b6000808381548110151561091157fe5b906000526020600020906003020160010160008481548110151561093157fe5b906000526020600020906003020160000160009054906101000a900473ffffffffffffffffffffffffffffffffffffffff16818054600181600116156101000203166002900480601f0160208091040260200160405190810160405280929190818152602001828054600181600116156101000203166002900480156109f85780601f106109cd576101008083540402835291602001916109f8565b820191906000526020600020905b8154815290600101906020018083116109db57829003601f168201915b5050505050915091509150915091565b601581815481101515610a1757fe5b90600052602060002090016000915090505481565b6000610a366137b2565b600d546013805490501015610c1957600091505b600454821015610c18573373ffffffffffffffffffffffffffffffffffffffff166000600584815481101515610a7c57fe5b906000526020600020906003020160000154815481101515610a9a57fe5b906000526020600020906003020160000160009054906101000a900473ffffffffffffffffffffffffffffffffffffffff1673ffffffffffffffffffffffffffffffffffffffff16148015610b0a5750601654601583815481101515610afc57fe5b906000526020600020900154105b15610c0b5782816020018190525083816000019073ffffffffffffffffffffffffffffffffffffffff16908173ffffffffffffffffffffffffffffffffffffffff168152505060138054806001018281610b6491906137e8565b9160005260206000209060020201600083909190915060008201518160000160006101000a81548173ffffffffffffffffffffffffffffffffffffffff021916908373ffffffffffffffffffffffffffffffffffffffff1602179055506020820151816001019080519060200190610bdd92919061381a565b505050506001601583815481101515610bf257fe5b9060005260206000209001600082825401925050819055505b8180600101925050610a4a565b5b50505050565b60095481565b6000600680549050905090565b60008080549050905090565b6000803073ffffffffffffffffffffffffffffffffffffffff16319150600090505b601380549050811015610d2257601381815481101515610c7c57fe5b906000526020600020906002020160000160009054906101000a900473ffffffffffffffffffffffffffffffffffffffff1673ffffffffffffffffffffffffffffffffffffffff166108fc6064601484815481101515610cd857fe5b9060005260206000209001548502811515610cef57fe5b049081150290604051600060405180830381858888f193505050501515610d1557600080fd5b8080600101915050610c60565b6000601381610d31919061389a565b506000601581610d4191906138cc565b505050565b600f5481565b610d5461379e565b600080600684815481101515610d6657fe5b906000526020600020900154815481101515610d7e57fe5b90600052602060002090600302016001016000600685815481101515610da057fe5b906000526020600020900154815481101515610db857fe5b906000526020600020906003020160000160009054906101000a900473ffffffffffffffffffffffffffffffffffffffff16818054600181600116156101000203166002900480601f016020809104026020016040519081016040528092919081815260200182805460018160011615610100020316600290048015610e7f5780601f10610e5457610100808354040283529160200191610e7f565b820191906000526020600020905b815481529060010190602001808311610e6257829003601f168201915b5050505050915091509150915091565b600060058054905014158015610eaa5750426103e8600a5401105b15610ec857610eb7610ed0565b6000600581610ec691906138f8565b505b565b600d5481565b600080610edb61392a565b610ee361393e565b610eeb61393e565b610ef3613952565b600080610efe61393e565b600080610f0961393e565b600e549b506004549a508a604051805910610f215750595b908082528060200260200182016040528015610f5757816020015b610f44613966565b815260200190600190039081610f3c5790505b5099508a604051805910610f685750595b908082528060200260200182016040525098508a604051805910610f895750595b908082528060200260200182016040525097508a604051805910610faa5750595b908082528060200260200182016040528015610fe057816020015b610fcd61397a565b815260200190600190039081610fc55790505b509650600095505b8a86101561111f57600586815481101515610fff57fe5b906000526020600020906003020160606040519081016040529081600082015481526020016001820180548060200260200160405190810160405280929190818152602001828054801561107257602002820191906000526020600020905b81548152602001906001019080831161105e575b50505050508152602001600282015481525050878781518110151561109357fe5b9060200190602002018190525086868151811015156110ae57fe5b90602001906020020151602001518a878151811015156110ca57fe5b90602001906020020181905250600189878151811015156110e757fe5b906020019060200201818152505085888781518110151561110457fe5b90602001906020020181815250508580600101965050610fe8565b600094505b8a611130898d8a6129d2565b141561146c5760026040518059106111455750595b908082528060200260200182016040525093508a92506111de8a898781518110151561116d57fe5b9060200190602002015181518110151561118357fe5b90602001906020020151888781518110151561119b57fe5b90602001906020020151602001518b8b898151811015156111b857fe5b906020019060200201518151811015156111ce57fe5b906020019060200201518f612abf565b9150600095505b8a8610156112f1578588868151811015156111fc57fe5b906020019060200201511415801561122c57506000898781518110151561121f57fe5b9060200190602002015114155b156112e4576112a28a8781518110151561124257fe5b90602001906020020151888781518110151561125a57fe5b9060200190602002015160200151848c8a81518110151561127757fe5b906020019060200201518b8a81518110151561128f57fe5b9060200190602002015160400151612ad7565b90508360008151811015156112b357fe5b906020019060200201518160008151811015156112cc57fe5b9060200190602002015111156112e3578093508592505b5b85806001019650506111e5565b8a831415156114385761136c878681518110151561130b57fe5b90602001906020020151602001518b8581518110151561132757fe5b90602001906020020151868a8981518110151561134057fe5b90602001906020020151604001518d8881518110151561135c57fe5b9060200190602002015101611bda565b8a8481518110151561137a57fe5b90602001906020020181905250868581518110151561139557fe5b90602001906020020151604001518989878151811015156113b257fe5b906020019060200201518151811015156113c857fe5b906020019060200201818151039150818152505086858151811015156113ea57fe5b9060200190602002015160400151898481518110151561140657fe5b906020019060200201818151019150818152505082888681518110151561142957fe5b90602001906020020181815250505b60018b0385141561144c5760009450611455565b84806001019550505b601254601160008282540192505081905550611124565b89611478898d8a6129d2565b81518110151561148457fe5b90602001906020020151601490805190602001906114a39291906139a2565b50505050505050505050505050565b42600354600a54011080156114da575060001515600860009054906101000a900460ff161515145b15611502576001600860006101000a81548160ff021916908315150217905550426009819055505b565b60008061150f6139ef565b600c549250600091505b6004548210156115fb576006848381518110151561153357fe5b9060200190602002015181548110151561154957fe5b9060005260206000209001548160000181815250506000831415611577576001816040018181525050611590565b600183141561158f5781600454038160400181815250505b5b600580548060010182816115a49190613a17565b916000526020600020906003020160008390919091506000820151816000015560208201518160010190805190602001906115e0929190613a49565b50604082015181600201555050508180600101925050611519565b50505050565b611609613a96565b60078281548110151561161857fe5b90600052602060002090018054806020026020016040519081016040528092919081815260200182805480156116a357602002820191906000526020600020905b8160009054906101000a900473ffffffffffffffffffffffffffffffffffffffff1673ffffffffffffffffffffffffffffffffffffffff1681526020019060010190808311611659575b50505050509050919050565b6000600d54825114156117a357600090505b6004548110156117a2573373ffffffffffffffffffffffffffffffffffffffff1660006005838154811015156116f357fe5b90600052602060002090600302016000015481548110151561171157fe5b906000526020600020906003020160000160009054906101000a900473ffffffffffffffffffffffffffffffffffffffff1673ffffffffffffffffffffffffffffffffffffffff161415611795578160058281548110151561176f57fe5b906000526020600020906003020160010190805190602001906117939291906139a2565b505b80806001019150506116c1565b5b5050565b60125481565b60008090505b60008054905081101561185a573373ffffffffffffffffffffffffffffffffffffffff166000828154811015156117e657fe5b906000526020600020906003020160000160009054906101000a900473ffffffffffffffffffffffffffffffffffffffff1673ffffffffffffffffffffffffffffffffffffffff16141561184d578160026000838152602001908152602001600020819055505b80806001019150506117b3565b5050565b60035481565b600060148281548110151561187557fe5b9060005260206000209001549050919050565b565b61189261393e565b6118a28260006001855103612b61565b819050919050565b60115481565b60006118ba611ada565b9050600154811415156118cf57806001819055505b50565b6014818154811015156118e157fe5b90600052602060002090016000915090505481565b60045481565b61190461379e565b600060138381548110151561191557fe5b906000526020600020906002020160010160138481548110151561193557fe5b906000526020600020906002020160000160009054906101000a900473ffffffffffffffffffffffffffffffffffffffff16818054600181600116156101000203166002900480601f0160208091040260200160405190810160405280929190818152602001828054600181600116156101000203166002900480156119fc5780601f106119d1576101008083540402835291602001916119fc565b820191906000526020600020905b8154815290600101906020018083116119df57829003601f168201915b5050505050915091509150915091565b42600b546009540111158015611a35575060011515600860009054906101000a900460ff161515145b15611aa1576000600860006101000a81548160ff02191690831515021790555042600a819055506004546006805490501015611a78576006805490506004819055505b611a80612cc1565b6000600681611a8f91906138cc565b506000600781611a9f9190613aaa565b505b565b7f36bf6cf02ecc60712e107054775debd1f2f255ab34df5fc4928044264d16fd1f604051611ad09061465c565b60405180910390a1565b60008060008060008060016000805490501115611b995760016003600260008054905002811515611b0757fe5b04019450600093505b600080549050841015611b98576000925060026000858152602001908152602001600020549150600090505b600080549050811015611b7a576002600082815260200190815260200160002054821415611b6d5782806001019350505b8080600101915050611b3c565b8483101515611b8b57819550611b9f565b8380600101945050611b10565b5b60015495505b505050505090565b6000601380549050905090565b600e5481565b600860009054906101000a900460ff1681565b6000600580549050905090565b611be261393e565b611bea61393e565b60008060008060008060008060008e51604051805910611c075750595b90808252806020026020018201604052509950611c248f8f6130dd565b9850600e549750886011546064038d60018b0103601154811515611c4457fe5b04018e6000815181101515611c5557fe5b90602001906020020151811515611c6857fe5b04039650886011546064038d60018b0103601154811515611c8557fe5b04018e6001815181101515611c9657fe5b90602001906020020151811515611ca957fe5b040395506000945060009350600092505b8e51831015611d44578d83815181101515611cd157fe5b906020019060200201518f84815181101515611ce957fe5b906020019060200201511115611d1a578e83815181101515611d0757fe5b9060200190602002015185019450611d37565b8d83815181101515611d2857fe5b90602001906020020151840193505b8280600101935050611cba565b60009150600092505b8e51831015611ed7578d83815181101515611d6457fe5b906020019060200201518f84815181101515611d7c57fe5b906020019060200201511115611e2d57848f84815181101515611d9b57fe5b906020019060200201518802811515611db057fe5b048e84815181101515611dbf57fe5b906020019060200201510182019150848f84815181101515611ddd57fe5b906020019060200201518802811515611df257fe5b048e84815181101515611e0157fe5b90602001906020020151018a84815181101515611e1a57fe5b9060200190602002018181525050611eca565b838e84815181101515611e3c57fe5b906020019060200201518702811515611e5157fe5b048f84815181101515611e6057fe5b906020019060200201510182019150838e84815181101515611e7e57fe5b906020019060200201518702811515611e9357fe5b048f84815181101515611ea257fe5b90602001906020020151018a84815181101515611ebb57fe5b90602001906020020181815250505b8280600101935050611d4d565b600090505b6064821015611f325760018a82815181101515611ef557fe5b906020019060200201818151019150818152505060018201915060018f5103811415611f245760009050611f2d565b80806001019150505b611edc565b899a5050505050505050505050949350505050565b6000611f5a33611f5561317f565b613376565b151561201e57600090505b60008054905081101561201d573373ffffffffffffffffffffffffffffffffffffffff16600082815481101515611f9857fe5b906000526020600020906003020160000160009054906101000a900473ffffffffffffffffffffffffffffffffffffffff1673ffffffffffffffffffffffffffffffffffffffff1614156120105760068054806001018281611ffa9190613ad6565b9160005260206000209001600083909190915055505b8080600101915050611f65565b5b50565b60015481565b60003073ffffffffffffffffffffffffffffffffffffffff1631905090565b60008090505b600080549050811015612133573373ffffffffffffffffffffffffffffffffffffffff1660008281548110151561207f57fe5b906000526020600020906003020160000160009054906101000a900473ffffffffffffffffffffffffffffffffffffffff1673ffffffffffffffffffffffffffffffffffffffff161415612126577f36bf6cf02ecc60712e107054775debd1f2f255ab34df5fc4928044264d16fd1f826000838154811015156120fe57fe5b906000526020600020906003020160010160405161211d929190614625565b60405180910390a15b808060010191505061204c565b5050565b61213f61379e565b60008061214a61393e565b600060058681548110151561215b57fe5b90600052602060002090600302016000015481548110151561217957fe5b9060005260206000209060030201600101600060058781548110151561219b57fe5b9060005260206000209060030201600001548154811015156121b957fe5b906000526020600020906003020160000160009054906101000a900473ffffffffffffffffffffffffffffffffffffffff166005878154811015156121fa57fe5b90600052602060002090600302016002015460058881548110151561221b57fe5b9060005260206000209060030201600101838054600181600116156101000203166002900480601f0160208091040260200160405190810160405280929190818152602001828054600181600116156101000203166002900480156122c15780601f10612296576101008083540402835291602001916122c1565b820191906000526020600020905b8154815290600101906020018083116122a457829003601f168201915b505050505093508080548060200260200160405190810160405280929190818152602001828054801561231357602002820191906000526020600020905b8154815260200190600101908083116122ff575b5050505050905093509350935093509193509193565b60105481565b61233761393e565b60008061234261393e565b600080600f5494506001856002898b8d8f0103030381151561236057fe5b0401935060026040518059106123735750595b90808252806020026020018201604052509250601054915081841115612397578193505b600287898760018803028c8e0103030303905060006002858115156123b857fe5b0614156124375760018560016002878115156123d057fe5b0403028260018a010101018360018151811015156123ea57fe5b906020019060200201818152505082600181518110151561240757fe5b90602001906020020151898b010383600081518110151561242457fe5b90602001906020020181815250506124ab565b84600160026001870181151561244957fe5b0403028160018a01010183600081518110151561246257fe5b906020019060200201818152505082600081518110151561247f57fe5b90602001906020020151898b010383600181518110151561249c57fe5b90602001906020020181815250505b898360008151811015156124bb57fe5b90602001906020020151111561252c57898360008151811015156124db57fe5b90602001906020020151038360018151811015156124f557fe5b90602001906020020181815101915081815250508983600081518110151561251957fe5b90602001906020020181815250506125aa565b8983600181518110151561253c57fe5b9060200190602002015111156125a9578983600181518110151561255c57fe5b906020019060200201510383600081518110151561257657fe5b90602001906020020181815101915081815250508983600181518110151561259a57fe5b90602001906020020181815250505b5b8295505050505050949350505050565b600a5481565b60008090505b600080549050811015612724573373ffffffffffffffffffffffffffffffffffffffff166000828154811015156125f957fe5b906000526020600020906003020160000160009054906101000a900473ffffffffffffffffffffffffffffffffffffffff1673ffffffffffffffffffffffffffffffffffffffff1614156127175760011515600860009054906101000a900460ff16151514801561269b57506000151560008281548110151561267857fe5b906000526020600020906003020160020160009054906101000a900460ff161515145b156127165760016000828154811015156126b157fe5b906000526020600020906003020160020160006101000a81548160ff021916908315150217905550600780548060010182816126ed9190613b02565b916000526020600020900160008490919091509080519060200190612713929190613b2e565b50505b5b80806001019150506125c6565b5050565b612730613bb8565b60015434101580156128b457506128b2336000805480602002602001604051908101604052809291908181526020016000905b828210156128a95783829060005260206000209060030201606060405190810160405290816000820160009054906101000a900473ffffffffffffffffffffffffffffffffffffffff1673ffffffffffffffffffffffffffffffffffffffff1673ffffffffffffffffffffffffffffffffffffffff168152602001600182018054600181600116156101000203166002900480601f0160208091040260200160405190810160405280929190818152602001828054600181600116156101000203166002900480156128765780601f1061284b57610100808354040283529160200191612876565b820191906000526020600020905b81548152906001019060200180831161285957829003601f168201915b505050505081526020016002820160009054906101000a900460ff16151515158152505081526020019060010190612763565b50505050613376565b155b156129ac5733816000019073ffffffffffffffffffffffffffffffffffffffff16908173ffffffffffffffffffffffffffffffffffffffff16815250508181602001819052506000805480600101828161290e9190613bf8565b9160005260206000209060030201600083909190915060008201518160000160006101000a81548173ffffffffffffffffffffffffffffffffffffffff021916908373ffffffffffffffffffffffffffffffffffffffff160217905550602082015181600101908051906020019061298792919061381a565b5060408201518160020160006101000a81548160ff0219169083151502179055505050505b600154600260006001600080549050038152602001908152602001600020819055505050565b60006129dc61393e565b6000846040518059106129ec5750595b90808252806020026020018201604052509150600090505b84811015612a6e578381815181101515612a1a57fe5b9060200190602002015160400151828783815181101515612a3757fe5b90602001906020020151815181101515612a4d57fe5b90602001906020020181815101915081815250508080600101915050612a04565b600090505b84811015612ab257600e548282815181101515612a8c57fe5b90602001906020020151101515612aa557809250612ab6565b8080600101915050612a73565b8492505b50509392505050565b6000612acd858585856133f8565b9050949350505050565b612adf61393e565b600080600080600e549350612af5878786613430565b9250612b04898b898988613447565b9150612b108785613462565b90508183018189011015612b3157612b2a83838a8461232f565b9450612b54565b6002604051805910612b405750595b908082528060200260200182016040525094505b5050505095945050505050565b600080600084925083915081831415612b7957612cb9565b856002868603811515612b8857fe5b048601815181101515612b9757fe5b9060200190602002015190505b8183111515612c90575b808684815181101515612bbd57fe5b906020019060200201511115612bda578280600101935050612bae565b5b8582815181101515612be957fe5b90602001906020020151811115612c0857818060019003925050612bdb565b8183111515612c8b578582815181101515612c1f57fe5b906020019060200201518684815181101515612c3757fe5b906020019060200201518785815181101515612c4f57fe5b9060200190602002018885815181101515612c6657fe5b9060200190602002018281525082815250505082806001019350508180600190039250505b612ba4565b81851015612ca457612ca3868684612b61565b5b83831015612cb857612cb7868486612b61565b5b5b505050505050565b600080612ccc61393e565b612cd461392a565b6000612cde61393e565b612ce661393e565b612cee61393e565b600680549050604051805910612d015750595b908082528060200260200182016040525095508551604051805910612d235750595b908082528060200260200182016040528015612d5957816020015b612d46613966565b815260200190600190039081612d3e5790505b509450600097505b8551881015612db2578551604051805910612d795750595b90808252806020026020018201604052508589815181101515612d9857fe5b906020019060200201819052508780600101985050612d61565b600097505b6001865103881015612eee578760010196505b8551871015612ee157612ddd8888613476565b93506000841415612e5b57868589815181101515612df757fe5b90602001906020020151878a815181101515612e0f57fe5b90602001906020020151815181101515612e2557fe5b90602001906020020181815250508588815181101515612e4157fe5b906020019060200201805180919060010181525050612ed4565b6001841415612ed357878588815181101515612e7357fe5b906020019060200201518789815181101515612e8b57fe5b90602001906020020151815181101515612ea157fe5b90602001906020020181815250508587815181101515612ebd57fe5b9060200190602002018051809190600101815250505b5b8680600101975050612dca565b8780600101985050612db7565b8551604051805910612efd5750595b90808252806020026020018201604052509250600097505b8551881015612fe65760008689815181101515612f2e57fe5b90602001906020020151141515612fd957600096505b8588815181101515612f5257fe5b90602001906020020151871015612fd857858589815181101515612f7257fe5b9060200190602002015188815181101515612f8957fe5b90602001906020020151815181101515612f9f57fe5b906020019060200201518389815181101515612fb757fe5b90602001906020020181815101915081815250508680600101975050612f44565b5b8780600101985050612f15565b8551604051805910612ff55750595b90808252806020026020018201604052509150613019613014846136e7565b61188a565b9050600097505b85518810156130ca57600096505b85518710156130bd57828781518110151561304557fe5b90602001906020020151818981518110151561305d57fe5b9060200190602002015114156130b05786828981518110151561307c57fe5b90602001906020020181815250508551865102838881518110151561309d57fe5b90602001906020020181815250506130bd565b868060010197505061302e565b8780600101985050613020565b6130d382611504565b5050505050505050565b6000806000809150600090505b845181101561317457838181518110151561310157fe5b90602001906020020151858281518110151561311957fe5b90602001906020020151111561314a57838181518110151561313757fe5b9060200190602002015182019150613167565b848181518110151561315857fe5b90602001906020020151820191505b80806001019150506130ea565b819250505092915050565b613187613c2a565b6000613191613c2a565b60006006805490509250826040518059106131a95750595b9080825280602002602001820160405280156131df57816020015b6131cc613c3e565b8152602001906001900390816131c45790505b509150600090505b8281101561336d57600060068281548110151561320057fe5b90600052602060002090015481548110151561321857fe5b9060005260206000209060030201606060405190810160405290816000820160009054906101000a900473ffffffffffffffffffffffffffffffffffffffff1673ffffffffffffffffffffffffffffffffffffffff1673ffffffffffffffffffffffffffffffffffffffff168152602001600182018054600181600116156101000203166002900480601f0160208091040260200160405190810160405280929190818152602001828054600181600116156101000203166002900480156133215780601f106132f657610100808354040283529160200191613321565b820191906000526020600020905b81548152906001019060200180831161330457829003601f168201915b505050505081526020016002820160009054906101000a900460ff161515151581525050828281518110151561335357fe5b9060200190602002018190525080806001019150506131e7565b81935050505090565b600080600090505b82518110156133ec578373ffffffffffffffffffffffffffffffffffffffff1683828151811015156133ac57fe5b906020019060200201516000015173ffffffffffffffffffffffffffffffffffffffff1614156133df57600191506133f1565b808060010191505061337e565b600091505b5092915050565b60008061340586866130dd565b90508060115460640302846001850103826011540281151561342357fe5b0401915050949350505050565b600061343e83850183613774565b90509392505050565b60006134578686858701856133f8565b905095945050505050565b600061346e8383613774565b905092915050565b60008060008060008060008060008060009850600097506007805490509650600060068d8154811015156134a657fe5b9060005260206000209001548154811015156134be57fe5b906000526020600020906003020160000160009054906101000a900473ffffffffffffffffffffffffffffffffffffffff169550600060068c81548110151561350357fe5b90600052602060002090015481548110151561351b57fe5b906000526020600020906003020160000160009054906101000a900473ffffffffffffffffffffffffffffffffffffffff169450600093505b868410156136b15760028781151561356857fe5b048911158015613584575060028781151561357f57fe5b048811155b1561369f5760078481548110151561359857fe5b9060005260206000209001805490509250600091505b8282101561369a576007848154811015156135c557fe5b9060005260206000209001828154811015156135dd57fe5b906000526020600020900160009054906101000a900473ffffffffffffffffffffffffffffffffffffffff1690508573ffffffffffffffffffffffffffffffffffffffff168173ffffffffffffffffffffffffffffffffffffffff16141561364c57888060010199505061369a565b8473ffffffffffffffffffffffffffffffffffffffff168173ffffffffffffffffffffffffffffffffffffffff16141561368d57878060010198505061369a565b81806001019250506135ae565b6136a4565b6136b1565b8380600101945050613554565b878911156136c257600099506136d8565b888811156136d357600199506136d8565b600299505b50505050505050505092915050565b6136ef61393e565b6136f761393e565b600083516040518059106137085750595b90808252806020026020018201604052509150600090505b835181101561376a57838181518110151561373757fe5b90602001906020020151828281518110151561374f57fe5b90602001906020020181815250508080600101915050613720565b8192505050919050565b600060646011546064030283600184010360646011540281151561379457fe5b0401905092915050565b602060405190810160405280600081525090565b6040805190810160405280600073ffffffffffffffffffffffffffffffffffffffff1681526020016137e2613c7e565b81525090565b815481835581811511613815576002028160020283600052602060002091820191016138149190613c92565b5b505050565b828054600181600116156101000203166002900490600052602060002090601f016020900481019282601f1061385b57805160ff1916838001178555613889565b82800160010185558215613889579182015b8281111561388857825182559160200191906001019061386d565b5b5090506138969190613ce8565b5090565b8154818355818115116138c7576002028160020283600052602060002091820191016138c69190613c92565b5b505050565b8154818355818115116138f3578183600052602060002091820191016138f29190613ce8565b5b505050565b815481835581811511613925576003028160030283600052602060002091820191016139249190613d0d565b5b505050565b602060405190810160405280600081525090565b602060405190810160405280600081525090565b602060405190810160405280600081525090565b602060405190810160405280600081525090565b60606040519081016040528060008152602001613995613966565b8152602001600081525090565b8280548282559060005260206000209081019282156139de579160200282015b828111156139dd5782518255916020019190600101906139c2565b5b5090506139eb9190613ce8565b5090565b60606040519081016040528060008152602001613a0a613966565b8152602001600081525090565b815481835581811511613a4457600302816003028360005260206000209182019101613a439190613d0d565b5b505050565b828054828255906000526020600020908101928215613a85579160200282015b82811115613a84578251825591602001919060010190613a69565b5b509050613a929190613ce8565b5090565b602060405190810160405280600081525090565b815481835581811511613ad157818360005260206000209182019101613ad09190613d4c565b5b505050565b815481835581811511613afd57818360005260206000209182019101613afc9190613ce8565b5b505050565b815481835581811511613b2957818360005260206000209182019101613b289190613d4c565b5b505050565b828054828255906000526020600020908101928215613ba7579160200282015b82811115613ba65782518260006101000a81548173ffffffffffffffffffffffffffffffffffffffff021916908373ffffffffffffffffffffffffffffffffffffffff16021790555091602001919060010190613b4e565b5b509050613bb49190613d78565b5090565b606060405190810160405280600073ffffffffffffffffffffffffffffffffffffffff168152602001613be9613c7e565b81526020016000151581525090565b815481835581811511613c2557600302816003028360005260206000209182019101613c249190613dbb565b5b505050565b602060405190810160405280600081525090565b606060405190810160405280600073ffffffffffffffffffffffffffffffffffffffff168152602001613c6f613c7e565b81526020016000151581525090565b602060405190810160405280600081525090565b613ce591905b80821115613ce157600080820160006101000a81549073ffffffffffffffffffffffffffffffffffffffff0219169055600182016000613cd89190613e25565b50600201613c98565b5090565b90565b613d0a91905b80821115613d06576000816000905550600101613cee565b5090565b90565b613d4991905b80821115613d4557600080820160009055600182016000613d349190613e6d565b600282016000905550600301613d13565b5090565b90565b613d7591905b80821115613d715760008181613d689190613e8e565b50600101613d52565b5090565b90565b613db891905b80821115613db457600081816101000a81549073ffffffffffffffffffffffffffffffffffffffff021916905550600101613d7e565b5090565b90565b613e2291905b80821115613e1e57600080820160006101000a81549073ffffffffffffffffffffffffffffffffffffffff0219169055600182016000613e019190613e25565b6002820160006101000a81549060ff021916905550600301613dc1565b5090565b90565b50805460018160011615610100020316600290046000825580601f10613e4b5750613e6a565b601f016020900490600052602060002090810190613e699190613ce8565b5b50565b5080546000825590600052602060002090810190613e8b9190613ce8565b50565b5080546000825590600052602060002090810190613eac9190613ce8565b50565b6000613ebb8235614814565b905092915050565b600082601f83011260008114613ed857613edd565b600080fd5b508135613ef1613eec826146e0565b6146aa565b91508181835260208401935060208101905083856020840282011160018114613f1957613f1e565b600080fd5b5060005b83811015613f4f5781613f358882613eaf565b845260208401935060208301925050600181019050613f22565b5050505092915050565b600082601f83011260008114613f6e57613f73565b600080fd5b508135613f87613f8282614711565b6146aa565b91508181835260208401935060208101905083856020840282011160018114613faf57613fb4565b600080fd5b5060005b83811015613fe55781613fcb8882614056565b845260208401935060208301925050600181019050613fb8565b5050505092915050565b600082601f8301126000811461400457614009565b600080fd5b50813561401d61401882614742565b6146aa565b9150808252602083016020830185838301116001811461403c57614041565b600080fd5b5061404d83828461483e565b50505092915050565b60006140628235614834565b905092915050565b6000806040838503126001811461408057614085565b600080fd5b50600061409485828601613eaf565b925050602083013567ffffffffffffffff8111600181146140b4576140b9565b600080fd5b506140c685828601613fef565b9150509250929050565b6000602082840312600181146140e5576140ea565b600080fd5b50600082013567ffffffffffffffff8111600181146141085761410d565b600080fd5b5061411a84828501613ec3565b91505092915050565b6000602082840312600181146141385761413d565b600080fd5b50600082013567ffffffffffffffff81116001811461415b57614160565b600080fd5b5061416d84828501613f59565b91505092915050565b6000806000806080858703126001811461418f57614194565b600080fd5b50600085013567ffffffffffffffff8111600181146141b2576141b7565b600080fd5b506141c487828801613f59565b945050602085013567ffffffffffffffff8111600181146141e4576141e9565b600080fd5b506141f687828801613f59565b935050604085013567ffffffffffffffff8111600181146142165761421b565b600080fd5b5061422887828801613f59565b925050606061423987828801614056565b91505092959194509250565b60006020828403126001811461425a5761425f565b600080fd5b50600082013567ffffffffffffffff81116001811461427d57614282565b600080fd5b5061428f84828501613fef565b91505092915050565b6000602082840312600181146142ad576142b2565b600080fd5b5060006142c184828501614056565b91505092915050565b600080600080608085870312600181146142e3576142e8565b600080fd5b5060006142f787828801614056565b945050602061430887828801614056565b935050604061431987828801614056565b925050606061432a87828801614056565b91505092959194509250565b61433f816147de565b82525050565b6000614350826147a3565b80845260208401935061436283614777565b60005b8281101561439457614378868351614336565b614381826147c4565b9150602086019550600181019050614365565b50849250505092915050565b60006143ab826147ae565b8084526020840193506143bd83614784565b60005b828110156143ef576143d3868351614534565b6143dc826147d1565b91506020860195506001810190506143c0565b50849250505092915050565b614404816147fe565b82525050565b6000614415826147b9565b80845261442981602086016020860161484d565b61443281614880565b602085010191505092915050565b60008154600181166000811461445d576001811461447d576144be565b607f600283041680865260ff1983166020870152604086019350506144be565b6002820480865260208601955061449385614791565b60005b828110156144b557815481890152600182019150602081019050614496565b80880195505050505b505092915050565b6000600482527f6a616b65000000000000000000000000000000000000000000000000000000006020830152604082019050919050565b6000600282527f68690000000000000000000000000000000000000000000000000000000000006020830152604082019050919050565b61453d8161480a565b82525050565b6000602082019050818103600083015261455d8184614345565b905092915050565b6000602082019050818103600083015261457f81846143a0565b905092915050565b600060208201905061459c60008301846143fb565b92915050565b600060408201905081810360008301526145bc818561440a565b90506145cb6020830184614336565b9392505050565b600060808201905081810360008301526145ec818761440a565b90506145fb6020830186614336565b6146086040830185614534565b818103606083015261461a81846143a0565b905095945050505050565b6000604082019050818103600083015261463f818561440a565b905081810360208301526146538184614440565b90509392505050565b60006040820190508181036000830152614675816144fd565b90508181036020830152614688816144c6565b9050919050565b60006020820190506146a46000830184614534565b92915050565b6000604051905081810181811067ffffffffffffffff821117600181146146d0576146d5565b600080fd5b508060405250919050565b600067ffffffffffffffff8211600181146146fa576146ff565b600080fd5b50602082029050602081019050919050565b600067ffffffffffffffff82116001811461472b57614730565b600080fd5b50602082029050602081019050919050565b600067ffffffffffffffff82116001811461475c57614761565b600080fd5b50601f19601f8301169050602081019050919050565b6000602082019050919050565b6000602082019050919050565b60008160005260206000209050919050565b600081519050919050565b600081519050919050565b600081519050919050565b6000602082019050919050565b6000602082019050919050565b600073ffffffffffffffffffffffffffffffffffffffff82169050919050565b60008115159050919050565b6000819050919050565b600073ffffffffffffffffffffffffffffffffffffffff82169050919050565b6000819050919050565b82818337600083830152505050565b60005b8381101561486b578082015181840152602081019050614850565b8381111561487a576000848401525b50505050565b6000601f19601f83011690509190505600a265627a7a723058209071e2fabf7a211b917777bf99d1c8b5b9bef17dfb27a1e9e1f04d88c2adaa166c6578706572696d656e74616cf50037",
  "source": "pragma solidity ^0.4.18;\r\npragma experimental ABIEncoderV2;\r\nimport \"./MyLib.sol\";\r\nimport \"./VotingClub.sol\";\r\ncontract BudgetClub is VotingClub {\r\n  uint public numberOfSinks;\r\n  uint public quota;\r\n  uint public gasCost;\r\n  uint public numberOfTurns;\r\n  uint public coalitionSizeFactor;\r\n  uint public coalitionSizeFactorIncrease;\r\n  MyLib.Sink[] listOfSinks;\r\n  uint[] public finalBudget;\r\n  uint[] public submittedSink;\r\n  uint numOfSinksAllowedToSubmit;\r\n  function BudgetClub(uint cost, uint term, uint reps, uint option, uint sinks, uint q, uint gas, uint turns, uint sizeFactor, uint sizeFactorIncrease) VotingClub(cost,term,reps,option) public {\r\n    numberOfSinks = sinks;\r\n    quota = q;\r\n    gasCost = gas;\r\n    numberOfTurns = turns;\r\n    coalitionSizeFactor = sizeFactor;\r\n    coalitionSizeFactorIncrease = sizeFactorIncrease;\r\n    numOfSinksAllowedToSubmit = sinks / reps + 1;\r\n  }\r\n\r\n  function sendOut() {\r\n    uint startingBalance = this.balance;\r\n    for(uint i = 0; i < listOfSinks.length; i ++)\r\n    {\r\n      listOfSinks[i].spender.transfer(startingBalance * finalBudget[i] / 100);\r\n    }\r\n    listOfSinks.length = 0;\r\n    submittedSink.length = 0;\r\n\r\n  }\r\n\r\n  function submitBudget(uint[] budget) public\r\n  {\r\n    if(budget.length == numberOfSinks)\r\n    {\r\n      for (uint i = 0; i < numberOfRepresentatives; i++)\r\n      {\r\n        if(registeredUser[listOfRepresentatives[i].u].myAddress == msg.sender)\r\n        {\r\n          listOfRepresentatives[i].budget = budget;\r\n        }\r\n      }\r\n    }\r\n  }\r\n  function submitSink(address spender, string name) public\r\n  {\r\n    if(listOfSinks.length < numberOfSinks)\r\n    {\r\n      for (uint i = 0; i < numberOfRepresentatives; i++)\r\n      {\r\n        if(registeredUser[listOfRepresentatives[i].u].myAddress == msg.sender && submittedSink[i] < numOfSinksAllowedToSubmit)\r\n        {\r\n          MyLib.Sink memory s;\r\n          s.name = name;\r\n          s.spender = spender;\r\n          listOfSinks.push(s);\r\n          submittedSink[i] += 1;\r\n        }\r\n      }\r\n    }\r\n  }\r\n\r\n\r\n  function endBudgetSubmit() public\r\n  {\r\n    if(listOfRepresentatives.length != 0 && timeVoteEnded + 1000 < block.timestamp)\r\n    {\r\n      decideBudget();\r\n      listOfRepresentatives.length = 0;\r\n    }\r\n  }\r\n\r\n  function allSubmitted() internal constant returns (bool)\r\n  {\r\n    for (uint i = 0; i < numberOfRepresentatives; i++)\r\n    {\r\n      if(listOfRepresentatives[i].budget.length == 0)\r\n      {\r\n        return false;\r\n      }\r\n    }\r\n    return true;\r\n  }\r\n\r\n\r\n  function decideBudget() public\r\n  {\r\n    uint quotaMemory = quota;\r\n    uint numberOfRepresentativesMemory = numberOfRepresentatives;\r\n    uint[][] memory coalitionBudgets = new uint[][](numberOfRepresentativesMemory);\r\n    uint[] memory coalitionSize = new uint[](numberOfRepresentativesMemory);\r\n    uint[] memory playerToCoalition = new uint[](numberOfRepresentativesMemory);\r\n    MyLib.Agent[] memory playerToAgent = new MyLib.Agent[](numberOfRepresentativesMemory);\r\n    uint i;\r\n    //init\r\n    for (i = 0; i < numberOfRepresentativesMemory; i++)\r\n    {\r\n      playerToAgent[i] = listOfRepresentatives[i];\r\n      coalitionBudgets[i] =  playerToAgent[i].budget;\r\n      coalitionSize[i] = 1;\r\n      playerToCoalition[i] = i;\r\n    }\r\n\r\n    uint player = 0;\r\n    while(winningCoalition(playerToCoalition,numberOfRepresentativesMemory,playerToAgent) == numberOfRepresentativesMemory)\r\n    {\r\n      uint[] memory bestOffer = new uint[](2);\r\n      uint bestCoalition = numberOfRepresentativesMemory;\r\n      //get utility in the current coalition\r\n      uint myAfloor = afloor(coalitionBudgets[playerToCoalition[player]],playerToAgent[player].budget,coalitionSize[playerToCoalition[player]],quotaMemory);\r\n      for(i = 0; i < numberOfRepresentativesMemory; i ++)\r\n      {\r\n        //dont check coalitions with no one or the one your in\r\n        if(playerToCoalition[player] != i && coalitionSize[i] != 0)\r\n        {\r\n          uint[] memory nego = offer(coalitionBudgets[i],playerToAgent[player].budget,myAfloor,coalitionSize[i],playerToAgent[player].weight);\r\n          if(nego[0] > bestOffer[0])\r\n          {\r\n            bestOffer = nego;\r\n            bestCoalition = i;\r\n          }\r\n        }\r\n\r\n      }\r\n\r\n      if(bestCoalition != numberOfRepresentativesMemory)\r\n      {\r\n        coalitionBudgets[bestCoalition] = negoToBudget(playerToAgent[player].budget, coalitionBudgets[bestCoalition], bestOffer, coalitionSize[bestCoalition] + playerToAgent[player].weight);\r\n        coalitionSize[playerToCoalition[player]] -= playerToAgent[player].weight;\r\n        coalitionSize[bestCoalition] += playerToAgent[player].weight;\r\n        playerToCoalition[player] = bestCoalition;\r\n\r\n      }\r\n\r\n      if(player == numberOfRepresentativesMemory - 1)\r\n      {\r\n        player = 0;\r\n      }\r\n      else{\r\n        player ++;\r\n      }\r\n      coalitionSizeFactor += coalitionSizeFactorIncrease;\r\n\r\n    }\r\n\r\n    finalBudget = coalitionBudgets[winningCoalition(playerToCoalition,numberOfRepresentativesMemory,playerToAgent)];\r\n\r\n  }\r\n\r\n  function offer(uint[] budgetCoal, uint[] budgeta, uint myAfloor, uint coalSize, uint agentWeight) constant internal returns (uint[])\r\n  {\r\n    uint quotaMemory = quota;\r\n    uint myAbar = abar(coalSize, agentWeight, quotaMemory);\r\n    uint myBbar = bbar(budgeta, budgetCoal, coalSize, agentWeight, quotaMemory);\r\n    uint myBfloor = bfloor(coalSize, quotaMemory);\r\n    if(myAfloor + myBfloor < myAbar + myBbar)\r\n    {\r\n      return negotiate(myAbar, myBbar ,myAfloor, myBfloor);\r\n    }\r\n    else{\r\n      return new uint[](2);\r\n    }\r\n  }\r\n\r\n  function afloor(uint[] budgetCoala, uint[] budgeta, uint coalSizea, uint quotaMemory ) constant internal returns (uint)\r\n  {\r\n    return calculateUtility(budgetCoala,budgeta,coalSizea,quotaMemory);\r\n  }\r\n  function bfloor(uint coalSize,  uint quotaMemory) constant internal returns (uint)\r\n  {\r\n    return calculate100Utility(coalSize,quotaMemory);\r\n  }\r\n  function abar(uint coalSize, uint agentWeight,  uint quotaMemory) constant internal returns (uint)\r\n  {\r\n    return calculate100Utility(coalSize + agentWeight,quotaMemory);\r\n  }\r\n  function bbar(uint[] budgetCoal, uint[] budgeta, uint coalSize, uint agentWeight,  uint quotaMemory) constant internal returns (uint)\r\n  {\r\n    return calculateUtility(budgetCoal,budgeta,coalSize + agentWeight,quotaMemory);\r\n  }\r\n  function winningCoalition(uint[] playerToCoalition, uint numberOfRepresentativesMemory,MyLib.Agent[] playerToAgent ) constant internal returns (uint)\r\n  {\r\n    uint[] memory weights = new uint[](numberOfRepresentativesMemory);\r\n    //add all the weights\r\n    for (uint i = 0; i < numberOfRepresentativesMemory ; i++)\r\n    {\r\n      weights[playerToCoalition[i]] += playerToAgent[i].weight;\r\n    }\r\n    for (i = 0; i < numberOfRepresentativesMemory ; i++)\r\n    {\r\n      if(weights[i] >= quota)\r\n      {\r\n        return i;\r\n      }\r\n    }\r\n    return numberOfRepresentativesMemory;\r\n  }\r\n\r\n  function calculate100Utility(uint coalitionSize,  uint quotaMemory) constant internal returns (uint)\r\n  {\r\n    return (uint) ((coalitionSizeFactor * 100) / (quotaMemory + 1 - coalitionSize) + ((100-coalitionSizeFactor) * 100));\r\n  }\r\n\r\n  function calculateUtility(uint[] budget1,uint[] budget2, uint coalitionSize,  uint quotaMemory) constant internal returns (uint)\r\n  {\r\n    uint shared = sharedBudget(budget1,budget2);\r\n    return (uint) ((coalitionSizeFactor * shared) / (quotaMemory + 1 - coalitionSize) + ((100-coalitionSizeFactor) * shared));\r\n  }\r\n\r\n  function sharedBudget(uint[] budget1,uint[] budget2) constant internal returns (uint)\r\n  {\r\n    uint shared = 0;\r\n    for(uint i = 0; i < budget1.length; i ++)\r\n    {\r\n      if(budget1[i] > budget2[i])\r\n      {\r\n        shared += budget2[i];\r\n      }\r\n      else{\r\n        shared += budget1[i];\r\n      }\r\n    }\r\n    return shared;\r\n  }\r\n  function negotiate(uint a_bar,uint b_bar,uint a_floor,uint b_floor)constant  public returns (uint[])\r\n  {\r\n    uint gasCostMemory = gasCost;\r\n    uint usefulTurn = ((a_bar + b_bar - a_floor - b_floor - 2) / gasCostMemory) + 1;\r\n    uint[] memory proposal = new uint[](2);\r\n\r\n    uint numberOfTurnsMemory = numberOfTurns;\r\n    if(usefulTurn > numberOfTurnsMemory)\r\n    {\r\n      usefulTurn = numberOfTurnsMemory;\r\n\r\n    }\r\n    uint freeUtility = a_bar + b_bar - ((usefulTurn - 1) * gasCostMemory) - a_floor - b_floor - 2;\r\n    if(usefulTurn % 2 == 0)\r\n    {\r\n      proposal[1] = b_floor + 1 + freeUtility + (((usefulTurn/ 2)-1) * gasCostMemory) + 1;\r\n      proposal[0] = a_bar + b_bar -  proposal[1];\r\n    }\r\n    else\r\n    {\r\n      proposal[0] = a_floor + 1 + freeUtility +  ((((usefulTurn + 1)/ 2)-1) * gasCostMemory);\r\n      proposal[1] = a_bar + b_bar -  proposal[0];\r\n    }\r\n    //cant go over the best amount\r\n    if(proposal[0] > a_bar)\r\n    {\r\n      proposal[1] +=  proposal[0] - a_bar;\r\n      proposal[0] = a_bar;\r\n    }\r\n    else if(proposal[1] > a_bar)\r\n    {\r\n      proposal[0] +=  proposal[1] - a_bar;\r\n      proposal[1] = a_bar;\r\n    }\r\n\r\n\r\n    return proposal;\r\n\r\n\r\n\r\n  }\r\n\r\n  function negoToBudget(uint[] budget1, uint [] budget2, uint[] nego, uint coalitionSize) constant public returns (uint[])\r\n  {\r\n    uint[] memory newBudget = new uint[](budget1.length);\r\n\r\n    uint sharedab = sharedBudget(budget1,budget2);\r\n\r\n    uint quotaMemory = quota;\r\n    uint individuala = (uint) (nego[0] / ((coalitionSizeFactor / (quotaMemory + 1 - coalitionSize)) + (100 - coalitionSizeFactor)) - sharedab);\r\n    uint individualb = (uint) (nego[1] / ((coalitionSizeFactor / (quotaMemory + 1 - coalitionSize)) + (100 - coalitionSizeFactor))- sharedab);\r\n\r\n\r\n    uint suma = 0;\r\n    uint sumb = 0;\r\n\r\n    for(uint i = 0; i < budget1.length; i ++)\r\n    {\r\n      if(budget1[i] > budget2[i])\r\n      {\r\n        suma += budget1[i];\r\n      }\r\n      else{\r\n        sumb += budget2[i];\r\n      }\r\n    }\r\n\r\n    uint total = 0;\r\n    for(i = 0; i < budget1.length; i ++)\r\n    {\r\n      if(budget1[i] > budget2[i])\r\n      {\r\n        total +=  budget2[i] + individuala * budget1[i] / suma;\r\n        newBudget[i] = budget2[i] + individuala * budget1[i] / suma;\r\n      }\r\n      else{\r\n        total +=  budget1[i] + individualb * budget2[i] / sumb;\r\n        newBudget[i] = budget1[i] + individualb * budget2[i] / sumb;\r\n      }\r\n    }\r\n    uint z = 0;\r\n    while(total < 100)\r\n    {\r\n      newBudget[z] += 1;\r\n      total +=1;\r\n      if(z == budget1.length - 1)\r\n      {\r\n        z = 0;\r\n      }\r\n      else\r\n      {\r\n        z ++;\r\n      }\r\n    }\r\n\r\n\r\n    return newBudget;\r\n  }\r\n\r\n  function listSinks(uint number) public constant returns (string,address) {\r\n\r\n    return (listOfSinks[number].name, listOfSinks[number].spender);\r\n  }\r\n\r\n  function getSinksLength() public constant returns (uint)\r\n  {\r\n    return listOfSinks.length;\r\n  }\r\n\r\n  function listFinalBudget(uint number) public constant returns(uint)\r\n  {\r\n    return finalBudget[number];\r\n  }\r\n\r\n\r\n}\r\n",
  "sourcePath": "C:\\Users\\JakeL\\Desktop\\MultiAgentSystemsOnTheBlockChain\\contracts\\BudgetClub.sol",
  "compiler": {
    "name": "solc",
    "version": "0.4.19+commit.c4cbbb05.Emscripten.clang"
  },
  "schemaVersion": "2.0.0",
  "updatedAt": "2018-04-26T01:24:50.194Z"
}