{
  "contractName": "BudgetClub",
  "abi": [
    {
      "constant": true,
      "inputs": [
        {
          "name": "number",
          "type": "uint256"
        }
      ],
      "name": "listRegisteredUsers",
      "outputs": [
        {
          "name": "",
          "type": "string"
        },
        {
          "name": "",
          "type": "address"
        }
      ],
      "payable": false,
      "stateMutability": "view",
      "type": "function"
    },
    {
      "constant": false,
      "inputs": [
        {
          "name": "spender",
          "type": "address"
        },
        {
          "name": "name",
          "type": "string"
        }
      ],
      "name": "submitSink",
      "outputs": [],
      "payable": false,
      "stateMutability": "nonpayable",
      "type": "function"
    },
    {
      "constant": true,
      "inputs": [],
      "name": "timeVoteStarted",
      "outputs": [
        {
          "name": "",
          "type": "uint256"
        }
      ],
      "payable": false,
      "stateMutability": "view",
      "type": "function"
    },
    {
      "constant": true,
      "inputs": [],
      "name": "getCandidatesLength",
      "outputs": [
        {
          "name": "",
          "type": "uint256"
        }
      ],
      "payable": false,
      "stateMutability": "view",
      "type": "function"
    },
    {
      "constant": true,
      "inputs": [],
      "name": "getRegisteredUsersLength",
      "outputs": [
        {
          "name": "",
          "type": "uint256"
        }
      ],
      "payable": false,
      "stateMutability": "view",
      "type": "function"
    },
    {
      "constant": false,
      "inputs": [],
      "name": "sendOut",
      "outputs": [],
      "payable": false,
      "stateMutability": "nonpayable",
      "type": "function"
    },
    {
      "constant": true,
      "inputs": [],
      "name": "gasCost",
      "outputs": [
        {
          "name": "",
          "type": "uint256"
        }
      ],
      "payable": false,
      "stateMutability": "view",
      "type": "function"
    },
    {
      "constant": true,
      "inputs": [],
      "name": "isRegistered",
      "outputs": [
        {
          "name": "",
          "type": "bool"
        }
      ],
      "payable": false,
      "stateMutability": "view",
      "type": "function"
    },
    {
      "constant": true,
      "inputs": [
        {
          "name": "number",
          "type": "uint256"
        }
      ],
      "name": "listCandidates",
      "outputs": [
        {
          "name": "",
          "type": "string"
        },
        {
          "name": "",
          "type": "address"
        }
      ],
      "payable": false,
      "stateMutability": "view",
      "type": "function"
    },
    {
      "constant": false,
      "inputs": [],
      "name": "endBudgetSubmit",
      "outputs": [],
      "payable": false,
      "stateMutability": "nonpayable",
      "type": "function"
    },
    {
      "constant": true,
      "inputs": [],
      "name": "numberOfSinks",
      "outputs": [
        {
          "name": "",
          "type": "uint256"
        }
      ],
      "payable": false,
      "stateMutability": "view",
      "type": "function"
    },
    {
      "constant": false,
      "inputs": [],
      "name": "decideBudget",
      "outputs": [],
      "payable": false,
      "stateMutability": "nonpayable",
      "type": "function"
    },
    {
      "constant": false,
      "inputs": [],
      "name": "startVote",
      "outputs": [],
      "payable": false,
      "stateMutability": "nonpayable",
      "type": "function"
    },
    {
      "constant": false,
      "inputs": [
        {
          "name": "ranked",
          "type": "uint256[]"
        }
      ],
      "name": "weightCandidates",
      "outputs": [],
      "payable": false,
      "stateMutability": "nonpayable",
      "type": "function"
    },
    {
      "constant": true,
      "inputs": [
        {
          "name": "number",
          "type": "uint256"
        }
      ],
      "name": "showVotes",
      "outputs": [
        {
          "name": "",
          "type": "address[]"
        }
      ],
      "payable": false,
      "stateMutability": "view",
      "type": "function"
    },
    {
      "constant": false,
      "inputs": [
        {
          "name": "budget",
          "type": "uint256[]"
        }
      ],
      "name": "submitBudget",
      "outputs": [],
      "payable": false,
      "stateMutability": "nonpayable",
      "type": "function"
    },
    {
      "constant": true,
      "inputs": [],
      "name": "coalitionSizeFactorIncrease",
      "outputs": [
        {
          "name": "",
          "type": "uint256"
        }
      ],
      "payable": false,
      "stateMutability": "view",
      "type": "function"
    },
    {
      "constant": true,
      "inputs": [],
      "name": "termLength",
      "outputs": [
        {
          "name": "",
          "type": "uint256"
        }
      ],
      "payable": false,
      "stateMutability": "view",
      "type": "function"
    },
    {
      "constant": true,
      "inputs": [
        {
          "name": "number",
          "type": "uint256"
        }
      ],
      "name": "listFinalBudget",
      "outputs": [
        {
          "name": "",
          "type": "uint256"
        }
      ],
      "payable": false,
      "stateMutability": "view",
      "type": "function"
    },
    {
      "constant": false,
      "inputs": [],
      "name": "subsidize",
      "outputs": [],
      "payable": true,
      "stateMutability": "payable",
      "type": "function"
    },
    {
      "constant": false,
      "inputs": [
        {
          "name": "data",
          "type": "uint256[]"
        }
      ],
      "name": "sort",
      "outputs": [
        {
          "name": "",
          "type": "uint256[]"
        }
      ],
      "payable": false,
      "stateMutability": "nonpayable",
      "type": "function"
    },
    {
      "constant": true,
      "inputs": [],
      "name": "coalitionSizeFactor",
      "outputs": [
        {
          "name": "",
          "type": "uint256"
        }
      ],
      "payable": false,
      "stateMutability": "view",
      "type": "function"
    },
    {
      "constant": true,
      "inputs": [
        {
          "name": "",
          "type": "uint256"
        }
      ],
      "name": "finalBudget",
      "outputs": [
        {
          "name": "",
          "type": "uint256"
        }
      ],
      "payable": false,
      "stateMutability": "view",
      "type": "function"
    },
    {
      "constant": true,
      "inputs": [],
      "name": "numberOfRepresentatives",
      "outputs": [
        {
          "name": "",
          "type": "uint256"
        }
      ],
      "payable": false,
      "stateMutability": "view",
      "type": "function"
    },
    {
      "constant": true,
      "inputs": [
        {
          "name": "",
          "type": "address"
        }
      ],
      "name": "voted",
      "outputs": [
        {
          "name": "",
          "type": "bool"
        }
      ],
      "payable": false,
      "stateMutability": "view",
      "type": "function"
    },
    {
      "constant": true,
      "inputs": [
        {
          "name": "number",
          "type": "uint256"
        }
      ],
      "name": "listSinks",
      "outputs": [
        {
          "name": "",
          "type": "string"
        },
        {
          "name": "",
          "type": "address"
        }
      ],
      "payable": false,
      "stateMutability": "view",
      "type": "function"
    },
    {
      "constant": false,
      "inputs": [],
      "name": "endVote",
      "outputs": [],
      "payable": false,
      "stateMutability": "nonpayable",
      "type": "function"
    },
    {
      "constant": true,
      "inputs": [],
      "name": "sayhi",
      "outputs": [],
      "payable": false,
      "stateMutability": "view",
      "type": "function"
    },
    {
      "constant": true,
      "inputs": [],
      "name": "getSinksLength",
      "outputs": [
        {
          "name": "",
          "type": "uint256"
        }
      ],
      "payable": false,
      "stateMutability": "view",
      "type": "function"
    },
    {
      "constant": true,
      "inputs": [],
      "name": "quota",
      "outputs": [
        {
          "name": "",
          "type": "uint256"
        }
      ],
      "payable": false,
      "stateMutability": "view",
      "type": "function"
    },
    {
      "constant": true,
      "inputs": [],
      "name": "voteStarted",
      "outputs": [
        {
          "name": "",
          "type": "bool"
        }
      ],
      "payable": false,
      "stateMutability": "view",
      "type": "function"
    },
    {
      "constant": true,
      "inputs": [],
      "name": "getRepresentivesLength",
      "outputs": [
        {
          "name": "",
          "type": "uint256"
        }
      ],
      "payable": false,
      "stateMutability": "view",
      "type": "function"
    },
    {
      "constant": true,
      "inputs": [
        {
          "name": "budget1",
          "type": "uint256[]"
        },
        {
          "name": "budget2",
          "type": "uint256[]"
        },
        {
          "name": "nego",
          "type": "uint256[]"
        },
        {
          "name": "coalitionSize",
          "type": "uint256"
        }
      ],
      "name": "negoToBudget",
      "outputs": [
        {
          "name": "",
          "type": "uint256[]"
        }
      ],
      "payable": false,
      "stateMutability": "view",
      "type": "function"
    },
    {
      "constant": false,
      "inputs": [],
      "name": "apply",
      "outputs": [],
      "payable": false,
      "stateMutability": "nonpayable",
      "type": "function"
    },
    {
      "constant": true,
      "inputs": [],
      "name": "registrationCost",
      "outputs": [
        {
          "name": "",
          "type": "uint256"
        }
      ],
      "payable": false,
      "stateMutability": "view",
      "type": "function"
    },
    {
      "constant": true,
      "inputs": [],
      "name": "getContractValue",
      "outputs": [
        {
          "name": "",
          "type": "uint256"
        }
      ],
      "payable": false,
      "stateMutability": "view",
      "type": "function"
    },
    {
      "constant": true,
      "inputs": [
        {
          "name": "text",
          "type": "string"
        }
      ],
      "name": "chat",
      "outputs": [],
      "payable": false,
      "stateMutability": "view",
      "type": "function"
    },
    {
      "constant": true,
      "inputs": [
        {
          "name": "number",
          "type": "uint256"
        }
      ],
      "name": "listRepresentives",
      "outputs": [
        {
          "name": "",
          "type": "string"
        },
        {
          "name": "",
          "type": "address"
        },
        {
          "name": "",
          "type": "uint256"
        },
        {
          "name": "",
          "type": "uint256[]"
        }
      ],
      "payable": false,
      "stateMutability": "view",
      "type": "function"
    },
    {
      "constant": true,
      "inputs": [],
      "name": "numberOfTurns",
      "outputs": [
        {
          "name": "",
          "type": "uint256"
        }
      ],
      "payable": false,
      "stateMutability": "view",
      "type": "function"
    },
    {
      "constant": true,
      "inputs": [
        {
          "name": "a_bar",
          "type": "uint256"
        },
        {
          "name": "b_bar",
          "type": "uint256"
        },
        {
          "name": "a_floor",
          "type": "uint256"
        },
        {
          "name": "b_floor",
          "type": "uint256"
        }
      ],
      "name": "negotiate",
      "outputs": [
        {
          "name": "",
          "type": "uint256[]"
        }
      ],
      "payable": false,
      "stateMutability": "view",
      "type": "function"
    },
    {
      "constant": true,
      "inputs": [],
      "name": "timeVoteEnded",
      "outputs": [
        {
          "name": "",
          "type": "uint256"
        }
      ],
      "payable": false,
      "stateMutability": "view",
      "type": "function"
    },
    {
      "constant": false,
      "inputs": [
        {
          "name": "myVote",
          "type": "address[]"
        }
      ],
      "name": "vote",
      "outputs": [],
      "payable": false,
      "stateMutability": "nonpayable",
      "type": "function"
    },
    {
      "constant": false,
      "inputs": [
        {
          "name": "name",
          "type": "string"
        }
      ],
      "name": "register",
      "outputs": [],
      "payable": true,
      "stateMutability": "payable",
      "type": "function"
    },
    {
      "inputs": [
        {
          "name": "cost",
          "type": "uint256"
        },
        {
          "name": "term",
          "type": "uint256"
        },
        {
          "name": "reps",
          "type": "uint256"
        },
        {
          "name": "sinks",
          "type": "uint256"
        },
        {
          "name": "q",
          "type": "uint256"
        },
        {
          "name": "gas",
          "type": "uint256"
        },
        {
          "name": "turns",
          "type": "uint256"
        },
        {
          "name": "sizeFactor",
          "type": "uint256"
        },
        {
          "name": "sizeFactorIncrease",
          "type": "uint256"
        }
      ],
      "payable": false,
      "stateMutability": "nonpayable",
      "type": "constructor"
    },
    {
      "anonymous": false,
      "inputs": [
        {
          "indexed": false,
          "name": "message",
          "type": "string"
        },
        {
          "indexed": false,
          "name": "name",
          "type": "string"
        }
      ],
      "name": "message",
      "type": "event"
    }
  ],
  "bytecode": "0x60606040526000600860006101000a81548160ff02191690831515021790555060006009556000600a556000600b55341561003957600080fd5b6040516101208061447283398101604052808051906020019091908051906020019091908051906020019091908051906020019091908051906020019091908051906020019091908051906020019091908051906020019091908051906020019091905050888888828060018190555050816002819055508060038190555050505085600c8190555084600d8190555083600e8190555082600f819055508160108190555080601181905550505050505050505050614375806100fd6000396000f30060606040526004361061020f576000357c0100000000000000000000000000000000000000000000000000000000900463ffffffff1680630cf35f441461021457806313dcd43e1461024c578063161893d0146102c85780631859df65146102f15780631afad36d1461031a5780631b0d3f40146103435780631d5e3fe514610358578063223668441461038157806322ca968b146103aa57806326f9098b146103e25780632cd15220146103f757806347792fc5146104205780634c0a6af0146104355780635846fc461461044a5780636687d4fe146104a45780636904d241146104db578063717a55d21461053557806379b18cd11461055e5780638b2e48831461058757806390f10ed1146105be5780639ec8b026146105c8578063a5982ddb14610636578063ad012af01461065f578063ae0689ac14610696578063aec2ccae146106bf578063af0ab7151461070c578063b922394614610744578063bc9c707d14610759578063c6214bf11461076e578063cebe09c914610797578063d0dc0180146107c0578063d5268b22146107e9578063d87311aa14610812578063db595b3b14610909578063dc4a7f7f1461091e578063dc82697c14610947578063de8caa1e14610970578063dee6472f146109cd578063e0abab9e14610a07578063e32ba07814610a30578063ed00af9814610a82578063ed08132914610aab578063f2c298be14610b05575b600080fd5b341561021f57600080fd5b6102356004808035906020019091905050610b57565b604051610243929190614149565b60405180910390f35b341561025757600080fd5b6102c6600480803573ffffffffffffffffffffffffffffffffffffffff1690602001909190803590602001908201803590602001908080601f01602080910402602001604051908101604052809392919081815260200183838082843782019150505050505091905050610c66565b005b34156102d357600080fd5b6102db610e09565b6040516102e89190614236565b60405180910390f35b34156102fc57600080fd5b610304610e0f565b6040516103119190614236565b60405180910390f35b341561032557600080fd5b61032d610e1c565b60405161033a9190614236565b60405180910390f35b341561034e57600080fd5b610356610e28565b005b341561036357600080fd5b61036b610f20565b6040516103789190614236565b60405180910390f35b341561038c57600080fd5b610394610f26565b6040516103a1919061412e565b60405180910390f35b34156103b557600080fd5b6103cb6004808035906020019091905050610fce565b6040516103d9929190614149565b60405180910390f35b34156103ed57600080fd5b6103f5611111565b005b341561040257600080fd5b61040a611139565b6040516104179190614236565b60405180910390f35b341561042b57600080fd5b61043361113f565b005b341561044057600080fd5b610448611721565b005b341561045557600080fd5b6104a2600480803590602001908201803590602001908080602002602001604051908101604052809392919081815260200183836020028082843782019150505050505091905050611773565b005b34156104af57600080fd5b6104c56004808035906020019091905050611852565b6040516104d291906140ea565b60405180910390f35b34156104e657600080fd5b610533600480803590602001908201803590602001908080602002602001604051908101604052809392919081815260200183836020028082843782019150505050505091905050611900565b005b341561054057600080fd5b6105486119f8565b6040516105559190614236565b60405180910390f35b341561056957600080fd5b6105716119fe565b60405161057e9190614236565b60405180910390f35b341561059257600080fd5b6105a86004808035906020019091905050611a04565b6040516105b59190614236565b60405180910390f35b6105c6611a28565b005b34156105d357600080fd5b610620600480803590602001908201803590602001908080602002602001604051908101604052809392919081815260200183836020028082843782019150505050505091905050611a2a565b60405161062d919061410c565b60405180910390f35b341561064157600080fd5b610649611a4a565b6040516106569190614236565b60405180910390f35b341561066a57600080fd5b6106806004808035906020019091905050611a50565b60405161068d9190614236565b60405180910390f35b34156106a157600080fd5b6106a9611a74565b6040516106b69190614236565b60405180910390f35b34156106ca57600080fd5b6106f6600480803573ffffffffffffffffffffffffffffffffffffffff16906020019091905050611a7a565b604051610703919061412e565b60405180910390f35b341561071757600080fd5b61072d6004808035906020019091905050611a9a565b60405161073b929190614149565b60405180910390f35b341561074f57600080fd5b610757611baa565b005b341561076457600080fd5b61076c611c25565b005b341561077957600080fd5b610781611c5c565b60405161078e9190614236565b60405180910390f35b34156107a257600080fd5b6107aa611c69565b6040516107b79190614236565b60405180910390f35b34156107cb57600080fd5b6107d3611c6f565b6040516107e0919061412e565b60405180910390f35b34156107f457600080fd5b6107fc611c82565b6040516108099190614236565b60405180910390f35b341561081d57600080fd5b6108f36004808035906020019082018035906020019080806020026020016040519081016040528093929190818152602001838360200280828437820191505050505050919080359060200190820180359060200190808060200260200160405190810160405280939291908181526020018383602002808284378201915050505050509190803590602001908201803590602001908080602002602001604051908101604052809392919081815260200183836020028082843782019150505050505091908035906020019091905050611c8f565b604051610900919061410c565b60405180910390f35b341561091457600080fd5b61091c611ffc565b005b341561092957600080fd5b6109316120d6565b60405161093e9190614236565b60405180910390f35b341561095257600080fd5b61095a6120dc565b6040516109679190614236565b60405180910390f35b341561097b57600080fd5b6109cb600480803590602001908201803590602001908080601f016020809104026020016040519081016040528093929190818152602001838380828437820191505050505050919050506120fb565b005b34156109d857600080fd5b6109ee60048080359060200190919050506121ec565b6040516109fe9493929190614179565b60405180910390f35b3415610a1257600080fd5b610a1a6123de565b604051610a279190614236565b60405180910390f35b3415610a3b57600080fd5b610a6c60048080359060200190919080359060200190919080359060200190919080359060200190919050506123e4565b604051610a79919061410c565b60405180910390f35b3415610a8d57600080fd5b610a9561266f565b604051610aa29190614236565b60405180910390f35b3415610ab657600080fd5b610b03600480803590602001908201803590602001908080602002602001604051908101604052809392919081815260200183836020028082843782019150505050505091905050612675565b005b610b55600480803590602001908201803590602001908080601f01602080910402602001604051908101604052809392919081815260200183838082843782019150505050505091905050612795565b005b610b5f6137f4565b60008083815481101515610b6f57fe5b9060005260206000209060020201600101600084815481101515610b8f57fe5b906000526020600020906002020160000160009054906101000a900473ffffffffffffffffffffffffffffffffffffffff16818054600181600116156101000203166002900480601f016020809104026020016040519081016040528092919081815260200182805460018160011615610100020316600290048015610c565780601f10610c2b57610100808354040283529160200191610c56565b820191906000526020600020905b815481529060010190602001808311610c3957829003601f168201915b5050505050915091509150915091565b6000610c70613808565b600c546012805490501015610e0357600091505b600354821015610e02573373ffffffffffffffffffffffffffffffffffffffff166000600484815481101515610cb657fe5b906000526020600020906003020160000154815481101515610cd457fe5b906000526020600020906002020160000160009054906101000a900473ffffffffffffffffffffffffffffffffffffffff1673ffffffffffffffffffffffffffffffffffffffff161415610df55782816020018190525083816000019073ffffffffffffffffffffffffffffffffffffffff16908173ffffffffffffffffffffffffffffffffffffffff168152505060128054806001018281610d77919061383e565b9160005260206000209060020201600083909190915060008201518160000160006101000a81548173ffffffffffffffffffffffffffffffffffffffff021916908373ffffffffffffffffffffffffffffffffffffffff1602179055506020820151816001019080519060200190610df0929190613870565b505050505b8180600101925050610c84565b5b50505050565b60095481565b6000600580549050905090565b60008080549050905090565b6000803073ffffffffffffffffffffffffffffffffffffffff16319150600090505b601280549050811015610f0c57601281815481101515610e6657fe5b906000526020600020906002020160000160009054906101000a900473ffffffffffffffffffffffffffffffffffffffff1673ffffffffffffffffffffffffffffffffffffffff166108fc6064601384815481101515610ec257fe5b9060005260206000209001548502811515610ed957fe5b049081150290604051600060405180830381858888f193505050501515610eff57600080fd5b8080600101915050610e4a565b6000601281610f1b91906138f0565b505050565b600e5481565b600080600090505b600080549050811015610fc5573373ffffffffffffffffffffffffffffffffffffffff16600082815481101515610f6157fe5b906000526020600020906002020160000160009054906101000a900473ffffffffffffffffffffffffffffffffffffffff1673ffffffffffffffffffffffffffffffffffffffff161415610fb85760019150610fca565b8080600101915050610f2e565b600091505b5090565b610fd66137f4565b600080600584815481101515610fe857fe5b90600052602060002090015481548110151561100057fe5b9060005260206000209060020201600101600060058581548110151561102257fe5b90600052602060002090015481548110151561103a57fe5b906000526020600020906002020160000160009054906101000a900473ffffffffffffffffffffffffffffffffffffffff16818054600181600116156101000203166002900480601f0160208091040260200160405190810160405280929190818152602001828054600181600116156101000203166002900480156111015780601f106110d657610100808354040283529160200191611101565b820191906000526020600020905b8154815290600101906020018083116110e457829003601f168201915b5050505050915091509150915091565b6111196129e0565b156111375761112661113f565b60006004816111359190613922565b505b565b600c5481565b60008061114a613954565b611152613968565b61115a613968565b61116261397c565b60008061116d613968565b600080611178613968565b600d549b506003549a508a6040518059106111905750595b9080825280602002602001820160405280156111c657816020015b6111b3613990565b8152602001906001900390816111ab5790505b5099508a6040518059106111d75750595b908082528060200260200182016040525098508a6040518059106111f85750595b908082528060200260200182016040525097508a6040518059106112195750595b90808252806020026020018201604052801561124f57816020015b61123c6139a4565b8152602001906001900390816112345790505b509650600095505b8a86101561138e5760048681548110151561126e57fe5b90600052602060002090600302016060604051908101604052908160008201548152602001600182018054806020026020016040519081016040528092919081815260200182805480156112e157602002820191906000526020600020905b8154815260200190600101908083116112cd575b50505050508152602001600282015481525050878781518110151561130257fe5b90602001906020020181905250868681518110151561131d57fe5b90602001906020020151602001518a8781518110151561133957fe5b906020019060200201819052506001898781518110151561135657fe5b906020019060200201818152505085888781518110151561137357fe5b90602001906020020181815250508580600101965050611257565b600094505b8a61139f898d8a612a3d565b14156116db5760026040518059106113b45750595b908082528060200260200182016040525093508a925061144d8a89878151811015156113dc57fe5b906020019060200201518151811015156113f257fe5b90602001906020020151888781518110151561140a57fe5b90602001906020020151602001518b8b8981518110151561142757fe5b9060200190602002015181518110151561143d57fe5b906020019060200201518f612b2a565b9150600095505b8a8610156115605785888681518110151561146b57fe5b906020019060200201511415801561149b57506000898781518110151561148e57fe5b9060200190602002015114155b15611553576115118a878151811015156114b157fe5b9060200190602002015188878151811015156114c957fe5b9060200190602002015160200151848c8a8151811015156114e657fe5b906020019060200201518b8a8151811015156114fe57fe5b9060200190602002015160400151612b42565b905083600081518110151561152257fe5b9060200190602002015181600081518110151561153b57fe5b906020019060200201511115611552578093508592505b5b8580600101965050611454565b8a831415156116a7576115db878681518110151561157a57fe5b90602001906020020151602001518b8581518110151561159657fe5b90602001906020020151868a898151811015156115af57fe5b90602001906020020151604001518d888151811015156115cb57fe5b9060200190602002015101611c8f565b8a848151811015156115e957fe5b90602001906020020181905250868581518110151561160457fe5b906020019060200201516040015189898781518110151561162157fe5b9060200190602002015181518110151561163757fe5b9060200190602002018181510391508181525050868581518110151561165957fe5b9060200190602002015160400151898481518110151561167557fe5b906020019060200201818151019150818152505082888681518110151561169857fe5b90602001906020020181815250505b60018b038514156116bb57600094506116c4565b84806001019550505b601154601060008282540192505081905550611393565b896116e7898d8a612a3d565b8151811015156116f357fe5b90602001906020020151601390805190602001906117129291906139cc565b50505050505050505050505050565b42600254600a5401108015611749575060001515600860009054906101000a900460ff161515145b15611771576001600860006101000a81548160ff021916908315150217905550426009819055505b565b600061177d613a19565b600091505b60035482101561183d576005838381518110151561179c57fe5b906020019060200201518154811015156117b257fe5b9060005260206000209001548160000181815250506001816040018181525050600480548060010182816117e69190613a41565b91600052602060002090600302016000839091909150600082015181600001556020820151816001019080519060200190611822929190613a73565b50604082015181600201555050508180600101925050611782565b600060058161184c9190613ac0565b50505050565b61185a613aec565b60068281548110151561186957fe5b90600052602060002090018054806020026020016040519081016040528092919081815260200182805480156118f457602002820191906000526020600020905b8160009054906101000a900473ffffffffffffffffffffffffffffffffffffffff1673ffffffffffffffffffffffffffffffffffffffff16815260200190600101908083116118aa575b50505050509050919050565b6000600c54825114156119f457600090505b6003548110156119f3573373ffffffffffffffffffffffffffffffffffffffff16600060048381548110151561194457fe5b90600052602060002090600302016000015481548110151561196257fe5b906000526020600020906002020160000160009054906101000a900473ffffffffffffffffffffffffffffffffffffffff1673ffffffffffffffffffffffffffffffffffffffff1614156119e657816004828154811015156119c057fe5b906000526020600020906003020160010190805190602001906119e49291906139cc565b505b8080600101915050611912565b5b5050565b60115481565b60025481565b6000601382815481101515611a1557fe5b9060005260206000209001549050919050565b565b611a32613968565b611a428260006001855103612bd3565b819050919050565b60105481565b601381815481101515611a5f57fe5b90600052602060002090016000915090505481565b60035481565b60076020528060005260406000206000915054906101000a900460ff1681565b611aa26137f4565b6000601283815481101515611ab357fe5b9060005260206000209060020201600101601284815481101515611ad357fe5b906000526020600020906002020160000160009054906101000a900473ffffffffffffffffffffffffffffffffffffffff16818054600181600116156101000203166002900480601f016020809104026020016040519081016040528092919081815260200182805460018160011615610100020316600290048015611b9a5780601f10611b6f57610100808354040283529160200191611b9a565b820191906000526020600020905b815481529060010190602001808311611b7d57829003601f168201915b5050505050915091509150915091565b42600b546009540111158015611bd3575060011515600860009054906101000a900460ff161515145b15611c23576000600860006101000a81548160ff02191690831515021790555042600a81905550611c02612d33565b6000600581611c119190613ac0565b506000600681611c219190613b00565b505b565b7f36bf6cf02ecc60712e107054775debd1f2f255ab34df5fc4928044264d16fd1f604051611c5290614203565b60405180910390a1565b6000601280549050905090565b600d5481565b600860009054906101000a900460ff1681565b6000600480549050905090565b611c97613968565b611c9f613968565b60008060008060008060008060008e51604051805910611cbc5750595b90808252806020026020018201604052509950611cd98f8f61314f565b9850600d549750886010546064038d60018b0103601054811515611cf957fe5b04018e6000815181101515611d0a57fe5b90602001906020020151811515611d1d57fe5b04039650886010546064038d60018b0103601054811515611d3a57fe5b04018e6001815181101515611d4b57fe5b90602001906020020151811515611d5e57fe5b040395506000945060009350600092505b8e51831015611df9578d83815181101515611d8657fe5b906020019060200201518f84815181101515611d9e57fe5b906020019060200201511115611dcf578e83815181101515611dbc57fe5b9060200190602002015185019450611dec565b8d83815181101515611ddd57fe5b90602001906020020151840193505b8280600101935050611d6f565b60009150600092505b8e51831015611f8c578d83815181101515611e1957fe5b906020019060200201518f84815181101515611e3157fe5b906020019060200201511115611ee257848f84815181101515611e5057fe5b906020019060200201518802811515611e6557fe5b048e84815181101515611e7457fe5b906020019060200201510182019150848f84815181101515611e9257fe5b906020019060200201518802811515611ea757fe5b048e84815181101515611eb657fe5b90602001906020020151018a84815181101515611ecf57fe5b9060200190602002018181525050611f7f565b838e84815181101515611ef157fe5b906020019060200201518702811515611f0657fe5b048f84815181101515611f1557fe5b906020019060200201510182019150838e84815181101515611f3357fe5b906020019060200201518702811515611f4857fe5b048f84815181101515611f5757fe5b90602001906020020151018a84815181101515611f7057fe5b90602001906020020181815250505b8280600101935050611e02565b600090505b6064821015611fe75760018a82815181101515611faa57fe5b906020019060200201818151019150818152505060018201915060018f5103811415611fd95760009050611fe2565b80806001019150505b611f91565b899a5050505050505050505050949350505050565b600061200f3361200a6131f1565b6133cc565b15156120d357600090505b6000805490508110156120d2573373ffffffffffffffffffffffffffffffffffffffff1660008281548110151561204d57fe5b906000526020600020906002020160000160009054906101000a900473ffffffffffffffffffffffffffffffffffffffff1673ffffffffffffffffffffffffffffffffffffffff1614156120c557600580548060010182816120af9190613b2c565b9160005260206000209001600083909190915055505b808060010191505061201a565b5b50565b60015481565b60003073ffffffffffffffffffffffffffffffffffffffff1631905090565b60008090505b6000805490508110156121e8573373ffffffffffffffffffffffffffffffffffffffff1660008281548110151561213457fe5b906000526020600020906002020160000160009054906101000a900473ffffffffffffffffffffffffffffffffffffffff1673ffffffffffffffffffffffffffffffffffffffff1614156121db577f36bf6cf02ecc60712e107054775debd1f2f255ab34df5fc4928044264d16fd1f826000838154811015156121b357fe5b90600052602060002090600202016001016040516121d29291906141cc565b60405180910390a15b8080600101915050612101565b5050565b6121f46137f4565b6000806121ff613968565b600060048681548110151561221057fe5b90600052602060002090600302016000015481548110151561222e57fe5b9060005260206000209060020201600101600060048781548110151561225057fe5b90600052602060002090600302016000015481548110151561226e57fe5b906000526020600020906002020160000160009054906101000a900473ffffffffffffffffffffffffffffffffffffffff166004878154811015156122af57fe5b9060005260206000209060030201600201546004888154811015156122d057fe5b9060005260206000209060030201600101838054600181600116156101000203166002900480601f0160208091040260200160405190810160405280929190818152602001828054600181600116156101000203166002900480156123765780601f1061234b57610100808354040283529160200191612376565b820191906000526020600020905b81548152906001019060200180831161235957829003601f168201915b50505050509350808054806020026020016040519081016040528092919081815260200182805480156123c857602002820191906000526020600020905b8154815260200190600101908083116123b4575b5050505050905093509350935093509193509193565b600f5481565b6123ec613968565b6000806123f7613968565b600080600e5494506001856002898b8d8f0103030381151561241557fe5b0401935060026040518059106124285750595b90808252806020026020018201604052509250600f5491508184111561244c578193505b600287898760018803028c8e01030303039050600060028581151561246d57fe5b0614156124ec57600185600160028781151561248557fe5b0403028260018a0101010183600181518110151561249f57fe5b90602001906020020181815250508260018151811015156124bc57fe5b90602001906020020151898b01038360008151811015156124d957fe5b9060200190602002018181525050612560565b8460016002600187018115156124fe57fe5b0403028160018a01010183600081518110151561251757fe5b906020019060200201818152505082600081518110151561253457fe5b90602001906020020151898b010383600181518110151561255157fe5b90602001906020020181815250505b8983600081518110151561257057fe5b9060200190602002015111156125e1578983600081518110151561259057fe5b90602001906020020151038360018151811015156125aa57fe5b9060200190602002018181510191508181525050898360008151811015156125ce57fe5b906020019060200201818152505061265f565b898360018151811015156125f157fe5b90602001906020020151111561265e578983600181518110151561261157fe5b906020019060200201510383600081518110151561262b57fe5b90602001906020020181815101915081815250508983600181518110151561264f57fe5b90602001906020020181815250505b5b8295505050505050949350505050565b600a5481565b61267d610f26565b801561269c575060011515600860009054906101000a900460ff161515145b80156126f8575060001515600760003373ffffffffffffffffffffffffffffffffffffffff1673ffffffffffffffffffffffffffffffffffffffff16815260200190815260200160002060009054906101000a900460ff161515145b15612792576001600760003373ffffffffffffffffffffffffffffffffffffffff1673ffffffffffffffffffffffffffffffffffffffff16815260200190815260200160002060006101000a81548160ff021916908315150217905550600680548060010182816127699190613b58565b91600052602060002090016000839091909150908051906020019061278f929190613b84565b50505b50565b61279d613c0e565b600154341180156129045750612902336000805480602002602001604051908101604052809291908181526020016000905b828210156128f957838290600052602060002090600202016040805190810160405290816000820160009054906101000a900473ffffffffffffffffffffffffffffffffffffffff1673ffffffffffffffffffffffffffffffffffffffff1673ffffffffffffffffffffffffffffffffffffffff168152602001600182018054600181600116156101000203166002900480601f0160208091040260200160405190810160405280929190818152602001828054600181600116156101000203166002900480156128e15780601f106128b6576101008083540402835291602001916128e1565b820191906000526020600020905b8154815290600101906020018083116128c457829003601f168201915b505050505081525050815260200190600101906127cf565b505050506133cc565b155b156129dc5733816000019073ffffffffffffffffffffffffffffffffffffffff16908173ffffffffffffffffffffffffffffffffffffffff16815250508181602001819052506000805480600101828161295e9190613c44565b9160005260206000209060020201600083909190915060008201518160000160006101000a81548173ffffffffffffffffffffffffffffffffffffffff021916908373ffffffffffffffffffffffffffffffffffffffff16021790555060208201518160010190805190602001906129d7929190613870565b505050505b5050565b600080600090505b600354811015612a34576000600482815481101515612a0357fe5b9060005260206000209060030201600101805490501415612a275760009150612a39565b80806001019150506129e8565b600191505b5090565b6000612a47613968565b600084604051805910612a575750595b90808252806020026020018201604052509150600090505b84811015612ad9578381815181101515612a8557fe5b9060200190602002015160400151828783815181101515612aa257fe5b90602001906020020151815181101515612ab857fe5b90602001906020020181815101915081815250508080600101915050612a6f565b600090505b84811015612b1d57600d548282815181101515612af757fe5b90602001906020020151101515612b1057809250612b21565b8080600101915050612ade565b8492505b50509392505050565b6000612b388585858561344e565b9050949350505050565b612b4a613968565b6000806000806000600d54945060029350612b66888887613486565b9250612b758a8c8a8a8961349d565b9150612b8188866134b8565b9050818301818a011015612ba257612b9b83838b846123e4565b9550612bc5565b6002604051805910612bb15750595b908082528060200260200182016040525095505b505050505095945050505050565b600080600084925083915081831415612beb57612d2b565b856002868603811515612bfa57fe5b048601815181101515612c0957fe5b9060200190602002015190505b8183111515612d02575b808684815181101515612c2f57fe5b906020019060200201511115612c4c578280600101935050612c20565b5b8582815181101515612c5b57fe5b90602001906020020151811115612c7a57818060019003925050612c4d565b8183111515612cfd578582815181101515612c9157fe5b906020019060200201518684815181101515612ca957fe5b906020019060200201518785815181101515612cc157fe5b9060200190602002018885815181101515612cd857fe5b9060200190602002018281525082815250505082806001019350508180600190039250505b612c16565b81851015612d1657612d15868684612bd3565b5b83831015612d2a57612d29868486612bd3565b5b5b505050505050565b600080612d3e613968565b612d46613954565b6000612d50613968565b612d58613968565b612d60613968565b600580549050604051805910612d735750595b908082528060200260200182016040525095508551604051805910612d955750595b908082528060200260200182016040528015612dcb57816020015b612db8613990565b815260200190600190039081612db05790505b509450600097505b8551881015612e24578551604051805910612deb5750595b90808252806020026020018201604052508589815181101515612e0a57fe5b906020019060200201819052508780600101985050612dd3565b600097505b6001865103881015612f60578760010196505b8551871015612f5357612e4f88886134cc565b93506000841415612ecd57868589815181101515612e6957fe5b90602001906020020151878a815181101515612e8157fe5b90602001906020020151815181101515612e9757fe5b90602001906020020181815250508588815181101515612eb357fe5b906020019060200201805180919060010181525050612f46565b6001841415612f4557878588815181101515612ee557fe5b906020019060200201518789815181101515612efd57fe5b90602001906020020151815181101515612f1357fe5b90602001906020020181815250508587815181101515612f2f57fe5b9060200190602002018051809190600101815250505b5b8680600101975050612e3c565b8780600101985050612e29565b8551604051805910612f6f5750595b90808252806020026020018201604052509250600097505b85518810156130585760008689815181101515612fa057fe5b9060200190602002015114151561304b57600096505b8588815181101515612fc457fe5b9060200190602002015187101561304a57858589815181101515612fe457fe5b9060200190602002015188815181101515612ffb57fe5b9060200190602002015181518110151561301157fe5b90602001906020020151838981518110151561302957fe5b90602001906020020181815101915081815250508680600101975050612fb6565b5b8780600101985050612f87565b85516040518059106130675750595b9080825280602002602001820160405250915061308b6130868461373d565b611a2a565b9050600097505b855188101561313c57600096505b855187101561312f5782878151811015156130b757fe5b9060200190602002015181898151811015156130cf57fe5b906020019060200201511415613122578682898151811015156130ee57fe5b90602001906020020181815250508551865102838881518110151561310f57fe5b906020019060200201818152505061312f565b86806001019750506130a0565b8780600101985050613092565b61314582611773565b5050505050505050565b6000806000809150600090505b84518110156131e657838181518110151561317357fe5b90602001906020020151858281518110151561318b57fe5b9060200190602002015111156131bc5783818151811015156131a957fe5b90602001906020020151820191506131d9565b84818151811015156131ca57fe5b90602001906020020151820191505b808060010191505061315c565b819250505092915050565b6131f9613c76565b6000613203613c76565b600060058054905092508260405180591061321b5750595b90808252806020026020018201604052801561325157816020015b61323e613c8a565b8152602001906001900390816132365790505b509150600090505b828110156133c357600060058281548110151561327257fe5b90600052602060002090015481548110151561328a57fe5b90600052602060002090600202016040805190810160405290816000820160009054906101000a900473ffffffffffffffffffffffffffffffffffffffff1673ffffffffffffffffffffffffffffffffffffffff1673ffffffffffffffffffffffffffffffffffffffff168152602001600182018054600181600116156101000203166002900480601f0160208091040260200160405190810160405280929190818152602001828054600181600116156101000203166002900480156133925780601f1061336757610100808354040283529160200191613392565b820191906000526020600020905b81548152906001019060200180831161337557829003601f168201915b50505050508152505082828151811015156133a957fe5b906020019060200201819052508080600101915050613259565b81935050505090565b600080600090505b8251811015613442578373ffffffffffffffffffffffffffffffffffffffff16838281518110151561340257fe5b906020019060200201516000015173ffffffffffffffffffffffffffffffffffffffff1614156134355760019150613447565b80806001019150506133d4565b600091505b5092915050565b60008061345b868661314f565b90508060105460640302846001850103826010540281151561347957fe5b0401915050949350505050565b6000613494838501836137ca565b90509392505050565b60006134ad86868587018561344e565b905095945050505050565b60006134c483836137ca565b905092915050565b60008060008060008060008060008060009850600097506006805490509650600060058d8154811015156134fc57fe5b90600052602060002090015481548110151561351457fe5b906000526020600020906002020160000160009054906101000a900473ffffffffffffffffffffffffffffffffffffffff169550600060058c81548110151561355957fe5b90600052602060002090015481548110151561357157fe5b906000526020600020906002020160000160009054906101000a900473ffffffffffffffffffffffffffffffffffffffff169450600093505b86841015613707576002878115156135be57fe5b0489111580156135da57506002878115156135d557fe5b048811155b156136f5576006848154811015156135ee57fe5b9060005260206000209001805490509250600091505b828210156136f05760068481548110151561361b57fe5b90600052602060002090018281548110151561363357fe5b906000526020600020900160009054906101000a900473ffffffffffffffffffffffffffffffffffffffff1690508573ffffffffffffffffffffffffffffffffffffffff168173ffffffffffffffffffffffffffffffffffffffff1614156136a25788806001019950506136f0565b8473ffffffffffffffffffffffffffffffffffffffff168173ffffffffffffffffffffffffffffffffffffffff1614156136e35787806001019850506136f0565b8180600101925050613604565b6136fa565b613707565b83806001019450506135aa565b87891115613718576000995061372e565b88881115613729576001995061372e565b600299505b50505050505050505092915050565b613745613968565b61374d613968565b6000835160405180591061375e5750595b90808252806020026020018201604052509150600090505b83518110156137c057838181518110151561378d57fe5b9060200190602002015182828151811015156137a557fe5b90602001906020020181815250508080600101915050613776565b8192505050919050565b60006064601054606403028360018401036064601054028115156137ea57fe5b0401905092915050565b602060405190810160405280600081525090565b6040805190810160405280600073ffffffffffffffffffffffffffffffffffffffff168152602001613838613cc0565b81525090565b81548183558181151161386b5760020281600202836000526020600020918201910161386a9190613cd4565b5b505050565b828054600181600116156101000203166002900490600052602060002090601f016020900481019282601f106138b157805160ff19168380011785556138df565b828001600101855582156138df579182015b828111156138de5782518255916020019190600101906138c3565b5b5090506138ec9190613d2a565b5090565b81548183558181151161391d5760020281600202836000526020600020918201910161391c9190613cd4565b5b505050565b81548183558181151161394f5760030281600302836000526020600020918201910161394e9190613d4f565b5b505050565b602060405190810160405280600081525090565b602060405190810160405280600081525090565b602060405190810160405280600081525090565b602060405190810160405280600081525090565b606060405190810160405280600081526020016139bf613990565b8152602001600081525090565b828054828255906000526020600020908101928215613a08579160200282015b82811115613a075782518255916020019190600101906139ec565b5b509050613a159190613d2a565b5090565b60606040519081016040528060008152602001613a34613990565b8152602001600081525090565b815481835581811511613a6e57600302816003028360005260206000209182019101613a6d9190613d4f565b5b505050565b828054828255906000526020600020908101928215613aaf579160200282015b82811115613aae578251825591602001919060010190613a93565b5b509050613abc9190613d2a565b5090565b815481835581811511613ae757818360005260206000209182019101613ae69190613d2a565b5b505050565b602060405190810160405280600081525090565b815481835581811511613b2757818360005260206000209182019101613b269190613d8e565b5b505050565b815481835581811511613b5357818360005260206000209182019101613b529190613d2a565b5b505050565b815481835581811511613b7f57818360005260206000209182019101613b7e9190613d8e565b5b505050565b828054828255906000526020600020908101928215613bfd579160200282015b82811115613bfc5782518260006101000a81548173ffffffffffffffffffffffffffffffffffffffff021916908373ffffffffffffffffffffffffffffffffffffffff16021790555091602001919060010190613ba4565b5b509050613c0a9190613dba565b5090565b6040805190810160405280600073ffffffffffffffffffffffffffffffffffffffff168152602001613c3e613cc0565b81525090565b815481835581811511613c7157600202816002028360005260206000209182019101613c709190613dfd565b5b505050565b602060405190810160405280600081525090565b6040805190810160405280600073ffffffffffffffffffffffffffffffffffffffff168152602001613cba613cc0565b81525090565b602060405190810160405280600081525090565b613d2791905b80821115613d2357600080820160006101000a81549073ffffffffffffffffffffffffffffffffffffffff0219169055600182016000613d1a9190613e53565b50600201613cda565b5090565b90565b613d4c91905b80821115613d48576000816000905550600101613d30565b5090565b90565b613d8b91905b80821115613d8757600080820160009055600182016000613d769190613e9b565b600282016000905550600301613d55565b5090565b90565b613db791905b80821115613db35760008181613daa9190613ebc565b50600101613d94565b5090565b90565b613dfa91905b80821115613df657600081816101000a81549073ffffffffffffffffffffffffffffffffffffffff021916905550600101613dc0565b5090565b90565b613e5091905b80821115613e4c57600080820160006101000a81549073ffffffffffffffffffffffffffffffffffffffff0219169055600182016000613e439190613e53565b50600201613e03565b5090565b90565b50805460018160011615610100020316600290046000825580601f10613e795750613e98565b601f016020900490600052602060002090810190613e979190613d2a565b5b50565b5080546000825590600052602060002090810190613eb99190613d2a565b50565b5080546000825590600052602060002090810190613eda9190613d2a565b50565b613ee6816142b8565b82525050565b6000613ef78261427d565b808452602084019350613f0983614251565b60005b82811015613f3b57613f1f868351613edd565b613f288261429e565b9150602086019550600181019050613f0c565b50849250505092915050565b6000613f5282614288565b808452602084019350613f648361425e565b60005b82811015613f9657613f7a8683516140db565b613f83826142ab565b9150602086019550600181019050613f67565b50849250505092915050565b613fab816142d8565b82525050565b6000613fbc82614293565b808452613fd08160208601602086016142ee565b613fd98161432a565b602085010191505092915050565b600081546001811660008114614004576001811461402457614065565b607f600283041680865260ff198316602087015260408601935050614065565b6002820480865260208601955061403a8561426b565b60005b8281101561405c5781548189015260018201915060208101905061403d565b80880195505050505b505092915050565b6000600482527f6a616b65000000000000000000000000000000000000000000000000000000006020830152604082019050919050565b6000600282527f68690000000000000000000000000000000000000000000000000000000000006020830152604082019050919050565b6140e4816142e4565b82525050565b600060208201905081810360008301526141048184613eec565b905092915050565b600060208201905081810360008301526141268184613f47565b905092915050565b60006020820190506141436000830184613fa2565b92915050565b600060408201905081810360008301526141638185613fb1565b90506141726020830184613edd565b9392505050565b600060808201905081810360008301526141938187613fb1565b90506141a26020830186613edd565b6141af60408301856140db565b81810360608301526141c18184613f47565b905095945050505050565b600060408201905081810360008301526141e68185613fb1565b905081810360208301526141fa8184613fe7565b90509392505050565b6000604082019050818103600083015261421c816140a4565b9050818103602083015261422f8161406d565b9050919050565b600060208201905061424b60008301846140db565b92915050565b6000602082019050919050565b6000602082019050919050565b60008160005260206000209050919050565b600081519050919050565b600081519050919050565b600081519050919050565b6000602082019050919050565b6000602082019050919050565b600073ffffffffffffffffffffffffffffffffffffffff82169050919050565b60008115159050919050565b6000819050919050565b60005b8381101561430c5780820151818401526020810190506142f1565b8381146000811461431c57614323565b6000858501525b5050505050565b6000601f19601f83011690509190505600a265627a7a72305820e2f4885f8e27a36210712ede8e886402125fa8b7b352a5c76609e1ec183bd0696c6578706572696d656e74616cf50037",
  "source": "pragma solidity ^0.4.18;\r\npragma experimental ABIEncoderV2;\r\nimport \"./MyLib.sol\";\r\nimport \"./VotingClub.sol\";\r\ncontract BudgetClub is VotingClub {\r\n  uint public numberOfSinks;\r\n  uint public quota;\r\n  uint public gasCost;\r\n  uint public numberOfTurns;\r\n  uint public coalitionSizeFactor;\r\n  uint public coalitionSizeFactorIncrease;\r\n  MyLib.Sink[] listOfSinks;\r\n  uint[] public finalBudget;\r\n\r\n\r\n  function BudgetClub(uint cost, uint term, uint reps, uint sinks, uint q, uint gas, uint turns, uint sizeFactor, uint sizeFactorIncrease) VotingClub(cost,term,reps) public {\r\n    numberOfSinks = sinks;\r\n    quota = q;\r\n    gasCost = gas;\r\n    numberOfTurns = turns;\r\n    coalitionSizeFactor = sizeFactor;\r\n    coalitionSizeFactorIncrease = sizeFactorIncrease;\r\n  }\r\n\r\n  function sendOut() {\r\n    uint startingBalance = this.balance;\r\n    for(uint i = 0; i < listOfSinks.length; i ++)\r\n    {\r\n      listOfSinks[i].spender.transfer(startingBalance * finalBudget[i] / 100);\r\n    }\r\n    listOfSinks.length = 0;\r\n\r\n  }\r\n\r\n  function submitBudget(uint[] budget) public\r\n  {\r\n    if(budget.length == numberOfSinks)\r\n    {\r\n      for (uint i = 0; i < numberOfRepresentatives; i++)\r\n      {\r\n        if(registeredUser[listOfRepresentatives[i].u].myAddress == msg.sender)\r\n        {\r\n          listOfRepresentatives[i].budget = budget;\r\n        }\r\n      }\r\n    }\r\n  }\r\n  //who should be able to do this\r\n  function submitSink(address spender, string name) public\r\n  {\r\n    if(listOfSinks.length < numberOfSinks)\r\n    {\r\n      for (uint i = 0; i < numberOfRepresentatives; i++)\r\n      {\r\n        if(registeredUser[listOfRepresentatives[i].u].myAddress == msg.sender)\r\n        {\r\n          MyLib.Sink memory s;\r\n          s.name = name;\r\n          s.spender = spender;\r\n          listOfSinks.push(s);\r\n        }\r\n      }\r\n    }\r\n  }\r\n\r\n\r\n  function endBudgetSubmit() public\r\n  {\r\n    if(allSubmitted())\r\n    {\r\n      decideBudget();\r\n      listOfRepresentatives.length = 0;\r\n    }\r\n  }\r\n\r\n  function allSubmitted() internal constant returns (bool)\r\n  {\r\n    for (uint i = 0; i < numberOfRepresentatives; i++)\r\n    {\r\n      if(listOfRepresentatives[i].budget.length == 0)\r\n      {\r\n        return false;\r\n      }\r\n    }\r\n    return true;\r\n  }\r\n\r\n\r\n  function decideBudget() public\r\n  {\r\n    uint quotaMemory = quota;\r\n    uint numberOfRepresentativesMemory = numberOfRepresentatives;\r\n    uint[][] memory coalitionBudgets = new uint[][](numberOfRepresentativesMemory);\r\n    uint[] memory coalitionSize = new uint[](numberOfRepresentativesMemory);\r\n    uint[] memory playerToCoalition = new uint[](numberOfRepresentativesMemory);\r\n    MyLib.Agent[] memory playerToAgent = new MyLib.Agent[](numberOfRepresentativesMemory);\r\n    uint i;\r\n    //init\r\n    for (i = 0; i < numberOfRepresentativesMemory; i++)\r\n    {\r\n      playerToAgent[i] = listOfRepresentatives[i];\r\n      coalitionBudgets[i] =  playerToAgent[i].budget;\r\n      coalitionSize[i] = 1;\r\n      playerToCoalition[i] = i;\r\n    }\r\n\r\n    uint player = 0;\r\n    while(winningCoalition(playerToCoalition,numberOfRepresentativesMemory,playerToAgent) == numberOfRepresentativesMemory)\r\n    {\r\n      //get utility in the current coalition\r\n      uint[] memory bestOffer = new uint[](2);\r\n      uint bestCoalition = numberOfRepresentativesMemory;\r\n      uint myAfloor = afloor(coalitionBudgets[playerToCoalition[player]],playerToAgent[player].budget,coalitionSize[playerToCoalition[player]],quotaMemory);\r\n      for(i = 0; i < numberOfRepresentativesMemory; i ++)\r\n      {\r\n        //dont check coalitions with no one or the one your in\r\n        if(playerToCoalition[player] != i && coalitionSize[i] != 0)\r\n        {\r\n          uint[] memory nego = offer(coalitionBudgets[i],playerToAgent[player].budget,myAfloor,coalitionSize[i],playerToAgent[player].weight);\r\n          if(nego[0] > bestOffer[0])\r\n          {\r\n            bestOffer = nego;\r\n            bestCoalition = i;\r\n          }\r\n        }\r\n\r\n      }\r\n\r\n      if(bestCoalition != numberOfRepresentativesMemory)\r\n      {\r\n        coalitionBudgets[bestCoalition] = negoToBudget(playerToAgent[player].budget, coalitionBudgets[bestCoalition], bestOffer, coalitionSize[bestCoalition] + playerToAgent[player].weight);\r\n        coalitionSize[playerToCoalition[player]] -= playerToAgent[player].weight;\r\n        coalitionSize[bestCoalition] += playerToAgent[player].weight;\r\n        playerToCoalition[player] = bestCoalition;\r\n\r\n      }\r\n\r\n      if(player == numberOfRepresentativesMemory - 1)\r\n      {\r\n        player = 0;\r\n      }\r\n      else{\r\n        player ++;\r\n      }\r\n      coalitionSizeFactor += coalitionSizeFactorIncrease;\r\n\r\n    }\r\n\r\n    finalBudget = coalitionBudgets[winningCoalition(playerToCoalition,numberOfRepresentativesMemory,playerToAgent)];\r\n\r\n  }\r\n\r\n  function offer(uint[] budgetCoal, uint[] budgeta, uint myAfloor, uint coalSize, uint agentWeight) constant internal returns (uint[])\r\n  {\r\n    uint quotaMemory = quota;\r\n    uint c = 2;\r\n    uint myAbar = abar(coalSize, agentWeight, quotaMemory);\r\n    uint myBbar = bbar(budgeta, budgetCoal, coalSize, agentWeight, quotaMemory);\r\n    uint myBfloor = bfloor(coalSize, quotaMemory);\r\n    if(myAfloor + myBfloor < myAbar + myBbar)\r\n    {\r\n      return negotiate(myAbar, myBbar ,myAfloor, myBfloor);\r\n    }\r\n    else{\r\n      return new uint[](2);\r\n    }\r\n  }\r\n\r\n  function afloor(uint[] budgetCoala, uint[] budgeta, uint coalSizea, uint quotaMemory ) constant internal returns (uint)\r\n  {\r\n    return calculateUtility(budgetCoala,budgeta,coalSizea,quotaMemory);\r\n  }\r\n  function bfloor(uint coalSize,  uint quotaMemory) constant internal returns (uint)\r\n  {\r\n    return calculate100Utility(coalSize,quotaMemory);\r\n  }\r\n  function abar(uint coalSize, uint agentWeight,  uint quotaMemory) constant internal returns (uint)\r\n  {\r\n    return calculate100Utility(coalSize + agentWeight,quotaMemory);\r\n  }\r\n  function bbar(uint[] budgetCoal, uint[] budgeta, uint coalSize, uint agentWeight,  uint quotaMemory) constant internal returns (uint)\r\n  {\r\n    return calculateUtility(budgetCoal,budgeta,coalSize + agentWeight,quotaMemory);\r\n  }\r\n  function winningCoalition(uint[] playerToCoalition, uint numberOfRepresentativesMemory,MyLib.Agent[] playerToAgent ) constant internal returns (uint)\r\n  {\r\n    uint[] memory weights = new uint[](numberOfRepresentativesMemory);\r\n    //add all the weights\r\n    for (uint i = 0; i < numberOfRepresentativesMemory ; i++)\r\n    {\r\n      weights[playerToCoalition[i]] += playerToAgent[i].weight;\r\n    }\r\n    for (i = 0; i < numberOfRepresentativesMemory ; i++)\r\n    {\r\n      if(weights[i] >= quota)\r\n      {\r\n        return i;\r\n      }\r\n    }\r\n    return numberOfRepresentativesMemory;\r\n  }\r\n\r\n  function calculate100Utility(uint coalitionSize,  uint quotaMemory) constant internal returns (uint)\r\n  {\r\n    return (uint) ((coalitionSizeFactor * 100) / (quotaMemory + 1 - coalitionSize) + ((100-coalitionSizeFactor) * 100));\r\n  }\r\n\r\n  function calculateUtility(uint[] budget1,uint[] budget2, uint coalitionSize,  uint quotaMemory) constant internal returns (uint)\r\n  {\r\n\r\n    uint shared = sharedBudget(budget1,budget2);\r\n    return (uint) ((coalitionSizeFactor * shared) / (quotaMemory + 1 - coalitionSize) + ((100-coalitionSizeFactor) * shared));\r\n  }\r\n\r\n  function sharedBudget(uint[] budget1,uint[] budget2) constant internal returns (uint)\r\n  {\r\n    uint shared = 0;\r\n    for(uint i = 0; i < budget1.length; i ++)\r\n    {\r\n      if(budget1[i] > budget2[i])\r\n      {\r\n        shared += budget2[i];\r\n      }\r\n      else{\r\n        shared += budget1[i];\r\n      }\r\n    }\r\n    return shared;\r\n  }\r\n  function negotiate(uint a_bar,uint b_bar,uint a_floor,uint b_floor)constant  public returns (uint[])\r\n  {\r\n    uint gasCostMemory = gasCost;\r\n    uint usefulTurn = ((a_bar + b_bar - a_floor - b_floor - 2) / gasCostMemory) + 1;\r\n    uint[] memory proposal = new uint[](2);\r\n\r\n    uint numberOfTurnsMemory = numberOfTurns;\r\n    if(usefulTurn > numberOfTurnsMemory)\r\n    {\r\n      usefulTurn = numberOfTurnsMemory;\r\n\r\n    }\r\n    uint freeUtility = a_bar + b_bar - ((usefulTurn - 1) * gasCostMemory) - a_floor - b_floor - 2;\r\n    if(usefulTurn % 2 == 0)\r\n    {\r\n      proposal[1] = b_floor + 1 + freeUtility + (((usefulTurn/ 2)-1) * gasCostMemory) + 1;\r\n      proposal[0] = a_bar + b_bar -  proposal[1];\r\n    }\r\n    else\r\n    {\r\n      proposal[0] = a_floor + 1 + freeUtility +  ((((usefulTurn + 1)/ 2)-1) * gasCostMemory);\r\n      proposal[1] = a_bar + b_bar -  proposal[0];\r\n    }\r\n    //cant go over the best amount\r\n    if(proposal[0] > a_bar)\r\n    {\r\n      proposal[1] +=  proposal[0] - a_bar;\r\n      proposal[0] = a_bar;\r\n    }\r\n    else if(proposal[1] > a_bar)\r\n    {\r\n      proposal[0] +=  proposal[1] - a_bar;\r\n      proposal[1] = a_bar;\r\n    }\r\n\r\n\r\n    return proposal;\r\n\r\n\r\n\r\n  }\r\n\r\n  function negoToBudget(uint[] budget1, uint [] budget2, uint[] nego, uint coalitionSize) constant public returns (uint[])\r\n  {\r\n    uint[] memory newBudget = new uint[](budget1.length);\r\n\r\n    uint sharedab = sharedBudget(budget1,budget2);\r\n\r\n    uint quotaMemory = quota;\r\n    uint individuala = (uint) (nego[0] / ((coalitionSizeFactor / (quotaMemory + 1 - coalitionSize)) + (100 - coalitionSizeFactor)) - sharedab);\r\n    uint individualb = (uint) (nego[1] / ((coalitionSizeFactor / (quotaMemory + 1 - coalitionSize)) + (100 - coalitionSizeFactor))- sharedab);\r\n\r\n\r\n    uint suma = 0;\r\n    uint sumb = 0;\r\n\r\n    for(uint i = 0; i < budget1.length; i ++)\r\n    {\r\n      if(budget1[i] > budget2[i])\r\n      {\r\n        suma += budget1[i];\r\n      }\r\n      else{\r\n        sumb += budget2[i];\r\n      }\r\n    }\r\n\r\n    uint total = 0;\r\n    for(i = 0; i < budget1.length; i ++)\r\n    {\r\n      if(budget1[i] > budget2[i])\r\n      {\r\n        total +=  budget2[i] + individuala * budget1[i] / suma;\r\n        newBudget[i] = budget2[i] + individuala * budget1[i] / suma;\r\n      }\r\n      else{\r\n        total +=  budget1[i] + individualb * budget2[i] / sumb;\r\n        newBudget[i] = budget1[i] + individualb * budget2[i] / sumb;\r\n      }\r\n    }\r\n    uint z = 0;\r\n    while(total < 100)\r\n    {\r\n      newBudget[z] += 1;\r\n      total +=1;\r\n      if(z == budget1.length - 1)\r\n      {\r\n        z = 0;\r\n      }\r\n      else\r\n      {\r\n        z ++;\r\n      }\r\n    }\r\n\r\n\r\n    return newBudget;\r\n  }\r\n\r\n  function listSinks(uint number) public constant returns (string,address) {\r\n\r\n    return (listOfSinks[number].name, listOfSinks[number].spender);\r\n  }\r\n\r\n  function getSinksLength() public constant returns (uint)\r\n  {\r\n    return listOfSinks.length;\r\n  }\r\n\r\n  function listFinalBudget(uint number) public constant returns(uint)\r\n  {\r\n    return finalBudget[number];\r\n  }\r\n\r\n\r\n}\r\n",
  "sourcePath": "C:\\Users\\JakeL\\Desktop\\MultiAgentSystemsOnTheBlockChain\\contracts\\BudgetClub.sol",
  "compiler": {
    "name": "solc",
    "version": "0.4.18+commit.9cf6e910.Emscripten.clang"
  },
  "schemaVersion": "1.0.1",
  "updatedAt": "2018-04-16T19:57:42.744Z"
}