{
  "contractName": "BudgetClub",
  "abi": [
    {
      "constant": true,
      "inputs": [
        {
          "name": "number",
          "type": "uint256"
        }
      ],
      "name": "listRegisteredUsers",
      "outputs": [
        {
          "name": "",
          "type": "string"
        },
        {
          "name": "",
          "type": "address"
        }
      ],
      "payable": false,
      "stateMutability": "view",
      "type": "function"
    },
    {
      "constant": true,
      "inputs": [],
      "name": "timeVoteStarted",
      "outputs": [
        {
          "name": "",
          "type": "uint256"
        }
      ],
      "payable": false,
      "stateMutability": "view",
      "type": "function"
    },
    {
      "constant": true,
      "inputs": [],
      "name": "getCandidatesLength",
      "outputs": [
        {
          "name": "",
          "type": "uint256"
        }
      ],
      "payable": false,
      "stateMutability": "view",
      "type": "function"
    },
    {
      "constant": true,
      "inputs": [],
      "name": "getRegisteredUsersLength",
      "outputs": [
        {
          "name": "",
          "type": "uint256"
        }
      ],
      "payable": false,
      "stateMutability": "view",
      "type": "function"
    },
    {
      "constant": true,
      "inputs": [],
      "name": "gasCost",
      "outputs": [
        {
          "name": "",
          "type": "uint256"
        }
      ],
      "payable": false,
      "stateMutability": "view",
      "type": "function"
    },
    {
      "constant": true,
      "inputs": [],
      "name": "isRegistered",
      "outputs": [
        {
          "name": "",
          "type": "bool"
        }
      ],
      "payable": false,
      "stateMutability": "view",
      "type": "function"
    },
    {
      "constant": true,
      "inputs": [
        {
          "name": "number",
          "type": "uint256"
        }
      ],
      "name": "listCandidates",
      "outputs": [
        {
          "name": "",
          "type": "string"
        },
        {
          "name": "",
          "type": "address"
        }
      ],
      "payable": false,
      "stateMutability": "view",
      "type": "function"
    },
    {
      "constant": true,
      "inputs": [],
      "name": "numberOfSinks",
      "outputs": [
        {
          "name": "",
          "type": "uint256"
        }
      ],
      "payable": false,
      "stateMutability": "view",
      "type": "function"
    },
    {
      "constant": false,
      "inputs": [],
      "name": "startVote",
      "outputs": [],
      "payable": false,
      "stateMutability": "nonpayable",
      "type": "function"
    },
    {
      "constant": false,
      "inputs": [
        {
          "name": "ranked",
          "type": "uint256[]"
        }
      ],
      "name": "weightCandidates",
      "outputs": [],
      "payable": false,
      "stateMutability": "nonpayable",
      "type": "function"
    },
    {
      "constant": true,
      "inputs": [],
      "name": "coalitionSizeFactorIncrease",
      "outputs": [
        {
          "name": "",
          "type": "uint256"
        }
      ],
      "payable": false,
      "stateMutability": "view",
      "type": "function"
    },
    {
      "constant": true,
      "inputs": [],
      "name": "termLength",
      "outputs": [
        {
          "name": "",
          "type": "uint256"
        }
      ],
      "payable": false,
      "stateMutability": "view",
      "type": "function"
    },
    {
      "constant": false,
      "inputs": [],
      "name": "subsidize",
      "outputs": [],
      "payable": true,
      "stateMutability": "payable",
      "type": "function"
    },
    {
      "constant": false,
      "inputs": [
        {
          "name": "data",
          "type": "uint256[]"
        }
      ],
      "name": "sort",
      "outputs": [
        {
          "name": "",
          "type": "uint256[]"
        }
      ],
      "payable": false,
      "stateMutability": "nonpayable",
      "type": "function"
    },
    {
      "constant": true,
      "inputs": [],
      "name": "coalitionSizeFactor",
      "outputs": [
        {
          "name": "",
          "type": "uint256"
        }
      ],
      "payable": false,
      "stateMutability": "view",
      "type": "function"
    },
    {
      "constant": true,
      "inputs": [
        {
          "name": "",
          "type": "uint256"
        }
      ],
      "name": "finalBudget",
      "outputs": [
        {
          "name": "",
          "type": "uint256"
        }
      ],
      "payable": false,
      "stateMutability": "view",
      "type": "function"
    },
    {
      "constant": true,
      "inputs": [],
      "name": "numberOfRepresentatives",
      "outputs": [
        {
          "name": "",
          "type": "uint256"
        }
      ],
      "payable": false,
      "stateMutability": "view",
      "type": "function"
    },
    {
      "constant": true,
      "inputs": [
        {
          "name": "",
          "type": "address"
        }
      ],
      "name": "voted",
      "outputs": [
        {
          "name": "",
          "type": "bool"
        }
      ],
      "payable": false,
      "stateMutability": "view",
      "type": "function"
    },
    {
      "constant": false,
      "inputs": [],
      "name": "endVote",
      "outputs": [],
      "payable": false,
      "stateMutability": "nonpayable",
      "type": "function"
    },
    {
      "constant": true,
      "inputs": [],
      "name": "quota",
      "outputs": [
        {
          "name": "",
          "type": "uint256"
        }
      ],
      "payable": false,
      "stateMutability": "view",
      "type": "function"
    },
    {
      "constant": true,
      "inputs": [],
      "name": "voteStarted",
      "outputs": [
        {
          "name": "",
          "type": "bool"
        }
      ],
      "payable": false,
      "stateMutability": "view",
      "type": "function"
    },
    {
      "constant": true,
      "inputs": [],
      "name": "getRepresentivesLength",
      "outputs": [
        {
          "name": "",
          "type": "uint256"
        }
      ],
      "payable": false,
      "stateMutability": "view",
      "type": "function"
    },
    {
      "constant": false,
      "inputs": [],
      "name": "apply",
      "outputs": [],
      "payable": false,
      "stateMutability": "nonpayable",
      "type": "function"
    },
    {
      "constant": true,
      "inputs": [],
      "name": "registrationCost",
      "outputs": [
        {
          "name": "",
          "type": "uint256"
        }
      ],
      "payable": false,
      "stateMutability": "view",
      "type": "function"
    },
    {
      "constant": true,
      "inputs": [
        {
          "name": "number",
          "type": "uint256"
        }
      ],
      "name": "listRepresentives",
      "outputs": [
        {
          "name": "",
          "type": "string"
        },
        {
          "name": "",
          "type": "address"
        },
        {
          "name": "",
          "type": "uint256"
        },
        {
          "name": "",
          "type": "uint256[]"
        }
      ],
      "payable": false,
      "stateMutability": "view",
      "type": "function"
    },
    {
      "constant": true,
      "inputs": [],
      "name": "numberOfTurns",
      "outputs": [
        {
          "name": "",
          "type": "uint256"
        }
      ],
      "payable": false,
      "stateMutability": "view",
      "type": "function"
    },
    {
      "constant": true,
      "inputs": [],
      "name": "timeVoteEnded",
      "outputs": [
        {
          "name": "",
          "type": "uint256"
        }
      ],
      "payable": false,
      "stateMutability": "view",
      "type": "function"
    },
    {
      "constant": false,
      "inputs": [
        {
          "name": "myVote",
          "type": "address[]"
        }
      ],
      "name": "vote",
      "outputs": [],
      "payable": false,
      "stateMutability": "nonpayable",
      "type": "function"
    },
    {
      "constant": false,
      "inputs": [
        {
          "name": "name",
          "type": "string"
        }
      ],
      "name": "register",
      "outputs": [],
      "payable": true,
      "stateMutability": "payable",
      "type": "function"
    },
    {
      "inputs": [
        {
          "name": "cost",
          "type": "uint256"
        },
        {
          "name": "term",
          "type": "uint256"
        },
        {
          "name": "reps",
          "type": "uint256"
        },
        {
          "name": "sinks",
          "type": "uint256"
        },
        {
          "name": "q",
          "type": "uint256"
        },
        {
          "name": "gas",
          "type": "uint256"
        },
        {
          "name": "turns",
          "type": "uint256"
        },
        {
          "name": "sizeFactor",
          "type": "uint256"
        },
        {
          "name": "sizeFactorIncrease",
          "type": "uint256"
        }
      ],
      "payable": false,
      "stateMutability": "nonpayable",
      "type": "constructor"
    },
    {
      "constant": false,
      "inputs": [
        {
          "name": "budget",
          "type": "uint256[]"
        }
      ],
      "name": "submitBudget",
      "outputs": [],
      "payable": false,
      "stateMutability": "nonpayable",
      "type": "function"
    },
    {
      "constant": false,
      "inputs": [
        {
          "name": "spender",
          "type": "address"
        },
        {
          "name": "name",
          "type": "string"
        }
      ],
      "name": "submitSink",
      "outputs": [],
      "payable": false,
      "stateMutability": "nonpayable",
      "type": "function"
    },
    {
      "constant": false,
      "inputs": [],
      "name": "endBudgetSumbit",
      "outputs": [],
      "payable": false,
      "stateMutability": "nonpayable",
      "type": "function"
    },
    {
      "constant": false,
      "inputs": [],
      "name": "decideBudget",
      "outputs": [],
      "payable": false,
      "stateMutability": "nonpayable",
      "type": "function"
    },
    {
      "constant": true,
      "inputs": [
        {
          "name": "a_bar",
          "type": "uint256"
        },
        {
          "name": "b_bar",
          "type": "uint256"
        },
        {
          "name": "a_floor",
          "type": "uint256"
        },
        {
          "name": "b_floor",
          "type": "uint256"
        }
      ],
      "name": "negotiate",
      "outputs": [
        {
          "name": "",
          "type": "uint256[]"
        }
      ],
      "payable": false,
      "stateMutability": "view",
      "type": "function"
    },
    {
      "constant": true,
      "inputs": [
        {
          "name": "budget1",
          "type": "uint256[]"
        },
        {
          "name": "budget2",
          "type": "uint256[]"
        },
        {
          "name": "nego",
          "type": "uint256[]"
        },
        {
          "name": "coalitionSize",
          "type": "uint256"
        }
      ],
      "name": "negoToBudget",
      "outputs": [
        {
          "name": "",
          "type": "uint256[]"
        }
      ],
      "payable": false,
      "stateMutability": "view",
      "type": "function"
    },
    {
      "constant": true,
      "inputs": [
        {
          "name": "number",
          "type": "uint256"
        }
      ],
      "name": "listSinks",
      "outputs": [
        {
          "name": "",
          "type": "string"
        },
        {
          "name": "",
          "type": "address"
        }
      ],
      "payable": false,
      "stateMutability": "view",
      "type": "function"
    },
    {
      "constant": true,
      "inputs": [],
      "name": "getSinksLength",
      "outputs": [
        {
          "name": "",
          "type": "uint256"
        }
      ],
      "payable": false,
      "stateMutability": "view",
      "type": "function"
    },
    {
      "constant": true,
      "inputs": [
        {
          "name": "number",
          "type": "uint256"
        }
      ],
      "name": "listFinalBudget",
      "outputs": [
        {
          "name": "",
          "type": "uint256"
        }
      ],
      "payable": false,
      "stateMutability": "view",
      "type": "function"
    }
  ],
  "bytecode": "0x60606040526000600860006101000a81548160ff02191690831515021790555060006009556000600a5534156200003557600080fd5b6040516101208062004074833981016040526200005c9067800000000000000090620000c8565b888888828060018190555050816002819055508060038190555050505085600b8190555084600c8190555083600d8190555082600e8190555081600f8190555080601081905550505050505050505050620001b5565b6000620000c08251620001ab565b905092915050565b60008060008060008060008060006101208a8c031260018114620000ec57620000f1565b600080fd5b506000620001028c828d01620000b2565b9950506020620001158c828d01620000b2565b9850506040620001288c828d01620000b2565b97505060606200013b8c828d01620000b2565b96505060806200014e8c828d01620000b2565b95505060a0620001618c828d01620000b2565b94505060c0620001748c828d01620000b2565b93505060e0620001878c828d01620000b2565b9250506101006200019b8c828d01620000b2565b9150509295985092959850929598565b6000819050919050565b613eaf80620001c56000396000f3006060604052600436106101d8576000357c0100000000000000000000000000000000000000000000000000000000900463ffffffff1680630cf35f44146101dd57806313dcd43e14610214578063161893d0146102365780631859df651461025f5780631afad36d146102885780631d5e3fe5146102b157806322366844146102da57806322ca968b146103035780632cd152201461033a57806347792fc5146103635780634c0a6af0146103785780635654a49b1461038d5780635846fc46146103a25780636904d241146103c4578063717a55d2146103e657806379b18cd11461040f5780638b2e48831461043857806390f10ed11461046e5780639ec8b02614610478578063a5982ddb146104ae578063ad012af0146104d7578063ae0689ac1461050d578063aec2ccae14610536578063af0ab7151461056c578063b9223946146105a3578063c6214bf1146105b8578063cebe09c9146105e1578063d0dc01801461060a578063d5268b2214610633578063d87311aa1461065c578063db595b3b14610692578063dc4a7f7f146106a7578063dee6472f146106d0578063e0abab9e14610709578063e32ba07814610732578063ed00af9814610768578063ed08132914610791578063f2c298be146107b3575b600080fd5b34156101e857600080fd5b6101fd60046101f8903690613a8e565b6107ca565b60405161020b929190613c27565b60405180910390f35b341561021f57600080fd5b610234600461022f903690613860565b6108d9565b005b341561024157600080fd5b6102496109b8565b6040516102569190613caa565b60405180910390f35b341561026a57600080fd5b6102726109be565b60405161027f9190613caa565b60405180910390f35b341561029357600080fd5b61029b6109cb565b6040516102a89190613caa565b60405180910390f35b34156102bc57600080fd5b6102c46109d7565b6040516102d19190613caa565b60405180910390f35b34156102e557600080fd5b6102ed6109dd565b6040516102fa9190613c0c565b60405180910390f35b341561030e57600080fd5b610323600461031e903690613a8e565b610a85565b604051610331929190613c27565b60405180910390f35b341561034557600080fd5b61034d610bc8565b60405161035a9190613caa565b60405180910390f35b341561036e57600080fd5b610376610bce565b005b341561038357600080fd5b61038b6111b0565b005b341561039857600080fd5b6103a0611202565b005b34156103ad57600080fd5b6103c260046103bd903690613919565b611237565b005b34156103cf57600080fd5b6103e460046103df903690613919565b611316565b005b34156103f157600080fd5b6103f9611401565b6040516104069190613caa565b60405180910390f35b341561041a57600080fd5b610422611407565b60405161042f9190613caa565b60405180910390f35b341561044357600080fd5b6104586004610453903690613a8e565b61140d565b6040516104659190613caa565b60405180910390f35b610476611431565b005b341561048357600080fd5b6104986004610493903690613919565b611433565b6040516104a59190613bea565b60405180910390f35b34156104b957600080fd5b6104c1611453565b6040516104ce9190613caa565b60405180910390f35b34156104e257600080fd5b6104f760046104f2903690613a8e565b611459565b6040516105049190613caa565b60405180910390f35b341561051857600080fd5b61052061147d565b60405161052d9190613caa565b60405180910390f35b341561054157600080fd5b610556600461055190369061382e565b611483565b6040516105639190613c0c565b60405180910390f35b341561057757600080fd5b61058c6004610587903690613a8e565b6114a3565b60405161059a929190613c27565b60405180910390f35b34156105ae57600080fd5b6105b66115b3565b005b34156105c357600080fd5b6105cb61160a565b6040516105d89190613caa565b60405180910390f35b34156105ec57600080fd5b6105f4611617565b6040516106019190613caa565b60405180910390f35b341561061557600080fd5b61061d61161d565b60405161062a9190613c0c565b60405180910390f35b341561063e57600080fd5b610646611630565b6040516106539190613caa565b60405180910390f35b341561066757600080fd5b61067c600461067790369061396c565b61163d565b6040516106899190613bea565b60405180910390f35b341561069d57600080fd5b6106a56119aa565b005b34156106b257600080fd5b6106ba611a84565b6040516106c79190613caa565b60405180910390f35b34156106db57600080fd5b6106f060046106eb903690613a8e565b611a8a565b6040516107009493929190613c57565b60405180910390f35b341561071457600080fd5b61071c611c7c565b6040516107299190613caa565b60405180910390f35b341561073d57600080fd5b610752600461074d903690613ac0565b611c82565b60405161075f9190613bea565b60405180910390f35b341561077357600080fd5b61077b611f0d565b6040516107889190613caa565b60405180910390f35b341561079c57600080fd5b6107b160046107ac9036906138c6565b611f13565b005b6107c860046107c3903690613a3b565b612033565b005b6107d261302e565b600080838154811015156107e257fe5b906000526020600020906002020160010160008481548110151561080257fe5b906000526020600020906002020160000160009054906101000a900473ffffffffffffffffffffffffffffffffffffffff16818054600181600116156101000203166002900480601f0160208091040260200160405190810160405280929190818152602001828054600181600116156101000203166002900480156108c95780601f1061089e576101008083540402835291602001916108c9565b820191906000526020600020905b8154815290600101906020018083116108ac57829003601f168201915b5050505050915091509150915091565b6108e1613042565b81816020018190525082816000019073ffffffffffffffffffffffffffffffffffffffff16908173ffffffffffffffffffffffffffffffffffffffff1681525050601180548060010182816109369190613078565b9160005260206000209060020201600083909190915060008201518160000160006101000a81548173ffffffffffffffffffffffffffffffffffffffff021916908373ffffffffffffffffffffffffffffffffffffffff16021790555060208201518160010190805190602001906109af9291906130aa565b50505050505050565b60095481565b6000600580549050905090565b60008080549050905090565b600d5481565b600080600090505b600080549050811015610a7c573373ffffffffffffffffffffffffffffffffffffffff16600082815481101515610a1857fe5b906000526020600020906002020160000160009054906101000a900473ffffffffffffffffffffffffffffffffffffffff1673ffffffffffffffffffffffffffffffffffffffff161415610a6f5760019150610a81565b80806001019150506109e5565b600091505b5090565b610a8d61302e565b600080600584815481101515610a9f57fe5b906000526020600020900154815481101515610ab757fe5b90600052602060002090600202016001016000600585815481101515610ad957fe5b906000526020600020900154815481101515610af157fe5b906000526020600020906002020160000160009054906101000a900473ffffffffffffffffffffffffffffffffffffffff16818054600181600116156101000203166002900480601f016020809104026020016040519081016040528092919081815260200182805460018160011615610100020316600290048015610bb85780601f10610b8d57610100808354040283529160200191610bb8565b820191906000526020600020905b815481529060010190602001808311610b9b57829003601f168201915b5050505050915091509150915091565b600b5481565b600080610bd961312a565b610be161313e565b610be961313e565b610bf1613152565b600080610bfc61313e565b600080610c0761313e565b600c549b506003549a508a604051805910610c1f5750595b908082528060200260200182016040528015610c5557816020015b610c42613166565b815260200190600190039081610c3a5790505b5099508a604051805910610c665750595b908082528060200260200182016040525098508a604051805910610c875750595b908082528060200260200182016040525097508a604051805910610ca85750595b908082528060200260200182016040528015610cde57816020015b610ccb61317a565b815260200190600190039081610cc35790505b509650600095505b8a861015610e1d57600486815481101515610cfd57fe5b9060005260206000209060030201606060405190810160405290816000820154815260200160018201805480602002602001604051908101604052809291908181526020018280548015610d7057602002820191906000526020600020905b815481526020019060010190808311610d5c575b505050505081526020016002820154815250508787815181101515610d9157fe5b906020019060200201819052508686815181101515610dac57fe5b90602001906020020151602001518a87815181101515610dc857fe5b9060200190602002018190525060018987815181101515610de557fe5b9060200190602002018181525050858887815181101515610e0257fe5b90602001906020020181815250508580600101965050610ce6565b600094505b8a610e2e898d8a61227e565b141561116a576002604051805910610e435750595b908082528060200260200182016040525093508a9250610edc8a8987815181101515610e6b57fe5b90602001906020020151815181101515610e8157fe5b906020019060200201518887815181101515610e9957fe5b90602001906020020151602001518b8b89815181101515610eb657fe5b90602001906020020151815181101515610ecc57fe5b906020019060200201518f61236b565b9150600095505b8a861015610fef57858886815181101515610efa57fe5b9060200190602002015114158015610f2a575060008987815181101515610f1d57fe5b9060200190602002015114155b15610fe257610fa08a87815181101515610f4057fe5b906020019060200201518887815181101515610f5857fe5b9060200190602002015160200151848c8a815181101515610f7557fe5b906020019060200201518b8a815181101515610f8d57fe5b9060200190602002015160400151612383565b9050836000815181101515610fb157fe5b90602001906020020151816000815181101515610fca57fe5b906020019060200201511115610fe1578093508592505b5b8580600101965050610ee3565b8a831415156111365761106a878681518110151561100957fe5b90602001906020020151602001518b8581518110151561102557fe5b90602001906020020151868a8981518110151561103e57fe5b90602001906020020151604001518d8881518110151561105a57fe5b906020019060200201510161163d565b8a8481518110151561107857fe5b90602001906020020181905250868581518110151561109357fe5b90602001906020020151604001518989878151811015156110b057fe5b906020019060200201518151811015156110c657fe5b906020019060200201818151039150818152505086858151811015156110e857fe5b9060200190602002015160400151898481518110151561110457fe5b906020019060200201818151019150818152505082888681518110151561112757fe5b90602001906020020181815250505b60018b0385141561114a5760009450611153565b84806001019550505b601054600f60008282540192505081905550610e22565b89611176898d8a61227e565b81518110151561118257fe5b90602001906020020151601290805190602001906111a19291906131a2565b50505050505050505050505050565b42600254600a54011080156111d8575060001515600860009054906101000a900460ff161515145b15611200576001600860006101000a81548160ff021916908315150217905550426009819055505b565b42600a5411158015611227575060001515600860009054906101000a900460ff161515145b1561123557611234610bce565b5b565b60006112416131ef565b600091505b600354821015611301576005838381518110151561126057fe5b9060200190602002015181548110151561127657fe5b9060005260206000209001548160000181815250506001816040018181525050600480548060010182816112aa9190613217565b916000526020600020906003020160008390919091506000820151816000015560208201518160010190805190602001906112e6929190613249565b50604082015181600201555050508180600101925050611246565b60006005816113109190613296565b50505050565b60008090505b6003548110156113fd573373ffffffffffffffffffffffffffffffffffffffff16600060048381548110151561134e57fe5b90600052602060002090600302016000015481548110151561136c57fe5b906000526020600020906002020160000160009054906101000a900473ffffffffffffffffffffffffffffffffffffffff1673ffffffffffffffffffffffffffffffffffffffff1614156113f057816004828154811015156113ca57fe5b906000526020600020906003020160010190805190602001906113ee9291906131a2565b505b808060010191505061131c565b5050565b60105481565b60025481565b600060128281548110151561141e57fe5b9060005260206000209001549050919050565b565b61143b61313e565b61144b826000600185510361240d565b819050919050565b600f5481565b60128181548110151561146857fe5b90600052602060002090016000915090505481565b60035481565b60076020528060005260406000206000915054906101000a900460ff1681565b6114ab61302e565b60006011838154811015156114bc57fe5b90600052602060002090600202016001016011848154811015156114dc57fe5b906000526020600020906002020160000160009054906101000a900473ffffffffffffffffffffffffffffffffffffffff16818054600181600116156101000203166002900480601f0160208091040260200160405190810160405280929190818152602001828054600181600116156101000203166002900480156115a35780601f10611578576101008083540402835291602001916115a3565b820191906000526020600020905b81548152906001019060200180831161158657829003601f168201915b5050505050915091509150915091565b42600954111580156115d8575060011515600860009054906101000a900460ff161515145b15611608576000600860006101000a81548160ff02191690831515021790555042600a8190555061160761256d565b5b565b6000601180549050905090565b600c5481565b600860009054906101000a900460ff1681565b6000600480549050905090565b61164561313e565b61164d61313e565b60008060008060008060008060008e5160405180591061166a5750595b908082528060200260200182016040525099506116878f8f612989565b9850600c54975088600f546064038d60018b0103600f548115156116a757fe5b04018e60008151811015156116b857fe5b906020019060200201518115156116cb57fe5b0403965088600f546064038d60018b0103600f548115156116e857fe5b04018e60018151811015156116f957fe5b9060200190602002015181151561170c57fe5b040395506000945060009350600092505b8e518310156117a7578d8381518110151561173457fe5b906020019060200201518f8481518110151561174c57fe5b90602001906020020151111561177d578e8381518110151561176a57fe5b906020019060200201518501945061179a565b8d8381518110151561178b57fe5b90602001906020020151840193505b828060010193505061171d565b60009150600092505b8e5183101561193a578d838151811015156117c757fe5b906020019060200201518f848151811015156117df57fe5b90602001906020020151111561189057848f848151811015156117fe57fe5b90602001906020020151880281151561181357fe5b048e8481518110151561182257fe5b906020019060200201510182019150848f8481518110151561184057fe5b90602001906020020151880281151561185557fe5b048e8481518110151561186457fe5b90602001906020020151018a8481518110151561187d57fe5b906020019060200201818152505061192d565b838e8481518110151561189f57fe5b9060200190602002015187028115156118b457fe5b048f848151811015156118c357fe5b906020019060200201510182019150838e848151811015156118e157fe5b9060200190602002015187028115156118f657fe5b048f8481518110151561190557fe5b90602001906020020151018a8481518110151561191e57fe5b90602001906020020181815250505b82806001019350506117b0565b600090505b60648210156119955760018a8281518110151561195857fe5b906020019060200201818151019150818152505060018201915060018f51038114156119875760009050611990565b80806001019150505b61193f565b899a5050505050505050505050949350505050565b60006119bd336119b8612a2b565b612c06565b1515611a8157600090505b600080549050811015611a80573373ffffffffffffffffffffffffffffffffffffffff166000828154811015156119fb57fe5b906000526020600020906002020160000160009054906101000a900473ffffffffffffffffffffffffffffffffffffffff1673ffffffffffffffffffffffffffffffffffffffff161415611a735760058054806001018281611a5d91906132c2565b9160005260206000209001600083909190915055505b80806001019150506119c8565b5b50565b60015481565b611a9261302e565b600080611a9d61313e565b6000600486815481101515611aae57fe5b906000526020600020906003020160000154815481101515611acc57fe5b90600052602060002090600202016001016000600487815481101515611aee57fe5b906000526020600020906003020160000154815481101515611b0c57fe5b906000526020600020906002020160000160009054906101000a900473ffffffffffffffffffffffffffffffffffffffff16600487815481101515611b4d57fe5b906000526020600020906003020160020154600488815481101515611b6e57fe5b9060005260206000209060030201600101838054600181600116156101000203166002900480601f016020809104026020016040519081016040528092919081815260200182805460018160011615610100020316600290048015611c145780601f10611be957610100808354040283529160200191611c14565b820191906000526020600020905b815481529060010190602001808311611bf757829003601f168201915b5050505050935080805480602002602001604051908101604052809291908181526020018280548015611c6657602002820191906000526020600020905b815481526020019060010190808311611c52575b5050505050905093509350935093509193509193565b600e5481565b611c8a61313e565b600080611c9561313e565b600080600d5494506001856002898b8d8f01030303811515611cb357fe5b040193506002604051805910611cc65750595b90808252806020026020018201604052509250600e54915081841115611cea578193505b600287898760018803028c8e010303030390506000600285811515611d0b57fe5b061415611d8a576001856001600287811515611d2357fe5b0403028260018a01010101836001815181101515611d3d57fe5b9060200190602002018181525050826001815181101515611d5a57fe5b90602001906020020151898b0103836000815181101515611d7757fe5b9060200190602002018181525050611dfe565b846001600260018701811515611d9c57fe5b0403028160018a010101836000815181101515611db557fe5b9060200190602002018181525050826000815181101515611dd257fe5b90602001906020020151898b0103836001815181101515611def57fe5b90602001906020020181815250505b89836000815181101515611e0e57fe5b906020019060200201511115611e7f5789836000815181101515611e2e57fe5b9060200190602002015103836001815181101515611e4857fe5b906020019060200201818151019150818152505089836000815181101515611e6c57fe5b9060200190602002018181525050611efd565b89836001815181101515611e8f57fe5b906020019060200201511115611efc5789836001815181101515611eaf57fe5b9060200190602002015103836000815181101515611ec957fe5b906020019060200201818151019150818152505089836001815181101515611eed57fe5b90602001906020020181815250505b5b8295505050505050949350505050565b600a5481565b611f1b6109dd565b8015611f3a575060011515600860009054906101000a900460ff161515145b8015611f96575060001515600760003373ffffffffffffffffffffffffffffffffffffffff1673ffffffffffffffffffffffffffffffffffffffff16815260200190815260200160002060009054906101000a900460ff161515145b15612030576001600760003373ffffffffffffffffffffffffffffffffffffffff1673ffffffffffffffffffffffffffffffffffffffff16815260200190815260200160002060006101000a81548160ff0219169083151502179055506006805480600101828161200791906132ee565b91600052602060002090016000839091909150908051906020019061202d92919061331a565b50505b50565b61203b6133a4565b600154341180156121a257506121a0336000805480602002602001604051908101604052809291908181526020016000905b8282101561219757838290600052602060002090600202016040805190810160405290816000820160009054906101000a900473ffffffffffffffffffffffffffffffffffffffff1673ffffffffffffffffffffffffffffffffffffffff1673ffffffffffffffffffffffffffffffffffffffff168152602001600182018054600181600116156101000203166002900480601f01602080910402602001604051908101604052809291908181526020018280546001816001161561010002031660029004801561217f5780601f106121545761010080835404028352916020019161217f565b820191906000526020600020905b81548152906001019060200180831161216257829003601f168201915b5050505050815250508152602001906001019061206d565b50505050612c06565b155b1561227a5733816000019073ffffffffffffffffffffffffffffffffffffffff16908173ffffffffffffffffffffffffffffffffffffffff1681525050818160200181905250600080548060010182816121fc91906133da565b9160005260206000209060020201600083909190915060008201518160000160006101000a81548173ffffffffffffffffffffffffffffffffffffffff021916908373ffffffffffffffffffffffffffffffffffffffff16021790555060208201518160010190805190602001906122759291906130aa565b505050505b5050565b600061228861313e565b6000846040518059106122985750595b90808252806020026020018201604052509150600090505b8481101561231a5783818151811015156122c657fe5b90602001906020020151604001518287838151811015156122e357fe5b906020019060200201518151811015156122f957fe5b906020019060200201818151019150818152505080806001019150506122b0565b600090505b8481101561235e57600c54828281518110151561233857fe5b9060200190602002015110151561235157809250612362565b808060010191505061231f565b8492505b50509392505050565b600061237985858585612c88565b9050949350505050565b61238b61313e565b600080600080600c5493506123a1878786612cc0565b92506123b0898b898988612cd7565b91506123bc8785612cf2565b905081830181890110156123dd576123d683838a84611c82565b9450612400565b60026040518059106123ec5750595b908082528060200260200182016040525094505b5050505095945050505050565b60008060008492508391508183141561242557612565565b85600286860381151561243457fe5b04860181518110151561244357fe5b9060200190602002015190505b818311151561253c575b80868481518110151561246957fe5b90602001906020020151111561248657828060010193505061245a565b5b858281518110151561249557fe5b906020019060200201518111156124b457818060019003925050612487565b81831115156125375785828151811015156124cb57fe5b9060200190602002015186848151811015156124e357fe5b9060200190602002015187858151811015156124fb57fe5b906020019060200201888581518110151561251257fe5b9060200190602002018281525082815250505082806001019350508180600190039250505b612450565b818510156125505761254f86868461240d565b5b838310156125645761256386848661240d565b5b5b505050505050565b60008061257861313e565b61258061312a565b600061258a61313e565b61259261313e565b61259a61313e565b6005805490506040518059106125ad5750595b9080825280602002602001820160405250955085516040518059106125cf5750595b90808252806020026020018201604052801561260557816020015b6125f2613166565b8152602001906001900390816125ea5790505b509450600097505b855188101561265e5785516040518059106126255750595b9080825280602002602001820160405250858981518110151561264457fe5b90602001906020020181905250878060010198505061260d565b600097505b600186510388101561279a578760010196505b855187101561278d576126898888612d06565b93506000841415612707578685898151811015156126a357fe5b90602001906020020151878a8151811015156126bb57fe5b906020019060200201518151811015156126d157fe5b906020019060200201818152505085888151811015156126ed57fe5b906020019060200201805180919060010181525050612780565b600184141561277f5787858881518110151561271f57fe5b90602001906020020151878981518110151561273757fe5b9060200190602002015181518110151561274d57fe5b9060200190602002018181525050858781518110151561276957fe5b9060200190602002018051809190600101815250505b5b8680600101975050612676565b8780600101985050612663565b85516040518059106127a95750595b90808252806020026020018201604052509250600097505b855188101561289257600086898151811015156127da57fe5b9060200190602002015114151561288557600096505b85888151811015156127fe57fe5b906020019060200201518710156128845785858981518110151561281e57fe5b906020019060200201518881518110151561283557fe5b9060200190602002015181518110151561284b57fe5b90602001906020020151838981518110151561286357fe5b906020019060200201818151019150818152505086806001019750506127f0565b5b87806001019850506127c1565b85516040518059106128a15750595b908082528060200260200182016040525091506128c56128c084612f77565b611433565b9050600097505b855188101561297657600096505b85518710156129695782878151811015156128f157fe5b90602001906020020151818981518110151561290957fe5b90602001906020020151141561295c5786828981518110151561292857fe5b90602001906020020181815250508551865102838881518110151561294957fe5b9060200190602002018181525050612969565b86806001019750506128da565b87806001019850506128cc565b61297f82611237565b5050505050505050565b6000806000809150600090505b8451811015612a205783818151811015156129ad57fe5b9060200190602002015185828151811015156129c557fe5b9060200190602002015111156129f65783818151811015156129e357fe5b9060200190602002015182019150612a13565b8481815181101515612a0457fe5b90602001906020020151820191505b8080600101915050612996565b819250505092915050565b612a3361340c565b6000612a3d61340c565b6000600580549050925082604051805910612a555750595b908082528060200260200182016040528015612a8b57816020015b612a78613420565b815260200190600190039081612a705790505b509150600090505b82811015612bfd576000600582815481101515612aac57fe5b906000526020600020900154815481101515612ac457fe5b90600052602060002090600202016040805190810160405290816000820160009054906101000a900473ffffffffffffffffffffffffffffffffffffffff1673ffffffffffffffffffffffffffffffffffffffff1673ffffffffffffffffffffffffffffffffffffffff168152602001600182018054600181600116156101000203166002900480601f016020809104026020016040519081016040528092919081815260200182805460018160011615610100020316600290048015612bcc5780601f10612ba157610100808354040283529160200191612bcc565b820191906000526020600020905b815481529060010190602001808311612baf57829003601f168201915b5050505050815250508282815181101515612be357fe5b906020019060200201819052508080600101915050612a93565b81935050505090565b600080600090505b8251811015612c7c578373ffffffffffffffffffffffffffffffffffffffff168382815181101515612c3c57fe5b906020019060200201516000015173ffffffffffffffffffffffffffffffffffffffff161415612c6f5760019150612c81565b8080600101915050612c0e565b600091505b5092915050565b600080612c958686612989565b905080600f546064030284600185010382600f5402811515612cb357fe5b0401915050949350505050565b6000612cce83850183613004565b90509392505050565b6000612ce7868685870185612c88565b905095945050505050565b6000612cfe8383613004565b905092915050565b60008060008060008060008060008060009850600097506006805490509650600060058d815481101515612d3657fe5b906000526020600020900154815481101515612d4e57fe5b906000526020600020906002020160000160009054906101000a900473ffffffffffffffffffffffffffffffffffffffff169550600060058c815481101515612d9357fe5b906000526020600020900154815481101515612dab57fe5b906000526020600020906002020160000160009054906101000a900473ffffffffffffffffffffffffffffffffffffffff169450600093505b86841015612f4157600287811515612df857fe5b048911158015612e145750600287811515612e0f57fe5b048811155b15612f2f57600684815481101515612e2857fe5b9060005260206000209001805490509250600091505b82821015612f2a57600684815481101515612e5557fe5b906000526020600020900182815481101515612e6d57fe5b906000526020600020900160009054906101000a900473ffffffffffffffffffffffffffffffffffffffff1690508573ffffffffffffffffffffffffffffffffffffffff168173ffffffffffffffffffffffffffffffffffffffff161415612edc578880600101995050612f2a565b8473ffffffffffffffffffffffffffffffffffffffff168173ffffffffffffffffffffffffffffffffffffffff161415612f1d578780600101985050612f2a565b8180600101925050612e3e565b612f34565b612f41565b8380600101945050612de4565b87891115612f525760009950612f68565b88881115612f635760019950612f68565b600299505b50505050505050505092915050565b612f7f61313e565b612f8761313e565b60008351604051805910612f985750595b90808252806020026020018201604052509150600090505b8351811015612ffa578381815181101515612fc757fe5b906020019060200201518282815181101515612fdf57fe5b90602001906020020181815250508080600101915050612fb0565b8192505050919050565b60006064600f54606403028360018401036064600f540281151561302457fe5b0401905092915050565b602060405190810160405280600081525090565b6040805190810160405280600073ffffffffffffffffffffffffffffffffffffffff168152602001613072613456565b81525090565b8154818355818115116130a5576002028160020283600052602060002091820191016130a4919061346a565b5b505050565b828054600181600116156101000203166002900490600052602060002090601f016020900481019282601f106130eb57805160ff1916838001178555613119565b82800160010185558215613119579182015b828111156131185782518255916020019190600101906130fd565b5b50905061312691906134c0565b5090565b602060405190810160405280600081525090565b602060405190810160405280600081525090565b602060405190810160405280600081525090565b602060405190810160405280600081525090565b60606040519081016040528060008152602001613195613166565b8152602001600081525090565b8280548282559060005260206000209081019282156131de579160200282015b828111156131dd5782518255916020019190600101906131c2565b5b5090506131eb91906134c0565b5090565b6060604051908101604052806000815260200161320a613166565b8152602001600081525090565b8154818355818115116132445760030281600302836000526020600020918201910161324391906134e5565b5b505050565b828054828255906000526020600020908101928215613285579160200282015b82811115613284578251825591602001919060010190613269565b5b50905061329291906134c0565b5090565b8154818355818115116132bd578183600052602060002091820191016132bc91906134c0565b5b505050565b8154818355818115116132e9578183600052602060002091820191016132e891906134c0565b5b505050565b815481835581811511613315578183600052602060002091820191016133149190613524565b5b505050565b828054828255906000526020600020908101928215613393579160200282015b828111156133925782518260006101000a81548173ffffffffffffffffffffffffffffffffffffffff021916908373ffffffffffffffffffffffffffffffffffffffff1602179055509160200191906001019061333a565b5b5090506133a09190613550565b5090565b6040805190810160405280600073ffffffffffffffffffffffffffffffffffffffff1681526020016133d4613456565b81525090565b815481835581811511613407576002028160020283600052602060002091820191016134069190613593565b5b505050565b602060405190810160405280600081525090565b6040805190810160405280600073ffffffffffffffffffffffffffffffffffffffff168152602001613450613456565b81525090565b602060405190810160405280600081525090565b6134bd91905b808211156134b957600080820160006101000a81549073ffffffffffffffffffffffffffffffffffffffff02191690556001820160006134b091906135e9565b50600201613470565b5090565b90565b6134e291905b808211156134de5760008160009055506001016134c6565b5090565b90565b61352191905b8082111561351d5760008082016000905560018201600061350c9190613631565b6002820160009055506003016134eb565b5090565b90565b61354d91905b8082111561354957600081816135409190613652565b5060010161352a565b5090565b90565b61359091905b8082111561358c57600081816101000a81549073ffffffffffffffffffffffffffffffffffffffff021916905550600101613556565b5090565b90565b6135e691905b808211156135e257600080820160006101000a81549073ffffffffffffffffffffffffffffffffffffffff02191690556001820160006135d991906135e9565b50600201613599565b5090565b90565b50805460018160011615610100020316600290046000825580601f1061360f575061362e565b601f01602090049060005260206000209081019061362d91906134c0565b5b50565b508054600082559060005260206000209081019061364f91906134c0565b50565b508054600082559060005260206000209081019061367091906134c0565b50565b600061367f8235613df8565b905092915050565b600082601f8301126000811461369c576136a1565b600080fd5b5081356136b56136b082613cfb565b613cc5565b915081818352602084019350602081019050838560208402820111600181146136dd576136e2565b600080fd5b5060005b8381101561371357816136f98882613673565b8452602084019350602083019250506001810190506136e6565b5050505092915050565b600082601f8301126000811461373257613737565b600080fd5b50813561374b61374682613d2c565b613cc5565b9150818183526020840193506020810190508385602084028201116001811461377357613778565b600080fd5b5060005b838110156137a9578161378f888261381a565b84526020840193506020830192505060018101905061377c565b5050505092915050565b600082601f830112600081146137c8576137cd565b600080fd5b5081356137e16137dc82613d5d565b613cc5565b9150808252602083016020830185838301116001811461380057613805565b600080fd5b50613811838284613e22565b50505092915050565b60006138268235613e18565b905092915050565b60006020828403126001811461384357613848565b600080fd5b50600061385784828501613673565b91505092915050565b600080604083850312600181146138765761387b565b600080fd5b50600061388a85828601613673565b925050602083013567ffffffffffffffff8111600181146138aa576138af565b600080fd5b506138bc858286016137b3565b9150509250929050565b6000602082840312600181146138db576138e0565b600080fd5b50600082013567ffffffffffffffff8111600181146138fe57613903565b600080fd5b5061391084828501613687565b91505092915050565b60006020828403126001811461392e57613933565b600080fd5b50600082013567ffffffffffffffff81116001811461395157613956565b600080fd5b506139638482850161371d565b91505092915050565b600080600080608085870312600181146139855761398a565b600080fd5b50600085013567ffffffffffffffff8111600181146139a8576139ad565b600080fd5b506139ba8782880161371d565b945050602085013567ffffffffffffffff8111600181146139da576139df565b600080fd5b506139ec8782880161371d565b935050604085013567ffffffffffffffff811160018114613a0c57613a11565b600080fd5b50613a1e8782880161371d565b9250506060613a2f8782880161381a565b91505092959194509250565b600060208284031260018114613a5057613a55565b600080fd5b50600082013567ffffffffffffffff811160018114613a7357613a78565b600080fd5b50613a85848285016137b3565b91505092915050565b600060208284031260018114613aa357613aa8565b600080fd5b506000613ab78482850161381a565b91505092915050565b60008060008060808587031260018114613ad957613ade565b600080fd5b506000613aed8782880161381a565b9450506020613afe8782880161381a565b9350506040613b0f8782880161381a565b9250506060613b208782880161381a565b91505092959194509250565b613b3581613dc2565b82525050565b6000613b4682613d9f565b808452602084019350613b5883613d92565b60005b82811015613b8a57613b6e868351613bdb565b613b7782613db5565b9150602086019550600181019050613b5b565b50849250505092915050565b613b9f81613de2565b82525050565b6000613bb082613daa565b808452613bc4816020860160208601613e31565b613bcd81613e64565b602085010191505092915050565b613be481613dee565b82525050565b60006020820190508181036000830152613c048184613b3b565b905092915050565b6000602082019050613c216000830184613b96565b92915050565b60006040820190508181036000830152613c418185613ba5565b9050613c506020830184613b2c565b9392505050565b60006080820190508181036000830152613c718187613ba5565b9050613c806020830186613b2c565b613c8d6040830185613bdb565b8181036060830152613c9f8184613b3b565b905095945050505050565b6000602082019050613cbf6000830184613bdb565b92915050565b6000604051905081810181811067ffffffffffffffff82111760018114613ceb57613cf0565b600080fd5b508060405250919050565b600067ffffffffffffffff821160018114613d1557613d1a565b600080fd5b50602082029050602081019050919050565b600067ffffffffffffffff821160018114613d4657613d4b565b600080fd5b50602082029050602081019050919050565b600067ffffffffffffffff821160018114613d7757613d7c565b600080fd5b50601f19601f8301169050602081019050919050565b6000602082019050919050565b600081519050919050565b600081519050919050565b6000602082019050919050565b600073ffffffffffffffffffffffffffffffffffffffff82169050919050565b60008115159050919050565b6000819050919050565b600073ffffffffffffffffffffffffffffffffffffffff82169050919050565b6000819050919050565b82818337600083830152505050565b60005b83811015613e4f578082015181840152602081019050613e34565b83811115613e5e576000848401525b50505050565b6000601f19601f83011690509190505600a265627a7a72305820ad45397073da716ad6f5a2f1e82956bbb38db04c92247b7d5e65d0185af98cbb6c6578706572696d656e74616cf50037",
  "source": "pragma solidity ^0.4.19;\r\npragma experimental ABIEncoderV2;\r\nimport \"./MyLib.sol\";\r\nimport \"./VotingClub.sol\";\r\ncontract BudgetClub is VotingClub {\r\n    uint public numberOfSinks;\r\n      uint public quota;\r\n  uint public gasCost;\r\n  uint public numberOfTurns;\r\n  uint public coalitionSizeFactor;\r\n  uint public coalitionSizeFactorIncrease;\r\n\r\n    MyLib.Sink[] listOfSinks;\r\n    uint[] public finalBudget;\r\n\r\n    function BudgetClub(uint cost, uint term, uint reps, uint sinks, uint q, uint gas, uint turns, uint sizeFactor, uint sizeFactorIncrease) VotingClub(cost,term,reps) public {\r\n        numberOfSinks = sinks;\r\n        quota = q;\r\n        gasCost = gas;\r\n        numberOfTurns = turns;\r\n        coalitionSizeFactor = sizeFactor;\r\n        coalitionSizeFactorIncrease = sizeFactorIncrease;\r\n  }\r\n\r\n\r\n    function submitBudget(uint[] budget) public\r\n    {\r\n      for (uint i = 0; i < numberOfRepresentatives; i++)\r\n      {\r\n        if(registeredUser[listOfRepresentatives[i].u].myAddress == msg.sender)\r\n        {\r\n          listOfRepresentatives[i].budget = budget;\r\n        }\r\n      }\r\n    }\r\n    //who should be able to do this\r\n    function submitSink(address spender, string name) public\r\n    {\r\n      MyLib.Sink memory s;\r\n      s.name = name;\r\n      s.spender = spender;\r\n      listOfSinks.push(s);\r\n    }\r\n\r\n\r\n    function endBudgetSumbit() public\r\n    {\r\n      if(timeVoteEnded <= block.timestamp && voteStarted == false)\r\n      {\r\n        decideBudget();\r\n      }\r\n    }\r\n\r\n\r\n    function decideBudget() public\r\n    {\r\n      uint quotaMemory = quota;\r\n      uint numberOfRepresentativesMemory = numberOfRepresentatives;\r\n      uint[][] memory coalitionBudgets = new uint[][](numberOfRepresentativesMemory);\r\n      uint[] memory coalitionSize = new uint[](numberOfRepresentativesMemory);\r\n      uint[] memory playerToCoalition = new uint[](numberOfRepresentativesMemory);\r\n      MyLib.Agent[] memory playerToAgent = new MyLib.Agent[](numberOfRepresentativesMemory);\r\n      uint i;\r\n      //init\r\n      for (i = 0; i < numberOfRepresentativesMemory; i++)\r\n      {\r\n        playerToAgent[i] = listOfRepresentatives[i];\r\n        coalitionBudgets[i] =  playerToAgent[i].budget;\r\n        coalitionSize[i] = 1;\r\n        playerToCoalition[i] = i;\r\n      }\r\n\r\n      uint player = 0;\r\n      while(winningCoalition(playerToCoalition,numberOfRepresentativesMemory,playerToAgent) == numberOfRepresentativesMemory)\r\n      {\r\n        //get utility in the current coalition\r\n        uint[] memory bestOffer = new uint[](2);\r\n        uint bestCoalition = numberOfRepresentativesMemory;\r\n        uint myAfloor = afloor(coalitionBudgets[playerToCoalition[player]],playerToAgent[player].budget,coalitionSize[playerToCoalition[player]],quotaMemory);\r\n        for(i = 0; i < numberOfRepresentativesMemory; i ++)\r\n        {\r\n          //dont check coalitions with no one or the one your in\r\n          if(playerToCoalition[player] != i && coalitionSize[i] != 0)\r\n          {\r\n            uint[] memory nego = offer(coalitionBudgets[i],playerToAgent[player].budget,myAfloor,coalitionSize[i],playerToAgent[player].weight);\r\n            if(nego[0] > bestOffer[0])\r\n            {\r\n              bestOffer = nego;\r\n              bestCoalition = i;\r\n            }\r\n          }\r\n\r\n        }\r\n\r\n        if(bestCoalition != numberOfRepresentativesMemory)\r\n        {\r\n          coalitionBudgets[bestCoalition] = negoToBudget(playerToAgent[player].budget, coalitionBudgets[bestCoalition], bestOffer, coalitionSize[bestCoalition] + playerToAgent[player].weight);\r\n          coalitionSize[playerToCoalition[player]] -= playerToAgent[player].weight;\r\n          coalitionSize[bestCoalition] += playerToAgent[player].weight;\r\n          playerToCoalition[player] = bestCoalition;\r\n\r\n        }\r\n\r\n        if(player == numberOfRepresentativesMemory - 1)\r\n        {\r\n          player = 0;\r\n        }\r\n        else{\r\n          player ++;\r\n        }\r\n        coalitionSizeFactor += coalitionSizeFactorIncrease;\r\n\r\n      }\r\n\r\n      finalBudget = coalitionBudgets[winningCoalition(playerToCoalition,numberOfRepresentativesMemory,playerToAgent)];\r\n\r\n    }\r\n\r\n    function offer(uint[] budgetCoal, uint[] budgeta, uint myAfloor, uint coalSize, uint agentWeight) constant internal returns (uint[])\r\n    {\r\n      uint quotaMemory = quota;\r\n      uint myAbar = abar(coalSize, agentWeight, quotaMemory);\r\n      uint myBbar = bbar(budgeta, budgetCoal, coalSize, agentWeight, quotaMemory);\r\n      uint myBfloor = bfloor(coalSize, quotaMemory);\r\n      if(myAfloor + myBfloor < myAbar + myBbar)\r\n      {\r\n        return negotiate(myAbar, myBbar ,myAfloor, myBfloor);\r\n      }\r\n      else{\r\n        return new uint[](2);\r\n      }\r\n    }\r\n\r\n    function afloor(uint[] budgetCoala, uint[] budgeta, uint coalSizea, uint quotaMemory ) constant internal returns (uint)\r\n    {\r\n      return calculateUtility(budgetCoala,budgeta,coalSizea,quotaMemory);\r\n    }\r\n    function bfloor(uint coalSize,  uint quotaMemory) constant internal returns (uint)\r\n    {\r\n      return calculate100Utility(coalSize,quotaMemory);\r\n    }\r\n    function abar(uint coalSize, uint agentWeight,  uint quotaMemory) constant internal returns (uint)\r\n    {\r\n      return calculate100Utility(coalSize + agentWeight,quotaMemory);\r\n    }\r\n    function bbar(uint[] budgetCoal, uint[] budgeta, uint coalSize, uint agentWeight,  uint quotaMemory) constant internal returns (uint)\r\n    {\r\n      return calculateUtility(budgetCoal,budgeta,coalSize + agentWeight,quotaMemory);\r\n    }\r\n    function winningCoalition(uint[] playerToCoalition, uint numberOfRepresentativesMemory,MyLib.Agent[] playerToAgent ) constant internal returns (uint)\r\n    {\r\n      uint[] memory weights = new uint[](numberOfRepresentativesMemory);\r\n      //add all the weights\r\n      for (uint i = 0; i < numberOfRepresentativesMemory ; i++)\r\n      {\r\n        weights[playerToCoalition[i]] += playerToAgent[i].weight;\r\n      }\r\n      for (i = 0; i < numberOfRepresentativesMemory ; i++)\r\n      {\r\n        if(weights[i] >= quota)\r\n        {\r\n          return i;\r\n        }\r\n      }\r\n      return numberOfRepresentativesMemory;\r\n    }\r\n\r\n    function calculate100Utility(uint coalitionSize,  uint quotaMemory) constant internal returns (uint)\r\n    {\r\n      return (uint) ((coalitionSizeFactor * 100) / (quotaMemory + 1 - coalitionSize) + ((100-coalitionSizeFactor) * 100));\r\n    }\r\n\r\n    function calculateUtility(uint[] budget1,uint[] budget2, uint coalitionSize,  uint quotaMemory) constant internal returns (uint)\r\n    {\r\n\r\n      uint shared = sharedBudget(budget1,budget2);\r\n      return (uint) ((coalitionSizeFactor * shared) / (quotaMemory + 1 - coalitionSize) + ((100-coalitionSizeFactor) * shared));\r\n    }\r\n\r\n    function sharedBudget(uint[] budget1,uint[] budget2) constant internal returns (uint)\r\n    {\r\n      uint shared = 0;\r\n      for(uint i = 0; i < budget1.length; i ++)\r\n      {\r\n        if(budget1[i] > budget2[i])\r\n        {\r\n          shared += budget2[i];\r\n        }\r\n        else{\r\n          shared += budget1[i];\r\n        }\r\n      }\r\n      return shared;\r\n    }\r\n    function negotiate(uint a_bar,uint b_bar,uint a_floor,uint b_floor)constant  public returns (uint[])\r\n    {\r\n      uint gasCostMemory = gasCost;\r\n      uint usefulTurn = ((a_bar + b_bar - a_floor - b_floor - 2) / gasCostMemory) + 1;\r\n      uint[] memory proposal = new uint[](2);\r\n\r\n      uint numberOfTurnsMemory = numberOfTurns;\r\n      if(usefulTurn > numberOfTurnsMemory)\r\n      {\r\n        usefulTurn = numberOfTurnsMemory;\r\n\r\n      }\r\n      uint freeUtility = a_bar + b_bar - ((usefulTurn - 1) * gasCostMemory) - a_floor - b_floor - 2;\r\n      if(usefulTurn % 2 == 0)\r\n      {\r\n        proposal[1] = b_floor + 1 + freeUtility + (((usefulTurn/ 2)-1) * gasCostMemory) + 1;\r\n        proposal[0] = a_bar + b_bar -  proposal[1];\r\n      }\r\n      else\r\n      {\r\n        proposal[0] = a_floor + 1 + freeUtility +  ((((usefulTurn + 1)/ 2)-1) * gasCostMemory);\r\n        proposal[1] = a_bar + b_bar -  proposal[0];\r\n      }\r\n      //cant go over the best amount\r\n      if(proposal[0] > a_bar)\r\n      {\r\n        proposal[1] +=  proposal[0] - a_bar;\r\n        proposal[0] = a_bar;\r\n      }\r\n      else if(proposal[1] > a_bar)\r\n      {\r\n        proposal[0] +=  proposal[1] - a_bar;\r\n        proposal[1] = a_bar;\r\n      }\r\n\r\n\r\n      return proposal;\r\n\r\n\r\n\r\n    }\r\n\r\n    function negoToBudget(uint[] budget1, uint [] budget2, uint[] nego, uint coalitionSize) constant public returns (uint[])\r\n    {\r\n      uint[] memory newBudget = new uint[](budget1.length);\r\n\r\n      uint sharedab = sharedBudget(budget1,budget2);\r\n\r\n      uint quotaMemory = quota;\r\n      uint individuala = (uint) (nego[0] / ((coalitionSizeFactor / (quotaMemory + 1 - coalitionSize)) + (100 - coalitionSizeFactor)) - sharedab);\r\n      uint individualb = (uint) (nego[1] / ((coalitionSizeFactor / (quotaMemory + 1 - coalitionSize)) + (100 - coalitionSizeFactor))- sharedab);\r\n\r\n\r\n      uint suma = 0;\r\n      uint sumb = 0;\r\n\r\n      for(uint i = 0; i < budget1.length; i ++)\r\n      {\r\n        if(budget1[i] > budget2[i])\r\n        {\r\n          suma += budget1[i];\r\n        }\r\n        else{\r\n          sumb += budget2[i];\r\n        }\r\n      }\r\n\r\n      uint total = 0;\r\n      for(i = 0; i < budget1.length; i ++)\r\n      {\r\n        if(budget1[i] > budget2[i])\r\n        {\r\n          total +=  budget2[i] + individuala * budget1[i] / suma;\r\n          newBudget[i] = budget2[i] + individuala * budget1[i] / suma;\r\n        }\r\n        else{\r\n          total +=  budget1[i] + individualb * budget2[i] / sumb;\r\n          newBudget[i] = budget1[i] + individualb * budget2[i] / sumb;\r\n        }\r\n      }\r\n      uint z = 0;\r\n      while(total < 100)\r\n      {\r\n        newBudget[z] += 1;\r\n        total +=1;\r\n        if(z == budget1.length - 1)\r\n        {\r\n          z = 0;\r\n        }\r\n        else\r\n        {\r\n          z ++;\r\n        }\r\n      }\r\n\r\n\r\n      return newBudget;\r\n    }\r\n\r\n      function listSinks(uint number) public constant returns (string,address) {\r\n\r\n      return (listOfSinks[number].name, listOfSinks[number].spender);\r\n    }\r\n\r\n      function getSinksLength() public constant returns (uint)\r\n    {\r\n      return listOfSinks.length;\r\n    }\r\n\r\n      function listFinalBudget(uint number) public constant returns(uint)\r\n    {\r\n      return finalBudget[number];\r\n    }\r\n\r\n\r\n}\r\n",
  "sourcePath": "C:\\Users\\JakeL\\Desktop\\MultiAgentSystemsOnTheBlockChain\\contracts\\BudgetClub.sol",
  "compiler": {
    "name": "solc",
    "version": "0.4.19+commit.c4cbbb05.Emscripten.clang"
  },
  "schemaVersion": "2.0.0",
  "updatedAt": "2018-04-08T08:18:56.495Z"
}