{
  "contractName": "BudgetClub",
  "abi": [
    {
      "constant": true,
      "inputs": [
        {
          "name": "number",
          "type": "uint256"
        }
      ],
      "name": "listRegisteredUsers",
      "outputs": [
        {
          "name": "",
          "type": "string"
        },
        {
          "name": "",
          "type": "address"
        }
      ],
      "payable": false,
      "stateMutability": "view",
      "type": "function"
    },
    {
      "constant": false,
      "inputs": [
        {
          "name": "spender",
          "type": "address"
        },
        {
          "name": "name",
          "type": "string"
        }
      ],
      "name": "submitSink",
      "outputs": [],
      "payable": false,
      "stateMutability": "nonpayable",
      "type": "function"
    },
    {
      "constant": true,
      "inputs": [],
      "name": "timeVoteStarted",
      "outputs": [
        {
          "name": "",
          "type": "uint256"
        }
      ],
      "payable": false,
      "stateMutability": "view",
      "type": "function"
    },
    {
      "constant": true,
      "inputs": [],
      "name": "getCandidatesLength",
      "outputs": [
        {
          "name": "",
          "type": "uint256"
        }
      ],
      "payable": false,
      "stateMutability": "view",
      "type": "function"
    },
    {
      "constant": true,
      "inputs": [],
      "name": "getRegisteredUsersLength",
      "outputs": [
        {
          "name": "",
          "type": "uint256"
        }
      ],
      "payable": false,
      "stateMutability": "view",
      "type": "function"
    },
    {
      "constant": false,
      "inputs": [],
      "name": "sendOut",
      "outputs": [],
      "payable": false,
      "stateMutability": "nonpayable",
      "type": "function"
    },
    {
      "constant": true,
      "inputs": [],
      "name": "gasCost",
      "outputs": [
        {
          "name": "",
          "type": "uint256"
        }
      ],
      "payable": false,
      "stateMutability": "view",
      "type": "function"
    },
    {
      "constant": true,
      "inputs": [
        {
          "name": "number",
          "type": "uint256"
        }
      ],
      "name": "listCandidates",
      "outputs": [
        {
          "name": "",
          "type": "string"
        },
        {
          "name": "",
          "type": "address"
        }
      ],
      "payable": false,
      "stateMutability": "view",
      "type": "function"
    },
    {
      "constant": false,
      "inputs": [],
      "name": "endBudgetSubmit",
      "outputs": [],
      "payable": false,
      "stateMutability": "nonpayable",
      "type": "function"
    },
    {
      "constant": true,
      "inputs": [],
      "name": "numberOfSinks",
      "outputs": [
        {
          "name": "",
          "type": "uint256"
        }
      ],
      "payable": false,
      "stateMutability": "view",
      "type": "function"
    },
    {
      "constant": false,
      "inputs": [],
      "name": "decideBudget",
      "outputs": [],
      "payable": false,
      "stateMutability": "nonpayable",
      "type": "function"
    },
    {
      "constant": false,
      "inputs": [],
      "name": "startVote",
      "outputs": [],
      "payable": false,
      "stateMutability": "nonpayable",
      "type": "function"
    },
    {
      "constant": false,
      "inputs": [
        {
          "name": "ranked",
          "type": "uint256[]"
        }
      ],
      "name": "weightCandidates",
      "outputs": [],
      "payable": false,
      "stateMutability": "nonpayable",
      "type": "function"
    },
    {
      "constant": true,
      "inputs": [
        {
          "name": "number",
          "type": "uint256"
        }
      ],
      "name": "showVotes",
      "outputs": [
        {
          "name": "",
          "type": "address[]"
        }
      ],
      "payable": false,
      "stateMutability": "view",
      "type": "function"
    },
    {
      "constant": false,
      "inputs": [
        {
          "name": "budget",
          "type": "uint256[]"
        }
      ],
      "name": "submitBudget",
      "outputs": [],
      "payable": false,
      "stateMutability": "nonpayable",
      "type": "function"
    },
    {
      "constant": true,
      "inputs": [],
      "name": "coalitionSizeFactorIncrease",
      "outputs": [
        {
          "name": "",
          "type": "uint256"
        }
      ],
      "payable": false,
      "stateMutability": "view",
      "type": "function"
    },
    {
      "constant": false,
      "inputs": [
        {
          "name": "suggestion",
          "type": "uint256"
        }
      ],
      "name": "changeRegistrationCostSuggestion",
      "outputs": [],
      "payable": false,
      "stateMutability": "nonpayable",
      "type": "function"
    },
    {
      "constant": true,
      "inputs": [],
      "name": "termLength",
      "outputs": [
        {
          "name": "",
          "type": "uint256"
        }
      ],
      "payable": false,
      "stateMutability": "view",
      "type": "function"
    },
    {
      "constant": true,
      "inputs": [
        {
          "name": "number",
          "type": "uint256"
        }
      ],
      "name": "listFinalBudget",
      "outputs": [
        {
          "name": "",
          "type": "uint256"
        }
      ],
      "payable": false,
      "stateMutability": "view",
      "type": "function"
    },
    {
      "constant": false,
      "inputs": [],
      "name": "subsidize",
      "outputs": [],
      "payable": true,
      "stateMutability": "payable",
      "type": "function"
    },
    {
      "constant": false,
      "inputs": [
        {
          "name": "data",
          "type": "uint256[]"
        }
      ],
      "name": "sort",
      "outputs": [
        {
          "name": "",
          "type": "uint256[]"
        }
      ],
      "payable": false,
      "stateMutability": "nonpayable",
      "type": "function"
    },
    {
      "constant": true,
      "inputs": [],
      "name": "coalitionSizeFactor",
      "outputs": [
        {
          "name": "",
          "type": "uint256"
        }
      ],
      "payable": false,
      "stateMutability": "view",
      "type": "function"
    },
    {
      "constant": false,
      "inputs": [],
      "name": "changeRegistrationCost",
      "outputs": [],
      "payable": false,
      "stateMutability": "nonpayable",
      "type": "function"
    },
    {
      "constant": true,
      "inputs": [
        {
          "name": "",
          "type": "uint256"
        }
      ],
      "name": "finalBudget",
      "outputs": [
        {
          "name": "",
          "type": "uint256"
        }
      ],
      "payable": false,
      "stateMutability": "view",
      "type": "function"
    },
    {
      "constant": true,
      "inputs": [],
      "name": "numberOfRepresentatives",
      "outputs": [
        {
          "name": "",
          "type": "uint256"
        }
      ],
      "payable": false,
      "stateMutability": "view",
      "type": "function"
    },
    {
      "constant": true,
      "inputs": [
        {
          "name": "number",
          "type": "uint256"
        }
      ],
      "name": "listSinks",
      "outputs": [
        {
          "name": "",
          "type": "string"
        },
        {
          "name": "",
          "type": "address"
        }
      ],
      "payable": false,
      "stateMutability": "view",
      "type": "function"
    },
    {
      "constant": false,
      "inputs": [],
      "name": "endVote",
      "outputs": [],
      "payable": false,
      "stateMutability": "nonpayable",
      "type": "function"
    },
    {
      "constant": true,
      "inputs": [],
      "name": "sayhi",
      "outputs": [],
      "payable": false,
      "stateMutability": "view",
      "type": "function"
    },
    {
      "constant": true,
      "inputs": [],
      "name": "checkRegistrationSuggestions",
      "outputs": [
        {
          "name": "",
          "type": "uint256"
        }
      ],
      "payable": false,
      "stateMutability": "view",
      "type": "function"
    },
    {
      "constant": true,
      "inputs": [],
      "name": "getSinksLength",
      "outputs": [
        {
          "name": "",
          "type": "uint256"
        }
      ],
      "payable": false,
      "stateMutability": "view",
      "type": "function"
    },
    {
      "constant": true,
      "inputs": [],
      "name": "quota",
      "outputs": [
        {
          "name": "",
          "type": "uint256"
        }
      ],
      "payable": false,
      "stateMutability": "view",
      "type": "function"
    },
    {
      "constant": true,
      "inputs": [],
      "name": "voteStarted",
      "outputs": [
        {
          "name": "",
          "type": "bool"
        }
      ],
      "payable": false,
      "stateMutability": "view",
      "type": "function"
    },
    {
      "constant": true,
      "inputs": [],
      "name": "getRepresentivesLength",
      "outputs": [
        {
          "name": "",
          "type": "uint256"
        }
      ],
      "payable": false,
      "stateMutability": "view",
      "type": "function"
    },
    {
      "constant": true,
      "inputs": [
        {
          "name": "budget1",
          "type": "uint256[]"
        },
        {
          "name": "budget2",
          "type": "uint256[]"
        },
        {
          "name": "nego",
          "type": "uint256[]"
        },
        {
          "name": "coalitionSize",
          "type": "uint256"
        }
      ],
      "name": "negoToBudget",
      "outputs": [
        {
          "name": "",
          "type": "uint256[]"
        }
      ],
      "payable": false,
      "stateMutability": "view",
      "type": "function"
    },
    {
      "constant": false,
      "inputs": [],
      "name": "apply",
      "outputs": [],
      "payable": false,
      "stateMutability": "nonpayable",
      "type": "function"
    },
    {
      "constant": true,
      "inputs": [],
      "name": "registrationCost",
      "outputs": [
        {
          "name": "",
          "type": "uint256"
        }
      ],
      "payable": false,
      "stateMutability": "view",
      "type": "function"
    },
    {
      "constant": true,
      "inputs": [],
      "name": "getContractValue",
      "outputs": [
        {
          "name": "",
          "type": "uint256"
        }
      ],
      "payable": false,
      "stateMutability": "view",
      "type": "function"
    },
    {
      "constant": true,
      "inputs": [
        {
          "name": "text",
          "type": "string"
        }
      ],
      "name": "chat",
      "outputs": [],
      "payable": false,
      "stateMutability": "view",
      "type": "function"
    },
    {
      "constant": true,
      "inputs": [
        {
          "name": "number",
          "type": "uint256"
        }
      ],
      "name": "listRepresentives",
      "outputs": [
        {
          "name": "",
          "type": "string"
        },
        {
          "name": "",
          "type": "address"
        },
        {
          "name": "",
          "type": "uint256"
        },
        {
          "name": "",
          "type": "uint256[]"
        }
      ],
      "payable": false,
      "stateMutability": "view",
      "type": "function"
    },
    {
      "constant": true,
      "inputs": [],
      "name": "numberOfTurns",
      "outputs": [
        {
          "name": "",
          "type": "uint256"
        }
      ],
      "payable": false,
      "stateMutability": "view",
      "type": "function"
    },
    {
      "constant": true,
      "inputs": [
        {
          "name": "a_bar",
          "type": "uint256"
        },
        {
          "name": "b_bar",
          "type": "uint256"
        },
        {
          "name": "a_floor",
          "type": "uint256"
        },
        {
          "name": "b_floor",
          "type": "uint256"
        }
      ],
      "name": "negotiate",
      "outputs": [
        {
          "name": "",
          "type": "uint256[]"
        }
      ],
      "payable": false,
      "stateMutability": "view",
      "type": "function"
    },
    {
      "constant": true,
      "inputs": [],
      "name": "timeVoteEnded",
      "outputs": [
        {
          "name": "",
          "type": "uint256"
        }
      ],
      "payable": false,
      "stateMutability": "view",
      "type": "function"
    },
    {
      "constant": false,
      "inputs": [
        {
          "name": "myVote",
          "type": "address[]"
        }
      ],
      "name": "vote",
      "outputs": [],
      "payable": false,
      "stateMutability": "nonpayable",
      "type": "function"
    },
    {
      "constant": false,
      "inputs": [
        {
          "name": "name",
          "type": "string"
        }
      ],
      "name": "register",
      "outputs": [],
      "payable": true,
      "stateMutability": "payable",
      "type": "function"
    },
    {
      "inputs": [
        {
          "name": "cost",
          "type": "uint256"
        },
        {
          "name": "term",
          "type": "uint256"
        },
        {
          "name": "reps",
          "type": "uint256"
        },
        {
          "name": "option",
          "type": "uint256"
        },
        {
          "name": "sinks",
          "type": "uint256"
        },
        {
          "name": "q",
          "type": "uint256"
        },
        {
          "name": "gas",
          "type": "uint256"
        },
        {
          "name": "turns",
          "type": "uint256"
        },
        {
          "name": "sizeFactor",
          "type": "uint256"
        },
        {
          "name": "sizeFactorIncrease",
          "type": "uint256"
        }
      ],
      "payable": false,
      "stateMutability": "nonpayable",
      "type": "constructor"
    },
    {
      "anonymous": false,
      "inputs": [
        {
          "indexed": false,
          "name": "message",
          "type": "string"
        },
        {
          "indexed": false,
          "name": "name",
          "type": "string"
        }
      ],
      "name": "message",
      "type": "event"
    }
  ],
  "bytecode": "0x60606040526000600860006101000a81548160ff02191690831515021790555060006009556000600a556000600b55341561003957600080fd5b60405161014080620047ee8339810160405280805190602001909190805190602001909190805190602001909190805190602001909190805190602001909190805190602001909190805190602001909190805190602001909190805190602001909190805190602001909190505089898989838060018190555050826003819055508160048190555080600c819055505050505085600d8190555084600e8190555083600f819055508260108190555081601181905550806012819055506001888781151561010557fe5b0401601581905550505050505050505050506146c780620001276000396000f30060606040526004361061021a576000357c0100000000000000000000000000000000000000000000000000000000900463ffffffff1680630cf35f441461021f57806313dcd43e14610257578063161893d0146102d35780631859df65146102fc5780631afad36d146103255780631b0d3f401461034e5780631d5e3fe51461036357806322ca968b1461038c57806326f9098b146103c45780632cd15220146103d957806347792fc5146104025780634c0a6af0146104175780635846fc461461042c5780636687d4fe146104865780636904d241146104bd578063717a55d2146105175780637392445a1461054057806379b18cd1146105635780638b2e48831461058c57806390f10ed1146105c35780639ec8b026146105cd578063a5982ddb1461063b578063a90cc0d914610664578063ad012af014610679578063ae0689ac146106b0578063af0ab715146106d9578063b922394614610711578063bc9c707d14610726578063c0fc41e61461073b578063c6214bf114610764578063cebe09c91461078d578063d0dc0180146107b6578063d5268b22146107df578063d87311aa14610808578063db595b3b146108ff578063dc4a7f7f14610914578063dc82697c1461093d578063de8caa1e14610966578063dee6472f146109c3578063e0abab9e146109fd578063e32ba07814610a26578063ed00af9814610a78578063ed08132914610aa1578063f2c298be14610afb575b600080fd5b341561022a57600080fd5b6102406004808035906020019091905050610b4d565b60405161024e92919061449b565b60405180910390f35b341561026257600080fd5b6102d1600480803573ffffffffffffffffffffffffffffffffffffffff1690602001909190803590602001908201803590602001908080601f01602080910402602001604051908101604052809392919081815260200183838082843782019150505050505091905050610c5c565b005b34156102de57600080fd5b6102e6610e5b565b6040516102f39190614588565b60405180910390f35b341561030757600080fd5b61030f610e61565b60405161031c9190614588565b60405180910390f35b341561033057600080fd5b610338610e6e565b6040516103459190614588565b60405180910390f35b341561035957600080fd5b610361610e7a565b005b341561036e57600080fd5b610376610f72565b6040516103839190614588565b60405180910390f35b341561039757600080fd5b6103ad6004808035906020019091905050610f78565b6040516103bb92919061449b565b60405180910390f35b34156103cf57600080fd5b6103d76110bb565b005b34156103e457600080fd5b6103ec6110f5565b6040516103f99190614588565b60405180910390f35b341561040d57600080fd5b6104156110fb565b005b341561042257600080fd5b61042a6116e7565b005b341561043757600080fd5b610484600480803590602001908201803590602001908080602002602001604051908101604052809392919081815260200183836020028082843782019150505050505091905050611739565b005b341561049157600080fd5b6104a76004808035906020019091905050611840565b6040516104b4919061443c565b60405180910390f35b34156104c857600080fd5b6105156004808035906020019082018035906020019080806020026020016040519081016040528093929190818152602001838360200280828437820191505050505050919050506118ee565b005b341561052257600080fd5b61052a6119e7565b6040516105379190614588565b60405180910390f35b341561054b57600080fd5b61056160048080359060200190919050506119ed565b005b341561056e57600080fd5b610576611a9e565b6040516105839190614588565b60405180910390f35b341561059757600080fd5b6105ad6004808035906020019091905050611aa4565b6040516105ba9190614588565b60405180910390f35b6105cb611ac8565b005b34156105d857600080fd5b610625600480803590602001908201803590602001908080602002602001604051908101604052809392919081815260200183836020028082843782019150505050505091905050611aca565b604051610632919061445e565b60405180910390f35b341561064657600080fd5b61064e611e09565b60405161065b9190614588565b60405180910390f35b341561066f57600080fd5b610677611e0f565b005b341561068457600080fd5b61069a6004808035906020019091905050611e31565b6040516106a79190614588565b60405180910390f35b34156106bb57600080fd5b6106c3611e55565b6040516106d09190614588565b60405180910390f35b34156106e457600080fd5b6106fa6004808035906020019091905050611e5b565b60405161070892919061449b565b60405180910390f35b341561071c57600080fd5b610724611f6b565b005b341561073157600080fd5b610739612002565b005b341561074657600080fd5b61074e612039565b60405161075b9190614588565b60405180910390f35b341561076f57600080fd5b610777612106565b6040516107849190614588565b60405180910390f35b341561079857600080fd5b6107a0612113565b6040516107ad9190614588565b60405180910390f35b34156107c157600080fd5b6107c9612119565b6040516107d69190614480565b60405180910390f35b34156107ea57600080fd5b6107f261212c565b6040516107ff9190614588565b60405180910390f35b341561081357600080fd5b6108e96004808035906020019082018035906020019080806020026020016040519081016040528093929190818152602001838360200280828437820191505050505050919080359060200190820180359060200190808060200260200160405190810160405280939291908181526020018383602002808284378201915050505050509190803590602001908201803590602001908080602002602001604051908101604052809392919081815260200183836020028082843782019150505050505091908035906020019091905050612139565b6040516108f6919061445e565b60405180910390f35b341561090a57600080fd5b6109126124a6565b005b341561091f57600080fd5b610927612580565b6040516109349190614588565b60405180910390f35b341561094857600080fd5b610950612586565b60405161095d9190614588565b60405180910390f35b341561097157600080fd5b6109c1600480803590602001908201803590602001908080601f016020809104026020016040519081016040528093929190818152602001838380828437820191505050505050919050506125a5565b005b34156109ce57600080fd5b6109e46004808035906020019091905050612696565b6040516109f494939291906144cb565b60405180910390f35b3415610a0857600080fd5b610a10612888565b604051610a1d9190614588565b60405180910390f35b3415610a3157600080fd5b610a62600480803590602001909190803590602001909190803590602001909190803590602001909190505061288e565b604051610a6f919061445e565b60405180910390f35b3415610a8357600080fd5b610a8b612b19565b604051610a989190614588565b60405180910390f35b3415610aac57600080fd5b610af9600480803590602001908201803590602001908080602002602001604051908101604052809392919081815260200183836020028082843782019150505050505091905050612b1f565b005b610b4b600480803590602001908201803590602001908080601f01602080910402602001604051908101604052809392919081815260200183838082843782019150505050505091905050612c87565b005b610b55613b08565b60008083815481101515610b6557fe5b9060005260206000209060030201600101600084815481101515610b8557fe5b906000526020600020906003020160000160009054906101000a900473ffffffffffffffffffffffffffffffffffffffff16818054600181600116156101000203166002900480601f016020809104026020016040519081016040528092919081815260200182805460018160011615610100020316600290048015610c4c5780601f10610c2157610100808354040283529160200191610c4c565b820191906000526020600020905b815481529060010190602001808311610c2f57829003601f168201915b5050505050915091509150915091565b6000610c66613b1c565b600d546013805490501015610e5557600091505b600454821015610e54573373ffffffffffffffffffffffffffffffffffffffff166000600584815481101515610cac57fe5b906000526020600020906004020160000154815481101515610cca57fe5b906000526020600020906003020160000160009054906101000a900473ffffffffffffffffffffffffffffffffffffffff1673ffffffffffffffffffffffffffffffffffffffff16148015610d405750601554600583815481101515610d2c57fe5b906000526020600020906004020160030154105b15610e475782816020018190525083816000019073ffffffffffffffffffffffffffffffffffffffff16908173ffffffffffffffffffffffffffffffffffffffff168152505060138054806001018281610d9a9190613b52565b9160005260206000209060020201600083909190915060008201518160000160006101000a81548173ffffffffffffffffffffffffffffffffffffffff021916908373ffffffffffffffffffffffffffffffffffffffff1602179055506020820151816001019080519060200190610e13929190613b84565b505050506001600583815481101515610e2857fe5b9060005260206000209060040201600301600082825401925050819055505b8180600101925050610c7a565b5b50505050565b60095481565b6000600680549050905090565b60008080549050905090565b6000803073ffffffffffffffffffffffffffffffffffffffff16319150600090505b601380549050811015610f5e57601381815481101515610eb857fe5b906000526020600020906002020160000160009054906101000a900473ffffffffffffffffffffffffffffffffffffffff1673ffffffffffffffffffffffffffffffffffffffff166108fc6064601484815481101515610f1457fe5b9060005260206000209001548502811515610f2b57fe5b049081150290604051600060405180830381858888f193505050501515610f5157600080fd5b8080600101915050610e9c565b6000601381610f6d9190613c04565b505050565b600f5481565b610f80613b08565b600080600684815481101515610f9257fe5b906000526020600020900154815481101515610faa57fe5b90600052602060002090600302016001016000600685815481101515610fcc57fe5b906000526020600020900154815481101515610fe457fe5b906000526020600020906003020160000160009054906101000a900473ffffffffffffffffffffffffffffffffffffffff16818054600181600116156101000203166002900480601f0160208091040260200160405190810160405280929190818152602001828054600181600116156101000203166002900480156110ab5780601f10611080576101008083540402835291602001916110ab565b820191906000526020600020905b81548152906001019060200180831161108e57829003601f168201915b5050505050915091509150915091565b6000600580549050141580156110d55750426000600a5401105b156110f3576110e26110fb565b60006005816110f19190613c36565b505b565b600d5481565b600080611106613c68565b61110e613c7c565b611116613c7c565b61111e613c90565b600080611129613c7c565b600080611134613c7c565b600e549b506004549a508a60405180591061114c5750595b90808252806020026020018201604052801561118257816020015b61116f613ca4565b8152602001906001900390816111675790505b5099508a6040518059106111935750595b908082528060200260200182016040525098508a6040518059106111b45750595b908082528060200260200182016040525097508a6040518059106111d55750595b90808252806020026020018201604052801561120b57816020015b6111f8613cb8565b8152602001906001900390816111f05790505b509650600095505b8a8610156113545760058681548110151561122a57fe5b906000526020600020906004020160806040519081016040529081600082015481526020016001820180548060200260200160405190810160405280929190818152602001828054801561129d57602002820191906000526020600020905b815481526020019060010190808311611289575b505050505081526020016002820154815260200160038201548152505087878151811015156112c857fe5b9060200190602002018190525086868151811015156112e357fe5b90602001906020020151602001518a878151811015156112ff57fe5b906020019060200201819052506001898781518110151561131c57fe5b906020019060200201818152505085888781518110151561133957fe5b90602001906020020181815250508580600101965050611213565b600094505b8a611365898d8a612f31565b14156116a157600260405180591061137a5750595b908082528060200260200182016040525093508a92506114138a89878151811015156113a257fe5b906020019060200201518151811015156113b857fe5b9060200190602002015188878151811015156113d057fe5b90602001906020020151602001518b8b898151811015156113ed57fe5b9060200190602002015181518110151561140357fe5b906020019060200201518f61301e565b9150600095505b8a8610156115265785888681518110151561143157fe5b906020019060200201511415801561146157506000898781518110151561145457fe5b9060200190602002015114155b15611519576114d78a8781518110151561147757fe5b90602001906020020151888781518110151561148f57fe5b9060200190602002015160200151848c8a8151811015156114ac57fe5b906020019060200201518b8a8151811015156114c457fe5b9060200190602002015160400151613036565b90508360008151811015156114e857fe5b9060200190602002015181600081518110151561150157fe5b906020019060200201511115611518578093508592505b5b858060010196505061141a565b8a8314151561166d576115a1878681518110151561154057fe5b90602001906020020151602001518b8581518110151561155c57fe5b90602001906020020151868a8981518110151561157557fe5b90602001906020020151604001518d8881518110151561159157fe5b9060200190602002015101612139565b8a848151811015156115af57fe5b9060200190602002018190525086858151811015156115ca57fe5b90602001906020020151604001518989878151811015156115e757fe5b906020019060200201518151811015156115fd57fe5b9060200190602002018181510391508181525050868581518110151561161f57fe5b9060200190602002015160400151898481518110151561163b57fe5b906020019060200201818151019150818152505082888681518110151561165e57fe5b90602001906020020181815250505b60018b03851415611681576000945061168a565b84806001019550505b601254601160008282540192505081905550611359565b896116ad898d8a612f31565b8151811015156116b957fe5b90602001906020020151601490805190602001906116d8929190613ce7565b50505050505050505050505050565b42600354600a540110801561170f575060001515600860009054906101000a900460ff161515145b15611737576001600860006101000a81548160ff021916908315150217905550426009819055505b565b600080611744613d34565b600c549250600091505b60045482101561183a576006848381518110151561176857fe5b9060200190602002015181548110151561177e57fe5b90600052602060002090015481600001818152505060008314156117ac5760018160400181815250506117c5565b60018314156117c45781600454038160400181815250505b5b600580548060010182816117d99190613d63565b91600052602060002090600402016000839091909150600082015181600001556020820151816001019080519060200190611815929190613d95565b506040820151816002015560608201518160030155505050818060010192505061174e565b50505050565b611848613de2565b60078281548110151561185757fe5b90600052602060002090018054806020026020016040519081016040528092919081815260200182805480156118e257602002820191906000526020600020905b8160009054906101000a900473ffffffffffffffffffffffffffffffffffffffff1673ffffffffffffffffffffffffffffffffffffffff1681526020019060010190808311611898575b50505050509050919050565b6000600d5482511115156119e357600090505b6004548110156119e2573373ffffffffffffffffffffffffffffffffffffffff16600060058381548110151561193357fe5b90600052602060002090600402016000015481548110151561195157fe5b906000526020600020906003020160000160009054906101000a900473ffffffffffffffffffffffffffffffffffffffff1673ffffffffffffffffffffffffffffffffffffffff1614156119d557816005828154811015156119af57fe5b906000526020600020906004020160010190805190602001906119d3929190613ce7565b505b8080600101915050611901565b5b5050565b60125481565b60008090505b600080549050811015611a9a573373ffffffffffffffffffffffffffffffffffffffff16600082815481101515611a2657fe5b906000526020600020906003020160000160009054906101000a900473ffffffffffffffffffffffffffffffffffffffff1673ffffffffffffffffffffffffffffffffffffffff161415611a8d578160026000838152602001908152602001600020819055505b80806001019150506119f3565b5050565b60035481565b6000601482815481101515611ab557fe5b9060005260206000209001549050919050565b565b611ad2613c7c565b6000611adc613c7c565b6000611ae6613c7c565b6000806000806000808b51995089604051805910611b015750595b90808252806020026020018201604052509850600097505b89881015611b62578b88815181101515611b2f57fe5b906020019060200201518989815181101515611b4757fe5b90602001906020020181815250508780600101985050611b19565b60028a01604051805910611b735750595b908082528060200260200182016040525096506001955060008787815181101515611b9a57fe5b906020019060200201818152505060018601955060018a038787815181101515611bc057fe5b90602001906020020181815250505b6000861115611df7578686815181101515611be657fe5b9060200190602002015194506001860395508686815181101515611c0657fe5b9060200190602002015193506001860395508397508885815181101515611c2957fe5b9060200190602002015192508391505b84821015611cdd57828983815181101515611c5057fe5b90602001906020020151101515611cd0578882815181101515611c6f57fe5b906020019060200201518989815181101515611c8757fe5b906020019060200201518a8a815181101515611c9f57fe5b9060200190602002018b85815181101515611cb657fe5b906020019060200201828152508281525050506001880197505b8180600101925050611c39565b8885815181101515611ceb57fe5b906020019060200201518989815181101515611d0357fe5b906020019060200201518a8a815181101515611d1b57fe5b9060200190602002018b88815181101515611d3257fe5b9060200190602002018281525082815250505087905060018401811115611d9d57600186019550838787815181101515611d6857fe5b9060200190602002018181525050600186019550600181038787815181101515611d8e57fe5b90602001906020020181815250505b84600182011015611df257600186019550600181018787815181101515611dc057fe5b9060200190602002018181525050600186019550848787815181101515611de357fe5b90602001906020020181815250505b611bcf565b889a5050505050505050505050919050565b60115481565b6000611e19612039565b905060015481141515611e2e57806001819055505b50565b601481815481101515611e4057fe5b90600052602060002090016000915090505481565b60045481565b611e63613b08565b6000601383815481101515611e7457fe5b9060005260206000209060020201600101601384815481101515611e9457fe5b906000526020600020906002020160000160009054906101000a900473ffffffffffffffffffffffffffffffffffffffff16818054600181600116156101000203166002900480601f016020809104026020016040519081016040528092919081815260200182805460018160011615610100020316600290048015611f5b5780601f10611f3057610100808354040283529160200191611f5b565b820191906000526020600020905b815481529060010190602001808311611f3e57829003601f168201915b5050505050915091509150915091565b42600b546009540111158015611f94575060011515600860009054906101000a900460ff161515145b15612000576000600860006101000a81548160ff02191690831515021790555042600a819055506004546006805490501015611fd7576006805490506004819055505b611fdf6130c0565b6000600681611fee9190613df6565b506000600781611ffe9190613e22565b505b565b7f36bf6cf02ecc60712e107054775debd1f2f255ab34df5fc4928044264d16fd1f60405161202f90614555565b60405180910390a1565b600080600080600080600160008054905011156120f8576001600360026000805490500281151561206657fe5b04019450600093505b6000805490508410156120f7576000925060026000858152602001908152602001600020549150600090505b6000805490508110156120d95760026000828152602001908152602001600020548214156120cc5782806001019350505b808060010191505061209b565b84831015156120ea578195506120fe565b838060010194505061206f565b5b60015495505b505050505090565b6000601380549050905090565b600e5481565b600860009054906101000a900460ff1681565b6000600580549050905090565b612141613c7c565b612149613c7c565b60008060008060008060008060008e516040518059106121665750595b908082528060200260200182016040525099506121838f8f6134d4565b9850600e549750886011546064038d60018b01036011548115156121a357fe5b04018e60008151811015156121b457fe5b906020019060200201518115156121c757fe5b04039650886011546064038d60018b01036011548115156121e457fe5b04018e60018151811015156121f557fe5b9060200190602002015181151561220857fe5b040395506000945060009350600092505b8e518310156122a3578d8381518110151561223057fe5b906020019060200201518f8481518110151561224857fe5b906020019060200201511115612279578e8381518110151561226657fe5b9060200190602002015185019450612296565b8d8381518110151561228757fe5b90602001906020020151840193505b8280600101935050612219565b60009150600092505b8e51831015612436578d838151811015156122c357fe5b906020019060200201518f848151811015156122db57fe5b90602001906020020151111561238c57848f848151811015156122fa57fe5b90602001906020020151880281151561230f57fe5b048e8481518110151561231e57fe5b906020019060200201510182019150848f8481518110151561233c57fe5b90602001906020020151880281151561235157fe5b048e8481518110151561236057fe5b90602001906020020151018a8481518110151561237957fe5b9060200190602002018181525050612429565b838e8481518110151561239b57fe5b9060200190602002015187028115156123b057fe5b048f848151811015156123bf57fe5b906020019060200201510182019150838e848151811015156123dd57fe5b9060200190602002015187028115156123f257fe5b048f8481518110151561240157fe5b90602001906020020151018a8481518110151561241a57fe5b90602001906020020181815250505b82806001019350506122ac565b600090505b60648210156124915760018a8281518110151561245457fe5b906020019060200201818151019150818152505060018201915060018f5103811415612483576000905061248c565b80806001019150505b61243b565b899a5050505050505050505050949350505050565b60006124b9336124b4613576565b61376d565b151561257d57600090505b60008054905081101561257c573373ffffffffffffffffffffffffffffffffffffffff166000828154811015156124f757fe5b906000526020600020906003020160000160009054906101000a900473ffffffffffffffffffffffffffffffffffffffff1673ffffffffffffffffffffffffffffffffffffffff16141561256f57600680548060010182816125599190613e4e565b9160005260206000209001600083909190915055505b80806001019150506124c4565b5b50565b60015481565b60003073ffffffffffffffffffffffffffffffffffffffff1631905090565b60008090505b600080549050811015612692573373ffffffffffffffffffffffffffffffffffffffff166000828154811015156125de57fe5b906000526020600020906003020160000160009054906101000a900473ffffffffffffffffffffffffffffffffffffffff1673ffffffffffffffffffffffffffffffffffffffff161415612685577f36bf6cf02ecc60712e107054775debd1f2f255ab34df5fc4928044264d16fd1f8260008381548110151561265d57fe5b906000526020600020906003020160010160405161267c92919061451e565b60405180910390a15b80806001019150506125ab565b5050565b61269e613b08565b6000806126a9613c7c565b60006005868154811015156126ba57fe5b9060005260206000209060040201600001548154811015156126d857fe5b906000526020600020906003020160010160006005878154811015156126fa57fe5b90600052602060002090600402016000015481548110151561271857fe5b906000526020600020906003020160000160009054906101000a900473ffffffffffffffffffffffffffffffffffffffff1660058781548110151561275957fe5b90600052602060002090600402016002015460058881548110151561277a57fe5b9060005260206000209060040201600101838054600181600116156101000203166002900480601f0160208091040260200160405190810160405280929190818152602001828054600181600116156101000203166002900480156128205780601f106127f557610100808354040283529160200191612820565b820191906000526020600020905b81548152906001019060200180831161280357829003601f168201915b505050505093508080548060200260200160405190810160405280929190818152602001828054801561287257602002820191906000526020600020905b81548152602001906001019080831161285e575b5050505050905093509350935093509193509193565b60105481565b612896613c7c565b6000806128a1613c7c565b600080600f5494506001856002898b8d8f010303038115156128bf57fe5b0401935060026040518059106128d25750595b908082528060200260200182016040525092506010549150818411156128f6578193505b600287898760018803028c8e01030303039050600060028581151561291757fe5b06141561299657600185600160028781151561292f57fe5b0403028260018a0101010183600181518110151561294957fe5b906020019060200201818152505082600181518110151561296657fe5b90602001906020020151898b010383600081518110151561298357fe5b9060200190602002018181525050612a0a565b8460016002600187018115156129a857fe5b0403028160018a0101018360008151811015156129c157fe5b90602001906020020181815250508260008151811015156129de57fe5b90602001906020020151898b01038360018151811015156129fb57fe5b90602001906020020181815250505b89836000815181101515612a1a57fe5b906020019060200201511115612a8b5789836000815181101515612a3a57fe5b9060200190602002015103836001815181101515612a5457fe5b906020019060200201818151019150818152505089836000815181101515612a7857fe5b9060200190602002018181525050612b09565b89836001815181101515612a9b57fe5b906020019060200201511115612b085789836001815181101515612abb57fe5b9060200190602002015103836000815181101515612ad557fe5b906020019060200201818151019150818152505089836001815181101515612af957fe5b90602001906020020181815250505b5b8295505050505050949350505050565b600a5481565b60008090505b600080549050811015612c83573373ffffffffffffffffffffffffffffffffffffffff16600082815481101515612b5857fe5b906000526020600020906003020160000160009054906101000a900473ffffffffffffffffffffffffffffffffffffffff1673ffffffffffffffffffffffffffffffffffffffff161415612c765760011515600860009054906101000a900460ff161515148015612bfa575060001515600082815481101515612bd757fe5b906000526020600020906003020160020160009054906101000a900460ff161515145b15612c75576001600082815481101515612c1057fe5b906000526020600020906003020160020160006101000a81548160ff02191690831515021790555060078054806001018281612c4c9190613e7a565b916000526020600020900160008490919091509080519060200190612c72929190613ea6565b50505b5b8080600101915050612b25565b5050565b612c8f613f30565b6001543410158015612e135750612e11336000805480602002602001604051908101604052809291908181526020016000905b82821015612e085783829060005260206000209060030201606060405190810160405290816000820160009054906101000a900473ffffffffffffffffffffffffffffffffffffffff1673ffffffffffffffffffffffffffffffffffffffff1673ffffffffffffffffffffffffffffffffffffffff168152602001600182018054600181600116156101000203166002900480601f016020809104026020016040519081016040528092919081815260200182805460018160011615610100020316600290048015612dd55780601f10612daa57610100808354040283529160200191612dd5565b820191906000526020600020905b815481529060010190602001808311612db857829003601f168201915b505050505081526020016002820160009054906101000a900460ff16151515158152505081526020019060010190612cc2565b5050505061376d565b155b15612f0b5733816000019073ffffffffffffffffffffffffffffffffffffffff16908173ffffffffffffffffffffffffffffffffffffffff168152505081816020018190525060008054806001018281612e6d9190613f70565b9160005260206000209060030201600083909190915060008201518160000160006101000a81548173ffffffffffffffffffffffffffffffffffffffff021916908373ffffffffffffffffffffffffffffffffffffffff1602179055506020820151816001019080519060200190612ee6929190613b84565b5060408201518160020160006101000a81548160ff0219169083151502179055505050505b600154600260006001600080549050038152602001908152602001600020819055505050565b6000612f3b613c7c565b600084604051805910612f4b5750595b90808252806020026020018201604052509150600090505b84811015612fcd578381815181101515612f7957fe5b9060200190602002015160400151828783815181101515612f9657fe5b90602001906020020151815181101515612fac57fe5b90602001906020020181815101915081815250508080600101915050612f63565b600090505b8481101561301157600e548282815181101515612feb57fe5b9060200190602002015110151561300457809250613015565b8080600101915050612fd2565b8492505b50509392505050565b600061302c858585856137ef565b9050949350505050565b61303e613c7c565b600080600080600e549350613054878786613827565b9250613063898b89898861383e565b915061306f8785613859565b905081830181890110156130905761308983838a8461288e565b94506130b3565b600260405180591061309f5750595b908082528060200260200182016040525094505b5050505095945050505050565b6000806130cb613c7c565b6130d3613c68565b60006130dd613c7c565b6130e5613c7c565b6130ed613c7c565b6006805490506040518059106131005750595b9080825280602002602001820160405250955085516040518059106131225750595b90808252806020026020018201604052801561315857816020015b613145613ca4565b81526020019060019003908161313d5790505b509450600097505b85518810156131b15785516040518059106131785750595b9080825280602002602001820160405250858981518110151561319757fe5b906020019060200201819052508780600101985050613160565b600097505b60018651038810156132ed578760010196505b85518710156132e0576131dc888861386d565b9350600084141561325a578685898151811015156131f657fe5b90602001906020020151878a81518110151561320e57fe5b9060200190602002015181518110151561322457fe5b9060200190602002018181525050858881518110151561324057fe5b9060200190602002018051809190600101815250506132d3565b60018414156132d25787858881518110151561327257fe5b90602001906020020151878981518110151561328a57fe5b906020019060200201518151811015156132a057fe5b906020019060200201818152505085878151811015156132bc57fe5b9060200190602002018051809190600101815250505b5b86806001019750506131c9565b87806001019850506131b6565b85516040518059106132fc5750595b90808252806020026020018201604052509250600097505b85518810156133e5576000868981518110151561332d57fe5b906020019060200201511415156133d857600096505b858881518110151561335157fe5b906020019060200201518710156133d75785858981518110151561337157fe5b906020019060200201518881518110151561338857fe5b9060200190602002015181518110151561339e57fe5b9060200190602002015183898151811015156133b657fe5b90602001906020020181815101915081815250508680600101975050613343565b5b8780600101985050613314565b85516040518059106133f45750595b9080825280602002602001820160405250915061341083611aca565b9050600097505b85518810156134c157600096505b85518710156134b457828781518110151561343c57fe5b90602001906020020151818981518110151561345457fe5b9060200190602002015114156134a75786828981518110151561347357fe5b90602001906020020181815250508551865102838881518110151561349457fe5b90602001906020020181815250506134b4565b8680600101975050613425565b8780600101985050613417565b6134ca82611739565b5050505050505050565b6000806000809150600090505b845181101561356b5783818151811015156134f857fe5b90602001906020020151858281518110151561351057fe5b90602001906020020151111561354157838181518110151561352e57fe5b906020019060200201518201915061355e565b848181518110151561354f57fe5b90602001906020020151820191505b80806001019150506134e1565b819250505092915050565b61357e613fa2565b6000613588613fa2565b60006006805490509250826040518059106135a05750595b9080825280602002602001820160405280156135d657816020015b6135c3613fb6565b8152602001906001900390816135bb5790505b509150600090505b828110156137645760006006828154811015156135f757fe5b90600052602060002090015481548110151561360f57fe5b9060005260206000209060030201606060405190810160405290816000820160009054906101000a900473ffffffffffffffffffffffffffffffffffffffff1673ffffffffffffffffffffffffffffffffffffffff1673ffffffffffffffffffffffffffffffffffffffff168152602001600182018054600181600116156101000203166002900480601f0160208091040260200160405190810160405280929190818152602001828054600181600116156101000203166002900480156137185780601f106136ed57610100808354040283529160200191613718565b820191906000526020600020905b8154815290600101906020018083116136fb57829003601f168201915b505050505081526020016002820160009054906101000a900460ff161515151581525050828281518110151561374a57fe5b9060200190602002018190525080806001019150506135de565b81935050505090565b600080600090505b82518110156137e3578373ffffffffffffffffffffffffffffffffffffffff1683828151811015156137a357fe5b906020019060200201516000015173ffffffffffffffffffffffffffffffffffffffff1614156137d657600191506137e8565b8080600101915050613775565b600091505b5092915050565b6000806137fc86866134d4565b90508060115460640302846001850103826011540281151561381a57fe5b0401915050949350505050565b600061383583850183613ade565b90509392505050565b600061384e8686858701856137ef565b905095945050505050565b60006138658383613ade565b905092915050565b60008060008060008060008060008060009850600097506007805490509650600060068d81548110151561389d57fe5b9060005260206000209001548154811015156138b557fe5b906000526020600020906003020160000160009054906101000a900473ffffffffffffffffffffffffffffffffffffffff169550600060068c8154811015156138fa57fe5b90600052602060002090015481548110151561391257fe5b906000526020600020906003020160000160009054906101000a900473ffffffffffffffffffffffffffffffffffffffff169450600093505b86841015613aa85760028781151561395f57fe5b04891115801561397b575060028781151561397657fe5b048811155b15613a965760078481548110151561398f57fe5b9060005260206000209001805490509250600091505b82821015613a91576007848154811015156139bc57fe5b9060005260206000209001828154811015156139d457fe5b906000526020600020900160009054906101000a900473ffffffffffffffffffffffffffffffffffffffff1690508573ffffffffffffffffffffffffffffffffffffffff168173ffffffffffffffffffffffffffffffffffffffff161415613a43578880600101995050613a91565b8473ffffffffffffffffffffffffffffffffffffffff168173ffffffffffffffffffffffffffffffffffffffff161415613a84578780600101985050613a91565b81806001019250506139a5565b613a9b565b613aa8565b838060010194505061394b565b87891115613ab95760009950613acf565b88881115613aca5760019950613acf565b600299505b50505050505050505092915050565b6000606460115460640302836001840103606460115402811515613afe57fe5b0401905092915050565b602060405190810160405280600081525090565b6040805190810160405280600073ffffffffffffffffffffffffffffffffffffffff168152602001613b4c613ff6565b81525090565b815481835581811511613b7f57600202816002028360005260206000209182019101613b7e919061400a565b5b505050565b828054600181600116156101000203166002900490600052602060002090601f016020900481019282601f10613bc557805160ff1916838001178555613bf3565b82800160010185558215613bf3579182015b82811115613bf2578251825591602001919060010190613bd7565b5b509050613c009190614060565b5090565b815481835581811511613c3157600202816002028360005260206000209182019101613c30919061400a565b5b505050565b815481835581811511613c6357600402816004028360005260206000209182019101613c629190614085565b5b505050565b602060405190810160405280600081525090565b602060405190810160405280600081525090565b602060405190810160405280600081525090565b602060405190810160405280600081525090565b60806040519081016040528060008152602001613cd3613ca4565b815260200160008152602001600081525090565b828054828255906000526020600020908101928215613d23579160200282015b82811115613d22578251825591602001919060010190613d07565b5b509050613d309190614060565b5090565b60806040519081016040528060008152602001613d4f613ca4565b815260200160008152602001600081525090565b815481835581811511613d9057600402816004028360005260206000209182019101613d8f9190614085565b5b505050565b828054828255906000526020600020908101928215613dd1579160200282015b82811115613dd0578251825591602001919060010190613db5565b5b509050613dde9190614060565b5090565b602060405190810160405280600081525090565b815481835581811511613e1d57818360005260206000209182019101613e1c9190614060565b5b505050565b815481835581811511613e4957818360005260206000209182019101613e4891906140cc565b5b505050565b815481835581811511613e7557818360005260206000209182019101613e749190614060565b5b505050565b815481835581811511613ea157818360005260206000209182019101613ea091906140cc565b5b505050565b828054828255906000526020600020908101928215613f1f579160200282015b82811115613f1e5782518260006101000a81548173ffffffffffffffffffffffffffffffffffffffff021916908373ffffffffffffffffffffffffffffffffffffffff16021790555091602001919060010190613ec6565b5b509050613f2c91906140f8565b5090565b606060405190810160405280600073ffffffffffffffffffffffffffffffffffffffff168152602001613f61613ff6565b81526020016000151581525090565b815481835581811511613f9d57600302816003028360005260206000209182019101613f9c919061413b565b5b505050565b602060405190810160405280600081525090565b606060405190810160405280600073ffffffffffffffffffffffffffffffffffffffff168152602001613fe7613ff6565b81526020016000151581525090565b602060405190810160405280600081525090565b61405d91905b8082111561405957600080820160006101000a81549073ffffffffffffffffffffffffffffffffffffffff021916905560018201600061405091906141a5565b50600201614010565b5090565b90565b61408291905b8082111561407e576000816000905550600101614066565b5090565b90565b6140c991905b808211156140c5576000808201600090556001820160006140ac91906141ed565b600282016000905560038201600090555060040161408b565b5090565b90565b6140f591905b808211156140f157600081816140e8919061420e565b506001016140d2565b5090565b90565b61413891905b8082111561413457600081816101000a81549073ffffffffffffffffffffffffffffffffffffffff0219169055506001016140fe565b5090565b90565b6141a291905b8082111561419e57600080820160006101000a81549073ffffffffffffffffffffffffffffffffffffffff021916905560018201600061418191906141a5565b6002820160006101000a81549060ff021916905550600301614141565b5090565b90565b50805460018160011615610100020316600290046000825580601f106141cb57506141ea565b601f0160209004906000526020600020908101906141e99190614060565b5b50565b508054600082559060005260206000209081019061420b9190614060565b50565b508054600082559060005260206000209081019061422c9190614060565b50565b6142388161460a565b82525050565b6000614249826145cf565b80845260208401935061425b836145a3565b60005b8281101561428d5761427186835161422f565b61427a826145f0565b915060208601955060018101905061425e565b50849250505092915050565b60006142a4826145da565b8084526020840193506142b6836145b0565b60005b828110156142e8576142cc86835161442d565b6142d5826145fd565b91506020860195506001810190506142b9565b50849250505092915050565b6142fd8161462a565b82525050565b600061430e826145e5565b808452614322816020860160208601614640565b61432b8161467c565b602085010191505092915050565b6000815460018116600081146143565760018114614376576143b7565b607f600283041680865260ff1983166020870152604086019350506143b7565b6002820480865260208601955061438c856145bd565b60005b828110156143ae5781548189015260018201915060208101905061438f565b80880195505050505b505092915050565b6000600482527f6a616b65000000000000000000000000000000000000000000000000000000006020830152604082019050919050565b6000600282527f68690000000000000000000000000000000000000000000000000000000000006020830152604082019050919050565b61443681614636565b82525050565b60006020820190508181036000830152614456818461423e565b905092915050565b600060208201905081810360008301526144788184614299565b905092915050565b600060208201905061449560008301846142f4565b92915050565b600060408201905081810360008301526144b58185614303565b90506144c4602083018461422f565b9392505050565b600060808201905081810360008301526144e58187614303565b90506144f4602083018661422f565b614501604083018561442d565b81810360608301526145138184614299565b905095945050505050565b600060408201905081810360008301526145388185614303565b9050818103602083015261454c8184614339565b90509392505050565b6000604082019050818103600083015261456e816143f6565b90508181036020830152614581816143bf565b9050919050565b600060208201905061459d600083018461442d565b92915050565b6000602082019050919050565b6000602082019050919050565b60008160005260206000209050919050565b600081519050919050565b600081519050919050565b600081519050919050565b6000602082019050919050565b6000602082019050919050565b600073ffffffffffffffffffffffffffffffffffffffff82169050919050565b60008115159050919050565b6000819050919050565b60005b8381101561465e578082015181840152602081019050614643565b8381146000811461466e57614675565b6000858501525b5050505050565b6000601f19601f83011690509190505600a265627a7a72305820e94f5f698c487a2b04678166a752eee45672af0835f5ce49c8d8399b9c2910246c6578706572696d656e74616cf50037",
  "source": "pragma solidity ^0.4.18;\r\npragma experimental ABIEncoderV2;\r\nimport \"./MyLib.sol\";\r\nimport \"./VotingClub.sol\";\r\ncontract BudgetClub is VotingClub {\r\n  uint public numberOfSinks;\r\n  uint public quota;\r\n  uint public gasCost;\r\n  uint public numberOfTurns;\r\n  uint public coalitionSizeFactor;\r\n  uint public coalitionSizeFactorIncrease;\r\n  MyLib.Sink[] listOfSinks;\r\n  uint[] public finalBudget;\r\n  uint numOfSinksAllowedToSubmit;\r\n  function BudgetClub(uint cost, uint term, uint reps, uint option, uint sinks, uint q, uint gas, uint turns, uint sizeFactor, uint sizeFactorIncrease) VotingClub(cost,term,reps,option) public {\r\n    numberOfSinks = sinks;\r\n    quota = q;\r\n    gasCost = gas;\r\n    numberOfTurns = turns;\r\n    coalitionSizeFactor = sizeFactor;\r\n    coalitionSizeFactorIncrease = sizeFactorIncrease;\r\n    numOfSinksAllowedToSubmit = sinks / reps + 1;\r\n  }\r\n\r\n  function sendOut() {\r\n    uint startingBalance = this.balance;\r\n    for(uint i = 0; i < listOfSinks.length; i ++)\r\n    {\r\n      listOfSinks[i].spender.transfer(startingBalance * finalBudget[i] / 100);\r\n    }\r\n    listOfSinks.length = 0;\r\n\r\n  }\r\n\r\n  function submitBudget(uint[] budget) public\r\n  {\r\n    if(budget.length <= numberOfSinks)\r\n    {\r\n      for (uint i = 0; i < numberOfRepresentatives; i++)\r\n      {\r\n        if(registeredUser[listOfRepresentatives[i].u].myAddress == msg.sender)\r\n        {\r\n          listOfRepresentatives[i].budget = budget;\r\n        }\r\n      }\r\n    }\r\n  }\r\n  function submitSink(address spender, string name) public\r\n  {\r\n    if(listOfSinks.length < numberOfSinks)\r\n    {\r\n      for (uint i = 0; i < numberOfRepresentatives; i++)\r\n      {\r\n        if(registeredUser[listOfRepresentatives[i].u].myAddress == msg.sender && listOfRepresentatives[i].sinkSubmitted < numOfSinksAllowedToSubmit)\r\n        {\r\n          MyLib.Sink memory s;\r\n          s.name = name;\r\n          s.spender = spender;\r\n          listOfSinks.push(s);\r\n          listOfRepresentatives[i].sinkSubmitted += 1;\r\n        }\r\n      }\r\n    }\r\n  }\r\n\r\n\r\n  function endBudgetSubmit() public\r\n  {\r\n    if(listOfRepresentatives.length != 0 && timeVoteEnded + 0 < block.timestamp)\r\n    {\r\n      decideBudget();\r\n      listOfRepresentatives.length = 0;\r\n    }\r\n  }\r\n\r\n  function allSubmitted() internal constant returns (bool)\r\n  {\r\n    for (uint i = 0; i < numberOfRepresentatives; i++)\r\n    {\r\n      if(listOfRepresentatives[i].budget.length == 0)\r\n      {\r\n        return false;\r\n      }\r\n    }\r\n    return true;\r\n  }\r\n\r\n\r\n  function decideBudget() public\r\n  {\r\n    uint quotaMemory = quota;\r\n    uint numberOfRepresentativesMemory = numberOfRepresentatives;\r\n    uint[][] memory coalitionBudgets = new uint[][](numberOfRepresentativesMemory);\r\n    uint[] memory coalitionSize = new uint[](numberOfRepresentativesMemory);\r\n    uint[] memory playerToCoalition = new uint[](numberOfRepresentativesMemory);\r\n    MyLib.Agent[] memory playerToAgent = new MyLib.Agent[](numberOfRepresentativesMemory);\r\n    uint i;\r\n    //init\r\n    for (i = 0; i < numberOfRepresentativesMemory; i++)\r\n    {\r\n      playerToAgent[i] = listOfRepresentatives[i];\r\n      coalitionBudgets[i] =  playerToAgent[i].budget;\r\n      coalitionSize[i] = 1;\r\n      playerToCoalition[i] = i;\r\n    }\r\n\r\n    uint player = 0;\r\n    while(winningCoalition(playerToCoalition,numberOfRepresentativesMemory,playerToAgent) == numberOfRepresentativesMemory)\r\n    {\r\n      uint[] memory bestOffer = new uint[](2);\r\n      uint bestCoalition = numberOfRepresentativesMemory;\r\n      //get utility in the current coalition\r\n      uint myAfloor = afloor(coalitionBudgets[playerToCoalition[player]],playerToAgent[player].budget,coalitionSize[playerToCoalition[player]],quotaMemory);\r\n      for(i = 0; i < numberOfRepresentativesMemory; i ++)\r\n      {\r\n        //dont check coalitions with no one or the one your in\r\n        if(playerToCoalition[player] != i && coalitionSize[i] != 0)\r\n        {\r\n          uint[] memory nego = offer(coalitionBudgets[i],playerToAgent[player].budget,myAfloor,coalitionSize[i],playerToAgent[player].weight);\r\n          if(nego[0] > bestOffer[0])\r\n          {\r\n            bestOffer = nego;\r\n            bestCoalition = i;\r\n          }\r\n        }\r\n\r\n      }\r\n\r\n      if(bestCoalition != numberOfRepresentativesMemory)\r\n      {\r\n        coalitionBudgets[bestCoalition] = negoToBudget(playerToAgent[player].budget, coalitionBudgets[bestCoalition], bestOffer, coalitionSize[bestCoalition] + playerToAgent[player].weight);\r\n        coalitionSize[playerToCoalition[player]] -= playerToAgent[player].weight;\r\n        coalitionSize[bestCoalition] += playerToAgent[player].weight;\r\n        playerToCoalition[player] = bestCoalition;\r\n\r\n      }\r\n\r\n      if(player == numberOfRepresentativesMemory - 1)\r\n      {\r\n        player = 0;\r\n      }\r\n      else{\r\n        player ++;\r\n      }\r\n      coalitionSizeFactor += coalitionSizeFactorIncrease;\r\n\r\n    }\r\n\r\n    finalBudget = coalitionBudgets[winningCoalition(playerToCoalition,numberOfRepresentativesMemory,playerToAgent)];\r\n\r\n  }\r\n\r\n  function offer(uint[] budgetCoal, uint[] budgeta, uint myAfloor, uint coalSize, uint agentWeight) constant internal returns (uint[])\r\n  {\r\n    uint quotaMemory = quota;\r\n    uint myAbar = abar(coalSize, agentWeight, quotaMemory);\r\n    uint myBbar = bbar(budgeta, budgetCoal, coalSize, agentWeight, quotaMemory);\r\n    uint myBfloor = bfloor(coalSize, quotaMemory);\r\n    if(myAfloor + myBfloor < myAbar + myBbar)\r\n    {\r\n      return negotiate(myAbar, myBbar ,myAfloor, myBfloor);\r\n    }\r\n    else{\r\n      return new uint[](2);\r\n    }\r\n  }\r\n\r\n  function afloor(uint[] budgetCoala, uint[] budgeta, uint coalSizea, uint quotaMemory ) constant internal returns (uint)\r\n  {\r\n    return calculateUtility(budgetCoala,budgeta,coalSizea,quotaMemory);\r\n  }\r\n  function bfloor(uint coalSize,  uint quotaMemory) constant internal returns (uint)\r\n  {\r\n    return calculate100Utility(coalSize,quotaMemory);\r\n  }\r\n  function abar(uint coalSize, uint agentWeight,  uint quotaMemory) constant internal returns (uint)\r\n  {\r\n    return calculate100Utility(coalSize + agentWeight,quotaMemory);\r\n  }\r\n  function bbar(uint[] budgetCoal, uint[] budgeta, uint coalSize, uint agentWeight,  uint quotaMemory) constant internal returns (uint)\r\n  {\r\n    return calculateUtility(budgetCoal,budgeta,coalSize + agentWeight,quotaMemory);\r\n  }\r\n  function winningCoalition(uint[] playerToCoalition, uint numberOfRepresentativesMemory,MyLib.Agent[] playerToAgent ) constant internal returns (uint)\r\n  {\r\n    uint[] memory weights = new uint[](numberOfRepresentativesMemory);\r\n    //add all the weights\r\n    for (uint i = 0; i < numberOfRepresentativesMemory ; i++)\r\n    {\r\n      weights[playerToCoalition[i]] += playerToAgent[i].weight;\r\n    }\r\n    for (i = 0; i < numberOfRepresentativesMemory ; i++)\r\n    {\r\n      if(weights[i] >= quota)\r\n      {\r\n        return i;\r\n      }\r\n    }\r\n    return numberOfRepresentativesMemory;\r\n  }\r\n\r\n  function calculate100Utility(uint coalitionSize,  uint quotaMemory) constant internal returns (uint)\r\n  {\r\n    return (uint) ((coalitionSizeFactor * 100) / (quotaMemory + 1 - coalitionSize) + ((100-coalitionSizeFactor) * 100));\r\n  }\r\n\r\n  function calculateUtility(uint[] budget1,uint[] budget2, uint coalitionSize,  uint quotaMemory) constant internal returns (uint)\r\n  {\r\n    uint shared = sharedBudget(budget1,budget2);\r\n    return (uint) ((coalitionSizeFactor * shared) / (quotaMemory + 1 - coalitionSize) + ((100-coalitionSizeFactor) * shared));\r\n  }\r\n\r\n  function sharedBudget(uint[] budget1,uint[] budget2) constant internal returns (uint)\r\n  {\r\n    uint shared = 0;\r\n    for(uint i = 0; i < budget1.length; i ++)\r\n    {\r\n      if(budget1[i] > budget2[i])\r\n      {\r\n        shared += budget2[i];\r\n      }\r\n      else{\r\n        shared += budget1[i];\r\n      }\r\n    }\r\n    return shared;\r\n  }\r\n  function negotiate(uint a_bar,uint b_bar,uint a_floor,uint b_floor)constant  public returns (uint[])\r\n  {\r\n    uint gasCostMemory = gasCost;\r\n    uint usefulTurn = ((a_bar + b_bar - a_floor - b_floor - 2) / gasCostMemory) + 1;\r\n    uint[] memory proposal = new uint[](2);\r\n\r\n    uint numberOfTurnsMemory = numberOfTurns;\r\n    if(usefulTurn > numberOfTurnsMemory)\r\n    {\r\n      usefulTurn = numberOfTurnsMemory;\r\n\r\n    }\r\n    uint freeUtility = a_bar + b_bar - ((usefulTurn - 1) * gasCostMemory) - a_floor - b_floor - 2;\r\n    if(usefulTurn % 2 == 0)\r\n    {\r\n      proposal[1] = b_floor + 1 + freeUtility + (((usefulTurn/ 2)-1) * gasCostMemory) + 1;\r\n      proposal[0] = a_bar + b_bar -  proposal[1];\r\n    }\r\n    else\r\n    {\r\n      proposal[0] = a_floor + 1 + freeUtility +  ((((usefulTurn + 1)/ 2)-1) * gasCostMemory);\r\n      proposal[1] = a_bar + b_bar -  proposal[0];\r\n    }\r\n    //cant go over the best amount\r\n    if(proposal[0] > a_bar)\r\n    {\r\n      proposal[1] +=  proposal[0] - a_bar;\r\n      proposal[0] = a_bar;\r\n    }\r\n    else if(proposal[1] > a_bar)\r\n    {\r\n      proposal[0] +=  proposal[1] - a_bar;\r\n      proposal[1] = a_bar;\r\n    }\r\n\r\n\r\n    return proposal;\r\n\r\n\r\n\r\n  }\r\n\r\n  function negoToBudget(uint[] budget1, uint [] budget2, uint[] nego, uint coalitionSize) constant public returns (uint[])\r\n  {\r\n    uint[] memory newBudget = new uint[](budget1.length);\r\n\r\n    uint sharedab = sharedBudget(budget1,budget2);\r\n\r\n    uint quotaMemory = quota;\r\n    uint individuala = (uint) (nego[0] / ((coalitionSizeFactor / (quotaMemory + 1 - coalitionSize)) + (100 - coalitionSizeFactor)) - sharedab);\r\n    uint individualb = (uint) (nego[1] / ((coalitionSizeFactor / (quotaMemory + 1 - coalitionSize)) + (100 - coalitionSizeFactor))- sharedab);\r\n\r\n\r\n    uint suma = 0;\r\n    uint sumb = 0;\r\n\r\n    for(uint i = 0; i < budget1.length; i ++)\r\n    {\r\n      if(budget1[i] > budget2[i])\r\n      {\r\n        suma += budget1[i];\r\n      }\r\n      else{\r\n        sumb += budget2[i];\r\n      }\r\n    }\r\n\r\n    uint total = 0;\r\n    for(i = 0; i < budget1.length; i ++)\r\n    {\r\n      if(budget1[i] > budget2[i])\r\n      {\r\n        total +=  budget2[i] + individuala * budget1[i] / suma;\r\n        newBudget[i] = budget2[i] + individuala * budget1[i] / suma;\r\n      }\r\n      else{\r\n        total +=  budget1[i] + individualb * budget2[i] / sumb;\r\n        newBudget[i] = budget1[i] + individualb * budget2[i] / sumb;\r\n      }\r\n    }\r\n    uint z = 0;\r\n    while(total < 100)\r\n    {\r\n      newBudget[z] += 1;\r\n      total +=1;\r\n      if(z == budget1.length - 1)\r\n      {\r\n        z = 0;\r\n      }\r\n      else\r\n      {\r\n        z ++;\r\n      }\r\n    }\r\n\r\n\r\n    return newBudget;\r\n  }\r\n\r\n  function listSinks(uint number) public constant returns (string,address) {\r\n\r\n    return (listOfSinks[number].name, listOfSinks[number].spender);\r\n  }\r\n\r\n  function getSinksLength() public constant returns (uint)\r\n  {\r\n    return listOfSinks.length;\r\n  }\r\n\r\n  function listFinalBudget(uint number) public constant returns(uint)\r\n  {\r\n    return finalBudget[number];\r\n  }\r\n\r\n\r\n}\r\n",
  "sourcePath": "C:\\Users\\JakeL\\Desktop\\MultiAgentSystemsOnTheBlockChain\\contracts\\BudgetClub.sol",
  "compiler": {
    "name": "solc",
    "version": "0.4.18+commit.9cf6e910.Emscripten.clang"
  },
  "schemaVersion": "1.0.1",
  "updatedAt": "2018-04-26T23:02:26.186Z"
}