{
  "contractName": "BudgetClub",
  "abi": [
    {
      "constant": true,
      "inputs": [
        {
          "name": "number",
          "type": "uint256"
        }
      ],
      "name": "listRegisteredUsers",
      "outputs": [
        {
          "name": "",
          "type": "string"
        },
        {
          "name": "",
          "type": "address"
        }
      ],
      "payable": false,
      "stateMutability": "view",
      "type": "function"
    },
    {
      "constant": false,
      "inputs": [
        {
          "name": "spender",
          "type": "address"
        },
        {
          "name": "name",
          "type": "string"
        }
      ],
      "name": "submitSink",
      "outputs": [],
      "payable": false,
      "stateMutability": "nonpayable",
      "type": "function"
    },
    {
      "constant": true,
      "inputs": [],
      "name": "timeVoteStarted",
      "outputs": [
        {
          "name": "",
          "type": "uint256"
        }
      ],
      "payable": false,
      "stateMutability": "view",
      "type": "function"
    },
    {
      "constant": true,
      "inputs": [],
      "name": "getCandidatesLength",
      "outputs": [
        {
          "name": "",
          "type": "uint256"
        }
      ],
      "payable": false,
      "stateMutability": "view",
      "type": "function"
    },
    {
      "constant": true,
      "inputs": [],
      "name": "getRegisteredUsersLength",
      "outputs": [
        {
          "name": "",
          "type": "uint256"
        }
      ],
      "payable": false,
      "stateMutability": "view",
      "type": "function"
    },
    {
      "constant": false,
      "inputs": [],
      "name": "sendOut",
      "outputs": [],
      "payable": false,
      "stateMutability": "nonpayable",
      "type": "function"
    },
    {
      "constant": true,
      "inputs": [],
      "name": "gasCost",
      "outputs": [
        {
          "name": "",
          "type": "uint256"
        }
      ],
      "payable": false,
      "stateMutability": "view",
      "type": "function"
    },
    {
      "constant": true,
      "inputs": [
        {
          "name": "number",
          "type": "uint256"
        }
      ],
      "name": "listCandidates",
      "outputs": [
        {
          "name": "",
          "type": "string"
        },
        {
          "name": "",
          "type": "address"
        }
      ],
      "payable": false,
      "stateMutability": "view",
      "type": "function"
    },
    {
      "constant": false,
      "inputs": [],
      "name": "endBudgetSubmit",
      "outputs": [],
      "payable": false,
      "stateMutability": "nonpayable",
      "type": "function"
    },
    {
      "constant": true,
      "inputs": [],
      "name": "numberOfSinks",
      "outputs": [
        {
          "name": "",
          "type": "uint256"
        }
      ],
      "payable": false,
      "stateMutability": "view",
      "type": "function"
    },
    {
      "constant": false,
      "inputs": [],
      "name": "decideBudget",
      "outputs": [],
      "payable": false,
      "stateMutability": "nonpayable",
      "type": "function"
    },
    {
      "constant": false,
      "inputs": [],
      "name": "startVote",
      "outputs": [],
      "payable": false,
      "stateMutability": "nonpayable",
      "type": "function"
    },
    {
      "constant": false,
      "inputs": [
        {
          "name": "ranked",
          "type": "uint256[]"
        }
      ],
      "name": "weightCandidates",
      "outputs": [],
      "payable": false,
      "stateMutability": "nonpayable",
      "type": "function"
    },
    {
      "constant": true,
      "inputs": [
        {
          "name": "number",
          "type": "uint256"
        }
      ],
      "name": "showVotes",
      "outputs": [
        {
          "name": "",
          "type": "address[]"
        }
      ],
      "payable": false,
      "stateMutability": "view",
      "type": "function"
    },
    {
      "constant": false,
      "inputs": [
        {
          "name": "budget",
          "type": "uint256[]"
        }
      ],
      "name": "submitBudget",
      "outputs": [],
      "payable": false,
      "stateMutability": "nonpayable",
      "type": "function"
    },
    {
      "constant": true,
      "inputs": [],
      "name": "coalitionSizeFactorIncrease",
      "outputs": [
        {
          "name": "",
          "type": "uint256"
        }
      ],
      "payable": false,
      "stateMutability": "view",
      "type": "function"
    },
    {
      "constant": false,
      "inputs": [
        {
          "name": "suggestion",
          "type": "uint256"
        }
      ],
      "name": "changeRegistrationCostSuggestion",
      "outputs": [],
      "payable": false,
      "stateMutability": "nonpayable",
      "type": "function"
    },
    {
      "constant": true,
      "inputs": [],
      "name": "termLength",
      "outputs": [
        {
          "name": "",
          "type": "uint256"
        }
      ],
      "payable": false,
      "stateMutability": "view",
      "type": "function"
    },
    {
      "constant": true,
      "inputs": [
        {
          "name": "number",
          "type": "uint256"
        }
      ],
      "name": "listFinalBudget",
      "outputs": [
        {
          "name": "",
          "type": "uint256"
        }
      ],
      "payable": false,
      "stateMutability": "view",
      "type": "function"
    },
    {
      "constant": false,
      "inputs": [],
      "name": "subsidize",
      "outputs": [],
      "payable": true,
      "stateMutability": "payable",
      "type": "function"
    },
    {
      "constant": false,
      "inputs": [
        {
          "name": "data",
          "type": "uint256[]"
        }
      ],
      "name": "sort",
      "outputs": [
        {
          "name": "",
          "type": "uint256[]"
        }
      ],
      "payable": false,
      "stateMutability": "nonpayable",
      "type": "function"
    },
    {
      "constant": true,
      "inputs": [],
      "name": "coalitionSizeFactor",
      "outputs": [
        {
          "name": "",
          "type": "uint256"
        }
      ],
      "payable": false,
      "stateMutability": "view",
      "type": "function"
    },
    {
      "constant": false,
      "inputs": [],
      "name": "changeRegistrationCost",
      "outputs": [],
      "payable": false,
      "stateMutability": "nonpayable",
      "type": "function"
    },
    {
      "constant": true,
      "inputs": [
        {
          "name": "",
          "type": "uint256"
        }
      ],
      "name": "finalBudget",
      "outputs": [
        {
          "name": "",
          "type": "uint256"
        }
      ],
      "payable": false,
      "stateMutability": "view",
      "type": "function"
    },
    {
      "constant": true,
      "inputs": [],
      "name": "numberOfRepresentatives",
      "outputs": [
        {
          "name": "",
          "type": "uint256"
        }
      ],
      "payable": false,
      "stateMutability": "view",
      "type": "function"
    },
    {
      "constant": true,
      "inputs": [
        {
          "name": "",
          "type": "address"
        }
      ],
      "name": "voted",
      "outputs": [
        {
          "name": "",
          "type": "bool"
        }
      ],
      "payable": false,
      "stateMutability": "view",
      "type": "function"
    },
    {
      "constant": true,
      "inputs": [
        {
          "name": "number",
          "type": "uint256"
        }
      ],
      "name": "listSinks",
      "outputs": [
        {
          "name": "",
          "type": "string"
        },
        {
          "name": "",
          "type": "address"
        }
      ],
      "payable": false,
      "stateMutability": "view",
      "type": "function"
    },
    {
      "constant": false,
      "inputs": [],
      "name": "endVote",
      "outputs": [],
      "payable": false,
      "stateMutability": "nonpayable",
      "type": "function"
    },
    {
      "constant": true,
      "inputs": [],
      "name": "sayhi",
      "outputs": [],
      "payable": false,
      "stateMutability": "view",
      "type": "function"
    },
    {
      "constant": true,
      "inputs": [],
      "name": "checkRegistrationSuggestions",
      "outputs": [
        {
          "name": "",
          "type": "uint256"
        }
      ],
      "payable": false,
      "stateMutability": "view",
      "type": "function"
    },
    {
      "constant": true,
      "inputs": [],
      "name": "getSinksLength",
      "outputs": [
        {
          "name": "",
          "type": "uint256"
        }
      ],
      "payable": false,
      "stateMutability": "view",
      "type": "function"
    },
    {
      "constant": true,
      "inputs": [],
      "name": "quota",
      "outputs": [
        {
          "name": "",
          "type": "uint256"
        }
      ],
      "payable": false,
      "stateMutability": "view",
      "type": "function"
    },
    {
      "constant": true,
      "inputs": [],
      "name": "voteStarted",
      "outputs": [
        {
          "name": "",
          "type": "bool"
        }
      ],
      "payable": false,
      "stateMutability": "view",
      "type": "function"
    },
    {
      "constant": true,
      "inputs": [],
      "name": "getRepresentivesLength",
      "outputs": [
        {
          "name": "",
          "type": "uint256"
        }
      ],
      "payable": false,
      "stateMutability": "view",
      "type": "function"
    },
    {
      "constant": true,
      "inputs": [
        {
          "name": "budget1",
          "type": "uint256[]"
        },
        {
          "name": "budget2",
          "type": "uint256[]"
        },
        {
          "name": "nego",
          "type": "uint256[]"
        },
        {
          "name": "coalitionSize",
          "type": "uint256"
        }
      ],
      "name": "negoToBudget",
      "outputs": [
        {
          "name": "",
          "type": "uint256[]"
        }
      ],
      "payable": false,
      "stateMutability": "view",
      "type": "function"
    },
    {
      "constant": false,
      "inputs": [],
      "name": "apply",
      "outputs": [],
      "payable": false,
      "stateMutability": "nonpayable",
      "type": "function"
    },
    {
      "constant": true,
      "inputs": [],
      "name": "registrationCost",
      "outputs": [
        {
          "name": "",
          "type": "uint256"
        }
      ],
      "payable": false,
      "stateMutability": "view",
      "type": "function"
    },
    {
      "constant": true,
      "inputs": [],
      "name": "getContractValue",
      "outputs": [
        {
          "name": "",
          "type": "uint256"
        }
      ],
      "payable": false,
      "stateMutability": "view",
      "type": "function"
    },
    {
      "constant": true,
      "inputs": [
        {
          "name": "text",
          "type": "string"
        }
      ],
      "name": "chat",
      "outputs": [],
      "payable": false,
      "stateMutability": "view",
      "type": "function"
    },
    {
      "constant": true,
      "inputs": [
        {
          "name": "number",
          "type": "uint256"
        }
      ],
      "name": "listRepresentives",
      "outputs": [
        {
          "name": "",
          "type": "string"
        },
        {
          "name": "",
          "type": "address"
        },
        {
          "name": "",
          "type": "uint256"
        },
        {
          "name": "",
          "type": "uint256[]"
        }
      ],
      "payable": false,
      "stateMutability": "view",
      "type": "function"
    },
    {
      "constant": true,
      "inputs": [],
      "name": "numberOfTurns",
      "outputs": [
        {
          "name": "",
          "type": "uint256"
        }
      ],
      "payable": false,
      "stateMutability": "view",
      "type": "function"
    },
    {
      "constant": true,
      "inputs": [
        {
          "name": "a_bar",
          "type": "uint256"
        },
        {
          "name": "b_bar",
          "type": "uint256"
        },
        {
          "name": "a_floor",
          "type": "uint256"
        },
        {
          "name": "b_floor",
          "type": "uint256"
        }
      ],
      "name": "negotiate",
      "outputs": [
        {
          "name": "",
          "type": "uint256[]"
        }
      ],
      "payable": false,
      "stateMutability": "view",
      "type": "function"
    },
    {
      "constant": true,
      "inputs": [],
      "name": "timeVoteEnded",
      "outputs": [
        {
          "name": "",
          "type": "uint256"
        }
      ],
      "payable": false,
      "stateMutability": "view",
      "type": "function"
    },
    {
      "constant": false,
      "inputs": [
        {
          "name": "myVote",
          "type": "address[]"
        }
      ],
      "name": "vote",
      "outputs": [],
      "payable": false,
      "stateMutability": "nonpayable",
      "type": "function"
    },
    {
      "constant": false,
      "inputs": [
        {
          "name": "name",
          "type": "string"
        }
      ],
      "name": "register",
      "outputs": [],
      "payable": true,
      "stateMutability": "payable",
      "type": "function"
    },
    {
      "inputs": [
        {
          "name": "cost",
          "type": "uint256"
        },
        {
          "name": "term",
          "type": "uint256"
        },
        {
          "name": "reps",
          "type": "uint256"
        },
        {
          "name": "sinks",
          "type": "uint256"
        },
        {
          "name": "q",
          "type": "uint256"
        },
        {
          "name": "gas",
          "type": "uint256"
        },
        {
          "name": "turns",
          "type": "uint256"
        },
        {
          "name": "sizeFactor",
          "type": "uint256"
        },
        {
          "name": "sizeFactorIncrease",
          "type": "uint256"
        }
      ],
      "payable": false,
      "stateMutability": "nonpayable",
      "type": "constructor"
    },
    {
      "anonymous": false,
      "inputs": [
        {
          "indexed": false,
          "name": "message",
          "type": "string"
        },
        {
          "indexed": false,
          "name": "name",
          "type": "string"
        }
      ],
      "name": "message",
      "type": "event"
    }
  ],
  "bytecode": "0x60606040526000600960006101000a81548160ff0219169083151502179055506000600a556000600b556000600c55341561003957600080fd5b6040516101208061471183398101604052808051906020019091908051906020019091908051906020019091908051906020019091908051906020019091908051906020019091908051906020019091908051906020019091908051906020019091905050888888828060018190555050816003819055508060048190555050505085600d8190555084600e8190555083600f81905550826010819055508160118190555080601281905550505050505050505050614614806100fd6000396000f300606060405260043610610225576000357c0100000000000000000000000000000000000000000000000000000000900463ffffffff1680630cf35f441461022a57806313dcd43e14610262578063161893d0146102de5780631859df65146103075780631afad36d146103305780631b0d3f40146103595780631d5e3fe51461036e57806322ca968b1461039757806326f9098b146103cf5780632cd15220146103e457806347792fc51461040d5780634c0a6af0146104225780635846fc46146104375780636687d4fe146104915780636904d241146104c8578063717a55d2146105225780637392445a1461054b57806379b18cd11461056e5780638b2e48831461059757806390f10ed1146105ce5780639ec8b026146105d8578063a5982ddb14610646578063a90cc0d91461066f578063ad012af014610684578063ae0689ac146106bb578063aec2ccae146106e4578063af0ab71514610731578063b922394614610769578063bc9c707d1461077e578063c0fc41e614610793578063c6214bf1146107bc578063cebe09c9146107e5578063d0dc01801461080e578063d5268b2214610837578063d87311aa14610860578063db595b3b14610957578063dc4a7f7f1461096c578063dc82697c14610995578063de8caa1e146109be578063dee6472f14610a1b578063e0abab9e14610a55578063e32ba07814610a7e578063ed00af9814610ad0578063ed08132914610af9578063f2c298be14610b53575b600080fd5b341561023557600080fd5b61024b6004808035906020019091905050610ba5565b6040516102599291906143e8565b60405180910390f35b341561026d57600080fd5b6102dc600480803573ffffffffffffffffffffffffffffffffffffffff1690602001909190803590602001908201803590602001908080601f01602080910402602001604051908101604052809392919081815260200183838082843782019150505050505091905050610cb4565b005b34156102e957600080fd5b6102f1610e57565b6040516102fe91906144d5565b60405180910390f35b341561031257600080fd5b61031a610e5d565b60405161032791906144d5565b60405180910390f35b341561033b57600080fd5b610343610e6a565b60405161035091906144d5565b60405180910390f35b341561036457600080fd5b61036c610e76565b005b341561037957600080fd5b610381610f6e565b60405161038e91906144d5565b60405180910390f35b34156103a257600080fd5b6103b86004808035906020019091905050610f74565b6040516103c69291906143e8565b60405180910390f35b34156103da57600080fd5b6103e26110b7565b005b34156103ef57600080fd5b6103f76110df565b60405161040491906144d5565b60405180910390f35b341561041857600080fd5b6104206110e5565b005b341561042d57600080fd5b6104356116c7565b005b341561044257600080fd5b61048f600480803590602001908201803590602001908080602002602001604051908101604052809392919081815260200183836020028082843782019150505050505091905050611719565b005b341561049c57600080fd5b6104b260048080359060200190919050506117f8565b6040516104bf9190614389565b60405180910390f35b34156104d357600080fd5b6105206004808035906020019082018035906020019080806020026020016040519081016040528093929190818152602001838360200280828437820191505050505050919050506118a6565b005b341561052d57600080fd5b61053561199e565b60405161054291906144d5565b60405180910390f35b341561055657600080fd5b61056c60048080359060200190919050506119a4565b005b341561057957600080fd5b610581611a55565b60405161058e91906144d5565b60405180910390f35b34156105a257600080fd5b6105b86004808035906020019091905050611a5b565b6040516105c591906144d5565b60405180910390f35b6105d6611a7f565b005b34156105e357600080fd5b610630600480803590602001908201803590602001908080602002602001604051908101604052809392919081815260200183836020028082843782019150505050505091905050611a81565b60405161063d91906143ab565b60405180910390f35b341561065157600080fd5b610659611aa1565b60405161066691906144d5565b60405180910390f35b341561067a57600080fd5b610682611aa7565b005b341561068f57600080fd5b6106a56004808035906020019091905050611ac9565b6040516106b291906144d5565b60405180910390f35b34156106c657600080fd5b6106ce611aed565b6040516106db91906144d5565b60405180910390f35b34156106ef57600080fd5b61071b600480803573ffffffffffffffffffffffffffffffffffffffff16906020019091905050611af3565b60405161072891906143cd565b60405180910390f35b341561073c57600080fd5b6107526004808035906020019091905050611b13565b6040516107609291906143e8565b60405180910390f35b341561077457600080fd5b61077c611c23565b005b341561078957600080fd5b610791611c9e565b005b341561079e57600080fd5b6107a6611cd5565b6040516107b391906144d5565b60405180910390f35b34156107c757600080fd5b6107cf611d8f565b6040516107dc91906144d5565b60405180910390f35b34156107f057600080fd5b6107f8611d9c565b60405161080591906144d5565b60405180910390f35b341561081957600080fd5b610821611da2565b60405161082e91906143cd565b60405180910390f35b341561084257600080fd5b61084a611db5565b60405161085791906144d5565b60405180910390f35b341561086b57600080fd5b6109416004808035906020019082018035906020019080806020026020016040519081016040528093929190818152602001838360200280828437820191505050505050919080359060200190820180359060200190808060200260200160405190810160405280939291908181526020018383602002808284378201915050505050509190803590602001908201803590602001908080602002602001604051908101604052809392919081815260200183836020028082843782019150505050505091908035906020019091905050611dc2565b60405161094e91906143ab565b60405180910390f35b341561096257600080fd5b61096a61212f565b005b341561097757600080fd5b61097f612209565b60405161098c91906144d5565b60405180910390f35b34156109a057600080fd5b6109a861220f565b6040516109b591906144d5565b60405180910390f35b34156109c957600080fd5b610a19600480803590602001908201803590602001908080601f0160208091040260200160405190810160405280939291908181526020018383808284378201915050505050509190505061222e565b005b3415610a2657600080fd5b610a3c600480803590602001909190505061231f565b604051610a4c9493929190614418565b60405180910390f35b3415610a6057600080fd5b610a68612511565b604051610a7591906144d5565b60405180910390f35b3415610a8957600080fd5b610aba6004808035906020019091908035906020019091908035906020019091908035906020019091905050612517565b604051610ac791906143ab565b60405180910390f35b3415610adb57600080fd5b610ae36127a2565b604051610af091906144d5565b60405180910390f35b3415610b0457600080fd5b610b516004808035906020019082018035906020019080806020026020016040519081016040528093929190818152602001838360200280828437820191505050505050919050506127a8565b005b610ba3600480803590602001908201803590602001908080601f01602080910402602001604051908101604052809392919081815260200183838082843782019150505050505091905050612a19565b005b610bad613a93565b60008083815481101515610bbd57fe5b9060005260206000209060020201600101600084815481101515610bdd57fe5b906000526020600020906002020160000160009054906101000a900473ffffffffffffffffffffffffffffffffffffffff16818054600181600116156101000203166002900480601f016020809104026020016040519081016040528092919081815260200182805460018160011615610100020316600290048015610ca45780601f10610c7957610100808354040283529160200191610ca4565b820191906000526020600020905b815481529060010190602001808311610c8757829003601f168201915b5050505050915091509150915091565b6000610cbe613aa7565b600d546013805490501015610e5157600091505b600454821015610e50573373ffffffffffffffffffffffffffffffffffffffff166000600584815481101515610d0457fe5b906000526020600020906003020160000154815481101515610d2257fe5b906000526020600020906002020160000160009054906101000a900473ffffffffffffffffffffffffffffffffffffffff1673ffffffffffffffffffffffffffffffffffffffff161415610e435782816020018190525083816000019073ffffffffffffffffffffffffffffffffffffffff16908173ffffffffffffffffffffffffffffffffffffffff168152505060138054806001018281610dc59190613add565b9160005260206000209060020201600083909190915060008201518160000160006101000a81548173ffffffffffffffffffffffffffffffffffffffff021916908373ffffffffffffffffffffffffffffffffffffffff1602179055506020820151816001019080519060200190610e3e929190613b0f565b505050505b8180600101925050610cd2565b5b50505050565b600a5481565b6000600680549050905090565b60008080549050905090565b6000803073ffffffffffffffffffffffffffffffffffffffff16319150600090505b601380549050811015610f5a57601381815481101515610eb457fe5b906000526020600020906002020160000160009054906101000a900473ffffffffffffffffffffffffffffffffffffffff1673ffffffffffffffffffffffffffffffffffffffff166108fc6064601484815481101515610f1057fe5b9060005260206000209001548502811515610f2757fe5b049081150290604051600060405180830381858888f193505050501515610f4d57600080fd5b8080600101915050610e98565b6000601381610f699190613b8f565b505050565b600f5481565b610f7c613a93565b600080600684815481101515610f8e57fe5b906000526020600020900154815481101515610fa657fe5b90600052602060002090600202016001016000600685815481101515610fc857fe5b906000526020600020900154815481101515610fe057fe5b906000526020600020906002020160000160009054906101000a900473ffffffffffffffffffffffffffffffffffffffff16818054600181600116156101000203166002900480601f0160208091040260200160405190810160405280929190818152602001828054600181600116156101000203166002900480156110a75780601f1061107c576101008083540402835291602001916110a7565b820191906000526020600020905b81548152906001019060200180831161108a57829003601f168201915b5050505050915091509150915091565b6110bf612c86565b156110dd576110cc6110e5565b60006005816110db9190613bc1565b505b565b600d5481565b6000806110f0613bf3565b6110f8613c07565b611100613c07565b611108613c1b565b600080611113613c07565b60008061111e613c07565b600e549b506004549a508a6040518059106111365750595b90808252806020026020018201604052801561116c57816020015b611159613c2f565b8152602001906001900390816111515790505b5099508a60405180591061117d5750595b908082528060200260200182016040525098508a60405180591061119e5750595b908082528060200260200182016040525097508a6040518059106111bf5750595b9080825280602002602001820160405280156111f557816020015b6111e2613c43565b8152602001906001900390816111da5790505b509650600095505b8a8610156113345760058681548110151561121457fe5b906000526020600020906003020160606040519081016040529081600082015481526020016001820180548060200260200160405190810160405280929190818152602001828054801561128757602002820191906000526020600020905b815481526020019060010190808311611273575b5050505050815260200160028201548152505087878151811015156112a857fe5b9060200190602002018190525086868151811015156112c357fe5b90602001906020020151602001518a878151811015156112df57fe5b90602001906020020181905250600189878151811015156112fc57fe5b906020019060200201818152505085888781518110151561131957fe5b906020019060200201818152505085806001019650506111fd565b600094505b8a611345898d8a612ce3565b141561168157600260405180591061135a5750595b908082528060200260200182016040525093508a92506113f38a898781518110151561138257fe5b9060200190602002015181518110151561139857fe5b9060200190602002015188878151811015156113b057fe5b90602001906020020151602001518b8b898151811015156113cd57fe5b906020019060200201518151811015156113e357fe5b906020019060200201518f612dd0565b9150600095505b8a8610156115065785888681518110151561141157fe5b906020019060200201511415801561144157506000898781518110151561143457fe5b9060200190602002015114155b156114f9576114b78a8781518110151561145757fe5b90602001906020020151888781518110151561146f57fe5b9060200190602002015160200151848c8a81518110151561148c57fe5b906020019060200201518b8a8151811015156114a457fe5b9060200190602002015160400151612de8565b90508360008151811015156114c857fe5b906020019060200201518160008151811015156114e157fe5b9060200190602002015111156114f8578093508592505b5b85806001019650506113fa565b8a8314151561164d57611581878681518110151561152057fe5b90602001906020020151602001518b8581518110151561153c57fe5b90602001906020020151868a8981518110151561155557fe5b90602001906020020151604001518d8881518110151561157157fe5b9060200190602002015101611dc2565b8a8481518110151561158f57fe5b9060200190602002018190525086858151811015156115aa57fe5b90602001906020020151604001518989878151811015156115c757fe5b906020019060200201518151811015156115dd57fe5b906020019060200201818151039150818152505086858151811015156115ff57fe5b9060200190602002015160400151898481518110151561161b57fe5b906020019060200201818151019150818152505082888681518110151561163e57fe5b90602001906020020181815250505b60018b03851415611661576000945061166a565b84806001019550505b601254601160008282540192505081905550611339565b8961168d898d8a612ce3565b81518110151561169957fe5b90602001906020020151601490805190602001906116b8929190613c6b565b50505050505050505050505050565b42600354600b54011080156116ef575060001515600960009054906101000a900460ff161515145b15611717576001600960006101000a81548160ff02191690831515021790555042600a819055505b565b6000611723613cb8565b600091505b6004548210156117e3576006838381518110151561174257fe5b9060200190602002015181548110151561175857fe5b90600052602060002090015481600001818152505060018160400181815250506005805480600101828161178c9190613ce0565b916000526020600020906003020160008390919091506000820151816000015560208201518160010190805190602001906117c8929190613d12565b50604082015181600201555050508180600101925050611728565b60006006816117f29190613d5f565b50505050565b611800613d8b565b60078281548110151561180f57fe5b906000526020600020900180548060200260200160405190810160405280929190818152602001828054801561189a57602002820191906000526020600020905b8160009054906101000a900473ffffffffffffffffffffffffffffffffffffffff1673ffffffffffffffffffffffffffffffffffffffff1681526020019060010190808311611850575b50505050509050919050565b6000600d548251141561199a57600090505b600454811015611999573373ffffffffffffffffffffffffffffffffffffffff1660006005838154811015156118ea57fe5b90600052602060002090600302016000015481548110151561190857fe5b906000526020600020906002020160000160009054906101000a900473ffffffffffffffffffffffffffffffffffffffff1673ffffffffffffffffffffffffffffffffffffffff16141561198c578160058281548110151561196657fe5b9060005260206000209060030201600101908051906020019061198a929190613c6b565b505b80806001019150506118b8565b5b5050565b60125481565b60008090505b600080549050811015611a51573373ffffffffffffffffffffffffffffffffffffffff166000828154811015156119dd57fe5b906000526020600020906002020160000160009054906101000a900473ffffffffffffffffffffffffffffffffffffffff1673ffffffffffffffffffffffffffffffffffffffff161415611a44578160026000838152602001908152602001600020819055505b80806001019150506119aa565b5050565b60035481565b6000601482815481101515611a6c57fe5b9060005260206000209001549050919050565b565b611a89613c07565b611a998260006001855103612e72565b819050919050565b60115481565b6000611ab1611cd5565b905060015481141515611ac657806001819055505b50565b601481815481101515611ad857fe5b90600052602060002090016000915090505481565b60045481565b60086020528060005260406000206000915054906101000a900460ff1681565b611b1b613a93565b6000601383815481101515611b2c57fe5b9060005260206000209060020201600101601384815481101515611b4c57fe5b906000526020600020906002020160000160009054906101000a900473ffffffffffffffffffffffffffffffffffffffff16818054600181600116156101000203166002900480601f016020809104026020016040519081016040528092919081815260200182805460018160011615610100020316600290048015611c135780601f10611be857610100808354040283529160200191611c13565b820191906000526020600020905b815481529060010190602001808311611bf657829003601f168201915b5050505050915091509150915091565b42600c54600a540111158015611c4c575060011515600960009054906101000a900460ff161515145b15611c9c576000600960006101000a81548160ff02191690831515021790555042600b81905550611c7b612fd2565b6000600681611c8a9190613d5f565b506000600781611c9a9190613d9f565b505b565b7f36bf6cf02ecc60712e107054775debd1f2f255ab34df5fc4928044264d16fd1f604051611ccb906144a2565b60405180910390a1565b60008060008060008060036004600080549050811515611cf157fe5b04029450600093505b600080549050841015611d81576000925060026000858152602001908152602001600020549150600090505b600080549050811015611d64576002600082815260200190815260200160002054821415611d575782806001019350505b8080600101915050611d26565b84831115611d7457819550611d87565b8380600101945050611cfa565b60015495505b505050505090565b6000601380549050905090565b600e5481565b600960009054906101000a900460ff1681565b6000600580549050905090565b611dca613c07565b611dd2613c07565b60008060008060008060008060008e51604051805910611def5750595b90808252806020026020018201604052509950611e0c8f8f6133ee565b9850600e549750886011546064038d60018b0103601154811515611e2c57fe5b04018e6000815181101515611e3d57fe5b90602001906020020151811515611e5057fe5b04039650886011546064038d60018b0103601154811515611e6d57fe5b04018e6001815181101515611e7e57fe5b90602001906020020151811515611e9157fe5b040395506000945060009350600092505b8e51831015611f2c578d83815181101515611eb957fe5b906020019060200201518f84815181101515611ed157fe5b906020019060200201511115611f02578e83815181101515611eef57fe5b9060200190602002015185019450611f1f565b8d83815181101515611f1057fe5b90602001906020020151840193505b8280600101935050611ea2565b60009150600092505b8e518310156120bf578d83815181101515611f4c57fe5b906020019060200201518f84815181101515611f6457fe5b90602001906020020151111561201557848f84815181101515611f8357fe5b906020019060200201518802811515611f9857fe5b048e84815181101515611fa757fe5b906020019060200201510182019150848f84815181101515611fc557fe5b906020019060200201518802811515611fda57fe5b048e84815181101515611fe957fe5b90602001906020020151018a8481518110151561200257fe5b90602001906020020181815250506120b2565b838e8481518110151561202457fe5b90602001906020020151870281151561203957fe5b048f8481518110151561204857fe5b906020019060200201510182019150838e8481518110151561206657fe5b90602001906020020151870281151561207b57fe5b048f8481518110151561208a57fe5b90602001906020020151018a848151811015156120a357fe5b90602001906020020181815250505b8280600101935050611f35565b600090505b606482101561211a5760018a828151811015156120dd57fe5b906020019060200201818151019150818152505060018201915060018f510381141561210c5760009050612115565b80806001019150505b6120c4565b899a5050505050505050505050949350505050565b60006121423361213d613490565b61366b565b151561220657600090505b600080549050811015612205573373ffffffffffffffffffffffffffffffffffffffff1660008281548110151561218057fe5b906000526020600020906002020160000160009054906101000a900473ffffffffffffffffffffffffffffffffffffffff1673ffffffffffffffffffffffffffffffffffffffff1614156121f857600680548060010182816121e29190613dcb565b9160005260206000209001600083909190915055505b808060010191505061214d565b5b50565b60015481565b60003073ffffffffffffffffffffffffffffffffffffffff1631905090565b60008090505b60008054905081101561231b573373ffffffffffffffffffffffffffffffffffffffff1660008281548110151561226757fe5b906000526020600020906002020160000160009054906101000a900473ffffffffffffffffffffffffffffffffffffffff1673ffffffffffffffffffffffffffffffffffffffff16141561230e577f36bf6cf02ecc60712e107054775debd1f2f255ab34df5fc4928044264d16fd1f826000838154811015156122e657fe5b906000526020600020906002020160010160405161230592919061446b565b60405180910390a15b8080600101915050612234565b5050565b612327613a93565b600080612332613c07565b600060058681548110151561234357fe5b90600052602060002090600302016000015481548110151561236157fe5b9060005260206000209060020201600101600060058781548110151561238357fe5b9060005260206000209060030201600001548154811015156123a157fe5b906000526020600020906002020160000160009054906101000a900473ffffffffffffffffffffffffffffffffffffffff166005878154811015156123e257fe5b90600052602060002090600302016002015460058881548110151561240357fe5b9060005260206000209060030201600101838054600181600116156101000203166002900480601f0160208091040260200160405190810160405280929190818152602001828054600181600116156101000203166002900480156124a95780601f1061247e576101008083540402835291602001916124a9565b820191906000526020600020905b81548152906001019060200180831161248c57829003601f168201915b50505050509350808054806020026020016040519081016040528092919081815260200182805480156124fb57602002820191906000526020600020905b8154815260200190600101908083116124e7575b5050505050905093509350935093509193509193565b60105481565b61251f613c07565b60008061252a613c07565b600080600f5494506001856002898b8d8f0103030381151561254857fe5b04019350600260405180591061255b5750595b9080825280602002602001820160405250925060105491508184111561257f578193505b600287898760018803028c8e0103030303905060006002858115156125a057fe5b06141561261f5760018560016002878115156125b857fe5b0403028260018a010101018360018151811015156125d257fe5b90602001906020020181815250508260018151811015156125ef57fe5b90602001906020020151898b010383600081518110151561260c57fe5b9060200190602002018181525050612693565b84600160026001870181151561263157fe5b0403028160018a01010183600081518110151561264a57fe5b906020019060200201818152505082600081518110151561266757fe5b90602001906020020151898b010383600181518110151561268457fe5b90602001906020020181815250505b898360008151811015156126a357fe5b90602001906020020151111561271457898360008151811015156126c357fe5b90602001906020020151038360018151811015156126dd57fe5b90602001906020020181815101915081815250508983600081518110151561270157fe5b9060200190602002018181525050612792565b8983600181518110151561272457fe5b906020019060200201511115612791578983600181518110151561274457fe5b906020019060200201510383600081518110151561275e57fe5b90602001906020020181815101915081815250508983600181518110151561278257fe5b90602001906020020181815250505b5b8295505050505050949350505050565b600b5481565b612901336000805480602002602001604051908101604052809291908181526020016000905b828210156128f857838290600052602060002090600202016040805190810160405290816000820160009054906101000a900473ffffffffffffffffffffffffffffffffffffffff1673ffffffffffffffffffffffffffffffffffffffff1673ffffffffffffffffffffffffffffffffffffffff168152602001600182018054600181600116156101000203166002900480601f0160208091040260200160405190810160405280929190818152602001828054600181600116156101000203166002900480156128e05780601f106128b5576101008083540402835291602001916128e0565b820191906000526020600020905b8154815290600101906020018083116128c357829003601f168201915b505050505081525050815260200190600101906127ce565b5050505061366b565b8015612920575060011515600960009054906101000a900460ff161515145b801561297c575060001515600860003373ffffffffffffffffffffffffffffffffffffffff1673ffffffffffffffffffffffffffffffffffffffff16815260200190815260200160002060009054906101000a900460ff161515145b15612a16576001600860003373ffffffffffffffffffffffffffffffffffffffff1673ffffffffffffffffffffffffffffffffffffffff16815260200190815260200160002060006101000a81548160ff021916908315150217905550600780548060010182816129ed9190613df7565b916000526020600020900160008390919091509080519060200190612a13929190613e23565b50505b50565b612a21613ead565b60015434118015612b885750612b86336000805480602002602001604051908101604052809291908181526020016000905b82821015612b7d57838290600052602060002090600202016040805190810160405290816000820160009054906101000a900473ffffffffffffffffffffffffffffffffffffffff1673ffffffffffffffffffffffffffffffffffffffff1673ffffffffffffffffffffffffffffffffffffffff168152602001600182018054600181600116156101000203166002900480601f016020809104026020016040519081016040528092919081815260200182805460018160011615610100020316600290048015612b655780601f10612b3a57610100808354040283529160200191612b65565b820191906000526020600020905b815481529060010190602001808311612b4857829003601f168201915b50505050508152505081526020019060010190612a53565b5050505061366b565b155b15612c605733816000019073ffffffffffffffffffffffffffffffffffffffff16908173ffffffffffffffffffffffffffffffffffffffff168152505081816020018190525060008054806001018281612be29190613ee3565b9160005260206000209060020201600083909190915060008201518160000160006101000a81548173ffffffffffffffffffffffffffffffffffffffff021916908373ffffffffffffffffffffffffffffffffffffffff1602179055506020820151816001019080519060200190612c5b929190613b0f565b505050505b600154600260006001600080549050038152602001908152602001600020819055505050565b600080600090505b600454811015612cda576000600582815481101515612ca957fe5b9060005260206000209060030201600101805490501415612ccd5760009150612cdf565b8080600101915050612c8e565b600191505b5090565b6000612ced613c07565b600084604051805910612cfd5750595b90808252806020026020018201604052509150600090505b84811015612d7f578381815181101515612d2b57fe5b9060200190602002015160400151828783815181101515612d4857fe5b90602001906020020151815181101515612d5e57fe5b90602001906020020181815101915081815250508080600101915050612d15565b600090505b84811015612dc357600e548282815181101515612d9d57fe5b90602001906020020151101515612db657809250612dc7565b8080600101915050612d84565b8492505b50509392505050565b6000612dde858585856136ed565b9050949350505050565b612df0613c07565b600080600080600e549350612e06878786613725565b9250612e15898b89898861373c565b9150612e218785613757565b90508183018189011015612e4257612e3b83838a84612517565b9450612e65565b6002604051805910612e515750595b908082528060200260200182016040525094505b5050505095945050505050565b600080600084925083915081831415612e8a57612fca565b856002868603811515612e9957fe5b048601815181101515612ea857fe5b9060200190602002015190505b8183111515612fa1575b808684815181101515612ece57fe5b906020019060200201511115612eeb578280600101935050612ebf565b5b8582815181101515612efa57fe5b90602001906020020151811115612f1957818060019003925050612eec565b8183111515612f9c578582815181101515612f3057fe5b906020019060200201518684815181101515612f4857fe5b906020019060200201518785815181101515612f6057fe5b9060200190602002018885815181101515612f7757fe5b9060200190602002018281525082815250505082806001019350508180600190039250505b612eb5565b81851015612fb557612fb4868684612e72565b5b83831015612fc957612fc8868486612e72565b5b5b505050505050565b600080612fdd613c07565b612fe5613bf3565b6000612fef613c07565b612ff7613c07565b612fff613c07565b6006805490506040518059106130125750595b9080825280602002602001820160405250955085516040518059106130345750595b90808252806020026020018201604052801561306a57816020015b613057613c2f565b81526020019060019003908161304f5790505b509450600097505b85518810156130c357855160405180591061308a5750595b908082528060200260200182016040525085898151811015156130a957fe5b906020019060200201819052508780600101985050613072565b600097505b60018651038810156131ff578760010196505b85518710156131f2576130ee888861376b565b9350600084141561316c5786858981518110151561310857fe5b90602001906020020151878a81518110151561312057fe5b9060200190602002015181518110151561313657fe5b9060200190602002018181525050858881518110151561315257fe5b9060200190602002018051809190600101815250506131e5565b60018414156131e45787858881518110151561318457fe5b90602001906020020151878981518110151561319c57fe5b906020019060200201518151811015156131b257fe5b906020019060200201818152505085878151811015156131ce57fe5b9060200190602002018051809190600101815250505b5b86806001019750506130db565b87806001019850506130c8565b855160405180591061320e5750595b90808252806020026020018201604052509250600097505b85518810156132f7576000868981518110151561323f57fe5b906020019060200201511415156132ea57600096505b858881518110151561326357fe5b906020019060200201518710156132e95785858981518110151561328357fe5b906020019060200201518881518110151561329a57fe5b906020019060200201518151811015156132b057fe5b9060200190602002015183898151811015156132c857fe5b90602001906020020181815101915081815250508680600101975050613255565b5b8780600101985050613226565b85516040518059106133065750595b9080825280602002602001820160405250915061332a613325846139dc565b611a81565b9050600097505b85518810156133db57600096505b85518710156133ce57828781518110151561335657fe5b90602001906020020151818981518110151561336e57fe5b9060200190602002015114156133c15786828981518110151561338d57fe5b9060200190602002018181525050855186510283888151811015156133ae57fe5b90602001906020020181815250506133ce565b868060010197505061333f565b8780600101985050613331565b6133e482611719565b5050505050505050565b6000806000809150600090505b845181101561348557838181518110151561341257fe5b90602001906020020151858281518110151561342a57fe5b90602001906020020151111561345b57838181518110151561344857fe5b9060200190602002015182019150613478565b848181518110151561346957fe5b90602001906020020151820191505b80806001019150506133fb565b819250505092915050565b613498613f15565b60006134a2613f15565b60006006805490509250826040518059106134ba5750595b9080825280602002602001820160405280156134f057816020015b6134dd613f29565b8152602001906001900390816134d55790505b509150600090505b8281101561366257600060068281548110151561351157fe5b90600052602060002090015481548110151561352957fe5b90600052602060002090600202016040805190810160405290816000820160009054906101000a900473ffffffffffffffffffffffffffffffffffffffff1673ffffffffffffffffffffffffffffffffffffffff1673ffffffffffffffffffffffffffffffffffffffff168152602001600182018054600181600116156101000203166002900480601f0160208091040260200160405190810160405280929190818152602001828054600181600116156101000203166002900480156136315780601f1061360657610100808354040283529160200191613631565b820191906000526020600020905b81548152906001019060200180831161361457829003601f168201915b505050505081525050828281518110151561364857fe5b9060200190602002018190525080806001019150506134f8565b81935050505090565b600080600090505b82518110156136e1578373ffffffffffffffffffffffffffffffffffffffff1683828151811015156136a157fe5b906020019060200201516000015173ffffffffffffffffffffffffffffffffffffffff1614156136d457600191506136e6565b8080600101915050613673565b600091505b5092915050565b6000806136fa86866133ee565b90508060115460640302846001850103826011540281151561371857fe5b0401915050949350505050565b600061373383850183613a69565b90509392505050565b600061374c8686858701856136ed565b905095945050505050565b60006137638383613a69565b905092915050565b60008060008060008060008060008060009850600097506007805490509650600060068d81548110151561379b57fe5b9060005260206000209001548154811015156137b357fe5b906000526020600020906002020160000160009054906101000a900473ffffffffffffffffffffffffffffffffffffffff169550600060068c8154811015156137f857fe5b90600052602060002090015481548110151561381057fe5b906000526020600020906002020160000160009054906101000a900473ffffffffffffffffffffffffffffffffffffffff169450600093505b868410156139a65760028781151561385d57fe5b048911158015613879575060028781151561387457fe5b048811155b156139945760078481548110151561388d57fe5b9060005260206000209001805490509250600091505b8282101561398f576007848154811015156138ba57fe5b9060005260206000209001828154811015156138d257fe5b906000526020600020900160009054906101000a900473ffffffffffffffffffffffffffffffffffffffff1690508573ffffffffffffffffffffffffffffffffffffffff168173ffffffffffffffffffffffffffffffffffffffff16141561394157888060010199505061398f565b8473ffffffffffffffffffffffffffffffffffffffff168173ffffffffffffffffffffffffffffffffffffffff16141561398257878060010198505061398f565b81806001019250506138a3565b613999565b6139a6565b8380600101945050613849565b878911156139b757600099506139cd565b888811156139c857600199506139cd565b600299505b50505050505050505092915050565b6139e4613c07565b6139ec613c07565b600083516040518059106139fd5750595b90808252806020026020018201604052509150600090505b8351811015613a5f578381815181101515613a2c57fe5b906020019060200201518282815181101515613a4457fe5b90602001906020020181815250508080600101915050613a15565b8192505050919050565b6000606460115460640302836001840103606460115402811515613a8957fe5b0401905092915050565b602060405190810160405280600081525090565b6040805190810160405280600073ffffffffffffffffffffffffffffffffffffffff168152602001613ad7613f5f565b81525090565b815481835581811511613b0a57600202816002028360005260206000209182019101613b099190613f73565b5b505050565b828054600181600116156101000203166002900490600052602060002090601f016020900481019282601f10613b5057805160ff1916838001178555613b7e565b82800160010185558215613b7e579182015b82811115613b7d578251825591602001919060010190613b62565b5b509050613b8b9190613fc9565b5090565b815481835581811511613bbc57600202816002028360005260206000209182019101613bbb9190613f73565b5b505050565b815481835581811511613bee57600302816003028360005260206000209182019101613bed9190613fee565b5b505050565b602060405190810160405280600081525090565b602060405190810160405280600081525090565b602060405190810160405280600081525090565b602060405190810160405280600081525090565b60606040519081016040528060008152602001613c5e613c2f565b8152602001600081525090565b828054828255906000526020600020908101928215613ca7579160200282015b82811115613ca6578251825591602001919060010190613c8b565b5b509050613cb49190613fc9565b5090565b60606040519081016040528060008152602001613cd3613c2f565b8152602001600081525090565b815481835581811511613d0d57600302816003028360005260206000209182019101613d0c9190613fee565b5b505050565b828054828255906000526020600020908101928215613d4e579160200282015b82811115613d4d578251825591602001919060010190613d32565b5b509050613d5b9190613fc9565b5090565b815481835581811511613d8657818360005260206000209182019101613d859190613fc9565b5b505050565b602060405190810160405280600081525090565b815481835581811511613dc657818360005260206000209182019101613dc5919061402d565b5b505050565b815481835581811511613df257818360005260206000209182019101613df19190613fc9565b5b505050565b815481835581811511613e1e57818360005260206000209182019101613e1d919061402d565b5b505050565b828054828255906000526020600020908101928215613e9c579160200282015b82811115613e9b5782518260006101000a81548173ffffffffffffffffffffffffffffffffffffffff021916908373ffffffffffffffffffffffffffffffffffffffff16021790555091602001919060010190613e43565b5b509050613ea99190614059565b5090565b6040805190810160405280600073ffffffffffffffffffffffffffffffffffffffff168152602001613edd613f5f565b81525090565b815481835581811511613f1057600202816002028360005260206000209182019101613f0f919061409c565b5b505050565b602060405190810160405280600081525090565b6040805190810160405280600073ffffffffffffffffffffffffffffffffffffffff168152602001613f59613f5f565b81525090565b602060405190810160405280600081525090565b613fc691905b80821115613fc257600080820160006101000a81549073ffffffffffffffffffffffffffffffffffffffff0219169055600182016000613fb991906140f2565b50600201613f79565b5090565b90565b613feb91905b80821115613fe7576000816000905550600101613fcf565b5090565b90565b61402a91905b8082111561402657600080820160009055600182016000614015919061413a565b600282016000905550600301613ff4565b5090565b90565b61405691905b808211156140525760008181614049919061415b565b50600101614033565b5090565b90565b61409991905b8082111561409557600081816101000a81549073ffffffffffffffffffffffffffffffffffffffff02191690555060010161405f565b5090565b90565b6140ef91905b808211156140eb57600080820160006101000a81549073ffffffffffffffffffffffffffffffffffffffff02191690556001820160006140e291906140f2565b506002016140a2565b5090565b90565b50805460018160011615610100020316600290046000825580601f106141185750614137565b601f0160209004906000526020600020908101906141369190613fc9565b5b50565b50805460008255906000526020600020908101906141589190613fc9565b50565b50805460008255906000526020600020908101906141799190613fc9565b50565b61418581614557565b82525050565b60006141968261451c565b8084526020840193506141a8836144f0565b60005b828110156141da576141be86835161417c565b6141c78261453d565b91506020860195506001810190506141ab565b50849250505092915050565b60006141f182614527565b808452602084019350614203836144fd565b60005b828110156142355761421986835161437a565b6142228261454a565b9150602086019550600181019050614206565b50849250505092915050565b61424a81614577565b82525050565b600061425b82614532565b80845261426f81602086016020860161458d565b614278816145c9565b602085010191505092915050565b6000815460018116600081146142a357600181146142c357614304565b607f600283041680865260ff198316602087015260408601935050614304565b600282048086526020860195506142d98561450a565b60005b828110156142fb578154818901526001820191506020810190506142dc565b80880195505050505b505092915050565b6000600482527f6a616b65000000000000000000000000000000000000000000000000000000006020830152604082019050919050565b6000600282527f68690000000000000000000000000000000000000000000000000000000000006020830152604082019050919050565b61438381614583565b82525050565b600060208201905081810360008301526143a3818461418b565b905092915050565b600060208201905081810360008301526143c581846141e6565b905092915050565b60006020820190506143e26000830184614241565b92915050565b600060408201905081810360008301526144028185614250565b9050614411602083018461417c565b9392505050565b600060808201905081810360008301526144328187614250565b9050614441602083018661417c565b61444e604083018561437a565b818103606083015261446081846141e6565b905095945050505050565b600060408201905081810360008301526144858185614250565b905081810360208301526144998184614286565b90509392505050565b600060408201905081810360008301526144bb81614343565b905081810360208301526144ce8161430c565b9050919050565b60006020820190506144ea600083018461437a565b92915050565b6000602082019050919050565b6000602082019050919050565b60008160005260206000209050919050565b600081519050919050565b600081519050919050565b600081519050919050565b6000602082019050919050565b6000602082019050919050565b600073ffffffffffffffffffffffffffffffffffffffff82169050919050565b60008115159050919050565b6000819050919050565b60005b838110156145ab578082015181840152602081019050614590565b838114600081146145bb576145c2565b6000858501525b5050505050565b6000601f19601f83011690509190505600a265627a7a72305820d26789568e8859871376d871dbc0cf2da46b2fb6fe32781e268dfcf253b120156c6578706572696d656e74616cf50037",
  "source": "pragma solidity ^0.4.18;\r\npragma experimental ABIEncoderV2;\r\nimport \"./MyLib.sol\";\r\nimport \"./VotingClub.sol\";\r\ncontract BudgetClub is VotingClub {\r\n  uint public numberOfSinks;\r\n  uint public quota;\r\n  uint public gasCost;\r\n  uint public numberOfTurns;\r\n  uint public coalitionSizeFactor;\r\n  uint public coalitionSizeFactorIncrease;\r\n  MyLib.Sink[] listOfSinks;\r\n  uint[] public finalBudget;\r\n\r\n\r\n  function BudgetClub(uint cost, uint term, uint reps, uint sinks, uint q, uint gas, uint turns, uint sizeFactor, uint sizeFactorIncrease) VotingClub(cost,term,reps) public {\r\n    numberOfSinks = sinks;\r\n    quota = q;\r\n    gasCost = gas;\r\n    numberOfTurns = turns;\r\n    coalitionSizeFactor = sizeFactor;\r\n    coalitionSizeFactorIncrease = sizeFactorIncrease;\r\n  }\r\n\r\n  function sendOut() {\r\n    uint startingBalance = this.balance;\r\n    for(uint i = 0; i < listOfSinks.length; i ++)\r\n    {\r\n      listOfSinks[i].spender.transfer(startingBalance * finalBudget[i] / 100);\r\n    }\r\n    listOfSinks.length = 0;\r\n\r\n  }\r\n\r\n  function submitBudget(uint[] budget) public\r\n  {\r\n    if(budget.length == numberOfSinks)\r\n    {\r\n      for (uint i = 0; i < numberOfRepresentatives; i++)\r\n      {\r\n        if(registeredUser[listOfRepresentatives[i].u].myAddress == msg.sender)\r\n        {\r\n          listOfRepresentatives[i].budget = budget;\r\n        }\r\n      }\r\n    }\r\n  }\r\n  //who should be able to do this\r\n  function submitSink(address spender, string name) public\r\n  {\r\n    if(listOfSinks.length < numberOfSinks)\r\n    {\r\n      for (uint i = 0; i < numberOfRepresentatives; i++)\r\n      {\r\n        if(registeredUser[listOfRepresentatives[i].u].myAddress == msg.sender)\r\n        {\r\n          MyLib.Sink memory s;\r\n          s.name = name;\r\n          s.spender = spender;\r\n          listOfSinks.push(s);\r\n        }\r\n      }\r\n    }\r\n  }\r\n\r\n\r\n  function endBudgetSubmit() public\r\n  {\r\n    if(allSubmitted())\r\n    {\r\n      decideBudget();\r\n      listOfRepresentatives.length = 0;\r\n    }\r\n  }\r\n\r\n  function allSubmitted() internal constant returns (bool)\r\n  {\r\n    for (uint i = 0; i < numberOfRepresentatives; i++)\r\n    {\r\n      if(listOfRepresentatives[i].budget.length == 0)\r\n      {\r\n        return false;\r\n      }\r\n    }\r\n    return true;\r\n  }\r\n\r\n\r\n  function decideBudget() public\r\n  {\r\n    uint quotaMemory = quota;\r\n    uint numberOfRepresentativesMemory = numberOfRepresentatives;\r\n    uint[][] memory coalitionBudgets = new uint[][](numberOfRepresentativesMemory);\r\n    uint[] memory coalitionSize = new uint[](numberOfRepresentativesMemory);\r\n    uint[] memory playerToCoalition = new uint[](numberOfRepresentativesMemory);\r\n    MyLib.Agent[] memory playerToAgent = new MyLib.Agent[](numberOfRepresentativesMemory);\r\n    uint i;\r\n    //init\r\n    for (i = 0; i < numberOfRepresentativesMemory; i++)\r\n    {\r\n      playerToAgent[i] = listOfRepresentatives[i];\r\n      coalitionBudgets[i] =  playerToAgent[i].budget;\r\n      coalitionSize[i] = 1;\r\n      playerToCoalition[i] = i;\r\n    }\r\n\r\n    uint player = 0;\r\n    while(winningCoalition(playerToCoalition,numberOfRepresentativesMemory,playerToAgent) == numberOfRepresentativesMemory)\r\n    {\r\n      uint[] memory bestOffer = new uint[](2);\r\n      uint bestCoalition = numberOfRepresentativesMemory;\r\n      //get utility in the current coalition\r\n      uint myAfloor = afloor(coalitionBudgets[playerToCoalition[player]],playerToAgent[player].budget,coalitionSize[playerToCoalition[player]],quotaMemory);\r\n      for(i = 0; i < numberOfRepresentativesMemory; i ++)\r\n      {\r\n        //dont check coalitions with no one or the one your in\r\n        if(playerToCoalition[player] != i && coalitionSize[i] != 0)\r\n        {\r\n          uint[] memory nego = offer(coalitionBudgets[i],playerToAgent[player].budget,myAfloor,coalitionSize[i],playerToAgent[player].weight);\r\n          if(nego[0] > bestOffer[0])\r\n          {\r\n            bestOffer = nego;\r\n            bestCoalition = i;\r\n          }\r\n        }\r\n\r\n      }\r\n\r\n      if(bestCoalition != numberOfRepresentativesMemory)\r\n      {\r\n        coalitionBudgets[bestCoalition] = negoToBudget(playerToAgent[player].budget, coalitionBudgets[bestCoalition], bestOffer, coalitionSize[bestCoalition] + playerToAgent[player].weight);\r\n        coalitionSize[playerToCoalition[player]] -= playerToAgent[player].weight;\r\n        coalitionSize[bestCoalition] += playerToAgent[player].weight;\r\n        playerToCoalition[player] = bestCoalition;\r\n\r\n      }\r\n\r\n      if(player == numberOfRepresentativesMemory - 1)\r\n      {\r\n        player = 0;\r\n      }\r\n      else{\r\n        player ++;\r\n      }\r\n      coalitionSizeFactor += coalitionSizeFactorIncrease;\r\n\r\n    }\r\n\r\n    finalBudget = coalitionBudgets[winningCoalition(playerToCoalition,numberOfRepresentativesMemory,playerToAgent)];\r\n\r\n  }\r\n\r\n  function offer(uint[] budgetCoal, uint[] budgeta, uint myAfloor, uint coalSize, uint agentWeight) constant internal returns (uint[])\r\n  {\r\n    uint quotaMemory = quota;\r\n    uint myAbar = abar(coalSize, agentWeight, quotaMemory);\r\n    uint myBbar = bbar(budgeta, budgetCoal, coalSize, agentWeight, quotaMemory);\r\n    uint myBfloor = bfloor(coalSize, quotaMemory);\r\n    if(myAfloor + myBfloor < myAbar + myBbar)\r\n    {\r\n      return negotiate(myAbar, myBbar ,myAfloor, myBfloor);\r\n    }\r\n    else{\r\n      return new uint[](2);\r\n    }\r\n  }\r\n\r\n  function afloor(uint[] budgetCoala, uint[] budgeta, uint coalSizea, uint quotaMemory ) constant internal returns (uint)\r\n  {\r\n    return calculateUtility(budgetCoala,budgeta,coalSizea,quotaMemory);\r\n  }\r\n  function bfloor(uint coalSize,  uint quotaMemory) constant internal returns (uint)\r\n  {\r\n    return calculate100Utility(coalSize,quotaMemory);\r\n  }\r\n  function abar(uint coalSize, uint agentWeight,  uint quotaMemory) constant internal returns (uint)\r\n  {\r\n    return calculate100Utility(coalSize + agentWeight,quotaMemory);\r\n  }\r\n  function bbar(uint[] budgetCoal, uint[] budgeta, uint coalSize, uint agentWeight,  uint quotaMemory) constant internal returns (uint)\r\n  {\r\n    return calculateUtility(budgetCoal,budgeta,coalSize + agentWeight,quotaMemory);\r\n  }\r\n  function winningCoalition(uint[] playerToCoalition, uint numberOfRepresentativesMemory,MyLib.Agent[] playerToAgent ) constant internal returns (uint)\r\n  {\r\n    uint[] memory weights = new uint[](numberOfRepresentativesMemory);\r\n    //add all the weights\r\n    for (uint i = 0; i < numberOfRepresentativesMemory ; i++)\r\n    {\r\n      weights[playerToCoalition[i]] += playerToAgent[i].weight;\r\n    }\r\n    for (i = 0; i < numberOfRepresentativesMemory ; i++)\r\n    {\r\n      if(weights[i] >= quota)\r\n      {\r\n        return i;\r\n      }\r\n    }\r\n    return numberOfRepresentativesMemory;\r\n  }\r\n\r\n  function calculate100Utility(uint coalitionSize,  uint quotaMemory) constant internal returns (uint)\r\n  {\r\n    return (uint) ((coalitionSizeFactor * 100) / (quotaMemory + 1 - coalitionSize) + ((100-coalitionSizeFactor) * 100));\r\n  }\r\n\r\n  function calculateUtility(uint[] budget1,uint[] budget2, uint coalitionSize,  uint quotaMemory) constant internal returns (uint)\r\n  {\r\n    uint shared = sharedBudget(budget1,budget2);\r\n    return (uint) ((coalitionSizeFactor * shared) / (quotaMemory + 1 - coalitionSize) + ((100-coalitionSizeFactor) * shared));\r\n  }\r\n\r\n  function sharedBudget(uint[] budget1,uint[] budget2) constant internal returns (uint)\r\n  {\r\n    uint shared = 0;\r\n    for(uint i = 0; i < budget1.length; i ++)\r\n    {\r\n      if(budget1[i] > budget2[i])\r\n      {\r\n        shared += budget2[i];\r\n      }\r\n      else{\r\n        shared += budget1[i];\r\n      }\r\n    }\r\n    return shared;\r\n  }\r\n  function negotiate(uint a_bar,uint b_bar,uint a_floor,uint b_floor)constant  public returns (uint[])\r\n  {\r\n    uint gasCostMemory = gasCost;\r\n    uint usefulTurn = ((a_bar + b_bar - a_floor - b_floor - 2) / gasCostMemory) + 1;\r\n    uint[] memory proposal = new uint[](2);\r\n\r\n    uint numberOfTurnsMemory = numberOfTurns;\r\n    if(usefulTurn > numberOfTurnsMemory)\r\n    {\r\n      usefulTurn = numberOfTurnsMemory;\r\n\r\n    }\r\n    uint freeUtility = a_bar + b_bar - ((usefulTurn - 1) * gasCostMemory) - a_floor - b_floor - 2;\r\n    if(usefulTurn % 2 == 0)\r\n    {\r\n      proposal[1] = b_floor + 1 + freeUtility + (((usefulTurn/ 2)-1) * gasCostMemory) + 1;\r\n      proposal[0] = a_bar + b_bar -  proposal[1];\r\n    }\r\n    else\r\n    {\r\n      proposal[0] = a_floor + 1 + freeUtility +  ((((usefulTurn + 1)/ 2)-1) * gasCostMemory);\r\n      proposal[1] = a_bar + b_bar -  proposal[0];\r\n    }\r\n    //cant go over the best amount\r\n    if(proposal[0] > a_bar)\r\n    {\r\n      proposal[1] +=  proposal[0] - a_bar;\r\n      proposal[0] = a_bar;\r\n    }\r\n    else if(proposal[1] > a_bar)\r\n    {\r\n      proposal[0] +=  proposal[1] - a_bar;\r\n      proposal[1] = a_bar;\r\n    }\r\n\r\n\r\n    return proposal;\r\n\r\n\r\n\r\n  }\r\n\r\n  function negoToBudget(uint[] budget1, uint [] budget2, uint[] nego, uint coalitionSize) constant public returns (uint[])\r\n  {\r\n    uint[] memory newBudget = new uint[](budget1.length);\r\n\r\n    uint sharedab = sharedBudget(budget1,budget2);\r\n\r\n    uint quotaMemory = quota;\r\n    uint individuala = (uint) (nego[0] / ((coalitionSizeFactor / (quotaMemory + 1 - coalitionSize)) + (100 - coalitionSizeFactor)) - sharedab);\r\n    uint individualb = (uint) (nego[1] / ((coalitionSizeFactor / (quotaMemory + 1 - coalitionSize)) + (100 - coalitionSizeFactor))- sharedab);\r\n\r\n\r\n    uint suma = 0;\r\n    uint sumb = 0;\r\n\r\n    for(uint i = 0; i < budget1.length; i ++)\r\n    {\r\n      if(budget1[i] > budget2[i])\r\n      {\r\n        suma += budget1[i];\r\n      }\r\n      else{\r\n        sumb += budget2[i];\r\n      }\r\n    }\r\n\r\n    uint total = 0;\r\n    for(i = 0; i < budget1.length; i ++)\r\n    {\r\n      if(budget1[i] > budget2[i])\r\n      {\r\n        total +=  budget2[i] + individuala * budget1[i] / suma;\r\n        newBudget[i] = budget2[i] + individuala * budget1[i] / suma;\r\n      }\r\n      else{\r\n        total +=  budget1[i] + individualb * budget2[i] / sumb;\r\n        newBudget[i] = budget1[i] + individualb * budget2[i] / sumb;\r\n      }\r\n    }\r\n    uint z = 0;\r\n    while(total < 100)\r\n    {\r\n      newBudget[z] += 1;\r\n      total +=1;\r\n      if(z == budget1.length - 1)\r\n      {\r\n        z = 0;\r\n      }\r\n      else\r\n      {\r\n        z ++;\r\n      }\r\n    }\r\n\r\n\r\n    return newBudget;\r\n  }\r\n\r\n  function listSinks(uint number) public constant returns (string,address) {\r\n\r\n    return (listOfSinks[number].name, listOfSinks[number].spender);\r\n  }\r\n\r\n  function getSinksLength() public constant returns (uint)\r\n  {\r\n    return listOfSinks.length;\r\n  }\r\n\r\n  function listFinalBudget(uint number) public constant returns(uint)\r\n  {\r\n    return finalBudget[number];\r\n  }\r\n\r\n\r\n}\r\n",
  "sourcePath": "C:\\Users\\JakeL\\Desktop\\MultiAgentSystemsOnTheBlockChain\\contracts\\BudgetClub.sol",
  "compiler": {
    "name": "solc",
    "version": "0.4.18+commit.9cf6e910.Emscripten.clang"
  },
  "schemaVersion": "1.0.1",
  "updatedAt": "2018-04-20T14:25:39.651Z"
}