{
  "contractName": "BudgetClub",
  "abi": [
    {
      "constant": true,
      "inputs": [
        {
          "name": "number",
          "type": "uint256"
        }
      ],
      "name": "listRegisteredUsers",
      "outputs": [
        {
          "name": "",
          "type": "string"
        },
        {
          "name": "",
          "type": "address"
        }
      ],
      "payable": false,
      "stateMutability": "view",
      "type": "function"
    },
    {
      "constant": true,
      "inputs": [
        {
          "name": "",
          "type": "uint256"
        }
      ],
      "name": "submittedSink",
      "outputs": [
        {
          "name": "",
          "type": "uint256"
        }
      ],
      "payable": false,
      "stateMutability": "view",
      "type": "function"
    },
    {
      "constant": false,
      "inputs": [
        {
          "name": "spender",
          "type": "address"
        },
        {
          "name": "name",
          "type": "string"
        }
      ],
      "name": "submitSink",
      "outputs": [],
      "payable": false,
      "stateMutability": "nonpayable",
      "type": "function"
    },
    {
      "constant": true,
      "inputs": [],
      "name": "timeVoteStarted",
      "outputs": [
        {
          "name": "",
          "type": "uint256"
        }
      ],
      "payable": false,
      "stateMutability": "view",
      "type": "function"
    },
    {
      "constant": true,
      "inputs": [],
      "name": "getCandidatesLength",
      "outputs": [
        {
          "name": "",
          "type": "uint256"
        }
      ],
      "payable": false,
      "stateMutability": "view",
      "type": "function"
    },
    {
      "constant": true,
      "inputs": [],
      "name": "getRegisteredUsersLength",
      "outputs": [
        {
          "name": "",
          "type": "uint256"
        }
      ],
      "payable": false,
      "stateMutability": "view",
      "type": "function"
    },
    {
      "constant": false,
      "inputs": [],
      "name": "sendOut",
      "outputs": [],
      "payable": false,
      "stateMutability": "nonpayable",
      "type": "function"
    },
    {
      "constant": true,
      "inputs": [],
      "name": "gasCost",
      "outputs": [
        {
          "name": "",
          "type": "uint256"
        }
      ],
      "payable": false,
      "stateMutability": "view",
      "type": "function"
    },
    {
      "constant": true,
      "inputs": [
        {
          "name": "number",
          "type": "uint256"
        }
      ],
      "name": "listCandidates",
      "outputs": [
        {
          "name": "",
          "type": "string"
        },
        {
          "name": "",
          "type": "address"
        }
      ],
      "payable": false,
      "stateMutability": "view",
      "type": "function"
    },
    {
      "constant": false,
      "inputs": [],
      "name": "endBudgetSubmit",
      "outputs": [],
      "payable": false,
      "stateMutability": "nonpayable",
      "type": "function"
    },
    {
      "constant": true,
      "inputs": [],
      "name": "numberOfSinks",
      "outputs": [
        {
          "name": "",
          "type": "uint256"
        }
      ],
      "payable": false,
      "stateMutability": "view",
      "type": "function"
    },
    {
      "constant": false,
      "inputs": [],
      "name": "decideBudget",
      "outputs": [],
      "payable": false,
      "stateMutability": "nonpayable",
      "type": "function"
    },
    {
      "constant": false,
      "inputs": [],
      "name": "startVote",
      "outputs": [],
      "payable": false,
      "stateMutability": "nonpayable",
      "type": "function"
    },
    {
      "constant": false,
      "inputs": [
        {
          "name": "ranked",
          "type": "uint256[]"
        }
      ],
      "name": "weightCandidates",
      "outputs": [],
      "payable": false,
      "stateMutability": "nonpayable",
      "type": "function"
    },
    {
      "constant": true,
      "inputs": [
        {
          "name": "number",
          "type": "uint256"
        }
      ],
      "name": "showVotes",
      "outputs": [
        {
          "name": "",
          "type": "address[]"
        }
      ],
      "payable": false,
      "stateMutability": "view",
      "type": "function"
    },
    {
      "constant": false,
      "inputs": [
        {
          "name": "budget",
          "type": "uint256[]"
        }
      ],
      "name": "submitBudget",
      "outputs": [],
      "payable": false,
      "stateMutability": "nonpayable",
      "type": "function"
    },
    {
      "constant": true,
      "inputs": [],
      "name": "coalitionSizeFactorIncrease",
      "outputs": [
        {
          "name": "",
          "type": "uint256"
        }
      ],
      "payable": false,
      "stateMutability": "view",
      "type": "function"
    },
    {
      "constant": false,
      "inputs": [
        {
          "name": "suggestion",
          "type": "uint256"
        }
      ],
      "name": "changeRegistrationCostSuggestion",
      "outputs": [],
      "payable": false,
      "stateMutability": "nonpayable",
      "type": "function"
    },
    {
      "constant": true,
      "inputs": [],
      "name": "termLength",
      "outputs": [
        {
          "name": "",
          "type": "uint256"
        }
      ],
      "payable": false,
      "stateMutability": "view",
      "type": "function"
    },
    {
      "constant": true,
      "inputs": [
        {
          "name": "number",
          "type": "uint256"
        }
      ],
      "name": "listFinalBudget",
      "outputs": [
        {
          "name": "",
          "type": "uint256"
        }
      ],
      "payable": false,
      "stateMutability": "view",
      "type": "function"
    },
    {
      "constant": false,
      "inputs": [],
      "name": "subsidize",
      "outputs": [],
      "payable": true,
      "stateMutability": "payable",
      "type": "function"
    },
    {
      "constant": false,
      "inputs": [
        {
          "name": "data",
          "type": "uint256[]"
        }
      ],
      "name": "sort",
      "outputs": [
        {
          "name": "",
          "type": "uint256[]"
        }
      ],
      "payable": false,
      "stateMutability": "nonpayable",
      "type": "function"
    },
    {
      "constant": true,
      "inputs": [],
      "name": "coalitionSizeFactor",
      "outputs": [
        {
          "name": "",
          "type": "uint256"
        }
      ],
      "payable": false,
      "stateMutability": "view",
      "type": "function"
    },
    {
      "constant": false,
      "inputs": [],
      "name": "changeRegistrationCost",
      "outputs": [],
      "payable": false,
      "stateMutability": "nonpayable",
      "type": "function"
    },
    {
      "constant": true,
      "inputs": [
        {
          "name": "",
          "type": "uint256"
        }
      ],
      "name": "finalBudget",
      "outputs": [
        {
          "name": "",
          "type": "uint256"
        }
      ],
      "payable": false,
      "stateMutability": "view",
      "type": "function"
    },
    {
      "constant": true,
      "inputs": [],
      "name": "numberOfRepresentatives",
      "outputs": [
        {
          "name": "",
          "type": "uint256"
        }
      ],
      "payable": false,
      "stateMutability": "view",
      "type": "function"
    },
    {
      "constant": true,
      "inputs": [
        {
          "name": "",
          "type": "address"
        }
      ],
      "name": "voted",
      "outputs": [
        {
          "name": "",
          "type": "bool"
        }
      ],
      "payable": false,
      "stateMutability": "view",
      "type": "function"
    },
    {
      "constant": true,
      "inputs": [
        {
          "name": "number",
          "type": "uint256"
        }
      ],
      "name": "listSinks",
      "outputs": [
        {
          "name": "",
          "type": "string"
        },
        {
          "name": "",
          "type": "address"
        }
      ],
      "payable": false,
      "stateMutability": "view",
      "type": "function"
    },
    {
      "constant": false,
      "inputs": [],
      "name": "endVote",
      "outputs": [],
      "payable": false,
      "stateMutability": "nonpayable",
      "type": "function"
    },
    {
      "constant": true,
      "inputs": [],
      "name": "sayhi",
      "outputs": [],
      "payable": false,
      "stateMutability": "view",
      "type": "function"
    },
    {
      "constant": true,
      "inputs": [],
      "name": "checkRegistrationSuggestions",
      "outputs": [
        {
          "name": "",
          "type": "uint256"
        }
      ],
      "payable": false,
      "stateMutability": "view",
      "type": "function"
    },
    {
      "constant": true,
      "inputs": [],
      "name": "getSinksLength",
      "outputs": [
        {
          "name": "",
          "type": "uint256"
        }
      ],
      "payable": false,
      "stateMutability": "view",
      "type": "function"
    },
    {
      "constant": true,
      "inputs": [],
      "name": "quota",
      "outputs": [
        {
          "name": "",
          "type": "uint256"
        }
      ],
      "payable": false,
      "stateMutability": "view",
      "type": "function"
    },
    {
      "constant": true,
      "inputs": [],
      "name": "voteStarted",
      "outputs": [
        {
          "name": "",
          "type": "bool"
        }
      ],
      "payable": false,
      "stateMutability": "view",
      "type": "function"
    },
    {
      "constant": true,
      "inputs": [],
      "name": "getRepresentivesLength",
      "outputs": [
        {
          "name": "",
          "type": "uint256"
        }
      ],
      "payable": false,
      "stateMutability": "view",
      "type": "function"
    },
    {
      "constant": true,
      "inputs": [
        {
          "name": "budget1",
          "type": "uint256[]"
        },
        {
          "name": "budget2",
          "type": "uint256[]"
        },
        {
          "name": "nego",
          "type": "uint256[]"
        },
        {
          "name": "coalitionSize",
          "type": "uint256"
        }
      ],
      "name": "negoToBudget",
      "outputs": [
        {
          "name": "",
          "type": "uint256[]"
        }
      ],
      "payable": false,
      "stateMutability": "view",
      "type": "function"
    },
    {
      "constant": false,
      "inputs": [],
      "name": "apply",
      "outputs": [],
      "payable": false,
      "stateMutability": "nonpayable",
      "type": "function"
    },
    {
      "constant": true,
      "inputs": [],
      "name": "registrationCost",
      "outputs": [
        {
          "name": "",
          "type": "uint256"
        }
      ],
      "payable": false,
      "stateMutability": "view",
      "type": "function"
    },
    {
      "constant": true,
      "inputs": [],
      "name": "getContractValue",
      "outputs": [
        {
          "name": "",
          "type": "uint256"
        }
      ],
      "payable": false,
      "stateMutability": "view",
      "type": "function"
    },
    {
      "constant": true,
      "inputs": [
        {
          "name": "text",
          "type": "string"
        }
      ],
      "name": "chat",
      "outputs": [],
      "payable": false,
      "stateMutability": "view",
      "type": "function"
    },
    {
      "constant": true,
      "inputs": [
        {
          "name": "number",
          "type": "uint256"
        }
      ],
      "name": "listRepresentives",
      "outputs": [
        {
          "name": "",
          "type": "string"
        },
        {
          "name": "",
          "type": "address"
        },
        {
          "name": "",
          "type": "uint256"
        },
        {
          "name": "",
          "type": "uint256[]"
        }
      ],
      "payable": false,
      "stateMutability": "view",
      "type": "function"
    },
    {
      "constant": true,
      "inputs": [],
      "name": "numberOfTurns",
      "outputs": [
        {
          "name": "",
          "type": "uint256"
        }
      ],
      "payable": false,
      "stateMutability": "view",
      "type": "function"
    },
    {
      "constant": true,
      "inputs": [
        {
          "name": "a_bar",
          "type": "uint256"
        },
        {
          "name": "b_bar",
          "type": "uint256"
        },
        {
          "name": "a_floor",
          "type": "uint256"
        },
        {
          "name": "b_floor",
          "type": "uint256"
        }
      ],
      "name": "negotiate",
      "outputs": [
        {
          "name": "",
          "type": "uint256[]"
        }
      ],
      "payable": false,
      "stateMutability": "view",
      "type": "function"
    },
    {
      "constant": true,
      "inputs": [],
      "name": "timeVoteEnded",
      "outputs": [
        {
          "name": "",
          "type": "uint256"
        }
      ],
      "payable": false,
      "stateMutability": "view",
      "type": "function"
    },
    {
      "constant": false,
      "inputs": [
        {
          "name": "myVote",
          "type": "address[]"
        }
      ],
      "name": "vote",
      "outputs": [],
      "payable": false,
      "stateMutability": "nonpayable",
      "type": "function"
    },
    {
      "constant": false,
      "inputs": [
        {
          "name": "name",
          "type": "string"
        }
      ],
      "name": "register",
      "outputs": [],
      "payable": true,
      "stateMutability": "payable",
      "type": "function"
    },
    {
      "inputs": [
        {
          "name": "cost",
          "type": "uint256"
        },
        {
          "name": "term",
          "type": "uint256"
        },
        {
          "name": "reps",
          "type": "uint256"
        },
        {
          "name": "sinks",
          "type": "uint256"
        },
        {
          "name": "q",
          "type": "uint256"
        },
        {
          "name": "gas",
          "type": "uint256"
        },
        {
          "name": "turns",
          "type": "uint256"
        },
        {
          "name": "sizeFactor",
          "type": "uint256"
        },
        {
          "name": "sizeFactorIncrease",
          "type": "uint256"
        }
      ],
      "payable": false,
      "stateMutability": "nonpayable",
      "type": "constructor"
    },
    {
      "anonymous": false,
      "inputs": [
        {
          "indexed": false,
          "name": "message",
          "type": "string"
        },
        {
          "indexed": false,
          "name": "name",
          "type": "string"
        }
      ],
      "name": "message",
      "type": "event"
    }
  ],
  "bytecode": "0x60606040526000600960006101000a81548160ff0219169083151502179055506000600a556000600b556000600c55341561003957600080fd5b604051610120806200479883398101604052808051906020019091908051906020019091908051906020019091908051906020019091908051906020019091908051906020019091908051906020019091908051906020019091908051906020019091905050888888828060018190555050816003819055508060048190555050505085600e8190555084600f8190555083601081905550826011819055508160128190555080601381905550600187878115156100f357fe5b040160178190555050505050505050505061468480620001146000396000f300606060405260043610610230576000357c0100000000000000000000000000000000000000000000000000000000900463ffffffff1680630cf35f441461023557806310c432f21461026d57806313dcd43e146102a4578063161893d0146103205780631859df65146103495780631afad36d146103725780631b0d3f401461039b5780631d5e3fe5146103b057806322ca968b146103d957806326f9098b146104115780632cd152201461042657806347792fc51461044f5780634c0a6af0146104645780635846fc46146104795780636687d4fe146104d35780636904d2411461050a578063717a55d2146105645780637392445a1461058d57806379b18cd1146105b05780638b2e4883146105d957806390f10ed1146106105780639ec8b0261461061a578063a5982ddb14610688578063a90cc0d9146106b1578063ad012af0146106c6578063ae0689ac146106fd578063aec2ccae14610726578063af0ab71514610773578063b9223946146107ab578063bc9c707d146107c0578063c0fc41e6146107d5578063c6214bf1146107fe578063cebe09c914610827578063d0dc018014610850578063d5268b2214610879578063d87311aa146108a2578063db595b3b14610999578063dc4a7f7f146109ae578063dc82697c146109d7578063de8caa1e14610a00578063dee6472f14610a5d578063e0abab9e14610a97578063e32ba07814610ac0578063ed00af9814610b12578063ed08132914610b3b578063f2c298be14610b95575b600080fd5b341561024057600080fd5b6102566004808035906020019091905050610be7565b604051610264929190614458565b60405180910390f35b341561027857600080fd5b61028e6004808035906020019091905050610cf6565b60405161029b9190614545565b60405180910390f35b34156102af57600080fd5b61031e600480803573ffffffffffffffffffffffffffffffffffffffff1690602001909190803590602001908201803590602001908080601f01602080910402602001604051908101604052809392919081815260200183838082843782019150505050505091905050610d0e565b005b341561032b57600080fd5b610333610ef3565b6040516103409190614545565b60405180910390f35b341561035457600080fd5b61035c610ef9565b6040516103699190614545565b60405180910390f35b341561037d57600080fd5b610385610f06565b6040516103929190614545565b60405180910390f35b34156103a657600080fd5b6103ae610f12565b005b34156103bb57600080fd5b6103c361100a565b6040516103d09190614545565b60405180910390f35b34156103e457600080fd5b6103fa6004808035906020019091905050611010565b604051610408929190614458565b60405180910390f35b341561041c57600080fd5b610424611153565b005b341561043157600080fd5b61043961118e565b6040516104469190614545565b60405180910390f35b341561045a57600080fd5b610462611194565b005b341561046f57600080fd5b610477611776565b005b341561048457600080fd5b6104d16004808035906020019082018035906020019080806020026020016040519081016040528093929190818152602001838360200280828437820191505050505050919050506117c8565b005b34156104de57600080fd5b6104f460048080359060200190919050506118c5565b60405161050191906143f9565b60405180910390f35b341561051557600080fd5b610562600480803590602001908201803590602001908080602002602001604051908101604052809392919081815260200183836020028082843782019150505050505091905050611973565b005b341561056f57600080fd5b610577611a6b565b6040516105849190614545565b60405180910390f35b341561059857600080fd5b6105ae6004808035906020019091905050611a71565b005b34156105bb57600080fd5b6105c3611b22565b6040516105d09190614545565b60405180910390f35b34156105e457600080fd5b6105fa6004808035906020019091905050611b28565b6040516106079190614545565b60405180910390f35b610618611b4c565b005b341561062557600080fd5b610672600480803590602001908201803590602001908080602002602001604051908101604052809392919081815260200183836020028082843782019150505050505091905050611b4e565b60405161067f919061441b565b60405180910390f35b341561069357600080fd5b61069b611b6e565b6040516106a89190614545565b60405180910390f35b34156106bc57600080fd5b6106c4611b74565b005b34156106d157600080fd5b6106e76004808035906020019091905050611b96565b6040516106f49190614545565b60405180910390f35b341561070857600080fd5b610710611bba565b60405161071d9190614545565b60405180910390f35b341561073157600080fd5b61075d600480803573ffffffffffffffffffffffffffffffffffffffff16906020019091905050611bc0565b60405161076a919061443d565b60405180910390f35b341561077e57600080fd5b6107946004808035906020019091905050611be0565b6040516107a2929190614458565b60405180910390f35b34156107b657600080fd5b6107be611cf0565b005b34156107cb57600080fd5b6107d3611d6b565b005b34156107e057600080fd5b6107e8611da2565b6040516107f59190614545565b60405180910390f35b341561080957600080fd5b610811611e5c565b60405161081e9190614545565b60405180910390f35b341561083257600080fd5b61083a611e69565b6040516108479190614545565b60405180910390f35b341561085b57600080fd5b610863611e6f565b604051610870919061443d565b60405180910390f35b341561088457600080fd5b61088c611e82565b6040516108999190614545565b60405180910390f35b34156108ad57600080fd5b6109836004808035906020019082018035906020019080806020026020016040519081016040528093929190818152602001838360200280828437820191505050505050919080359060200190820180359060200190808060200260200160405190810160405280939291908181526020018383602002808284378201915050505050509190803590602001908201803590602001908080602002602001604051908101604052809392919081815260200183836020028082843782019150505050505091908035906020019091905050611e8f565b604051610990919061441b565b60405180910390f35b34156109a457600080fd5b6109ac6121fc565b005b34156109b957600080fd5b6109c16122d6565b6040516109ce9190614545565b60405180910390f35b34156109e257600080fd5b6109ea6122dc565b6040516109f79190614545565b60405180910390f35b3415610a0b57600080fd5b610a5b600480803590602001908201803590602001908080601f016020809104026020016040519081016040528093929190818152602001838380828437820191505050505050919050506122fb565b005b3415610a6857600080fd5b610a7e60048080359060200190919050506123ec565b604051610a8e9493929190614488565b60405180910390f35b3415610aa257600080fd5b610aaa6125de565b604051610ab79190614545565b60405180910390f35b3415610acb57600080fd5b610afc60048080359060200190919080359060200190919080359060200190919080359060200190919050506125e4565b604051610b09919061441b565b60405180910390f35b3415610b1d57600080fd5b610b2561286f565b604051610b329190614545565b60405180910390f35b3415610b4657600080fd5b610b93600480803590602001908201803590602001908080602002602001604051908101604052809392919081815260200183836020028082843782019150505050505091905050612875565b005b610be5600480803590602001908201803590602001908080601f01602080910402602001604051908101604052809392919081815260200183838082843782019150505050505091905050612ae6565b005b610bef613b03565b60008083815481101515610bff57fe5b9060005260206000209060020201600101600084815481101515610c1f57fe5b906000526020600020906002020160000160009054906101000a900473ffffffffffffffffffffffffffffffffffffffff16818054600181600116156101000203166002900480601f016020809104026020016040519081016040528092919081815260200182805460018160011615610100020316600290048015610ce65780601f10610cbb57610100808354040283529160200191610ce6565b820191906000526020600020905b815481529060010190602001808311610cc957829003601f168201915b5050505050915091509150915091565b60166020528060005260406000206000915090505481565b6000610d18613b17565b600e546014805490501015610eed57600091505b600454821015610eec573373ffffffffffffffffffffffffffffffffffffffff166000600584815481101515610d5e57fe5b906000526020600020906003020160000154815481101515610d7c57fe5b906000526020600020906002020160000160009054906101000a900473ffffffffffffffffffffffffffffffffffffffff1673ffffffffffffffffffffffffffffffffffffffff16148015610de557506017546016600084815260200190815260200160002054105b15610edf5782816020018190525083816000019073ffffffffffffffffffffffffffffffffffffffff16908173ffffffffffffffffffffffffffffffffffffffff168152505060148054806001018281610e3f9190613b4d565b9160005260206000209060020201600083909190915060008201518160000160006101000a81548173ffffffffffffffffffffffffffffffffffffffff021916908373ffffffffffffffffffffffffffffffffffffffff1602179055506020820151816001019080519060200190610eb8929190613b7f565b50505050600160166000848152602001908152602001600020600082825401925050819055505b8180600101925050610d2c565b5b50505050565b600a5481565b6000600680549050905090565b60008080549050905090565b6000803073ffffffffffffffffffffffffffffffffffffffff16319150600090505b601480549050811015610ff657601481815481101515610f5057fe5b906000526020600020906002020160000160009054906101000a900473ffffffffffffffffffffffffffffffffffffffff1673ffffffffffffffffffffffffffffffffffffffff166108fc6064601584815481101515610fac57fe5b9060005260206000209001548502811515610fc357fe5b049081150290604051600060405180830381858888f193505050501515610fe957600080fd5b8080600101915050610f34565b60006014816110059190613bff565b505050565b60105481565b611018613b03565b60008060068481548110151561102a57fe5b90600052602060002090015481548110151561104257fe5b9060005260206000209060020201600101600060068581548110151561106457fe5b90600052602060002090015481548110151561107c57fe5b906000526020600020906002020160000160009054906101000a900473ffffffffffffffffffffffffffffffffffffffff16818054600181600116156101000203166002900480601f0160208091040260200160405190810160405280929190818152602001828054600181600116156101000203166002900480156111435780601f1061111857610100808354040283529160200191611143565b820191906000526020600020905b81548152906001019060200180831161112657829003601f168201915b5050505050915091509150915091565b60006005805490501415801561116e5750426103e8600b5401105b1561118c5761117b611194565b600060058161118a9190613c31565b505b565b600e5481565b60008061119f613c63565b6111a7613c77565b6111af613c77565b6111b7613c8b565b6000806111c2613c77565b6000806111cd613c77565b600f549b506004549a508a6040518059106111e55750595b90808252806020026020018201604052801561121b57816020015b611208613c9f565b8152602001906001900390816112005790505b5099508a60405180591061122c5750595b908082528060200260200182016040525098508a60405180591061124d5750595b908082528060200260200182016040525097508a60405180591061126e5750595b9080825280602002602001820160405280156112a457816020015b611291613cb3565b8152602001906001900390816112895790505b509650600095505b8a8610156113e3576005868154811015156112c357fe5b906000526020600020906003020160606040519081016040529081600082015481526020016001820180548060200260200160405190810160405280929190818152602001828054801561133657602002820191906000526020600020905b815481526020019060010190808311611322575b50505050508152602001600282015481525050878781518110151561135757fe5b90602001906020020181905250868681518110151561137257fe5b90602001906020020151602001518a8781518110151561138e57fe5b90602001906020020181905250600189878151811015156113ab57fe5b90602001906020020181815250508588878151811015156113c857fe5b906020019060200201818152505085806001019650506112ac565b600094505b8a6113f4898d8a612d53565b14156117305760026040518059106114095750595b908082528060200260200182016040525093508a92506114a28a898781518110151561143157fe5b9060200190602002015181518110151561144757fe5b90602001906020020151888781518110151561145f57fe5b90602001906020020151602001518b8b8981518110151561147c57fe5b9060200190602002015181518110151561149257fe5b906020019060200201518f612e40565b9150600095505b8a8610156115b5578588868151811015156114c057fe5b90602001906020020151141580156114f05750600089878151811015156114e357fe5b9060200190602002015114155b156115a8576115668a8781518110151561150657fe5b90602001906020020151888781518110151561151e57fe5b9060200190602002015160200151848c8a81518110151561153b57fe5b906020019060200201518b8a81518110151561155357fe5b9060200190602002015160400151612e58565b905083600081518110151561157757fe5b9060200190602002015181600081518110151561159057fe5b9060200190602002015111156115a7578093508592505b5b85806001019650506114a9565b8a831415156116fc5761163087868151811015156115cf57fe5b90602001906020020151602001518b858151811015156115eb57fe5b90602001906020020151868a8981518110151561160457fe5b90602001906020020151604001518d8881518110151561162057fe5b9060200190602002015101611e8f565b8a8481518110151561163e57fe5b90602001906020020181905250868581518110151561165957fe5b906020019060200201516040015189898781518110151561167657fe5b9060200190602002015181518110151561168c57fe5b906020019060200201818151039150818152505086858151811015156116ae57fe5b906020019060200201516040015189848151811015156116ca57fe5b90602001906020020181815101915081815250508288868151811015156116ed57fe5b90602001906020020181815250505b60018b038514156117105760009450611719565b84806001019550505b6013546012600082825401925050819055506113e8565b8961173c898d8a612d53565b81518110151561174857fe5b9060200190602002015160159080519060200190611767929190613cdb565b50505050505050505050505050565b42600354600b540110801561179e575060001515600960009054906101000a900460ff161515145b156117c6576001600960006101000a81548160ff02191690831515021790555042600a819055505b565b6000806117d3613d28565b600d549250600091505b6004548210156118bf57600684838151811015156117f757fe5b9060200190602002015181548110151561180d57fe5b906000526020600020900154816000018181525050600083141561183b576001816040018181525050611854565b60018314156118535781600454038160400181815250505b5b600580548060010182816118689190613d50565b916000526020600020906003020160008390919091506000820151816000015560208201518160010190805190602001906118a4929190613d82565b506040820151816002015550505081806001019250506117dd565b50505050565b6118cd613dcf565b6007828154811015156118dc57fe5b906000526020600020900180548060200260200160405190810160405280929190818152602001828054801561196757602002820191906000526020600020905b8160009054906101000a900473ffffffffffffffffffffffffffffffffffffffff1673ffffffffffffffffffffffffffffffffffffffff168152602001906001019080831161191d575b50505050509050919050565b6000600e5482511415611a6757600090505b600454811015611a66573373ffffffffffffffffffffffffffffffffffffffff1660006005838154811015156119b757fe5b9060005260206000209060030201600001548154811015156119d557fe5b906000526020600020906002020160000160009054906101000a900473ffffffffffffffffffffffffffffffffffffffff1673ffffffffffffffffffffffffffffffffffffffff161415611a595781600582815481101515611a3357fe5b90600052602060002090600302016001019080519060200190611a57929190613cdb565b505b8080600101915050611985565b5b5050565b60135481565b60008090505b600080549050811015611b1e573373ffffffffffffffffffffffffffffffffffffffff16600082815481101515611aaa57fe5b906000526020600020906002020160000160009054906101000a900473ffffffffffffffffffffffffffffffffffffffff1673ffffffffffffffffffffffffffffffffffffffff161415611b11578160026000838152602001908152602001600020819055505b8080600101915050611a77565b5050565b60035481565b6000601582815481101515611b3957fe5b9060005260206000209001549050919050565b565b611b56613c77565b611b668260006001855103612ee2565b819050919050565b60125481565b6000611b7e611da2565b905060015481141515611b9357806001819055505b50565b601581815481101515611ba557fe5b90600052602060002090016000915090505481565b60045481565b60086020528060005260406000206000915054906101000a900460ff1681565b611be8613b03565b6000601483815481101515611bf957fe5b9060005260206000209060020201600101601484815481101515611c1957fe5b906000526020600020906002020160000160009054906101000a900473ffffffffffffffffffffffffffffffffffffffff16818054600181600116156101000203166002900480601f016020809104026020016040519081016040528092919081815260200182805460018160011615610100020316600290048015611ce05780601f10611cb557610100808354040283529160200191611ce0565b820191906000526020600020905b815481529060010190602001808311611cc357829003601f168201915b5050505050915091509150915091565b42600c54600a540111158015611d19575060011515600960009054906101000a900460ff161515145b15611d69576000600960006101000a81548160ff02191690831515021790555042600b81905550611d48613042565b6000600681611d579190613de3565b506000600781611d679190613e0f565b505b565b7f36bf6cf02ecc60712e107054775debd1f2f255ab34df5fc4928044264d16fd1f604051611d9890614512565b60405180910390a1565b60008060008060008060036004600080549050811515611dbe57fe5b04029450600093505b600080549050841015611e4e576000925060026000858152602001908152602001600020549150600090505b600080549050811015611e31576002600082815260200190815260200160002054821415611e245782806001019350505b8080600101915050611df3565b84831115611e4157819550611e54565b8380600101945050611dc7565b60015495505b505050505090565b6000601480549050905090565b600f5481565b600960009054906101000a900460ff1681565b6000600580549050905090565b611e97613c77565b611e9f613c77565b60008060008060008060008060008e51604051805910611ebc5750595b90808252806020026020018201604052509950611ed98f8f61345e565b9850600f549750886012546064038d60018b0103601254811515611ef957fe5b04018e6000815181101515611f0a57fe5b90602001906020020151811515611f1d57fe5b04039650886012546064038d60018b0103601254811515611f3a57fe5b04018e6001815181101515611f4b57fe5b90602001906020020151811515611f5e57fe5b040395506000945060009350600092505b8e51831015611ff9578d83815181101515611f8657fe5b906020019060200201518f84815181101515611f9e57fe5b906020019060200201511115611fcf578e83815181101515611fbc57fe5b9060200190602002015185019450611fec565b8d83815181101515611fdd57fe5b90602001906020020151840193505b8280600101935050611f6f565b60009150600092505b8e5183101561218c578d8381518110151561201957fe5b906020019060200201518f8481518110151561203157fe5b9060200190602002015111156120e257848f8481518110151561205057fe5b90602001906020020151880281151561206557fe5b048e8481518110151561207457fe5b906020019060200201510182019150848f8481518110151561209257fe5b9060200190602002015188028115156120a757fe5b048e848151811015156120b657fe5b90602001906020020151018a848151811015156120cf57fe5b906020019060200201818152505061217f565b838e848151811015156120f157fe5b90602001906020020151870281151561210657fe5b048f8481518110151561211557fe5b906020019060200201510182019150838e8481518110151561213357fe5b90602001906020020151870281151561214857fe5b048f8481518110151561215757fe5b90602001906020020151018a8481518110151561217057fe5b90602001906020020181815250505b8280600101935050612002565b600090505b60648210156121e75760018a828151811015156121aa57fe5b906020019060200201818151019150818152505060018201915060018f51038114156121d957600090506121e2565b80806001019150505b612191565b899a5050505050505050505050949350505050565b600061220f3361220a613500565b6136db565b15156122d357600090505b6000805490508110156122d2573373ffffffffffffffffffffffffffffffffffffffff1660008281548110151561224d57fe5b906000526020600020906002020160000160009054906101000a900473ffffffffffffffffffffffffffffffffffffffff1673ffffffffffffffffffffffffffffffffffffffff1614156122c557600680548060010182816122af9190613e3b565b9160005260206000209001600083909190915055505b808060010191505061221a565b5b50565b60015481565b60003073ffffffffffffffffffffffffffffffffffffffff1631905090565b60008090505b6000805490508110156123e8573373ffffffffffffffffffffffffffffffffffffffff1660008281548110151561233457fe5b906000526020600020906002020160000160009054906101000a900473ffffffffffffffffffffffffffffffffffffffff1673ffffffffffffffffffffffffffffffffffffffff1614156123db577f36bf6cf02ecc60712e107054775debd1f2f255ab34df5fc4928044264d16fd1f826000838154811015156123b357fe5b90600052602060002090600202016001016040516123d29291906144db565b60405180910390a15b8080600101915050612301565b5050565b6123f4613b03565b6000806123ff613c77565b600060058681548110151561241057fe5b90600052602060002090600302016000015481548110151561242e57fe5b9060005260206000209060020201600101600060058781548110151561245057fe5b90600052602060002090600302016000015481548110151561246e57fe5b906000526020600020906002020160000160009054906101000a900473ffffffffffffffffffffffffffffffffffffffff166005878154811015156124af57fe5b9060005260206000209060030201600201546005888154811015156124d057fe5b9060005260206000209060030201600101838054600181600116156101000203166002900480601f0160208091040260200160405190810160405280929190818152602001828054600181600116156101000203166002900480156125765780601f1061254b57610100808354040283529160200191612576565b820191906000526020600020905b81548152906001019060200180831161255957829003601f168201915b50505050509350808054806020026020016040519081016040528092919081815260200182805480156125c857602002820191906000526020600020905b8154815260200190600101908083116125b4575b5050505050905093509350935093509193509193565b60115481565b6125ec613c77565b6000806125f7613c77565b60008060105494506001856002898b8d8f0103030381151561261557fe5b0401935060026040518059106126285750595b9080825280602002602001820160405250925060115491508184111561264c578193505b600287898760018803028c8e01030303039050600060028581151561266d57fe5b0614156126ec57600185600160028781151561268557fe5b0403028260018a0101010183600181518110151561269f57fe5b90602001906020020181815250508260018151811015156126bc57fe5b90602001906020020151898b01038360008151811015156126d957fe5b9060200190602002018181525050612760565b8460016002600187018115156126fe57fe5b0403028160018a01010183600081518110151561271757fe5b906020019060200201818152505082600081518110151561273457fe5b90602001906020020151898b010383600181518110151561275157fe5b90602001906020020181815250505b8983600081518110151561277057fe5b9060200190602002015111156127e1578983600081518110151561279057fe5b90602001906020020151038360018151811015156127aa57fe5b9060200190602002018181510191508181525050898360008151811015156127ce57fe5b906020019060200201818152505061285f565b898360018151811015156127f157fe5b90602001906020020151111561285e578983600181518110151561281157fe5b906020019060200201510383600081518110151561282b57fe5b90602001906020020181815101915081815250508983600181518110151561284f57fe5b90602001906020020181815250505b5b8295505050505050949350505050565b600b5481565b6129ce336000805480602002602001604051908101604052809291908181526020016000905b828210156129c557838290600052602060002090600202016040805190810160405290816000820160009054906101000a900473ffffffffffffffffffffffffffffffffffffffff1673ffffffffffffffffffffffffffffffffffffffff1673ffffffffffffffffffffffffffffffffffffffff168152602001600182018054600181600116156101000203166002900480601f0160208091040260200160405190810160405280929190818152602001828054600181600116156101000203166002900480156129ad5780601f10612982576101008083540402835291602001916129ad565b820191906000526020600020905b81548152906001019060200180831161299057829003601f168201915b5050505050815250508152602001906001019061289b565b505050506136db565b80156129ed575060011515600960009054906101000a900460ff161515145b8015612a49575060001515600860003373ffffffffffffffffffffffffffffffffffffffff1673ffffffffffffffffffffffffffffffffffffffff16815260200190815260200160002060009054906101000a900460ff161515145b15612ae3576001600860003373ffffffffffffffffffffffffffffffffffffffff1673ffffffffffffffffffffffffffffffffffffffff16815260200190815260200160002060006101000a81548160ff02191690831515021790555060078054806001018281612aba9190613e67565b916000526020600020900160008390919091509080519060200190612ae0929190613e93565b50505b50565b612aee613f1d565b60015434118015612c555750612c53336000805480602002602001604051908101604052809291908181526020016000905b82821015612c4a57838290600052602060002090600202016040805190810160405290816000820160009054906101000a900473ffffffffffffffffffffffffffffffffffffffff1673ffffffffffffffffffffffffffffffffffffffff1673ffffffffffffffffffffffffffffffffffffffff168152602001600182018054600181600116156101000203166002900480601f016020809104026020016040519081016040528092919081815260200182805460018160011615610100020316600290048015612c325780601f10612c0757610100808354040283529160200191612c32565b820191906000526020600020905b815481529060010190602001808311612c1557829003601f168201915b50505050508152505081526020019060010190612b20565b505050506136db565b155b15612d2d5733816000019073ffffffffffffffffffffffffffffffffffffffff16908173ffffffffffffffffffffffffffffffffffffffff168152505081816020018190525060008054806001018281612caf9190613f53565b9160005260206000209060020201600083909190915060008201518160000160006101000a81548173ffffffffffffffffffffffffffffffffffffffff021916908373ffffffffffffffffffffffffffffffffffffffff1602179055506020820151816001019080519060200190612d28929190613b7f565b505050505b600154600260006001600080549050038152602001908152602001600020819055505050565b6000612d5d613c77565b600084604051805910612d6d5750595b90808252806020026020018201604052509150600090505b84811015612def578381815181101515612d9b57fe5b9060200190602002015160400151828783815181101515612db857fe5b90602001906020020151815181101515612dce57fe5b90602001906020020181815101915081815250508080600101915050612d85565b600090505b84811015612e3357600f548282815181101515612e0d57fe5b90602001906020020151101515612e2657809250612e37565b8080600101915050612df4565b8492505b50509392505050565b6000612e4e8585858561375d565b9050949350505050565b612e60613c77565b600080600080600f549350612e76878786613795565b9250612e85898b8989886137ac565b9150612e9187856137c7565b90508183018189011015612eb257612eab83838a846125e4565b9450612ed5565b6002604051805910612ec15750595b908082528060200260200182016040525094505b5050505095945050505050565b600080600084925083915081831415612efa5761303a565b856002868603811515612f0957fe5b048601815181101515612f1857fe5b9060200190602002015190505b8183111515613011575b808684815181101515612f3e57fe5b906020019060200201511115612f5b578280600101935050612f2f565b5b8582815181101515612f6a57fe5b90602001906020020151811115612f8957818060019003925050612f5c565b818311151561300c578582815181101515612fa057fe5b906020019060200201518684815181101515612fb857fe5b906020019060200201518785815181101515612fd057fe5b9060200190602002018885815181101515612fe757fe5b9060200190602002018281525082815250505082806001019350508180600190039250505b612f25565b8185101561302557613024868684612ee2565b5b8383101561303957613038868486612ee2565b5b5b505050505050565b60008061304d613c77565b613055613c63565b600061305f613c77565b613067613c77565b61306f613c77565b6006805490506040518059106130825750595b9080825280602002602001820160405250955085516040518059106130a45750595b9080825280602002602001820160405280156130da57816020015b6130c7613c9f565b8152602001906001900390816130bf5790505b509450600097505b85518810156131335785516040518059106130fa5750595b9080825280602002602001820160405250858981518110151561311957fe5b9060200190602002018190525087806001019850506130e2565b600097505b600186510388101561326f578760010196505b85518710156132625761315e88886137db565b935060008414156131dc5786858981518110151561317857fe5b90602001906020020151878a81518110151561319057fe5b906020019060200201518151811015156131a657fe5b906020019060200201818152505085888151811015156131c257fe5b906020019060200201805180919060010181525050613255565b6001841415613254578785888151811015156131f457fe5b90602001906020020151878981518110151561320c57fe5b9060200190602002015181518110151561322257fe5b9060200190602002018181525050858781518110151561323e57fe5b9060200190602002018051809190600101815250505b5b868060010197505061314b565b8780600101985050613138565b855160405180591061327e5750595b90808252806020026020018201604052509250600097505b855188101561336757600086898151811015156132af57fe5b9060200190602002015114151561335a57600096505b85888151811015156132d357fe5b90602001906020020151871015613359578585898151811015156132f357fe5b906020019060200201518881518110151561330a57fe5b9060200190602002015181518110151561332057fe5b90602001906020020151838981518110151561333857fe5b906020019060200201818151019150818152505086806001019750506132c5565b5b8780600101985050613296565b85516040518059106133765750595b9080825280602002602001820160405250915061339a61339584613a4c565b611b4e565b9050600097505b855188101561344b57600096505b855187101561343e5782878151811015156133c657fe5b9060200190602002015181898151811015156133de57fe5b906020019060200201511415613431578682898151811015156133fd57fe5b90602001906020020181815250508551865102838881518110151561341e57fe5b906020019060200201818152505061343e565b86806001019750506133af565b87806001019850506133a1565b613454826117c8565b5050505050505050565b6000806000809150600090505b84518110156134f557838181518110151561348257fe5b90602001906020020151858281518110151561349a57fe5b9060200190602002015111156134cb5783818151811015156134b857fe5b90602001906020020151820191506134e8565b84818151811015156134d957fe5b90602001906020020151820191505b808060010191505061346b565b819250505092915050565b613508613f85565b6000613512613f85565b600060068054905092508260405180591061352a5750595b90808252806020026020018201604052801561356057816020015b61354d613f99565b8152602001906001900390816135455790505b509150600090505b828110156136d257600060068281548110151561358157fe5b90600052602060002090015481548110151561359957fe5b90600052602060002090600202016040805190810160405290816000820160009054906101000a900473ffffffffffffffffffffffffffffffffffffffff1673ffffffffffffffffffffffffffffffffffffffff1673ffffffffffffffffffffffffffffffffffffffff168152602001600182018054600181600116156101000203166002900480601f0160208091040260200160405190810160405280929190818152602001828054600181600116156101000203166002900480156136a15780601f10613676576101008083540402835291602001916136a1565b820191906000526020600020905b81548152906001019060200180831161368457829003601f168201915b50505050508152505082828151811015156136b857fe5b906020019060200201819052508080600101915050613568565b81935050505090565b600080600090505b8251811015613751578373ffffffffffffffffffffffffffffffffffffffff16838281518110151561371157fe5b906020019060200201516000015173ffffffffffffffffffffffffffffffffffffffff1614156137445760019150613756565b80806001019150506136e3565b600091505b5092915050565b60008061376a868661345e565b90508060125460640302846001850103826012540281151561378857fe5b0401915050949350505050565b60006137a383850183613ad9565b90509392505050565b60006137bc86868587018561375d565b905095945050505050565b60006137d38383613ad9565b905092915050565b60008060008060008060008060008060009850600097506007805490509650600060068d81548110151561380b57fe5b90600052602060002090015481548110151561382357fe5b906000526020600020906002020160000160009054906101000a900473ffffffffffffffffffffffffffffffffffffffff169550600060068c81548110151561386857fe5b90600052602060002090015481548110151561388057fe5b906000526020600020906002020160000160009054906101000a900473ffffffffffffffffffffffffffffffffffffffff169450600093505b86841015613a16576002878115156138cd57fe5b0489111580156138e957506002878115156138e457fe5b048811155b15613a04576007848154811015156138fd57fe5b9060005260206000209001805490509250600091505b828210156139ff5760078481548110151561392a57fe5b90600052602060002090018281548110151561394257fe5b906000526020600020900160009054906101000a900473ffffffffffffffffffffffffffffffffffffffff1690508573ffffffffffffffffffffffffffffffffffffffff168173ffffffffffffffffffffffffffffffffffffffff1614156139b15788806001019950506139ff565b8473ffffffffffffffffffffffffffffffffffffffff168173ffffffffffffffffffffffffffffffffffffffff1614156139f25787806001019850506139ff565b8180600101925050613913565b613a09565b613a16565b83806001019450506138b9565b87891115613a275760009950613a3d565b88881115613a385760019950613a3d565b600299505b50505050505050505092915050565b613a54613c77565b613a5c613c77565b60008351604051805910613a6d5750595b90808252806020026020018201604052509150600090505b8351811015613acf578381815181101515613a9c57fe5b906020019060200201518282815181101515613ab457fe5b90602001906020020181815250508080600101915050613a85565b8192505050919050565b6000606460125460640302836001840103606460125402811515613af957fe5b0401905092915050565b602060405190810160405280600081525090565b6040805190810160405280600073ffffffffffffffffffffffffffffffffffffffff168152602001613b47613fcf565b81525090565b815481835581811511613b7a57600202816002028360005260206000209182019101613b799190613fe3565b5b505050565b828054600181600116156101000203166002900490600052602060002090601f016020900481019282601f10613bc057805160ff1916838001178555613bee565b82800160010185558215613bee579182015b82811115613bed578251825591602001919060010190613bd2565b5b509050613bfb9190614039565b5090565b815481835581811511613c2c57600202816002028360005260206000209182019101613c2b9190613fe3565b5b505050565b815481835581811511613c5e57600302816003028360005260206000209182019101613c5d919061405e565b5b505050565b602060405190810160405280600081525090565b602060405190810160405280600081525090565b602060405190810160405280600081525090565b602060405190810160405280600081525090565b60606040519081016040528060008152602001613cce613c9f565b8152602001600081525090565b828054828255906000526020600020908101928215613d17579160200282015b82811115613d16578251825591602001919060010190613cfb565b5b509050613d249190614039565b5090565b60606040519081016040528060008152602001613d43613c9f565b8152602001600081525090565b815481835581811511613d7d57600302816003028360005260206000209182019101613d7c919061405e565b5b505050565b828054828255906000526020600020908101928215613dbe579160200282015b82811115613dbd578251825591602001919060010190613da2565b5b509050613dcb9190614039565b5090565b602060405190810160405280600081525090565b815481835581811511613e0a57818360005260206000209182019101613e099190614039565b5b505050565b815481835581811511613e3657818360005260206000209182019101613e35919061409d565b5b505050565b815481835581811511613e6257818360005260206000209182019101613e619190614039565b5b505050565b815481835581811511613e8e57818360005260206000209182019101613e8d919061409d565b5b505050565b828054828255906000526020600020908101928215613f0c579160200282015b82811115613f0b5782518260006101000a81548173ffffffffffffffffffffffffffffffffffffffff021916908373ffffffffffffffffffffffffffffffffffffffff16021790555091602001919060010190613eb3565b5b509050613f1991906140c9565b5090565b6040805190810160405280600073ffffffffffffffffffffffffffffffffffffffff168152602001613f4d613fcf565b81525090565b815481835581811511613f8057600202816002028360005260206000209182019101613f7f919061410c565b5b505050565b602060405190810160405280600081525090565b6040805190810160405280600073ffffffffffffffffffffffffffffffffffffffff168152602001613fc9613fcf565b81525090565b602060405190810160405280600081525090565b61403691905b8082111561403257600080820160006101000a81549073ffffffffffffffffffffffffffffffffffffffff02191690556001820160006140299190614162565b50600201613fe9565b5090565b90565b61405b91905b8082111561405757600081600090555060010161403f565b5090565b90565b61409a91905b808211156140965760008082016000905560018201600061408591906141aa565b600282016000905550600301614064565b5090565b90565b6140c691905b808211156140c257600081816140b991906141cb565b506001016140a3565b5090565b90565b61410991905b8082111561410557600081816101000a81549073ffffffffffffffffffffffffffffffffffffffff0219169055506001016140cf565b5090565b90565b61415f91905b8082111561415b57600080820160006101000a81549073ffffffffffffffffffffffffffffffffffffffff02191690556001820160006141529190614162565b50600201614112565b5090565b90565b50805460018160011615610100020316600290046000825580601f1061418857506141a7565b601f0160209004906000526020600020908101906141a69190614039565b5b50565b50805460008255906000526020600020908101906141c89190614039565b50565b50805460008255906000526020600020908101906141e99190614039565b50565b6141f5816145c7565b82525050565b60006142068261458c565b80845260208401935061421883614560565b60005b8281101561424a5761422e8683516141ec565b614237826145ad565b915060208601955060018101905061421b565b50849250505092915050565b600061426182614597565b8084526020840193506142738361456d565b60005b828110156142a5576142898683516143ea565b614292826145ba565b9150602086019550600181019050614276565b50849250505092915050565b6142ba816145e7565b82525050565b60006142cb826145a2565b8084526142df8160208601602086016145fd565b6142e881614639565b602085010191505092915050565b600081546001811660008114614313576001811461433357614374565b607f600283041680865260ff198316602087015260408601935050614374565b600282048086526020860195506143498561457a565b60005b8281101561436b5781548189015260018201915060208101905061434c565b80880195505050505b505092915050565b6000600482527f6a616b65000000000000000000000000000000000000000000000000000000006020830152604082019050919050565b6000600282527f68690000000000000000000000000000000000000000000000000000000000006020830152604082019050919050565b6143f3816145f3565b82525050565b6000602082019050818103600083015261441381846141fb565b905092915050565b600060208201905081810360008301526144358184614256565b905092915050565b600060208201905061445260008301846142b1565b92915050565b6000604082019050818103600083015261447281856142c0565b905061448160208301846141ec565b9392505050565b600060808201905081810360008301526144a281876142c0565b90506144b160208301866141ec565b6144be60408301856143ea565b81810360608301526144d08184614256565b905095945050505050565b600060408201905081810360008301526144f581856142c0565b9050818103602083015261450981846142f6565b90509392505050565b6000604082019050818103600083015261452b816143b3565b9050818103602083015261453e8161437c565b9050919050565b600060208201905061455a60008301846143ea565b92915050565b6000602082019050919050565b6000602082019050919050565b60008160005260206000209050919050565b600081519050919050565b600081519050919050565b600081519050919050565b6000602082019050919050565b6000602082019050919050565b600073ffffffffffffffffffffffffffffffffffffffff82169050919050565b60008115159050919050565b6000819050919050565b60005b8381101561461b578082015181840152602081019050614600565b8381146000811461462b57614632565b6000858501525b5050505050565b6000601f19601f83011690509190505600a265627a7a72305820954623bccb3cc18aa446c38fcd1b5528ece7f4723b4fdc917644b8b32f3e31126c6578706572696d656e74616cf50037",
  "source": "pragma solidity ^0.4.18;\r\npragma experimental ABIEncoderV2;\r\nimport \"./MyLib.sol\";\r\nimport \"./VotingClub.sol\";\r\ncontract BudgetClub is VotingClub {\r\n  uint public numberOfSinks;\r\n  uint public quota;\r\n  uint public gasCost;\r\n  uint public numberOfTurns;\r\n  uint public coalitionSizeFactor;\r\n  uint public coalitionSizeFactorIncrease;\r\n  MyLib.Sink[] listOfSinks;\r\n  uint[] public finalBudget;\r\n  mapping (uint => uint) public submittedSink;\r\n  uint numOfSinksAllowedToSubmit;\r\n  function BudgetClub(uint cost, uint term, uint reps, uint sinks, uint q, uint gas, uint turns, uint sizeFactor, uint sizeFactorIncrease) VotingClub(cost,term,reps) public {\r\n    numberOfSinks = sinks;\r\n    quota = q;\r\n    gasCost = gas;\r\n    numberOfTurns = turns;\r\n    coalitionSizeFactor = sizeFactor;\r\n    coalitionSizeFactorIncrease = sizeFactorIncrease;\r\n    numOfSinksAllowedToSubmit = sinks / reps + 1;\r\n  }\r\n\r\n  function sendOut() {\r\n    uint startingBalance = this.balance;\r\n    for(uint i = 0; i < listOfSinks.length; i ++)\r\n    {\r\n      listOfSinks[i].spender.transfer(startingBalance * finalBudget[i] / 100);\r\n    }\r\n    listOfSinks.length = 0;\r\n\r\n  }\r\n\r\n  function submitBudget(uint[] budget) public\r\n  {\r\n    if(budget.length == numberOfSinks)\r\n    {\r\n      for (uint i = 0; i < numberOfRepresentatives; i++)\r\n      {\r\n        if(registeredUser[listOfRepresentatives[i].u].myAddress == msg.sender)\r\n        {\r\n          listOfRepresentatives[i].budget = budget;\r\n        }\r\n      }\r\n    }\r\n  }\r\n  function submitSink(address spender, string name) public\r\n  {\r\n    if(listOfSinks.length < numberOfSinks)\r\n    {\r\n      for (uint i = 0; i < numberOfRepresentatives; i++)\r\n      {\r\n        if(registeredUser[listOfRepresentatives[i].u].myAddress == msg.sender && submittedSink[i] < numOfSinksAllowedToSubmit)\r\n        {\r\n          MyLib.Sink memory s;\r\n          s.name = name;\r\n          s.spender = spender;\r\n          listOfSinks.push(s);\r\n          submittedSink[i] += 1;\r\n        }\r\n      }\r\n    }\r\n  }\r\n\r\n\r\n  function endBudgetSubmit() public\r\n  {\r\n    if(listOfRepresentatives.length != 0 && timeVoteEnded + 1000 < block.timestamp)\r\n    {\r\n      decideBudget();\r\n      listOfRepresentatives.length = 0;\r\n    }\r\n  }\r\n\r\n  function allSubmitted() internal constant returns (bool)\r\n  {\r\n    for (uint i = 0; i < numberOfRepresentatives; i++)\r\n    {\r\n      if(listOfRepresentatives[i].budget.length == 0)\r\n      {\r\n        return false;\r\n      }\r\n    }\r\n    return true;\r\n  }\r\n\r\n\r\n  function decideBudget() public\r\n  {\r\n    uint quotaMemory = quota;\r\n    uint numberOfRepresentativesMemory = numberOfRepresentatives;\r\n    uint[][] memory coalitionBudgets = new uint[][](numberOfRepresentativesMemory);\r\n    uint[] memory coalitionSize = new uint[](numberOfRepresentativesMemory);\r\n    uint[] memory playerToCoalition = new uint[](numberOfRepresentativesMemory);\r\n    MyLib.Agent[] memory playerToAgent = new MyLib.Agent[](numberOfRepresentativesMemory);\r\n    uint i;\r\n    //init\r\n    for (i = 0; i < numberOfRepresentativesMemory; i++)\r\n    {\r\n      playerToAgent[i] = listOfRepresentatives[i];\r\n      coalitionBudgets[i] =  playerToAgent[i].budget;\r\n      coalitionSize[i] = 1;\r\n      playerToCoalition[i] = i;\r\n    }\r\n\r\n    uint player = 0;\r\n    while(winningCoalition(playerToCoalition,numberOfRepresentativesMemory,playerToAgent) == numberOfRepresentativesMemory)\r\n    {\r\n      uint[] memory bestOffer = new uint[](2);\r\n      uint bestCoalition = numberOfRepresentativesMemory;\r\n      //get utility in the current coalition\r\n      uint myAfloor = afloor(coalitionBudgets[playerToCoalition[player]],playerToAgent[player].budget,coalitionSize[playerToCoalition[player]],quotaMemory);\r\n      for(i = 0; i < numberOfRepresentativesMemory; i ++)\r\n      {\r\n        //dont check coalitions with no one or the one your in\r\n        if(playerToCoalition[player] != i && coalitionSize[i] != 0)\r\n        {\r\n          uint[] memory nego = offer(coalitionBudgets[i],playerToAgent[player].budget,myAfloor,coalitionSize[i],playerToAgent[player].weight);\r\n          if(nego[0] > bestOffer[0])\r\n          {\r\n            bestOffer = nego;\r\n            bestCoalition = i;\r\n          }\r\n        }\r\n\r\n      }\r\n\r\n      if(bestCoalition != numberOfRepresentativesMemory)\r\n      {\r\n        coalitionBudgets[bestCoalition] = negoToBudget(playerToAgent[player].budget, coalitionBudgets[bestCoalition], bestOffer, coalitionSize[bestCoalition] + playerToAgent[player].weight);\r\n        coalitionSize[playerToCoalition[player]] -= playerToAgent[player].weight;\r\n        coalitionSize[bestCoalition] += playerToAgent[player].weight;\r\n        playerToCoalition[player] = bestCoalition;\r\n\r\n      }\r\n\r\n      if(player == numberOfRepresentativesMemory - 1)\r\n      {\r\n        player = 0;\r\n      }\r\n      else{\r\n        player ++;\r\n      }\r\n      coalitionSizeFactor += coalitionSizeFactorIncrease;\r\n\r\n    }\r\n\r\n    finalBudget = coalitionBudgets[winningCoalition(playerToCoalition,numberOfRepresentativesMemory,playerToAgent)];\r\n\r\n  }\r\n\r\n  function offer(uint[] budgetCoal, uint[] budgeta, uint myAfloor, uint coalSize, uint agentWeight) constant internal returns (uint[])\r\n  {\r\n    uint quotaMemory = quota;\r\n    uint myAbar = abar(coalSize, agentWeight, quotaMemory);\r\n    uint myBbar = bbar(budgeta, budgetCoal, coalSize, agentWeight, quotaMemory);\r\n    uint myBfloor = bfloor(coalSize, quotaMemory);\r\n    if(myAfloor + myBfloor < myAbar + myBbar)\r\n    {\r\n      return negotiate(myAbar, myBbar ,myAfloor, myBfloor);\r\n    }\r\n    else{\r\n      return new uint[](2);\r\n    }\r\n  }\r\n\r\n  function afloor(uint[] budgetCoala, uint[] budgeta, uint coalSizea, uint quotaMemory ) constant internal returns (uint)\r\n  {\r\n    return calculateUtility(budgetCoala,budgeta,coalSizea,quotaMemory);\r\n  }\r\n  function bfloor(uint coalSize,  uint quotaMemory) constant internal returns (uint)\r\n  {\r\n    return calculate100Utility(coalSize,quotaMemory);\r\n  }\r\n  function abar(uint coalSize, uint agentWeight,  uint quotaMemory) constant internal returns (uint)\r\n  {\r\n    return calculate100Utility(coalSize + agentWeight,quotaMemory);\r\n  }\r\n  function bbar(uint[] budgetCoal, uint[] budgeta, uint coalSize, uint agentWeight,  uint quotaMemory) constant internal returns (uint)\r\n  {\r\n    return calculateUtility(budgetCoal,budgeta,coalSize + agentWeight,quotaMemory);\r\n  }\r\n  function winningCoalition(uint[] playerToCoalition, uint numberOfRepresentativesMemory,MyLib.Agent[] playerToAgent ) constant internal returns (uint)\r\n  {\r\n    uint[] memory weights = new uint[](numberOfRepresentativesMemory);\r\n    //add all the weights\r\n    for (uint i = 0; i < numberOfRepresentativesMemory ; i++)\r\n    {\r\n      weights[playerToCoalition[i]] += playerToAgent[i].weight;\r\n    }\r\n    for (i = 0; i < numberOfRepresentativesMemory ; i++)\r\n    {\r\n      if(weights[i] >= quota)\r\n      {\r\n        return i;\r\n      }\r\n    }\r\n    return numberOfRepresentativesMemory;\r\n  }\r\n\r\n  function calculate100Utility(uint coalitionSize,  uint quotaMemory) constant internal returns (uint)\r\n  {\r\n    return (uint) ((coalitionSizeFactor * 100) / (quotaMemory + 1 - coalitionSize) + ((100-coalitionSizeFactor) * 100));\r\n  }\r\n\r\n  function calculateUtility(uint[] budget1,uint[] budget2, uint coalitionSize,  uint quotaMemory) constant internal returns (uint)\r\n  {\r\n    uint shared = sharedBudget(budget1,budget2);\r\n    return (uint) ((coalitionSizeFactor * shared) / (quotaMemory + 1 - coalitionSize) + ((100-coalitionSizeFactor) * shared));\r\n  }\r\n\r\n  function sharedBudget(uint[] budget1,uint[] budget2) constant internal returns (uint)\r\n  {\r\n    uint shared = 0;\r\n    for(uint i = 0; i < budget1.length; i ++)\r\n    {\r\n      if(budget1[i] > budget2[i])\r\n      {\r\n        shared += budget2[i];\r\n      }\r\n      else{\r\n        shared += budget1[i];\r\n      }\r\n    }\r\n    return shared;\r\n  }\r\n  function negotiate(uint a_bar,uint b_bar,uint a_floor,uint b_floor)constant  public returns (uint[])\r\n  {\r\n    uint gasCostMemory = gasCost;\r\n    uint usefulTurn = ((a_bar + b_bar - a_floor - b_floor - 2) / gasCostMemory) + 1;\r\n    uint[] memory proposal = new uint[](2);\r\n\r\n    uint numberOfTurnsMemory = numberOfTurns;\r\n    if(usefulTurn > numberOfTurnsMemory)\r\n    {\r\n      usefulTurn = numberOfTurnsMemory;\r\n\r\n    }\r\n    uint freeUtility = a_bar + b_bar - ((usefulTurn - 1) * gasCostMemory) - a_floor - b_floor - 2;\r\n    if(usefulTurn % 2 == 0)\r\n    {\r\n      proposal[1] = b_floor + 1 + freeUtility + (((usefulTurn/ 2)-1) * gasCostMemory) + 1;\r\n      proposal[0] = a_bar + b_bar -  proposal[1];\r\n    }\r\n    else\r\n    {\r\n      proposal[0] = a_floor + 1 + freeUtility +  ((((usefulTurn + 1)/ 2)-1) * gasCostMemory);\r\n      proposal[1] = a_bar + b_bar -  proposal[0];\r\n    }\r\n    //cant go over the best amount\r\n    if(proposal[0] > a_bar)\r\n    {\r\n      proposal[1] +=  proposal[0] - a_bar;\r\n      proposal[0] = a_bar;\r\n    }\r\n    else if(proposal[1] > a_bar)\r\n    {\r\n      proposal[0] +=  proposal[1] - a_bar;\r\n      proposal[1] = a_bar;\r\n    }\r\n\r\n\r\n    return proposal;\r\n\r\n\r\n\r\n  }\r\n\r\n  function negoToBudget(uint[] budget1, uint [] budget2, uint[] nego, uint coalitionSize) constant public returns (uint[])\r\n  {\r\n    uint[] memory newBudget = new uint[](budget1.length);\r\n\r\n    uint sharedab = sharedBudget(budget1,budget2);\r\n\r\n    uint quotaMemory = quota;\r\n    uint individuala = (uint) (nego[0] / ((coalitionSizeFactor / (quotaMemory + 1 - coalitionSize)) + (100 - coalitionSizeFactor)) - sharedab);\r\n    uint individualb = (uint) (nego[1] / ((coalitionSizeFactor / (quotaMemory + 1 - coalitionSize)) + (100 - coalitionSizeFactor))- sharedab);\r\n\r\n\r\n    uint suma = 0;\r\n    uint sumb = 0;\r\n\r\n    for(uint i = 0; i < budget1.length; i ++)\r\n    {\r\n      if(budget1[i] > budget2[i])\r\n      {\r\n        suma += budget1[i];\r\n      }\r\n      else{\r\n        sumb += budget2[i];\r\n      }\r\n    }\r\n\r\n    uint total = 0;\r\n    for(i = 0; i < budget1.length; i ++)\r\n    {\r\n      if(budget1[i] > budget2[i])\r\n      {\r\n        total +=  budget2[i] + individuala * budget1[i] / suma;\r\n        newBudget[i] = budget2[i] + individuala * budget1[i] / suma;\r\n      }\r\n      else{\r\n        total +=  budget1[i] + individualb * budget2[i] / sumb;\r\n        newBudget[i] = budget1[i] + individualb * budget2[i] / sumb;\r\n      }\r\n    }\r\n    uint z = 0;\r\n    while(total < 100)\r\n    {\r\n      newBudget[z] += 1;\r\n      total +=1;\r\n      if(z == budget1.length - 1)\r\n      {\r\n        z = 0;\r\n      }\r\n      else\r\n      {\r\n        z ++;\r\n      }\r\n    }\r\n\r\n\r\n    return newBudget;\r\n  }\r\n\r\n  function listSinks(uint number) public constant returns (string,address) {\r\n\r\n    return (listOfSinks[number].name, listOfSinks[number].spender);\r\n  }\r\n\r\n  function getSinksLength() public constant returns (uint)\r\n  {\r\n    return listOfSinks.length;\r\n  }\r\n\r\n  function listFinalBudget(uint number) public constant returns(uint)\r\n  {\r\n    return finalBudget[number];\r\n  }\r\n\r\n\r\n}\r\n",
  "sourcePath": "C:\\Users\\JakeL\\Desktop\\MultiAgentSystemsOnTheBlockChain\\contracts\\BudgetClub.sol",
  "compiler": {
    "name": "solc",
    "version": "0.4.18+commit.9cf6e910.Emscripten.clang"
  },
  "schemaVersion": "1.0.1",
  "updatedAt": "2018-04-24T22:18:38.866Z"
}