{
  "contractName": "BudgetClub",
  "abi": [
    {
      "constant": true,
      "inputs": [
        {
          "name": "number",
          "type": "uint256"
        }
      ],
      "name": "listRegisteredUsers",
      "outputs": [
        {
          "name": "",
          "type": "string"
        },
        {
          "name": "",
          "type": "address"
        }
      ],
      "payable": false,
      "stateMutability": "view",
      "type": "function"
    },
    {
      "constant": false,
      "inputs": [
        {
          "name": "spender",
          "type": "address"
        },
        {
          "name": "name",
          "type": "string"
        }
      ],
      "name": "submitSink",
      "outputs": [],
      "payable": false,
      "stateMutability": "nonpayable",
      "type": "function"
    },
    {
      "constant": true,
      "inputs": [],
      "name": "timeVoteStarted",
      "outputs": [
        {
          "name": "",
          "type": "uint256"
        }
      ],
      "payable": false,
      "stateMutability": "view",
      "type": "function"
    },
    {
      "constant": true,
      "inputs": [],
      "name": "getCandidatesLength",
      "outputs": [
        {
          "name": "",
          "type": "uint256"
        }
      ],
      "payable": false,
      "stateMutability": "view",
      "type": "function"
    },
    {
      "constant": true,
      "inputs": [],
      "name": "getRegisteredUsersLength",
      "outputs": [
        {
          "name": "",
          "type": "uint256"
        }
      ],
      "payable": false,
      "stateMutability": "view",
      "type": "function"
    },
    {
      "constant": false,
      "inputs": [],
      "name": "sendOut",
      "outputs": [],
      "payable": false,
      "stateMutability": "nonpayable",
      "type": "function"
    },
    {
      "constant": true,
      "inputs": [],
      "name": "gasCost",
      "outputs": [
        {
          "name": "",
          "type": "uint256"
        }
      ],
      "payable": false,
      "stateMutability": "view",
      "type": "function"
    },
    {
      "constant": true,
      "inputs": [],
      "name": "isRegistered",
      "outputs": [
        {
          "name": "",
          "type": "bool"
        }
      ],
      "payable": false,
      "stateMutability": "view",
      "type": "function"
    },
    {
      "constant": true,
      "inputs": [
        {
          "name": "number",
          "type": "uint256"
        }
      ],
      "name": "listCandidates",
      "outputs": [
        {
          "name": "",
          "type": "string"
        },
        {
          "name": "",
          "type": "address"
        }
      ],
      "payable": false,
      "stateMutability": "view",
      "type": "function"
    },
    {
      "constant": false,
      "inputs": [],
      "name": "endBudgetSubmit",
      "outputs": [],
      "payable": false,
      "stateMutability": "nonpayable",
      "type": "function"
    },
    {
      "constant": true,
      "inputs": [],
      "name": "numberOfSinks",
      "outputs": [
        {
          "name": "",
          "type": "uint256"
        }
      ],
      "payable": false,
      "stateMutability": "view",
      "type": "function"
    },
    {
      "constant": false,
      "inputs": [],
      "name": "decideBudget",
      "outputs": [],
      "payable": false,
      "stateMutability": "nonpayable",
      "type": "function"
    },
    {
      "constant": false,
      "inputs": [],
      "name": "startVote",
      "outputs": [],
      "payable": false,
      "stateMutability": "nonpayable",
      "type": "function"
    },
    {
      "constant": false,
      "inputs": [
        {
          "name": "ranked",
          "type": "uint256[]"
        }
      ],
      "name": "weightCandidates",
      "outputs": [],
      "payable": false,
      "stateMutability": "nonpayable",
      "type": "function"
    },
    {
      "constant": true,
      "inputs": [
        {
          "name": "number",
          "type": "uint256"
        }
      ],
      "name": "showVotes",
      "outputs": [
        {
          "name": "",
          "type": "address[]"
        }
      ],
      "payable": false,
      "stateMutability": "view",
      "type": "function"
    },
    {
      "constant": false,
      "inputs": [
        {
          "name": "budget",
          "type": "uint256[]"
        }
      ],
      "name": "submitBudget",
      "outputs": [],
      "payable": false,
      "stateMutability": "nonpayable",
      "type": "function"
    },
    {
      "constant": true,
      "inputs": [],
      "name": "coalitionSizeFactorIncrease",
      "outputs": [
        {
          "name": "",
          "type": "uint256"
        }
      ],
      "payable": false,
      "stateMutability": "view",
      "type": "function"
    },
    {
      "constant": true,
      "inputs": [],
      "name": "termLength",
      "outputs": [
        {
          "name": "",
          "type": "uint256"
        }
      ],
      "payable": false,
      "stateMutability": "view",
      "type": "function"
    },
    {
      "constant": true,
      "inputs": [
        {
          "name": "number",
          "type": "uint256"
        }
      ],
      "name": "listFinalBudget",
      "outputs": [
        {
          "name": "",
          "type": "uint256"
        }
      ],
      "payable": false,
      "stateMutability": "view",
      "type": "function"
    },
    {
      "constant": false,
      "inputs": [],
      "name": "subsidize",
      "outputs": [],
      "payable": true,
      "stateMutability": "payable",
      "type": "function"
    },
    {
      "constant": false,
      "inputs": [
        {
          "name": "data",
          "type": "uint256[]"
        }
      ],
      "name": "sort",
      "outputs": [
        {
          "name": "",
          "type": "uint256[]"
        }
      ],
      "payable": false,
      "stateMutability": "nonpayable",
      "type": "function"
    },
    {
      "constant": true,
      "inputs": [],
      "name": "coalitionSizeFactor",
      "outputs": [
        {
          "name": "",
          "type": "uint256"
        }
      ],
      "payable": false,
      "stateMutability": "view",
      "type": "function"
    },
    {
      "constant": true,
      "inputs": [
        {
          "name": "",
          "type": "uint256"
        }
      ],
      "name": "finalBudget",
      "outputs": [
        {
          "name": "",
          "type": "uint256"
        }
      ],
      "payable": false,
      "stateMutability": "view",
      "type": "function"
    },
    {
      "constant": true,
      "inputs": [],
      "name": "numberOfRepresentatives",
      "outputs": [
        {
          "name": "",
          "type": "uint256"
        }
      ],
      "payable": false,
      "stateMutability": "view",
      "type": "function"
    },
    {
      "constant": true,
      "inputs": [
        {
          "name": "",
          "type": "address"
        }
      ],
      "name": "voted",
      "outputs": [
        {
          "name": "",
          "type": "bool"
        }
      ],
      "payable": false,
      "stateMutability": "view",
      "type": "function"
    },
    {
      "constant": true,
      "inputs": [
        {
          "name": "number",
          "type": "uint256"
        }
      ],
      "name": "listSinks",
      "outputs": [
        {
          "name": "",
          "type": "string"
        },
        {
          "name": "",
          "type": "address"
        }
      ],
      "payable": false,
      "stateMutability": "view",
      "type": "function"
    },
    {
      "constant": false,
      "inputs": [],
      "name": "endVote",
      "outputs": [],
      "payable": false,
      "stateMutability": "nonpayable",
      "type": "function"
    },
    {
      "constant": true,
      "inputs": [],
      "name": "getSinksLength",
      "outputs": [
        {
          "name": "",
          "type": "uint256"
        }
      ],
      "payable": false,
      "stateMutability": "view",
      "type": "function"
    },
    {
      "constant": true,
      "inputs": [],
      "name": "quota",
      "outputs": [
        {
          "name": "",
          "type": "uint256"
        }
      ],
      "payable": false,
      "stateMutability": "view",
      "type": "function"
    },
    {
      "constant": true,
      "inputs": [],
      "name": "voteStarted",
      "outputs": [
        {
          "name": "",
          "type": "bool"
        }
      ],
      "payable": false,
      "stateMutability": "view",
      "type": "function"
    },
    {
      "constant": true,
      "inputs": [],
      "name": "getRepresentivesLength",
      "outputs": [
        {
          "name": "",
          "type": "uint256"
        }
      ],
      "payable": false,
      "stateMutability": "view",
      "type": "function"
    },
    {
      "constant": true,
      "inputs": [
        {
          "name": "budget1",
          "type": "uint256[]"
        },
        {
          "name": "budget2",
          "type": "uint256[]"
        },
        {
          "name": "nego",
          "type": "uint256[]"
        },
        {
          "name": "coalitionSize",
          "type": "uint256"
        }
      ],
      "name": "negoToBudget",
      "outputs": [
        {
          "name": "",
          "type": "uint256[]"
        }
      ],
      "payable": false,
      "stateMutability": "view",
      "type": "function"
    },
    {
      "constant": false,
      "inputs": [],
      "name": "apply",
      "outputs": [],
      "payable": false,
      "stateMutability": "nonpayable",
      "type": "function"
    },
    {
      "constant": true,
      "inputs": [],
      "name": "registrationCost",
      "outputs": [
        {
          "name": "",
          "type": "uint256"
        }
      ],
      "payable": false,
      "stateMutability": "view",
      "type": "function"
    },
    {
      "constant": true,
      "inputs": [],
      "name": "getContractValue",
      "outputs": [
        {
          "name": "",
          "type": "uint256"
        }
      ],
      "payable": false,
      "stateMutability": "view",
      "type": "function"
    },
    {
      "constant": true,
      "inputs": [
        {
          "name": "text",
          "type": "string"
        }
      ],
      "name": "chat",
      "outputs": [],
      "payable": false,
      "stateMutability": "view",
      "type": "function"
    },
    {
      "constant": true,
      "inputs": [
        {
          "name": "number",
          "type": "uint256"
        }
      ],
      "name": "listRepresentives",
      "outputs": [
        {
          "name": "",
          "type": "string"
        },
        {
          "name": "",
          "type": "address"
        },
        {
          "name": "",
          "type": "uint256"
        },
        {
          "name": "",
          "type": "uint256[]"
        }
      ],
      "payable": false,
      "stateMutability": "view",
      "type": "function"
    },
    {
      "constant": true,
      "inputs": [],
      "name": "numberOfTurns",
      "outputs": [
        {
          "name": "",
          "type": "uint256"
        }
      ],
      "payable": false,
      "stateMutability": "view",
      "type": "function"
    },
    {
      "constant": true,
      "inputs": [
        {
          "name": "a_bar",
          "type": "uint256"
        },
        {
          "name": "b_bar",
          "type": "uint256"
        },
        {
          "name": "a_floor",
          "type": "uint256"
        },
        {
          "name": "b_floor",
          "type": "uint256"
        }
      ],
      "name": "negotiate",
      "outputs": [
        {
          "name": "",
          "type": "uint256[]"
        }
      ],
      "payable": false,
      "stateMutability": "view",
      "type": "function"
    },
    {
      "constant": true,
      "inputs": [],
      "name": "timeVoteEnded",
      "outputs": [
        {
          "name": "",
          "type": "uint256"
        }
      ],
      "payable": false,
      "stateMutability": "view",
      "type": "function"
    },
    {
      "constant": false,
      "inputs": [
        {
          "name": "myVote",
          "type": "address[]"
        }
      ],
      "name": "vote",
      "outputs": [],
      "payable": false,
      "stateMutability": "nonpayable",
      "type": "function"
    },
    {
      "constant": false,
      "inputs": [
        {
          "name": "name",
          "type": "string"
        }
      ],
      "name": "register",
      "outputs": [],
      "payable": true,
      "stateMutability": "payable",
      "type": "function"
    },
    {
      "inputs": [
        {
          "name": "cost",
          "type": "uint256"
        },
        {
          "name": "term",
          "type": "uint256"
        },
        {
          "name": "reps",
          "type": "uint256"
        },
        {
          "name": "sinks",
          "type": "uint256"
        },
        {
          "name": "q",
          "type": "uint256"
        },
        {
          "name": "gas",
          "type": "uint256"
        },
        {
          "name": "turns",
          "type": "uint256"
        },
        {
          "name": "sizeFactor",
          "type": "uint256"
        },
        {
          "name": "sizeFactorIncrease",
          "type": "uint256"
        }
      ],
      "payable": false,
      "stateMutability": "nonpayable",
      "type": "constructor"
    },
    {
      "anonymous": false,
      "inputs": [
        {
          "indexed": false,
          "name": "message",
          "type": "string"
        },
        {
          "indexed": false,
          "name": "name",
          "type": "string"
        }
      ],
      "name": "message",
      "type": "event"
    }
  ],
  "bytecode": "0x60606040526000600860006101000a81548160ff02191690831515021790555060006009556000600a556000600b55341561003957600080fd5b6040516101208061437383398101604052808051906020019091908051906020019091908051906020019091908051906020019091908051906020019091908051906020019091908051906020019091908051906020019091908051906020019091905050888888828060018190555050816002819055508060038190555050505085600c8190555084600d8190555083600e8190555082600f819055508160108190555080601181905550505050505050505050614276806100fd6000396000f300606060405260043610610204576000357c0100000000000000000000000000000000000000000000000000000000900463ffffffff1680630cf35f441461020957806313dcd43e14610241578063161893d0146102bd5780631859df65146102e65780631afad36d1461030f5780631b0d3f40146103385780631d5e3fe51461034d578063223668441461037657806322ca968b1461039f57806326f9098b146103d75780632cd15220146103ec57806347792fc5146104155780634c0a6af01461042a5780635846fc461461043f5780636687d4fe146104995780636904d241146104d0578063717a55d21461052a57806379b18cd1146105535780638b2e48831461057c57806390f10ed1146105b35780639ec8b026146105bd578063a5982ddb1461062b578063ad012af014610654578063ae0689ac1461068b578063aec2ccae146106b4578063af0ab71514610701578063b922394614610739578063c6214bf11461074e578063cebe09c914610777578063d0dc0180146107a0578063d5268b22146107c9578063d87311aa146107f2578063db595b3b146108e9578063dc4a7f7f146108fe578063dc82697c14610927578063de8caa1e14610950578063dee6472f146109ad578063e0abab9e146109e7578063e32ba07814610a10578063ed00af9814610a62578063ed08132914610a8b578063f2c298be14610ae5575b600080fd5b341561021457600080fd5b61022a6004808035906020019091905050610b37565b60405161023892919061407d565b60405180910390f35b341561024c57600080fd5b6102bb600480803573ffffffffffffffffffffffffffffffffffffffff1690602001909190803590602001908201803590602001908080601f01602080910402602001604051908101604052809392919081815260200183838082843782019150505050505091905050610c46565b005b34156102c857600080fd5b6102d0610de9565b6040516102dd9190614137565b60405180910390f35b34156102f157600080fd5b6102f9610def565b6040516103069190614137565b60405180910390f35b341561031a57600080fd5b610322610dfc565b60405161032f9190614137565b60405180910390f35b341561034357600080fd5b61034b610e08565b005b341561035857600080fd5b610360610f00565b60405161036d9190614137565b60405180910390f35b341561038157600080fd5b610389610f06565b6040516103969190614062565b60405180910390f35b34156103aa57600080fd5b6103c06004808035906020019091905050610fae565b6040516103ce92919061407d565b60405180910390f35b34156103e257600080fd5b6103ea6110f1565b005b34156103f757600080fd5b6103ff611119565b60405161040c9190614137565b60405180910390f35b341561042057600080fd5b61042861111f565b005b341561043557600080fd5b61043d611701565b005b341561044a57600080fd5b610497600480803590602001908201803590602001908080602002602001604051908101604052809392919081815260200183836020028082843782019150505050505091905050611753565b005b34156104a457600080fd5b6104ba6004808035906020019091905050611832565b6040516104c7919061401e565b60405180910390f35b34156104db57600080fd5b6105286004808035906020019082018035906020019080806020026020016040519081016040528093929190818152602001838360200280828437820191505050505050919050506118e0565b005b341561053557600080fd5b61053d6119d8565b60405161054a9190614137565b60405180910390f35b341561055e57600080fd5b6105666119de565b6040516105739190614137565b60405180910390f35b341561058757600080fd5b61059d60048080359060200190919050506119e4565b6040516105aa9190614137565b60405180910390f35b6105bb611a08565b005b34156105c857600080fd5b610615600480803590602001908201803590602001908080602002602001604051908101604052809392919081815260200183836020028082843782019150505050505091905050611a0a565b6040516106229190614040565b60405180910390f35b341561063657600080fd5b61063e611a2a565b60405161064b9190614137565b60405180910390f35b341561065f57600080fd5b6106756004808035906020019091905050611a30565b6040516106829190614137565b60405180910390f35b341561069657600080fd5b61069e611a54565b6040516106ab9190614137565b60405180910390f35b34156106bf57600080fd5b6106eb600480803573ffffffffffffffffffffffffffffffffffffffff16906020019091905050611a5a565b6040516106f89190614062565b60405180910390f35b341561070c57600080fd5b6107226004808035906020019091905050611a7a565b60405161073092919061407d565b60405180910390f35b341561074457600080fd5b61074c611b8a565b005b341561075957600080fd5b610761611c05565b60405161076e9190614137565b60405180910390f35b341561078257600080fd5b61078a611c12565b6040516107979190614137565b60405180910390f35b34156107ab57600080fd5b6107b3611c18565b6040516107c09190614062565b60405180910390f35b34156107d457600080fd5b6107dc611c2b565b6040516107e99190614137565b60405180910390f35b34156107fd57600080fd5b6108d36004808035906020019082018035906020019080806020026020016040519081016040528093929190818152602001838360200280828437820191505050505050919080359060200190820180359060200190808060200260200160405190810160405280939291908181526020018383602002808284378201915050505050509190803590602001908201803590602001908080602002602001604051908101604052809392919081815260200183836020028082843782019150505050505091908035906020019091905050611c38565b6040516108e09190614040565b60405180910390f35b34156108f457600080fd5b6108fc611fa5565b005b341561090957600080fd5b61091161207f565b60405161091e9190614137565b60405180910390f35b341561093257600080fd5b61093a612085565b6040516109479190614137565b60405180910390f35b341561095b57600080fd5b6109ab600480803590602001908201803590602001908080601f016020809104026020016040519081016040528093929190818152602001838380828437820191505050505050919050506120a4565b005b34156109b857600080fd5b6109ce6004808035906020019091905050612195565b6040516109de94939291906140ad565b60405180910390f35b34156109f257600080fd5b6109fa612387565b604051610a079190614137565b60405180910390f35b3415610a1b57600080fd5b610a4c600480803590602001909190803590602001909190803590602001909190803590602001909190505061238d565b604051610a599190614040565b60405180910390f35b3415610a6d57600080fd5b610a75612618565b604051610a829190614137565b60405180910390f35b3415610a9657600080fd5b610ae360048080359060200190820180359060200190808060200260200160405190810160405280939291908181526020018383602002808284378201915050505050509190505061261e565b005b610b35600480803590602001908201803590602001908080601f0160208091040260200160405190810160405280939291908181526020018383808284378201915050505050509190505061273e565b005b610b3f613796565b60008083815481101515610b4f57fe5b9060005260206000209060020201600101600084815481101515610b6f57fe5b906000526020600020906002020160000160009054906101000a900473ffffffffffffffffffffffffffffffffffffffff16818054600181600116156101000203166002900480601f016020809104026020016040519081016040528092919081815260200182805460018160011615610100020316600290048015610c365780601f10610c0b57610100808354040283529160200191610c36565b820191906000526020600020905b815481529060010190602001808311610c1957829003601f168201915b5050505050915091509150915091565b6000610c506137aa565b600c546012805490501015610de357600091505b600354821015610de2573373ffffffffffffffffffffffffffffffffffffffff166000600484815481101515610c9657fe5b906000526020600020906003020160000154815481101515610cb457fe5b906000526020600020906002020160000160009054906101000a900473ffffffffffffffffffffffffffffffffffffffff1673ffffffffffffffffffffffffffffffffffffffff161415610dd55782816020018190525083816000019073ffffffffffffffffffffffffffffffffffffffff16908173ffffffffffffffffffffffffffffffffffffffff168152505060128054806001018281610d5791906137e0565b9160005260206000209060020201600083909190915060008201518160000160006101000a81548173ffffffffffffffffffffffffffffffffffffffff021916908373ffffffffffffffffffffffffffffffffffffffff1602179055506020820151816001019080519060200190610dd0929190613812565b505050505b8180600101925050610c64565b5b50505050565b60095481565b6000600580549050905090565b60008080549050905090565b6000803073ffffffffffffffffffffffffffffffffffffffff16319150600090505b601280549050811015610eec57601281815481101515610e4657fe5b906000526020600020906002020160000160009054906101000a900473ffffffffffffffffffffffffffffffffffffffff1673ffffffffffffffffffffffffffffffffffffffff166108fc6064601384815481101515610ea257fe5b9060005260206000209001548502811515610eb957fe5b049081150290604051600060405180830381858888f193505050501515610edf57600080fd5b8080600101915050610e2a565b6000601281610efb9190613892565b505050565b600e5481565b600080600090505b600080549050811015610fa5573373ffffffffffffffffffffffffffffffffffffffff16600082815481101515610f4157fe5b906000526020600020906002020160000160009054906101000a900473ffffffffffffffffffffffffffffffffffffffff1673ffffffffffffffffffffffffffffffffffffffff161415610f985760019150610faa565b8080600101915050610f0e565b600091505b5090565b610fb6613796565b600080600584815481101515610fc857fe5b906000526020600020900154815481101515610fe057fe5b9060005260206000209060020201600101600060058581548110151561100257fe5b90600052602060002090015481548110151561101a57fe5b906000526020600020906002020160000160009054906101000a900473ffffffffffffffffffffffffffffffffffffffff16818054600181600116156101000203166002900480601f0160208091040260200160405190810160405280929190818152602001828054600181600116156101000203166002900480156110e15780601f106110b6576101008083540402835291602001916110e1565b820191906000526020600020905b8154815290600101906020018083116110c457829003601f168201915b5050505050915091509150915091565b6110f9612989565b156111175761110661111f565b600060048161111591906138c4565b505b565b600c5481565b60008061112a6138f6565b61113261390a565b61113a61390a565b61114261391e565b60008061114d61390a565b60008061115861390a565b600d549b506003549a508a6040518059106111705750595b9080825280602002602001820160405280156111a657816020015b611193613932565b81526020019060019003908161118b5790505b5099508a6040518059106111b75750595b908082528060200260200182016040525098508a6040518059106111d85750595b908082528060200260200182016040525097508a6040518059106111f95750595b90808252806020026020018201604052801561122f57816020015b61121c613946565b8152602001906001900390816112145790505b509650600095505b8a86101561136e5760048681548110151561124e57fe5b90600052602060002090600302016060604051908101604052908160008201548152602001600182018054806020026020016040519081016040528092919081815260200182805480156112c157602002820191906000526020600020905b8154815260200190600101908083116112ad575b5050505050815260200160028201548152505087878151811015156112e257fe5b9060200190602002018190525086868151811015156112fd57fe5b90602001906020020151602001518a8781518110151561131957fe5b906020019060200201819052506001898781518110151561133657fe5b906020019060200201818152505085888781518110151561135357fe5b90602001906020020181815250508580600101965050611237565b600094505b8a61137f898d8a6129e6565b14156116bb5760026040518059106113945750595b908082528060200260200182016040525093508a925061142d8a89878151811015156113bc57fe5b906020019060200201518151811015156113d257fe5b9060200190602002015188878151811015156113ea57fe5b90602001906020020151602001518b8b8981518110151561140757fe5b9060200190602002015181518110151561141d57fe5b906020019060200201518f612ad3565b9150600095505b8a8610156115405785888681518110151561144b57fe5b906020019060200201511415801561147b57506000898781518110151561146e57fe5b9060200190602002015114155b15611533576114f18a8781518110151561149157fe5b9060200190602002015188878151811015156114a957fe5b9060200190602002015160200151848c8a8151811015156114c657fe5b906020019060200201518b8a8151811015156114de57fe5b9060200190602002015160400151612aeb565b905083600081518110151561150257fe5b9060200190602002015181600081518110151561151b57fe5b906020019060200201511115611532578093508592505b5b8580600101965050611434565b8a83141515611687576115bb878681518110151561155a57fe5b90602001906020020151602001518b8581518110151561157657fe5b90602001906020020151868a8981518110151561158f57fe5b90602001906020020151604001518d888151811015156115ab57fe5b9060200190602002015101611c38565b8a848151811015156115c957fe5b9060200190602002018190525086858151811015156115e457fe5b906020019060200201516040015189898781518110151561160157fe5b9060200190602002015181518110151561161757fe5b9060200190602002018181510391508181525050868581518110151561163957fe5b9060200190602002015160400151898481518110151561165557fe5b906020019060200201818151019150818152505082888681518110151561167857fe5b90602001906020020181815250505b60018b0385141561169b57600094506116a4565b84806001019550505b601154601060008282540192505081905550611373565b896116c7898d8a6129e6565b8151811015156116d357fe5b90602001906020020151601390805190602001906116f292919061396e565b50505050505050505050505050565b42600254600a5401108015611729575060001515600860009054906101000a900460ff161515145b15611751576001600860006101000a81548160ff021916908315150217905550426009819055505b565b600061175d6139bb565b600091505b60035482101561181d576005838381518110151561177c57fe5b9060200190602002015181548110151561179257fe5b9060005260206000209001548160000181815250506001816040018181525050600480548060010182816117c691906139e3565b91600052602060002090600302016000839091909150600082015181600001556020820151816001019080519060200190611802929190613a15565b50604082015181600201555050508180600101925050611762565b600060058161182c9190613a62565b50505050565b61183a613a8e565b60068281548110151561184957fe5b90600052602060002090018054806020026020016040519081016040528092919081815260200182805480156118d457602002820191906000526020600020905b8160009054906101000a900473ffffffffffffffffffffffffffffffffffffffff1673ffffffffffffffffffffffffffffffffffffffff168152602001906001019080831161188a575b50505050509050919050565b6000600c54825114156119d457600090505b6003548110156119d3573373ffffffffffffffffffffffffffffffffffffffff16600060048381548110151561192457fe5b90600052602060002090600302016000015481548110151561194257fe5b906000526020600020906002020160000160009054906101000a900473ffffffffffffffffffffffffffffffffffffffff1673ffffffffffffffffffffffffffffffffffffffff1614156119c657816004828154811015156119a057fe5b906000526020600020906003020160010190805190602001906119c492919061396e565b505b80806001019150506118f2565b5b5050565b60115481565b60025481565b60006013828154811015156119f557fe5b9060005260206000209001549050919050565b565b611a1261390a565b611a228260006001855103612b75565b819050919050565b60105481565b601381815481101515611a3f57fe5b90600052602060002090016000915090505481565b60035481565b60076020528060005260406000206000915054906101000a900460ff1681565b611a82613796565b6000601283815481101515611a9357fe5b9060005260206000209060020201600101601284815481101515611ab357fe5b906000526020600020906002020160000160009054906101000a900473ffffffffffffffffffffffffffffffffffffffff16818054600181600116156101000203166002900480601f016020809104026020016040519081016040528092919081815260200182805460018160011615610100020316600290048015611b7a5780601f10611b4f57610100808354040283529160200191611b7a565b820191906000526020600020905b815481529060010190602001808311611b5d57829003601f168201915b5050505050915091509150915091565b42600b546009540111158015611bb3575060011515600860009054906101000a900460ff161515145b15611c03576000600860006101000a81548160ff02191690831515021790555042600a81905550611be2612cd5565b6000600581611bf19190613a62565b506000600681611c019190613aa2565b505b565b6000601280549050905090565b600d5481565b600860009054906101000a900460ff1681565b6000600480549050905090565b611c4061390a565b611c4861390a565b60008060008060008060008060008e51604051805910611c655750595b90808252806020026020018201604052509950611c828f8f6130f1565b9850600d549750886010546064038d60018b0103601054811515611ca257fe5b04018e6000815181101515611cb357fe5b90602001906020020151811515611cc657fe5b04039650886010546064038d60018b0103601054811515611ce357fe5b04018e6001815181101515611cf457fe5b90602001906020020151811515611d0757fe5b040395506000945060009350600092505b8e51831015611da2578d83815181101515611d2f57fe5b906020019060200201518f84815181101515611d4757fe5b906020019060200201511115611d78578e83815181101515611d6557fe5b9060200190602002015185019450611d95565b8d83815181101515611d8657fe5b90602001906020020151840193505b8280600101935050611d18565b60009150600092505b8e51831015611f35578d83815181101515611dc257fe5b906020019060200201518f84815181101515611dda57fe5b906020019060200201511115611e8b57848f84815181101515611df957fe5b906020019060200201518802811515611e0e57fe5b048e84815181101515611e1d57fe5b906020019060200201510182019150848f84815181101515611e3b57fe5b906020019060200201518802811515611e5057fe5b048e84815181101515611e5f57fe5b90602001906020020151018a84815181101515611e7857fe5b9060200190602002018181525050611f28565b838e84815181101515611e9a57fe5b906020019060200201518702811515611eaf57fe5b048f84815181101515611ebe57fe5b906020019060200201510182019150838e84815181101515611edc57fe5b906020019060200201518702811515611ef157fe5b048f84815181101515611f0057fe5b90602001906020020151018a84815181101515611f1957fe5b90602001906020020181815250505b8280600101935050611dab565b600090505b6064821015611f905760018a82815181101515611f5357fe5b906020019060200201818151019150818152505060018201915060018f5103811415611f825760009050611f8b565b80806001019150505b611f3a565b899a5050505050505050505050949350505050565b6000611fb833611fb3613193565b61336e565b151561207c57600090505b60008054905081101561207b573373ffffffffffffffffffffffffffffffffffffffff16600082815481101515611ff657fe5b906000526020600020906002020160000160009054906101000a900473ffffffffffffffffffffffffffffffffffffffff1673ffffffffffffffffffffffffffffffffffffffff16141561206e57600580548060010182816120589190613ace565b9160005260206000209001600083909190915055505b8080600101915050611fc3565b5b50565b60015481565b60003073ffffffffffffffffffffffffffffffffffffffff1631905090565b60008090505b600080549050811015612191573373ffffffffffffffffffffffffffffffffffffffff166000828154811015156120dd57fe5b906000526020600020906002020160000160009054906101000a900473ffffffffffffffffffffffffffffffffffffffff1673ffffffffffffffffffffffffffffffffffffffff161415612184577f36bf6cf02ecc60712e107054775debd1f2f255ab34df5fc4928044264d16fd1f8260008381548110151561215c57fe5b906000526020600020906002020160010160405161217b929190614100565b60405180910390a15b80806001019150506120aa565b5050565b61219d613796565b6000806121a861390a565b60006004868154811015156121b957fe5b9060005260206000209060030201600001548154811015156121d757fe5b906000526020600020906002020160010160006004878154811015156121f957fe5b90600052602060002090600302016000015481548110151561221757fe5b906000526020600020906002020160000160009054906101000a900473ffffffffffffffffffffffffffffffffffffffff1660048781548110151561225857fe5b90600052602060002090600302016002015460048881548110151561227957fe5b9060005260206000209060030201600101838054600181600116156101000203166002900480601f01602080910402602001604051908101604052809291908181526020018280546001816001161561010002031660029004801561231f5780601f106122f45761010080835404028352916020019161231f565b820191906000526020600020905b81548152906001019060200180831161230257829003601f168201915b505050505093508080548060200260200160405190810160405280929190818152602001828054801561237157602002820191906000526020600020905b81548152602001906001019080831161235d575b5050505050905093509350935093509193509193565b600f5481565b61239561390a565b6000806123a061390a565b600080600e5494506001856002898b8d8f010303038115156123be57fe5b0401935060026040518059106123d15750595b90808252806020026020018201604052509250600f549150818411156123f5578193505b600287898760018803028c8e01030303039050600060028581151561241657fe5b06141561249557600185600160028781151561242e57fe5b0403028260018a0101010183600181518110151561244857fe5b906020019060200201818152505082600181518110151561246557fe5b90602001906020020151898b010383600081518110151561248257fe5b9060200190602002018181525050612509565b8460016002600187018115156124a757fe5b0403028160018a0101018360008151811015156124c057fe5b90602001906020020181815250508260008151811015156124dd57fe5b90602001906020020151898b01038360018151811015156124fa57fe5b90602001906020020181815250505b8983600081518110151561251957fe5b90602001906020020151111561258a578983600081518110151561253957fe5b906020019060200201510383600181518110151561255357fe5b90602001906020020181815101915081815250508983600081518110151561257757fe5b9060200190602002018181525050612608565b8983600181518110151561259a57fe5b90602001906020020151111561260757898360018151811015156125ba57fe5b90602001906020020151038360008151811015156125d457fe5b9060200190602002018181510191508181525050898360018151811015156125f857fe5b90602001906020020181815250505b5b8295505050505050949350505050565b600a5481565b612626610f06565b8015612645575060011515600860009054906101000a900460ff161515145b80156126a1575060001515600760003373ffffffffffffffffffffffffffffffffffffffff1673ffffffffffffffffffffffffffffffffffffffff16815260200190815260200160002060009054906101000a900460ff161515145b1561273b576001600760003373ffffffffffffffffffffffffffffffffffffffff1673ffffffffffffffffffffffffffffffffffffffff16815260200190815260200160002060006101000a81548160ff021916908315150217905550600680548060010182816127129190613afa565b916000526020600020900160008390919091509080519060200190612738929190613b26565b50505b50565b612746613bb0565b600154341180156128ad57506128ab336000805480602002602001604051908101604052809291908181526020016000905b828210156128a257838290600052602060002090600202016040805190810160405290816000820160009054906101000a900473ffffffffffffffffffffffffffffffffffffffff1673ffffffffffffffffffffffffffffffffffffffff1673ffffffffffffffffffffffffffffffffffffffff168152602001600182018054600181600116156101000203166002900480601f01602080910402602001604051908101604052809291908181526020018280546001816001161561010002031660029004801561288a5780601f1061285f5761010080835404028352916020019161288a565b820191906000526020600020905b81548152906001019060200180831161286d57829003601f168201915b50505050508152505081526020019060010190612778565b5050505061336e565b155b156129855733816000019073ffffffffffffffffffffffffffffffffffffffff16908173ffffffffffffffffffffffffffffffffffffffff1681525050818160200181905250600080548060010182816129079190613be6565b9160005260206000209060020201600083909190915060008201518160000160006101000a81548173ffffffffffffffffffffffffffffffffffffffff021916908373ffffffffffffffffffffffffffffffffffffffff1602179055506020820151816001019080519060200190612980929190613812565b505050505b5050565b600080600090505b6003548110156129dd5760006004828154811015156129ac57fe5b90600052602060002090600302016001018054905014156129d057600091506129e2565b8080600101915050612991565b600191505b5090565b60006129f061390a565b600084604051805910612a005750595b90808252806020026020018201604052509150600090505b84811015612a82578381815181101515612a2e57fe5b9060200190602002015160400151828783815181101515612a4b57fe5b90602001906020020151815181101515612a6157fe5b90602001906020020181815101915081815250508080600101915050612a18565b600090505b84811015612ac657600d548282815181101515612aa057fe5b90602001906020020151101515612ab957809250612aca565b8080600101915050612a87565b8492505b50509392505050565b6000612ae1858585856133f0565b9050949350505050565b612af361390a565b600080600080600d549350612b09878786613428565b9250612b18898b89898861343f565b9150612b24878561345a565b90508183018189011015612b4557612b3e83838a8461238d565b9450612b68565b6002604051805910612b545750595b908082528060200260200182016040525094505b5050505095945050505050565b600080600084925083915081831415612b8d57612ccd565b856002868603811515612b9c57fe5b048601815181101515612bab57fe5b9060200190602002015190505b8183111515612ca4575b808684815181101515612bd157fe5b906020019060200201511115612bee578280600101935050612bc2565b5b8582815181101515612bfd57fe5b90602001906020020151811115612c1c57818060019003925050612bef565b8183111515612c9f578582815181101515612c3357fe5b906020019060200201518684815181101515612c4b57fe5b906020019060200201518785815181101515612c6357fe5b9060200190602002018885815181101515612c7a57fe5b9060200190602002018281525082815250505082806001019350508180600190039250505b612bb8565b81851015612cb857612cb7868684612b75565b5b83831015612ccc57612ccb868486612b75565b5b5b505050505050565b600080612ce061390a565b612ce86138f6565b6000612cf261390a565b612cfa61390a565b612d0261390a565b600580549050604051805910612d155750595b908082528060200260200182016040525095508551604051805910612d375750595b908082528060200260200182016040528015612d6d57816020015b612d5a613932565b815260200190600190039081612d525790505b509450600097505b8551881015612dc6578551604051805910612d8d5750595b90808252806020026020018201604052508589815181101515612dac57fe5b906020019060200201819052508780600101985050612d75565b600097505b6001865103881015612f02578760010196505b8551871015612ef557612df1888861346e565b93506000841415612e6f57868589815181101515612e0b57fe5b90602001906020020151878a815181101515612e2357fe5b90602001906020020151815181101515612e3957fe5b90602001906020020181815250508588815181101515612e5557fe5b906020019060200201805180919060010181525050612ee8565b6001841415612ee757878588815181101515612e8757fe5b906020019060200201518789815181101515612e9f57fe5b90602001906020020151815181101515612eb557fe5b90602001906020020181815250508587815181101515612ed157fe5b9060200190602002018051809190600101815250505b5b8680600101975050612dde565b8780600101985050612dcb565b8551604051805910612f115750595b90808252806020026020018201604052509250600097505b8551881015612ffa5760008689815181101515612f4257fe5b90602001906020020151141515612fed57600096505b8588815181101515612f6657fe5b90602001906020020151871015612fec57858589815181101515612f8657fe5b9060200190602002015188815181101515612f9d57fe5b90602001906020020151815181101515612fb357fe5b906020019060200201518389815181101515612fcb57fe5b90602001906020020181815101915081815250508680600101975050612f58565b5b8780600101985050612f29565b85516040518059106130095750595b9080825280602002602001820160405250915061302d613028846136df565b611a0a565b9050600097505b85518810156130de57600096505b85518710156130d157828781518110151561305957fe5b90602001906020020151818981518110151561307157fe5b9060200190602002015114156130c45786828981518110151561309057fe5b9060200190602002018181525050855186510283888151811015156130b157fe5b90602001906020020181815250506130d1565b8680600101975050613042565b8780600101985050613034565b6130e782611753565b5050505050505050565b6000806000809150600090505b845181101561318857838181518110151561311557fe5b90602001906020020151858281518110151561312d57fe5b90602001906020020151111561315e57838181518110151561314b57fe5b906020019060200201518201915061317b565b848181518110151561316c57fe5b90602001906020020151820191505b80806001019150506130fe565b819250505092915050565b61319b613c18565b60006131a5613c18565b60006005805490509250826040518059106131bd5750595b9080825280602002602001820160405280156131f357816020015b6131e0613c2c565b8152602001906001900390816131d85790505b509150600090505b8281101561336557600060058281548110151561321457fe5b90600052602060002090015481548110151561322c57fe5b90600052602060002090600202016040805190810160405290816000820160009054906101000a900473ffffffffffffffffffffffffffffffffffffffff1673ffffffffffffffffffffffffffffffffffffffff1673ffffffffffffffffffffffffffffffffffffffff168152602001600182018054600181600116156101000203166002900480601f0160208091040260200160405190810160405280929190818152602001828054600181600116156101000203166002900480156133345780601f1061330957610100808354040283529160200191613334565b820191906000526020600020905b81548152906001019060200180831161331757829003601f168201915b505050505081525050828281518110151561334b57fe5b9060200190602002018190525080806001019150506131fb565b81935050505090565b600080600090505b82518110156133e4578373ffffffffffffffffffffffffffffffffffffffff1683828151811015156133a457fe5b906020019060200201516000015173ffffffffffffffffffffffffffffffffffffffff1614156133d757600191506133e9565b8080600101915050613376565b600091505b5092915050565b6000806133fd86866130f1565b90508060105460640302846001850103826010540281151561341b57fe5b0401915050949350505050565b60006134368385018361376c565b90509392505050565b600061344f8686858701856133f0565b905095945050505050565b6000613466838361376c565b905092915050565b60008060008060008060008060008060009850600097506006805490509650600060058d81548110151561349e57fe5b9060005260206000209001548154811015156134b657fe5b906000526020600020906002020160000160009054906101000a900473ffffffffffffffffffffffffffffffffffffffff169550600060058c8154811015156134fb57fe5b90600052602060002090015481548110151561351357fe5b906000526020600020906002020160000160009054906101000a900473ffffffffffffffffffffffffffffffffffffffff169450600093505b868410156136a95760028781151561356057fe5b04891115801561357c575060028781151561357757fe5b048811155b156136975760068481548110151561359057fe5b9060005260206000209001805490509250600091505b82821015613692576006848154811015156135bd57fe5b9060005260206000209001828154811015156135d557fe5b906000526020600020900160009054906101000a900473ffffffffffffffffffffffffffffffffffffffff1690508573ffffffffffffffffffffffffffffffffffffffff168173ffffffffffffffffffffffffffffffffffffffff161415613644578880600101995050613692565b8473ffffffffffffffffffffffffffffffffffffffff168173ffffffffffffffffffffffffffffffffffffffff161415613685578780600101985050613692565b81806001019250506135a6565b61369c565b6136a9565b838060010194505061354c565b878911156136ba57600099506136d0565b888811156136cb57600199506136d0565b600299505b50505050505050505092915050565b6136e761390a565b6136ef61390a565b600083516040518059106137005750595b90808252806020026020018201604052509150600090505b835181101561376257838181518110151561372f57fe5b90602001906020020151828281518110151561374757fe5b90602001906020020181815250508080600101915050613718565b8192505050919050565b600060646010546064030283600184010360646010540281151561378c57fe5b0401905092915050565b602060405190810160405280600081525090565b6040805190810160405280600073ffffffffffffffffffffffffffffffffffffffff1681526020016137da613c62565b81525090565b81548183558181151161380d5760020281600202836000526020600020918201910161380c9190613c76565b5b505050565b828054600181600116156101000203166002900490600052602060002090601f016020900481019282601f1061385357805160ff1916838001178555613881565b82800160010185558215613881579182015b82811115613880578251825591602001919060010190613865565b5b50905061388e9190613ccc565b5090565b8154818355818115116138bf576002028160020283600052602060002091820191016138be9190613c76565b5b505050565b8154818355818115116138f1576003028160030283600052602060002091820191016138f09190613cf1565b5b505050565b602060405190810160405280600081525090565b602060405190810160405280600081525090565b602060405190810160405280600081525090565b602060405190810160405280600081525090565b60606040519081016040528060008152602001613961613932565b8152602001600081525090565b8280548282559060005260206000209081019282156139aa579160200282015b828111156139a957825182559160200191906001019061398e565b5b5090506139b79190613ccc565b5090565b606060405190810160405280600081526020016139d6613932565b8152602001600081525090565b815481835581811511613a1057600302816003028360005260206000209182019101613a0f9190613cf1565b5b505050565b828054828255906000526020600020908101928215613a51579160200282015b82811115613a50578251825591602001919060010190613a35565b5b509050613a5e9190613ccc565b5090565b815481835581811511613a8957818360005260206000209182019101613a889190613ccc565b5b505050565b602060405190810160405280600081525090565b815481835581811511613ac957818360005260206000209182019101613ac89190613d30565b5b505050565b815481835581811511613af557818360005260206000209182019101613af49190613ccc565b5b505050565b815481835581811511613b2157818360005260206000209182019101613b209190613d30565b5b505050565b828054828255906000526020600020908101928215613b9f579160200282015b82811115613b9e5782518260006101000a81548173ffffffffffffffffffffffffffffffffffffffff021916908373ffffffffffffffffffffffffffffffffffffffff16021790555091602001919060010190613b46565b5b509050613bac9190613d5c565b5090565b6040805190810160405280600073ffffffffffffffffffffffffffffffffffffffff168152602001613be0613c62565b81525090565b815481835581811511613c1357600202816002028360005260206000209182019101613c129190613d9f565b5b505050565b602060405190810160405280600081525090565b6040805190810160405280600073ffffffffffffffffffffffffffffffffffffffff168152602001613c5c613c62565b81525090565b602060405190810160405280600081525090565b613cc991905b80821115613cc557600080820160006101000a81549073ffffffffffffffffffffffffffffffffffffffff0219169055600182016000613cbc9190613df5565b50600201613c7c565b5090565b90565b613cee91905b80821115613cea576000816000905550600101613cd2565b5090565b90565b613d2d91905b80821115613d2957600080820160009055600182016000613d189190613e3d565b600282016000905550600301613cf7565b5090565b90565b613d5991905b80821115613d555760008181613d4c9190613e5e565b50600101613d36565b5090565b90565b613d9c91905b80821115613d9857600081816101000a81549073ffffffffffffffffffffffffffffffffffffffff021916905550600101613d62565b5090565b90565b613df291905b80821115613dee57600080820160006101000a81549073ffffffffffffffffffffffffffffffffffffffff0219169055600182016000613de59190613df5565b50600201613da5565b5090565b90565b50805460018160011615610100020316600290046000825580601f10613e1b5750613e3a565b601f016020900490600052602060002090810190613e399190613ccc565b5b50565b5080546000825590600052602060002090810190613e5b9190613ccc565b50565b5080546000825590600052602060002090810190613e7c9190613ccc565b50565b613e88816141b9565b82525050565b6000613e998261417e565b808452602084019350613eab83614152565b60005b82811015613edd57613ec1868351613e7f565b613eca8261419f565b9150602086019550600181019050613eae565b50849250505092915050565b6000613ef482614189565b808452602084019350613f068361415f565b60005b82811015613f3857613f1c86835161400f565b613f25826141ac565b9150602086019550600181019050613f09565b50849250505092915050565b613f4d816141d9565b82525050565b6000613f5e82614194565b808452613f728160208601602086016141ef565b613f7b8161422b565b602085010191505092915050565b600081546001811660008114613fa65760018114613fc657614007565b607f600283041680865260ff198316602087015260408601935050614007565b60028204808652602086019550613fdc8561416c565b60005b82811015613ffe57815481890152600182019150602081019050613fdf565b80880195505050505b505092915050565b614018816141e5565b82525050565b600060208201905081810360008301526140388184613e8e565b905092915050565b6000602082019050818103600083015261405a8184613ee9565b905092915050565b60006020820190506140776000830184613f44565b92915050565b600060408201905081810360008301526140978185613f53565b90506140a66020830184613e7f565b9392505050565b600060808201905081810360008301526140c78187613f53565b90506140d66020830186613e7f565b6140e3604083018561400f565b81810360608301526140f58184613ee9565b905095945050505050565b6000604082019050818103600083015261411a8185613f53565b9050818103602083015261412e8184613f89565b90509392505050565b600060208201905061414c600083018461400f565b92915050565b6000602082019050919050565b6000602082019050919050565b60008160005260206000209050919050565b600081519050919050565b600081519050919050565b600081519050919050565b6000602082019050919050565b6000602082019050919050565b600073ffffffffffffffffffffffffffffffffffffffff82169050919050565b60008115159050919050565b6000819050919050565b60005b8381101561420d5780820151818401526020810190506141f2565b8381146000811461421d57614224565b6000858501525b5050505050565b6000601f19601f83011690509190505600a265627a7a7230582054eb431389ae32ac756d762c47acb3d9823c73971b27a546d22fc76ab32c42fd6c6578706572696d656e74616cf50037",
  "source": "pragma solidity ^0.4.18;\r\npragma experimental ABIEncoderV2;\r\nimport \"./MyLib.sol\";\r\nimport \"./VotingClub.sol\";\r\ncontract BudgetClub is VotingClub {\r\n  uint public numberOfSinks;\r\n  uint public quota;\r\n  uint public gasCost;\r\n  uint public numberOfTurns;\r\n  uint public coalitionSizeFactor;\r\n  uint public coalitionSizeFactorIncrease;\r\n  MyLib.Sink[] listOfSinks;\r\n  uint[] public finalBudget;\r\n\r\n\r\n  function BudgetClub(uint cost, uint term, uint reps, uint sinks, uint q, uint gas, uint turns, uint sizeFactor, uint sizeFactorIncrease) VotingClub(cost,term,reps) public {\r\n    numberOfSinks = sinks;\r\n    quota = q;\r\n    gasCost = gas;\r\n    numberOfTurns = turns;\r\n    coalitionSizeFactor = sizeFactor;\r\n    coalitionSizeFactorIncrease = sizeFactorIncrease;\r\n  }\r\n\r\n  function sendOut() {\r\n    uint startingBalance = this.balance;\r\n    for(uint i = 0; i < listOfSinks.length; i ++)\r\n    {\r\n      listOfSinks[i].spender.transfer(startingBalance * finalBudget[i] / 100);\r\n    }\r\n    listOfSinks.length = 0;\r\n\r\n  }\r\n\r\n  function submitBudget(uint[] budget) public\r\n  {\r\n    if(budget.length == numberOfSinks)\r\n    {\r\n      for (uint i = 0; i < numberOfRepresentatives; i++)\r\n      {\r\n        if(registeredUser[listOfRepresentatives[i].u].myAddress == msg.sender)\r\n        {\r\n          listOfRepresentatives[i].budget = budget;\r\n        }\r\n      }\r\n    }\r\n  }\r\n  //who should be able to do this\r\n  function submitSink(address spender, string name) public\r\n  {\r\n    if(listOfSinks.length < numberOfSinks)\r\n    {\r\n      for (uint i = 0; i < numberOfRepresentatives; i++)\r\n      {\r\n        if(registeredUser[listOfRepresentatives[i].u].myAddress == msg.sender)\r\n        {\r\n          MyLib.Sink memory s;\r\n          s.name = name;\r\n          s.spender = spender;\r\n          listOfSinks.push(s);\r\n        }\r\n      }\r\n    }\r\n  }\r\n\r\n\r\n  function endBudgetSubmit() public\r\n  {\r\n    if(allSubmitted())\r\n    {\r\n      decideBudget();\r\n      listOfRepresentatives.length = 0;\r\n    }\r\n  }\r\n\r\n  function allSubmitted() internal constant returns (bool)\r\n  {\r\n    for (uint i = 0; i < numberOfRepresentatives; i++)\r\n    {\r\n      if(listOfRepresentatives[i].budget.length == 0)\r\n      {\r\n        return false;\r\n      }\r\n    }\r\n    return true;\r\n  }\r\n\r\n\r\n  function decideBudget() public\r\n  {\r\n    uint quotaMemory = quota;\r\n    uint numberOfRepresentativesMemory = numberOfRepresentatives;\r\n    uint[][] memory coalitionBudgets = new uint[][](numberOfRepresentativesMemory);\r\n    uint[] memory coalitionSize = new uint[](numberOfRepresentativesMemory);\r\n    uint[] memory playerToCoalition = new uint[](numberOfRepresentativesMemory);\r\n    MyLib.Agent[] memory playerToAgent = new MyLib.Agent[](numberOfRepresentativesMemory);\r\n    uint i;\r\n    //init\r\n    for (i = 0; i < numberOfRepresentativesMemory; i++)\r\n    {\r\n      playerToAgent[i] = listOfRepresentatives[i];\r\n      coalitionBudgets[i] =  playerToAgent[i].budget;\r\n      coalitionSize[i] = 1;\r\n      playerToCoalition[i] = i;\r\n    }\r\n\r\n    uint player = 0;\r\n    while(winningCoalition(playerToCoalition,numberOfRepresentativesMemory,playerToAgent) == numberOfRepresentativesMemory)\r\n    {\r\n      //get utility in the current coalition\r\n      uint[] memory bestOffer = new uint[](2);\r\n      uint bestCoalition = numberOfRepresentativesMemory;\r\n      uint myAfloor = afloor(coalitionBudgets[playerToCoalition[player]],playerToAgent[player].budget,coalitionSize[playerToCoalition[player]],quotaMemory);\r\n      for(i = 0; i < numberOfRepresentativesMemory; i ++)\r\n      {\r\n        //dont check coalitions with no one or the one your in\r\n        if(playerToCoalition[player] != i && coalitionSize[i] != 0)\r\n        {\r\n          uint[] memory nego = offer(coalitionBudgets[i],playerToAgent[player].budget,myAfloor,coalitionSize[i],playerToAgent[player].weight);\r\n          if(nego[0] > bestOffer[0])\r\n          {\r\n            bestOffer = nego;\r\n            bestCoalition = i;\r\n          }\r\n        }\r\n\r\n      }\r\n\r\n      if(bestCoalition != numberOfRepresentativesMemory)\r\n      {\r\n        coalitionBudgets[bestCoalition] = negoToBudget(playerToAgent[player].budget, coalitionBudgets[bestCoalition], bestOffer, coalitionSize[bestCoalition] + playerToAgent[player].weight);\r\n        coalitionSize[playerToCoalition[player]] -= playerToAgent[player].weight;\r\n        coalitionSize[bestCoalition] += playerToAgent[player].weight;\r\n        playerToCoalition[player] = bestCoalition;\r\n\r\n      }\r\n\r\n      if(player == numberOfRepresentativesMemory - 1)\r\n      {\r\n        player = 0;\r\n      }\r\n      else{\r\n        player ++;\r\n      }\r\n      coalitionSizeFactor += coalitionSizeFactorIncrease;\r\n\r\n    }\r\n\r\n    finalBudget = coalitionBudgets[winningCoalition(playerToCoalition,numberOfRepresentativesMemory,playerToAgent)];\r\n\r\n  }\r\n\r\n  function offer(uint[] budgetCoal, uint[] budgeta, uint myAfloor, uint coalSize, uint agentWeight) constant internal returns (uint[])\r\n  {\r\n    uint quotaMemory = quota;\r\n    uint myAbar = abar(coalSize, agentWeight, quotaMemory);\r\n    uint myBbar = bbar(budgeta, budgetCoal, coalSize, agentWeight, quotaMemory);\r\n    uint myBfloor = bfloor(coalSize, quotaMemory);\r\n    if(myAfloor + myBfloor < myAbar + myBbar)\r\n    {\r\n      return negotiate(myAbar, myBbar ,myAfloor, myBfloor);\r\n    }\r\n    else{\r\n      return new uint[](2);\r\n    }\r\n  }\r\n\r\n  function afloor(uint[] budgetCoala, uint[] budgeta, uint coalSizea, uint quotaMemory ) constant internal returns (uint)\r\n  {\r\n    return calculateUtility(budgetCoala,budgeta,coalSizea,quotaMemory);\r\n  }\r\n  function bfloor(uint coalSize,  uint quotaMemory) constant internal returns (uint)\r\n  {\r\n    return calculate100Utility(coalSize,quotaMemory);\r\n  }\r\n  function abar(uint coalSize, uint agentWeight,  uint quotaMemory) constant internal returns (uint)\r\n  {\r\n    return calculate100Utility(coalSize + agentWeight,quotaMemory);\r\n  }\r\n  function bbar(uint[] budgetCoal, uint[] budgeta, uint coalSize, uint agentWeight,  uint quotaMemory) constant internal returns (uint)\r\n  {\r\n    return calculateUtility(budgetCoal,budgeta,coalSize + agentWeight,quotaMemory);\r\n  }\r\n  function winningCoalition(uint[] playerToCoalition, uint numberOfRepresentativesMemory,MyLib.Agent[] playerToAgent ) constant internal returns (uint)\r\n  {\r\n    uint[] memory weights = new uint[](numberOfRepresentativesMemory);\r\n    //add all the weights\r\n    for (uint i = 0; i < numberOfRepresentativesMemory ; i++)\r\n    {\r\n      weights[playerToCoalition[i]] += playerToAgent[i].weight;\r\n    }\r\n    for (i = 0; i < numberOfRepresentativesMemory ; i++)\r\n    {\r\n      if(weights[i] >= quota)\r\n      {\r\n        return i;\r\n      }\r\n    }\r\n    return numberOfRepresentativesMemory;\r\n  }\r\n\r\n  function calculate100Utility(uint coalitionSize,  uint quotaMemory) constant internal returns (uint)\r\n  {\r\n    return (uint) ((coalitionSizeFactor * 100) / (quotaMemory + 1 - coalitionSize) + ((100-coalitionSizeFactor) * 100));\r\n  }\r\n\r\n  function calculateUtility(uint[] budget1,uint[] budget2, uint coalitionSize,  uint quotaMemory) constant internal returns (uint)\r\n  {\r\n\r\n    uint shared = sharedBudget(budget1,budget2);\r\n    return (uint) ((coalitionSizeFactor * shared) / (quotaMemory + 1 - coalitionSize) + ((100-coalitionSizeFactor) * shared));\r\n  }\r\n\r\n  function sharedBudget(uint[] budget1,uint[] budget2) constant internal returns (uint)\r\n  {\r\n    uint shared = 0;\r\n    for(uint i = 0; i < budget1.length; i ++)\r\n    {\r\n      if(budget1[i] > budget2[i])\r\n      {\r\n        shared += budget2[i];\r\n      }\r\n      else{\r\n        shared += budget1[i];\r\n      }\r\n    }\r\n    return shared;\r\n  }\r\n  function negotiate(uint a_bar,uint b_bar,uint a_floor,uint b_floor)constant  public returns (uint[])\r\n  {\r\n    uint gasCostMemory = gasCost;\r\n    uint usefulTurn = ((a_bar + b_bar - a_floor - b_floor - 2) / gasCostMemory) + 1;\r\n    uint[] memory proposal = new uint[](2);\r\n\r\n    uint numberOfTurnsMemory = numberOfTurns;\r\n    if(usefulTurn > numberOfTurnsMemory)\r\n    {\r\n      usefulTurn = numberOfTurnsMemory;\r\n\r\n    }\r\n    uint freeUtility = a_bar + b_bar - ((usefulTurn - 1) * gasCostMemory) - a_floor - b_floor - 2;\r\n    if(usefulTurn % 2 == 0)\r\n    {\r\n      proposal[1] = b_floor + 1 + freeUtility + (((usefulTurn/ 2)-1) * gasCostMemory) + 1;\r\n      proposal[0] = a_bar + b_bar -  proposal[1];\r\n    }\r\n    else\r\n    {\r\n      proposal[0] = a_floor + 1 + freeUtility +  ((((usefulTurn + 1)/ 2)-1) * gasCostMemory);\r\n      proposal[1] = a_bar + b_bar -  proposal[0];\r\n    }\r\n    //cant go over the best amount\r\n    if(proposal[0] > a_bar)\r\n    {\r\n      proposal[1] +=  proposal[0] - a_bar;\r\n      proposal[0] = a_bar;\r\n    }\r\n    else if(proposal[1] > a_bar)\r\n    {\r\n      proposal[0] +=  proposal[1] - a_bar;\r\n      proposal[1] = a_bar;\r\n    }\r\n\r\n\r\n    return proposal;\r\n\r\n\r\n\r\n  }\r\n\r\n  function negoToBudget(uint[] budget1, uint [] budget2, uint[] nego, uint coalitionSize) constant public returns (uint[])\r\n  {\r\n    uint[] memory newBudget = new uint[](budget1.length);\r\n\r\n    uint sharedab = sharedBudget(budget1,budget2);\r\n\r\n    uint quotaMemory = quota;\r\n    uint individuala = (uint) (nego[0] / ((coalitionSizeFactor / (quotaMemory + 1 - coalitionSize)) + (100 - coalitionSizeFactor)) - sharedab);\r\n    uint individualb = (uint) (nego[1] / ((coalitionSizeFactor / (quotaMemory + 1 - coalitionSize)) + (100 - coalitionSizeFactor))- sharedab);\r\n\r\n\r\n    uint suma = 0;\r\n    uint sumb = 0;\r\n\r\n    for(uint i = 0; i < budget1.length; i ++)\r\n    {\r\n      if(budget1[i] > budget2[i])\r\n      {\r\n        suma += budget1[i];\r\n      }\r\n      else{\r\n        sumb += budget2[i];\r\n      }\r\n    }\r\n\r\n    uint total = 0;\r\n    for(i = 0; i < budget1.length; i ++)\r\n    {\r\n      if(budget1[i] > budget2[i])\r\n      {\r\n        total +=  budget2[i] + individuala * budget1[i] / suma;\r\n        newBudget[i] = budget2[i] + individuala * budget1[i] / suma;\r\n      }\r\n      else{\r\n        total +=  budget1[i] + individualb * budget2[i] / sumb;\r\n        newBudget[i] = budget1[i] + individualb * budget2[i] / sumb;\r\n      }\r\n    }\r\n    uint z = 0;\r\n    while(total < 100)\r\n    {\r\n      newBudget[z] += 1;\r\n      total +=1;\r\n      if(z == budget1.length - 1)\r\n      {\r\n        z = 0;\r\n      }\r\n      else\r\n      {\r\n        z ++;\r\n      }\r\n    }\r\n\r\n\r\n    return newBudget;\r\n  }\r\n\r\n  function listSinks(uint number) public constant returns (string,address) {\r\n\r\n    return (listOfSinks[number].name, listOfSinks[number].spender);\r\n  }\r\n\r\n  function getSinksLength() public constant returns (uint)\r\n  {\r\n    return listOfSinks.length;\r\n  }\r\n\r\n  function listFinalBudget(uint number) public constant returns(uint)\r\n  {\r\n    return finalBudget[number];\r\n  }\r\n\r\n\r\n}\r\n",
  "sourcePath": "C:\\Users\\JakeL\\Desktop\\MultiAgentSystemsOnTheBlockChain\\contracts\\BudgetClub.sol",
  "compiler": {
    "name": "solc",
    "version": "0.4.18+commit.9cf6e910.Emscripten.clang"
  },
  "schemaVersion": "1.0.1",
  "updatedAt": "2018-04-14T19:28:50.308Z"
}