{
  "contractName": "Club",
  "abi": [
    {
      "constant": true,
      "inputs": [],
      "name": "timeVoteStarted",
      "outputs": [
        {
          "name": "",
          "type": "uint256"
        }
      ],
      "payable": false,
      "stateMutability": "view",
      "type": "function"
    },
    {
      "constant": true,
      "inputs": [],
      "name": "numberOfSinks",
      "outputs": [
        {
          "name": "",
          "type": "uint256"
        }
      ],
      "payable": false,
      "stateMutability": "view",
      "type": "function"
    },
    {
      "constant": true,
      "inputs": [],
      "name": "termLength",
      "outputs": [
        {
          "name": "",
          "type": "uint256"
        }
      ],
      "payable": false,
      "stateMutability": "view",
      "type": "function"
    },
    {
      "constant": true,
      "inputs": [
        {
          "name": "",
          "type": "uint256"
        }
      ],
      "name": "finalBudget",
      "outputs": [
        {
          "name": "",
          "type": "uint256"
        }
      ],
      "payable": false,
      "stateMutability": "view",
      "type": "function"
    },
    {
      "constant": true,
      "inputs": [],
      "name": "numberOfRepresentatives",
      "outputs": [
        {
          "name": "",
          "type": "uint256"
        }
      ],
      "payable": false,
      "stateMutability": "view",
      "type": "function"
    },
    {
      "constant": true,
      "inputs": [
        {
          "name": "",
          "type": "address"
        }
      ],
      "name": "voted",
      "outputs": [
        {
          "name": "",
          "type": "bool"
        }
      ],
      "payable": false,
      "stateMutability": "view",
      "type": "function"
    },
    {
      "constant": true,
      "inputs": [],
      "name": "voteStarted",
      "outputs": [
        {
          "name": "",
          "type": "bool"
        }
      ],
      "payable": false,
      "stateMutability": "view",
      "type": "function"
    },
    {
      "constant": true,
      "inputs": [],
      "name": "registrationCost",
      "outputs": [
        {
          "name": "",
          "type": "uint256"
        }
      ],
      "payable": false,
      "stateMutability": "view",
      "type": "function"
    },
    {
      "constant": true,
      "inputs": [],
      "name": "timeVoteEnded",
      "outputs": [
        {
          "name": "",
          "type": "uint256"
        }
      ],
      "payable": false,
      "stateMutability": "view",
      "type": "function"
    },
    {
      "inputs": [
        {
          "name": "reps",
          "type": "uint256"
        },
        {
          "name": "sinks",
          "type": "uint256"
        },
        {
          "name": "cost",
          "type": "uint256"
        },
        {
          "name": "term",
          "type": "uint256"
        }
      ],
      "payable": false,
      "stateMutability": "nonpayable",
      "type": "constructor"
    },
    {
      "constant": false,
      "inputs": [],
      "name": "startVote",
      "outputs": [],
      "payable": false,
      "stateMutability": "nonpayable",
      "type": "function"
    },
    {
      "constant": false,
      "inputs": [
        {
          "name": "myVote",
          "type": "address[]"
        }
      ],
      "name": "vote",
      "outputs": [],
      "payable": false,
      "stateMutability": "nonpayable",
      "type": "function"
    },
    {
      "constant": false,
      "inputs": [],
      "name": "endVote",
      "outputs": [],
      "payable": false,
      "stateMutability": "nonpayable",
      "type": "function"
    },
    {
      "constant": false,
      "inputs": [
        {
          "name": "ranked",
          "type": "uint256[]"
        }
      ],
      "name": "weightCandidates",
      "outputs": [],
      "payable": false,
      "stateMutability": "nonpayable",
      "type": "function"
    },
    {
      "constant": false,
      "inputs": [
        {
          "name": "data",
          "type": "uint256[]"
        }
      ],
      "name": "sort",
      "outputs": [
        {
          "name": "",
          "type": "uint256[]"
        }
      ],
      "payable": false,
      "stateMutability": "nonpayable",
      "type": "function"
    },
    {
      "constant": false,
      "inputs": [],
      "name": "subsidize",
      "outputs": [],
      "payable": true,
      "stateMutability": "payable",
      "type": "function"
    },
    {
      "constant": true,
      "inputs": [],
      "name": "isRegistered",
      "outputs": [
        {
          "name": "",
          "type": "bool"
        }
      ],
      "payable": false,
      "stateMutability": "view",
      "type": "function"
    },
    {
      "constant": false,
      "inputs": [
        {
          "name": "name",
          "type": "string"
        }
      ],
      "name": "register",
      "outputs": [],
      "payable": true,
      "stateMutability": "payable",
      "type": "function"
    },
    {
      "constant": false,
      "inputs": [],
      "name": "apply",
      "outputs": [],
      "payable": false,
      "stateMutability": "nonpayable",
      "type": "function"
    },
    {
      "constant": false,
      "inputs": [
        {
          "name": "budget",
          "type": "uint256[]"
        }
      ],
      "name": "submitBudget",
      "outputs": [],
      "payable": false,
      "stateMutability": "nonpayable",
      "type": "function"
    },
    {
      "constant": false,
      "inputs": [
        {
          "name": "spender",
          "type": "address"
        },
        {
          "name": "name",
          "type": "string"
        }
      ],
      "name": "submitSink",
      "outputs": [],
      "payable": false,
      "stateMutability": "nonpayable",
      "type": "function"
    },
    {
      "constant": false,
      "inputs": [],
      "name": "endBudgetSumbit",
      "outputs": [],
      "payable": false,
      "stateMutability": "nonpayable",
      "type": "function"
    },
    {
      "constant": true,
      "inputs": [
        {
          "name": "number",
          "type": "uint256"
        }
      ],
      "name": "listRegisteredUsers",
      "outputs": [
        {
          "name": "",
          "type": "string"
        },
        {
          "name": "",
          "type": "address"
        }
      ],
      "payable": false,
      "stateMutability": "view",
      "type": "function"
    },
    {
      "constant": true,
      "inputs": [],
      "name": "getRegisteredUsersLength",
      "outputs": [
        {
          "name": "",
          "type": "uint256"
        }
      ],
      "payable": false,
      "stateMutability": "view",
      "type": "function"
    },
    {
      "constant": true,
      "inputs": [
        {
          "name": "number",
          "type": "uint256"
        }
      ],
      "name": "listCandidates",
      "outputs": [
        {
          "name": "",
          "type": "string"
        },
        {
          "name": "",
          "type": "address"
        }
      ],
      "payable": false,
      "stateMutability": "view",
      "type": "function"
    },
    {
      "constant": true,
      "inputs": [],
      "name": "getCandidatesLength",
      "outputs": [
        {
          "name": "",
          "type": "uint256"
        }
      ],
      "payable": false,
      "stateMutability": "view",
      "type": "function"
    },
    {
      "constant": true,
      "inputs": [
        {
          "name": "number",
          "type": "uint256"
        }
      ],
      "name": "listRepresentives",
      "outputs": [
        {
          "name": "",
          "type": "string"
        },
        {
          "name": "",
          "type": "address"
        },
        {
          "name": "",
          "type": "uint256"
        },
        {
          "name": "",
          "type": "uint256[]"
        }
      ],
      "payable": false,
      "stateMutability": "view",
      "type": "function"
    },
    {
      "constant": true,
      "inputs": [],
      "name": "getRepresentivesLength",
      "outputs": [
        {
          "name": "",
          "type": "uint256"
        }
      ],
      "payable": false,
      "stateMutability": "view",
      "type": "function"
    },
    {
      "constant": true,
      "inputs": [
        {
          "name": "number",
          "type": "uint256"
        }
      ],
      "name": "listSinks",
      "outputs": [
        {
          "name": "",
          "type": "string"
        },
        {
          "name": "",
          "type": "address"
        }
      ],
      "payable": false,
      "stateMutability": "view",
      "type": "function"
    },
    {
      "constant": true,
      "inputs": [],
      "name": "getSinksLength",
      "outputs": [
        {
          "name": "",
          "type": "uint256"
        }
      ],
      "payable": false,
      "stateMutability": "view",
      "type": "function"
    },
    {
      "constant": true,
      "inputs": [
        {
          "name": "number",
          "type": "uint256"
        }
      ],
      "name": "showVotes",
      "outputs": [
        {
          "name": "",
          "type": "address[]"
        }
      ],
      "payable": false,
      "stateMutability": "view",
      "type": "function"
    }
  ],
  "bytecode": "0x60606040526000600860006101000a81548160ff02191690831515021790555060006009556000600a5534156200003557600080fd5b60405160808062003083833981016040526200005b906780000000000000009062000097565b836000819055508260018190555081600281905550806003819055505050505062000117565b60006200008f82516200010d565b905092915050565b60008060008060808587031260018114620000b257620000b7565b600080fd5b506000620000c88782880162000081565b9450506020620000db8782880162000081565b9350506040620000ee8782880162000081565b9250506060620001018782880162000081565b91505092959194509250565b6000819050919050565b612f5c80620001276000396000f300606060405260043610610180576000357c0100000000000000000000000000000000000000000000000000000000900463ffffffff1680630cf35f441461018557806313dcd43e146101bc578063161893d0146101de5780631859df65146102075780631afad36d14610230578063223668441461025957806322ca968b146102825780632cd15220146102b95780634c0a6af0146102e25780635654a49b146102f75780635846fc461461030c5780636687d4fe1461032e5780636904d2411461036457806379b18cd11461038657806390f10ed1146103af5780639ec8b026146103b9578063ad012af0146103ef578063ae0689ac14610425578063aec2ccae1461044e578063af0ab71514610484578063b9223946146104bb578063c6214bf1146104d0578063d0dc0180146104f9578063d5268b2214610522578063db595b3b1461054b578063dc4a7f7f14610560578063dee6472f14610589578063ed00af98146105c2578063ed081329146105eb578063f2c298be1461060d575b600080fd5b341561019057600080fd5b6101a560046101a0903690612b05565b610624565b6040516101b3929190612caf565b60405180910390f35b34156101c757600080fd5b6101dc60046101d79036906129a6565b610734565b005b34156101e957600080fd5b6101f1610813565b6040516101fe9190612d32565b60405180910390f35b341561021257600080fd5b61021a610819565b6040516102279190612d32565b60405180910390f35b341561023b57600080fd5b610243610826565b6040516102509190612d32565b60405180910390f35b341561026457600080fd5b61026c610833565b6040516102799190612c94565b60405180910390f35b341561028d57600080fd5b6102a2600461029d903690612b05565b6108db565b6040516102b0929190612caf565b60405180910390f35b34156102c457600080fd5b6102cc610a1f565b6040516102d99190612d32565b60405180910390f35b34156102ed57600080fd5b6102f5610a25565b005b341561030257600080fd5b61030a610a77565b005b341561031757600080fd5b61032c6004610327903690612a5f565b610aac565b005b341561033957600080fd5b61034e6004610349903690612b05565b610b8b565b60405161035b9190612c50565b60405180910390f35b341561036f57600080fd5b610384600461037f903690612a5f565b610c39565b005b341561039157600080fd5b610399610d24565b6040516103a69190612d32565b60405180910390f35b6103b7610d2a565b005b34156103c457600080fd5b6103d960046103d4903690612a5f565b610d2c565b6040516103e69190612c72565b60405180910390f35b34156103fa57600080fd5b61040f600461040a903690612b05565b610d4c565b60405161041c9190612d32565b60405180910390f35b341561043057600080fd5b610438610d70565b6040516104459190612d32565b60405180910390f35b341561045957600080fd5b61046e6004610469903690612974565b610d76565b60405161047b9190612c94565b60405180910390f35b341561048f57600080fd5b6104a4600461049f903690612b05565b610d96565b6040516104b2929190612caf565b60405180910390f35b34156104c657600080fd5b6104ce610ea6565b005b34156104db57600080fd5b6104e3610edb565b6040516104f09190612d32565b60405180910390f35b341561050457600080fd5b61050c610ee8565b6040516105199190612c94565b60405180910390f35b341561052d57600080fd5b610535610efb565b6040516105429190612d32565b60405180910390f35b341561055657600080fd5b61055e610f08565b005b341561056b57600080fd5b610573610fe2565b6040516105809190612d32565b60405180910390f35b341561059457600080fd5b6105a960046105a4903690612b05565b610fe8565b6040516105b99493929190612cdf565b60405180910390f35b34156105cd57600080fd5b6105d56111da565b6040516105e29190612d32565b60405180910390f35b34156105f657600080fd5b61060b6004610606903690612a0c565b6111e0565b005b610622600461061d903690612ab2565b611300565b005b61062c61219c565b600060048381548110151561063d57fe5b906000526020600020906002020160010160048481548110151561065d57fe5b906000526020600020906002020160000160009054906101000a900473ffffffffffffffffffffffffffffffffffffffff16818054600181600116156101000203166002900480601f0160208091040260200160405190810160405280929190818152602001828054600181600116156101000203166002900480156107245780601f106106f957610100808354040283529160200191610724565b820191906000526020600020905b81548152906001019060200180831161070757829003601f168201915b5050505050915091509150915091565b61073c6121b0565b81816020018190525082816000019073ffffffffffffffffffffffffffffffffffffffff16908173ffffffffffffffffffffffffffffffffffffffff1681525050600c805480600101828161079191906121e6565b9160005260206000209060020201600083909190915060008201518160000160006101000a81548173ffffffffffffffffffffffffffffffffffffffff021916908373ffffffffffffffffffffffffffffffffffffffff160217905550602082015181600101908051906020019061080a929190612218565b50505050505050565b60095481565b6000600580549050905090565b6000600480549050905090565b600080600090505b6004805490508110156108d2573373ffffffffffffffffffffffffffffffffffffffff1660048281548110151561086e57fe5b906000526020600020906002020160000160009054906101000a900473ffffffffffffffffffffffffffffffffffffffff1673ffffffffffffffffffffffffffffffffffffffff1614156108c557600191506108d7565b808060010191505061083b565b600091505b5090565b6108e361219c565b600060046005848154811015156108f657fe5b90600052602060002090015481548110151561090e57fe5b9060005260206000209060020201600101600460058581548110151561093057fe5b90600052602060002090015481548110151561094857fe5b906000526020600020906002020160000160009054906101000a900473ffffffffffffffffffffffffffffffffffffffff16818054600181600116156101000203166002900480601f016020809104026020016040519081016040528092919081815260200182805460018160011615610100020316600290048015610a0f5780601f106109e457610100808354040283529160200191610a0f565b820191906000526020600020905b8154815290600101906020018083116109f257829003601f168201915b5050505050915091509150915091565b60015481565b42600354600a5401108015610a4d575060001515600860009054906101000a900460ff161515145b15610a75576001600860006101000a81548160ff021916908315150217905550426009819055505b565b42600a5411158015610a9c575060001515600860009054906101000a900460ff161515145b15610aaa57610aa961154b565b5b565b6000610ab6612298565b600091505b600054821015610b765760058383815181101515610ad557fe5b90602001906020020151815481101515610aeb57fe5b9060005260206000209001548160000181815250506001816040018181525050600b8054806001018281610b1f91906122c0565b91600052602060002090600302016000839091909150600082015181600001556020820151816001019080519060200190610b5b9291906122f2565b50604082015181600201555050508180600101925050610abb565b6000600581610b85919061233f565b50505050565b610b9361236b565b600682815481101515610ba257fe5b9060005260206000209001805480602002602001604051908101604052809291908181526020018280548015610c2d57602002820191906000526020600020905b8160009054906101000a900473ffffffffffffffffffffffffffffffffffffffff1673ffffffffffffffffffffffffffffffffffffffff1681526020019060010190808311610be3575b50505050509050919050565b60008090505b600054811015610d20573373ffffffffffffffffffffffffffffffffffffffff166004600b83815481101515610c7157fe5b906000526020600020906003020160000154815481101515610c8f57fe5b906000526020600020906002020160000160009054906101000a900473ffffffffffffffffffffffffffffffffffffffff1673ffffffffffffffffffffffffffffffffffffffff161415610d135781600b82815481101515610ced57fe5b90600052602060002090600302016001019080519060200190610d1192919061237f565b505b8080600101915050610c3f565b5050565b60035481565b565b610d346123cc565b610d4482600060018551036116ce565b819050919050565b600d81815481101515610d5b57fe5b90600052602060002090016000915090505481565b60005481565b60076020528060005260406000206000915054906101000a900460ff1681565b610d9e61219c565b6000600c83815481101515610daf57fe5b9060005260206000209060020201600101600c84815481101515610dcf57fe5b906000526020600020906002020160000160009054906101000a900473ffffffffffffffffffffffffffffffffffffffff16818054600181600116156101000203166002900480601f016020809104026020016040519081016040528092919081815260200182805460018160011615610100020316600290048015610e965780601f10610e6b57610100808354040283529160200191610e96565b820191906000526020600020905b815481529060010190602001808311610e7957829003601f168201915b5050505050915091509150915091565b4260095411158015610ecb575060011515600860009054906101000a900460ff161515145b15610ed957610ed861182e565b5b565b6000600c80549050905090565b600860009054906101000a900460ff1681565b6000600b80549050905090565b6000610f1b33610f16611c41565b611e1c565b1515610fdf57600090505b600480549050811015610fde573373ffffffffffffffffffffffffffffffffffffffff16600482815481101515610f5957fe5b906000526020600020906002020160000160009054906101000a900473ffffffffffffffffffffffffffffffffffffffff1673ffffffffffffffffffffffffffffffffffffffff161415610fd15760058054806001018281610fbb91906123e0565b9160005260206000209001600083909190915055505b8080600101915050610f26565b5b50565b60025481565b610ff061219c565b600080610ffb6123cc565b6004600b8681548110151561100c57fe5b90600052602060002090600302016000015481548110151561102a57fe5b90600052602060002090600202016001016004600b8781548110151561104c57fe5b90600052602060002090600302016000015481548110151561106a57fe5b906000526020600020906002020160000160009054906101000a900473ffffffffffffffffffffffffffffffffffffffff16600b878154811015156110ab57fe5b906000526020600020906003020160020154600b888154811015156110cc57fe5b9060005260206000209060030201600101838054600181600116156101000203166002900480601f0160208091040260200160405190810160405280929190818152602001828054600181600116156101000203166002900480156111725780601f1061114757610100808354040283529160200191611172565b820191906000526020600020905b81548152906001019060200180831161115557829003601f168201915b50505050509350808054806020026020016040519081016040528092919081815260200182805480156111c457602002820191906000526020600020905b8154815260200190600101908083116111b0575b5050505050905093509350935093509193509193565b600a5481565b6111e8610833565b8015611207575060011515600860009054906101000a900460ff161515145b8015611263575060001515600760003373ffffffffffffffffffffffffffffffffffffffff1673ffffffffffffffffffffffffffffffffffffffff16815260200190815260200160002060009054906101000a900460ff161515145b156112fd576001600760003373ffffffffffffffffffffffffffffffffffffffff1673ffffffffffffffffffffffffffffffffffffffff16815260200190815260200160002060006101000a81548160ff021916908315150217905550600680548060010182816112d4919061240c565b9160005260206000209001600083909190915090805190602001906112fa929190612438565b50505b50565b6113086124c2565b6002543411801561146f575061146d336004805480602002602001604051908101604052809291908181526020016000905b8282101561146457838290600052602060002090600202016040805190810160405290816000820160009054906101000a900473ffffffffffffffffffffffffffffffffffffffff1673ffffffffffffffffffffffffffffffffffffffff1673ffffffffffffffffffffffffffffffffffffffff168152602001600182018054600181600116156101000203166002900480601f01602080910402602001604051908101604052809291908181526020018280546001816001161561010002031660029004801561144c5780601f106114215761010080835404028352916020019161144c565b820191906000526020600020905b81548152906001019060200180831161142f57829003601f168201915b5050505050815250508152602001906001019061133a565b50505050611e1c565b155b156115475733816000019073ffffffffffffffffffffffffffffffffffffffff16908173ffffffffffffffffffffffffffffffffffffffff1681525050818160200181905250600480548060010182816114c991906124f8565b9160005260206000209060020201600083909190915060008201518160000160006101000a81548173ffffffffffffffffffffffffffffffffffffffff021916908373ffffffffffffffffffffffffffffffffffffffff1602179055506020820151816001019080519060200190611542929190612218565b505050505b5050565b61155361252a565b61155b61252a565b6000805460405180591061156c5750595b9080825280602002602001820160405280156115a257816020015b61158f61253e565b8152602001906001900390816115875790505b5092506000546040518059106115b55750595b9080825280602002602001820160405280156115eb57816020015b6115d861253e565b8152602001906001900390816115d05790505b509150600090505b6000548110156116c95780838281518110151561160c57fe5b90602001906020020151600081518110151561162457fe5b9060200190602002018181525050600b8181548110151561164157fe5b906000526020600020906003020160010180548060200260200160405190810160405280929190818152602001828054801561169c57602002820191906000526020600020905b815481526020019060010190808311611688575b505050505082828151811015156116af57fe5b9060200190602002018190525080806001019150506115f3565b505050565b6000806000849250839150818314156116e657611826565b8560028686038115156116f557fe5b05860181518110151561170457fe5b9060200190602002015190505b81831315156117fd575b80868481518110151561172a57fe5b90602001906020020151111561174757828060010193505061171b565b5b858281518110151561175657fe5b9060200190602002015181111561177557818060019003925050611748565b81831315156117f857858281518110151561178c57fe5b9060200190602002015186848151811015156117a457fe5b9060200190602002015187858151811015156117bc57fe5b90602001906020020188858151811015156117d357fe5b9060200190602002018281525082815250505082806001019350508180600190039250505b611711565b81851215611811576118108686846116ce565b5b83831215611825576118248684866116ce565b5b5b505050505050565b6000806118396123cc565b61184161252a565b600061184b6123cc565b6118536123cc565b61185b6123cc565b60058054905060405180591061186e5750595b9080825280602002602001820160405250955085516040518059106118905750595b9080825280602002602001820160405280156118c657816020015b6118b361253e565b8152602001906001900390816118ab5790505b509450600097505b855188101561191f5785516040518059106118e65750595b9080825280602002602001820160405250858981518110151561190557fe5b9060200190602002018190525087806001019850506118ce565b600097505b6001865103881015611a5b578760010196505b8551871015611a4e5761194a8888611e9e565b935060008414156119c85786858981518110151561196457fe5b90602001906020020151878a81518110151561197c57fe5b9060200190602002015181518110151561199257fe5b906020019060200201818152505085888151811015156119ae57fe5b906020019060200201805180919060010181525050611a41565b6001841415611a40578785888151811015156119e057fe5b9060200190602002015187898151811015156119f857fe5b90602001906020020151815181101515611a0e57fe5b90602001906020020181815250508587815181101515611a2a57fe5b9060200190602002018051809190600101815250505b5b8680600101975050611937565b8780600101985050611924565b8551604051805910611a6a5750595b90808252806020026020018201604052509250600097505b8551881015611b535760008689815181101515611a9b57fe5b90602001906020020151141515611b4657600096505b8588815181101515611abf57fe5b90602001906020020151871015611b4557858589815181101515611adf57fe5b9060200190602002015188815181101515611af657fe5b90602001906020020151815181101515611b0c57fe5b906020019060200201518389815181101515611b2457fe5b90602001906020020181815101915081815250508680600101975050611ab1565b5b8780600101985050611a82565b8551604051805910611b625750595b90808252806020026020018201604052509150611b86611b818461210f565b610d2c565b9050600097505b8551881015611c3757600096505b8551871015611c2a578287815181101515611bb257fe5b906020019060200201518189815181101515611bca57fe5b906020019060200201511415611c1d57868289815181101515611be957fe5b906020019060200201818152505085518651028388815181101515611c0a57fe5b9060200190602002018181525050611c2a565b8680600101975050611b9b565b8780600101985050611b8d565b5050505050505050565b611c49612552565b6000611c53612552565b6000600580549050925082604051805910611c6b5750595b908082528060200260200182016040528015611ca157816020015b611c8e612566565b815260200190600190039081611c865790505b509150600090505b82811015611e13576004600582815481101515611cc257fe5b906000526020600020900154815481101515611cda57fe5b90600052602060002090600202016040805190810160405290816000820160009054906101000a900473ffffffffffffffffffffffffffffffffffffffff1673ffffffffffffffffffffffffffffffffffffffff1673ffffffffffffffffffffffffffffffffffffffff168152602001600182018054600181600116156101000203166002900480601f016020809104026020016040519081016040528092919081815260200182805460018160011615610100020316600290048015611de25780601f10611db757610100808354040283529160200191611de2565b820191906000526020600020905b815481529060010190602001808311611dc557829003601f168201915b5050505050815250508282815181101515611df957fe5b906020019060200201819052508080600101915050611ca9565b81935050505090565b600080600090505b8251811015611e92578373ffffffffffffffffffffffffffffffffffffffff168382815181101515611e5257fe5b906020019060200201516000015173ffffffffffffffffffffffffffffffffffffffff161415611e855760019150611e97565b8080600101915050611e24565b600091505b5092915050565b60008060008060008060008060008060009850600097506006805490509650600460058d815481101515611ece57fe5b906000526020600020900154815481101515611ee657fe5b906000526020600020906002020160000160009054906101000a900473ffffffffffffffffffffffffffffffffffffffff169550600460058c815481101515611f2b57fe5b906000526020600020900154815481101515611f4357fe5b906000526020600020906002020160000160009054906101000a900473ffffffffffffffffffffffffffffffffffffffff169450600093505b868410156120d957600287811515611f9057fe5b048911158015611fac5750600287811515611fa757fe5b048811155b156120c757600684815481101515611fc057fe5b9060005260206000209001805490509250600091505b828210156120c257600684815481101515611fed57fe5b90600052602060002090018281548110151561200557fe5b906000526020600020900160009054906101000a900473ffffffffffffffffffffffffffffffffffffffff1690508573ffffffffffffffffffffffffffffffffffffffff168173ffffffffffffffffffffffffffffffffffffffff1614156120745788806001019950506120c2565b8473ffffffffffffffffffffffffffffffffffffffff168173ffffffffffffffffffffffffffffffffffffffff1614156120b55787806001019850506120c2565b8180600101925050611fd6565b6120cc565b6120d9565b8380600101945050611f7c565b878911156120ea5760009950612100565b888811156120fb5760019950612100565b600299505b50505050505050505092915050565b6121176123cc565b61211f6123cc565b600083516040518059106121305750595b90808252806020026020018201604052509150600090505b835181101561219257838181518110151561215f57fe5b90602001906020020151828281518110151561217757fe5b90602001906020020181815250508080600101915050612148565b8192505050919050565b602060405190810160405280600081525090565b6040805190810160405280600073ffffffffffffffffffffffffffffffffffffffff1681526020016121e061259c565b81525090565b8154818355818115116122135760020281600202836000526020600020918201910161221291906125b0565b5b505050565b828054600181600116156101000203166002900490600052602060002090601f016020900481019282601f1061225957805160ff1916838001178555612287565b82800160010185558215612287579182015b8281111561228657825182559160200191906001019061226b565b5b5090506122949190612606565b5090565b606060405190810160405280600081526020016122b361253e565b8152602001600081525090565b8154818355818115116122ed576003028160030283600052602060002091820191016122ec919061262b565b5b505050565b82805482825590600052602060002090810192821561232e579160200282015b8281111561232d578251825591602001919060010190612312565b5b50905061233b9190612606565b5090565b815481835581811511612366578183600052602060002091820191016123659190612606565b5b505050565b602060405190810160405280600081525090565b8280548282559060005260206000209081019282156123bb579160200282015b828111156123ba57825182559160200191906001019061239f565b5b5090506123c89190612606565b5090565b602060405190810160405280600081525090565b815481835581811511612407578183600052602060002091820191016124069190612606565b5b505050565b81548183558181151161243357818360005260206000209182019101612432919061266a565b5b505050565b8280548282559060005260206000209081019282156124b1579160200282015b828111156124b05782518260006101000a81548173ffffffffffffffffffffffffffffffffffffffff021916908373ffffffffffffffffffffffffffffffffffffffff16021790555091602001919060010190612458565b5b5090506124be9190612696565b5090565b6040805190810160405280600073ffffffffffffffffffffffffffffffffffffffff1681526020016124f261259c565b81525090565b8154818355818115116125255760020281600202836000526020600020918201910161252491906126d9565b5b505050565b602060405190810160405280600081525090565b602060405190810160405280600081525090565b602060405190810160405280600081525090565b6040805190810160405280600073ffffffffffffffffffffffffffffffffffffffff16815260200161259661259c565b81525090565b602060405190810160405280600081525090565b61260391905b808211156125ff57600080820160006101000a81549073ffffffffffffffffffffffffffffffffffffffff02191690556001820160006125f6919061272f565b506002016125b6565b5090565b90565b61262891905b8082111561262457600081600090555060010161260c565b5090565b90565b61266791905b80821115612663576000808201600090556001820160006126529190612777565b600282016000905550600301612631565b5090565b90565b61269391905b8082111561268f57600081816126869190612798565b50600101612670565b5090565b90565b6126d691905b808211156126d257600081816101000a81549073ffffffffffffffffffffffffffffffffffffffff02191690555060010161269c565b5090565b90565b61272c91905b8082111561272857600080820160006101000a81549073ffffffffffffffffffffffffffffffffffffffff021916905560018201600061271f919061272f565b506002016126df565b5090565b90565b50805460018160011615610100020316600290046000825580601f106127555750612774565b601f0160209004906000526020600020908101906127739190612606565b5b50565b50805460008255906000526020600020908101906127959190612606565b50565b50805460008255906000526020600020908101906127b69190612606565b50565b60006127c58235612ea5565b905092915050565b600082601f830112600081146127e2576127e7565b600080fd5b5081356127fb6127f682612d83565b612d4d565b9150818183526020840193506020810190508385602084028201116001811461282357612828565b600080fd5b5060005b83811015612859578161283f88826127b9565b84526020840193506020830192505060018101905061282c565b5050505092915050565b600082601f830112600081146128785761287d565b600080fd5b50813561289161288c82612db4565b612d4d565b915081818352602084019350602081019050838560208402820111600181146128b9576128be565b600080fd5b5060005b838110156128ef57816128d58882612960565b8452602084019350602083019250506001810190506128c2565b5050505092915050565b600082601f8301126000811461290e57612913565b600080fd5b50813561292761292282612de5565b612d4d565b915080825260208301602083018583830111600181146129465761294b565b600080fd5b50612957838284612ecf565b50505092915050565b600061296c8235612ec5565b905092915050565b6000602082840312600181146129895761298e565b600080fd5b50600061299d848285016127b9565b91505092915050565b600080604083850312600181146129bc576129c1565b600080fd5b5060006129d0858286016127b9565b925050602083013567ffffffffffffffff8111600181146129f0576129f5565b600080fd5b50612a02858286016128f9565b9150509250929050565b600060208284031260018114612a2157612a26565b600080fd5b50600082013567ffffffffffffffff811160018114612a4457612a49565b600080fd5b50612a56848285016127cd565b91505092915050565b600060208284031260018114612a7457612a79565b600080fd5b50600082013567ffffffffffffffff811160018114612a9757612a9c565b600080fd5b50612aa984828501612863565b91505092915050565b600060208284031260018114612ac757612acc565b600080fd5b50600082013567ffffffffffffffff811160018114612aea57612aef565b600080fd5b50612afc848285016128f9565b91505092915050565b600060208284031260018114612b1a57612b1f565b600080fd5b506000612b2e84828501612960565b91505092915050565b612b4081612e6f565b82525050565b6000612b5182612e34565b808452602084019350612b6383612e1a565b60005b82811015612b9557612b79868351612b37565b612b8282612e55565b9150602086019550600181019050612b66565b50849250505092915050565b6000612bac82612e3f565b808452602084019350612bbe83612e27565b60005b82811015612bf057612bd4868351612c41565b612bdd82612e62565b9150602086019550600181019050612bc1565b50849250505092915050565b612c0581612e8f565b82525050565b6000612c1682612e4a565b808452612c2a816020860160208601612ede565b612c3381612f11565b602085010191505092915050565b612c4a81612e9b565b82525050565b60006020820190508181036000830152612c6a8184612b46565b905092915050565b60006020820190508181036000830152612c8c8184612ba1565b905092915050565b6000602082019050612ca96000830184612bfc565b92915050565b60006040820190508181036000830152612cc98185612c0b565b9050612cd86020830184612b37565b9392505050565b60006080820190508181036000830152612cf98187612c0b565b9050612d086020830186612b37565b612d156040830185612c41565b8181036060830152612d278184612ba1565b905095945050505050565b6000602082019050612d476000830184612c41565b92915050565b6000604051905081810181811067ffffffffffffffff82111760018114612d7357612d78565b600080fd5b508060405250919050565b600067ffffffffffffffff821160018114612d9d57612da2565b600080fd5b50602082029050602081019050919050565b600067ffffffffffffffff821160018114612dce57612dd3565b600080fd5b50602082029050602081019050919050565b600067ffffffffffffffff821160018114612dff57612e04565b600080fd5b50601f19601f8301169050602081019050919050565b6000602082019050919050565b6000602082019050919050565b600081519050919050565b600081519050919050565b600081519050919050565b6000602082019050919050565b6000602082019050919050565b600073ffffffffffffffffffffffffffffffffffffffff82169050919050565b60008115159050919050565b6000819050919050565b600073ffffffffffffffffffffffffffffffffffffffff82169050919050565b6000819050919050565b82818337600083830152505050565b60005b83811015612efc578082015181840152602081019050612ee1565b83811115612f0b576000848401525b50505050565b6000601f19601f83011690509190505600a265627a7a723058202dedf78f064ae89154275f57692e6974137519299d31b714317034eb9fbe99f86c6578706572696d656e74616cf50037",
  "source": "pragma solidity ^0.4.19;\r\npragma experimental ABIEncoderV2;\r\nimport \"./MyLib.sol\";\r\n\r\ncontract Club {\r\n\r\n  uint public numberOfRepresentatives;\r\n  uint public numberOfSinks;\r\n  uint public registrationCost;\r\n  uint public termLength;\r\n  MyLib.User[] registeredUser;\r\n  uint[] candidates;\r\n  address[][] votes;\r\n  mapping (address => bool) public voted;\r\n  bool public voteStarted = false;\r\n  uint public timeVoteStarted =0;\r\n  uint public timeVoteEnded =0;\r\n  MyLib.Agent[] listOfRepresentatives;\r\n  MyLib.Sink[] listOfSinks;\r\n  uint[] public finalBudget;\r\n\r\n  function Club(uint reps, uint sinks, uint cost, uint term) public {\r\n    numberOfRepresentatives = reps;\r\n    numberOfSinks = sinks;\r\n    registrationCost = cost;\r\n    termLength = term;\r\n  }\r\n\r\n\r\n  function startVote() public {\r\n    if(timeVoteEnded + termLength < block.timestamp && voteStarted == false)\r\n    {\r\n      voteStarted = true;\r\n      timeVoteStarted = block.timestamp;\r\n    }\r\n  }\r\n\r\n  function vote(address[] myVote) public {\r\n    if(isRegistered() && voteStarted == true && voted[msg.sender] == false){\r\n      voted[msg.sender] = true;\r\n      votes.push(myVote);\r\n\r\n    }\r\n  }\r\n  function endVote() public\r\n  {\r\n    if(timeVoteStarted <= block.timestamp && voteStarted == true)\r\n    {\r\n    //  voteStarted = false;\r\n    //  /timeVoteEnded = block.timestamp;\r\n      countVotes();\r\n    }\r\n\r\n  }\r\n  //second order copeland\r\n  function countVotes() internal {\r\n    uint i;\r\n    uint p;\r\n    uint[] memory copelandScore = new uint[](candidates.length);\r\n    uint[][] memory defeated = new uint[][](copelandScore.length);\r\n\r\n    //init2d array\r\n    for (i = 0; i < copelandScore.length; i++)\r\n    {\r\n      defeated[i] = new uint[](copelandScore.length);\r\n    }\r\n\r\n    //pairwise each candidate against each other\r\n    for (i = 0; i < copelandScore.length - 1; i++)\r\n    {\r\n      for (p = 1 + i; p < copelandScore.length; p++)\r\n      {\r\n        uint pairwise = pairwiseComparison(i,p);\r\n\r\n        if(pairwise == 0)\r\n        {\r\n          defeated[i][copelandScore[i]] = p;\r\n          copelandScore[i] ++;\r\n        }\r\n        else if (pairwise == 1) {\r\n          defeated[p][copelandScore[p]] = i;\r\n          copelandScore[p] ++;\r\n        }\r\n\r\n\r\n      }\r\n    }\r\n\r\n    //add up the copeland scores of defeated users\r\n    uint[] memory secondOrderCopeland = new uint[](copelandScore.length);\r\n    for(i =0; i < copelandScore.length; i++)\r\n    {\r\n      if(copelandScore[i] != 0)\r\n      {\r\n        for(p =0; p < copelandScore[i] ; p++)\r\n        {\r\n          secondOrderCopeland[i] += copelandScore[defeated[i][p]];\r\n        }\r\n      }\r\n    }\r\n\r\n    uint[] memory ranked = new uint[](copelandScore.length);\r\n    uint[] memory sortedSecondOrderCopeland = sort(copy(secondOrderCopeland));\r\n\r\n\r\n    for(i=0; i < copelandScore.length; i ++ )\r\n    {\r\n      for(p=0; p < copelandScore.length; p ++ )\r\n      {\r\n        if(sortedSecondOrderCopeland[i] == secondOrderCopeland[p])\r\n        {\r\n          ranked[i] = p;\r\n          secondOrderCopeland[p] = copelandScore.length  * copelandScore.length;\r\n          break;\r\n        }\r\n      }\r\n    }\r\n\r\n    //weightCandidates(ranked);\r\n\r\n  }\r\n\r\n\r\n  function copy(uint[] toCopy) internal pure returns (uint[])\r\n  {\r\n    uint[] memory copyTo = new uint[](toCopy.length);\r\n    for(uint i = 0; i < toCopy.length; i ++)\r\n    {\r\n      copyTo[i] = toCopy[i];\r\n    }\r\n    return copyTo;\r\n  }\r\n  function pairwiseComparison(uint i, uint p) internal constant returns (uint)\r\n  {\r\n    uint scorei = 0;\r\n    uint scorep = 0;\r\n    uint voteLength = votes.length;\r\n    address iaddress = registeredUser[candidates[i]].myAddress;\r\n    address paddress = registeredUser[candidates[p]].myAddress;\r\n\r\n    for(uint z =0; z < voteLength; z ++)\r\n    {\r\n      if (scorei <= voteLength / 2 && scorep <= voteLength /2)\r\n      {\r\n        //if not seen its the highest\r\n        uint votezlength = votes[z].length;\r\n        for(uint j =0; j < votezlength; j ++)\r\n        {\r\n          address voteaddress = votes[z][j];\r\n          if(voteaddress == iaddress )\r\n          {\r\n            scorei ++;\r\n            break;\r\n          }\r\n          else if(voteaddress == paddress )\r\n          {\r\n            scorep ++;\r\n            break;\r\n          }\r\n        }\r\n      }\r\n      else{\r\n        //if majority for one candidate no need to continue\r\n        break;\r\n      }\r\n    }\r\n    if(scorei > scorep)\r\n    {\r\n      return 0;\r\n    }\r\n    else if (scorep > scorei) {\r\n      return 1;\r\n    }\r\n    else\r\n    {\r\n      return 2;\r\n    }\r\n  }\r\n  function weightCandidates(uint[] ranked) public\r\n  {\r\n    for (uint i = 0; i < numberOfRepresentatives; i++)\r\n    {\r\n      MyLib.Agent memory a;\r\n      a.u = candidates[ranked[i]];\r\n      a.weight = 1;\r\n      listOfRepresentatives.push(a);\r\n    }\r\n    candidates.length = 0;\r\n\r\n  }\r\n  function sort(uint[] data) public returns (uint[]) {\r\n    quickSort(data, int(0), int(data.length - 1));\r\n    return data;\r\n  }\r\n\r\n  function quickSort(uint[] memory arr, int left, int right) internal{\r\n    int i = left;\r\n    int j = right;\r\n    if(i==j) return;\r\n    uint pivot = arr[uint(left + (right - left) / 2)];\r\n    while (i <= j) {\r\n      while (arr[uint(i)] > pivot) i++;\r\n      while (pivot > arr[uint(j)]) j--;\r\n      if (i <= j) {\r\n        (arr[uint(i)], arr[uint(j)]) = (arr[uint(j)], arr[uint(i)]);\r\n        i++;\r\n        j--;\r\n      }\r\n    }\r\n    if (left < j)\r\n    quickSort(arr, left, j);\r\n    if (i < right)\r\n    quickSort(arr, i, right);\r\n  }\r\n\r\n  function subsidize() public payable {}\r\n\r\n    function isRegistered() public constant returns (bool) {\r\n      for (uint i = 0; i < registeredUser.length; i++) {\r\n        if(registeredUser[i].myAddress == msg.sender)\r\n        {\r\n          return true;\r\n        }\r\n      }\r\n      return false;\r\n    }\r\n\r\n\r\n    function register(string name) public payable {\r\n      if (msg.value > registrationCost && (!addressUsed(msg.sender,registeredUser)) ) {\r\n        MyLib.User memory u;\r\n        u.myAddress = msg.sender;\r\n        u.name = name;\r\n        registeredUser.push(u);\r\n      }\r\n    }\r\n    //saves gass as dont have to look at candidates with no votes\r\n    function apply() public {\r\n      if(!addressUsed(msg.sender,buildCandidateList()))\r\n      {\r\n        for (uint i = 0; i < registeredUser.length; i++)\r\n        {\r\n          if(registeredUser[i].myAddress == msg.sender)\r\n          {\r\n            candidates.push(i);\r\n          }\r\n        }\r\n      }\r\n    }\r\n\r\n    function buildCandidateList() internal constant returns (MyLib.User[])\r\n    {\r\n      uint candidatesLength = candidates.length;\r\n      MyLib.User[] memory userList = new MyLib.User[](candidatesLength);\r\n      for(uint i = 0; i < candidatesLength; i ++)\r\n      {\r\n        userList[i] = registeredUser[candidates[i]];\r\n      }\r\n      return userList;\r\n    }\r\n\r\n    function addressUsed(address sample, MyLib.User[] userList) internal pure returns (bool)\r\n    {\r\n      for (uint i = 0; i < userList.length; i++)\r\n      {\r\n        if(userList[i].myAddress == sample)\r\n        {\r\n          return true;\r\n        }\r\n      }\r\n      return false;\r\n    }\r\n\r\n    function submitBudget(uint[] budget) public\r\n    {\r\n      for (uint i = 0; i < numberOfRepresentatives; i++)\r\n      {\r\n        if(registeredUser[listOfRepresentatives[i].u].myAddress == msg.sender)\r\n        {\r\n          listOfRepresentatives[i].budget = budget;\r\n        }\r\n      }\r\n    }\r\n    //who should be able to do this\r\n    function submitSink(address spender, string name) public\r\n    {\r\n      MyLib.Sink memory s;\r\n      s.name = name;\r\n      s.spender = spender;\r\n      listOfSinks.push(s);\r\n    }\r\n\r\n\r\n    function endBudgetSumbit() public\r\n    {\r\n      if(timeVoteEnded <= block.timestamp && voteStarted == false)\r\n      {\r\n        decideBudget();\r\n      }\r\n    }\r\n\r\n    function decideBudget() internal {\r\n\r\n      uint[][] memory currentCoalitions = new uint[][](numberOfRepresentatives);\r\n      uint[][] memory coalitionBudgets = new uint[][](numberOfRepresentatives);\r\n      //init coalitions, everyone in their own coalition with their own budget\r\n      for (uint i = 0; i < numberOfRepresentatives; i++)\r\n      {\r\n        currentCoalitions[i][0] = i;\r\n        coalitionBudgets[i] = listOfRepresentatives[i].budget;\r\n      }\r\n\r\n\r\n    }\r\n\r\n\r\n\r\n\r\n    function listRegisteredUsers(uint number) public constant returns (string,address) {\r\n\r\n      return (registeredUser[number].name, registeredUser[number].myAddress);\r\n    }\r\n\r\n    function getRegisteredUsersLength() public constant returns (uint)\r\n    {\r\n      return registeredUser.length;\r\n    }\r\n\r\n    function listCandidates(uint number) public constant returns (string,address) {\r\n\r\n      return (registeredUser[candidates[number]].name, registeredUser[candidates[number]].myAddress);\r\n    }\r\n\r\n    function getCandidatesLength() public constant returns (uint)\r\n    {\r\n      return candidates.length;\r\n    }\r\n\r\n    function listRepresentives(uint number) public constant returns (string,address,uint,uint[]) {\r\n\r\n      return (registeredUser[listOfRepresentatives[number].u].name, registeredUser[listOfRepresentatives[number].u].myAddress, listOfRepresentatives[number].weight,listOfRepresentatives[number].budget);\r\n    }\r\n\r\n    function getRepresentivesLength() public constant returns (uint)\r\n    {\r\n      return listOfRepresentatives.length;\r\n    }\r\n\r\n    function listSinks(uint number) public constant returns (string,address) {\r\n\r\n      return (listOfSinks[number].name, listOfSinks[number].spender);\r\n    }\r\n\r\n    function getSinksLength() public constant returns (uint)\r\n    {\r\n      return listOfSinks.length;\r\n    }\r\n\r\n    function showVotes(uint number) public constant returns(address[])\r\n    {\r\n      return votes[number];\r\n    }\r\n\r\n\r\n  }\r\n",
  "sourcePath": "C:\\Users\\JakeL\\Desktop\\MultiAgentSystemsOnTheBlockChain\\contracts\\Club.sol",
  "compiler": {
    "name": "solc",
    "version": "0.4.19+commit.c4cbbb05.Emscripten.clang"
  },
  "schemaVersion": "2.0.0",
  "updatedAt": "2018-04-04T22:40:22.997Z"
}