{
  "contractName": "Club",
  "abi": [
    {
      "constant": true,
      "inputs": [],
      "name": "timeVoteStarted",
      "outputs": [
        {
          "name": "",
          "type": "uint256"
        }
      ],
      "payable": false,
      "stateMutability": "view",
      "type": "function"
    },
    {
      "constant": true,
      "inputs": [],
      "name": "numberOfSinks",
      "outputs": [
        {
          "name": "",
          "type": "uint256"
        }
      ],
      "payable": false,
      "stateMutability": "view",
      "type": "function"
    },
    {
      "constant": true,
      "inputs": [],
      "name": "termLength",
      "outputs": [
        {
          "name": "",
          "type": "uint256"
        }
      ],
      "payable": false,
      "stateMutability": "view",
      "type": "function"
    },
    {
      "constant": true,
      "inputs": [
        {
          "name": "",
          "type": "uint256"
        }
      ],
      "name": "finalBudget",
      "outputs": [
        {
          "name": "",
          "type": "uint256"
        }
      ],
      "payable": false,
      "stateMutability": "view",
      "type": "function"
    },
    {
      "constant": true,
      "inputs": [],
      "name": "numberOfRepresentatives",
      "outputs": [
        {
          "name": "",
          "type": "uint256"
        }
      ],
      "payable": false,
      "stateMutability": "view",
      "type": "function"
    },
    {
      "constant": true,
      "inputs": [
        {
          "name": "",
          "type": "address"
        }
      ],
      "name": "voted",
      "outputs": [
        {
          "name": "",
          "type": "bool"
        }
      ],
      "payable": false,
      "stateMutability": "view",
      "type": "function"
    },
    {
      "constant": true,
      "inputs": [],
      "name": "voteStarted",
      "outputs": [
        {
          "name": "",
          "type": "bool"
        }
      ],
      "payable": false,
      "stateMutability": "view",
      "type": "function"
    },
    {
      "constant": true,
      "inputs": [],
      "name": "registrationCost",
      "outputs": [
        {
          "name": "",
          "type": "uint256"
        }
      ],
      "payable": false,
      "stateMutability": "view",
      "type": "function"
    },
    {
      "constant": true,
      "inputs": [],
      "name": "timeVoteEnded",
      "outputs": [
        {
          "name": "",
          "type": "uint256"
        }
      ],
      "payable": false,
      "stateMutability": "view",
      "type": "function"
    },
    {
      "inputs": [
        {
          "name": "reps",
          "type": "uint256"
        },
        {
          "name": "sinks",
          "type": "uint256"
        },
        {
          "name": "cost",
          "type": "uint256"
        },
        {
          "name": "term",
          "type": "uint256"
        }
      ],
      "payable": false,
      "stateMutability": "nonpayable",
      "type": "constructor"
    },
    {
      "constant": false,
      "inputs": [],
      "name": "startVote",
      "outputs": [],
      "payable": false,
      "stateMutability": "nonpayable",
      "type": "function"
    },
    {
      "constant": false,
      "inputs": [
        {
          "name": "myVote",
          "type": "address[]"
        }
      ],
      "name": "vote",
      "outputs": [],
      "payable": false,
      "stateMutability": "nonpayable",
      "type": "function"
    },
    {
      "constant": false,
      "inputs": [],
      "name": "endVote",
      "outputs": [],
      "payable": false,
      "stateMutability": "nonpayable",
      "type": "function"
    },
    {
      "constant": false,
      "inputs": [
        {
          "name": "ranked",
          "type": "uint256[]"
        }
      ],
      "name": "weightCandidates",
      "outputs": [],
      "payable": false,
      "stateMutability": "nonpayable",
      "type": "function"
    },
    {
      "constant": false,
      "inputs": [
        {
          "name": "data",
          "type": "uint256[]"
        }
      ],
      "name": "sort",
      "outputs": [
        {
          "name": "",
          "type": "uint256[]"
        }
      ],
      "payable": false,
      "stateMutability": "nonpayable",
      "type": "function"
    },
    {
      "constant": false,
      "inputs": [],
      "name": "subsidize",
      "outputs": [],
      "payable": true,
      "stateMutability": "payable",
      "type": "function"
    },
    {
      "constant": true,
      "inputs": [],
      "name": "isRegistered",
      "outputs": [
        {
          "name": "",
          "type": "bool"
        }
      ],
      "payable": false,
      "stateMutability": "view",
      "type": "function"
    },
    {
      "constant": false,
      "inputs": [
        {
          "name": "name",
          "type": "string"
        }
      ],
      "name": "register",
      "outputs": [],
      "payable": true,
      "stateMutability": "payable",
      "type": "function"
    },
    {
      "constant": false,
      "inputs": [],
      "name": "apply",
      "outputs": [],
      "payable": false,
      "stateMutability": "nonpayable",
      "type": "function"
    },
    {
      "constant": false,
      "inputs": [
        {
          "name": "budget",
          "type": "uint256[]"
        }
      ],
      "name": "submitBudget",
      "outputs": [],
      "payable": false,
      "stateMutability": "nonpayable",
      "type": "function"
    },
    {
      "constant": false,
      "inputs": [
        {
          "name": "spender",
          "type": "address"
        },
        {
          "name": "name",
          "type": "string"
        }
      ],
      "name": "submitSink",
      "outputs": [],
      "payable": false,
      "stateMutability": "nonpayable",
      "type": "function"
    },
    {
      "constant": false,
      "inputs": [],
      "name": "endBudgetSumbit",
      "outputs": [],
      "payable": false,
      "stateMutability": "nonpayable",
      "type": "function"
    },
    {
      "constant": true,
      "inputs": [
        {
          "name": "number",
          "type": "uint256"
        }
      ],
      "name": "listRegisteredUsers",
      "outputs": [
        {
          "name": "",
          "type": "string"
        },
        {
          "name": "",
          "type": "address"
        }
      ],
      "payable": false,
      "stateMutability": "view",
      "type": "function"
    },
    {
      "constant": true,
      "inputs": [],
      "name": "getRegisteredUsersLength",
      "outputs": [
        {
          "name": "",
          "type": "uint256"
        }
      ],
      "payable": false,
      "stateMutability": "view",
      "type": "function"
    },
    {
      "constant": true,
      "inputs": [
        {
          "name": "number",
          "type": "uint256"
        }
      ],
      "name": "listCandidates",
      "outputs": [
        {
          "name": "",
          "type": "string"
        },
        {
          "name": "",
          "type": "address"
        }
      ],
      "payable": false,
      "stateMutability": "view",
      "type": "function"
    },
    {
      "constant": true,
      "inputs": [],
      "name": "getCandidatesLength",
      "outputs": [
        {
          "name": "",
          "type": "uint256"
        }
      ],
      "payable": false,
      "stateMutability": "view",
      "type": "function"
    },
    {
      "constant": true,
      "inputs": [
        {
          "name": "number",
          "type": "uint256"
        }
      ],
      "name": "listRepresentives",
      "outputs": [
        {
          "name": "",
          "type": "string"
        },
        {
          "name": "",
          "type": "address"
        },
        {
          "name": "",
          "type": "uint256"
        },
        {
          "name": "",
          "type": "uint256[]"
        }
      ],
      "payable": false,
      "stateMutability": "view",
      "type": "function"
    },
    {
      "constant": true,
      "inputs": [],
      "name": "getRepresentivesLength",
      "outputs": [
        {
          "name": "",
          "type": "uint256"
        }
      ],
      "payable": false,
      "stateMutability": "view",
      "type": "function"
    },
    {
      "constant": true,
      "inputs": [
        {
          "name": "number",
          "type": "uint256"
        }
      ],
      "name": "listSinks",
      "outputs": [
        {
          "name": "",
          "type": "string"
        },
        {
          "name": "",
          "type": "address"
        }
      ],
      "payable": false,
      "stateMutability": "view",
      "type": "function"
    },
    {
      "constant": true,
      "inputs": [],
      "name": "getSinksLength",
      "outputs": [
        {
          "name": "",
          "type": "uint256"
        }
      ],
      "payable": false,
      "stateMutability": "view",
      "type": "function"
    },
    {
      "constant": true,
      "inputs": [
        {
          "name": "number",
          "type": "uint256"
        }
      ],
      "name": "showVotes",
      "outputs": [
        {
          "name": "",
          "type": "address[]"
        }
      ],
      "payable": false,
      "stateMutability": "view",
      "type": "function"
    }
  ],
  "bytecode": "0x60606040526000600860006101000a81548160ff02191690831515021790555060006009556000600a5534156200003557600080fd5b604051608080620030c1833981016040526200005b906780000000000000009062000097565b836000819055508260018190555081600281905550806003819055505050505062000117565b60006200008f82516200010d565b905092915050565b60008060008060808587031260018114620000b257620000b7565b600080fd5b506000620000c88782880162000081565b9450506020620000db8782880162000081565b9350506040620000ee8782880162000081565b9250506060620001018782880162000081565b91505092959194509250565b6000819050919050565b612f9a80620001276000396000f300606060405260043610610180576000357c0100000000000000000000000000000000000000000000000000000000900463ffffffff1680630cf35f441461018557806313dcd43e146101bc578063161893d0146101de5780631859df65146102075780631afad36d14610230578063223668441461025957806322ca968b146102825780632cd15220146102b95780634c0a6af0146102e25780635654a49b146102f75780635846fc461461030c5780636687d4fe1461032e5780636904d2411461036457806379b18cd11461038657806390f10ed1146103af5780639ec8b026146103b9578063ad012af0146103ef578063ae0689ac14610425578063aec2ccae1461044e578063af0ab71514610484578063b9223946146104bb578063c6214bf1146104d0578063d0dc0180146104f9578063d5268b2214610522578063db595b3b1461054b578063dc4a7f7f14610560578063dee6472f14610589578063ed00af98146105c2578063ed081329146105eb578063f2c298be1461060d575b600080fd5b341561019057600080fd5b6101a560046101a0903690612b43565b610624565b6040516101b3929190612ced565b60405180910390f35b34156101c757600080fd5b6101dc60046101d79036906129e4565b610734565b005b34156101e957600080fd5b6101f1610813565b6040516101fe9190612d70565b60405180910390f35b341561021257600080fd5b61021a610819565b6040516102279190612d70565b60405180910390f35b341561023b57600080fd5b610243610826565b6040516102509190612d70565b60405180910390f35b341561026457600080fd5b61026c610833565b6040516102799190612cd2565b60405180910390f35b341561028d57600080fd5b6102a2600461029d903690612b43565b6108db565b6040516102b0929190612ced565b60405180910390f35b34156102c457600080fd5b6102cc610a1f565b6040516102d99190612d70565b60405180910390f35b34156102ed57600080fd5b6102f5610a25565b005b341561030257600080fd5b61030a610a77565b005b341561031757600080fd5b61032c6004610327903690612a9d565b610aac565b005b341561033957600080fd5b61034e6004610349903690612b43565b610b8b565b60405161035b9190612c8e565b60405180910390f35b341561036f57600080fd5b610384600461037f903690612a9d565b610c39565b005b341561039157600080fd5b610399610d24565b6040516103a69190612d70565b60405180910390f35b6103b7610d2a565b005b34156103c457600080fd5b6103d960046103d4903690612a9d565b610d2c565b6040516103e69190612cb0565b60405180910390f35b34156103fa57600080fd5b61040f600461040a903690612b43565b610d4c565b60405161041c9190612d70565b60405180910390f35b341561043057600080fd5b610438610d70565b6040516104459190612d70565b60405180910390f35b341561045957600080fd5b61046e60046104699036906129b2565b610d76565b60405161047b9190612cd2565b60405180910390f35b341561048f57600080fd5b6104a4600461049f903690612b43565b610d96565b6040516104b2929190612ced565b60405180910390f35b34156104c657600080fd5b6104ce610ea6565b005b34156104db57600080fd5b6104e3610efd565b6040516104f09190612d70565b60405180910390f35b341561050457600080fd5b61050c610f0a565b6040516105199190612cd2565b60405180910390f35b341561052d57600080fd5b610535610f1d565b6040516105429190612d70565b60405180910390f35b341561055657600080fd5b61055e610f2a565b005b341561056b57600080fd5b610573611004565b6040516105809190612d70565b60405180910390f35b341561059457600080fd5b6105a960046105a4903690612b43565b61100a565b6040516105b99493929190612d1d565b60405180910390f35b34156105cd57600080fd5b6105d56111fc565b6040516105e29190612d70565b60405180910390f35b34156105f657600080fd5b61060b6004610606903690612a4a565b611202565b005b610622600461061d903690612af0565b611322565b005b61062c6121da565b600060048381548110151561063d57fe5b906000526020600020906002020160010160048481548110151561065d57fe5b906000526020600020906002020160000160009054906101000a900473ffffffffffffffffffffffffffffffffffffffff16818054600181600116156101000203166002900480601f0160208091040260200160405190810160405280929190818152602001828054600181600116156101000203166002900480156107245780601f106106f957610100808354040283529160200191610724565b820191906000526020600020905b81548152906001019060200180831161070757829003601f168201915b5050505050915091509150915091565b61073c6121ee565b81816020018190525082816000019073ffffffffffffffffffffffffffffffffffffffff16908173ffffffffffffffffffffffffffffffffffffffff1681525050600c80548060010182816107919190612224565b9160005260206000209060020201600083909190915060008201518160000160006101000a81548173ffffffffffffffffffffffffffffffffffffffff021916908373ffffffffffffffffffffffffffffffffffffffff160217905550602082015181600101908051906020019061080a929190612256565b50505050505050565b60095481565b6000600580549050905090565b6000600480549050905090565b600080600090505b6004805490508110156108d2573373ffffffffffffffffffffffffffffffffffffffff1660048281548110151561086e57fe5b906000526020600020906002020160000160009054906101000a900473ffffffffffffffffffffffffffffffffffffffff1673ffffffffffffffffffffffffffffffffffffffff1614156108c557600191506108d7565b808060010191505061083b565b600091505b5090565b6108e36121da565b600060046005848154811015156108f657fe5b90600052602060002090015481548110151561090e57fe5b9060005260206000209060020201600101600460058581548110151561093057fe5b90600052602060002090015481548110151561094857fe5b906000526020600020906002020160000160009054906101000a900473ffffffffffffffffffffffffffffffffffffffff16818054600181600116156101000203166002900480601f016020809104026020016040519081016040528092919081815260200182805460018160011615610100020316600290048015610a0f5780601f106109e457610100808354040283529160200191610a0f565b820191906000526020600020905b8154815290600101906020018083116109f257829003601f168201915b5050505050915091509150915091565b60015481565b42600354600a5401108015610a4d575060001515600860009054906101000a900460ff161515145b15610a75576001600860006101000a81548160ff021916908315150217905550426009819055505b565b42600a5411158015610a9c575060001515600860009054906101000a900460ff161515145b15610aaa57610aa961156d565b5b565b6000610ab66122d6565b600091505b600054821015610b765760058383815181101515610ad557fe5b90602001906020020151815481101515610aeb57fe5b9060005260206000209001548160000181815250506001816040018181525050600b8054806001018281610b1f91906122fe565b91600052602060002090600302016000839091909150600082015181600001556020820151816001019080519060200190610b5b929190612330565b50604082015181600201555050508180600101925050610abb565b6000600581610b85919061237d565b50505050565b610b936123a9565b600682815481101515610ba257fe5b9060005260206000209001805480602002602001604051908101604052809291908181526020018280548015610c2d57602002820191906000526020600020905b8160009054906101000a900473ffffffffffffffffffffffffffffffffffffffff1673ffffffffffffffffffffffffffffffffffffffff1681526020019060010190808311610be3575b50505050509050919050565b60008090505b600054811015610d20573373ffffffffffffffffffffffffffffffffffffffff166004600b83815481101515610c7157fe5b906000526020600020906003020160000154815481101515610c8f57fe5b906000526020600020906002020160000160009054906101000a900473ffffffffffffffffffffffffffffffffffffffff1673ffffffffffffffffffffffffffffffffffffffff161415610d135781600b82815481101515610ced57fe5b90600052602060002090600302016001019080519060200190610d119291906123bd565b505b8080600101915050610c3f565b5050565b60035481565b565b610d3461240a565b610d4482600060018551036116f0565b819050919050565b600d81815481101515610d5b57fe5b90600052602060002090016000915090505481565b60005481565b60076020528060005260406000206000915054906101000a900460ff1681565b610d9e6121da565b6000600c83815481101515610daf57fe5b9060005260206000209060020201600101600c84815481101515610dcf57fe5b906000526020600020906002020160000160009054906101000a900473ffffffffffffffffffffffffffffffffffffffff16818054600181600116156101000203166002900480601f016020809104026020016040519081016040528092919081815260200182805460018160011615610100020316600290048015610e965780601f10610e6b57610100808354040283529160200191610e96565b820191906000526020600020905b815481529060010190602001808311610e7957829003601f168201915b5050505050915091509150915091565b4260095411158015610ecb575060011515600860009054906101000a900460ff161515145b15610efb576000600860006101000a81548160ff02191690831515021790555042600a81905550610efa611850565b5b565b6000600c80549050905090565b600860009054906101000a900460ff1681565b6000600b80549050905090565b6000610f3d33610f38611be1565b611dbb565b151561100157600090505b600480549050811015611000573373ffffffffffffffffffffffffffffffffffffffff16600482815481101515610f7b57fe5b906000526020600020906002020160000160009054906101000a900473ffffffffffffffffffffffffffffffffffffffff1673ffffffffffffffffffffffffffffffffffffffff161415610ff35760058054806001018281610fdd919061241e565b9160005260206000209001600083909190915055505b8080600101915050610f48565b5b50565b60025481565b6110126121da565b60008061101d61240a565b6004600b8681548110151561102e57fe5b90600052602060002090600302016000015481548110151561104c57fe5b90600052602060002090600202016001016004600b8781548110151561106e57fe5b90600052602060002090600302016000015481548110151561108c57fe5b906000526020600020906002020160000160009054906101000a900473ffffffffffffffffffffffffffffffffffffffff16600b878154811015156110cd57fe5b906000526020600020906003020160020154600b888154811015156110ee57fe5b9060005260206000209060030201600101838054600181600116156101000203166002900480601f0160208091040260200160405190810160405280929190818152602001828054600181600116156101000203166002900480156111945780601f1061116957610100808354040283529160200191611194565b820191906000526020600020905b81548152906001019060200180831161117757829003601f168201915b50505050509350808054806020026020016040519081016040528092919081815260200182805480156111e657602002820191906000526020600020905b8154815260200190600101908083116111d2575b5050505050905093509350935093509193509193565b600a5481565b61120a610833565b8015611229575060011515600860009054906101000a900460ff161515145b8015611285575060001515600760003373ffffffffffffffffffffffffffffffffffffffff1673ffffffffffffffffffffffffffffffffffffffff16815260200190815260200160002060009054906101000a900460ff161515145b1561131f576001600760003373ffffffffffffffffffffffffffffffffffffffff1673ffffffffffffffffffffffffffffffffffffffff16815260200190815260200160002060006101000a81548160ff021916908315150217905550600680548060010182816112f6919061244a565b91600052602060002090016000839091909150908051906020019061131c929190612476565b50505b50565b61132a612500565b60025434118015611491575061148f336004805480602002602001604051908101604052809291908181526020016000905b8282101561148657838290600052602060002090600202016040805190810160405290816000820160009054906101000a900473ffffffffffffffffffffffffffffffffffffffff1673ffffffffffffffffffffffffffffffffffffffff1673ffffffffffffffffffffffffffffffffffffffff168152602001600182018054600181600116156101000203166002900480601f01602080910402602001604051908101604052809291908181526020018280546001816001161561010002031660029004801561146e5780601f106114435761010080835404028352916020019161146e565b820191906000526020600020905b81548152906001019060200180831161145157829003601f168201915b5050505050815250508152602001906001019061135c565b50505050611dbb565b155b156115695733816000019073ffffffffffffffffffffffffffffffffffffffff16908173ffffffffffffffffffffffffffffffffffffffff1681525050818160200181905250600480548060010182816114eb9190612536565b9160005260206000209060020201600083909190915060008201518160000160006101000a81548173ffffffffffffffffffffffffffffffffffffffff021916908373ffffffffffffffffffffffffffffffffffffffff1602179055506020820151816001019080519060200190611564929190612256565b505050505b5050565b611575612568565b61157d612568565b6000805460405180591061158e5750595b9080825280602002602001820160405280156115c457816020015b6115b161257c565b8152602001906001900390816115a95790505b5092506000546040518059106115d75750595b90808252806020026020018201604052801561160d57816020015b6115fa61257c565b8152602001906001900390816115f25790505b509150600090505b6000548110156116eb5780838281518110151561162e57fe5b90602001906020020151600081518110151561164657fe5b9060200190602002018181525050600b8181548110151561166357fe5b90600052602060002090600302016001018054806020026020016040519081016040528092919081815260200182805480156116be57602002820191906000526020600020905b8154815260200190600101908083116116aa575b505050505082828151811015156116d157fe5b906020019060200201819052508080600101915050611615565b505050565b60008060008492508391508183141561170857611848565b85600286860381151561171757fe5b05860181518110151561172657fe5b9060200190602002015190505b818313151561181f575b80868481518110151561174c57fe5b90602001906020020151111561176957828060010193505061173d565b5b858281518110151561177857fe5b906020019060200201518111156117975781806001900392505061176a565b818313151561181a5785828151811015156117ae57fe5b9060200190602002015186848151811015156117c657fe5b9060200190602002015187858151811015156117de57fe5b90602001906020020188858151811015156117f557fe5b9060200190602002018281525082815250505082806001019350508180600190039250505b611733565b81851215611833576118328686846116f0565b5b83831215611847576118468684866116f0565b5b5b505050505050565b60008061185b61240a565b611863612568565b600061186d61240a565b61187561240a565b61187d61240a565b6005805490506040518059106118905750595b9080825280602002602001820160405250955085516040518059106118b25750595b9080825280602002602001820160405280156118e857816020015b6118d561257c565b8152602001906001900390816118cd5790505b509450600097505b85518810156119415785516040518059106119085750595b9080825280602002602001820160405250858981518110151561192757fe5b9060200190602002018190525087806001019850506118f0565b600097505b6001865103881015611a7d578760010196505b8551871015611a705761196c8888611e3d565b935060008414156119ea5786858981518110151561198657fe5b90602001906020020151878a81518110151561199e57fe5b906020019060200201518151811015156119b457fe5b906020019060200201818152505085888151811015156119d057fe5b906020019060200201805180919060010181525050611a63565b6001841415611a6257878588815181101515611a0257fe5b906020019060200201518789815181101515611a1a57fe5b90602001906020020151815181101515611a3057fe5b90602001906020020181815250508587815181101515611a4c57fe5b9060200190602002018051809190600101815250505b5b8680600101975050611959565b8780600101985050611946565b8551604051805910611a8c5750595b90808252806020026020018201604052509250600097505b8551881015611aee578588815181101515611abb57fe5b906020019060200201518389815181101515611ad357fe5b90602001906020020181815250508780600101985050611aa4565b8551604051805910611afd5750595b90808252806020026020018201604052509150611b21611b1c8461214d565b610d2c565b9050600097505b8551881015611bce57600096505b8551871015611bc1578287815181101515611b4d57fe5b906020019060200201518189815181101515611b6557fe5b906020019060200201511415611bb457868289815181101515611b8457fe5b906020019060200201818152505085518651028388815181101515611ba557fe5b90602001906020020181815250505b8680600101975050611b36565b8780600101985050611b28565b611bd782610aac565b5050505050505050565b611be9612590565b611bf1612590565b6000600580549050604051805910611c065750595b908082528060200260200182016040528015611c3c57816020015b611c296125a4565b815260200190600190039081611c215790505b509150600090505b600580549050811015611db3576004600582815481101515611c6257fe5b906000526020600020900154815481101515611c7a57fe5b90600052602060002090600202016040805190810160405290816000820160009054906101000a900473ffffffffffffffffffffffffffffffffffffffff1673ffffffffffffffffffffffffffffffffffffffff1673ffffffffffffffffffffffffffffffffffffffff168152602001600182018054600181600116156101000203166002900480601f016020809104026020016040519081016040528092919081815260200182805460018160011615610100020316600290048015611d825780601f10611d5757610100808354040283529160200191611d82565b820191906000526020600020905b815481529060010190602001808311611d6557829003601f168201915b5050505050815250508282815181101515611d9957fe5b906020019060200201819052508080600101915050611c44565b819250505090565b600080600090505b8251811015611e31578373ffffffffffffffffffffffffffffffffffffffff168382815181101515611df157fe5b906020019060200201516000015173ffffffffffffffffffffffffffffffffffffffff161415611e245760019150611e36565b8080600101915050611dc3565b600091505b5092915050565b600080600080600080600080955060009450600093505b60068054905084101561211a576002600680549050811515611e7257fe5b048611158015611e9357506002600680549050811515611e8e57fe5b048511155b1561210857600684815481101515611ea757fe5b9060005260206000209001805490509250600684815481101515611ec757fe5b9060005260206000209001805490509150600090505b600684815481101515611eec57fe5b9060005260206000209001805490508110156120dc57600460058a815481101515611f1357fe5b906000526020600020900154815481101515611f2b57fe5b906000526020600020906002020160000160009054906101000a900473ffffffffffffffffffffffffffffffffffffffff1673ffffffffffffffffffffffffffffffffffffffff16600685815481101515611f8257fe5b906000526020600020900182815481101515611f9a57fe5b906000526020600020900160009054906101000a900473ffffffffffffffffffffffffffffffffffffffff1673ffffffffffffffffffffffffffffffffffffffff161415611fea578092506120cf565b6004600589815481101515611ffb57fe5b90600052602060002090015481548110151561201357fe5b906000526020600020906002020160000160009054906101000a900473ffffffffffffffffffffffffffffffffffffffff1673ffffffffffffffffffffffffffffffffffffffff1660068581548110151561206a57fe5b90600052602060002090018281548110151561208257fe5b906000526020600020900160009054906101000a900473ffffffffffffffffffffffffffffffffffffffff1673ffffffffffffffffffffffffffffffffffffffff1614156120ce578091505b5b8080600101915050611edd565b818310156120f1578580600101965050612103565b828210156121025784806001019550505b5b61210d565b61211a565b8380600101945050611e54565b8486111561212b5760009650612141565b8585111561213c5760019650612141565b600296505b50505050505092915050565b61215561240a565b61215d61240a565b6000835160405180591061216e5750595b90808252806020026020018201604052509150600090505b83518110156121d057838181518110151561219d57fe5b9060200190602002015182828151811015156121b557fe5b90602001906020020181815250508080600101915050612186565b8192505050919050565b602060405190810160405280600081525090565b6040805190810160405280600073ffffffffffffffffffffffffffffffffffffffff16815260200161221e6125da565b81525090565b8154818355818115116122515760020281600202836000526020600020918201910161225091906125ee565b5b505050565b828054600181600116156101000203166002900490600052602060002090601f016020900481019282601f1061229757805160ff19168380011785556122c5565b828001600101855582156122c5579182015b828111156122c45782518255916020019190600101906122a9565b5b5090506122d29190612644565b5090565b606060405190810160405280600081526020016122f161257c565b8152602001600081525090565b81548183558181151161232b5760030281600302836000526020600020918201910161232a9190612669565b5b505050565b82805482825590600052602060002090810192821561236c579160200282015b8281111561236b578251825591602001919060010190612350565b5b5090506123799190612644565b5090565b8154818355818115116123a4578183600052602060002091820191016123a39190612644565b5b505050565b602060405190810160405280600081525090565b8280548282559060005260206000209081019282156123f9579160200282015b828111156123f85782518255916020019190600101906123dd565b5b5090506124069190612644565b5090565b602060405190810160405280600081525090565b815481835581811511612445578183600052602060002091820191016124449190612644565b5b505050565b8154818355818115116124715781836000526020600020918201910161247091906126a8565b5b505050565b8280548282559060005260206000209081019282156124ef579160200282015b828111156124ee5782518260006101000a81548173ffffffffffffffffffffffffffffffffffffffff021916908373ffffffffffffffffffffffffffffffffffffffff16021790555091602001919060010190612496565b5b5090506124fc91906126d4565b5090565b6040805190810160405280600073ffffffffffffffffffffffffffffffffffffffff1681526020016125306125da565b81525090565b815481835581811511612563576002028160020283600052602060002091820191016125629190612717565b5b505050565b602060405190810160405280600081525090565b602060405190810160405280600081525090565b602060405190810160405280600081525090565b6040805190810160405280600073ffffffffffffffffffffffffffffffffffffffff1681526020016125d46125da565b81525090565b602060405190810160405280600081525090565b61264191905b8082111561263d57600080820160006101000a81549073ffffffffffffffffffffffffffffffffffffffff0219169055600182016000612634919061276d565b506002016125f4565b5090565b90565b61266691905b8082111561266257600081600090555060010161264a565b5090565b90565b6126a591905b808211156126a15760008082016000905560018201600061269091906127b5565b60028201600090555060030161266f565b5090565b90565b6126d191905b808211156126cd57600081816126c491906127d6565b506001016126ae565b5090565b90565b61271491905b8082111561271057600081816101000a81549073ffffffffffffffffffffffffffffffffffffffff0219169055506001016126da565b5090565b90565b61276a91905b8082111561276657600080820160006101000a81549073ffffffffffffffffffffffffffffffffffffffff021916905560018201600061275d919061276d565b5060020161271d565b5090565b90565b50805460018160011615610100020316600290046000825580601f1061279357506127b2565b601f0160209004906000526020600020908101906127b19190612644565b5b50565b50805460008255906000526020600020908101906127d39190612644565b50565b50805460008255906000526020600020908101906127f49190612644565b50565b60006128038235612ee3565b905092915050565b600082601f8301126000811461282057612825565b600080fd5b50813561283961283482612dc1565b612d8b565b9150818183526020840193506020810190508385602084028201116001811461286157612866565b600080fd5b5060005b83811015612897578161287d88826127f7565b84526020840193506020830192505060018101905061286a565b5050505092915050565b600082601f830112600081146128b6576128bb565b600080fd5b5081356128cf6128ca82612df2565b612d8b565b915081818352602084019350602081019050838560208402820111600181146128f7576128fc565b600080fd5b5060005b8381101561292d5781612913888261299e565b845260208401935060208301925050600181019050612900565b5050505092915050565b600082601f8301126000811461294c57612951565b600080fd5b50813561296561296082612e23565b612d8b565b9150808252602083016020830185838301116001811461298457612989565b600080fd5b50612995838284612f0d565b50505092915050565b60006129aa8235612f03565b905092915050565b6000602082840312600181146129c7576129cc565b600080fd5b5060006129db848285016127f7565b91505092915050565b600080604083850312600181146129fa576129ff565b600080fd5b506000612a0e858286016127f7565b925050602083013567ffffffffffffffff811160018114612a2e57612a33565b600080fd5b50612a4085828601612937565b9150509250929050565b600060208284031260018114612a5f57612a64565b600080fd5b50600082013567ffffffffffffffff811160018114612a8257612a87565b600080fd5b50612a948482850161280b565b91505092915050565b600060208284031260018114612ab257612ab7565b600080fd5b50600082013567ffffffffffffffff811160018114612ad557612ada565b600080fd5b50612ae7848285016128a1565b91505092915050565b600060208284031260018114612b0557612b0a565b600080fd5b50600082013567ffffffffffffffff811160018114612b2857612b2d565b600080fd5b50612b3a84828501612937565b91505092915050565b600060208284031260018114612b5857612b5d565b600080fd5b506000612b6c8482850161299e565b91505092915050565b612b7e81612ead565b82525050565b6000612b8f82612e72565b808452602084019350612ba183612e58565b60005b82811015612bd357612bb7868351612b75565b612bc082612e93565b9150602086019550600181019050612ba4565b50849250505092915050565b6000612bea82612e7d565b808452602084019350612bfc83612e65565b60005b82811015612c2e57612c12868351612c7f565b612c1b82612ea0565b9150602086019550600181019050612bff565b50849250505092915050565b612c4381612ecd565b82525050565b6000612c5482612e88565b808452612c68816020860160208601612f1c565b612c7181612f4f565b602085010191505092915050565b612c8881612ed9565b82525050565b60006020820190508181036000830152612ca88184612b84565b905092915050565b60006020820190508181036000830152612cca8184612bdf565b905092915050565b6000602082019050612ce76000830184612c3a565b92915050565b60006040820190508181036000830152612d078185612c49565b9050612d166020830184612b75565b9392505050565b60006080820190508181036000830152612d378187612c49565b9050612d466020830186612b75565b612d536040830185612c7f565b8181036060830152612d658184612bdf565b905095945050505050565b6000602082019050612d856000830184612c7f565b92915050565b6000604051905081810181811067ffffffffffffffff82111760018114612db157612db6565b600080fd5b508060405250919050565b600067ffffffffffffffff821160018114612ddb57612de0565b600080fd5b50602082029050602081019050919050565b600067ffffffffffffffff821160018114612e0c57612e11565b600080fd5b50602082029050602081019050919050565b600067ffffffffffffffff821160018114612e3d57612e42565b600080fd5b50601f19601f8301169050602081019050919050565b6000602082019050919050565b6000602082019050919050565b600081519050919050565b600081519050919050565b600081519050919050565b6000602082019050919050565b6000602082019050919050565b600073ffffffffffffffffffffffffffffffffffffffff82169050919050565b60008115159050919050565b6000819050919050565b600073ffffffffffffffffffffffffffffffffffffffff82169050919050565b6000819050919050565b82818337600083830152505050565b60005b83811015612f3a578082015181840152602081019050612f1f565b83811115612f49576000848401525b50505050565b6000601f19601f83011690509190505600a265627a7a723058200888007219ded6e59265ccb868447cfde5ce15b7788f29e9a83077a36589d6d96c6578706572696d656e74616cf50037",
  "source": "pragma solidity ^0.4.19;\r\npragma experimental ABIEncoderV2;\r\nimport \"./MyLib.sol\";\r\n\r\ncontract Club {\r\n\r\n  uint public numberOfRepresentatives;\r\n  uint public numberOfSinks;\r\n  uint public registrationCost;\r\n  uint public termLength;\r\n  MyLib.User[] registeredUser;\r\n  uint[] candidates;\r\n  address[][] votes;\r\n  mapping (address => bool) public voted;\r\n  bool public voteStarted = false;\r\n  uint public timeVoteStarted =0;\r\n  uint public timeVoteEnded =0;\r\n  MyLib.Agent[] listOfRepresentatives;\r\n  MyLib.Sink[] listOfSinks;\r\n  uint[] public finalBudget;\r\n\r\n  function Club(uint reps, uint sinks, uint cost, uint term) public {\r\n    numberOfRepresentatives = reps;\r\n    numberOfSinks = sinks;\r\n    registrationCost = cost;\r\n    termLength = term;\r\n  }\r\n\r\n\r\n  function startVote() public {\r\n    if(timeVoteEnded + termLength < block.timestamp && voteStarted == false)\r\n    {\r\n      voteStarted = true;\r\n      timeVoteStarted = block.timestamp;\r\n    }\r\n  }\r\n\r\n  function vote(address[] myVote) public {\r\n    if(isRegistered() && voteStarted == true && voted[msg.sender] == false){\r\n      voted[msg.sender] = true;\r\n      votes.push(myVote);\r\n\r\n    }\r\n  }\r\n  function endVote() public\r\n  {\r\n    if(timeVoteStarted <= block.timestamp && voteStarted == true)\r\n    {\r\n      voteStarted = false;\r\n      timeVoteEnded = block.timestamp;\r\n      countVotes();\r\n    }\r\n\r\n  }\r\n  //second order copeland\r\n  function countVotes() internal {\r\n    uint i;\r\n    uint p;\r\n    uint[] memory copelandScore = new uint[](candidates.length);\r\n    uint[][] memory defeated = new uint[][](copelandScore.length);\r\n\r\n    //init2d array\r\n    for (i = 0; i < copelandScore.length; i++)\r\n    {\r\n      defeated[i] = new uint[](copelandScore.length);\r\n    }\r\n\r\n    //pairwise each candidate against each other\r\n    for (i = 0; i < copelandScore.length - 1; i++)\r\n    {\r\n      for (p = 1 + i; p < copelandScore.length; p++)\r\n      {\r\n        uint pairwise = pairwiseComparison(i,p);\r\n        if(pairwise == 0)\r\n        {\r\n          defeated[i][copelandScore[i]] = p;\r\n          copelandScore[i] ++;\r\n        }\r\n        else if (pairwise == 1) {\r\n          defeated[p][copelandScore[p]] = i;\r\n          copelandScore[p] ++;\r\n        }\r\n      }\r\n    }\r\n\r\n    //add up the copeland scores of defeated users\r\n    uint[] memory secondOrderCopeland = new uint[](copelandScore.length);\r\n    for(i =0; i < copelandScore.length; i++)\r\n    {\r\n        secondOrderCopeland[i] = copelandScore[i];\r\n    }\r\n\r\n    uint[] memory ranked = new uint[](copelandScore.length);\r\n    uint[] memory sortedSecondOrderCopeland = sort(copy(secondOrderCopeland));\r\n\r\n    for(i=0; i < copelandScore.length; i ++ )\r\n    {\r\n      for(p=0; p < copelandScore.length; p ++ )\r\n      {\r\n        if(sortedSecondOrderCopeland[i] == secondOrderCopeland[p])\r\n        {\r\n          ranked[i] = p;\r\n          secondOrderCopeland[p] = copelandScore.length  * copelandScore.length;\r\n        }\r\n      }\r\n    }\r\n\r\n    weightCandidates(ranked);\r\n\r\n  }\r\n\r\n  function copy(uint[] toCopy) internal pure returns (uint[])\r\n  {\r\n    uint[] memory copyTo = new uint[](toCopy.length);\r\n    for(uint i = 0; i < toCopy.length; i ++)\r\n    {\r\n      copyTo[i] = toCopy[i];\r\n    }\r\n    return copyTo;\r\n  }\r\n  function pairwiseComparison(uint i, uint p) internal constant returns (uint)\r\n  {\r\n    uint scorei = 0;\r\n    uint scorep = 0;\r\n    for(uint z =0; z < votes.length; z ++)\r\n    {\r\n      if (scorei <= votes.length / 2 && scorep <= votes.length /2)\r\n      {\r\n        //if not seen its the highest\r\n        uint ilocation = votes[z].length;\r\n        uint plocation = votes[z].length;\r\n        for(uint j =0; j < votes[z].length; j ++)\r\n        {\r\n\r\n          if(votes[z][j] == registeredUser[candidates[i]].myAddress )\r\n          {\r\n            ilocation = j;\r\n          }\r\n          else if(votes[z][j] == registeredUser[candidates[p]].myAddress )\r\n          {\r\n            plocation = j;\r\n          }\r\n        }\r\n        if(ilocation < plocation)\r\n        {\r\n          scorei ++;\r\n        }\r\n        else if(plocation < ilocation)\r\n        {\r\n          scorep ++;\r\n        }\r\n      }\r\n      else{\r\n        //if majority for one candidate no need to continue\r\n        break;\r\n      }\r\n    }\r\n    if(scorei > scorep)\r\n    {\r\n      return 0;\r\n    }\r\n    else if (scorep > scorei) {\r\n      return 1;\r\n    }\r\n    else\r\n    {\r\n      return 2;\r\n    }\r\n  }\r\n  function weightCandidates(uint[] ranked) public\r\n  {\r\n    for (uint i = 0; i < numberOfRepresentatives; i++)\r\n    {\r\n      MyLib.Agent memory a;\r\n      a.u = candidates[ranked[i]];\r\n      a.weight = 1;\r\n      listOfRepresentatives.push(a);\r\n    }\r\n    candidates.length = 0;\r\n\r\n  }\r\n  function sort(uint[] data) public returns (uint[]) {\r\n    quickSort(data, int(0), int(data.length - 1));\r\n    return data;\r\n  }\r\n\r\n  function quickSort(uint[] memory arr, int left, int right) internal{\r\n    int i = left;\r\n    int j = right;\r\n    if(i==j) return;\r\n    uint pivot = arr[uint(left + (right - left) / 2)];\r\n    while (i <= j) {\r\n      while (arr[uint(i)] > pivot) i++;\r\n      while (pivot > arr[uint(j)]) j--;\r\n      if (i <= j) {\r\n        (arr[uint(i)], arr[uint(j)]) = (arr[uint(j)], arr[uint(i)]);\r\n        i++;\r\n        j--;\r\n      }\r\n    }\r\n    if (left < j)\r\n    quickSort(arr, left, j);\r\n    if (i < right)\r\n    quickSort(arr, i, right);\r\n  }\r\n\r\n  function subsidize() public payable {}\r\n\r\n    function isRegistered() public constant returns (bool) {\r\n      for (uint i = 0; i < registeredUser.length; i++) {\r\n        if(registeredUser[i].myAddress == msg.sender)\r\n        {\r\n          return true;\r\n        }\r\n      }\r\n      return false;\r\n    }\r\n\r\n\r\n    function register(string name) public payable {\r\n      if (msg.value > registrationCost && (!addressUsed(msg.sender,registeredUser)) ) {\r\n        MyLib.User memory u;\r\n        u.myAddress = msg.sender;\r\n        u.name = name;\r\n        registeredUser.push(u);\r\n      }\r\n    }\r\n    //saves gass as dont have to look at candidates with no votes\r\n    function apply() public {\r\n      if(!addressUsed(msg.sender,buildCandidateList()))\r\n      {\r\n        for (uint i = 0; i < registeredUser.length; i++)\r\n        {\r\n          if(registeredUser[i].myAddress == msg.sender)\r\n          {\r\n            candidates.push(i);\r\n          }\r\n        }\r\n      }\r\n    }\r\n\r\n    function buildCandidateList() internal constant returns (MyLib.User[])\r\n    {\r\n      MyLib.User[] memory userList = new MyLib.User[](candidates.length);\r\n      for(uint i = 0; i < candidates.length; i ++)\r\n      {\r\n        userList[i] = registeredUser[candidates[i]];\r\n      }\r\n      return userList;\r\n    }\r\n\r\n    function addressUsed(address sample, MyLib.User[] userList) internal pure returns (bool)\r\n    {\r\n      for (uint i = 0; i < userList.length; i++)\r\n      {\r\n        if(userList[i].myAddress == sample)\r\n        {\r\n          return true;\r\n        }\r\n      }\r\n      return false;\r\n    }\r\n\r\n    function submitBudget(uint[] budget) public\r\n    {\r\n      for (uint i = 0; i < numberOfRepresentatives; i++)\r\n      {\r\n        if(registeredUser[listOfRepresentatives[i].u].myAddress == msg.sender)\r\n        {\r\n          listOfRepresentatives[i].budget = budget;\r\n        }\r\n      }\r\n    }\r\n    //who should be able to do this\r\n    function submitSink(address spender, string name) public\r\n    {\r\n      MyLib.Sink memory s;\r\n      s.name = name;\r\n      s.spender = spender;\r\n      listOfSinks.push(s);\r\n    }\r\n\r\n\r\n    function endBudgetSumbit() public\r\n    {\r\n      if(timeVoteEnded <= block.timestamp && voteStarted == false)\r\n      {\r\n        decideBudget();\r\n      }\r\n    }\r\n\r\n    function decideBudget() internal {\r\n\r\n      uint[][] memory currentCoalitions = new uint[][](numberOfRepresentatives);\r\n      uint[][] memory coalitionBudgets = new uint[][](numberOfRepresentatives);\r\n      //init coalitions, everyone in their own coalition with their own budget\r\n      for (uint i = 0; i < numberOfRepresentatives; i++)\r\n      {\r\n        currentCoalitions[i][0] = i;\r\n        coalitionBudgets[i] = listOfRepresentatives[i].budget;\r\n      }\r\n\r\n\r\n    }\r\n\r\n\r\n\r\n\r\n    function listRegisteredUsers(uint number) public constant returns (string,address) {\r\n\r\n      return (registeredUser[number].name, registeredUser[number].myAddress);\r\n    }\r\n\r\n    function getRegisteredUsersLength() public constant returns (uint)\r\n    {\r\n      return registeredUser.length;\r\n    }\r\n\r\n    function listCandidates(uint number) public constant returns (string,address) {\r\n\r\n      return (registeredUser[candidates[number]].name, registeredUser[candidates[number]].myAddress);\r\n    }\r\n\r\n    function getCandidatesLength() public constant returns (uint)\r\n    {\r\n      return candidates.length;\r\n    }\r\n\r\n    function listRepresentives(uint number) public constant returns (string,address,uint,uint[]) {\r\n\r\n      return (registeredUser[listOfRepresentatives[number].u].name, registeredUser[listOfRepresentatives[number].u].myAddress, listOfRepresentatives[number].weight,listOfRepresentatives[number].budget);\r\n    }\r\n\r\n    function getRepresentivesLength() public constant returns (uint)\r\n    {\r\n      return listOfRepresentatives.length;\r\n    }\r\n\r\n    function listSinks(uint number) public constant returns (string,address) {\r\n\r\n      return (listOfSinks[number].name, listOfSinks[number].spender);\r\n    }\r\n\r\n    function getSinksLength() public constant returns (uint)\r\n    {\r\n      return listOfSinks.length;\r\n    }\r\n\r\n    function showVotes(uint number) public constant returns(address[])\r\n    {\r\n      return votes[number];\r\n    }\r\n\r\n\r\n  }\r\n",
  "sourcePath": "C:\\Users\\JakeL\\Desktop\\MultiAgentSystemsOnTheBlockChain\\contracts\\Club.sol",
  "compiler": {
    "name": "solc",
    "version": "0.4.19+commit.c4cbbb05.Emscripten.clang"
  },
  "schemaVersion": "2.0.0",
  "updatedAt": "2018-04-04T09:38:42.403Z"
}