{
  "contractName": "Club",
  "abi": [
    {
      "constant": true,
      "inputs": [],
      "name": "timeVoteStarted",
      "outputs": [
        {
          "name": "",
          "type": "uint256"
        }
      ],
      "payable": false,
      "stateMutability": "view",
      "type": "function"
    },
    {
      "constant": true,
      "inputs": [],
      "name": "gasCost",
      "outputs": [
        {
          "name": "",
          "type": "uint256"
        }
      ],
      "payable": false,
      "stateMutability": "view",
      "type": "function"
    },
    {
      "constant": true,
      "inputs": [],
      "name": "numberOfSinks",
      "outputs": [
        {
          "name": "",
          "type": "uint256"
        }
      ],
      "payable": false,
      "stateMutability": "view",
      "type": "function"
    },
    {
      "constant": true,
      "inputs": [],
      "name": "coalitionSizeFactorIncrease",
      "outputs": [
        {
          "name": "",
          "type": "uint256"
        }
      ],
      "payable": false,
      "stateMutability": "view",
      "type": "function"
    },
    {
      "constant": true,
      "inputs": [],
      "name": "termLength",
      "outputs": [
        {
          "name": "",
          "type": "uint256"
        }
      ],
      "payable": false,
      "stateMutability": "view",
      "type": "function"
    },
    {
      "constant": true,
      "inputs": [],
      "name": "coalitionSizeFactor",
      "outputs": [
        {
          "name": "",
          "type": "uint256"
        }
      ],
      "payable": false,
      "stateMutability": "view",
      "type": "function"
    },
    {
      "constant": true,
      "inputs": [
        {
          "name": "",
          "type": "uint256"
        }
      ],
      "name": "finalBudget",
      "outputs": [
        {
          "name": "",
          "type": "uint256"
        }
      ],
      "payable": false,
      "stateMutability": "view",
      "type": "function"
    },
    {
      "constant": true,
      "inputs": [],
      "name": "numberOfRepresentatives",
      "outputs": [
        {
          "name": "",
          "type": "uint256"
        }
      ],
      "payable": false,
      "stateMutability": "view",
      "type": "function"
    },
    {
      "constant": true,
      "inputs": [
        {
          "name": "",
          "type": "address"
        }
      ],
      "name": "voted",
      "outputs": [
        {
          "name": "",
          "type": "bool"
        }
      ],
      "payable": false,
      "stateMutability": "view",
      "type": "function"
    },
    {
      "constant": true,
      "inputs": [],
      "name": "quota",
      "outputs": [
        {
          "name": "",
          "type": "uint256"
        }
      ],
      "payable": false,
      "stateMutability": "view",
      "type": "function"
    },
    {
      "constant": true,
      "inputs": [],
      "name": "voteStarted",
      "outputs": [
        {
          "name": "",
          "type": "bool"
        }
      ],
      "payable": false,
      "stateMutability": "view",
      "type": "function"
    },
    {
      "constant": true,
      "inputs": [],
      "name": "registrationCost",
      "outputs": [
        {
          "name": "",
          "type": "uint256"
        }
      ],
      "payable": false,
      "stateMutability": "view",
      "type": "function"
    },
    {
      "constant": true,
      "inputs": [],
      "name": "numberOfTurns",
      "outputs": [
        {
          "name": "",
          "type": "uint256"
        }
      ],
      "payable": false,
      "stateMutability": "view",
      "type": "function"
    },
    {
      "constant": true,
      "inputs": [],
      "name": "timeVoteEnded",
      "outputs": [
        {
          "name": "",
          "type": "uint256"
        }
      ],
      "payable": false,
      "stateMutability": "view",
      "type": "function"
    },
    {
      "inputs": [
        {
          "name": "reps",
          "type": "uint256"
        },
        {
          "name": "sinks",
          "type": "uint256"
        },
        {
          "name": "cost",
          "type": "uint256"
        },
        {
          "name": "term",
          "type": "uint256"
        }
      ],
      "payable": false,
      "stateMutability": "nonpayable",
      "type": "constructor"
    },
    {
      "constant": false,
      "inputs": [],
      "name": "startVote",
      "outputs": [],
      "payable": false,
      "stateMutability": "nonpayable",
      "type": "function"
    },
    {
      "constant": false,
      "inputs": [
        {
          "name": "myVote",
          "type": "address[]"
        }
      ],
      "name": "vote",
      "outputs": [],
      "payable": false,
      "stateMutability": "nonpayable",
      "type": "function"
    },
    {
      "constant": false,
      "inputs": [],
      "name": "endVote",
      "outputs": [],
      "payable": false,
      "stateMutability": "nonpayable",
      "type": "function"
    },
    {
      "constant": false,
      "inputs": [
        {
          "name": "ranked",
          "type": "uint256[]"
        }
      ],
      "name": "weightCandidates",
      "outputs": [],
      "payable": false,
      "stateMutability": "nonpayable",
      "type": "function"
    },
    {
      "constant": false,
      "inputs": [
        {
          "name": "data",
          "type": "uint256[]"
        }
      ],
      "name": "sort",
      "outputs": [
        {
          "name": "",
          "type": "uint256[]"
        }
      ],
      "payable": false,
      "stateMutability": "nonpayable",
      "type": "function"
    },
    {
      "constant": false,
      "inputs": [],
      "name": "subsidize",
      "outputs": [],
      "payable": true,
      "stateMutability": "payable",
      "type": "function"
    },
    {
      "constant": true,
      "inputs": [],
      "name": "isRegistered",
      "outputs": [
        {
          "name": "",
          "type": "bool"
        }
      ],
      "payable": false,
      "stateMutability": "view",
      "type": "function"
    },
    {
      "constant": false,
      "inputs": [
        {
          "name": "name",
          "type": "string"
        }
      ],
      "name": "register",
      "outputs": [],
      "payable": true,
      "stateMutability": "payable",
      "type": "function"
    },
    {
      "constant": false,
      "inputs": [],
      "name": "apply",
      "outputs": [],
      "payable": false,
      "stateMutability": "nonpayable",
      "type": "function"
    },
    {
      "constant": false,
      "inputs": [
        {
          "name": "budget",
          "type": "uint256[]"
        }
      ],
      "name": "submitBudget",
      "outputs": [],
      "payable": false,
      "stateMutability": "nonpayable",
      "type": "function"
    },
    {
      "constant": false,
      "inputs": [
        {
          "name": "spender",
          "type": "address"
        },
        {
          "name": "name",
          "type": "string"
        }
      ],
      "name": "submitSink",
      "outputs": [],
      "payable": false,
      "stateMutability": "nonpayable",
      "type": "function"
    },
    {
      "constant": false,
      "inputs": [],
      "name": "endBudgetSumbit",
      "outputs": [],
      "payable": false,
      "stateMutability": "nonpayable",
      "type": "function"
    },
    {
      "constant": false,
      "inputs": [],
      "name": "decideBudget",
      "outputs": [],
      "payable": false,
      "stateMutability": "nonpayable",
      "type": "function"
    },
    {
      "constant": true,
      "inputs": [
        {
          "name": "a_bar",
          "type": "uint256"
        },
        {
          "name": "b_bar",
          "type": "uint256"
        },
        {
          "name": "a_floor",
          "type": "uint256"
        },
        {
          "name": "b_floor",
          "type": "uint256"
        }
      ],
      "name": "negotiate",
      "outputs": [
        {
          "name": "",
          "type": "uint256[]"
        }
      ],
      "payable": false,
      "stateMutability": "view",
      "type": "function"
    },
    {
      "constant": true,
      "inputs": [
        {
          "name": "budget1",
          "type": "uint256[]"
        },
        {
          "name": "budget2",
          "type": "uint256[]"
        },
        {
          "name": "nego",
          "type": "uint256[]"
        },
        {
          "name": "coalitionSize",
          "type": "uint256"
        }
      ],
      "name": "negoToBudget",
      "outputs": [
        {
          "name": "",
          "type": "uint256[]"
        }
      ],
      "payable": false,
      "stateMutability": "view",
      "type": "function"
    },
    {
      "constant": true,
      "inputs": [
        {
          "name": "number",
          "type": "uint256"
        }
      ],
      "name": "listRegisteredUsers",
      "outputs": [
        {
          "name": "",
          "type": "string"
        },
        {
          "name": "",
          "type": "address"
        }
      ],
      "payable": false,
      "stateMutability": "view",
      "type": "function"
    },
    {
      "constant": true,
      "inputs": [],
      "name": "getRegisteredUsersLength",
      "outputs": [
        {
          "name": "",
          "type": "uint256"
        }
      ],
      "payable": false,
      "stateMutability": "view",
      "type": "function"
    },
    {
      "constant": true,
      "inputs": [
        {
          "name": "number",
          "type": "uint256"
        }
      ],
      "name": "listCandidates",
      "outputs": [
        {
          "name": "",
          "type": "string"
        },
        {
          "name": "",
          "type": "address"
        }
      ],
      "payable": false,
      "stateMutability": "view",
      "type": "function"
    },
    {
      "constant": true,
      "inputs": [],
      "name": "getCandidatesLength",
      "outputs": [
        {
          "name": "",
          "type": "uint256"
        }
      ],
      "payable": false,
      "stateMutability": "view",
      "type": "function"
    },
    {
      "constant": true,
      "inputs": [
        {
          "name": "number",
          "type": "uint256"
        }
      ],
      "name": "listRepresentives",
      "outputs": [
        {
          "name": "",
          "type": "string"
        },
        {
          "name": "",
          "type": "address"
        },
        {
          "name": "",
          "type": "uint256"
        },
        {
          "name": "",
          "type": "uint256[]"
        }
      ],
      "payable": false,
      "stateMutability": "view",
      "type": "function"
    },
    {
      "constant": true,
      "inputs": [],
      "name": "getRepresentivesLength",
      "outputs": [
        {
          "name": "",
          "type": "uint256"
        }
      ],
      "payable": false,
      "stateMutability": "view",
      "type": "function"
    },
    {
      "constant": true,
      "inputs": [
        {
          "name": "number",
          "type": "uint256"
        }
      ],
      "name": "listSinks",
      "outputs": [
        {
          "name": "",
          "type": "string"
        },
        {
          "name": "",
          "type": "address"
        }
      ],
      "payable": false,
      "stateMutability": "view",
      "type": "function"
    },
    {
      "constant": true,
      "inputs": [],
      "name": "getSinksLength",
      "outputs": [
        {
          "name": "",
          "type": "uint256"
        }
      ],
      "payable": false,
      "stateMutability": "view",
      "type": "function"
    },
    {
      "constant": true,
      "inputs": [
        {
          "name": "number",
          "type": "uint256"
        }
      ],
      "name": "showVotes",
      "outputs": [
        {
          "name": "",
          "type": "address[]"
        }
      ],
      "payable": false,
      "stateMutability": "view",
      "type": "function"
    },
    {
      "constant": true,
      "inputs": [
        {
          "name": "number",
          "type": "uint256"
        }
      ],
      "name": "listFinalBudget",
      "outputs": [
        {
          "name": "",
          "type": "uint256"
        }
      ],
      "payable": false,
      "stateMutability": "view",
      "type": "function"
    }
  ],
  "bytecode": "0x60606040526000600660006101000a81548160ff021916908315150217905550600060075560006008556005600e556001600f5560646010556014601155600160125534156200004e57600080fd5b604051608080620041cd83398101604052620000749067800000000000000090620000b0565b83600c8190555082600d8190555081600081905550806001819055505050505062000130565b6000620000a8825162000126565b905092915050565b60008060008060808587031260018114620000cb57620000d0565b600080fd5b506000620000e1878288016200009a565b9450506020620000f4878288016200009a565b935050604062000107878288016200009a565b92505060606200011a878288016200009a565b91505092959194509250565b6000819050919050565b61408d80620001406000396000f3006060604052600436106101e3576000357c0100000000000000000000000000000000000000000000000000000000900463ffffffff1680630cf35f44146101e857806313dcd43e1461021f578063161893d0146102415780631859df651461026a5780631afad36d146102935780631d5e3fe5146102bc57806322366844146102e557806322ca968b1461030e5780632cd152201461034557806347792fc51461036e5780634c0a6af0146103835780635654a49b146103985780635846fc46146103ad5780636687d4fe146103cf5780636904d24114610405578063717a55d21461042757806379b18cd1146104505780638b2e48831461047957806390f10ed1146104af5780639ec8b026146104b9578063a5982ddb146104ef578063ad012af014610518578063ae0689ac1461054e578063aec2ccae14610577578063af0ab715146105ad578063b9223946146105e4578063c6214bf1146105f9578063cebe09c914610622578063d0dc01801461064b578063d5268b2214610674578063d87311aa1461069d578063db595b3b146106d3578063dc4a7f7f146106e8578063dee6472f14610711578063e0abab9e1461074a578063e32ba07814610773578063ed00af98146107a9578063ed081329146107d2578063f2c298be146107f4575b600080fd5b34156101f357600080fd5b6102086004610203903690613bca565b61080b565b604051610216929190613de0565b60405180910390f35b341561022a57600080fd5b61023f600461023a90369061399c565b61091b565b005b341561024c57600080fd5b6102546109fa565b6040516102619190613e63565b60405180910390f35b341561027557600080fd5b61027d610a00565b60405161028a9190613e63565b60405180910390f35b341561029e57600080fd5b6102a6610a0d565b6040516102b39190613e63565b60405180910390f35b34156102c757600080fd5b6102cf610a1a565b6040516102dc9190613e63565b60405180910390f35b34156102f057600080fd5b6102f8610a20565b6040516103059190613dc5565b60405180910390f35b341561031957600080fd5b61032e6004610329903690613bca565b610ac8565b60405161033c929190613de0565b60405180910390f35b341561035057600080fd5b610358610c0c565b6040516103659190613e63565b60405180910390f35b341561037957600080fd5b610381610c12565b005b341561038e57600080fd5b610396611314565b005b34156103a357600080fd5b6103ab611366565b005b34156103b857600080fd5b6103cd60046103c8903690613a55565b61139b565b005b34156103da57600080fd5b6103ef60046103ea903690613bca565b61147a565b6040516103fc9190613d81565b60405180910390f35b341561041057600080fd5b6104256004610420903690613a55565b611528565b005b341561043257600080fd5b61043a611613565b6040516104479190613e63565b60405180910390f35b341561045b57600080fd5b610463611619565b6040516104709190613e63565b60405180910390f35b341561048457600080fd5b6104996004610494903690613bca565b61161f565b6040516104a69190613e63565b60405180910390f35b6104b7611643565b005b34156104c457600080fd5b6104d960046104d4903690613a55565b611645565b6040516104e69190613da3565b60405180910390f35b34156104fa57600080fd5b610502611665565b60405161050f9190613e63565b60405180910390f35b341561052357600080fd5b6105386004610533903690613bca565b61166b565b6040516105459190613e63565b60405180910390f35b341561055957600080fd5b61056161168f565b60405161056e9190613e63565b60405180910390f35b341561058257600080fd5b610597600461059290369061396a565b611695565b6040516105a49190613dc5565b60405180910390f35b34156105b857600080fd5b6105cd60046105c8903690613bca565b6116b5565b6040516105db929190613de0565b60405180910390f35b34156105ef57600080fd5b6105f76117c5565b005b341561060457600080fd5b61060c61181c565b6040516106199190613e63565b60405180910390f35b341561062d57600080fd5b610635611829565b6040516106429190613e63565b60405180910390f35b341561065657600080fd5b61065e61182f565b60405161066b9190613dc5565b60405180910390f35b341561067f57600080fd5b610687611842565b6040516106949190613e63565b60405180910390f35b34156106a857600080fd5b6106bd60046106b8903690613aa8565b61184f565b6040516106ca9190613da3565b60405180910390f35b34156106de57600080fd5b6106e6611bb8565b005b34156106f357600080fd5b6106fb611c92565b6040516107089190613e63565b60405180910390f35b341561071c57600080fd5b610731600461072c903690613bca565b611c98565b6040516107419493929190613e10565b60405180910390f35b341561075557600080fd5b61075d611e8a565b60405161076a9190613e63565b60405180910390f35b341561077e57600080fd5b610793600461078e903690613bfc565b611e90565b6040516107a09190613da3565b60405180910390f35b34156107b457600080fd5b6107bc61211b565b6040516107c99190613e63565b60405180910390f35b34156107dd57600080fd5b6107f260046107ed903690613a02565b612121565b005b6108096004610804903690613b77565b612241565b005b610813613156565b600060028381548110151561082457fe5b906000526020600020906002020160010160028481548110151561084457fe5b906000526020600020906002020160000160009054906101000a900473ffffffffffffffffffffffffffffffffffffffff16818054600181600116156101000203166002900480601f01602080910402602001604051908101604052809291908181526020018280546001816001161561010002031660029004801561090b5780601f106108e05761010080835404028352916020019161090b565b820191906000526020600020905b8154815290600101906020018083116108ee57829003601f168201915b5050505050915091509150915091565b61092361316a565b81816020018190525082816000019073ffffffffffffffffffffffffffffffffffffffff16908173ffffffffffffffffffffffffffffffffffffffff1681525050600a805480600101828161097891906131a0565b9160005260206000209060020201600083909190915060008201518160000160006101000a81548173ffffffffffffffffffffffffffffffffffffffff021916908373ffffffffffffffffffffffffffffffffffffffff16021790555060208201518160010190805190602001906109f19291906131d2565b50505050505050565b60075481565b6000600380549050905090565b6000600280549050905090565b600f5481565b600080600090505b600280549050811015610abf573373ffffffffffffffffffffffffffffffffffffffff16600282815481101515610a5b57fe5b906000526020600020906002020160000160009054906101000a900473ffffffffffffffffffffffffffffffffffffffff1673ffffffffffffffffffffffffffffffffffffffff161415610ab25760019150610ac4565b8080600101915050610a28565b600091505b5090565b610ad0613156565b60006002600384815481101515610ae357fe5b906000526020600020900154815481101515610afb57fe5b90600052602060002090600202016001016002600385815481101515610b1d57fe5b906000526020600020900154815481101515610b3557fe5b906000526020600020906002020160000160009054906101000a900473ffffffffffffffffffffffffffffffffffffffff16818054600181600116156101000203166002900480601f016020809104026020016040519081016040528092919081815260200182805460018160011615610100020316600290048015610bfc5780601f10610bd157610100808354040283529160200191610bfc565b820191906000526020600020905b815481529060010190602001808311610bdf57829003601f168201915b5050505050915091509150915091565b600d5481565b6000610c1c613252565b610c24613266565b610c2c613266565b610c3461327a565b6000806000610c41613266565b6000610c4b613266565b600c549a508a604051805910610c5e5750595b908082528060200260200182016040528015610c9457816020015b610c8161328e565b815260200190600190039081610c795790505b5099508a604051805910610ca55750595b908082528060200260200182016040525098508a604051805910610cc65750595b908082528060200260200182016040525097508a604051805910610ce75750595b908082528060200260200182016040528015610d1d57816020015b610d0a6132a2565b815260200190600190039081610d025790505b509650600095505b8a861015610e5c57600986815481101515610d3c57fe5b9060005260206000209060030201606060405190810160405290816000820154815260200160018201805480602002602001604051908101604052809291908181526020018280548015610daf57602002820191906000526020600020905b815481526020019060010190808311610d9b575b505050505081526020016002820154815250508787815181101515610dd057fe5b906020019060200201819052508686815181101515610deb57fe5b90602001906020020151602001518a87815181101515610e0757fe5b9060200190602002018190525060018987815181101515610e2457fe5b9060200190602002018181525050858887815181101515610e4157fe5b90602001906020020181815250508580600101965050610d25565b600094505b8a610e6d898d8a61248c565b14156112cf57610ede8a8987815181101515610e8557fe5b90602001906020020151815181101515610e9b57fe5b906020019060200201518887815181101515610eb357fe5b90602001906020020151602001518b88815181101515610ecf57fe5b90602001906020020151612579565b93506002604051805910610eef5750595b908082528060200260200182016040525092508a9150600095505b8a86101561115457858886815181101515610f2157fe5b9060200190602002015114158015610f51575060008987815181101515610f4457fe5b9060200190602002015114155b1561114757610fc78786815181101515610f6757fe5b90602001906020020151602001518b88815181101515610f8357fe5b906020019060200201518988815181101515610f9b57fe5b90602001906020020151604001518c8a815181101515610fb757fe5b9060200190602002015101612579565b6110048887815181101515610fd857fe5b90602001906020020151604001518b89815181101515610ff457fe5b90602001906020020151016125b2565b016110258a8881518110151561101657fe5b906020019060200201516125b2565b850110156111465761110461106d888781518110151561104157fe5b90602001906020020151604001518b8981518110151561105d57fe5b90602001906020020151016125b2565b6110de898881518110151561107e57fe5b90602001906020020151602001518d8a81518110151561109a57fe5b906020019060200201518b8a8151811015156110b257fe5b90602001906020020151604001518e8c8151811015156110ce57fe5b9060200190602002015101612579565b866110ff8d8b8151811015156110f057fe5b906020019060200201516125b2565b611e90565b905082600081518110151561111557fe5b9060200190602002015181600081518110151561112e57fe5b906020019060200201511115611145578092508591505b5b5b8580600101965050610f0a565b8a8214151561129b576111cf878681518110151561116e57fe5b90602001906020020151602001518b8481518110151561118a57fe5b90602001906020020151858a898151811015156111a357fe5b90602001906020020151604001518d878151811015156111bf57fe5b906020019060200201510161184f565b8a838151811015156111dd57fe5b9060200190602002018190525086858151811015156111f857fe5b906020019060200201516040015189898781518110151561121557fe5b9060200190602002015181518110151561122b57fe5b9060200190602002018181510391508181525050868581518110151561124d57fe5b9060200190602002015160400151898381518110151561126957fe5b906020019060200201818151019150818152505081888681518110151561128c57fe5b90602001906020020181815250505b60018b038514156112af57600094506112b8565b84806001019550505b601254601160008282540192505081905550610e61565b896112db898d8a61248c565b8151811015156112e757fe5b90602001906020020151600b90805190602001906113069291906132ca565b505050505050505050505050565b426001546008540110801561133c575060001515600660009054906101000a900460ff161515145b15611364576001600660006101000a81548160ff021916908315150217905550426007819055505b565b426008541115801561138b575060001515600660009054906101000a900460ff161515145b1561139957611398610c12565b5b565b60006113a5613317565b600091505b600c5482101561146557600383838151811015156113c457fe5b906020019060200201518154811015156113da57fe5b90600052602060002090015481600001818152505060018160400181815250506009805480600101828161140e919061333f565b9160005260206000209060030201600083909190915060008201518160000155602082015181600101908051906020019061144a929190613371565b506040820151816002015550505081806001019250506113aa565b600060038161147491906133be565b50505050565b6114826133ea565b60048281548110151561149157fe5b906000526020600020900180548060200260200160405190810160405280929190818152602001828054801561151c57602002820191906000526020600020905b8160009054906101000a900473ffffffffffffffffffffffffffffffffffffffff1673ffffffffffffffffffffffffffffffffffffffff16815260200190600101908083116114d2575b50505050509050919050565b60008090505b600c5481101561160f573373ffffffffffffffffffffffffffffffffffffffff16600260098381548110151561156057fe5b90600052602060002090600302016000015481548110151561157e57fe5b906000526020600020906002020160000160009054906101000a900473ffffffffffffffffffffffffffffffffffffffff1673ffffffffffffffffffffffffffffffffffffffff16141561160257816009828154811015156115dc57fe5b906000526020600020906003020160010190805190602001906116009291906132ca565b505b808060010191505061152e565b5050565b60125481565b60015481565b6000600b8281548110151561163057fe5b9060005260206000209001549050919050565b565b61164d613266565b61165d82600060018551036125dd565b819050919050565b60115481565b600b8181548110151561167a57fe5b90600052602060002090016000915090505481565b600c5481565b60056020528060005260406000206000915054906101000a900460ff1681565b6116bd613156565b6000600a838154811015156116ce57fe5b9060005260206000209060020201600101600a848154811015156116ee57fe5b906000526020600020906002020160000160009054906101000a900473ffffffffffffffffffffffffffffffffffffffff16818054600181600116156101000203166002900480601f0160208091040260200160405190810160405280929190818152602001828054600181600116156101000203166002900480156117b55780601f1061178a576101008083540402835291602001916117b5565b820191906000526020600020905b81548152906001019060200180831161179857829003601f168201915b5050505050915091509150915091565b42600754111580156117ea575060011515600660009054906101000a900460ff161515145b1561181a576000600660006101000a81548160ff0219169083151502179055504260088190555061181961273d565b5b565b6000600a80549050905090565b600e5481565b600660009054906101000a900460ff1681565b6000600980549050905090565b611857613266565b61185f613266565b6000806000806000806000808d5160405180591061187a5750595b908082528060200260200182016040525098506118978e8e612b59565b9750876011546064038c6001600e5401036011548115156118b457fe5b04018d60008151811015156118c557fe5b906020019060200201518115156118d857fe5b04039650876011546064038c6001600e5401036011548115156118f757fe5b04018d600181518110151561190857fe5b9060200190602002015181151561191b57fe5b040395506000945060009350600092505b8d518310156119b6578c8381518110151561194357fe5b906020019060200201518e8481518110151561195b57fe5b90602001906020020151111561198c578d8381518110151561197957fe5b90602001906020020151850194506119a9565b8c8381518110151561199a57fe5b90602001906020020151840193505b828060010193505061192c565b60009150600092505b8d51831015611b49578c838151811015156119d657fe5b906020019060200201518e848151811015156119ee57fe5b906020019060200201511115611a9f57848e84815181101515611a0d57fe5b906020019060200201518802811515611a2257fe5b048d84815181101515611a3157fe5b906020019060200201510182019150848e84815181101515611a4f57fe5b906020019060200201518802811515611a6457fe5b048d84815181101515611a7357fe5b90602001906020020151018984815181101515611a8c57fe5b9060200190602002018181525050611b3c565b838d84815181101515611aae57fe5b906020019060200201518702811515611ac357fe5b048e84815181101515611ad257fe5b906020019060200201510182019150838d84815181101515611af057fe5b906020019060200201518702811515611b0557fe5b048e84815181101515611b1457fe5b90602001906020020151018984815181101515611b2d57fe5b90602001906020020181815250505b82806001019350506119bf565b600090505b6064821015611ba45760018982815181101515611b6757fe5b906020019060200201818151019150818152505060018201915060018e5103811415611b965760009050611b9f565b80806001019150505b611b4e565b889950505050505050505050949350505050565b6000611bcb33611bc6612bfb565b612dd6565b1515611c8f57600090505b600280549050811015611c8e573373ffffffffffffffffffffffffffffffffffffffff16600282815481101515611c0957fe5b906000526020600020906002020160000160009054906101000a900473ffffffffffffffffffffffffffffffffffffffff1673ffffffffffffffffffffffffffffffffffffffff161415611c815760038054806001018281611c6b91906133fe565b9160005260206000209001600083909190915055505b8080600101915050611bd6565b5b50565b60005481565b611ca0613156565b600080611cab613266565b6002600986815481101515611cbc57fe5b906000526020600020906003020160000154815481101515611cda57fe5b90600052602060002090600202016001016002600987815481101515611cfc57fe5b906000526020600020906003020160000154815481101515611d1a57fe5b906000526020600020906002020160000160009054906101000a900473ffffffffffffffffffffffffffffffffffffffff16600987815481101515611d5b57fe5b906000526020600020906003020160020154600988815481101515611d7c57fe5b9060005260206000209060030201600101838054600181600116156101000203166002900480601f016020809104026020016040519081016040528092919081815260200182805460018160011615610100020316600290048015611e225780601f10611df757610100808354040283529160200191611e22565b820191906000526020600020905b815481529060010190602001808311611e0557829003601f168201915b5050505050935080805480602002602001604051908101604052809291908181526020018280548015611e7457602002820191906000526020600020905b815481526020019060010190808311611e60575b5050505050905093509350935093509193509193565b60105481565b611e98613266565b600080611ea3613266565b600080600f5494506001856002898b8d8f01030303811515611ec157fe5b040193506002604051805910611ed45750595b90808252806020026020018201604052509250601054915081841115611ef8578193505b600287898760018803028c8e010303030390506000600285811515611f1957fe5b061415611f98576001856001600287811515611f3157fe5b0403028260018a01010101836001815181101515611f4b57fe5b9060200190602002018181525050826001815181101515611f6857fe5b90602001906020020151898b0103836000815181101515611f8557fe5b906020019060200201818152505061200c565b846001600260018701811515611faa57fe5b0403028160018a010101836000815181101515611fc357fe5b9060200190602002018181525050826000815181101515611fe057fe5b90602001906020020151898b0103836001815181101515611ffd57fe5b90602001906020020181815250505b8983600081518110151561201c57fe5b90602001906020020151111561208d578983600081518110151561203c57fe5b906020019060200201510383600181518110151561205657fe5b90602001906020020181815101915081815250508983600081518110151561207a57fe5b906020019060200201818152505061210b565b8983600181518110151561209d57fe5b90602001906020020151111561210a57898360018151811015156120bd57fe5b90602001906020020151038360008151811015156120d757fe5b9060200190602002018181510191508181525050898360018151811015156120fb57fe5b90602001906020020181815250505b5b8295505050505050949350505050565b60085481565b612129610a20565b8015612148575060011515600660009054906101000a900460ff161515145b80156121a4575060001515600560003373ffffffffffffffffffffffffffffffffffffffff1673ffffffffffffffffffffffffffffffffffffffff16815260200190815260200160002060009054906101000a900460ff161515145b1561223e576001600560003373ffffffffffffffffffffffffffffffffffffffff1673ffffffffffffffffffffffffffffffffffffffff16815260200190815260200160002060006101000a81548160ff02191690831515021790555060048054806001018281612215919061342a565b91600052602060002090016000839091909150908051906020019061223b929190613456565b50505b50565b6122496134e0565b600054341180156123b057506123ae336002805480602002602001604051908101604052809291908181526020016000905b828210156123a557838290600052602060002090600202016040805190810160405290816000820160009054906101000a900473ffffffffffffffffffffffffffffffffffffffff1673ffffffffffffffffffffffffffffffffffffffff1673ffffffffffffffffffffffffffffffffffffffff168152602001600182018054600181600116156101000203166002900480601f01602080910402602001604051908101604052809291908181526020018280546001816001161561010002031660029004801561238d5780601f106123625761010080835404028352916020019161238d565b820191906000526020600020905b81548152906001019060200180831161237057829003601f168201915b5050505050815250508152602001906001019061227b565b50505050612dd6565b155b156124885733816000019073ffffffffffffffffffffffffffffffffffffffff16908173ffffffffffffffffffffffffffffffffffffffff16815250508181602001819052506002805480600101828161240a9190613516565b9160005260206000209060020201600083909190915060008201518160000160006101000a81548173ffffffffffffffffffffffffffffffffffffffff021916908373ffffffffffffffffffffffffffffffffffffffff16021790555060208201518160010190805190602001906124839291906131d2565b505050505b5050565b6000612496613266565b6000846040518059106124a65750595b90808252806020026020018201604052509150600090505b848110156125285783818151811015156124d457fe5b90602001906020020151604001518287838151811015156124f157fe5b9060200190602002015181518110151561250757fe5b906020019060200201818151019150818152505080806001019150506124be565b600090505b8481101561256c57600e54828281518110151561254657fe5b9060200190602002015110151561255f57809250612570565b808060010191505061252d565b8492505b50509392505050565b6000806125868585612b59565b90508060115460640302836001600e54010382601154028115156125a657fe5b04019150509392505050565b6000606460115460640302826001600e5401036064601154028115156125d457fe5b04019050919050565b6000806000849250839150818314156125f557612735565b85600286860381151561260457fe5b04860181518110151561261357fe5b9060200190602002015190505b818311151561270c575b80868481518110151561263957fe5b90602001906020020151111561265657828060010193505061262a565b5b858281518110151561266557fe5b9060200190602002015181111561268457818060019003925050612657565b818311151561270757858281518110151561269b57fe5b9060200190602002015186848151811015156126b357fe5b9060200190602002015187858151811015156126cb57fe5b90602001906020020188858151811015156126e257fe5b9060200190602002018281525082815250505082806001019350508180600190039250505b612620565b818510156127205761271f8686846125dd565b5b83831015612734576127338684866125dd565b5b5b505050505050565b600080612748613266565b612750613252565b600061275a613266565b612762613266565b61276a613266565b60038054905060405180591061277d5750595b90808252806020026020018201604052509550855160405180591061279f5750595b9080825280602002602001820160405280156127d557816020015b6127c261328e565b8152602001906001900390816127ba5790505b509450600097505b855188101561282e5785516040518059106127f55750595b9080825280602002602001820160405250858981518110151561281457fe5b9060200190602002018190525087806001019850506127dd565b600097505b600186510388101561296a578760010196505b855187101561295d576128598888612e58565b935060008414156128d75786858981518110151561287357fe5b90602001906020020151878a81518110151561288b57fe5b906020019060200201518151811015156128a157fe5b906020019060200201818152505085888151811015156128bd57fe5b906020019060200201805180919060010181525050612950565b600184141561294f578785888151811015156128ef57fe5b90602001906020020151878981518110151561290757fe5b9060200190602002015181518110151561291d57fe5b9060200190602002018181525050858781518110151561293957fe5b9060200190602002018051809190600101815250505b5b8680600101975050612846565b8780600101985050612833565b85516040518059106129795750595b90808252806020026020018201604052509250600097505b8551881015612a6257600086898151811015156129aa57fe5b90602001906020020151141515612a5557600096505b85888151811015156129ce57fe5b90602001906020020151871015612a54578585898151811015156129ee57fe5b9060200190602002015188815181101515612a0557fe5b90602001906020020151815181101515612a1b57fe5b906020019060200201518389815181101515612a3357fe5b906020019060200201818151019150818152505086806001019750506129c0565b5b8780600101985050612991565b8551604051805910612a715750595b90808252806020026020018201604052509150612a95612a90846130c9565b611645565b9050600097505b8551881015612b4657600096505b8551871015612b39578287815181101515612ac157fe5b906020019060200201518189815181101515612ad957fe5b906020019060200201511415612b2c57868289815181101515612af857fe5b906020019060200201818152505085518651028388815181101515612b1957fe5b9060200190602002018181525050612b39565b8680600101975050612aaa565b8780600101985050612a9c565b612b4f8261139b565b5050505050505050565b6000806000809150600090505b8451811015612bf0578381815181101515612b7d57fe5b906020019060200201518582815181101515612b9557fe5b906020019060200201511115612bc6578381815181101515612bb357fe5b9060200190602002015182019150612be3565b8481815181101515612bd457fe5b90602001906020020151820191505b8080600101915050612b66565b819250505092915050565b612c03613548565b6000612c0d613548565b6000600380549050925082604051805910612c255750595b908082528060200260200182016040528015612c5b57816020015b612c4861355c565b815260200190600190039081612c405790505b509150600090505b82811015612dcd576002600382815481101515612c7c57fe5b906000526020600020900154815481101515612c9457fe5b90600052602060002090600202016040805190810160405290816000820160009054906101000a900473ffffffffffffffffffffffffffffffffffffffff1673ffffffffffffffffffffffffffffffffffffffff1673ffffffffffffffffffffffffffffffffffffffff168152602001600182018054600181600116156101000203166002900480601f016020809104026020016040519081016040528092919081815260200182805460018160011615610100020316600290048015612d9c5780601f10612d7157610100808354040283529160200191612d9c565b820191906000526020600020905b815481529060010190602001808311612d7f57829003601f168201915b5050505050815250508282815181101515612db357fe5b906020019060200201819052508080600101915050612c63565b81935050505090565b600080600090505b8251811015612e4c578373ffffffffffffffffffffffffffffffffffffffff168382815181101515612e0c57fe5b906020019060200201516000015173ffffffffffffffffffffffffffffffffffffffff161415612e3f5760019150612e51565b8080600101915050612dde565b600091505b5092915050565b60008060008060008060008060008060009850600097506004805490509650600260038d815481101515612e8857fe5b906000526020600020900154815481101515612ea057fe5b906000526020600020906002020160000160009054906101000a900473ffffffffffffffffffffffffffffffffffffffff169550600260038c815481101515612ee557fe5b906000526020600020900154815481101515612efd57fe5b906000526020600020906002020160000160009054906101000a900473ffffffffffffffffffffffffffffffffffffffff169450600093505b8684101561309357600287811515612f4a57fe5b048911158015612f665750600287811515612f6157fe5b048811155b1561308157600484815481101515612f7a57fe5b9060005260206000209001805490509250600091505b8282101561307c57600484815481101515612fa757fe5b906000526020600020900182815481101515612fbf57fe5b906000526020600020900160009054906101000a900473ffffffffffffffffffffffffffffffffffffffff1690508573ffffffffffffffffffffffffffffffffffffffff168173ffffffffffffffffffffffffffffffffffffffff16141561302e57888060010199505061307c565b8473ffffffffffffffffffffffffffffffffffffffff168173ffffffffffffffffffffffffffffffffffffffff16141561306f57878060010198505061307c565b8180600101925050612f90565b613086565b613093565b8380600101945050612f36565b878911156130a457600099506130ba565b888811156130b557600199506130ba565b600299505b50505050505050505092915050565b6130d1613266565b6130d9613266565b600083516040518059106130ea5750595b90808252806020026020018201604052509150600090505b835181101561314c57838181518110151561311957fe5b90602001906020020151828281518110151561313157fe5b90602001906020020181815250508080600101915050613102565b8192505050919050565b602060405190810160405280600081525090565b6040805190810160405280600073ffffffffffffffffffffffffffffffffffffffff16815260200161319a613592565b81525090565b8154818355818115116131cd576002028160020283600052602060002091820191016131cc91906135a6565b5b505050565b828054600181600116156101000203166002900490600052602060002090601f016020900481019282601f1061321357805160ff1916838001178555613241565b82800160010185558215613241579182015b82811115613240578251825591602001919060010190613225565b5b50905061324e91906135fc565b5090565b602060405190810160405280600081525090565b602060405190810160405280600081525090565b602060405190810160405280600081525090565b602060405190810160405280600081525090565b606060405190810160405280600081526020016132bd61328e565b8152602001600081525090565b828054828255906000526020600020908101928215613306579160200282015b828111156133055782518255916020019190600101906132ea565b5b50905061331391906135fc565b5090565b6060604051908101604052806000815260200161333261328e565b8152602001600081525090565b81548183558181151161336c5760030281600302836000526020600020918201910161336b9190613621565b5b505050565b8280548282559060005260206000209081019282156133ad579160200282015b828111156133ac578251825591602001919060010190613391565b5b5090506133ba91906135fc565b5090565b8154818355818115116133e5578183600052602060002091820191016133e491906135fc565b5b505050565b602060405190810160405280600081525090565b8154818355818115116134255781836000526020600020918201910161342491906135fc565b5b505050565b815481835581811511613451578183600052602060002091820191016134509190613660565b5b505050565b8280548282559060005260206000209081019282156134cf579160200282015b828111156134ce5782518260006101000a81548173ffffffffffffffffffffffffffffffffffffffff021916908373ffffffffffffffffffffffffffffffffffffffff16021790555091602001919060010190613476565b5b5090506134dc919061368c565b5090565b6040805190810160405280600073ffffffffffffffffffffffffffffffffffffffff168152602001613510613592565b81525090565b8154818355818115116135435760020281600202836000526020600020918201910161354291906136cf565b5b505050565b602060405190810160405280600081525090565b6040805190810160405280600073ffffffffffffffffffffffffffffffffffffffff16815260200161358c613592565b81525090565b602060405190810160405280600081525090565b6135f991905b808211156135f557600080820160006101000a81549073ffffffffffffffffffffffffffffffffffffffff02191690556001820160006135ec9190613725565b506002016135ac565b5090565b90565b61361e91905b8082111561361a576000816000905550600101613602565b5090565b90565b61365d91905b8082111561365957600080820160009055600182016000613648919061376d565b600282016000905550600301613627565b5090565b90565b61368991905b80821115613685576000818161367c919061378e565b50600101613666565b5090565b90565b6136cc91905b808211156136c857600081816101000a81549073ffffffffffffffffffffffffffffffffffffffff021916905550600101613692565b5090565b90565b61372291905b8082111561371e57600080820160006101000a81549073ffffffffffffffffffffffffffffffffffffffff02191690556001820160006137159190613725565b506002016136d5565b5090565b90565b50805460018160011615610100020316600290046000825580601f1061374b575061376a565b601f01602090049060005260206000209081019061376991906135fc565b5b50565b508054600082559060005260206000209081019061378b91906135fc565b50565b50805460008255906000526020600020908101906137ac91906135fc565b50565b60006137bb8235613fd6565b905092915050565b600082601f830112600081146137d8576137dd565b600080fd5b5081356137f16137ec82613eb4565b613e7e565b915081818352602084019350602081019050838560208402820111600181146138195761381e565b600080fd5b5060005b8381101561384f578161383588826137af565b845260208401935060208301925050600181019050613822565b5050505092915050565b600082601f8301126000811461386e57613873565b600080fd5b50813561388761388282613ee5565b613e7e565b915081818352602084019350602081019050838560208402820111600181146138af576138b4565b600080fd5b5060005b838110156138e557816138cb8882613956565b8452602084019350602083019250506001810190506138b8565b5050505092915050565b600082601f8301126000811461390457613909565b600080fd5b50813561391d61391882613f16565b613e7e565b9150808252602083016020830185838301116001811461393c57613941565b600080fd5b5061394d838284614000565b50505092915050565b60006139628235613ff6565b905092915050565b60006020828403126001811461397f57613984565b600080fd5b506000613993848285016137af565b91505092915050565b600080604083850312600181146139b2576139b7565b600080fd5b5060006139c6858286016137af565b925050602083013567ffffffffffffffff8111600181146139e6576139eb565b600080fd5b506139f8858286016138ef565b9150509250929050565b600060208284031260018114613a1757613a1c565b600080fd5b50600082013567ffffffffffffffff811160018114613a3a57613a3f565b600080fd5b50613a4c848285016137c3565b91505092915050565b600060208284031260018114613a6a57613a6f565b600080fd5b50600082013567ffffffffffffffff811160018114613a8d57613a92565b600080fd5b50613a9f84828501613859565b91505092915050565b60008060008060808587031260018114613ac157613ac6565b600080fd5b50600085013567ffffffffffffffff811160018114613ae457613ae9565b600080fd5b50613af687828801613859565b945050602085013567ffffffffffffffff811160018114613b1657613b1b565b600080fd5b50613b2887828801613859565b935050604085013567ffffffffffffffff811160018114613b4857613b4d565b600080fd5b50613b5a87828801613859565b9250506060613b6b87828801613956565b91505092959194509250565b600060208284031260018114613b8c57613b91565b600080fd5b50600082013567ffffffffffffffff811160018114613baf57613bb4565b600080fd5b50613bc1848285016138ef565b91505092915050565b600060208284031260018114613bdf57613be4565b600080fd5b506000613bf384828501613956565b91505092915050565b60008060008060808587031260018114613c1557613c1a565b600080fd5b506000613c2987828801613956565b9450506020613c3a87828801613956565b9350506040613c4b87828801613956565b9250506060613c5c87828801613956565b91505092959194509250565b613c7181613fa0565b82525050565b6000613c8282613f65565b808452602084019350613c9483613f4b565b60005b82811015613cc657613caa868351613c68565b613cb382613f86565b9150602086019550600181019050613c97565b50849250505092915050565b6000613cdd82613f70565b808452602084019350613cef83613f58565b60005b82811015613d2157613d05868351613d72565b613d0e82613f93565b9150602086019550600181019050613cf2565b50849250505092915050565b613d3681613fc0565b82525050565b6000613d4782613f7b565b808452613d5b81602086016020860161400f565b613d6481614042565b602085010191505092915050565b613d7b81613fcc565b82525050565b60006020820190508181036000830152613d9b8184613c77565b905092915050565b60006020820190508181036000830152613dbd8184613cd2565b905092915050565b6000602082019050613dda6000830184613d2d565b92915050565b60006040820190508181036000830152613dfa8185613d3c565b9050613e096020830184613c68565b9392505050565b60006080820190508181036000830152613e2a8187613d3c565b9050613e396020830186613c68565b613e466040830185613d72565b8181036060830152613e588184613cd2565b905095945050505050565b6000602082019050613e786000830184613d72565b92915050565b6000604051905081810181811067ffffffffffffffff82111760018114613ea457613ea9565b600080fd5b508060405250919050565b600067ffffffffffffffff821160018114613ece57613ed3565b600080fd5b50602082029050602081019050919050565b600067ffffffffffffffff821160018114613eff57613f04565b600080fd5b50602082029050602081019050919050565b600067ffffffffffffffff821160018114613f3057613f35565b600080fd5b50601f19601f8301169050602081019050919050565b6000602082019050919050565b6000602082019050919050565b600081519050919050565b600081519050919050565b600081519050919050565b6000602082019050919050565b6000602082019050919050565b600073ffffffffffffffffffffffffffffffffffffffff82169050919050565b60008115159050919050565b6000819050919050565b600073ffffffffffffffffffffffffffffffffffffffff82169050919050565b6000819050919050565b82818337600083830152505050565b60005b8381101561402d578082015181840152602081019050614012565b8381111561403c576000848401525b50505050565b6000601f19601f83011690509190505600a265627a7a7230582091d756f8de5ee7af62963aa8df640b27518283b5215140a568d213a329ae4c926c6578706572696d656e74616cf50037",
  "source": "pragma solidity ^0.4.19;\r\npragma experimental ABIEncoderV2;\r\nimport \"./MyLib.sol\";\r\n\r\ncontract Club {\r\n\r\n  uint public registrationCost;\r\n  uint public termLength;\r\n  MyLib.User[] registeredUser;\r\n\r\n  uint[] candidates;\r\n  address[][] votes;\r\n  mapping (address => bool) public voted;\r\n  bool public voteStarted = false;\r\n  uint public timeVoteStarted =0;\r\n  uint public timeVoteEnded =0;\r\n  MyLib.Agent[] listOfRepresentatives;\r\n  MyLib.Sink[] listOfSinks;\r\n  uint[] public finalBudget;\r\n  uint public numberOfRepresentatives;\r\n  uint public numberOfSinks;\r\n  uint public quota = 5;\r\n  uint public gasCost = 1;\r\n  uint public numberOfTurns = 100;\r\n  uint public coalitionSizeFactor = 20;\r\n  uint public coalitionSizeFactorIncrease = 1;\r\n\r\n\r\n  function Club(uint reps, uint sinks, uint cost, uint term) public {\r\n    numberOfRepresentatives = reps;\r\n    numberOfSinks = sinks;\r\n    registrationCost = cost;\r\n    termLength = term;\r\n  }\r\n\r\n\r\n  function startVote() public {\r\n    if(timeVoteEnded + termLength < block.timestamp && voteStarted == false)\r\n    {\r\n      voteStarted = true;\r\n      timeVoteStarted = block.timestamp;\r\n    }\r\n  }\r\n\r\n  function vote(address[] myVote) public {\r\n    if(isRegistered() && voteStarted == true && voted[msg.sender] == false){\r\n      voted[msg.sender] = true;\r\n      votes.push(myVote);\r\n\r\n    }\r\n  }\r\n  function endVote() public\r\n  {\r\n    if(timeVoteStarted <= block.timestamp && voteStarted == true)\r\n    {\r\n      voteStarted = false;\r\n      timeVoteEnded = block.timestamp;\r\n      countVotes();\r\n    }\r\n\r\n  }\r\n  //second order copeland\r\n  function countVotes() internal {\r\n    uint i;\r\n    uint p;\r\n    uint[] memory copelandScore = new uint[](candidates.length);\r\n    uint[][] memory defeated = new uint[][](copelandScore.length);\r\n\r\n    //init2d array\r\n    for (i = 0; i < copelandScore.length; i++)\r\n    {\r\n      defeated[i] = new uint[](copelandScore.length);\r\n    }\r\n\r\n    //pairwise each candidate against each other\r\n    for (i = 0; i < copelandScore.length - 1; i++)\r\n    {\r\n      for (p = 1 + i; p < copelandScore.length; p++)\r\n      {\r\n        uint pairwise = pairwiseComparison(i,p);\r\n\r\n        if(pairwise == 0)\r\n        {\r\n          defeated[i][copelandScore[i]] = p;\r\n          copelandScore[i] ++;\r\n        }\r\n        else if (pairwise == 1) {\r\n          defeated[p][copelandScore[p]] = i;\r\n          copelandScore[p] ++;\r\n        }\r\n\r\n\r\n      }\r\n    }\r\n\r\n    //add up the copeland scores of defeated users\r\n    uint[] memory secondOrderCopeland = new uint[](copelandScore.length);\r\n    for(i =0; i < copelandScore.length; i++)\r\n    {\r\n      if(copelandScore[i] != 0)\r\n      {\r\n        for(p =0; p < copelandScore[i] ; p++)\r\n        {\r\n          secondOrderCopeland[i] += copelandScore[defeated[i][p]];\r\n        }\r\n      }\r\n    }\r\n\r\n    uint[] memory ranked = new uint[](copelandScore.length);\r\n    uint[] memory sortedSecondOrderCopeland = sort(copy(secondOrderCopeland));\r\n\r\n\r\n    for(i=0; i < copelandScore.length; i ++ )\r\n    {\r\n      for(p=0; p < copelandScore.length; p ++ )\r\n      {\r\n        if(sortedSecondOrderCopeland[i] == secondOrderCopeland[p])\r\n        {\r\n          ranked[i] = p;\r\n          //stops same score being matched twice\r\n          secondOrderCopeland[p] = copelandScore.length  * copelandScore.length;\r\n          break;\r\n        }\r\n      }\r\n    }\r\n\r\n    weightCandidates(ranked);\r\n  }\r\n\r\n\r\n  function copy(uint[] toCopy) internal pure returns (uint[])\r\n  {\r\n    uint[] memory copyTo = new uint[](toCopy.length);\r\n    for(uint i = 0; i < toCopy.length; i ++)\r\n    {\r\n      copyTo[i] = toCopy[i];\r\n    }\r\n    return copyTo;\r\n  }\r\n  function pairwiseComparison(uint i, uint p) internal constant returns (uint)\r\n  {\r\n    uint scorei = 0;\r\n    uint scorep = 0;\r\n    uint voteLength = votes.length;\r\n    address iaddress = registeredUser[candidates[i]].myAddress;\r\n    address paddress = registeredUser[candidates[p]].myAddress;\r\n\r\n    for(uint z =0; z < voteLength; z ++)\r\n    {\r\n      if (scorei <= voteLength / 2 && scorep <= voteLength /2)\r\n      {\r\n        //if not seen its the highest\r\n        uint votezlength = votes[z].length;\r\n        for(uint j =0; j < votezlength; j ++)\r\n        {\r\n          address voteaddress = votes[z][j];\r\n          if(voteaddress == iaddress )\r\n          {\r\n            scorei ++;\r\n            break;\r\n          }\r\n          else if(voteaddress == paddress )\r\n          {\r\n            scorep ++;\r\n            break;\r\n          }\r\n        }\r\n      }\r\n      else{\r\n        //if majority for one candidate no need to continue\r\n        break;\r\n      }\r\n    }\r\n    if(scorei > scorep)\r\n    {\r\n      return 0;\r\n    }\r\n    else if (scorep > scorei) {\r\n      return 1;\r\n    }\r\n    else\r\n    {\r\n      return 2;\r\n    }\r\n  }\r\n  function weightCandidates(uint[] ranked) public\r\n  {\r\n    for (uint i = 0; i < numberOfRepresentatives; i++)\r\n    {\r\n      MyLib.Agent memory a;\r\n      a.u = candidates[ranked[i]];\r\n      a.weight = 1;\r\n      listOfRepresentatives.push(a);\r\n    }\r\n    candidates.length = 0;\r\n\r\n  }\r\n  function sort(uint[] data) public returns (uint[]) {\r\n    quickSort(data, uint(0), uint(data.length - 1));\r\n    return data;\r\n  }\r\n\r\n  function quickSort(uint[] memory arr, uint left, uint right) internal{\r\n    uint i = left;\r\n    uint j = right;\r\n    if(i==j) return;\r\n    uint pivot = arr[uint(left + (right - left) / 2)];\r\n    while (i <= j) {\r\n      while (arr[uint(i)] > pivot) i++;\r\n      while (pivot > arr[uint(j)]) j--;\r\n      if (i <= j) {\r\n        (arr[uint(i)], arr[uint(j)]) = (arr[uint(j)], arr[uint(i)]);\r\n        i++;\r\n        j--;\r\n      }\r\n    }\r\n    if (left < j)\r\n    quickSort(arr, left, j);\r\n    if (i < right)\r\n    quickSort(arr, i, right);\r\n  }\r\n\r\n  function subsidize() public payable {}\r\n\r\n    function isRegistered() public constant returns (bool) {\r\n      for (uint i = 0; i < registeredUser.length; i++) {\r\n        if(registeredUser[i].myAddress == msg.sender)\r\n        {\r\n          return true;\r\n        }\r\n      }\r\n      return false;\r\n    }\r\n\r\n\r\n    function register(string name) public payable {\r\n      if (msg.value > registrationCost && (!addressUsed(msg.sender,registeredUser)) ) {\r\n        MyLib.User memory u;\r\n        u.myAddress = msg.sender;\r\n        u.name = name;\r\n        registeredUser.push(u);\r\n      }\r\n    }\r\n    //saves gass as dont have to look at candidates with no votes\r\n    function apply() public {\r\n      if(!addressUsed(msg.sender,buildCandidateList()))\r\n      {\r\n        for (uint i = 0; i < registeredUser.length; i++)\r\n        {\r\n          if(registeredUser[i].myAddress == msg.sender)\r\n          {\r\n            candidates.push(i);\r\n          }\r\n        }\r\n      }\r\n    }\r\n\r\n    function buildCandidateList() internal constant returns (MyLib.User[])\r\n    {\r\n      uint candidatesLength = candidates.length;\r\n      MyLib.User[] memory userList = new MyLib.User[](candidatesLength);\r\n      for(uint i = 0; i < candidatesLength; i ++)\r\n      {\r\n        userList[i] = registeredUser[candidates[i]];\r\n      }\r\n      return userList;\r\n    }\r\n\r\n    function addressUsed(address sample, MyLib.User[] userList) internal pure returns (bool)\r\n    {\r\n      for (uint i = 0; i < userList.length; i++)\r\n      {\r\n        if(userList[i].myAddress == sample)\r\n        {\r\n          return true;\r\n        }\r\n      }\r\n      return false;\r\n    }\r\n\r\n    function submitBudget(uint[] budget) public\r\n    {\r\n      for (uint i = 0; i < numberOfRepresentatives; i++)\r\n      {\r\n        if(registeredUser[listOfRepresentatives[i].u].myAddress == msg.sender)\r\n        {\r\n          listOfRepresentatives[i].budget = budget;\r\n        }\r\n      }\r\n    }\r\n    //who should be able to do this\r\n    function submitSink(address spender, string name) public\r\n    {\r\n      MyLib.Sink memory s;\r\n      s.name = name;\r\n      s.spender = spender;\r\n      listOfSinks.push(s);\r\n    }\r\n\r\n\r\n    function endBudgetSumbit() public\r\n    {\r\n      if(timeVoteEnded <= block.timestamp && voteStarted == false)\r\n      {\r\n        decideBudget();\r\n      }\r\n    }\r\n\r\n\r\n    function decideBudget() public\r\n    {\r\n      uint numberOfRepresentativesMemory = numberOfRepresentatives;\r\n      uint[][] memory coalitionBudgets = new uint[][](numberOfRepresentativesMemory);\r\n      uint[] memory coalitionSize = new uint[](numberOfRepresentativesMemory);\r\n      uint[] memory playerToCoalition = new uint[](numberOfRepresentativesMemory);\r\n      MyLib.Agent[] memory playerToAgent = new MyLib.Agent[](numberOfRepresentativesMemory);\r\n      uint i;\r\n      //init\r\n      for (i = 0; i < numberOfRepresentativesMemory; i++)\r\n      {\r\n        playerToAgent[i] = listOfRepresentatives[i];\r\n        coalitionBudgets[i] =  playerToAgent[i].budget;\r\n        coalitionSize[i] = 1;\r\n        playerToCoalition[i] = i;\r\n      }\r\n\r\n      uint player = 0;\r\n      while(winningCoalition(playerToCoalition,numberOfRepresentativesMemory,playerToAgent) == numberOfRepresentativesMemory)\r\n      {\r\n        //get utility in the current coalition\r\n        uint currentUtility = calculateUtility(coalitionBudgets[playerToCoalition[player]],playerToAgent[player].budget,coalitionSize[player]);\r\n        uint[] memory bestOffer = new uint[](2);\r\n        uint bestCoalition = numberOfRepresentativesMemory;\r\n\r\n        for(i = 0; i < numberOfRepresentativesMemory; i ++)\r\n        {\r\n          //dont check coalitions with no one or the one your in\r\n          if(playerToCoalition[player] != i && coalitionSize[i] != 0)\r\n          {\r\n            if(currentUtility +  calculate100Utility(coalitionSize[i]) < calculate100Utility(coalitionSize[i] + playerToAgent[player].weight) + calculateUtility(playerToAgent[player].budget, coalitionBudgets[i], coalitionSize[i] + playerToAgent[player].weight))\r\n            {\r\n              uint[] memory nego = negotiate(calculate100Utility(coalitionSize[i] + playerToAgent[player].weight), calculateUtility(playerToAgent[player].budget, coalitionBudgets[i], coalitionSize[i] + playerToAgent[player].weight),currentUtility, calculate100Utility(coalitionSize[i]));\r\n              if(nego[0] > bestOffer[0])\r\n              {\r\n                bestOffer = nego;\r\n                bestCoalition = i;\r\n              }\r\n            }\r\n\r\n          }\r\n        }\r\n\r\n        if(bestCoalition != numberOfRepresentativesMemory)\r\n        {\r\n          coalitionBudgets[bestCoalition] = negoToBudget(playerToAgent[player].budget, coalitionBudgets[bestCoalition], bestOffer, coalitionSize[bestCoalition] + playerToAgent[player].weight);\r\n          coalitionSize[playerToCoalition[player]] -= playerToAgent[player].weight;\r\n          coalitionSize[bestCoalition] += playerToAgent[player].weight;\r\n          playerToCoalition[player] = bestCoalition;\r\n\r\n        }\r\n\r\n        if(player == numberOfRepresentativesMemory - 1)\r\n        {\r\n          player = 0;\r\n        }\r\n        else{\r\n          player ++;\r\n        }\r\n        coalitionSizeFactor += coalitionSizeFactorIncrease;\r\n\r\n      }\r\n\r\n      finalBudget = coalitionBudgets[winningCoalition(playerToCoalition,numberOfRepresentativesMemory,playerToAgent)];\r\n\r\n    }\r\n\r\n    function winningCoalition(uint[] playerToCoalition, uint numberOfRepresentativesMemory,MyLib.Agent[] playerToAgent ) constant internal returns (uint)\r\n    {\r\n      uint[] memory weights = new uint[](numberOfRepresentativesMemory);\r\n      //add all the weights\r\n      for (uint i = 0; i < numberOfRepresentativesMemory ; i++)\r\n      {\r\n        weights[playerToCoalition[i]] += playerToAgent[i].weight;\r\n      }\r\n      for (i = 0; i < numberOfRepresentativesMemory ; i++)\r\n      {\r\n        if(weights[i] >= quota)\r\n        {\r\n          return i;\r\n        }\r\n      }\r\n      return numberOfRepresentativesMemory;\r\n    }\r\n\r\n    function calculate100Utility(uint coalitionSize) constant internal returns (uint)\r\n    {\r\n      return (uint) ((coalitionSizeFactor * 100) / (quota + 1 - coalitionSize) + ((100-coalitionSizeFactor) * 100));\r\n    }\r\n\r\n    function calculateUtility(uint[] budget1,uint[] budget2, uint coalitionSize) constant internal returns (uint)\r\n    {\r\n\r\n      uint shared = sharedBudget(budget1,budget2);\r\n      return (uint) ((coalitionSizeFactor * shared) / (quota + 1 - coalitionSize) + ((100-coalitionSizeFactor) * shared));\r\n    }\r\n\r\n    function sharedBudget(uint[] budget1,uint[] budget2) constant internal returns (uint)\r\n    {\r\n      uint shared = 0;\r\n      for(uint i = 0; i < budget1.length; i ++)\r\n      {\r\n        if(budget1[i] > budget2[i])\r\n        {\r\n          shared += budget2[i];\r\n        }\r\n        else{\r\n          shared += budget1[i];\r\n        }\r\n      }\r\n      return shared;\r\n    }\r\n    function negotiate(uint a_bar,uint b_bar,uint a_floor,uint b_floor)constant  public returns (uint[])\r\n    {\r\n      uint gasCostMemory = gasCost;\r\n      uint usefulTurn = ((a_bar + b_bar - a_floor - b_floor - 2) / gasCostMemory) + 1;\r\n      uint[] memory proposal = new uint[](2);\r\n\r\n      uint numberOfTurnsMemory = numberOfTurns;\r\n      if(usefulTurn > numberOfTurnsMemory)\r\n      {\r\n        usefulTurn = numberOfTurnsMemory;\r\n\r\n      }\r\n      uint freeUtility = a_bar + b_bar - ((usefulTurn - 1) * gasCostMemory) - a_floor - b_floor - 2;\r\n      if(usefulTurn % 2 == 0)\r\n      {\r\n        proposal[1] = b_floor + 1 + freeUtility + (((usefulTurn/ 2)-1) * gasCostMemory) + 1;\r\n        proposal[0] = a_bar + b_bar -  proposal[1];\r\n      }\r\n      else\r\n      {\r\n        proposal[0] = a_floor + 1 + freeUtility +  ((((usefulTurn + 1)/ 2)-1) * gasCostMemory);\r\n        proposal[1] = a_bar + b_bar -  proposal[0];\r\n      }\r\n      //cant go over the best amount\r\n      if(proposal[0] > a_bar)\r\n      {\r\n        proposal[1] +=  proposal[0] - a_bar;\r\n        proposal[0] = a_bar;\r\n      }\r\n      else if(proposal[1] > a_bar)\r\n      {\r\n        proposal[0] +=  proposal[1] - a_bar;\r\n        proposal[1] = a_bar;\r\n      }\r\n\r\n\r\n      return proposal;\r\n\r\n\r\n\r\n    }\r\n\r\n    function negoToBudget(uint[] budget1, uint [] budget2, uint[] nego, uint coalitionSize) constant public returns (uint[])\r\n    {\r\n      uint[] memory newBudget = new uint[](budget1.length);\r\n\r\n      uint sharedab = sharedBudget(budget1,budget2);\r\n\r\n      uint individuala = (uint) (nego[0] / ((coalitionSizeFactor / (quota + 1 - coalitionSize)) + (100 - coalitionSizeFactor)) - sharedab);\r\n      uint individualb = (uint) (nego[1] / ((coalitionSizeFactor / (quota + 1 - coalitionSize)) + (100 - coalitionSizeFactor))- sharedab);\r\n\r\n\r\n      uint suma = 0;\r\n      uint sumb = 0;\r\n\r\n      for(uint i = 0; i < budget1.length; i ++)\r\n      {\r\n        if(budget1[i] > budget2[i])\r\n        {\r\n          suma += budget1[i];\r\n        }\r\n        else{\r\n          sumb += budget2[i];\r\n        }\r\n      }\r\n\r\n      uint total = 0;\r\n      for(i = 0; i < budget1.length; i ++)\r\n      {\r\n        if(budget1[i] > budget2[i])\r\n        {\r\n          total +=  budget2[i] + individuala * budget1[i] / suma;\r\n          newBudget[i] = budget2[i] + individuala * budget1[i] / suma;\r\n        }\r\n        else{\r\n          total +=  budget1[i] + individualb * budget2[i] / sumb;\r\n          newBudget[i] = budget1[i] + individualb * budget2[i] / sumb;\r\n        }\r\n      }\r\n      uint z = 0;\r\n      while(total < 100)\r\n      {\r\n        newBudget[z] += 1;\r\n        total +=1;\r\n        if(z == budget1.length - 1)\r\n        {\r\n          z = 0;\r\n        }\r\n        else\r\n        {\r\n          z ++;\r\n        }\r\n      }\r\n\r\n\r\n      return newBudget;\r\n    }\r\n\r\n\r\n\r\n    function listRegisteredUsers(uint number) public constant returns (string,address) {\r\n\r\n      return (registeredUser[number].name, registeredUser[number].myAddress);\r\n    }\r\n\r\n    function getRegisteredUsersLength() public constant returns (uint)\r\n    {\r\n      return registeredUser.length;\r\n    }\r\n\r\n    function listCandidates(uint number) public constant returns (string,address) {\r\n\r\n      return (registeredUser[candidates[number]].name, registeredUser[candidates[number]].myAddress);\r\n    }\r\n\r\n    function getCandidatesLength() public constant returns (uint)\r\n    {\r\n      return candidates.length;\r\n    }\r\n\r\n    function listRepresentives(uint number) public constant returns (string,address,uint,uint[]) {\r\n\r\n      return (registeredUser[listOfRepresentatives[number].u].name, registeredUser[listOfRepresentatives[number].u].myAddress, listOfRepresentatives[number].weight,listOfRepresentatives[number].budget);\r\n    }\r\n\r\n    function getRepresentivesLength() public constant returns (uint)\r\n    {\r\n      return listOfRepresentatives.length;\r\n    }\r\n\r\n    function listSinks(uint number) public constant returns (string,address) {\r\n\r\n      return (listOfSinks[number].name, listOfSinks[number].spender);\r\n    }\r\n\r\n    function getSinksLength() public constant returns (uint)\r\n    {\r\n      return listOfSinks.length;\r\n    }\r\n\r\n    function showVotes(uint number) public constant returns(address[])\r\n    {\r\n      return votes[number];\r\n    }\r\n\r\n    function listFinalBudget(uint number) public constant returns(uint)\r\n    {\r\n      return finalBudget[number];\r\n    }\r\n\r\n  }\r\n",
  "sourcePath": "C:\\Users\\JakeL\\Desktop\\MultiAgentSystemsOnTheBlockChain\\contracts\\Club.sol",
  "compiler": {
    "name": "solc",
    "version": "0.4.19+commit.c4cbbb05.Emscripten.clang"
  },
  "schemaVersion": "2.0.0",
  "updatedAt": "2018-04-08T03:27:19.103Z"
}