{
  "contractName": "Club",
  "abi": [
    {
      "constant": true,
      "inputs": [],
      "name": "timeVoteStarted",
      "outputs": [
        {
          "name": "",
          "type": "uint256"
        }
      ],
      "payable": false,
      "stateMutability": "view",
      "type": "function"
    },
    {
      "constant": true,
      "inputs": [],
      "name": "numberOfSinks",
      "outputs": [
        {
          "name": "",
          "type": "uint256"
        }
      ],
      "payable": false,
      "stateMutability": "view",
      "type": "function"
    },
    {
      "constant": true,
      "inputs": [],
      "name": "termLength",
      "outputs": [
        {
          "name": "",
          "type": "uint256"
        }
      ],
      "payable": false,
      "stateMutability": "view",
      "type": "function"
    },
    {
      "constant": true,
      "inputs": [],
      "name": "numberOfRepresentatives",
      "outputs": [
        {
          "name": "",
          "type": "uint256"
        }
      ],
      "payable": false,
      "stateMutability": "view",
      "type": "function"
    },
    {
      "constant": true,
      "inputs": [
        {
          "name": "",
          "type": "address"
        }
      ],
      "name": "voted",
      "outputs": [
        {
          "name": "",
          "type": "bool"
        }
      ],
      "payable": false,
      "stateMutability": "view",
      "type": "function"
    },
    {
      "constant": true,
      "inputs": [
        {
          "name": "",
          "type": "uint256"
        }
      ],
      "name": "secondOrderCopelandUnsorted",
      "outputs": [
        {
          "name": "",
          "type": "uint8"
        }
      ],
      "payable": false,
      "stateMutability": "view",
      "type": "function"
    },
    {
      "constant": true,
      "inputs": [],
      "name": "voteStarted",
      "outputs": [
        {
          "name": "",
          "type": "bool"
        }
      ],
      "payable": false,
      "stateMutability": "view",
      "type": "function"
    },
    {
      "constant": true,
      "inputs": [],
      "name": "registrationCost",
      "outputs": [
        {
          "name": "",
          "type": "uint256"
        }
      ],
      "payable": false,
      "stateMutability": "view",
      "type": "function"
    },
    {
      "constant": true,
      "inputs": [],
      "name": "timeVoteEnded",
      "outputs": [
        {
          "name": "",
          "type": "uint256"
        }
      ],
      "payable": false,
      "stateMutability": "view",
      "type": "function"
    },
    {
      "inputs": [
        {
          "name": "reps",
          "type": "uint256"
        },
        {
          "name": "sinks",
          "type": "uint256"
        },
        {
          "name": "cost",
          "type": "uint256"
        },
        {
          "name": "term",
          "type": "uint256"
        }
      ],
      "payable": false,
      "stateMutability": "nonpayable",
      "type": "constructor"
    },
    {
      "constant": false,
      "inputs": [],
      "name": "startVote",
      "outputs": [],
      "payable": false,
      "stateMutability": "nonpayable",
      "type": "function"
    },
    {
      "constant": false,
      "inputs": [
        {
          "name": "myVote",
          "type": "address[]"
        }
      ],
      "name": "vote",
      "outputs": [],
      "payable": false,
      "stateMutability": "nonpayable",
      "type": "function"
    },
    {
      "constant": false,
      "inputs": [],
      "name": "endVote",
      "outputs": [
        {
          "name": "",
          "type": "bool"
        }
      ],
      "payable": false,
      "stateMutability": "nonpayable",
      "type": "function"
    },
    {
      "constant": false,
      "inputs": [],
      "name": "subsidize",
      "outputs": [],
      "payable": true,
      "stateMutability": "payable",
      "type": "function"
    },
    {
      "constant": true,
      "inputs": [],
      "name": "isRegistered",
      "outputs": [
        {
          "name": "",
          "type": "bool"
        }
      ],
      "payable": false,
      "stateMutability": "view",
      "type": "function"
    },
    {
      "constant": false,
      "inputs": [
        {
          "name": "name",
          "type": "string"
        }
      ],
      "name": "register",
      "outputs": [],
      "payable": true,
      "stateMutability": "payable",
      "type": "function"
    },
    {
      "constant": false,
      "inputs": [],
      "name": "apply",
      "outputs": [],
      "payable": false,
      "stateMutability": "nonpayable",
      "type": "function"
    },
    {
      "constant": false,
      "inputs": [
        {
          "name": "secondOrderCopelandSorted",
          "type": "uint256[]"
        }
      ],
      "name": "weightCandidates",
      "outputs": [],
      "payable": false,
      "stateMutability": "nonpayable",
      "type": "function"
    },
    {
      "constant": false,
      "inputs": [
        {
          "name": "budget",
          "type": "uint256[]"
        }
      ],
      "name": "submitBudget",
      "outputs": [],
      "payable": false,
      "stateMutability": "nonpayable",
      "type": "function"
    },
    {
      "constant": false,
      "inputs": [
        {
          "name": "spender",
          "type": "address"
        },
        {
          "name": "name",
          "type": "string"
        }
      ],
      "name": "submitSink",
      "outputs": [],
      "payable": false,
      "stateMutability": "nonpayable",
      "type": "function"
    },
    {
      "constant": true,
      "inputs": [
        {
          "name": "number",
          "type": "uint256"
        }
      ],
      "name": "listRegisteredUsers",
      "outputs": [
        {
          "name": "",
          "type": "string"
        },
        {
          "name": "",
          "type": "address"
        }
      ],
      "payable": false,
      "stateMutability": "view",
      "type": "function"
    },
    {
      "constant": true,
      "inputs": [],
      "name": "getRegisteredUsersLength",
      "outputs": [
        {
          "name": "",
          "type": "uint256"
        }
      ],
      "payable": false,
      "stateMutability": "view",
      "type": "function"
    },
    {
      "constant": true,
      "inputs": [
        {
          "name": "number",
          "type": "uint256"
        }
      ],
      "name": "listCandidates",
      "outputs": [
        {
          "name": "",
          "type": "string"
        },
        {
          "name": "",
          "type": "address"
        }
      ],
      "payable": false,
      "stateMutability": "view",
      "type": "function"
    },
    {
      "constant": true,
      "inputs": [],
      "name": "getCandidatesLength",
      "outputs": [
        {
          "name": "",
          "type": "uint256"
        }
      ],
      "payable": false,
      "stateMutability": "view",
      "type": "function"
    },
    {
      "constant": true,
      "inputs": [
        {
          "name": "number",
          "type": "uint256"
        }
      ],
      "name": "listRepresentives",
      "outputs": [
        {
          "name": "",
          "type": "string"
        },
        {
          "name": "",
          "type": "address"
        },
        {
          "name": "",
          "type": "uint256"
        },
        {
          "name": "",
          "type": "uint256[]"
        }
      ],
      "payable": false,
      "stateMutability": "view",
      "type": "function"
    },
    {
      "constant": true,
      "inputs": [],
      "name": "getRepresentivesLength",
      "outputs": [
        {
          "name": "",
          "type": "uint256"
        }
      ],
      "payable": false,
      "stateMutability": "view",
      "type": "function"
    },
    {
      "constant": true,
      "inputs": [
        {
          "name": "number",
          "type": "uint256"
        }
      ],
      "name": "listSinks",
      "outputs": [
        {
          "name": "",
          "type": "string"
        },
        {
          "name": "",
          "type": "address"
        }
      ],
      "payable": false,
      "stateMutability": "view",
      "type": "function"
    },
    {
      "constant": true,
      "inputs": [],
      "name": "getSinksLength",
      "outputs": [
        {
          "name": "",
          "type": "uint256"
        }
      ],
      "payable": false,
      "stateMutability": "view",
      "type": "function"
    },
    {
      "constant": true,
      "inputs": [
        {
          "name": "number",
          "type": "uint256"
        }
      ],
      "name": "showVotes",
      "outputs": [
        {
          "name": "",
          "type": "address[]"
        }
      ],
      "payable": false,
      "stateMutability": "view",
      "type": "function"
    },
    {
      "constant": true,
      "inputs": [],
      "name": "showUnsortedCopeland",
      "outputs": [
        {
          "name": "",
          "type": "uint8[]"
        }
      ],
      "payable": false,
      "stateMutability": "view",
      "type": "function"
    }
  ],
  "bytecode": "0x60606040526000600860006101000a81548160ff02191690831515021790555060006009556000600a5534156200003557600080fd5b604051608080620030dd833981016040526200005b906780000000000000009062000097565b836000819055508260018190555081600281905550806003819055505050505062000117565b60006200008f82516200010d565b905092915050565b60008060008060808587031260018114620000b257620000b7565b600080fd5b506000620000c88782880162000081565b9450506020620000db8782880162000081565b9350506040620000ee8782880162000081565b9250506060620001018782880162000081565b91505092959194509250565b6000819050919050565b612fb680620001276000396000f300606060405260043610610175576000357c0100000000000000000000000000000000000000000000000000000000900463ffffffff1680630cf35f441461017a57806313dcd43e146101b1578063161893d0146101d35780631859df65146101fc5780631afad36d14610225578063223668441461024e57806322ca968b146102775780632cd15220146102ae5780634c0a6af0146102d75780635846fc46146102ec5780635e01c10b1461030e5780636687d4fe146103375780636904d2411461036d57806379b18cd11461038f57806390f10ed1146103b8578063ae0689ac146103c2578063aec2ccae146103eb578063af0ab71514610421578063b91e8bef14610458578063b92239461461048e578063c6214bf1146104b7578063d0dc0180146104e0578063d5268b2214610509578063db595b3b14610532578063dc4a7f7f14610547578063dee6472f14610570578063ed00af98146105a9578063ed081329146105d2578063f2c298be146105f4575b600080fd5b341561018557600080fd5b61019a6004610195903690612aa8565b61060b565b6040516101a8929190612cbc565b60405180910390f35b34156101bc57600080fd5b6101d160046101cc903690612949565b61071b565b005b34156101de57600080fd5b6101e66107fa565b6040516101f39190612d3f565b60405180910390f35b341561020757600080fd5b61020f610800565b60405161021c9190612d3f565b60405180910390f35b341561023057600080fd5b61023861080d565b6040516102459190612d3f565b60405180910390f35b341561025957600080fd5b61026161081a565b60405161026e9190612ca1565b60405180910390f35b341561028257600080fd5b6102976004610292903690612aa8565b6108c2565b6040516102a5929190612cbc565b60405180910390f35b34156102b957600080fd5b6102c16109d2565b6040516102ce9190612d3f565b60405180910390f35b34156102e257600080fd5b6102ea6109d8565b005b34156102f757600080fd5b61030c6004610307903690612a02565b610a2a565b005b341561031957600080fd5b610321610c91565b60405161032e9190612c7f565b60405180910390f35b341561034257600080fd5b6103576004610352903690612aa8565b610d15565b6040516103649190612c5d565b60405180910390f35b341561037857600080fd5b61038d6004610388903690612a02565b610dc3565b005b341561039a57600080fd5b6103a2610e91565b6040516103af9190612d3f565b60405180910390f35b6103c0610e97565b005b34156103cd57600080fd5b6103d5610e99565b6040516103e29190612d3f565b60405180910390f35b34156103f657600080fd5b61040b6004610406903690612917565b610e9f565b6040516104189190612ca1565b60405180910390f35b341561042c57600080fd5b610441600461043c903690612aa8565b610ebf565b60405161044f929190612cbc565b60405180910390f35b341561046357600080fd5b6104786004610473903690612aa8565b610fcf565b6040516104859190612d5a565b60405180910390f35b341561049957600080fd5b6104a1611002565b6040516104ae9190612ca1565b60405180910390f35b34156104c257600080fd5b6104ca611069565b6040516104d79190612d3f565b60405180910390f35b34156104eb57600080fd5b6104f3611076565b6040516105009190612ca1565b60405180910390f35b341561051457600080fd5b61051c611089565b6040516105299190612d3f565b60405180910390f35b341561053d57600080fd5b610545611096565b005b341561055257600080fd5b61055a611367565b6040516105679190612d3f565b60405180910390f35b341561057b57600080fd5b610590600461058b903690612aa8565b61136d565b6040516105a09493929190612cec565b60405180910390f35b34156105b457600080fd5b6105bc611525565b6040516105c99190612d3f565b60405180910390f35b34156105dd57600080fd5b6105f260046105ed9036906129af565b61152b565b005b6106096004610604903690612a55565b61164b565b005b610613611f4d565b600060048381548110151561062457fe5b906000526020600020906002020160010160048481548110151561064457fe5b906000526020600020906002020160000160009054906101000a900473ffffffffffffffffffffffffffffffffffffffff16818054600181600116156101000203166002900480601f01602080910402602001604051908101604052809291908181526020018280546001816001161561010002031660029004801561070b5780601f106106e05761010080835404028352916020019161070b565b820191906000526020600020905b8154815290600101906020018083116106ee57829003601f168201915b5050505050915091509150915091565b610723611f61565b81816020018190525082816000019073ffffffffffffffffffffffffffffffffffffffff16908173ffffffffffffffffffffffffffffffffffffffff1681525050600d80548060010182816107789190611f97565b9160005260206000209060020201600083909190915060008201518160000160006101000a81548173ffffffffffffffffffffffffffffffffffffffff021916908373ffffffffffffffffffffffffffffffffffffffff16021790555060208201518160010190805190602001906107f1929190611fc9565b50505050505050565b60095481565b6000600580549050905090565b6000600480549050905090565b600080600090505b6004805490508110156108b9573373ffffffffffffffffffffffffffffffffffffffff1660048281548110151561085557fe5b906000526020600020906002020160000160009054906101000a900473ffffffffffffffffffffffffffffffffffffffff1673ffffffffffffffffffffffffffffffffffffffff1614156108ac57600191506108be565b8080600101915050610822565b600091505b5090565b6108ca611f4d565b60006005838154811015156108db57fe5b90600052602060002090600202016001016005848154811015156108fb57fe5b906000526020600020906002020160000160009054906101000a900473ffffffffffffffffffffffffffffffffffffffff16818054600181600116156101000203166002900480601f0160208091040260200160405190810160405280929190818152602001828054600181600116156101000203166002900480156109c25780601f10610997576101008083540402835291602001916109c2565b820191906000526020600020905b8154815290600101906020018083116109a557829003601f168201915b5050505050915091509150915091565b60015481565b42600354600a5401108015610a00575060001515600860009054906101000a900460ff161515145b15610a28576001600860006101000a81548160ff021916908315150217905550426009819055505b565b6000610a34612049565b610a3d83611896565b15610c8c57600091505b600054821015610c6b5760058383815181101515610a6157fe5b90602001906020020151815481101515610a7757fe5b90600052602060002090600202016040805190810160405290816000820160009054906101000a900473ffffffffffffffffffffffffffffffffffffffff1673ffffffffffffffffffffffffffffffffffffffff1673ffffffffffffffffffffffffffffffffffffffff168152602001600182018054600181600116156101000203166002900480601f016020809104026020016040519081016040528092919081815260200182805460018160011615610100020316600290048015610b7f5780601f10610b5457610100808354040283529160200191610b7f565b820191906000526020600020905b815481529060010190602001808311610b6257829003601f168201915b50505050508152505081600001819052506001816040018181525050600c8054806001018281610baf9190612077565b9160005260206000209060040201600083909190915060008201518160000160008201518160000160006101000a81548173ffffffffffffffffffffffffffffffffffffffff021916908373ffffffffffffffffffffffffffffffffffffffff1602179055506020820151816001019080519060200190610c31929190611fc9565b5050506020820151816002019080519060200190610c509291906120a9565b50604082015181600301555050508180600101925050610a47565b6000600b81610c7a91906120f6565b506000600581610c8a9190612130565b505b505050565b610c99612162565b600b805480602002602001604051908101604052809291908181526020018280548015610d0b57602002820191906000526020600020906000905b82829054906101000a900460ff1660ff1681526020019060010190602082600001049283019260010382029150808411610cd45790505b5050505050905090565b610d1d612176565b600682815481101515610d2c57fe5b9060005260206000209001805480602002602001604051908101604052809291908181526020018280548015610db757602002820191906000526020600020905b8160009054906101000a900473ffffffffffffffffffffffffffffffffffffffff1673ffffffffffffffffffffffffffffffffffffffff1681526020019060010190808311610d6d575b50505050509050919050565b60008090505b600054811015610e8d573373ffffffffffffffffffffffffffffffffffffffff16600c82815481101515610df957fe5b906000526020600020906004020160000160000160009054906101000a900473ffffffffffffffffffffffffffffffffffffffff1673ffffffffffffffffffffffffffffffffffffffff161415610e805781600c82815481101515610e5a57fe5b90600052602060002090600402016002019080519060200190610e7e92919061218a565b505b8080600101915050610dc9565b5050565b60035481565b565b60005481565b60076020528060005260406000206000915054906101000a900460ff1681565b610ec7611f4d565b6000600d83815481101515610ed857fe5b9060005260206000209060020201600101600d84815481101515610ef857fe5b906000526020600020906002020160000160009054906101000a900473ffffffffffffffffffffffffffffffffffffffff16818054600181600116156101000203166002900480601f016020809104026020016040519081016040528092919081815260200182805460018160011615610100020316600290048015610fbf5780601f10610f9457610100808354040283529160200191610fbf565b820191906000526020600020905b815481529060010190602001808311610fa257829003601f168201915b5050505050915091509150915091565b600b81815481101515610fde57fe5b9060005260206000209060209182820401919006915054906101000a900460ff1681565b60004260095411158015611029575060011515600860009054906101000a900460ff161515145b15611061576000600860006101000a81548160ff02191690831515021790555042600a8190555061105861196b565b60019050611066565b600090505b90565b6000600d80549050905090565b600860009054906101000a900460ff1681565b6000600c80549050905090565b60006111f1336005805480602002602001604051908101604052809291908181526020016000905b828210156111e857838290600052602060002090600202016040805190810160405290816000820160009054906101000a900473ffffffffffffffffffffffffffffffffffffffff1673ffffffffffffffffffffffffffffffffffffffff1673ffffffffffffffffffffffffffffffffffffffff168152602001600182018054600181600116156101000203166002900480601f0160208091040260200160405190810160405280929190818152602001828054600181600116156101000203166002900480156111d05780601f106111a5576101008083540402835291602001916111d0565b820191906000526020600020905b8154815290600101906020018083116111b357829003601f168201915b505050505081525050815260200190600101906110be565b50505050611bf1565b151561136457600090505b600480549050811015611363573373ffffffffffffffffffffffffffffffffffffffff1660048281548110151561122f57fe5b906000526020600020906002020160000160009054906101000a900473ffffffffffffffffffffffffffffffffffffffff1673ffffffffffffffffffffffffffffffffffffffff161415611356576005805480600101828161129191906121d7565b916000526020600020906002020160006004848154811015156112b057fe5b906000526020600020906002020190919091506000820160009054906101000a900473ffffffffffffffffffffffffffffffffffffffff168160000160006101000a81548173ffffffffffffffffffffffffffffffffffffffff021916908373ffffffffffffffffffffffffffffffffffffffff16021790555060018201816001019080546001816001161561010002031660029004611351929190612209565b505050505b80806001019150506111fc565b5b50565b60025481565b611375611f4d565b600080611380612290565b600c8581548110151561138f57fe5b9060005260206000209060040201600001600101600c868154811015156113b257fe5b906000526020600020906004020160000160000160009054906101000a900473ffffffffffffffffffffffffffffffffffffffff16600c878154811015156113f657fe5b906000526020600020906004020160030154600c8881548110151561141757fe5b9060005260206000209060040201600201838054600181600116156101000203166002900480601f0160208091040260200160405190810160405280929190818152602001828054600181600116156101000203166002900480156114bd5780601f10611492576101008083540402835291602001916114bd565b820191906000526020600020905b8154815290600101906020018083116114a057829003601f168201915b505050505093508080548060200260200160405190810160405280929190818152602001828054801561150f57602002820191906000526020600020905b8154815260200190600101908083116114fb575b5050505050905093509350935093509193509193565b600a5481565b61153361081a565b8015611552575060011515600860009054906101000a900460ff161515145b80156115ae575060001515600760003373ffffffffffffffffffffffffffffffffffffffff1673ffffffffffffffffffffffffffffffffffffffff16815260200190815260200160002060009054906101000a900460ff161515145b15611648576001600760003373ffffffffffffffffffffffffffffffffffffffff1673ffffffffffffffffffffffffffffffffffffffff16815260200190815260200160002060006101000a81548160ff0219169083151502179055506006805480600101828161161f91906122a4565b9160005260206000209001600083909190915090805190602001906116459291906122d0565b50505b50565b61165361235a565b600254341180156117ba57506117b8336004805480602002602001604051908101604052809291908181526020016000905b828210156117af57838290600052602060002090600202016040805190810160405290816000820160009054906101000a900473ffffffffffffffffffffffffffffffffffffffff1673ffffffffffffffffffffffffffffffffffffffff1673ffffffffffffffffffffffffffffffffffffffff168152602001600182018054600181600116156101000203166002900480601f0160208091040260200160405190810160405280929190818152602001828054600181600116156101000203166002900480156117975780601f1061176c57610100808354040283529160200191611797565b820191906000526020600020905b81548152906001019060200180831161177a57829003601f168201915b50505050508152505081526020019060010190611685565b50505050611bf1565b155b156118925733816000019073ffffffffffffffffffffffffffffffffffffffff16908173ffffffffffffffffffffffffffffffffffffffff16815250508181602001819052506004805480600101828161181491906121d7565b9160005260206000209060020201600083909190915060008201518160000160006101000a81548173ffffffffffffffffffffffffffffffffffffffff021916908373ffffffffffffffffffffffffffffffffffffffff160217905550602082015181600101908051906020019061188d929190611fc9565b505050505b5050565b6000806000600b8460008151811015156118ac57fe5b906020019060200201518154811015156118c257fe5b90600052602060002090602091828204019190069054906101000a900460ff1660ff169150600190505b600b8054905081101561195f57600b848281518110151561190957fe5b9060200190602002015181548110151561191f57fe5b90600052602060002090602091828204019190069054906101000a900460ff1660ff168210156119525760009250611964565b80806001019150506118ec565b600192505b5050919050565b600080611976612162565b6000611980612162565b6005805490506040518059106119935750595b90808252806020026020018201604052509250600094505b600160058054905003851015611ad4578460010193505b600580549050841015611ac7576119d98585611c73565b91506000821415611a4c57600e60008681526020019081526020016000208054806001018281611a099190612390565b9160005260206000209001600086909190915055508285815181101515611a2c57fe5b906020019060200201805180919060010160ff1660ff1681525050611aba565b6001821415611ab957600e60008581526020019081526020016000208054806001018281611a7a9190612390565b9160005260206000209001600087909190915055508284815181101515611a9d57fe5b906020019060200201805180919060010160ff1660ff16815250505b5b83806001019450506119c2565b84806001019550506119ab565b600580549050604051805910611ae75750595b90808252806020026020018201604052509050600094505b8251851015611bd357600093505b600e600086815260200190815260200160002080549050841015611ba55782600e600087815260200190815260200160002085815481101515611b4c57fe5b906000526020600020900154815181101515611b6457fe5b906020019060200201518186815181101515611b7c57fe5b9060200190602002018181510191509060ff16908160ff16815250508380600101945050611b0d565b6000600e600087815260200190815260200160002081611bc591906123bc565b508480600101955050611aff565b80600b9080519060200190611be99291906123e8565b505050505050565b600080600090505b8251811015611c67578373ffffffffffffffffffffffffffffffffffffffff168382815181101515611c2757fe5b906020019060200201516000015173ffffffffffffffffffffffffffffffffffffffff161415611c5a5760019150611c6c565b8080600101915050611bf9565b600091505b5092915050565b600080600080600080600080955060009450600093505b600680549050841015611f1a576002600680549050811515611ca857fe5b0486108015611cc757506002600680549050811515611cc357fe5b0485105b15611f0857600684815481101515611cdb57fe5b9060005260206000209001805490509250600684815481101515611cfb57fe5b9060005260206000209001805490509150600090505b600684815481101515611d2057fe5b906000526020600020900180549050811015611edc57600589815481101515611d4557fe5b906000526020600020906002020160000160009054906101000a900473ffffffffffffffffffffffffffffffffffffffff1673ffffffffffffffffffffffffffffffffffffffff16600685815481101515611d9c57fe5b906000526020600020900182815481101515611db457fe5b906000526020600020900160009054906101000a900473ffffffffffffffffffffffffffffffffffffffff1673ffffffffffffffffffffffffffffffffffffffff161415611e0457809250611ecf565b600588815481101515611e1357fe5b906000526020600020906002020160000160009054906101000a900473ffffffffffffffffffffffffffffffffffffffff1673ffffffffffffffffffffffffffffffffffffffff16600685815481101515611e6a57fe5b906000526020600020900182815481101515611e8257fe5b906000526020600020900160009054906101000a900473ffffffffffffffffffffffffffffffffffffffff1673ffffffffffffffffffffffffffffffffffffffff161415611ece578091505b5b8080600101915050611d11565b81831015611ef1578580600101965050611f03565b82821115611f025784806001019550505b5b611f0d565b611f1a565b8380600101945050611c8a565b84861115611f2b5760009650611f41565b85851115611f3c5760019650611f41565b600296505b50505050505092915050565b602060405190810160405280600081525090565b6040805190810160405280600073ffffffffffffffffffffffffffffffffffffffff168152602001611f9161248f565b81525090565b815481835581811511611fc457600202816002028360005260206000209182019101611fc391906124a3565b5b505050565b828054600181600116156101000203166002900490600052602060002090601f016020900481019282601f1061200a57805160ff1916838001178555612038565b82800160010185558215612038579182015b8281111561203757825182559160200191906001019061201c565b5b50905061204591906124f9565b5090565b60806040519081016040528061205d61251e565b815260200161206a612554565b8152602001600081525090565b8154818355818115116120a4576004028160040283600052602060002091820191016120a39190612568565b5b505050565b8280548282559060005260206000209081019282156120e5579160200282015b828111156120e45782518255916020019190600101906120c9565b5b5090506120f291906124f9565b5090565b81548183558181151161212b57601f016020900481601f0160209004836000526020600020918201910161212a91906124f9565b5b505050565b81548183558181151161215d5760020281600202836000526020600020918201910161215c91906125dd565b5b505050565b602060405190810160405280600081525090565b602060405190810160405280600081525090565b8280548282559060005260206000209081019282156121c6579160200282015b828111156121c55782518255916020019190600101906121aa565b5b5090506121d391906124f9565b5090565b8154818355818115116122045760020281600202836000526020600020918201910161220391906125dd565b5b505050565b828054600181600116156101000203166002900490600052602060002090601f016020900481019282601f10612242578054855561227f565b8280016001018555821561227f57600052602060002091601f016020900482015b8281111561227e578254825591600101919060010190612263565b5b50905061228c91906124f9565b5090565b602060405190810160405280600081525090565b8154818355818115116122cb578183600052602060002091820191016122ca9190612633565b5b505050565b828054828255906000526020600020908101928215612349579160200282015b828111156123485782518260006101000a81548173ffffffffffffffffffffffffffffffffffffffff021916908373ffffffffffffffffffffffffffffffffffffffff160217905550916020019190600101906122f0565b5b509050612356919061265f565b5090565b6040805190810160405280600073ffffffffffffffffffffffffffffffffffffffff16815260200161238a61248f565b81525090565b8154818355818115116123b7578183600052602060002091820191016123b691906124f9565b5b505050565b8154818355818115116123e3578183600052602060002091820191016123e291906124f9565b5b505050565b82805482825590600052602060002090601f0160209004810192821561247e5791602002820160005b8382111561244f57835183826101000a81548160ff021916908360ff1602179055509260200192600101602081600001049283019260010302612411565b801561247c5782816101000a81549060ff021916905560010160208160000104928301926001030261244f565b505b50905061248b91906126a2565b5090565b602060405190810160405280600081525090565b6124f691905b808211156124f257600080820160006101000a81549073ffffffffffffffffffffffffffffffffffffffff02191690556001820160006124e991906126d2565b506002016124a9565b5090565b90565b61251b91905b808211156125175760008160009055506001016124ff565b5090565b90565b6040805190810160405280600073ffffffffffffffffffffffffffffffffffffffff16815260200161254e61248f565b81525090565b602060405190810160405280600081525090565b6125da91905b808211156125d6576000808201600080820160006101000a81549073ffffffffffffffffffffffffffffffffffffffff02191690556001820160006125b391906126d2565b50506002820160006125c5919061271a565b60038201600090555060040161256e565b5090565b90565b61263091905b8082111561262c57600080820160006101000a81549073ffffffffffffffffffffffffffffffffffffffff021916905560018201600061262391906126d2565b506002016125e3565b5090565b90565b61265c91905b80821115612658576000818161264f919061273b565b50600101612639565b5090565b90565b61269f91905b8082111561269b57600081816101000a81549073ffffffffffffffffffffffffffffffffffffffff021916905550600101612665565b5090565b90565b6126cf91905b808211156126cb57600081816101000a81549060ff0219169055506001016126a8565b5090565b90565b50805460018160011615610100020316600290046000825580601f106126f85750612717565b601f01602090049060005260206000209081019061271691906124f9565b5b50565b508054600082559060005260206000209081019061273891906124f9565b50565b508054600082559060005260206000209081019061275991906124f9565b50565b60006127688235612eff565b905092915050565b600082601f830112600081146127855761278a565b600080fd5b50813561279e61279982612dab565b612d75565b915081818352602084019350602081019050838560208402820111600181146127c6576127cb565b600080fd5b5060005b838110156127fc57816127e2888261275c565b8452602084019350602083019250506001810190506127cf565b5050505092915050565b600082601f8301126000811461281b57612820565b600080fd5b50813561283461282f82612ddc565b612d75565b9150818183526020840193506020810190508385602084028201116001811461285c57612861565b600080fd5b5060005b8381101561289257816128788882612903565b845260208401935060208301925050600181019050612865565b5050505092915050565b600082601f830112600081146128b1576128b6565b600080fd5b5081356128ca6128c582612e0d565b612d75565b915080825260208301602083018583830111600181146128e9576128ee565b600080fd5b506128fa838284612f29565b50505092915050565b600061290f8235612f1f565b905092915050565b60006020828403126001811461292c57612931565b600080fd5b5060006129408482850161275c565b91505092915050565b6000806040838503126001811461295f57612964565b600080fd5b5060006129738582860161275c565b925050602083013567ffffffffffffffff81116001811461299357612998565b600080fd5b506129a58582860161289c565b9150509250929050565b6000602082840312600181146129c4576129c9565b600080fd5b50600082013567ffffffffffffffff8111600181146129e7576129ec565b600080fd5b506129f984828501612770565b91505092915050565b600060208284031260018114612a1757612a1c565b600080fd5b50600082013567ffffffffffffffff811160018114612a3a57612a3f565b600080fd5b50612a4c84828501612806565b91505092915050565b600060208284031260018114612a6a57612a6f565b600080fd5b50600082013567ffffffffffffffff811160018114612a8d57612a92565b600080fd5b50612a9f8482850161289c565b91505092915050565b600060208284031260018114612abd57612ac2565b600080fd5b506000612ad184828501612903565b91505092915050565b612ae381612ebc565b82525050565b6000612af482612e69565b808452602084019350612b0683612e42565b60005b82811015612b3857612b1c868351612ada565b612b2582612e95565b9150602086019550600181019050612b09565b50849250505092915050565b6000612b4f82612e74565b808452602084019350612b6183612e4f565b60005b82811015612b9357612b77868351612c3f565b612b8082612ea2565b9150602086019550600181019050612b64565b50849250505092915050565b6000612baa82612e7f565b808452602084019350612bbc83612e5c565b60005b82811015612bee57612bd2868351612c4e565b612bdb82612eaf565b9150602086019550600181019050612bbf565b50849250505092915050565b612c0381612edc565b82525050565b6000612c1482612e8a565b808452612c28816020860160208601612f38565b612c3181612f6b565b602085010191505092915050565b612c4881612ee8565b82525050565b612c5781612ef2565b82525050565b60006020820190508181036000830152612c778184612ae9565b905092915050565b60006020820190508181036000830152612c998184612b9f565b905092915050565b6000602082019050612cb66000830184612bfa565b92915050565b60006040820190508181036000830152612cd68185612c09565b9050612ce56020830184612ada565b9392505050565b60006080820190508181036000830152612d068187612c09565b9050612d156020830186612ada565b612d226040830185612c3f565b8181036060830152612d348184612b44565b905095945050505050565b6000602082019050612d546000830184612c3f565b92915050565b6000602082019050612d6f6000830184612c4e565b92915050565b6000604051905081810181811067ffffffffffffffff82111760018114612d9b57612da0565b600080fd5b508060405250919050565b600067ffffffffffffffff821160018114612dc557612dca565b600080fd5b50602082029050602081019050919050565b600067ffffffffffffffff821160018114612df657612dfb565b600080fd5b50602082029050602081019050919050565b600067ffffffffffffffff821160018114612e2757612e2c565b600080fd5b50601f19601f8301169050602081019050919050565b6000602082019050919050565b6000602082019050919050565b6000602082019050919050565b600081519050919050565b600081519050919050565b600081519050919050565b600081519050919050565b6000602082019050919050565b6000602082019050919050565b6000602082019050919050565b600073ffffffffffffffffffffffffffffffffffffffff82169050919050565b60008115159050919050565b6000819050919050565b600060ff82169050919050565b600073ffffffffffffffffffffffffffffffffffffffff82169050919050565b6000819050919050565b82818337600083830152505050565b60005b83811015612f56578082015181840152602081019050612f3b565b83811115612f65576000848401525b50505050565b6000601f19601f83011690509190505600a265627a7a72305820fb88f5c6fb2e282e283649ae28ea3dc80295be661e8ca032ae4d17ec07f72bda6c6578706572696d656e74616cf50037",
  "source": "pragma solidity ^0.4.19;\r\npragma experimental ABIEncoderV2;\r\nimport \"./MyLib.sol\";\r\n\r\ncontract Club {\r\n\r\n  uint public numberOfRepresentatives;\r\n  uint public numberOfSinks;\r\n  uint public registrationCost;\r\n  uint public termLength;\r\n  MyLib.User[] registeredUser;\r\n  MyLib.User[] candidates;\r\n  address[][] votes;\r\n  mapping (address => bool) public voted;\r\n  bool public voteStarted = false;\r\n  uint public timeVoteStarted =0;\r\n  uint public timeVoteEnded =0;\r\n  uint8[] public secondOrderCopelandUnsorted;\r\n  MyLib.Agent[] listOfRepresentatives;\r\n  MyLib.Sink[] listOfSinks;\r\n\r\n  //this should be memory but i have to store it here for some reason\r\n  mapping (uint => uint[]) defeated;\r\n\r\n  function Club(uint reps, uint sinks, uint cost, uint term) public {\r\n    numberOfRepresentatives = reps;\r\n    numberOfSinks = sinks;\r\n    registrationCost = cost;\r\n    termLength = term;\r\n  }\r\n\r\n\r\n  function startVote() public {\r\n    if(timeVoteEnded + termLength < block.timestamp && voteStarted == false)\r\n    {\r\n      voteStarted = true;\r\n      timeVoteStarted = block.timestamp;\r\n    }\r\n  }\r\n\r\n  function vote(address[] myVote) public {\r\n    if(isRegistered() && voteStarted == true && voted[msg.sender] == false){\r\n      voted[msg.sender] = true;\r\n      votes.push(myVote);\r\n\r\n    }\r\n  }\r\n  function endVote() public returns (bool)\r\n  {\r\n    if(timeVoteStarted <= block.timestamp && voteStarted == true)\r\n    {\r\n      voteStarted = false;\r\n      timeVoteEnded = block.timestamp;\r\n      countVotes();\r\n      return true;\r\n    }\r\n    else{\r\n      return false;\r\n    }\r\n  }\r\n  //second order copeland\r\n  function countVotes() internal {\r\n    //stack was full\r\n    uint i;\r\n    uint p;\r\n    uint8[] memory copelandScore = new uint8[](candidates.length);\r\n\r\n    //pairwise each candidate against each other\r\n    for (i = 0; i < candidates.length - 1; i++)\r\n    {\r\n      for (p = 1 + i; p < candidates.length; p++)\r\n      {\r\n          uint pairwise = pairwiseComparison(i,p);\r\n          if(pairwise == 0)\r\n          {\r\n            defeated[i].push(p);\r\n            copelandScore[i] ++;\r\n          }\r\n          else if (pairwise == 1) {\r\n            defeated[p].push(i);\r\n            copelandScore[p] ++;\r\n          }\r\n      }\r\n    }\r\n    //add up the copeland scores of defeated users\r\n    uint8[] memory secondOrderCopeland = new uint8[](candidates.length);\r\n    for(i =0; i < copelandScore.length; i++)\r\n    {\r\n      for(p = 0; p < defeated[i].length; p++)\r\n      {\r\n        secondOrderCopeland[i] += copelandScore[defeated[i][p]];\r\n      }\r\n      //remove all from defeated\r\n      defeated[i].length = 0;\r\n\r\n    }\r\n    secondOrderCopelandUnsorted = secondOrderCopeland;\r\n}\r\n  function pairwiseComparison(uint i, uint p) internal constant returns (uint)\r\n  {\r\n    uint scorei = 0;\r\n    uint scorep = 0;\r\n    for(uint z =0; z < votes.length; z ++)\r\n    {\r\n      if (scorei < votes.length / 2 && scorep < votes.length /2)\r\n      {\r\n        //if not seen its the highest\r\n        uint ilocation = votes[z].length;\r\n        uint plocation = votes[z].length;\r\n        for(uint j =0; j < votes[z].length; j ++)\r\n        {\r\n\r\n          if(votes[z][j] == candidates[i].myAddress )\r\n          {\r\n            ilocation = j;\r\n          }\r\n          else if(votes[z][j] == candidates[p].myAddress )\r\n          {\r\n            plocation = j;\r\n          }\r\n        }\r\n        if(ilocation < plocation)\r\n        {\r\n          scorei ++;\r\n        }\r\n        else if(plocation > ilocation)\r\n        {\r\n          scorep ++;\r\n        }\r\n      }\r\n      else{\r\n        //if majority for one candidate no need to continue\r\n        break;\r\n      }\r\n    }\r\n    if(scorei > scorep)\r\n    {\r\n      return 0;\r\n    }\r\n    else if (scorep > scorei) {\r\n      return 1;\r\n    }\r\n    else\r\n    {\r\n      return 2;\r\n    }\r\n  }\r\n\r\n  function subsidize() public payable {}\r\n\r\n    function isRegistered() public constant returns (bool) {\r\n      for (uint i = 0; i < registeredUser.length; i++) {\r\n        if(registeredUser[i].myAddress == msg.sender)\r\n        {\r\n          return true;\r\n        }\r\n      }\r\n      return false;\r\n    }\r\n\r\n\r\n    function register(string name) public payable {\r\n      if (msg.value > registrationCost && (!addressUsed(msg.sender,registeredUser)) ) {\r\n        MyLib.User memory u;\r\n        u.myAddress = msg.sender;\r\n        u.name = name;\r\n        registeredUser.push(u);\r\n      }\r\n    }\r\n    //saves gass as dont have to look at candidates with no votes\r\n    function apply() public {\r\n      if(!addressUsed(msg.sender,candidates))\r\n      {\r\n        for (uint i = 0; i < registeredUser.length; i++)\r\n        {\r\n          if(registeredUser[i].myAddress == msg.sender)\r\n          {\r\n            candidates.push(registeredUser[i]);\r\n          }\r\n        }\r\n      }\r\n    }\r\n\r\n    function addressUsed(address sample, MyLib.User[] userList) internal pure returns (bool)\r\n    {\r\n      for (uint i = 0; i < userList.length; i++)\r\n      {\r\n        if(userList[i].myAddress == sample)\r\n        {\r\n          return true;\r\n        }\r\n      }\r\n      return false;\r\n    }\r\n\r\n    function sortedCopeland(uint[] secondOrderCopelandSorted) internal constant returns(bool)\r\n    {\r\n      uint lastSeen = secondOrderCopelandUnsorted[secondOrderCopelandSorted[0]];\r\n      for (uint i = 1; i < secondOrderCopelandUnsorted.length; i++)\r\n      {\r\n        if(lastSeen < secondOrderCopelandUnsorted[secondOrderCopelandSorted[i]])\r\n        {\r\n          return false;\r\n        }\r\n      }\r\n      return true;\r\n    }\r\n\r\n    function weightCandidates(uint[] secondOrderCopelandSorted) public\r\n    {\r\n\r\n      if(sortedCopeland(secondOrderCopelandSorted))\r\n      {\r\n        for (uint i = 0; i < numberOfRepresentatives; i++)\r\n        {\r\n          MyLib.Agent memory a;\r\n          a.u = candidates[secondOrderCopelandSorted[i]];\r\n          a.weight = 1;\r\n          listOfRepresentatives.push(a);\r\n        }\r\n        secondOrderCopelandUnsorted.length = 0;\r\n        candidates.length = 0;\r\n      }\r\n    }\r\n\r\n    function submitBudget(uint[] budget) public\r\n    {\r\n      for (uint i = 0; i < numberOfRepresentatives; i++)\r\n      {\r\n        if(listOfRepresentatives[i].u.myAddress == msg.sender)\r\n        {\r\n          listOfRepresentatives[i].budget = budget;\r\n        }\r\n      }\r\n    }\r\n    //who should be able to do this\r\n    function submitSink(address spender, string name) public\r\n    {\r\n      MyLib.Sink memory s;\r\n      s.name = name;\r\n      s.spender = spender;\r\n      listOfSinks.push(s);\r\n\r\n    }\r\n\r\n    function listRegisteredUsers(uint number) public constant returns (string,address) {\r\n\r\n      return (registeredUser[number].name, registeredUser[number].myAddress);\r\n    }\r\n\r\n    function getRegisteredUsersLength() public constant returns (uint)\r\n    {\r\n      return registeredUser.length;\r\n    }\r\n\r\n    function listCandidates(uint number) public constant returns (string,address) {\r\n\r\n      return (candidates[number].name, candidates[number].myAddress);\r\n    }\r\n\r\n    function getCandidatesLength() public constant returns (uint)\r\n    {\r\n      return candidates.length;\r\n    }\r\n\r\n    function listRepresentives(uint number) public constant returns (string,address,uint,uint[]) {\r\n\r\n      return (listOfRepresentatives[number].u.name, listOfRepresentatives[number].u.myAddress, listOfRepresentatives[number].weight,listOfRepresentatives[number].budget);\r\n    }\r\n\r\n    function getRepresentivesLength() public constant returns (uint)\r\n    {\r\n      return listOfRepresentatives.length;\r\n    }\r\n\r\n    function listSinks(uint number) public constant returns (string,address) {\r\n\r\n      return (listOfSinks[number].name, listOfSinks[number].spender);\r\n    }\r\n\r\n    function getSinksLength() public constant returns (uint)\r\n    {\r\n      return listOfSinks.length;\r\n    }\r\n\r\n    function showVotes(uint number) public constant returns(address[])\r\n    {\r\n      return votes[number];\r\n    }\r\n\r\n\r\n    function showUnsortedCopeland() public constant returns(uint8[])\r\n    {\r\n      return secondOrderCopelandUnsorted;\r\n    }\r\n\r\n\r\n\r\n\r\n\r\n\r\n\r\n\r\n\r\n  }\r\n",
  "sourcePath": "C:\\Users\\JakeL\\Desktop\\Club System\\contracts\\Club.sol",
  "compiler": {
    "name": "solc",
    "version": "0.4.19+commit.c4cbbb05.Emscripten.clang"
  },
  "schemaVersion": "2.0.0",
  "updatedAt": "2018-04-03T18:45:42.968Z"
}