{
  "contractName": "Club",
  "abi": [
    {
      "constant": true,
      "inputs": [],
      "name": "isRegistered",
      "outputs": [
        {
          "name": "",
          "type": "bool"
        }
      ],
      "payable": false,
      "stateMutability": "view",
      "type": "function"
    },
    {
      "constant": true,
      "inputs": [],
      "name": "numberOfSinks",
      "outputs": [
        {
          "name": "",
          "type": "uint256"
        }
      ],
      "payable": false,
      "stateMutability": "view",
      "type": "function"
    },
    {
      "constant": true,
      "inputs": [],
      "name": "seeContractBalance",
      "outputs": [
        {
          "name": "",
          "type": "uint256"
        }
      ],
      "payable": false,
      "stateMutability": "view",
      "type": "function"
    },
    {
      "constant": false,
      "inputs": [
        {
          "name": "myVote",
          "type": "address"
        }
      ],
      "name": "vote",
      "outputs": [],
      "payable": false,
      "stateMutability": "nonpayable",
      "type": "function"
    },
    {
      "constant": true,
      "inputs": [],
      "name": "termLength",
      "outputs": [
        {
          "name": "",
          "type": "uint256"
        }
      ],
      "payable": false,
      "stateMutability": "view",
      "type": "function"
    },
    {
      "constant": false,
      "inputs": [],
      "name": "subsidize",
      "outputs": [
        {
          "name": "",
          "type": "uint256"
        }
      ],
      "payable": true,
      "stateMutability": "payable",
      "type": "function"
    },
    {
      "constant": true,
      "inputs": [],
      "name": "listRegisteredUsers",
      "outputs": [
        {
          "name": "",
          "type": "string"
        }
      ],
      "payable": false,
      "stateMutability": "view",
      "type": "function"
    },
    {
      "constant": true,
      "inputs": [],
      "name": "numberOfRepresentatives",
      "outputs": [
        {
          "name": "",
          "type": "uint256"
        }
      ],
      "payable": false,
      "stateMutability": "view",
      "type": "function"
    },
    {
      "constant": true,
      "inputs": [],
      "name": "registrationCost",
      "outputs": [
        {
          "name": "",
          "type": "uint256"
        }
      ],
      "payable": false,
      "stateMutability": "view",
      "type": "function"
    },
    {
      "constant": true,
      "inputs": [
        {
          "name": "a",
          "type": "address"
        }
      ],
      "name": "useVote",
      "outputs": [
        {
          "name": "",
          "type": "uint256"
        }
      ],
      "payable": false,
      "stateMutability": "view",
      "type": "function"
    },
    {
      "constant": false,
      "inputs": [
        {
          "name": "name",
          "type": "string"
        }
      ],
      "name": "register",
      "outputs": [],
      "payable": true,
      "stateMutability": "payable",
      "type": "function"
    },
    {
      "inputs": [
        {
          "name": "reps",
          "type": "uint256"
        },
        {
          "name": "sinks",
          "type": "uint256"
        },
        {
          "name": "cost",
          "type": "uint256"
        },
        {
          "name": "term",
          "type": "uint256"
        }
      ],
      "payable": false,
      "stateMutability": "nonpayable",
      "type": "constructor"
    }
  ],
  "bytecode": "0x6060604052341561000f57600080fd5b6040516080806109468339810160405280805190602001909190805190602001909190805190602001909190805190602001909190505083600181905550826002819055508160038190555080600481905550505050506108d1806100756000396000f3006060604052600436106100af576000357c0100000000000000000000000000000000000000000000000000000000900463ffffffff16806322366844146100b45780632cd15220146100e15780632cf08ffe1461010a5780636dd7d8ea1461013357806379b18cd11461016c57806390f10ed114610195578063a4b427c41461019f578063ae0689ac1461022d578063dc4a7f7f14610256578063e19a4f491461027f578063f2c298be146102cc575b600080fd5b34156100bf57600080fd5b6100c761031e565b604051808215151515815260200191505060405180910390f35b34156100ec57600080fd5b6100f46103c6565b6040518082815260200191505060405180910390f35b341561011557600080fd5b61011d6103cc565b6040518082815260200191505060405180910390f35b341561013e57600080fd5b61016a600480803573ffffffffffffffffffffffffffffffffffffffff169060200190919050506103eb565b005b341561017757600080fd5b61017f61047a565b6040518082815260200191505060405180910390f35b61019d610480565b005b34156101aa57600080fd5b6101b2610482565b6040518080602001828103825283818151815260200191508051906020019080838360005b838110156101f25780820151818401526020810190506101d7565b50505050905090810190601f16801561021f5780820380516001836020036101000a031916815260200191505b509250505060405180910390f35b341561023857600080fd5b610240610548565b6040518082815260200191505060405180910390f35b341561026157600080fd5b61026961054e565b6040518082815260200191505060405180910390f35b341561028a57600080fd5b6102b6600480803573ffffffffffffffffffffffffffffffffffffffff16906020019091905050610554565b6040518082815260200191505060405180910390f35b61031c600480803590602001908201803590602001908080601f016020809104026020016040519081016040528093929190818152602001838380828437820191505050505050919050506105e9565b005b600080600090505b6000805490508110156103bd573373ffffffffffffffffffffffffffffffffffffffff1660008281548110151561035957fe5b906000526020600020906002020160000160009054906101000a900473ffffffffffffffffffffffffffffffffffffffff1673ffffffffffffffffffffffffffffffffffffffff1614156103b057600191506103c2565b8080600101915050610326565b600091505b5090565b60025481565b60003073ffffffffffffffffffffffffffffffffffffffff1631905090565b6103f361031e565b156104775780600560003373ffffffffffffffffffffffffffffffffffffffff1673ffffffffffffffffffffffffffffffffffffffff16815260200190815260200160002060006101000a81548173ffffffffffffffffffffffffffffffffffffffff021916908373ffffffffffffffffffffffffffffffffffffffff1602179055505b50565b60045481565b565b61048a6106d2565b60008081548110151561049957fe5b90600052602060002090600202016001018054600181600116156101000203166002900480601f01602080910402602001604051908101604052809291908181526020018280546001816001161561010002031660029004801561053e5780601f106105135761010080835404028352916020019161053e565b820191906000526020600020905b81548152906001019060200180831161052157829003601f168201915b5050505050905090565b60015481565b60035481565b6000808290508073ffffffffffffffffffffffffffffffffffffffff16639d41579d6000604051602001526040518163ffffffff167c0100000000000000000000000000000000000000000000000000000000028152600401602060405180830381600087803b15156105c657600080fd5b6102c65a03f115156105d757600080fd5b50505060405180519050915050919050565b6105f16106e6565b6003543411156106ce5733816000019073ffffffffffffffffffffffffffffffffffffffff16908173ffffffffffffffffffffffffffffffffffffffff168152505081816020018190525060008054806001018281610650919061071c565b9160005260206000209060020201600083909190915060008201518160000160006101000a81548173ffffffffffffffffffffffffffffffffffffffff021916908373ffffffffffffffffffffffffffffffffffffffff16021790555060208201518160010190805190602001906106c992919061074e565b505050505b5050565b602060405190810160405280600081525090565b6040805190810160405280600073ffffffffffffffffffffffffffffffffffffffff1681526020016107166107ce565b81525090565b8154818355818115116107495760020281600202836000526020600020918201910161074891906107e2565b5b505050565b828054600181600116156101000203166002900490600052602060002090601f016020900481019282601f1061078f57805160ff19168380011785556107bd565b828001600101855582156107bd579182015b828111156107bc5782518255916020019190600101906107a1565b5b5090506107ca9190610838565b5090565b602060405190810160405280600081525090565b61083591905b8082111561083157600080820160006101000a81549073ffffffffffffffffffffffffffffffffffffffff0219169055600182016000610828919061085d565b506002016107e8565b5090565b90565b61085a91905b8082111561085657600081600090555060010161083e565b5090565b90565b50805460018160011615610100020316600290046000825580601f1061088357506108a2565b601f0160209004906000526020600020908101906108a19190610838565b5b505600a165627a7a72305820dbdd3dea94abaa139ddccd1a767650aa851995453f630e98dd6a25e32b87fa290029",
  "source": "pragma solidity ^0.4.17;\r\nimport \"./MyLib.sol\";\r\nimport \"./Vote.sol\";\r\n\r\ncontract Club {\r\n\r\n  MyLib.User[] registeredUser;\r\n  uint public numberOfRepresentatives;\r\n  uint public numberOfSinks;\r\n  uint public registrationCost;\r\n  uint public termLength;\r\n  mapping (address => address) votes;\r\n  mapping (address => uint) voteCount;\r\n  MyLib.Agent[] listOfAgents;\r\n  MyLib.Sink[] listOfSinks;\r\n\r\n  function Club(uint reps, uint sinks, uint cost, uint term) public {\r\n    numberOfRepresentatives = reps;\r\n    numberOfSinks = sinks;\r\n    registrationCost = cost;\r\n    termLength = term;\r\n  }\r\n\r\n  function useVote(address a) public constant returns (uint) {\r\n    Vote v = Vote(a);\r\n    return v.return5();\r\n  }\r\n\r\n\r\n  function register(string name) public payable {\r\n    if (msg.value > registrationCost) {\r\n          MyLib.User memory u;\r\n          u.myAddress = msg.sender;\r\n          u.name = name;\r\n          registeredUser.push(u);\r\n    }\r\n  }\r\n\r\n  function listRegisteredUsers() public constant returns (string) {\r\n\r\n        return registeredUser[0].name;\r\n\r\n  }\r\n\r\n  function subsidize() public payable {}\r\n\r\n  function isRegistered() public constant returns (bool) {\r\n    for (uint i = 0; i < registeredUser.length; i++) {\r\n      if(registeredUser[i].myAddress == msg.sender)\r\n      {\r\n        return true;\r\n      }\r\n    }\r\n    return false;\r\n  }\r\n\r\n  function vote(address myVote) public {\r\n    if(isRegistered()){\r\n      votes[msg.sender] = myVote;\r\n\r\n    }\r\n  }\r\n\r\n  function seeContractBalance() public constant returns (uint){\r\n    return this.balance;\r\n  }\r\n\r\n}\r\n",
  "sourcePath": "C:\\Users\\JakeL\\Desktop\\Simple\\contracts\\Club.sol",
  "compiler": {
    "name": "solc",
    "version": "0.4.18+commit.9cf6e910.Emscripten.clang"
  },
  "schemaVersion": "1.0.1",
  "updatedAt": "2017-12-08T00:56:43.300Z"
}