{
  "contractName": "Club",
  "abi": [
    {
      "constant": true,
      "inputs": [],
      "name": "timeVoteStarted",
      "outputs": [
        {
          "name": "",
          "type": "uint256"
        }
      ],
      "payable": false,
      "stateMutability": "view",
      "type": "function"
    },
    {
      "constant": true,
      "inputs": [],
      "name": "gasCost",
      "outputs": [
        {
          "name": "",
          "type": "uint256"
        }
      ],
      "payable": false,
      "stateMutability": "view",
      "type": "function"
    },
    {
      "constant": true,
      "inputs": [],
      "name": "numberOfSinks",
      "outputs": [
        {
          "name": "",
          "type": "uint256"
        }
      ],
      "payable": false,
      "stateMutability": "view",
      "type": "function"
    },
    {
      "constant": true,
      "inputs": [],
      "name": "coalitionSizeFactorIncrease",
      "outputs": [
        {
          "name": "",
          "type": "uint256"
        }
      ],
      "payable": false,
      "stateMutability": "view",
      "type": "function"
    },
    {
      "constant": true,
      "inputs": [],
      "name": "termLength",
      "outputs": [
        {
          "name": "",
          "type": "uint256"
        }
      ],
      "payable": false,
      "stateMutability": "view",
      "type": "function"
    },
    {
      "constant": true,
      "inputs": [],
      "name": "coalitionSizeFactor",
      "outputs": [
        {
          "name": "",
          "type": "uint256"
        }
      ],
      "payable": false,
      "stateMutability": "view",
      "type": "function"
    },
    {
      "constant": true,
      "inputs": [
        {
          "name": "",
          "type": "uint256"
        }
      ],
      "name": "finalBudget",
      "outputs": [
        {
          "name": "",
          "type": "uint256"
        }
      ],
      "payable": false,
      "stateMutability": "view",
      "type": "function"
    },
    {
      "constant": true,
      "inputs": [],
      "name": "numberOfRepresentatives",
      "outputs": [
        {
          "name": "",
          "type": "uint256"
        }
      ],
      "payable": false,
      "stateMutability": "view",
      "type": "function"
    },
    {
      "constant": true,
      "inputs": [
        {
          "name": "",
          "type": "address"
        }
      ],
      "name": "voted",
      "outputs": [
        {
          "name": "",
          "type": "bool"
        }
      ],
      "payable": false,
      "stateMutability": "view",
      "type": "function"
    },
    {
      "constant": true,
      "inputs": [],
      "name": "quota",
      "outputs": [
        {
          "name": "",
          "type": "uint256"
        }
      ],
      "payable": false,
      "stateMutability": "view",
      "type": "function"
    },
    {
      "constant": true,
      "inputs": [],
      "name": "voteStarted",
      "outputs": [
        {
          "name": "",
          "type": "bool"
        }
      ],
      "payable": false,
      "stateMutability": "view",
      "type": "function"
    },
    {
      "constant": true,
      "inputs": [],
      "name": "registrationCost",
      "outputs": [
        {
          "name": "",
          "type": "uint256"
        }
      ],
      "payable": false,
      "stateMutability": "view",
      "type": "function"
    },
    {
      "constant": true,
      "inputs": [],
      "name": "numberOfTurns",
      "outputs": [
        {
          "name": "",
          "type": "uint256"
        }
      ],
      "payable": false,
      "stateMutability": "view",
      "type": "function"
    },
    {
      "constant": true,
      "inputs": [],
      "name": "timeVoteEnded",
      "outputs": [
        {
          "name": "",
          "type": "uint256"
        }
      ],
      "payable": false,
      "stateMutability": "view",
      "type": "function"
    },
    {
      "inputs": [
        {
          "name": "reps",
          "type": "uint256"
        },
        {
          "name": "sinks",
          "type": "uint256"
        },
        {
          "name": "cost",
          "type": "uint256"
        },
        {
          "name": "term",
          "type": "uint256"
        }
      ],
      "payable": false,
      "stateMutability": "nonpayable",
      "type": "constructor"
    },
    {
      "constant": false,
      "inputs": [],
      "name": "startVote",
      "outputs": [],
      "payable": false,
      "stateMutability": "nonpayable",
      "type": "function"
    },
    {
      "constant": false,
      "inputs": [
        {
          "name": "myVote",
          "type": "address[]"
        }
      ],
      "name": "vote",
      "outputs": [],
      "payable": false,
      "stateMutability": "nonpayable",
      "type": "function"
    },
    {
      "constant": false,
      "inputs": [],
      "name": "endVote",
      "outputs": [],
      "payable": false,
      "stateMutability": "nonpayable",
      "type": "function"
    },
    {
      "constant": false,
      "inputs": [
        {
          "name": "ranked",
          "type": "uint256[]"
        }
      ],
      "name": "weightCandidates",
      "outputs": [],
      "payable": false,
      "stateMutability": "nonpayable",
      "type": "function"
    },
    {
      "constant": false,
      "inputs": [
        {
          "name": "data",
          "type": "uint256[]"
        }
      ],
      "name": "sort",
      "outputs": [
        {
          "name": "",
          "type": "uint256[]"
        }
      ],
      "payable": false,
      "stateMutability": "nonpayable",
      "type": "function"
    },
    {
      "constant": false,
      "inputs": [],
      "name": "subsidize",
      "outputs": [],
      "payable": true,
      "stateMutability": "payable",
      "type": "function"
    },
    {
      "constant": true,
      "inputs": [],
      "name": "isRegistered",
      "outputs": [
        {
          "name": "",
          "type": "bool"
        }
      ],
      "payable": false,
      "stateMutability": "view",
      "type": "function"
    },
    {
      "constant": false,
      "inputs": [
        {
          "name": "name",
          "type": "string"
        }
      ],
      "name": "register",
      "outputs": [],
      "payable": true,
      "stateMutability": "payable",
      "type": "function"
    },
    {
      "constant": false,
      "inputs": [],
      "name": "apply",
      "outputs": [],
      "payable": false,
      "stateMutability": "nonpayable",
      "type": "function"
    },
    {
      "constant": false,
      "inputs": [
        {
          "name": "budget",
          "type": "uint256[]"
        }
      ],
      "name": "submitBudget",
      "outputs": [],
      "payable": false,
      "stateMutability": "nonpayable",
      "type": "function"
    },
    {
      "constant": false,
      "inputs": [
        {
          "name": "spender",
          "type": "address"
        },
        {
          "name": "name",
          "type": "string"
        }
      ],
      "name": "submitSink",
      "outputs": [],
      "payable": false,
      "stateMutability": "nonpayable",
      "type": "function"
    },
    {
      "constant": false,
      "inputs": [],
      "name": "endBudgetSumbit",
      "outputs": [],
      "payable": false,
      "stateMutability": "nonpayable",
      "type": "function"
    },
    {
      "constant": false,
      "inputs": [],
      "name": "decideBudget",
      "outputs": [],
      "payable": false,
      "stateMutability": "nonpayable",
      "type": "function"
    },
    {
      "constant": true,
      "inputs": [
        {
          "name": "a_bar",
          "type": "uint256"
        },
        {
          "name": "b_bar",
          "type": "uint256"
        },
        {
          "name": "a_floor",
          "type": "uint256"
        },
        {
          "name": "b_floor",
          "type": "uint256"
        }
      ],
      "name": "negotiate",
      "outputs": [
        {
          "name": "",
          "type": "uint256[]"
        }
      ],
      "payable": false,
      "stateMutability": "view",
      "type": "function"
    },
    {
      "constant": true,
      "inputs": [
        {
          "name": "budget1",
          "type": "uint256[]"
        },
        {
          "name": "budget2",
          "type": "uint256[]"
        },
        {
          "name": "nego",
          "type": "uint256[]"
        },
        {
          "name": "coalitionSize",
          "type": "uint256"
        }
      ],
      "name": "negoToBudget",
      "outputs": [
        {
          "name": "",
          "type": "uint256[]"
        }
      ],
      "payable": false,
      "stateMutability": "view",
      "type": "function"
    },
    {
      "constant": true,
      "inputs": [
        {
          "name": "number",
          "type": "uint256"
        }
      ],
      "name": "listRegisteredUsers",
      "outputs": [
        {
          "name": "",
          "type": "string"
        },
        {
          "name": "",
          "type": "address"
        }
      ],
      "payable": false,
      "stateMutability": "view",
      "type": "function"
    },
    {
      "constant": true,
      "inputs": [],
      "name": "getRegisteredUsersLength",
      "outputs": [
        {
          "name": "",
          "type": "uint256"
        }
      ],
      "payable": false,
      "stateMutability": "view",
      "type": "function"
    },
    {
      "constant": true,
      "inputs": [
        {
          "name": "number",
          "type": "uint256"
        }
      ],
      "name": "listCandidates",
      "outputs": [
        {
          "name": "",
          "type": "string"
        },
        {
          "name": "",
          "type": "address"
        }
      ],
      "payable": false,
      "stateMutability": "view",
      "type": "function"
    },
    {
      "constant": true,
      "inputs": [],
      "name": "getCandidatesLength",
      "outputs": [
        {
          "name": "",
          "type": "uint256"
        }
      ],
      "payable": false,
      "stateMutability": "view",
      "type": "function"
    },
    {
      "constant": true,
      "inputs": [
        {
          "name": "number",
          "type": "uint256"
        }
      ],
      "name": "listRepresentives",
      "outputs": [
        {
          "name": "",
          "type": "string"
        },
        {
          "name": "",
          "type": "address"
        },
        {
          "name": "",
          "type": "uint256"
        },
        {
          "name": "",
          "type": "uint256[]"
        }
      ],
      "payable": false,
      "stateMutability": "view",
      "type": "function"
    },
    {
      "constant": true,
      "inputs": [],
      "name": "getRepresentivesLength",
      "outputs": [
        {
          "name": "",
          "type": "uint256"
        }
      ],
      "payable": false,
      "stateMutability": "view",
      "type": "function"
    },
    {
      "constant": true,
      "inputs": [
        {
          "name": "number",
          "type": "uint256"
        }
      ],
      "name": "listSinks",
      "outputs": [
        {
          "name": "",
          "type": "string"
        },
        {
          "name": "",
          "type": "address"
        }
      ],
      "payable": false,
      "stateMutability": "view",
      "type": "function"
    },
    {
      "constant": true,
      "inputs": [],
      "name": "getSinksLength",
      "outputs": [
        {
          "name": "",
          "type": "uint256"
        }
      ],
      "payable": false,
      "stateMutability": "view",
      "type": "function"
    },
    {
      "constant": true,
      "inputs": [
        {
          "name": "number",
          "type": "uint256"
        }
      ],
      "name": "showVotes",
      "outputs": [
        {
          "name": "",
          "type": "address[]"
        }
      ],
      "payable": false,
      "stateMutability": "view",
      "type": "function"
    },
    {
      "constant": true,
      "inputs": [
        {
          "name": "number",
          "type": "uint256"
        }
      ],
      "name": "listFinalBudget",
      "outputs": [
        {
          "name": "",
          "type": "uint256"
        }
      ],
      "payable": false,
      "stateMutability": "view",
      "type": "function"
    }
  ],
  "bytecode": "0x60606040526000600660006101000a81548160ff021916908315150217905550600060075560006008556005600e556001600f5560646010556014601155600160125534156200004e57600080fd5b604051608080620040a883398101604052620000749067800000000000000090620000b0565b83600c8190555082600d8190555081600081905550806001819055505050505062000130565b6000620000a8825162000126565b905092915050565b60008060008060808587031260018114620000cb57620000d0565b600080fd5b506000620000e1878288016200009a565b9450506020620000f4878288016200009a565b935050604062000107878288016200009a565b92505060606200011a878288016200009a565b91505092959194509250565b6000819050919050565b613f6880620001406000396000f3006060604052600436106101e3576000357c0100000000000000000000000000000000000000000000000000000000900463ffffffff1680630cf35f44146101e857806313dcd43e1461021f578063161893d0146102415780631859df651461026a5780631afad36d146102935780631d5e3fe5146102bc57806322366844146102e557806322ca968b1461030e5780632cd152201461034557806347792fc51461036e5780634c0a6af0146103835780635654a49b146103985780635846fc46146103ad5780636687d4fe146103cf5780636904d24114610405578063717a55d21461042757806379b18cd1146104505780638b2e48831461047957806390f10ed1146104af5780639ec8b026146104b9578063a5982ddb146104ef578063ad012af014610518578063ae0689ac1461054e578063aec2ccae14610577578063af0ab715146105ad578063b9223946146105e4578063c6214bf1146105f9578063cebe09c914610622578063d0dc01801461064b578063d5268b2214610674578063d87311aa1461069d578063db595b3b146106d3578063dc4a7f7f146106e8578063dee6472f14610711578063e0abab9e1461074a578063e32ba07814610773578063ed00af98146107a9578063ed081329146107d2578063f2c298be146107f4575b600080fd5b34156101f357600080fd5b6102086004610203903690613aa5565b61080b565b604051610216929190613cbb565b60405180910390f35b341561022a57600080fd5b61023f600461023a903690613877565b61091b565b005b341561024c57600080fd5b6102546109fa565b6040516102619190613d3e565b60405180910390f35b341561027557600080fd5b61027d610a00565b60405161028a9190613d3e565b60405180910390f35b341561029e57600080fd5b6102a6610a0d565b6040516102b39190613d3e565b60405180910390f35b34156102c757600080fd5b6102cf610a1a565b6040516102dc9190613d3e565b60405180910390f35b34156102f057600080fd5b6102f8610a20565b6040516103059190613ca0565b60405180910390f35b341561031957600080fd5b61032e6004610329903690613aa5565b610ac8565b60405161033c929190613cbb565b60405180910390f35b341561035057600080fd5b610358610c0c565b6040516103659190613d3e565b60405180910390f35b341561037957600080fd5b610381610c12565b005b341561038e57600080fd5b610396611314565b005b34156103a357600080fd5b6103ab611366565b005b34156103b857600080fd5b6103cd60046103c8903690613930565b61139b565b005b34156103da57600080fd5b6103ef60046103ea903690613aa5565b61147a565b6040516103fc9190613c5c565b60405180910390f35b341561041057600080fd5b6104256004610420903690613930565b611528565b005b341561043257600080fd5b61043a611613565b6040516104479190613d3e565b60405180910390f35b341561045b57600080fd5b610463611619565b6040516104709190613d3e565b60405180910390f35b341561048457600080fd5b6104996004610494903690613aa5565b61161f565b6040516104a69190613d3e565b60405180910390f35b6104b7611643565b005b34156104c457600080fd5b6104d960046104d4903690613930565b611645565b6040516104e69190613c7e565b60405180910390f35b34156104fa57600080fd5b610502611665565b60405161050f9190613d3e565b60405180910390f35b341561052357600080fd5b6105386004610533903690613aa5565b61166b565b6040516105459190613d3e565b60405180910390f35b341561055957600080fd5b61056161168f565b60405161056e9190613d3e565b60405180910390f35b341561058257600080fd5b6105976004610592903690613845565b611695565b6040516105a49190613ca0565b60405180910390f35b34156105b857600080fd5b6105cd60046105c8903690613aa5565b6116b5565b6040516105db929190613cbb565b60405180910390f35b34156105ef57600080fd5b6105f76117c5565b005b341561060457600080fd5b61060c61181c565b6040516106199190613d3e565b60405180910390f35b341561062d57600080fd5b610635611829565b6040516106429190613d3e565b60405180910390f35b341561065657600080fd5b61065e61182f565b60405161066b9190613ca0565b60405180910390f35b341561067f57600080fd5b610687611842565b6040516106949190613d3e565b60405180910390f35b34156106a857600080fd5b6106bd60046106b8903690613983565b61184f565b6040516106ca9190613c7e565b60405180910390f35b34156106de57600080fd5b6106e6611bbc565b005b34156106f357600080fd5b6106fb611c96565b6040516107089190613d3e565b60405180910390f35b341561071c57600080fd5b610731600461072c903690613aa5565b611c9c565b6040516107419493929190613ceb565b60405180910390f35b341561075557600080fd5b61075d611e8e565b60405161076a9190613d3e565b60405180910390f35b341561077e57600080fd5b610793600461078e903690613ad7565b611e94565b6040516107a09190613c7e565b60405180910390f35b34156107b457600080fd5b6107bc611ff5565b6040516107c99190613d3e565b60405180910390f35b34156107dd57600080fd5b6107f260046107ed9036906138dd565b611ffb565b005b6108096004610804903690613a52565b61211b565b005b610813613031565b600060028381548110151561082457fe5b906000526020600020906002020160010160028481548110151561084457fe5b906000526020600020906002020160000160009054906101000a900473ffffffffffffffffffffffffffffffffffffffff16818054600181600116156101000203166002900480601f01602080910402602001604051908101604052809291908181526020018280546001816001161561010002031660029004801561090b5780601f106108e05761010080835404028352916020019161090b565b820191906000526020600020905b8154815290600101906020018083116108ee57829003601f168201915b5050505050915091509150915091565b610923613045565b81816020018190525082816000019073ffffffffffffffffffffffffffffffffffffffff16908173ffffffffffffffffffffffffffffffffffffffff1681525050600a8054806001018281610978919061307b565b9160005260206000209060020201600083909190915060008201518160000160006101000a81548173ffffffffffffffffffffffffffffffffffffffff021916908373ffffffffffffffffffffffffffffffffffffffff16021790555060208201518160010190805190602001906109f19291906130ad565b50505050505050565b60075481565b6000600380549050905090565b6000600280549050905090565b600f5481565b600080600090505b600280549050811015610abf573373ffffffffffffffffffffffffffffffffffffffff16600282815481101515610a5b57fe5b906000526020600020906002020160000160009054906101000a900473ffffffffffffffffffffffffffffffffffffffff1673ffffffffffffffffffffffffffffffffffffffff161415610ab25760019150610ac4565b8080600101915050610a28565b600091505b5090565b610ad0613031565b60006002600384815481101515610ae357fe5b906000526020600020900154815481101515610afb57fe5b90600052602060002090600202016001016002600385815481101515610b1d57fe5b906000526020600020900154815481101515610b3557fe5b906000526020600020906002020160000160009054906101000a900473ffffffffffffffffffffffffffffffffffffffff16818054600181600116156101000203166002900480601f016020809104026020016040519081016040528092919081815260200182805460018160011615610100020316600290048015610bfc5780601f10610bd157610100808354040283529160200191610bfc565b820191906000526020600020905b815481529060010190602001808311610bdf57829003601f168201915b5050505050915091509150915091565b600d5481565b6000610c1c61312d565b610c24613141565b610c2c613141565b610c34613155565b6000806000610c41613141565b6000610c4b613141565b600c549a508a604051805910610c5e5750595b908082528060200260200182016040528015610c9457816020015b610c81613169565b815260200190600190039081610c795790505b5099508a604051805910610ca55750595b908082528060200260200182016040525098508a604051805910610cc65750595b908082528060200260200182016040525097508a604051805910610ce75750595b908082528060200260200182016040528015610d1d57816020015b610d0a61317d565b815260200190600190039081610d025790505b509650600095505b8a861015610e5c57600986815481101515610d3c57fe5b9060005260206000209060030201606060405190810160405290816000820154815260200160018201805480602002602001604051908101604052809291908181526020018280548015610daf57602002820191906000526020600020905b815481526020019060010190808311610d9b575b505050505081526020016002820154815250508787815181101515610dd057fe5b906020019060200201819052508686815181101515610deb57fe5b90602001906020020151602001518a87815181101515610e0757fe5b9060200190602002018190525060018987815181101515610e2457fe5b9060200190602002018181525050858887815181101515610e4157fe5b90602001906020020181815250508580600101965050610d25565b600094505b8a610e6d898d8a612366565b14156112cf57610ede8a8987815181101515610e8557fe5b90602001906020020151815181101515610e9b57fe5b906020019060200201518887815181101515610eb357fe5b90602001906020020151602001518b88815181101515610ecf57fe5b90602001906020020151612453565b93506001604051805910610eef5750595b908082528060200260200182016040525092508a9150600095505b8a86101561115457858886815181101515610f2157fe5b9060200190602002015114158015610f51575060008987815181101515610f4457fe5b9060200190602002015114155b1561114757610fc78786815181101515610f6757fe5b90602001906020020151602001518b88815181101515610f8357fe5b906020019060200201518988815181101515610f9b57fe5b90602001906020020151604001518c8a815181101515610fb757fe5b9060200190602002015101612453565b6110048887815181101515610fd857fe5b90602001906020020151604001518b89815181101515610ff457fe5b906020019060200201510161248c565b016110258a8881518110151561101657fe5b9060200190602002015161248c565b850110156111465761110461106d888781518110151561104157fe5b90602001906020020151604001518b8981518110151561105d57fe5b906020019060200201510161248c565b6110de898881518110151561107e57fe5b90602001906020020151602001518d8a81518110151561109a57fe5b906020019060200201518b8a8151811015156110b257fe5b90602001906020020151604001518e8c8151811015156110ce57fe5b9060200190602002015101612453565b866110ff8d8b8151811015156110f057fe5b9060200190602002015161248c565b611e94565b905082600081518110151561111557fe5b9060200190602002015181600081518110151561112e57fe5b906020019060200201511115611145578092508591505b5b5b8580600101965050610f0a565b8a8214151561129b576111cf878681518110151561116e57fe5b90602001906020020151602001518b8481518110151561118a57fe5b90602001906020020151858a898151811015156111a357fe5b90602001906020020151604001518d878151811015156111bf57fe5b906020019060200201510161184f565b8a838151811015156111dd57fe5b9060200190602002018190525086858151811015156111f857fe5b906020019060200201516040015189898781518110151561121557fe5b9060200190602002015181518110151561122b57fe5b9060200190602002018181510391508181525050868581518110151561124d57fe5b9060200190602002015160400151898381518110151561126957fe5b906020019060200201818151019150818152505081888681518110151561128c57fe5b90602001906020020181815250505b60018b038514156112af57600094506112b8565b84806001019550505b601254601160008282540192505081905550610e61565b896112db898d8a612366565b8151811015156112e757fe5b90602001906020020151600b90805190602001906113069291906131a5565b505050505050505050505050565b426001546008540110801561133c575060001515600660009054906101000a900460ff161515145b15611364576001600660006101000a81548160ff021916908315150217905550426007819055505b565b426008541115801561138b575060001515600660009054906101000a900460ff161515145b1561139957611398610c12565b5b565b60006113a56131f2565b600091505b600c5482101561146557600383838151811015156113c457fe5b906020019060200201518154811015156113da57fe5b90600052602060002090015481600001818152505060018160400181815250506009805480600101828161140e919061321a565b9160005260206000209060030201600083909190915060008201518160000155602082015181600101908051906020019061144a92919061324c565b506040820151816002015550505081806001019250506113aa565b60006003816114749190613299565b50505050565b6114826132c5565b60048281548110151561149157fe5b906000526020600020900180548060200260200160405190810160405280929190818152602001828054801561151c57602002820191906000526020600020905b8160009054906101000a900473ffffffffffffffffffffffffffffffffffffffff1673ffffffffffffffffffffffffffffffffffffffff16815260200190600101908083116114d2575b50505050509050919050565b60008090505b600c5481101561160f573373ffffffffffffffffffffffffffffffffffffffff16600260098381548110151561156057fe5b90600052602060002090600302016000015481548110151561157e57fe5b906000526020600020906002020160000160009054906101000a900473ffffffffffffffffffffffffffffffffffffffff1673ffffffffffffffffffffffffffffffffffffffff16141561160257816009828154811015156115dc57fe5b906000526020600020906003020160010190805190602001906116009291906131a5565b505b808060010191505061152e565b5050565b60125481565b60015481565b6000600b8281548110151561163057fe5b9060005260206000209001549050919050565b565b61164d613141565b61165d82600060018551036124b7565b819050919050565b60115481565b600b8181548110151561167a57fe5b90600052602060002090016000915090505481565b600c5481565b60056020528060005260406000206000915054906101000a900460ff1681565b6116bd613031565b6000600a838154811015156116ce57fe5b9060005260206000209060020201600101600a848154811015156116ee57fe5b906000526020600020906002020160000160009054906101000a900473ffffffffffffffffffffffffffffffffffffffff16818054600181600116156101000203166002900480601f0160208091040260200160405190810160405280929190818152602001828054600181600116156101000203166002900480156117b55780601f1061178a576101008083540402835291602001916117b5565b820191906000526020600020905b81548152906001019060200180831161179857829003601f168201915b5050505050915091509150915091565b42600754111580156117ea575060011515600660009054906101000a900460ff161515145b1561181a576000600660006101000a81548160ff02191690831515021790555042600881905550611819612617565b5b565b6000600a80549050905090565b600e5481565b600660009054906101000a900460ff1681565b6000600980549050905090565b611857613141565b61185f613141565b600080600080600080600080600d5460405180591061187b5750595b908082528060200260200182016040525098506118988e8e612a33565b9750876011546064038c6001600e5401036011548115156118b557fe5b04018d60008151811015156118c657fe5b906020019060200201518115156118d957fe5b04039650876011546064038c6001600e5401036011548115156118f857fe5b04018d600181518110151561190957fe5b9060200190602002015181151561191c57fe5b040395506000945060009350600092505b600d548310156119b8578c8381518110151561194557fe5b906020019060200201518e8481518110151561195d57fe5b90602001906020020151111561198e578d8381518110151561197b57fe5b90602001906020020151850194506119ab565b8c8381518110151561199c57fe5b90602001906020020151840193505b828060010193505061192d565b60009150600092505b600d54831015611b4c578c838151811015156119d957fe5b906020019060200201518e848151811015156119f157fe5b906020019060200201511115611aa257848e84815181101515611a1057fe5b906020019060200201518802811515611a2557fe5b048d84815181101515611a3457fe5b906020019060200201510182019150848e84815181101515611a5257fe5b906020019060200201518802811515611a6757fe5b048d84815181101515611a7657fe5b90602001906020020151018984815181101515611a8f57fe5b9060200190602002018181525050611b3f565b838d84815181101515611ab157fe5b906020019060200201518702811515611ac657fe5b048e84815181101515611ad557fe5b906020019060200201510182019150838d84815181101515611af357fe5b906020019060200201518702811515611b0857fe5b048e84815181101515611b1757fe5b90602001906020020151018984815181101515611b3057fe5b90602001906020020181815250505b82806001019350506119c1565b600090505b6064821015611ba85760018982815181101515611b6a57fe5b90602001906020020181815101915081815250506001820191506001600d5403811415611b9a5760009050611ba3565b80806001019150505b611b51565b889950505050505050505050949350505050565b6000611bcf33611bca612ad6565b612cb1565b1515611c9357600090505b600280549050811015611c92573373ffffffffffffffffffffffffffffffffffffffff16600282815481101515611c0d57fe5b906000526020600020906002020160000160009054906101000a900473ffffffffffffffffffffffffffffffffffffffff1673ffffffffffffffffffffffffffffffffffffffff161415611c855760038054806001018281611c6f91906132d9565b9160005260206000209001600083909190915055505b8080600101915050611bda565b5b50565b60005481565b611ca4613031565b600080611caf613141565b6002600986815481101515611cc057fe5b906000526020600020906003020160000154815481101515611cde57fe5b90600052602060002090600202016001016002600987815481101515611d0057fe5b906000526020600020906003020160000154815481101515611d1e57fe5b906000526020600020906002020160000160009054906101000a900473ffffffffffffffffffffffffffffffffffffffff16600987815481101515611d5f57fe5b906000526020600020906003020160020154600988815481101515611d8057fe5b9060005260206000209060030201600101838054600181600116156101000203166002900480601f016020809104026020016040519081016040528092919081815260200182805460018160011615610100020316600290048015611e265780601f10611dfb57610100808354040283529160200191611e26565b820191906000526020600020905b815481529060010190602001808311611e0957829003601f168201915b5050505050935080805480602002602001604051908101604052809291908181526020018280548015611e7857602002820191906000526020600020905b815481526020019060010190808311611e64575b5050505050905093509350935093509193509193565b60105481565b611e9c613141565b600080600080611eaa613141565b6001600f546002898b8d8f01030303811515611ec257fe5b040194506000935060009250601054851115611ede5760105494505b60028789600f5460018903028c8e010303030391506000600286811515611f0157fe5b061415611f34576001600f546001600288811515611f1b57fe5b0403028360018a01010101925082898b01039350611f5c565b600f546001600260018801811515611f4857fe5b0403028260018a010101935083898b010392505b89841115611f735789840383019250899350611f87565b89831115611f8657898303840193508992505b5b6002604051805910611f965750595b9080825280602002602001820160405250905083816000815181101515611fb957fe5b906020019060200201818152505082816001815181101515611fd757fe5b90602001906020020181815250508095505050505050949350505050565b60085481565b612003610a20565b8015612022575060011515600660009054906101000a900460ff161515145b801561207e575060001515600560003373ffffffffffffffffffffffffffffffffffffffff1673ffffffffffffffffffffffffffffffffffffffff16815260200190815260200160002060009054906101000a900460ff161515145b15612118576001600560003373ffffffffffffffffffffffffffffffffffffffff1673ffffffffffffffffffffffffffffffffffffffff16815260200190815260200160002060006101000a81548160ff021916908315150217905550600480548060010182816120ef9190613305565b916000526020600020900160008390919091509080519060200190612115929190613331565b50505b50565b6121236133bb565b6000543411801561228a5750612288336002805480602002602001604051908101604052809291908181526020016000905b8282101561227f57838290600052602060002090600202016040805190810160405290816000820160009054906101000a900473ffffffffffffffffffffffffffffffffffffffff1673ffffffffffffffffffffffffffffffffffffffff1673ffffffffffffffffffffffffffffffffffffffff168152602001600182018054600181600116156101000203166002900480601f0160208091040260200160405190810160405280929190818152602001828054600181600116156101000203166002900480156122675780601f1061223c57610100808354040283529160200191612267565b820191906000526020600020905b81548152906001019060200180831161224a57829003601f168201915b50505050508152505081526020019060010190612155565b50505050612cb1565b155b156123625733816000019073ffffffffffffffffffffffffffffffffffffffff16908173ffffffffffffffffffffffffffffffffffffffff1681525050818160200181905250600280548060010182816122e491906133f1565b9160005260206000209060020201600083909190915060008201518160000160006101000a81548173ffffffffffffffffffffffffffffffffffffffff021916908373ffffffffffffffffffffffffffffffffffffffff160217905550602082015181600101908051906020019061235d9291906130ad565b505050505b5050565b6000612370613141565b6000846040518059106123805750595b90808252806020026020018201604052509150600090505b848110156124025783818151811015156123ae57fe5b90602001906020020151604001518287838151811015156123cb57fe5b906020019060200201518151811015156123e157fe5b90602001906020020181815101915081815250508080600101915050612398565b600090505b8481101561244657600e54828281518110151561242057fe5b906020019060200201511015156124395780925061244a565b8080600101915050612407565b8492505b50509392505050565b6000806124608585612a33565b90508060115460640302836001600e540103826011540281151561248057fe5b04019150509392505050565b6000606460115460640302826001600e5401036064601154028115156124ae57fe5b04019050919050565b6000806000849250839150818314156124cf5761260f565b8560028686038115156124de57fe5b0486018151811015156124ed57fe5b9060200190602002015190505b81831115156125e6575b80868481518110151561251357fe5b906020019060200201511115612530578280600101935050612504565b5b858281518110151561253f57fe5b9060200190602002015181111561255e57818060019003925050612531565b81831115156125e157858281518110151561257557fe5b90602001906020020151868481518110151561258d57fe5b9060200190602002015187858151811015156125a557fe5b90602001906020020188858151811015156125bc57fe5b9060200190602002018281525082815250505082806001019350508180600190039250505b6124fa565b818510156125fa576125f98686846124b7565b5b8383101561260e5761260d8684866124b7565b5b5b505050505050565b600080612622613141565b61262a61312d565b6000612634613141565b61263c613141565b612644613141565b6003805490506040518059106126575750595b9080825280602002602001820160405250955085516040518059106126795750595b9080825280602002602001820160405280156126af57816020015b61269c613169565b8152602001906001900390816126945790505b509450600097505b85518810156127085785516040518059106126cf5750595b908082528060200260200182016040525085898151811015156126ee57fe5b9060200190602002018190525087806001019850506126b7565b600097505b6001865103881015612844578760010196505b8551871015612837576127338888612d33565b935060008414156127b15786858981518110151561274d57fe5b90602001906020020151878a81518110151561276557fe5b9060200190602002015181518110151561277b57fe5b9060200190602002018181525050858881518110151561279757fe5b90602001906020020180518091906001018152505061282a565b6001841415612829578785888151811015156127c957fe5b9060200190602002015187898151811015156127e157fe5b906020019060200201518151811015156127f757fe5b9060200190602002018181525050858781518110151561281357fe5b9060200190602002018051809190600101815250505b5b8680600101975050612720565b878060010198505061270d565b85516040518059106128535750595b90808252806020026020018201604052509250600097505b855188101561293c576000868981518110151561288457fe5b9060200190602002015114151561292f57600096505b85888151811015156128a857fe5b9060200190602002015187101561292e578585898151811015156128c857fe5b90602001906020020151888151811015156128df57fe5b906020019060200201518151811015156128f557fe5b90602001906020020151838981518110151561290d57fe5b9060200190602002018181510191508181525050868060010197505061289a565b5b878060010198505061286b565b855160405180591061294b5750595b9080825280602002602001820160405250915061296f61296a84612fa4565b611645565b9050600097505b8551881015612a2057600096505b8551871015612a1357828781518110151561299b57fe5b9060200190602002015181898151811015156129b357fe5b906020019060200201511415612a06578682898151811015156129d257fe5b9060200190602002018181525050855186510283888151811015156129f357fe5b9060200190602002018181525050612a13565b8680600101975050612984565b8780600101985050612976565b612a298261139b565b5050505050505050565b6000806000809150600090505b600d54811015612acb578381815181101515612a5857fe5b906020019060200201518582815181101515612a7057fe5b906020019060200201511115612aa1578381815181101515612a8e57fe5b9060200190602002015182019150612abe565b8481815181101515612aaf57fe5b90602001906020020151820191505b8080600101915050612a40565b819250505092915050565b612ade613423565b6000612ae8613423565b6000600380549050925082604051805910612b005750595b908082528060200260200182016040528015612b3657816020015b612b23613437565b815260200190600190039081612b1b5790505b509150600090505b82811015612ca8576002600382815481101515612b5757fe5b906000526020600020900154815481101515612b6f57fe5b90600052602060002090600202016040805190810160405290816000820160009054906101000a900473ffffffffffffffffffffffffffffffffffffffff1673ffffffffffffffffffffffffffffffffffffffff1673ffffffffffffffffffffffffffffffffffffffff168152602001600182018054600181600116156101000203166002900480601f016020809104026020016040519081016040528092919081815260200182805460018160011615610100020316600290048015612c775780601f10612c4c57610100808354040283529160200191612c77565b820191906000526020600020905b815481529060010190602001808311612c5a57829003601f168201915b5050505050815250508282815181101515612c8e57fe5b906020019060200201819052508080600101915050612b3e565b81935050505090565b600080600090505b8251811015612d27578373ffffffffffffffffffffffffffffffffffffffff168382815181101515612ce757fe5b906020019060200201516000015173ffffffffffffffffffffffffffffffffffffffff161415612d1a5760019150612d2c565b8080600101915050612cb9565b600091505b5092915050565b60008060008060008060008060008060009850600097506004805490509650600260038d815481101515612d6357fe5b906000526020600020900154815481101515612d7b57fe5b906000526020600020906002020160000160009054906101000a900473ffffffffffffffffffffffffffffffffffffffff169550600260038c815481101515612dc057fe5b906000526020600020900154815481101515612dd857fe5b906000526020600020906002020160000160009054906101000a900473ffffffffffffffffffffffffffffffffffffffff169450600093505b86841015612f6e57600287811515612e2557fe5b048911158015612e415750600287811515612e3c57fe5b048811155b15612f5c57600484815481101515612e5557fe5b9060005260206000209001805490509250600091505b82821015612f5757600484815481101515612e8257fe5b906000526020600020900182815481101515612e9a57fe5b906000526020600020900160009054906101000a900473ffffffffffffffffffffffffffffffffffffffff1690508573ffffffffffffffffffffffffffffffffffffffff168173ffffffffffffffffffffffffffffffffffffffff161415612f09578880600101995050612f57565b8473ffffffffffffffffffffffffffffffffffffffff168173ffffffffffffffffffffffffffffffffffffffff161415612f4a578780600101985050612f57565b8180600101925050612e6b565b612f61565b612f6e565b8380600101945050612e11565b87891115612f7f5760009950612f95565b88881115612f905760019950612f95565b600299505b50505050505050505092915050565b612fac613141565b612fb4613141565b60008351604051805910612fc55750595b90808252806020026020018201604052509150600090505b8351811015613027578381815181101515612ff457fe5b90602001906020020151828281518110151561300c57fe5b90602001906020020181815250508080600101915050612fdd565b8192505050919050565b602060405190810160405280600081525090565b6040805190810160405280600073ffffffffffffffffffffffffffffffffffffffff16815260200161307561346d565b81525090565b8154818355818115116130a8576002028160020283600052602060002091820191016130a79190613481565b5b505050565b828054600181600116156101000203166002900490600052602060002090601f016020900481019282601f106130ee57805160ff191683800117855561311c565b8280016001018555821561311c579182015b8281111561311b578251825591602001919060010190613100565b5b50905061312991906134d7565b5090565b602060405190810160405280600081525090565b602060405190810160405280600081525090565b602060405190810160405280600081525090565b602060405190810160405280600081525090565b60606040519081016040528060008152602001613198613169565b8152602001600081525090565b8280548282559060005260206000209081019282156131e1579160200282015b828111156131e05782518255916020019190600101906131c5565b5b5090506131ee91906134d7565b5090565b6060604051908101604052806000815260200161320d613169565b8152602001600081525090565b8154818355818115116132475760030281600302836000526020600020918201910161324691906134fc565b5b505050565b828054828255906000526020600020908101928215613288579160200282015b8281111561328757825182559160200191906001019061326c565b5b50905061329591906134d7565b5090565b8154818355818115116132c0578183600052602060002091820191016132bf91906134d7565b5b505050565b602060405190810160405280600081525090565b815481835581811511613300578183600052602060002091820191016132ff91906134d7565b5b505050565b81548183558181151161332c5781836000526020600020918201910161332b919061353b565b5b505050565b8280548282559060005260206000209081019282156133aa579160200282015b828111156133a95782518260006101000a81548173ffffffffffffffffffffffffffffffffffffffff021916908373ffffffffffffffffffffffffffffffffffffffff16021790555091602001919060010190613351565b5b5090506133b79190613567565b5090565b6040805190810160405280600073ffffffffffffffffffffffffffffffffffffffff1681526020016133eb61346d565b81525090565b81548183558181151161341e5760020281600202836000526020600020918201910161341d91906135aa565b5b505050565b602060405190810160405280600081525090565b6040805190810160405280600073ffffffffffffffffffffffffffffffffffffffff16815260200161346761346d565b81525090565b602060405190810160405280600081525090565b6134d491905b808211156134d057600080820160006101000a81549073ffffffffffffffffffffffffffffffffffffffff02191690556001820160006134c79190613600565b50600201613487565b5090565b90565b6134f991905b808211156134f55760008160009055506001016134dd565b5090565b90565b61353891905b80821115613534576000808201600090556001820160006135239190613648565b600282016000905550600301613502565b5090565b90565b61356491905b8082111561356057600081816135579190613669565b50600101613541565b5090565b90565b6135a791905b808211156135a357600081816101000a81549073ffffffffffffffffffffffffffffffffffffffff02191690555060010161356d565b5090565b90565b6135fd91905b808211156135f957600080820160006101000a81549073ffffffffffffffffffffffffffffffffffffffff02191690556001820160006135f09190613600565b506002016135b0565b5090565b90565b50805460018160011615610100020316600290046000825580601f106136265750613645565b601f01602090049060005260206000209081019061364491906134d7565b5b50565b508054600082559060005260206000209081019061366691906134d7565b50565b508054600082559060005260206000209081019061368791906134d7565b50565b60006136968235613eb1565b905092915050565b600082601f830112600081146136b3576136b8565b600080fd5b5081356136cc6136c782613d8f565b613d59565b915081818352602084019350602081019050838560208402820111600181146136f4576136f9565b600080fd5b5060005b8381101561372a5781613710888261368a565b8452602084019350602083019250506001810190506136fd565b5050505092915050565b600082601f830112600081146137495761374e565b600080fd5b50813561376261375d82613dc0565b613d59565b9150818183526020840193506020810190508385602084028201116001811461378a5761378f565b600080fd5b5060005b838110156137c057816137a68882613831565b845260208401935060208301925050600181019050613793565b5050505092915050565b600082601f830112600081146137df576137e4565b600080fd5b5081356137f86137f382613df1565b613d59565b915080825260208301602083018583830111600181146138175761381c565b600080fd5b50613828838284613edb565b50505092915050565b600061383d8235613ed1565b905092915050565b60006020828403126001811461385a5761385f565b600080fd5b50600061386e8482850161368a565b91505092915050565b6000806040838503126001811461388d57613892565b600080fd5b5060006138a18582860161368a565b925050602083013567ffffffffffffffff8111600181146138c1576138c6565b600080fd5b506138d3858286016137ca565b9150509250929050565b6000602082840312600181146138f2576138f7565b600080fd5b50600082013567ffffffffffffffff8111600181146139155761391a565b600080fd5b506139278482850161369e565b91505092915050565b6000602082840312600181146139455761394a565b600080fd5b50600082013567ffffffffffffffff8111600181146139685761396d565b600080fd5b5061397a84828501613734565b91505092915050565b6000806000806080858703126001811461399c576139a1565b600080fd5b50600085013567ffffffffffffffff8111600181146139bf576139c4565b600080fd5b506139d187828801613734565b945050602085013567ffffffffffffffff8111600181146139f1576139f6565b600080fd5b50613a0387828801613734565b935050604085013567ffffffffffffffff811160018114613a2357613a28565b600080fd5b50613a3587828801613734565b9250506060613a4687828801613831565b91505092959194509250565b600060208284031260018114613a6757613a6c565b600080fd5b50600082013567ffffffffffffffff811160018114613a8a57613a8f565b600080fd5b50613a9c848285016137ca565b91505092915050565b600060208284031260018114613aba57613abf565b600080fd5b506000613ace84828501613831565b91505092915050565b60008060008060808587031260018114613af057613af5565b600080fd5b506000613b0487828801613831565b9450506020613b1587828801613831565b9350506040613b2687828801613831565b9250506060613b3787828801613831565b91505092959194509250565b613b4c81613e7b565b82525050565b6000613b5d82613e40565b808452602084019350613b6f83613e26565b60005b82811015613ba157613b85868351613b43565b613b8e82613e61565b9150602086019550600181019050613b72565b50849250505092915050565b6000613bb882613e4b565b808452602084019350613bca83613e33565b60005b82811015613bfc57613be0868351613c4d565b613be982613e6e565b9150602086019550600181019050613bcd565b50849250505092915050565b613c1181613e9b565b82525050565b6000613c2282613e56565b808452613c36816020860160208601613eea565b613c3f81613f1d565b602085010191505092915050565b613c5681613ea7565b82525050565b60006020820190508181036000830152613c768184613b52565b905092915050565b60006020820190508181036000830152613c988184613bad565b905092915050565b6000602082019050613cb56000830184613c08565b92915050565b60006040820190508181036000830152613cd58185613c17565b9050613ce46020830184613b43565b9392505050565b60006080820190508181036000830152613d058187613c17565b9050613d146020830186613b43565b613d216040830185613c4d565b8181036060830152613d338184613bad565b905095945050505050565b6000602082019050613d536000830184613c4d565b92915050565b6000604051905081810181811067ffffffffffffffff82111760018114613d7f57613d84565b600080fd5b508060405250919050565b600067ffffffffffffffff821160018114613da957613dae565b600080fd5b50602082029050602081019050919050565b600067ffffffffffffffff821160018114613dda57613ddf565b600080fd5b50602082029050602081019050919050565b600067ffffffffffffffff821160018114613e0b57613e10565b600080fd5b50601f19601f8301169050602081019050919050565b6000602082019050919050565b6000602082019050919050565b600081519050919050565b600081519050919050565b600081519050919050565b6000602082019050919050565b6000602082019050919050565b600073ffffffffffffffffffffffffffffffffffffffff82169050919050565b60008115159050919050565b6000819050919050565b600073ffffffffffffffffffffffffffffffffffffffff82169050919050565b6000819050919050565b82818337600083830152505050565b60005b83811015613f08578082015181840152602081019050613eed565b83811115613f17576000848401525b50505050565b6000601f19601f83011690509190505600a265627a7a7230582040137ac8c77bea4771965f2f02b880b81d1812636a60a2de49a337bc2ec6866e6c6578706572696d656e74616cf50037",
  "source": "pragma solidity ^0.4.19;\r\npragma experimental ABIEncoderV2;\r\nimport \"./MyLib.sol\";\r\n\r\ncontract Club {\r\n\r\n  uint public registrationCost;\r\n  uint public termLength;\r\n  MyLib.User[] registeredUser;\r\n\r\n  uint[] candidates;\r\n  address[][] votes;\r\n  mapping (address => bool) public voted;\r\n  bool public voteStarted = false;\r\n  uint public timeVoteStarted =0;\r\n  uint public timeVoteEnded =0;\r\n  MyLib.Agent[] listOfRepresentatives;\r\n  MyLib.Sink[] listOfSinks;\r\n  uint[] public finalBudget;\r\n  uint public numberOfRepresentatives;\r\n  uint public numberOfSinks;\r\n  uint public quota = 5;\r\n  uint public gasCost = 1;\r\n  uint public numberOfTurns = 100;\r\n  uint public coalitionSizeFactor = 20;\r\n  uint public coalitionSizeFactorIncrease = 1;\r\n\r\n\r\n  function Club(uint reps, uint sinks, uint cost, uint term) public {\r\n    numberOfRepresentatives = reps;\r\n    numberOfSinks = sinks;\r\n    registrationCost = cost;\r\n    termLength = term;\r\n  }\r\n\r\n\r\n  function startVote() public {\r\n    if(timeVoteEnded + termLength < block.timestamp && voteStarted == false)\r\n    {\r\n      voteStarted = true;\r\n      timeVoteStarted = block.timestamp;\r\n    }\r\n  }\r\n\r\n  function vote(address[] myVote) public {\r\n    if(isRegistered() && voteStarted == true && voted[msg.sender] == false){\r\n      voted[msg.sender] = true;\r\n      votes.push(myVote);\r\n\r\n    }\r\n  }\r\n  function endVote() public\r\n  {\r\n    if(timeVoteStarted <= block.timestamp && voteStarted == true)\r\n    {\r\n      voteStarted = false;\r\n      timeVoteEnded = block.timestamp;\r\n      countVotes();\r\n    }\r\n\r\n  }\r\n  //second order copeland\r\n  function countVotes() internal {\r\n    uint i;\r\n    uint p;\r\n    uint[] memory copelandScore = new uint[](candidates.length);\r\n    uint[][] memory defeated = new uint[][](copelandScore.length);\r\n\r\n    //init2d array\r\n    for (i = 0; i < copelandScore.length; i++)\r\n    {\r\n      defeated[i] = new uint[](copelandScore.length);\r\n    }\r\n\r\n    //pairwise each candidate against each other\r\n    for (i = 0; i < copelandScore.length - 1; i++)\r\n    {\r\n      for (p = 1 + i; p < copelandScore.length; p++)\r\n      {\r\n        uint pairwise = pairwiseComparison(i,p);\r\n\r\n        if(pairwise == 0)\r\n        {\r\n          defeated[i][copelandScore[i]] = p;\r\n          copelandScore[i] ++;\r\n        }\r\n        else if (pairwise == 1) {\r\n          defeated[p][copelandScore[p]] = i;\r\n          copelandScore[p] ++;\r\n        }\r\n\r\n\r\n      }\r\n    }\r\n\r\n    //add up the copeland scores of defeated users\r\n    uint[] memory secondOrderCopeland = new uint[](copelandScore.length);\r\n    for(i =0; i < copelandScore.length; i++)\r\n    {\r\n      if(copelandScore[i] != 0)\r\n      {\r\n        for(p =0; p < copelandScore[i] ; p++)\r\n        {\r\n          secondOrderCopeland[i] += copelandScore[defeated[i][p]];\r\n        }\r\n      }\r\n    }\r\n\r\n    uint[] memory ranked = new uint[](copelandScore.length);\r\n    uint[] memory sortedSecondOrderCopeland = sort(copy(secondOrderCopeland));\r\n\r\n\r\n    for(i=0; i < copelandScore.length; i ++ )\r\n    {\r\n      for(p=0; p < copelandScore.length; p ++ )\r\n      {\r\n        if(sortedSecondOrderCopeland[i] == secondOrderCopeland[p])\r\n        {\r\n          ranked[i] = p;\r\n          //stops same score being matched twice\r\n          secondOrderCopeland[p] = copelandScore.length  * copelandScore.length;\r\n          break;\r\n        }\r\n      }\r\n    }\r\n\r\n    weightCandidates(ranked);\r\n  }\r\n\r\n\r\n  function copy(uint[] toCopy) internal pure returns (uint[])\r\n  {\r\n    uint[] memory copyTo = new uint[](toCopy.length);\r\n    for(uint i = 0; i < toCopy.length; i ++)\r\n    {\r\n      copyTo[i] = toCopy[i];\r\n    }\r\n    return copyTo;\r\n  }\r\n  function pairwiseComparison(uint i, uint p) internal constant returns (uint)\r\n  {\r\n    uint scorei = 0;\r\n    uint scorep = 0;\r\n    uint voteLength = votes.length;\r\n    address iaddress = registeredUser[candidates[i]].myAddress;\r\n    address paddress = registeredUser[candidates[p]].myAddress;\r\n\r\n    for(uint z =0; z < voteLength; z ++)\r\n    {\r\n      if (scorei <= voteLength / 2 && scorep <= voteLength /2)\r\n      {\r\n        //if not seen its the highest\r\n        uint votezlength = votes[z].length;\r\n        for(uint j =0; j < votezlength; j ++)\r\n        {\r\n          address voteaddress = votes[z][j];\r\n          if(voteaddress == iaddress )\r\n          {\r\n            scorei ++;\r\n            break;\r\n          }\r\n          else if(voteaddress == paddress )\r\n          {\r\n            scorep ++;\r\n            break;\r\n          }\r\n        }\r\n      }\r\n      else{\r\n        //if majority for one candidate no need to continue\r\n        break;\r\n      }\r\n    }\r\n    if(scorei > scorep)\r\n    {\r\n      return 0;\r\n    }\r\n    else if (scorep > scorei) {\r\n      return 1;\r\n    }\r\n    else\r\n    {\r\n      return 2;\r\n    }\r\n  }\r\n  function weightCandidates(uint[] ranked) public\r\n  {\r\n    for (uint i = 0; i < numberOfRepresentatives; i++)\r\n    {\r\n      MyLib.Agent memory a;\r\n      a.u = candidates[ranked[i]];\r\n      a.weight = 1;\r\n      listOfRepresentatives.push(a);\r\n    }\r\n    candidates.length = 0;\r\n\r\n  }\r\n  function sort(uint[] data) public returns (uint[]) {\r\n    quickSort(data, uint(0), uint(data.length - 1));\r\n    return data;\r\n  }\r\n\r\n  function quickSort(uint[] memory arr, uint left, uint right) internal{\r\n    uint i = left;\r\n    uint j = right;\r\n    if(i==j) return;\r\n    uint pivot = arr[uint(left + (right - left) / 2)];\r\n    while (i <= j) {\r\n      while (arr[uint(i)] > pivot) i++;\r\n      while (pivot > arr[uint(j)]) j--;\r\n      if (i <= j) {\r\n        (arr[uint(i)], arr[uint(j)]) = (arr[uint(j)], arr[uint(i)]);\r\n        i++;\r\n        j--;\r\n      }\r\n    }\r\n    if (left < j)\r\n    quickSort(arr, left, j);\r\n    if (i < right)\r\n    quickSort(arr, i, right);\r\n  }\r\n\r\n  function subsidize() public payable {}\r\n\r\n    function isRegistered() public constant returns (bool) {\r\n      for (uint i = 0; i < registeredUser.length; i++) {\r\n        if(registeredUser[i].myAddress == msg.sender)\r\n        {\r\n          return true;\r\n        }\r\n      }\r\n      return false;\r\n    }\r\n\r\n\r\n    function register(string name) public payable {\r\n      if (msg.value > registrationCost && (!addressUsed(msg.sender,registeredUser)) ) {\r\n        MyLib.User memory u;\r\n        u.myAddress = msg.sender;\r\n        u.name = name;\r\n        registeredUser.push(u);\r\n      }\r\n    }\r\n    //saves gass as dont have to look at candidates with no votes\r\n    function apply() public {\r\n      if(!addressUsed(msg.sender,buildCandidateList()))\r\n      {\r\n        for (uint i = 0; i < registeredUser.length; i++)\r\n        {\r\n          if(registeredUser[i].myAddress == msg.sender)\r\n          {\r\n            candidates.push(i);\r\n          }\r\n        }\r\n      }\r\n    }\r\n\r\n    function buildCandidateList() internal constant returns (MyLib.User[])\r\n    {\r\n      uint candidatesLength = candidates.length;\r\n      MyLib.User[] memory userList = new MyLib.User[](candidatesLength);\r\n      for(uint i = 0; i < candidatesLength; i ++)\r\n      {\r\n        userList[i] = registeredUser[candidates[i]];\r\n      }\r\n      return userList;\r\n    }\r\n\r\n    function addressUsed(address sample, MyLib.User[] userList) internal pure returns (bool)\r\n    {\r\n      for (uint i = 0; i < userList.length; i++)\r\n      {\r\n        if(userList[i].myAddress == sample)\r\n        {\r\n          return true;\r\n        }\r\n      }\r\n      return false;\r\n    }\r\n\r\n    function submitBudget(uint[] budget) public\r\n    {\r\n      for (uint i = 0; i < numberOfRepresentatives; i++)\r\n      {\r\n        if(registeredUser[listOfRepresentatives[i].u].myAddress == msg.sender)\r\n        {\r\n          listOfRepresentatives[i].budget = budget;\r\n        }\r\n      }\r\n    }\r\n    //who should be able to do this\r\n    function submitSink(address spender, string name) public\r\n    {\r\n      MyLib.Sink memory s;\r\n      s.name = name;\r\n      s.spender = spender;\r\n      listOfSinks.push(s);\r\n    }\r\n\r\n\r\n    function endBudgetSumbit() public\r\n    {\r\n      if(timeVoteEnded <= block.timestamp && voteStarted == false)\r\n      {\r\n        decideBudget();\r\n      }\r\n    }\r\n\r\n\r\n    function decideBudget() public\r\n    {\r\n      uint numberOfRepresentativesMemory = numberOfRepresentatives;\r\n      uint[][] memory coalitionBudgets = new uint[][](numberOfRepresentativesMemory);\r\n      uint[] memory coalitionSize = new uint[](numberOfRepresentativesMemory);\r\n      uint[] memory playerToCoalition = new uint[](numberOfRepresentativesMemory);\r\n      MyLib.Agent[] memory playerToAgent = new MyLib.Agent[](numberOfRepresentativesMemory);\r\n      uint i;\r\n      //init\r\n      for (i = 0; i < numberOfRepresentativesMemory; i++)\r\n      {\r\n        playerToAgent[i] = listOfRepresentatives[i];\r\n        coalitionBudgets[i] =  playerToAgent[i].budget;\r\n        coalitionSize[i] = 1;\r\n        playerToCoalition[i] = i;\r\n      }\r\n      //stack was full had to make player and round the same\r\n      uint player = 0;\r\n      while(winningCoalition(playerToCoalition,numberOfRepresentativesMemory,playerToAgent) == numberOfRepresentativesMemory)\r\n      {\r\n        //get utility in the current coalition\r\n        uint currentUtility = calculateUtility(coalitionBudgets[playerToCoalition[player]],playerToAgent[player].budget,coalitionSize[player]);\r\n        uint[] memory bestOffer = new uint[](1);\r\n        uint bestCoalition = numberOfRepresentativesMemory;\r\n\r\n        for(i = 0; i < numberOfRepresentativesMemory; i ++)\r\n        {\r\n          //dont check coalitions with no one or the one your in\r\n          if(playerToCoalition[player] != i && coalitionSize[i] != 0)\r\n          {\r\n            if(currentUtility +  calculate100Utility(coalitionSize[i]) < calculate100Utility(coalitionSize[i] + playerToAgent[player].weight) + calculateUtility(playerToAgent[player].budget, coalitionBudgets[i], coalitionSize[i] + playerToAgent[player].weight))\r\n            {\r\n              uint[] memory nego = negotiate(calculate100Utility(coalitionSize[i] + playerToAgent[player].weight), calculateUtility(playerToAgent[player].budget, coalitionBudgets[i], coalitionSize[i] + playerToAgent[player].weight),currentUtility, calculate100Utility(coalitionSize[i]));\r\n              if(nego[0] > bestOffer[0])\r\n              {\r\n                bestOffer = nego;\r\n                bestCoalition = i;\r\n              }\r\n            }\r\n\r\n          }\r\n        }\r\n\r\n        if(bestCoalition != numberOfRepresentativesMemory)\r\n        {\r\n          coalitionBudgets[bestCoalition] = negoToBudget(playerToAgent[player].budget, coalitionBudgets[bestCoalition], bestOffer, coalitionSize[bestCoalition] + playerToAgent[player].weight);\r\n          coalitionSize[playerToCoalition[player]] -= playerToAgent[player].weight;\r\n          coalitionSize[bestCoalition] += playerToAgent[player].weight;\r\n          playerToCoalition[player] = bestCoalition;\r\n\r\n        }\r\n\r\n        if(player == numberOfRepresentativesMemory - 1)\r\n        {\r\n          player = 0;\r\n        }\r\n        else{\r\n          player ++;\r\n        }\r\n        coalitionSizeFactor += coalitionSizeFactorIncrease;\r\n\r\n      }\r\n\r\n      finalBudget = coalitionBudgets[winningCoalition(playerToCoalition,numberOfRepresentativesMemory,playerToAgent)];\r\n\r\n    }\r\n\r\n    function winningCoalition(uint[] playerToCoalition, uint numberOfRepresentativesMemory,MyLib.Agent[] playerToAgent ) constant internal returns (uint)\r\n    {\r\n      uint[] memory weights = new uint[](numberOfRepresentativesMemory);\r\n      //add all the weights\r\n      for (uint i = 0; i < numberOfRepresentativesMemory ; i++)\r\n      {\r\n        weights[playerToCoalition[i]] += playerToAgent[i].weight;\r\n      }\r\n      for (i = 0; i < numberOfRepresentativesMemory ; i++)\r\n      {\r\n        if(weights[i] >= quota)\r\n        {\r\n          return i;\r\n        }\r\n      }\r\n      return numberOfRepresentativesMemory;\r\n    }\r\n\r\n    function calculate100Utility(uint coalitionSize) constant internal returns (uint)\r\n    {\r\n      return (uint) ((coalitionSizeFactor * 100) / (quota + 1 - coalitionSize) + ((100-coalitionSizeFactor) * 100));\r\n    }\r\n\r\n    function calculateUtility(uint[] budget1,uint[] budget2, uint coalitionSize) constant internal returns (uint)\r\n    {\r\n\r\n      uint shared = sharedBudget(budget1,budget2);\r\n      return (uint) ((coalitionSizeFactor * shared) / (quota + 1 - coalitionSize) + ((100-coalitionSizeFactor) * shared));\r\n    }\r\n\r\n    function sharedBudget(uint[] budget1,uint[] budget2) constant internal returns (uint)\r\n    {\r\n      uint shared = 0;\r\n      for(uint i = 0; i < numberOfSinks; i ++)\r\n      {\r\n        if(budget1[i] > budget2[i])\r\n        {\r\n          shared += budget2[i];\r\n        }\r\n        else{\r\n          shared += budget1[i];\r\n        }\r\n      }\r\n      return shared;\r\n    }\r\n    function negotiate(uint a_bar,uint b_bar,uint a_floor,uint b_floor)constant  public returns (uint[])\r\n    {\r\n\r\n      uint usefulTurn = ((a_bar + b_bar - a_floor - b_floor - 2) / gasCost) + 1;\r\n      uint a_proposal = 0;\r\n      uint b_proposal = 0;\r\n\r\n\r\n      if(usefulTurn > numberOfTurns)\r\n      {\r\n        usefulTurn = numberOfTurns;\r\n\r\n      }\r\n      uint freeUtility = a_bar + b_bar - ((usefulTurn - 1) * gasCost) - a_floor - b_floor - 2;\r\n      if(usefulTurn % 2 == 0)\r\n      {\r\n        b_proposal = b_floor + 1 + freeUtility + (((usefulTurn/ 2)-1) * gasCost) + 1;\r\n        a_proposal = a_bar + b_bar - b_proposal;\r\n      }\r\n      else\r\n      {\r\n        a_proposal = a_floor + 1 + freeUtility +  ((((usefulTurn + 1)/ 2)-1) * gasCost);\r\n        b_proposal = a_bar + b_bar - a_proposal;\r\n      }\r\n      //cant go over the best amount\r\n      if(a_proposal > a_bar)\r\n      {\r\n        b_proposal += a_proposal - a_bar;\r\n        a_proposal = a_bar;\r\n      }\r\n      else if(b_proposal > a_bar)\r\n      {\r\n        a_proposal += b_proposal - a_bar;\r\n        b_proposal = a_bar;\r\n      }\r\n\r\n      uint[] memory proposal = new uint[](2);\r\n      proposal[0] = a_proposal;\r\n      proposal[1] = b_proposal;\r\n      return proposal;\r\n\r\n\r\n\r\n    }\r\n\r\n    function negoToBudget(uint[] budget1, uint [] budget2, uint[] nego, uint coalitionSize) constant public returns (uint[])\r\n    {\r\n      uint[] memory newBudget = new uint[](numberOfSinks);\r\n\r\n      uint sharedab = sharedBudget(budget1,budget2);\r\n\r\n      uint individuala = (uint) (nego[0] / ((coalitionSizeFactor / (quota + 1 - coalitionSize)) + (100 - coalitionSizeFactor)) - sharedab);\r\n      uint individualb = (uint) (nego[1] / ((coalitionSizeFactor / (quota + 1 - coalitionSize)) + (100 - coalitionSizeFactor))- sharedab);\r\n\r\n      uint suma = 0;\r\n      uint sumb = 0;\r\n\r\n      for(uint i = 0; i < numberOfSinks; i ++)\r\n      {\r\n        if(budget1[i] > budget2[i])\r\n        {\r\n          suma += budget1[i];\r\n        }\r\n        else{\r\n          sumb += budget2[i];\r\n        }\r\n      }\r\n\r\n      uint total = 0;\r\n      for(i = 0; i < numberOfSinks; i ++)\r\n      {\r\n        if(budget1[i] > budget2[i])\r\n        {\r\n          total +=  budget2[i] + individuala * budget1[i] / suma;\r\n          newBudget[i] = budget2[i] + individuala * budget1[i] / suma;\r\n        }\r\n        else{\r\n          total +=  budget1[i] + individualb * budget2[i] / sumb;\r\n          newBudget[i] = budget1[i] + individualb * budget2[i] / sumb;\r\n        }\r\n      }\r\n      uint z = 0;\r\n      while(total < 100)\r\n      {\r\n        newBudget[z] += 1;\r\n        total +=1;\r\n        if(z == numberOfSinks - 1)\r\n        {\r\n          z = 0;\r\n        }\r\n        else\r\n        {\r\n          z ++;\r\n        }\r\n      }\r\n\r\n\r\n      return newBudget;\r\n    }\r\n\r\n\r\n\r\n    function listRegisteredUsers(uint number) public constant returns (string,address) {\r\n\r\n      return (registeredUser[number].name, registeredUser[number].myAddress);\r\n    }\r\n\r\n    function getRegisteredUsersLength() public constant returns (uint)\r\n    {\r\n      return registeredUser.length;\r\n    }\r\n\r\n    function listCandidates(uint number) public constant returns (string,address) {\r\n\r\n      return (registeredUser[candidates[number]].name, registeredUser[candidates[number]].myAddress);\r\n    }\r\n\r\n    function getCandidatesLength() public constant returns (uint)\r\n    {\r\n      return candidates.length;\r\n    }\r\n\r\n    function listRepresentives(uint number) public constant returns (string,address,uint,uint[]) {\r\n\r\n      return (registeredUser[listOfRepresentatives[number].u].name, registeredUser[listOfRepresentatives[number].u].myAddress, listOfRepresentatives[number].weight,listOfRepresentatives[number].budget);\r\n    }\r\n\r\n    function getRepresentivesLength() public constant returns (uint)\r\n    {\r\n      return listOfRepresentatives.length;\r\n    }\r\n\r\n    function listSinks(uint number) public constant returns (string,address) {\r\n\r\n      return (listOfSinks[number].name, listOfSinks[number].spender);\r\n    }\r\n\r\n    function getSinksLength() public constant returns (uint)\r\n    {\r\n      return listOfSinks.length;\r\n    }\r\n\r\n    function showVotes(uint number) public constant returns(address[])\r\n    {\r\n      return votes[number];\r\n    }\r\n\r\n    function listFinalBudget(uint number) public constant returns(uint)\r\n    {\r\n      return finalBudget[number];\r\n    }\r\n\r\n  }\r\n",
  "sourcePath": "C:\\Users\\JakeL\\Desktop\\MultiAgentSystemsOnTheBlockChain\\contracts\\Club.sol",
  "compiler": {
    "name": "solc",
    "version": "0.4.19+commit.c4cbbb05.Emscripten.clang"
  },
  "schemaVersion": "2.0.0",
  "updatedAt": "2018-04-08T02:18:01.192Z"
}