{
  "contractName": "RegistrationClub",
  "abi": [
    {
      "constant": true,
      "inputs": [
        {
          "name": "number",
          "type": "uint256"
        }
      ],
      "name": "listRegisteredUsers",
      "outputs": [
        {
          "name": "",
          "type": "string"
        },
        {
          "name": "",
          "type": "address"
        }
      ],
      "payable": false,
      "stateMutability": "view",
      "type": "function"
    },
    {
      "constant": true,
      "inputs": [],
      "name": "getRegisteredUsersLength",
      "outputs": [
        {
          "name": "",
          "type": "uint256"
        }
      ],
      "payable": false,
      "stateMutability": "view",
      "type": "function"
    },
    {
      "constant": true,
      "inputs": [],
      "name": "isRegistered",
      "outputs": [
        {
          "name": "",
          "type": "bool"
        }
      ],
      "payable": false,
      "stateMutability": "view",
      "type": "function"
    },
    {
      "constant": false,
      "inputs": [],
      "name": "subsidize",
      "outputs": [],
      "payable": true,
      "stateMutability": "payable",
      "type": "function"
    },
    {
      "constant": true,
      "inputs": [],
      "name": "registrationCost",
      "outputs": [
        {
          "name": "",
          "type": "uint256"
        }
      ],
      "payable": false,
      "stateMutability": "view",
      "type": "function"
    },
    {
      "constant": true,
      "inputs": [],
      "name": "getContractValue",
      "outputs": [
        {
          "name": "",
          "type": "uint256"
        }
      ],
      "payable": false,
      "stateMutability": "view",
      "type": "function"
    },
    {
      "constant": true,
      "inputs": [
        {
          "name": "text",
          "type": "string"
        }
      ],
      "name": "chat",
      "outputs": [],
      "payable": false,
      "stateMutability": "view",
      "type": "function"
    },
    {
      "constant": false,
      "inputs": [
        {
          "name": "name",
          "type": "string"
        }
      ],
      "name": "register",
      "outputs": [],
      "payable": true,
      "stateMutability": "payable",
      "type": "function"
    },
    {
      "inputs": [
        {
          "name": "cost",
          "type": "uint256"
        }
      ],
      "payable": false,
      "stateMutability": "nonpayable",
      "type": "constructor"
    },
    {
      "anonymous": false,
      "inputs": [
        {
          "indexed": false,
          "name": "message",
          "type": "string"
        },
        {
          "indexed": false,
          "name": "name",
          "type": "string"
        }
      ],
      "name": "message",
      "type": "event"
    }
  ],
  "bytecode": "0x6060604052341561000f57600080fd5b604051602080610c45833981016040528080519060200190919050508060018190555050610c03806100426000396000f30060606040526004361061008e576000357c0100000000000000000000000000000000000000000000000000000000900463ffffffff1680630cf35f44146100935780631afad36d146100cb57806322366844146100f457806390f10ed11461011d578063dc4a7f7f14610127578063dc82697c14610150578063de8caa1e14610179578063f2c298be146101d6575b600080fd5b341561009e57600080fd5b6100b46004808035906020019091905050610228565b6040516100c2929190610aa7565b60405180910390f35b34156100d657600080fd5b6100de610337565b6040516100eb9190610b0e565b60405180910390f35b34156100ff57600080fd5b610107610343565b6040516101149190610a8c565b60405180910390f35b6101256103eb565b005b341561013257600080fd5b61013a6103ed565b6040516101479190610b0e565b60405180910390f35b341561015b57600080fd5b6101636103f3565b6040516101709190610b0e565b60405180910390f35b341561018457600080fd5b6101d4600480803590602001908201803590602001908080601f01602080910402602001604051908101604052809392919081815260200183838082843782019150505050505091905050610412565b005b610226600480803590602001908201803590602001908080601f01602080910402602001604051908101604052809392919081815260200183838082843782019150505050505091905050610503565b005b6102306107d0565b6000808381548110151561024057fe5b906000526020600020906002020160010160008481548110151561026057fe5b906000526020600020906002020160000160009054906101000a900473ffffffffffffffffffffffffffffffffffffffff16818054600181600116156101000203166002900480601f0160208091040260200160405190810160405280929190818152602001828054600181600116156101000203166002900480156103275780601f106102fc57610100808354040283529160200191610327565b820191906000526020600020905b81548152906001019060200180831161030a57829003601f168201915b5050505050915091509150915091565b60008080549050905090565b600080600090505b6000805490508110156103e2573373ffffffffffffffffffffffffffffffffffffffff1660008281548110151561037e57fe5b906000526020600020906002020160000160009054906101000a900473ffffffffffffffffffffffffffffffffffffffff1673ffffffffffffffffffffffffffffffffffffffff1614156103d557600191506103e7565b808060010191505061034b565b600091505b5090565b565b60015481565b60003073ffffffffffffffffffffffffffffffffffffffff1631905090565b60008090505b6000805490508110156104ff573373ffffffffffffffffffffffffffffffffffffffff1660008281548110151561044b57fe5b906000526020600020906002020160000160009054906101000a900473ffffffffffffffffffffffffffffffffffffffff1673ffffffffffffffffffffffffffffffffffffffff1614156104f2577f36bf6cf02ecc60712e107054775debd1f2f255ab34df5fc4928044264d16fd1f826000838154811015156104ca57fe5b90600052602060002090600202016001016040516104e9929190610ad7565b60405180910390a15b8080600101915050610418565b5050565b61050b6107e4565b600154341180156106725750610670336000805480602002602001604051908101604052809291908181526020016000905b8282101561066757838290600052602060002090600202016040805190810160405290816000820160009054906101000a900473ffffffffffffffffffffffffffffffffffffffff1673ffffffffffffffffffffffffffffffffffffffff1673ffffffffffffffffffffffffffffffffffffffff168152602001600182018054600181600116156101000203166002900480601f01602080910402602001604051908101604052809291908181526020018280546001816001161561010002031660029004801561064f5780601f106106245761010080835404028352916020019161064f565b820191906000526020600020905b81548152906001019060200180831161063257829003601f168201915b5050505050815250508152602001906001019061053d565b5050505061074e565b155b1561074a5733816000019073ffffffffffffffffffffffffffffffffffffffff16908173ffffffffffffffffffffffffffffffffffffffff1681525050818160200181905250600080548060010182816106cc919061081a565b9160005260206000209060020201600083909190915060008201518160000160006101000a81548173ffffffffffffffffffffffffffffffffffffffff021916908373ffffffffffffffffffffffffffffffffffffffff160217905550602082015181600101908051906020019061074592919061084c565b505050505b5050565b600080600090505b82518110156107c4578373ffffffffffffffffffffffffffffffffffffffff16838281518110151561078457fe5b906020019060200201516000015173ffffffffffffffffffffffffffffffffffffffff1614156107b757600191506107c9565b8080600101915050610756565b600091505b5092915050565b602060405190810160405280600081525090565b6040805190810160405280600073ffffffffffffffffffffffffffffffffffffffff1681526020016108146108cc565b81525090565b8154818355818115116108475760020281600202836000526020600020918201910161084691906108e0565b5b505050565b828054600181600116156101000203166002900490600052602060002090601f016020900481019282601f1061088d57805160ff19168380011785556108bb565b828001600101855582156108bb579182015b828111156108ba57825182559160200191906001019061089f565b5b5090506108c89190610936565b5090565b602060405190810160405280600081525090565b61093391905b8082111561092f57600080820160006101000a81549073ffffffffffffffffffffffffffffffffffffffff0219169055600182016000610926919061095b565b506002016108e6565b5090565b90565b61095891905b8082111561095457600081600090555060010161093c565b5090565b90565b50805460018160011615610100020316600290046000825580601f1061098157506109a0565b601f01602090049060005260206000209081019061099f9190610936565b5b50565b6109ac81610b46565b82525050565b6109bb81610b66565b82525050565b60006109cc82610b3b565b8084526109e0816020860160208601610b7c565b6109e981610bb8565b602085010191505092915050565b600081546001811660008114610a145760018114610a3457610a75565b607f600283041680865260ff198316602087015260408601935050610a75565b60028204808652602086019550610a4a85610b29565b60005b82811015610a6c57815481890152600182019150602081019050610a4d565b80880195505050505b505092915050565b610a8681610b72565b82525050565b6000602082019050610aa160008301846109b2565b92915050565b60006040820190508181036000830152610ac181856109c1565b9050610ad060208301846109a3565b9392505050565b60006040820190508181036000830152610af181856109c1565b90508181036020830152610b0581846109f7565b90509392505050565b6000602082019050610b236000830184610a7d565b92915050565b60008160005260206000209050919050565b600081519050919050565b600073ffffffffffffffffffffffffffffffffffffffff82169050919050565b60008115159050919050565b6000819050919050565b60005b83811015610b9a578082015181840152602081019050610b7f565b83811460008114610baa57610bb1565b6000858501525b5050505050565b6000601f19601f83011690509190505600a265627a7a72305820cf64449a8bd98bff22dd75433289f4c0eb72417da14eade628040888825ebd236c6578706572696d656e74616cf50037",
  "source": "pragma solidity ^0.4.18;\r\npragma experimental ABIEncoderV2;\r\nimport \"./MyLib.sol\";\r\ncontract RegistrationClub {\r\n\r\n  MyLib.User[] registeredUser;\r\n  uint public registrationCost;\r\n\r\n  function RegistrationClub(uint cost) public {\r\n    registrationCost = cost;\r\n\r\n  }\r\n\r\n  function subsidize() public payable {}\r\n\r\n    function isRegistered() public constant returns (bool) {\r\n      for (uint i = 0; i < registeredUser.length; i++) {\r\n        if(registeredUser[i].myAddress == msg.sender)\r\n        {\r\n          return true;\r\n        }\r\n      }\r\n      return false;\r\n    }\r\n\r\n\r\n    function register(string name) public payable {\r\n      if (msg.value > registrationCost && (!addressUsed(msg.sender,registeredUser)) ) {\r\n        MyLib.User memory u;\r\n        u.myAddress = msg.sender;\r\n        u.name = name;\r\n        registeredUser.push(u);\r\n      }\r\n    }\r\n\r\n\r\n    function addressUsed(address sample, MyLib.User[] userList) internal pure returns (bool)\r\n    {\r\n      for (uint i = 0; i < userList.length; i++)\r\n      {\r\n        if(userList[i].myAddress == sample)\r\n        {\r\n          return true;\r\n        }\r\n      }\r\n      return false;\r\n    }\r\n\r\n    event message(string message, string name);\r\n\r\n    function chat(string text) public constant\r\n    {\r\n      for(uint i = 0; i < registeredUser.length; i ++)\r\n      {\r\n        if(registeredUser[i].myAddress == msg.sender)\r\n        {\r\n          message(text, registeredUser[i].name);\r\n        }\r\n      }\r\n    }\r\n\r\n\r\n\r\n    function listRegisteredUsers(uint number) public constant returns (string,address) {\r\n\r\n      return (registeredUser[number].name, registeredUser[number].myAddress);\r\n    }\r\n\r\n    function getRegisteredUsersLength() public constant returns (uint)\r\n    {\r\n      return registeredUser.length;\r\n    }\r\n\r\n    function getContractValue() public constant returns (uint)\r\n    {\r\n      return this.balance;\r\n    }\r\n\r\n\r\n  }\r\n",
  "sourcePath": "C:\\Users\\JakeL\\Desktop\\MultiAgentSystemsOnTheBlockChain\\contracts\\RegistrationClub.sol",
  "compiler": {
    "name": "solc",
    "version": "0.4.18+commit.9cf6e910.Emscripten.clang"
  },
  "schemaVersion": "1.0.1",
  "updatedAt": "2018-04-14T19:04:29.684Z"
}