{
  "contractName": "RegistrationClub",
  "abi": [
    {
      "constant": true,
      "inputs": [
        {
          "name": "number",
          "type": "uint256"
        }
      ],
      "name": "listRegisteredUsers",
      "outputs": [
        {
          "name": "",
          "type": "string"
        },
        {
          "name": "",
          "type": "address"
        }
      ],
      "payable": false,
      "stateMutability": "view",
      "type": "function"
    },
    {
      "constant": true,
      "inputs": [],
      "name": "getRegisteredUsersLength",
      "outputs": [
        {
          "name": "",
          "type": "uint256"
        }
      ],
      "payable": false,
      "stateMutability": "view",
      "type": "function"
    },
    {
      "constant": true,
      "inputs": [],
      "name": "isRegistered",
      "outputs": [
        {
          "name": "",
          "type": "bool"
        }
      ],
      "payable": false,
      "stateMutability": "view",
      "type": "function"
    },
    {
      "constant": false,
      "inputs": [],
      "name": "subsidize",
      "outputs": [],
      "payable": true,
      "stateMutability": "payable",
      "type": "function"
    },
    {
      "constant": true,
      "inputs": [],
      "name": "sayhi",
      "outputs": [],
      "payable": false,
      "stateMutability": "view",
      "type": "function"
    },
    {
      "constant": true,
      "inputs": [],
      "name": "registrationCost",
      "outputs": [
        {
          "name": "",
          "type": "uint256"
        }
      ],
      "payable": false,
      "stateMutability": "view",
      "type": "function"
    },
    {
      "constant": true,
      "inputs": [],
      "name": "getContractValue",
      "outputs": [
        {
          "name": "",
          "type": "uint256"
        }
      ],
      "payable": false,
      "stateMutability": "view",
      "type": "function"
    },
    {
      "constant": true,
      "inputs": [
        {
          "name": "text",
          "type": "string"
        }
      ],
      "name": "chat",
      "outputs": [],
      "payable": false,
      "stateMutability": "view",
      "type": "function"
    },
    {
      "constant": false,
      "inputs": [
        {
          "name": "name",
          "type": "string"
        }
      ],
      "name": "register",
      "outputs": [],
      "payable": true,
      "stateMutability": "payable",
      "type": "function"
    },
    {
      "inputs": [
        {
          "name": "cost",
          "type": "uint256"
        }
      ],
      "payable": false,
      "stateMutability": "nonpayable",
      "type": "constructor"
    },
    {
      "anonymous": false,
      "inputs": [
        {
          "indexed": false,
          "name": "message",
          "type": "string"
        },
        {
          "indexed": false,
          "name": "name",
          "type": "string"
        }
      ],
      "name": "message",
      "type": "event"
    }
  ],
  "bytecode": "0x6060604052341561000f57600080fd5b604051602080610d3d833981016040528080519060200190919050508060018190555050610cfb806100426000396000f300606060405260043610610099576000357c0100000000000000000000000000000000000000000000000000000000900463ffffffff1680630cf35f441461009e5780631afad36d146100d657806322366844146100ff57806390f10ed114610128578063bc9c707d14610132578063dc4a7f7f14610147578063dc82697c14610170578063de8caa1e14610199578063f2c298be146101f6575b600080fd5b34156100a957600080fd5b6100bf6004808035906020019091905050610248565b6040516100cd929190610b6c565b60405180910390f35b34156100e157600080fd5b6100e9610357565b6040516100f69190610c06565b60405180910390f35b341561010a57600080fd5b610112610363565b60405161011f9190610b51565b60405180910390f35b61013061040b565b005b341561013d57600080fd5b61014561040d565b005b341561015257600080fd5b61015a610444565b6040516101679190610c06565b60405180910390f35b341561017b57600080fd5b61018361044a565b6040516101909190610c06565b60405180910390f35b34156101a457600080fd5b6101f4600480803590602001908201803590602001908080601f01602080910402602001604051908101604052809392919081815260200183838082843782019150505050505091905050610469565b005b610246600480803590602001908201803590602001908080601f0160208091040260200160405190810160405280939291908181526020018383808284378201915050505050509190505061055a565b005b610250610827565b6000808381548110151561026057fe5b906000526020600020906002020160010160008481548110151561028057fe5b906000526020600020906002020160000160009054906101000a900473ffffffffffffffffffffffffffffffffffffffff16818054600181600116156101000203166002900480601f0160208091040260200160405190810160405280929190818152602001828054600181600116156101000203166002900480156103475780601f1061031c57610100808354040283529160200191610347565b820191906000526020600020905b81548152906001019060200180831161032a57829003601f168201915b5050505050915091509150915091565b60008080549050905090565b600080600090505b600080549050811015610402573373ffffffffffffffffffffffffffffffffffffffff1660008281548110151561039e57fe5b906000526020600020906002020160000160009054906101000a900473ffffffffffffffffffffffffffffffffffffffff1673ffffffffffffffffffffffffffffffffffffffff1614156103f55760019150610407565b808060010191505061036b565b600091505b5090565b565b7f36bf6cf02ecc60712e107054775debd1f2f255ab34df5fc4928044264d16fd1f60405161043a90610bd3565b60405180910390a1565b60015481565b60003073ffffffffffffffffffffffffffffffffffffffff1631905090565b60008090505b600080549050811015610556573373ffffffffffffffffffffffffffffffffffffffff166000828154811015156104a257fe5b906000526020600020906002020160000160009054906101000a900473ffffffffffffffffffffffffffffffffffffffff1673ffffffffffffffffffffffffffffffffffffffff161415610549577f36bf6cf02ecc60712e107054775debd1f2f255ab34df5fc4928044264d16fd1f8260008381548110151561052157fe5b9060005260206000209060020201600101604051610540929190610b9c565b60405180910390a15b808060010191505061046f565b5050565b61056261083b565b600154341180156106c957506106c7336000805480602002602001604051908101604052809291908181526020016000905b828210156106be57838290600052602060002090600202016040805190810160405290816000820160009054906101000a900473ffffffffffffffffffffffffffffffffffffffff1673ffffffffffffffffffffffffffffffffffffffff1673ffffffffffffffffffffffffffffffffffffffff168152602001600182018054600181600116156101000203166002900480601f0160208091040260200160405190810160405280929190818152602001828054600181600116156101000203166002900480156106a65780601f1061067b576101008083540402835291602001916106a6565b820191906000526020600020905b81548152906001019060200180831161068957829003601f168201915b50505050508152505081526020019060010190610594565b505050506107a5565b155b156107a15733816000019073ffffffffffffffffffffffffffffffffffffffff16908173ffffffffffffffffffffffffffffffffffffffff1681525050818160200181905250600080548060010182816107239190610871565b9160005260206000209060020201600083909190915060008201518160000160006101000a81548173ffffffffffffffffffffffffffffffffffffffff021916908373ffffffffffffffffffffffffffffffffffffffff160217905550602082015181600101908051906020019061079c9291906108a3565b505050505b5050565b600080600090505b825181101561081b578373ffffffffffffffffffffffffffffffffffffffff1683828151811015156107db57fe5b906020019060200201516000015173ffffffffffffffffffffffffffffffffffffffff16141561080e5760019150610820565b80806001019150506107ad565b600091505b5092915050565b602060405190810160405280600081525090565b6040805190810160405280600073ffffffffffffffffffffffffffffffffffffffff16815260200161086b610923565b81525090565b81548183558181151161089e5760020281600202836000526020600020918201910161089d9190610937565b5b505050565b828054600181600116156101000203166002900490600052602060002090601f016020900481019282601f106108e457805160ff1916838001178555610912565b82800160010185558215610912579182015b828111156109115782518255916020019190600101906108f6565b5b50905061091f919061098d565b5090565b602060405190810160405280600081525090565b61098a91905b8082111561098657600080820160006101000a81549073ffffffffffffffffffffffffffffffffffffffff021916905560018201600061097d91906109b2565b5060020161093d565b5090565b90565b6109af91905b808211156109ab576000816000905550600101610993565b5090565b90565b50805460018160011615610100020316600290046000825580601f106109d857506109f7565b601f0160209004906000526020600020908101906109f6919061098d565b5b50565b610a0381610c3e565b82525050565b610a1281610c5e565b82525050565b6000610a2382610c33565b808452610a37816020860160208601610c74565b610a4081610cb0565b602085010191505092915050565b600081546001811660008114610a6b5760018114610a8b57610acc565b607f600283041680865260ff198316602087015260408601935050610acc565b60028204808652602086019550610aa185610c21565b60005b82811015610ac357815481890152600182019150602081019050610aa4565b80880195505050505b505092915050565b6000600482527f6a616b65000000000000000000000000000000000000000000000000000000006020830152604082019050919050565b6000600282527f68690000000000000000000000000000000000000000000000000000000000006020830152604082019050919050565b610b4b81610c6a565b82525050565b6000602082019050610b666000830184610a09565b92915050565b60006040820190508181036000830152610b868185610a18565b9050610b9560208301846109fa565b9392505050565b60006040820190508181036000830152610bb68185610a18565b90508181036020830152610bca8184610a4e565b90509392505050565b60006040820190508181036000830152610bec81610b0b565b90508181036020830152610bff81610ad4565b9050919050565b6000602082019050610c1b6000830184610b42565b92915050565b60008160005260206000209050919050565b600081519050919050565b600073ffffffffffffffffffffffffffffffffffffffff82169050919050565b60008115159050919050565b6000819050919050565b60005b83811015610c92578082015181840152602081019050610c77565b83811460008114610ca257610ca9565b6000858501525b5050505050565b6000601f19601f83011690509190505600a265627a7a723058207154f8b8a3c54d1d853bd8f48d3f887d57feed51fc54b66128d4e5b8766997a16c6578706572696d656e74616cf50037",
  "source": "pragma solidity ^0.4.18;\r\npragma experimental ABIEncoderV2;\r\nimport \"./MyLib.sol\";\r\ncontract RegistrationClub {\r\n\r\n  MyLib.User[] registeredUser;\r\n  uint public registrationCost;\r\n\r\n  function RegistrationClub(uint cost) public {\r\n    registrationCost = cost;\r\n\r\n  }\r\n\r\n  function subsidize() public payable {}\r\n\r\n    function isRegistered() public constant returns (bool) {\r\n      for (uint i = 0; i < registeredUser.length; i++) {\r\n        if(registeredUser[i].myAddress == msg.sender)\r\n        {\r\n          return true;\r\n        }\r\n      }\r\n      return false;\r\n    }\r\n\r\n\r\n    function register(string name) public payable {\r\n      if (msg.value > registrationCost && (!addressUsed(msg.sender,registeredUser)) ) {\r\n        MyLib.User memory u;\r\n        u.myAddress = msg.sender;\r\n        u.name = name;\r\n        registeredUser.push(u);\r\n      }\r\n    }\r\n\r\n\r\n    function addressUsed(address sample, MyLib.User[] userList) internal pure returns (bool)\r\n    {\r\n      for (uint i = 0; i < userList.length; i++)\r\n      {\r\n        if(userList[i].myAddress == sample)\r\n        {\r\n          return true;\r\n        }\r\n      }\r\n      return false;\r\n    }\r\n\r\n    event message(string message, string name);\r\n\r\n    function chat(string text) public constant\r\n    {\r\n      for(uint i = 0; i < registeredUser.length; i ++)\r\n      {\r\n        if(registeredUser[i].myAddress == msg.sender)\r\n        {\r\n          message(text, registeredUser[i].name);\r\n        }\r\n      }\r\n    }\r\n\r\n    function sayhi() public constant\r\n    {\r\n      message(\"hi\",\"jake\");\r\n    }\r\n\r\n\r\n\r\n    function listRegisteredUsers(uint number) public constant returns (string,address) {\r\n\r\n      return (registeredUser[number].name, registeredUser[number].myAddress);\r\n    }\r\n\r\n    function getRegisteredUsersLength() public constant returns (uint)\r\n    {\r\n      return registeredUser.length;\r\n    }\r\n\r\n    function getContractValue() public constant returns (uint)\r\n    {\r\n      return this.balance;\r\n    }\r\n\r\n\r\n  }\r\n",
  "sourcePath": "C:\\Users\\JakeL\\Desktop\\MultiAgentSystemsOnTheBlockChain\\contracts\\RegistrationClub.sol",
  "compiler": {
    "name": "solc",
    "version": "0.4.18+commit.9cf6e910.Emscripten.clang"
  },
  "schemaVersion": "1.0.1",
  "updatedAt": "2018-04-16T19:57:42.733Z"
}