{
  "contractName": "RegistrationClub",
  "abi": [
    {
      "constant": true,
      "inputs": [],
      "name": "registrationCost",
      "outputs": [
        {
          "name": "",
          "type": "uint256"
        }
      ],
      "payable": false,
      "stateMutability": "view",
      "type": "function"
    },
    {
      "inputs": [
        {
          "name": "cost",
          "type": "uint256"
        }
      ],
      "payable": false,
      "stateMutability": "nonpayable",
      "type": "constructor"
    },
    {
      "anonymous": false,
      "inputs": [
        {
          "indexed": false,
          "name": "message",
          "type": "string"
        },
        {
          "indexed": false,
          "name": "name",
          "type": "string"
        }
      ],
      "name": "message",
      "type": "event"
    },
    {
      "constant": false,
      "inputs": [
        {
          "name": "name",
          "type": "string"
        }
      ],
      "name": "register",
      "outputs": [],
      "payable": true,
      "stateMutability": "payable",
      "type": "function"
    },
    {
      "constant": false,
      "inputs": [
        {
          "name": "suggestion",
          "type": "uint256"
        }
      ],
      "name": "changeRegistrationCostSuggestion",
      "outputs": [],
      "payable": false,
      "stateMutability": "nonpayable",
      "type": "function"
    },
    {
      "constant": false,
      "inputs": [],
      "name": "changeRegistrationCost",
      "outputs": [],
      "payable": false,
      "stateMutability": "nonpayable",
      "type": "function"
    },
    {
      "constant": true,
      "inputs": [],
      "name": "checkRegistrationSuggestions",
      "outputs": [
        {
          "name": "",
          "type": "uint256"
        }
      ],
      "payable": false,
      "stateMutability": "view",
      "type": "function"
    },
    {
      "constant": false,
      "inputs": [],
      "name": "subsidize",
      "outputs": [],
      "payable": true,
      "stateMutability": "payable",
      "type": "function"
    },
    {
      "constant": true,
      "inputs": [
        {
          "name": "text",
          "type": "string"
        }
      ],
      "name": "chat",
      "outputs": [],
      "payable": false,
      "stateMutability": "view",
      "type": "function"
    },
    {
      "constant": true,
      "inputs": [],
      "name": "sayhi",
      "outputs": [],
      "payable": false,
      "stateMutability": "view",
      "type": "function"
    },
    {
      "constant": true,
      "inputs": [
        {
          "name": "number",
          "type": "uint256"
        }
      ],
      "name": "listRegisteredUsers",
      "outputs": [
        {
          "name": "",
          "type": "string"
        },
        {
          "name": "",
          "type": "address"
        }
      ],
      "payable": false,
      "stateMutability": "view",
      "type": "function"
    },
    {
      "constant": true,
      "inputs": [],
      "name": "getRegisteredUsersLength",
      "outputs": [
        {
          "name": "",
          "type": "uint256"
        }
      ],
      "payable": false,
      "stateMutability": "view",
      "type": "function"
    },
    {
      "constant": true,
      "inputs": [],
      "name": "getContractValue",
      "outputs": [
        {
          "name": "",
          "type": "uint256"
        }
      ],
      "payable": false,
      "stateMutability": "view",
      "type": "function"
    }
  ],
  "bytecode": "0x6060604052341561000f57600080fd5b604051602080611029833981016040526100329067800000000000000090610053565b806001819055505061008f565b600061004b8251610085565b905092915050565b6000602082840312600181146100685761006d565b600080fd5b50600061007c8482850161003f565b91505092915050565b6000819050919050565b610f8b8061009e6000396000f3006060604052600436106100af576000357c0100000000000000000000000000000000000000000000000000000000900463ffffffff1680630cf35f44146100b45780631afad36d146100eb5780637392445a1461011457806390f10ed114610136578063a90cc0d914610140578063bc9c707d14610155578063c0fc41e61461016a578063dc4a7f7f14610193578063dc82697c146101bc578063de8caa1e146101e5578063f2c298be14610207575b600080fd5b34156100bf57600080fd5b6100d460046100cf903690610c13565b61021e565b6040516100e2929190610d8d565b60405180910390f35b34156100f657600080fd5b6100fe61032d565b60405161010b9190610e27565b60405180910390f35b341561011f57600080fd5b610134600461012f903690610c13565b610339565b005b61013e6103ea565b005b341561014b57600080fd5b6101536103ec565b005b341561016057600080fd5b61016861040e565b005b341561017557600080fd5b61017d610445565b60405161018a9190610e27565b60405180910390f35b341561019e57600080fd5b6101a6610512565b6040516101b39190610e27565b60405180910390f35b34156101c757600080fd5b6101cf610518565b6040516101dc9190610e27565b60405180910390f35b34156101f057600080fd5b6102056004610200903690610bc0565b610537565b005b61021c6004610217903690610bc0565b610628565b005b610226610954565b6000808381548110151561023657fe5b906000526020600020906003020160010160008481548110151561025657fe5b906000526020600020906003020160000160009054906101000a900473ffffffffffffffffffffffffffffffffffffffff16818054600181600116156101000203166002900480601f01602080910402602001604051908101604052809291908181526020018280546001816001161561010002031660029004801561031d5780601f106102f25761010080835404028352916020019161031d565b820191906000526020600020905b81548152906001019060200180831161030057829003601f168201915b5050505050915091509150915091565b60008080549050905090565b60008090505b6000805490508110156103e6573373ffffffffffffffffffffffffffffffffffffffff1660008281548110151561037257fe5b906000526020600020906003020160000160009054906101000a900473ffffffffffffffffffffffffffffffffffffffff1673ffffffffffffffffffffffffffffffffffffffff1614156103d9578160026000838152602001908152602001600020819055505b808060010191505061033f565b5050565b565b60006103f6610445565b90506001548114151561040b57806001819055505b50565b7f36bf6cf02ecc60712e107054775debd1f2f255ab34df5fc4928044264d16fd1f60405161043b90610df4565b60405180910390a1565b60008060008060008060016000805490501115610504576001600360026000805490500281151561047257fe5b04019450600093505b600080549050841015610503576000925060026000858152602001908152602001600020549150600090505b6000805490508110156104e55760026000828152602001908152602001600020548214156104d85782806001019350505b80806001019150506104a7565b84831015156104f65781955061050a565b838060010194505061047b565b5b60015495505b505050505090565b60015481565b60003073ffffffffffffffffffffffffffffffffffffffff1631905090565b60008090505b600080549050811015610624573373ffffffffffffffffffffffffffffffffffffffff1660008281548110151561057057fe5b906000526020600020906003020160000160009054906101000a900473ffffffffffffffffffffffffffffffffffffffff1673ffffffffffffffffffffffffffffffffffffffff161415610617577f36bf6cf02ecc60712e107054775debd1f2f255ab34df5fc4928044264d16fd1f826000838154811015156105ef57fe5b906000526020600020906003020160010160405161060e929190610dbd565b60405180910390a15b808060010191505061053d565b5050565b610630610968565b60015434101580156107b457506107b2336000805480602002602001604051908101604052809291908181526020016000905b828210156107a95783829060005260206000209060030201606060405190810160405290816000820160009054906101000a900473ffffffffffffffffffffffffffffffffffffffff1673ffffffffffffffffffffffffffffffffffffffff1673ffffffffffffffffffffffffffffffffffffffff168152602001600182018054600181600116156101000203166002900480601f0160208091040260200160405190810160405280929190818152602001828054600181600116156101000203166002900480156107765780601f1061074b57610100808354040283529160200191610776565b820191906000526020600020905b81548152906001019060200180831161075957829003601f168201915b505050505081526020016002820160009054906101000a900460ff16151515158152505081526020019060010190610663565b505050506108d2565b155b156108ac5733816000019073ffffffffffffffffffffffffffffffffffffffff16908173ffffffffffffffffffffffffffffffffffffffff16815250508181602001819052506000805480600101828161080e91906109a8565b9160005260206000209060030201600083909190915060008201518160000160006101000a81548173ffffffffffffffffffffffffffffffffffffffff021916908373ffffffffffffffffffffffffffffffffffffffff16021790555060208201518160010190805190602001906108879291906109da565b5060408201518160020160006101000a81548160ff0219169083151502179055505050505b600154600260006001600080549050038152602001908152602001600020819055505050565b600080600090505b8251811015610948578373ffffffffffffffffffffffffffffffffffffffff16838281518110151561090857fe5b906020019060200201516000015173ffffffffffffffffffffffffffffffffffffffff16141561093b576001915061094d565b80806001019150506108da565b600091505b5092915050565b602060405190810160405280600081525090565b606060405190810160405280600073ffffffffffffffffffffffffffffffffffffffff168152602001610999610a5a565b81526020016000151581525090565b8154818355818115116109d5576003028160030283600052602060002091820191016109d49190610a6e565b5b505050565b828054600181600116156101000203166002900490600052602060002090601f016020900481019282601f10610a1b57805160ff1916838001178555610a49565b82800160010185558215610a49579182015b82811115610a48578251825591602001919060010190610a2d565b5b509050610a569190610ad8565b5090565b602060405190810160405280600081525090565b610ad591905b80821115610ad157600080820160006101000a81549073ffffffffffffffffffffffffffffffffffffffff0219169055600182016000610ab49190610afd565b6002820160006101000a81549060ff021916905550600301610a74565b5090565b90565b610afa91905b80821115610af6576000816000905550600101610ade565b5090565b90565b50805460018160011615610100020316600290046000825580601f10610b235750610b42565b601f016020900490600052602060002090810190610b419190610ad8565b5b50565b600082601f83011260008114610b5a57610b5f565b600080fd5b508135610b73610b6e82610e78565b610e42565b91508082526020830160208301858383011160018114610b9257610b97565b600080fd5b50610ba3838284610efe565b50505092915050565b6000610bb88235610ef4565b905092915050565b600060208284031260018114610bd557610bda565b600080fd5b50600082013567ffffffffffffffff811160018114610bf857610bfd565b600080fd5b50610c0a84828501610b45565b91505092915050565b600060208284031260018114610c2857610c2d565b600080fd5b506000610c3c84828501610bac565b91505092915050565b610c4e81610eca565b82525050565b6000610c5f82610ebf565b808452610c73816020860160208601610f0d565b610c7c81610f40565b602085010191505092915050565b600081546001811660008114610ca75760018114610cc757610d08565b607f600283041680865260ff198316602087015260408601935050610d08565b60028204808652602086019550610cdd85610ead565b60005b82811015610cff57815481890152600182019150602081019050610ce0565b80880195505050505b505092915050565b6000600482527f6a616b65000000000000000000000000000000000000000000000000000000006020830152604082019050919050565b6000600282527f68690000000000000000000000000000000000000000000000000000000000006020830152604082019050919050565b610d8781610eea565b82525050565b60006040820190508181036000830152610da78185610c54565b9050610db66020830184610c45565b9392505050565b60006040820190508181036000830152610dd78185610c54565b90508181036020830152610deb8184610c8a565b90509392505050565b60006040820190508181036000830152610e0d81610d47565b90508181036020830152610e2081610d10565b9050919050565b6000602082019050610e3c6000830184610d7e565b92915050565b6000604051905081810181811067ffffffffffffffff82111760018114610e6857610e6d565b600080fd5b508060405250919050565b600067ffffffffffffffff821160018114610e9257610e97565b600080fd5b50601f19601f8301169050602081019050919050565b60008160005260206000209050919050565b600081519050919050565b600073ffffffffffffffffffffffffffffffffffffffff82169050919050565b6000819050919050565b6000819050919050565b82818337600083830152505050565b60005b83811015610f2b578082015181840152602081019050610f10565b83811115610f3a576000848401525b50505050565b6000601f19601f83011690509190505600a265627a7a72305820ee020c9517f7a97a09837ea2029bf67b10131c14d9520373249c954a68c502cd6c6578706572696d656e74616cf50037",
  "source": "pragma solidity ^0.4.18;\r\npragma experimental ABIEncoderV2;\r\nimport \"./MyLib.sol\";\r\ncontract RegistrationClub {\r\n\r\n  MyLib.User[] registeredUser;\r\n  uint public registrationCost;\r\n  mapping(uint => uint) registrationCostSuggestions;\r\n\r\n  function RegistrationClub(uint cost) public {\r\n    registrationCost = cost;\r\n\r\n  }\r\n\r\n  function register(string name) public payable {\r\n    if (msg.value >= registrationCost && (!isRegistered(msg.sender,registeredUser)) ) {\r\n      MyLib.User memory u;\r\n      u.myAddress = msg.sender;\r\n      u.name = name;\r\n      registeredUser.push(u);\r\n    }\r\n    //initlisate suggestions as registrationCost\r\n    registrationCostSuggestions[registeredUser.length  - 1] = registrationCost;\r\n  }\r\n\r\n\r\n  function isRegistered(address sample, MyLib.User[] userList) internal pure returns (bool)\r\n  {\r\n    for (uint i = 0; i < userList.length; i++)\r\n    {\r\n      if(userList[i].myAddress == sample)\r\n      {\r\n        return true;\r\n      }\r\n    }\r\n    return false;\r\n  }\r\n\r\n  function changeRegistrationCostSuggestion(uint suggestion) public {\r\n    for (uint i = 0; i < registeredUser.length; i++)\r\n    {\r\n      if(registeredUser[i].myAddress == msg.sender)\r\n      {\r\n        registrationCostSuggestions[i] = suggestion;\r\n      }\r\n    }\r\n  }\r\n\r\n  function changeRegistrationCost() public {\r\n    uint suggestion = checkRegistrationSuggestions();\r\n    if(suggestion != registrationCost)\r\n    {\r\n      registrationCost = suggestion;\r\n    }\r\n  }\r\n\r\n  function checkRegistrationSuggestions() constant public returns (uint) {\r\n    if(registeredUser.length > 1)\r\n    {\r\n      uint superMajority = ((registeredUser.length * 2) / 3) + 1  ;\r\n      for (uint i = 0; i < registeredUser.length; i++)\r\n      {\r\n        uint count = 0;\r\n        uint iSuggestion = registrationCostSuggestions[i];\r\n        for (uint p = 0; p < registeredUser.length; p++)\r\n        {\r\n          if(iSuggestion == registrationCostSuggestions[p])\r\n          {\r\n            count ++;\r\n          }\r\n        }\r\n        if (count >= superMajority)\r\n        {\r\n          return iSuggestion;\r\n        }\r\n      }\r\n    }\r\n      return registrationCost;\r\n  }\r\n  function subsidize() public payable {}\r\n\r\n\r\n\r\n    event message(string message, string name);\r\n\r\n    function chat(string text) public constant\r\n    {\r\n      for(uint i = 0; i < registeredUser.length; i ++)\r\n      {\r\n        if(registeredUser[i].myAddress == msg.sender)\r\n        {\r\n          message(text, registeredUser[i].name);\r\n        }\r\n      }\r\n    }\r\n\r\n    function sayhi() public constant\r\n    {\r\n      message(\"hi\",\"jake\");\r\n    }\r\n\r\n\r\n\r\n    function listRegisteredUsers(uint number) public constant returns (string,address) {\r\n\r\n      return (registeredUser[number].name, registeredUser[number].myAddress);\r\n    }\r\n\r\n    function getRegisteredUsersLength() public constant returns (uint)\r\n    {\r\n      return registeredUser.length;\r\n    }\r\n\r\n    function getContractValue() public constant returns (uint)\r\n    {\r\n      return this.balance;\r\n    }\r\n\r\n\r\n  }\r\n",
  "sourcePath": "C:\\Users\\JakeL\\Desktop\\MultiAgentSystemsOnTheBlockChain\\contracts\\RegistrationClub.sol",
  "compiler": {
    "name": "solc",
    "version": "0.4.19+commit.c4cbbb05.Emscripten.clang"
  },
  "schemaVersion": "2.0.0",
  "updatedAt": "2018-04-26T01:24:34.139Z"
}