{
  "contractName": "RegistrationClub",
  "abi": [
    {
      "constant": true,
      "inputs": [
        {
          "name": "number",
          "type": "uint256"
        }
      ],
      "name": "listRegisteredUsers",
      "outputs": [
        {
          "name": "",
          "type": "string"
        },
        {
          "name": "",
          "type": "address"
        }
      ],
      "payable": false,
      "stateMutability": "view",
      "type": "function"
    },
    {
      "constant": true,
      "inputs": [],
      "name": "getRegisteredUsersLength",
      "outputs": [
        {
          "name": "",
          "type": "uint256"
        }
      ],
      "payable": false,
      "stateMutability": "view",
      "type": "function"
    },
    {
      "constant": false,
      "inputs": [
        {
          "name": "suggestion",
          "type": "uint256"
        }
      ],
      "name": "changeRegistrationCostSuggestion",
      "outputs": [],
      "payable": false,
      "stateMutability": "nonpayable",
      "type": "function"
    },
    {
      "constant": false,
      "inputs": [],
      "name": "subsidize",
      "outputs": [],
      "payable": true,
      "stateMutability": "payable",
      "type": "function"
    },
    {
      "constant": false,
      "inputs": [],
      "name": "changeRegistrationCost",
      "outputs": [],
      "payable": false,
      "stateMutability": "nonpayable",
      "type": "function"
    },
    {
      "constant": true,
      "inputs": [],
      "name": "sayhi",
      "outputs": [],
      "payable": false,
      "stateMutability": "view",
      "type": "function"
    },
    {
      "constant": true,
      "inputs": [],
      "name": "checkRegistrationSuggestions",
      "outputs": [
        {
          "name": "",
          "type": "uint256"
        }
      ],
      "payable": false,
      "stateMutability": "view",
      "type": "function"
    },
    {
      "constant": true,
      "inputs": [],
      "name": "registrationCost",
      "outputs": [
        {
          "name": "",
          "type": "uint256"
        }
      ],
      "payable": false,
      "stateMutability": "view",
      "type": "function"
    },
    {
      "constant": true,
      "inputs": [],
      "name": "getContractValue",
      "outputs": [
        {
          "name": "",
          "type": "uint256"
        }
      ],
      "payable": false,
      "stateMutability": "view",
      "type": "function"
    },
    {
      "constant": true,
      "inputs": [
        {
          "name": "text",
          "type": "string"
        }
      ],
      "name": "chat",
      "outputs": [],
      "payable": false,
      "stateMutability": "view",
      "type": "function"
    },
    {
      "constant": false,
      "inputs": [
        {
          "name": "name",
          "type": "string"
        }
      ],
      "name": "register",
      "outputs": [],
      "payable": true,
      "stateMutability": "payable",
      "type": "function"
    },
    {
      "inputs": [
        {
          "name": "cost",
          "type": "uint256"
        }
      ],
      "payable": false,
      "stateMutability": "nonpayable",
      "type": "constructor"
    },
    {
      "anonymous": false,
      "inputs": [
        {
          "indexed": false,
          "name": "message",
          "type": "string"
        },
        {
          "indexed": false,
          "name": "name",
          "type": "string"
        }
      ],
      "name": "message",
      "type": "event"
    }
  ],
  "bytecode": "0x6060604052341561000f57600080fd5b604051602080610e5c833981016040528080519060200190919050508060018190555050610e1a806100426000396000f3006060604052600436106100af576000357c0100000000000000000000000000000000000000000000000000000000900463ffffffff1680630cf35f44146100b45780631afad36d146100ec5780637392445a1461011557806390f10ed114610138578063a90cc0d914610142578063bc9c707d14610157578063c0fc41e61461016c578063dc4a7f7f14610195578063dc82697c146101be578063de8caa1e146101e7578063f2c298be14610244575b600080fd5b34156100bf57600080fd5b6100d56004808035906020019091905050610296565b6040516100e3929190610c97565b60405180910390f35b34156100f757600080fd5b6100ff6103a5565b60405161010c9190610d31565b60405180910390f35b341561012057600080fd5b61013660048080359060200190919050506103b1565b005b610140610462565b005b341561014d57600080fd5b610155610464565b005b341561016257600080fd5b61016a610486565b005b341561017757600080fd5b61017f6104bd565b60405161018c9190610d31565b60405180910390f35b34156101a057600080fd5b6101a8610577565b6040516101b59190610d31565b60405180910390f35b34156101c957600080fd5b6101d161057d565b6040516101de9190610d31565b60405180910390f35b34156101f257600080fd5b610242600480803590602001908201803590602001908080601f0160208091040260200160405190810160405280939291908181526020018383808284378201915050505050509190505061059c565b005b610294600480803590602001908201803590602001908080601f0160208091040260200160405190810160405280939291908181526020018383808284378201915050505050509190505061068d565b005b61029e61097c565b600080838154811015156102ae57fe5b90600052602060002090600202016001016000848154811015156102ce57fe5b906000526020600020906002020160000160009054906101000a900473ffffffffffffffffffffffffffffffffffffffff16818054600181600116156101000203166002900480601f0160208091040260200160405190810160405280929190818152602001828054600181600116156101000203166002900480156103955780601f1061036a57610100808354040283529160200191610395565b820191906000526020600020905b81548152906001019060200180831161037857829003601f168201915b5050505050915091509150915091565b60008080549050905090565b60008090505b60008054905081101561045e573373ffffffffffffffffffffffffffffffffffffffff166000828154811015156103ea57fe5b906000526020600020906002020160000160009054906101000a900473ffffffffffffffffffffffffffffffffffffffff1673ffffffffffffffffffffffffffffffffffffffff161415610451578160026000838152602001908152602001600020819055505b80806001019150506103b7565b5050565b565b600061046e6104bd565b90506001548114151561048357806001819055505b50565b7f36bf6cf02ecc60712e107054775debd1f2f255ab34df5fc4928044264d16fd1f6040516104b390610cfe565b60405180910390a1565b600080600080600080600360046000805490508115156104d957fe5b04029450600093505b600080549050841015610569576000925060026000858152602001908152602001600020549150600090505b60008054905081101561054c57600260008281526020019081526020016000205482141561053f5782806001019350505b808060010191505061050e565b8483111561055c5781955061056f565b83806001019450506104e2565b60015495505b505050505090565b60015481565b60003073ffffffffffffffffffffffffffffffffffffffff1631905090565b60008090505b600080549050811015610689573373ffffffffffffffffffffffffffffffffffffffff166000828154811015156105d557fe5b906000526020600020906002020160000160009054906101000a900473ffffffffffffffffffffffffffffffffffffffff1673ffffffffffffffffffffffffffffffffffffffff16141561067c577f36bf6cf02ecc60712e107054775debd1f2f255ab34df5fc4928044264d16fd1f8260008381548110151561065457fe5b9060005260206000209060020201600101604051610673929190610cc7565b60405180910390a15b80806001019150506105a2565b5050565b610695610990565b600154341180156107fc57506107fa336000805480602002602001604051908101604052809291908181526020016000905b828210156107f157838290600052602060002090600202016040805190810160405290816000820160009054906101000a900473ffffffffffffffffffffffffffffffffffffffff1673ffffffffffffffffffffffffffffffffffffffff1673ffffffffffffffffffffffffffffffffffffffff168152602001600182018054600181600116156101000203166002900480601f0160208091040260200160405190810160405280929190818152602001828054600181600116156101000203166002900480156107d95780601f106107ae576101008083540402835291602001916107d9565b820191906000526020600020905b8154815290600101906020018083116107bc57829003601f168201915b505050505081525050815260200190600101906106c7565b505050506108fa565b155b156108d45733816000019073ffffffffffffffffffffffffffffffffffffffff16908173ffffffffffffffffffffffffffffffffffffffff16815250508181602001819052506000805480600101828161085691906109c6565b9160005260206000209060020201600083909190915060008201518160000160006101000a81548173ffffffffffffffffffffffffffffffffffffffff021916908373ffffffffffffffffffffffffffffffffffffffff16021790555060208201518160010190805190602001906108cf9291906109f8565b505050505b600154600260006001600080549050038152602001908152602001600020819055505050565b600080600090505b8251811015610970578373ffffffffffffffffffffffffffffffffffffffff16838281518110151561093057fe5b906020019060200201516000015173ffffffffffffffffffffffffffffffffffffffff1614156109635760019150610975565b8080600101915050610902565b600091505b5092915050565b602060405190810160405280600081525090565b6040805190810160405280600073ffffffffffffffffffffffffffffffffffffffff1681526020016109c0610a78565b81525090565b8154818355818115116109f3576002028160020283600052602060002091820191016109f29190610a8c565b5b505050565b828054600181600116156101000203166002900490600052602060002090601f016020900481019282601f10610a3957805160ff1916838001178555610a67565b82800160010185558215610a67579182015b82811115610a66578251825591602001919060010190610a4b565b5b509050610a749190610ae2565b5090565b602060405190810160405280600081525090565b610adf91905b80821115610adb57600080820160006101000a81549073ffffffffffffffffffffffffffffffffffffffff0219169055600182016000610ad29190610b07565b50600201610a92565b5090565b90565b610b0491905b80821115610b00576000816000905550600101610ae8565b5090565b90565b50805460018160011615610100020316600290046000825580601f10610b2d5750610b4c565b601f016020900490600052602060002090810190610b4b9190610ae2565b5b50565b610b5881610d69565b82525050565b6000610b6982610d5e565b808452610b7d816020860160208601610d93565b610b8681610dcf565b602085010191505092915050565b600081546001811660008114610bb15760018114610bd157610c12565b607f600283041680865260ff198316602087015260408601935050610c12565b60028204808652602086019550610be785610d4c565b60005b82811015610c0957815481890152600182019150602081019050610bea565b80880195505050505b505092915050565b6000600482527f6a616b65000000000000000000000000000000000000000000000000000000006020830152604082019050919050565b6000600282527f68690000000000000000000000000000000000000000000000000000000000006020830152604082019050919050565b610c9181610d89565b82525050565b60006040820190508181036000830152610cb18185610b5e565b9050610cc06020830184610b4f565b9392505050565b60006040820190508181036000830152610ce18185610b5e565b90508181036020830152610cf58184610b94565b90509392505050565b60006040820190508181036000830152610d1781610c51565b90508181036020830152610d2a81610c1a565b9050919050565b6000602082019050610d466000830184610c88565b92915050565b60008160005260206000209050919050565b600081519050919050565b600073ffffffffffffffffffffffffffffffffffffffff82169050919050565b6000819050919050565b60005b83811015610db1578082015181840152602081019050610d96565b83811460008114610dc157610dc8565b6000858501525b5050505050565b6000601f19601f83011690509190505600a265627a7a723058206c1fbe0a025c190362479d6431edbf779281822396c0f632aacd755d813312a26c6578706572696d656e74616cf50037",
  "source": "pragma solidity ^0.4.18;\r\npragma experimental ABIEncoderV2;\r\nimport \"./MyLib.sol\";\r\ncontract RegistrationClub {\r\n\r\n  MyLib.User[] registeredUser;\r\n  uint public registrationCost;\r\n  mapping(uint => uint) registrationCostSuggestions;\r\n\r\n  function RegistrationClub(uint cost) public {\r\n    registrationCost = cost;\r\n\r\n  }\r\n\r\n  function register(string name) public payable {\r\n    if (msg.value > registrationCost && (!isRegistered(msg.sender,registeredUser)) ) {\r\n      MyLib.User memory u;\r\n      u.myAddress = msg.sender;\r\n      u.name = name;\r\n      registeredUser.push(u);\r\n    }\r\n    //initlisate suggestions as registrationCost\r\n    registrationCostSuggestions[registeredUser.length  - 1] = registrationCost;\r\n  }\r\n\r\n\r\n  function isRegistered(address sample, MyLib.User[] userList) internal pure returns (bool)\r\n  {\r\n    for (uint i = 0; i < userList.length; i++)\r\n    {\r\n      if(userList[i].myAddress == sample)\r\n      {\r\n        return true;\r\n      }\r\n    }\r\n    return false;\r\n  }\r\n\r\n  function changeRegistrationCostSuggestion(uint suggestion) public {\r\n    for (uint i = 0; i < registeredUser.length; i++)\r\n    {\r\n      if(registeredUser[i].myAddress == msg.sender)\r\n      {\r\n        registrationCostSuggestions[i] = suggestion;\r\n      }\r\n    }\r\n  }\r\n\r\n  function changeRegistrationCost() public {\r\n    uint suggestion = checkRegistrationSuggestions();\r\n    if(suggestion != registrationCost)\r\n    {\r\n      registrationCost = suggestion;\r\n    }\r\n  }\r\n\r\n  function checkRegistrationSuggestions() constant public returns (uint) {\r\n      uint superMajority = registeredUser.length / 4 * 3;\r\n      for (uint i = 0; i < registeredUser.length; i++)\r\n      {\r\n        uint count = 0;\r\n        uint iSuggestion = registrationCostSuggestions[i];\r\n        for (uint p = 0; p < registeredUser.length; p++)\r\n        {\r\n          if(iSuggestion == registrationCostSuggestions[p])\r\n          {\r\n            count ++;\r\n          }\r\n        }\r\n        if (count > superMajority)\r\n        {\r\n          return iSuggestion;\r\n        }\r\n      }\r\n      return registrationCost;\r\n  }\r\n  function subsidize() public payable {}\r\n\r\n\r\n\r\n    event message(string message, string name);\r\n\r\n    function chat(string text) public constant\r\n    {\r\n      for(uint i = 0; i < registeredUser.length; i ++)\r\n      {\r\n        if(registeredUser[i].myAddress == msg.sender)\r\n        {\r\n          message(text, registeredUser[i].name);\r\n        }\r\n      }\r\n    }\r\n\r\n    function sayhi() public constant\r\n    {\r\n      message(\"hi\",\"jake\");\r\n    }\r\n\r\n\r\n\r\n    function listRegisteredUsers(uint number) public constant returns (string,address) {\r\n\r\n      return (registeredUser[number].name, registeredUser[number].myAddress);\r\n    }\r\n\r\n    function getRegisteredUsersLength() public constant returns (uint)\r\n    {\r\n      return registeredUser.length;\r\n    }\r\n\r\n    function getContractValue() public constant returns (uint)\r\n    {\r\n      return this.balance;\r\n    }\r\n\r\n\r\n  }\r\n",
  "sourcePath": "C:\\Users\\JakeL\\Desktop\\MultiAgentSystemsOnTheBlockChain\\contracts\\RegistrationClub.sol",
  "compiler": {
    "name": "solc",
    "version": "0.4.18+commit.9cf6e910.Emscripten.clang"
  },
  "schemaVersion": "1.0.1",
  "updatedAt": "2018-04-20T14:25:25.355Z"
}