{
  "contractName": "RegistrationClub",
  "abi": [
    {
      "constant": true,
      "inputs": [],
      "name": "registrationCost",
      "outputs": [
        {
          "name": "",
          "type": "uint256"
        }
      ],
      "payable": false,
      "stateMutability": "view",
      "type": "function"
    },
    {
      "inputs": [
        {
          "name": "cost",
          "type": "uint256"
        }
      ],
      "payable": false,
      "stateMutability": "nonpayable",
      "type": "constructor"
    },
    {
      "constant": false,
      "inputs": [],
      "name": "subsidize",
      "outputs": [],
      "payable": true,
      "stateMutability": "payable",
      "type": "function"
    },
    {
      "constant": true,
      "inputs": [],
      "name": "isRegistered",
      "outputs": [
        {
          "name": "",
          "type": "bool"
        }
      ],
      "payable": false,
      "stateMutability": "view",
      "type": "function"
    },
    {
      "constant": false,
      "inputs": [
        {
          "name": "name",
          "type": "string"
        }
      ],
      "name": "register",
      "outputs": [],
      "payable": true,
      "stateMutability": "payable",
      "type": "function"
    },
    {
      "constant": true,
      "inputs": [
        {
          "name": "number",
          "type": "uint256"
        }
      ],
      "name": "listRegisteredUsers",
      "outputs": [
        {
          "name": "",
          "type": "string"
        },
        {
          "name": "",
          "type": "address"
        }
      ],
      "payable": false,
      "stateMutability": "view",
      "type": "function"
    },
    {
      "constant": true,
      "inputs": [],
      "name": "getRegisteredUsersLength",
      "outputs": [
        {
          "name": "",
          "type": "uint256"
        }
      ],
      "payable": false,
      "stateMutability": "view",
      "type": "function"
    }
  ],
  "bytecode": "0x6060604052341561000f57600080fd5b604051602080610b65833981016040526100329067800000000000000090610053565b806001819055505061008f565b600061004b8251610085565b905092915050565b6000602082840312600181146100685761006d565b600080fd5b50600061007c8482850161003f565b91505092915050565b6000819050919050565b610ac78061009e6000396000f300606060405260043610610078576000357c0100000000000000000000000000000000000000000000000000000000900463ffffffff1680630cf35f441461007d5780631afad36d146100b457806322366844146100dd57806390f10ed114610106578063dc4a7f7f14610110578063f2c298be14610139575b600080fd5b341561008857600080fd5b61009d6004610098903690610889565b610150565b6040516100ab929190610939565b60405180910390f35b34156100bf57600080fd5b6100c761025f565b6040516100d49190610969565b60405180910390f35b34156100e857600080fd5b6100f061026b565b6040516100fd919061091e565b60405180910390f35b61010e610313565b005b341561011b57600080fd5b610123610315565b6040516101309190610969565b60405180910390f35b61014e6004610149903690610836565b61031b565b005b6101586105e8565b6000808381548110151561016857fe5b906000526020600020906002020160010160008481548110151561018857fe5b906000526020600020906002020160000160009054906101000a900473ffffffffffffffffffffffffffffffffffffffff16818054600181600116156101000203166002900480601f01602080910402602001604051908101604052809291908181526020018280546001816001161561010002031660029004801561024f5780601f106102245761010080835404028352916020019161024f565b820191906000526020600020905b81548152906001019060200180831161023257829003601f168201915b5050505050915091509150915091565b60008080549050905090565b600080600090505b60008054905081101561030a573373ffffffffffffffffffffffffffffffffffffffff166000828154811015156102a657fe5b906000526020600020906002020160000160009054906101000a900473ffffffffffffffffffffffffffffffffffffffff1673ffffffffffffffffffffffffffffffffffffffff1614156102fd576001915061030f565b8080600101915050610273565b600091505b5090565b565b60015481565b6103236105fc565b6001543411801561048a5750610488336000805480602002602001604051908101604052809291908181526020016000905b8282101561047f57838290600052602060002090600202016040805190810160405290816000820160009054906101000a900473ffffffffffffffffffffffffffffffffffffffff1673ffffffffffffffffffffffffffffffffffffffff1673ffffffffffffffffffffffffffffffffffffffff168152602001600182018054600181600116156101000203166002900480601f0160208091040260200160405190810160405280929190818152602001828054600181600116156101000203166002900480156104675780601f1061043c57610100808354040283529160200191610467565b820191906000526020600020905b81548152906001019060200180831161044a57829003601f168201915b50505050508152505081526020019060010190610355565b50505050610566565b155b156105625733816000019073ffffffffffffffffffffffffffffffffffffffff16908173ffffffffffffffffffffffffffffffffffffffff1681525050818160200181905250600080548060010182816104e49190610632565b9160005260206000209060020201600083909190915060008201518160000160006101000a81548173ffffffffffffffffffffffffffffffffffffffff021916908373ffffffffffffffffffffffffffffffffffffffff160217905550602082015181600101908051906020019061055d929190610664565b505050505b5050565b600080600090505b82518110156105dc578373ffffffffffffffffffffffffffffffffffffffff16838281518110151561059c57fe5b906020019060200201516000015173ffffffffffffffffffffffffffffffffffffffff1614156105cf57600191506105e1565b808060010191505061056e565b600091505b5092915050565b602060405190810160405280600081525090565b6040805190810160405280600073ffffffffffffffffffffffffffffffffffffffff16815260200161062c6106e4565b81525090565b81548183558181151161065f5760020281600202836000526020600020918201910161065e91906106f8565b5b505050565b828054600181600116156101000203166002900490600052602060002090601f016020900481019282601f106106a557805160ff19168380011785556106d3565b828001600101855582156106d3579182015b828111156106d25782518255916020019190600101906106b7565b5b5090506106e0919061074e565b5090565b602060405190810160405280600081525090565b61074b91905b8082111561074757600080820160006101000a81549073ffffffffffffffffffffffffffffffffffffffff021916905560018201600061073e9190610773565b506002016106fe565b5090565b90565b61077091905b8082111561076c576000816000905550600101610754565b5090565b90565b50805460018160011615610100020316600290046000825580601f1061079957506107b8565b601f0160209004906000526020600020908101906107b7919061074e565b5b50565b600082601f830112600081146107d0576107d5565b600080fd5b5081356107e96107e4826109ba565b610984565b915080825260208301602083018583830111600181146108085761080d565b600080fd5b50610819838284610a3a565b50505092915050565b600061082e8235610a30565b905092915050565b60006020828403126001811461084b57610850565b600080fd5b50600082013567ffffffffffffffff81116001811461086e57610873565b600080fd5b50610880848285016107bb565b91505092915050565b60006020828403126001811461089e576108a3565b600080fd5b5060006108b284828501610822565b91505092915050565b6108c4816109fa565b82525050565b6108d381610a1a565b82525050565b60006108e4826109ef565b8084526108f8816020860160208601610a49565b61090181610a7c565b602085010191505092915050565b61091881610a26565b82525050565b600060208201905061093360008301846108ca565b92915050565b6000604082019050818103600083015261095381856108d9565b905061096260208301846108bb565b9392505050565b600060208201905061097e600083018461090f565b92915050565b6000604051905081810181811067ffffffffffffffff821117600181146109aa576109af565b600080fd5b508060405250919050565b600067ffffffffffffffff8211600181146109d4576109d9565b600080fd5b50601f19601f8301169050602081019050919050565b600081519050919050565b600073ffffffffffffffffffffffffffffffffffffffff82169050919050565b60008115159050919050565b6000819050919050565b6000819050919050565b82818337600083830152505050565b60005b83811015610a67578082015181840152602081019050610a4c565b83811115610a76576000848401525b50505050565b6000601f19601f83011690509190505600a265627a7a723058204f169a2c1fb4d3f4acb76db5506bb70d799e8f0a178c406b6b65954cc81ccc036c6578706572696d656e74616cf50037",
  "source": "pragma solidity ^0.4.19;\r\npragma experimental ABIEncoderV2;\r\nimport \"./MyLib.sol\";\r\ncontract RegistrationClub {\r\n\r\nMyLib.User[] registeredUser;\r\nuint public registrationCost;\r\n\r\n  function RegistrationClub(uint cost) public {\r\n    registrationCost = cost;\r\n\r\n  }\r\n\r\n  function subsidize() public payable {}\r\n\r\n    function isRegistered() public constant returns (bool) {\r\n      for (uint i = 0; i < registeredUser.length; i++) {\r\n        if(registeredUser[i].myAddress == msg.sender)\r\n        {\r\n          return true;\r\n        }\r\n      }\r\n      return false;\r\n    }\r\n\r\n\r\n    function register(string name) public payable {\r\n      if (msg.value > registrationCost && (!addressUsed(msg.sender,registeredUser)) ) {\r\n        MyLib.User memory u;\r\n        u.myAddress = msg.sender;\r\n        u.name = name;\r\n        registeredUser.push(u);\r\n      }\r\n    }\r\n\r\n\r\n    function addressUsed(address sample, MyLib.User[] userList) internal pure returns (bool)\r\n    {\r\n      for (uint i = 0; i < userList.length; i++)\r\n      {\r\n        if(userList[i].myAddress == sample)\r\n        {\r\n          return true;\r\n        }\r\n      }\r\n      return false;\r\n    }\r\n\r\n    function listRegisteredUsers(uint number) public constant returns (string,address) {\r\n\r\n      return (registeredUser[number].name, registeredUser[number].myAddress);\r\n    }\r\n\r\n    function getRegisteredUsersLength() public constant returns (uint)\r\n    {\r\n      return registeredUser.length;\r\n    }\r\n\r\n\r\n}\r\n",
  "sourcePath": "C:\\Users\\JakeL\\Desktop\\MultiAgentSystemsOnTheBlockChain\\contracts\\RegistrationClub.sol",
  "compiler": {
    "name": "solc",
    "version": "0.4.19+commit.c4cbbb05.Emscripten.clang"
  },
  "schemaVersion": "2.0.0",
  "updatedAt": "2018-04-08T08:18:34.116Z"
}