{
  "contractName": "Vote",
  "abi": [
    {
      "constant": true,
      "inputs": [],
      "name": "return5",
      "outputs": [
        {
          "name": "",
          "type": "uint256"
        }
      ],
      "payable": false,
      "stateMutability": "view",
      "type": "function"
    }
  ],
  "bytecode": "0x60606040523415600e57600080fd5b609f8061001c6000396000f300606060405260043610603f576000357c0100000000000000000000000000000000000000000000000000000000900463ffffffff1680639d41579d146044575b600080fd5b3415604e57600080fd5b6054606a565b6040518082815260200191505060405180910390f35b600060059050905600a165627a7a72305820b7eb8c5e62938723d555b8f5b166d71273554124cca37c5ffdfe35e25b5806c10029",
  "source": "pragma solidity ^0.4.17;\r\nimport \"./MyLib.sol\";\r\n\r\ncontract Vote {\r\n\r\n  function return5() public constant returns (uint) {\r\n\r\n        return 5;\r\n  }\r\n\r\n}\r\n",
  "sourcePath": "C:\\Users\\JakeL\\Desktop\\Simple\\contracts\\Vote.sol",
  "compiler": {
    "name": "solc",
    "version": "0.4.18+commit.9cf6e910.Emscripten.clang"
  },
  "schemaVersion": "1.0.1",
  "updatedAt": "2017-12-08T00:56:43.301Z"
}