{
  "contractName": "VotingClub",
  "abi": [
    {
      "constant": true,
      "inputs": [
        {
          "name": "number",
          "type": "uint256"
        }
      ],
      "name": "listRegisteredUsers",
      "outputs": [
        {
          "name": "",
          "type": "string"
        },
        {
          "name": "",
          "type": "address"
        }
      ],
      "payable": false,
      "stateMutability": "view",
      "type": "function"
    },
    {
      "constant": true,
      "inputs": [],
      "name": "timeVoteStarted",
      "outputs": [
        {
          "name": "",
          "type": "uint256"
        }
      ],
      "payable": false,
      "stateMutability": "view",
      "type": "function"
    },
    {
      "constant": true,
      "inputs": [],
      "name": "getRegisteredUsersLength",
      "outputs": [
        {
          "name": "",
          "type": "uint256"
        }
      ],
      "payable": false,
      "stateMutability": "view",
      "type": "function"
    },
    {
      "constant": true,
      "inputs": [],
      "name": "isRegistered",
      "outputs": [
        {
          "name": "",
          "type": "bool"
        }
      ],
      "payable": false,
      "stateMutability": "view",
      "type": "function"
    },
    {
      "constant": true,
      "inputs": [],
      "name": "termLength",
      "outputs": [
        {
          "name": "",
          "type": "uint256"
        }
      ],
      "payable": false,
      "stateMutability": "view",
      "type": "function"
    },
    {
      "constant": false,
      "inputs": [],
      "name": "subsidize",
      "outputs": [],
      "payable": true,
      "stateMutability": "payable",
      "type": "function"
    },
    {
      "constant": true,
      "inputs": [],
      "name": "numberOfRepresentatives",
      "outputs": [
        {
          "name": "",
          "type": "uint256"
        }
      ],
      "payable": false,
      "stateMutability": "view",
      "type": "function"
    },
    {
      "constant": true,
      "inputs": [
        {
          "name": "",
          "type": "address"
        }
      ],
      "name": "voted",
      "outputs": [
        {
          "name": "",
          "type": "bool"
        }
      ],
      "payable": false,
      "stateMutability": "view",
      "type": "function"
    },
    {
      "constant": true,
      "inputs": [],
      "name": "voteStarted",
      "outputs": [
        {
          "name": "",
          "type": "bool"
        }
      ],
      "payable": false,
      "stateMutability": "view",
      "type": "function"
    },
    {
      "constant": true,
      "inputs": [],
      "name": "registrationCost",
      "outputs": [
        {
          "name": "",
          "type": "uint256"
        }
      ],
      "payable": false,
      "stateMutability": "view",
      "type": "function"
    },
    {
      "constant": true,
      "inputs": [],
      "name": "timeVoteEnded",
      "outputs": [
        {
          "name": "",
          "type": "uint256"
        }
      ],
      "payable": false,
      "stateMutability": "view",
      "type": "function"
    },
    {
      "constant": false,
      "inputs": [
        {
          "name": "name",
          "type": "string"
        }
      ],
      "name": "register",
      "outputs": [],
      "payable": true,
      "stateMutability": "payable",
      "type": "function"
    },
    {
      "inputs": [
        {
          "name": "cost",
          "type": "uint256"
        },
        {
          "name": "term",
          "type": "uint256"
        },
        {
          "name": "reps",
          "type": "uint256"
        }
      ],
      "payable": false,
      "stateMutability": "nonpayable",
      "type": "constructor"
    },
    {
      "constant": false,
      "inputs": [],
      "name": "apply",
      "outputs": [],
      "payable": false,
      "stateMutability": "nonpayable",
      "type": "function"
    },
    {
      "constant": false,
      "inputs": [],
      "name": "startVote",
      "outputs": [],
      "payable": false,
      "stateMutability": "nonpayable",
      "type": "function"
    },
    {
      "constant": false,
      "inputs": [
        {
          "name": "myVote",
          "type": "address[]"
        }
      ],
      "name": "vote",
      "outputs": [],
      "payable": false,
      "stateMutability": "nonpayable",
      "type": "function"
    },
    {
      "constant": false,
      "inputs": [],
      "name": "endVote",
      "outputs": [],
      "payable": false,
      "stateMutability": "nonpayable",
      "type": "function"
    },
    {
      "constant": false,
      "inputs": [
        {
          "name": "ranked",
          "type": "uint256[]"
        }
      ],
      "name": "weightCandidates",
      "outputs": [],
      "payable": false,
      "stateMutability": "nonpayable",
      "type": "function"
    },
    {
      "constant": false,
      "inputs": [
        {
          "name": "data",
          "type": "uint256[]"
        }
      ],
      "name": "sort",
      "outputs": [
        {
          "name": "",
          "type": "uint256[]"
        }
      ],
      "payable": false,
      "stateMutability": "nonpayable",
      "type": "function"
    },
    {
      "constant": true,
      "inputs": [
        {
          "name": "number",
          "type": "uint256"
        }
      ],
      "name": "listCandidates",
      "outputs": [
        {
          "name": "",
          "type": "string"
        },
        {
          "name": "",
          "type": "address"
        }
      ],
      "payable": false,
      "stateMutability": "view",
      "type": "function"
    },
    {
      "constant": true,
      "inputs": [],
      "name": "getCandidatesLength",
      "outputs": [
        {
          "name": "",
          "type": "uint256"
        }
      ],
      "payable": false,
      "stateMutability": "view",
      "type": "function"
    },
    {
      "constant": true,
      "inputs": [
        {
          "name": "number",
          "type": "uint256"
        }
      ],
      "name": "listRepresentives",
      "outputs": [
        {
          "name": "",
          "type": "string"
        },
        {
          "name": "",
          "type": "address"
        },
        {
          "name": "",
          "type": "uint256"
        },
        {
          "name": "",
          "type": "uint256[]"
        }
      ],
      "payable": false,
      "stateMutability": "view",
      "type": "function"
    },
    {
      "constant": true,
      "inputs": [],
      "name": "getRepresentivesLength",
      "outputs": [
        {
          "name": "",
          "type": "uint256"
        }
      ],
      "payable": false,
      "stateMutability": "view",
      "type": "function"
    }
  ],
  "bytecode": "0x60606040526000600860006101000a81548160ff02191690831515021790555060006009556000600a5534156200003557600080fd5b6040516060806200274b833981016040526200005b906780000000000000009062000091565b8280600181905550508160028190555080600381905550505050620000fb565b6000620000898251620000f1565b905092915050565b600080600060608486031260018114620000ab57620000b0565b600080fd5b506000620000c1868287016200007b565b9350506020620000d4868287016200007b565b9250506040620000e7868287016200007b565b9150509250925092565b6000819050919050565b612640806200010b6000396000f300606060405260043610610128576000357c0100000000000000000000000000000000000000000000000000000000900463ffffffff1680630cf35f441461012d578063161893d0146101645780631859df651461018d5780631afad36d146101b657806322366844146101df57806322ca968b146102085780634c0a6af01461023f5780635846fc461461025457806379b18cd11461027657806390f10ed11461029f5780639ec8b026146102a9578063ae0689ac146102df578063aec2ccae14610308578063b92239461461033e578063d0dc018014610353578063d5268b221461037c578063db595b3b146103a5578063dc4a7f7f146103ba578063dee6472f146103e3578063ed00af981461041c578063ed08132914610445578063f2c298be14610467575b600080fd5b341561013857600080fd5b61014d600461014890369061228b565b61047e565b60405161015b9291906123b8565b60405180910390f35b341561016f57600080fd5b61017761058d565b604051610184919061243b565b60405180910390f35b341561019857600080fd5b6101a0610593565b6040516101ad919061243b565b60405180910390f35b34156101c157600080fd5b6101c96105a0565b6040516101d6919061243b565b60405180910390f35b34156101ea57600080fd5b6101f26105ac565b6040516101ff919061239d565b60405180910390f35b341561021357600080fd5b610228600461022390369061228b565b610654565b6040516102369291906123b8565b60405180910390f35b341561024a57600080fd5b610252610797565b005b341561025f57600080fd5b610274600461026f9036906121e5565b6107e9565b005b341561028157600080fd5b6102896108c8565b604051610296919061243b565b60405180910390f35b6102a76108ce565b005b34156102b457600080fd5b6102c960046102c49036906121e5565b6108d0565b6040516102d6919061237b565b60405180910390f35b34156102ea57600080fd5b6102f26108f0565b6040516102ff919061243b565b60405180910390f35b341561031357600080fd5b6103286004610323903690612160565b6108f6565b604051610335919061239d565b60405180910390f35b341561034957600080fd5b610351610916565b005b341561035e57600080fd5b61036661096d565b604051610373919061239d565b60405180910390f35b341561038757600080fd5b61038f610980565b60405161039c919061243b565b60405180910390f35b34156103b057600080fd5b6103b861098d565b005b34156103c557600080fd5b6103cd610a67565b6040516103da919061243b565b60405180910390f35b34156103ee57600080fd5b61040360046103fe90369061228b565b610a6d565b60405161041394939291906123e8565b60405180910390f35b341561042757600080fd5b61042f610c5f565b60405161043c919061243b565b60405180910390f35b341561045057600080fd5b6104656004610460903690612192565b610c65565b005b61047c6004610477903690612238565b610d85565b005b610486611aa7565b6000808381548110151561049657fe5b90600052602060002090600202016001016000848154811015156104b657fe5b906000526020600020906002020160000160009054906101000a900473ffffffffffffffffffffffffffffffffffffffff16818054600181600116156101000203166002900480601f01602080910402602001604051908101604052809291908181526020018280546001816001161561010002031660029004801561057d5780601f106105525761010080835404028352916020019161057d565b820191906000526020600020905b81548152906001019060200180831161056057829003601f168201915b5050505050915091509150915091565b60095481565b6000600580549050905090565b60008080549050905090565b600080600090505b60008054905081101561064b573373ffffffffffffffffffffffffffffffffffffffff166000828154811015156105e757fe5b906000526020600020906002020160000160009054906101000a900473ffffffffffffffffffffffffffffffffffffffff1673ffffffffffffffffffffffffffffffffffffffff16141561063e5760019150610650565b80806001019150506105b4565b600091505b5090565b61065c611aa7565b60008060058481548110151561066e57fe5b90600052602060002090015481548110151561068657fe5b906000526020600020906002020160010160006005858154811015156106a857fe5b9060005260206000209001548154811015156106c057fe5b906000526020600020906002020160000160009054906101000a900473ffffffffffffffffffffffffffffffffffffffff16818054600181600116156101000203166002900480601f0160208091040260200160405190810160405280929190818152602001828054600181600116156101000203166002900480156107875780601f1061075c57610100808354040283529160200191610787565b820191906000526020600020905b81548152906001019060200180831161076a57829003601f168201915b5050505050915091509150915091565b42600254600a54011080156107bf575060001515600860009054906101000a900460ff161515145b156107e7576001600860006101000a81548160ff021916908315150217905550426009819055505b565b60006107f3611abb565b600091505b6003548210156108b3576005838381518110151561081257fe5b9060200190602002015181548110151561082857fe5b90600052602060002090015481600001818152505060018160400181815250506004805480600101828161085c9190611ae3565b91600052602060002090600302016000839091909150600082015181600001556020820151816001019080519060200190610898929190611b15565b506040820151816002015550505081806001019250506107f8565b60006005816108c29190611b62565b50505050565b60025481565b565b6108d8611b8e565b6108e88260006001855103610fd0565b819050919050565b60035481565b60076020528060005260406000206000915054906101000a900460ff1681565b426009541115801561093b575060011515600860009054906101000a900460ff161515145b1561096b576000600860006101000a81548160ff02191690831515021790555042600a8190555061096a611130565b5b565b600860009054906101000a900460ff1681565b6000600480549050905090565b60006109a03361099b61154c565b611727565b1515610a6457600090505b600080549050811015610a63573373ffffffffffffffffffffffffffffffffffffffff166000828154811015156109de57fe5b906000526020600020906002020160000160009054906101000a900473ffffffffffffffffffffffffffffffffffffffff1673ffffffffffffffffffffffffffffffffffffffff161415610a565760058054806001018281610a409190611ba2565b9160005260206000209001600083909190915055505b80806001019150506109ab565b5b50565b60015481565b610a75611aa7565b600080610a80611b8e565b6000600486815481101515610a9157fe5b906000526020600020906003020160000154815481101515610aaf57fe5b90600052602060002090600202016001016000600487815481101515610ad157fe5b906000526020600020906003020160000154815481101515610aef57fe5b906000526020600020906002020160000160009054906101000a900473ffffffffffffffffffffffffffffffffffffffff16600487815481101515610b3057fe5b906000526020600020906003020160020154600488815481101515610b5157fe5b9060005260206000209060030201600101838054600181600116156101000203166002900480601f016020809104026020016040519081016040528092919081815260200182805460018160011615610100020316600290048015610bf75780601f10610bcc57610100808354040283529160200191610bf7565b820191906000526020600020905b815481529060010190602001808311610bda57829003601f168201915b5050505050935080805480602002602001604051908101604052809291908181526020018280548015610c4957602002820191906000526020600020905b815481526020019060010190808311610c35575b5050505050905093509350935093509193509193565b600a5481565b610c6d6105ac565b8015610c8c575060011515600860009054906101000a900460ff161515145b8015610ce8575060001515600760003373ffffffffffffffffffffffffffffffffffffffff1673ffffffffffffffffffffffffffffffffffffffff16815260200190815260200160002060009054906101000a900460ff161515145b15610d82576001600760003373ffffffffffffffffffffffffffffffffffffffff1673ffffffffffffffffffffffffffffffffffffffff16815260200190815260200160002060006101000a81548160ff02191690831515021790555060068054806001018281610d599190611bce565b916000526020600020900160008390919091509080519060200190610d7f929190611bfa565b50505b50565b610d8d611c84565b60015434118015610ef45750610ef2336000805480602002602001604051908101604052809291908181526020016000905b82821015610ee957838290600052602060002090600202016040805190810160405290816000820160009054906101000a900473ffffffffffffffffffffffffffffffffffffffff1673ffffffffffffffffffffffffffffffffffffffff1673ffffffffffffffffffffffffffffffffffffffff168152602001600182018054600181600116156101000203166002900480601f016020809104026020016040519081016040528092919081815260200182805460018160011615610100020316600290048015610ed15780601f10610ea657610100808354040283529160200191610ed1565b820191906000526020600020905b815481529060010190602001808311610eb457829003601f168201915b50505050508152505081526020019060010190610dbf565b50505050611727565b155b15610fcc5733816000019073ffffffffffffffffffffffffffffffffffffffff16908173ffffffffffffffffffffffffffffffffffffffff168152505081816020018190525060008054806001018281610f4e9190611cba565b9160005260206000209060020201600083909190915060008201518160000160006101000a81548173ffffffffffffffffffffffffffffffffffffffff021916908373ffffffffffffffffffffffffffffffffffffffff1602179055506020820151816001019080519060200190610fc7929190611cec565b505050505b5050565b600080600084925083915081831415610fe857611128565b856002868603811515610ff757fe5b04860181518110151561100657fe5b9060200190602002015190505b81831115156110ff575b80868481518110151561102c57fe5b90602001906020020151111561104957828060010193505061101d565b5b858281518110151561105857fe5b906020019060200201518111156110775781806001900392505061104a565b81831115156110fa57858281518110151561108e57fe5b9060200190602002015186848151811015156110a657fe5b9060200190602002015187858151811015156110be57fe5b90602001906020020188858151811015156110d557fe5b9060200190602002018281525082815250505082806001019350508180600190039250505b611013565b8185101561111357611112868684610fd0565b5b8383101561112757611126868486610fd0565b5b5b505050505050565b60008061113b611b8e565b611143611d6c565b600061114d611b8e565b611155611b8e565b61115d611b8e565b6005805490506040518059106111705750595b9080825280602002602001820160405250955085516040518059106111925750595b9080825280602002602001820160405280156111c857816020015b6111b5611d80565b8152602001906001900390816111ad5790505b509450600097505b85518810156112215785516040518059106111e85750595b9080825280602002602001820160405250858981518110151561120757fe5b9060200190602002018190525087806001019850506111d0565b600097505b600186510388101561135d578760010196505b85518710156113505761124c88886117a9565b935060008414156112ca5786858981518110151561126657fe5b90602001906020020151878a81518110151561127e57fe5b9060200190602002015181518110151561129457fe5b906020019060200201818152505085888151811015156112b057fe5b906020019060200201805180919060010181525050611343565b6001841415611342578785888151811015156112e257fe5b9060200190602002015187898151811015156112fa57fe5b9060200190602002015181518110151561131057fe5b9060200190602002018181525050858781518110151561132c57fe5b9060200190602002018051809190600101815250505b5b8680600101975050611239565b8780600101985050611226565b855160405180591061136c5750595b90808252806020026020018201604052509250600097505b8551881015611455576000868981518110151561139d57fe5b9060200190602002015114151561144857600096505b85888151811015156113c157fe5b90602001906020020151871015611447578585898151811015156113e157fe5b90602001906020020151888151811015156113f857fe5b9060200190602002015181518110151561140e57fe5b90602001906020020151838981518110151561142657fe5b906020019060200201818151019150818152505086806001019750506113b3565b5b8780600101985050611384565b85516040518059106114645750595b9080825280602002602001820160405250915061148861148384611a1a565b6108d0565b9050600097505b855188101561153957600096505b855187101561152c5782878151811015156114b457fe5b9060200190602002015181898151811015156114cc57fe5b90602001906020020151141561151f578682898151811015156114eb57fe5b90602001906020020181815250508551865102838881518110151561150c57fe5b906020019060200201818152505061152c565b868060010197505061149d565b878060010198505061148f565b611542826107e9565b5050505050505050565b611554611d94565b600061155e611d94565b60006005805490509250826040518059106115765750595b9080825280602002602001820160405280156115ac57816020015b611599611da8565b8152602001906001900390816115915790505b509150600090505b8281101561171e5760006005828154811015156115cd57fe5b9060005260206000209001548154811015156115e557fe5b90600052602060002090600202016040805190810160405290816000820160009054906101000a900473ffffffffffffffffffffffffffffffffffffffff1673ffffffffffffffffffffffffffffffffffffffff1673ffffffffffffffffffffffffffffffffffffffff168152602001600182018054600181600116156101000203166002900480601f0160208091040260200160405190810160405280929190818152602001828054600181600116156101000203166002900480156116ed5780601f106116c2576101008083540402835291602001916116ed565b820191906000526020600020905b8154815290600101906020018083116116d057829003601f168201915b505050505081525050828281518110151561170457fe5b9060200190602002018190525080806001019150506115b4565b81935050505090565b600080600090505b825181101561179d578373ffffffffffffffffffffffffffffffffffffffff16838281518110151561175d57fe5b906020019060200201516000015173ffffffffffffffffffffffffffffffffffffffff16141561179057600191506117a2565b808060010191505061172f565b600091505b5092915050565b60008060008060008060008060008060009850600097506006805490509650600060058d8154811015156117d957fe5b9060005260206000209001548154811015156117f157fe5b906000526020600020906002020160000160009054906101000a900473ffffffffffffffffffffffffffffffffffffffff169550600060058c81548110151561183657fe5b90600052602060002090015481548110151561184e57fe5b906000526020600020906002020160000160009054906101000a900473ffffffffffffffffffffffffffffffffffffffff169450600093505b868410156119e45760028781151561189b57fe5b0489111580156118b757506002878115156118b257fe5b048811155b156119d2576006848154811015156118cb57fe5b9060005260206000209001805490509250600091505b828210156119cd576006848154811015156118f857fe5b90600052602060002090018281548110151561191057fe5b906000526020600020900160009054906101000a900473ffffffffffffffffffffffffffffffffffffffff1690508573ffffffffffffffffffffffffffffffffffffffff168173ffffffffffffffffffffffffffffffffffffffff16141561197f5788806001019950506119cd565b8473ffffffffffffffffffffffffffffffffffffffff168173ffffffffffffffffffffffffffffffffffffffff1614156119c05787806001019850506119cd565b81806001019250506118e1565b6119d7565b6119e4565b8380600101945050611887565b878911156119f55760009950611a0b565b88881115611a065760019950611a0b565b600299505b50505050505050505092915050565b611a22611b8e565b611a2a611b8e565b60008351604051805910611a3b5750595b90808252806020026020018201604052509150600090505b8351811015611a9d578381815181101515611a6a57fe5b906020019060200201518282815181101515611a8257fe5b90602001906020020181815250508080600101915050611a53565b8192505050919050565b602060405190810160405280600081525090565b60606040519081016040528060008152602001611ad6611d80565b8152602001600081525090565b815481835581811511611b1057600302816003028360005260206000209182019101611b0f9190611dde565b5b505050565b828054828255906000526020600020908101928215611b51579160200282015b82811115611b50578251825591602001919060010190611b35565b5b509050611b5e9190611e1d565b5090565b815481835581811511611b8957818360005260206000209182019101611b889190611e1d565b5b505050565b602060405190810160405280600081525090565b815481835581811511611bc957818360005260206000209182019101611bc89190611e1d565b5b505050565b815481835581811511611bf557818360005260206000209182019101611bf49190611e42565b5b505050565b828054828255906000526020600020908101928215611c73579160200282015b82811115611c725782518260006101000a81548173ffffffffffffffffffffffffffffffffffffffff021916908373ffffffffffffffffffffffffffffffffffffffff16021790555091602001919060010190611c1a565b5b509050611c809190611e6e565b5090565b6040805190810160405280600073ffffffffffffffffffffffffffffffffffffffff168152602001611cb4611eb1565b81525090565b815481835581811511611ce757600202816002028360005260206000209182019101611ce69190611ec5565b5b505050565b828054600181600116156101000203166002900490600052602060002090601f016020900481019282601f10611d2d57805160ff1916838001178555611d5b565b82800160010185558215611d5b579182015b82811115611d5a578251825591602001919060010190611d3f565b5b509050611d689190611e1d565b5090565b602060405190810160405280600081525090565b602060405190810160405280600081525090565b602060405190810160405280600081525090565b6040805190810160405280600073ffffffffffffffffffffffffffffffffffffffff168152602001611dd8611eb1565b81525090565b611e1a91905b80821115611e1657600080820160009055600182016000611e059190611f1b565b600282016000905550600301611de4565b5090565b90565b611e3f91905b80821115611e3b576000816000905550600101611e23565b5090565b90565b611e6b91905b80821115611e675760008181611e5e9190611f3c565b50600101611e48565b5090565b90565b611eae91905b80821115611eaa57600081816101000a81549073ffffffffffffffffffffffffffffffffffffffff021916905550600101611e74565b5090565b90565b602060405190810160405280600081525090565b611f1891905b80821115611f1457600080820160006101000a81549073ffffffffffffffffffffffffffffffffffffffff0219169055600182016000611f0b9190611f5d565b50600201611ecb565b5090565b90565b5080546000825590600052602060002090810190611f399190611e1d565b50565b5080546000825590600052602060002090810190611f5a9190611e1d565b50565b50805460018160011615610100020316600290046000825580601f10611f835750611fa2565b601f016020900490600052602060002090810190611fa19190611e1d565b5b50565b6000611fb18235612589565b905092915050565b600082601f83011260008114611fce57611fd3565b600080fd5b508135611fe7611fe28261248c565b612456565b9150818183526020840193506020810190508385602084028201116001811461200f57612014565b600080fd5b5060005b83811015612045578161202b8882611fa5565b845260208401935060208301925050600181019050612018565b5050505092915050565b600082601f8301126000811461206457612069565b600080fd5b50813561207d612078826124bd565b612456565b915081818352602084019350602081019050838560208402820111600181146120a5576120aa565b600080fd5b5060005b838110156120db57816120c1888261214c565b8452602084019350602083019250506001810190506120ae565b5050505092915050565b600082601f830112600081146120fa576120ff565b600080fd5b50813561211361210e826124ee565b612456565b9150808252602083016020830185838301116001811461213257612137565b600080fd5b506121438382846125b3565b50505092915050565b600061215882356125a9565b905092915050565b6000602082840312600181146121755761217a565b600080fd5b50600061218984828501611fa5565b91505092915050565b6000602082840312600181146121a7576121ac565b600080fd5b50600082013567ffffffffffffffff8111600181146121ca576121cf565b600080fd5b506121dc84828501611fb9565b91505092915050565b6000602082840312600181146121fa576121ff565b600080fd5b50600082013567ffffffffffffffff81116001811461221d57612222565b600080fd5b5061222f8482850161204f565b91505092915050565b60006020828403126001811461224d57612252565b600080fd5b50600082013567ffffffffffffffff81116001811461227057612275565b600080fd5b50612282848285016120e5565b91505092915050565b6000602082840312600181146122a0576122a5565b600080fd5b5060006122b48482850161214c565b91505092915050565b6122c681612553565b82525050565b60006122d782612530565b8084526020840193506122e983612523565b60005b8281101561231b576122ff86835161236c565b61230882612546565b91506020860195506001810190506122ec565b50849250505092915050565b61233081612573565b82525050565b60006123418261253b565b8084526123558160208601602086016125c2565b61235e816125f5565b602085010191505092915050565b6123758161257f565b82525050565b6000602082019050818103600083015261239581846122cc565b905092915050565b60006020820190506123b26000830184612327565b92915050565b600060408201905081810360008301526123d28185612336565b90506123e160208301846122bd565b9392505050565b600060808201905081810360008301526124028187612336565b905061241160208301866122bd565b61241e604083018561236c565b818103606083015261243081846122cc565b905095945050505050565b6000602082019050612450600083018461236c565b92915050565b6000604051905081810181811067ffffffffffffffff8211176001811461247c57612481565b600080fd5b508060405250919050565b600067ffffffffffffffff8211600181146124a6576124ab565b600080fd5b50602082029050602081019050919050565b600067ffffffffffffffff8211600181146124d7576124dc565b600080fd5b50602082029050602081019050919050565b600067ffffffffffffffff8211600181146125085761250d565b600080fd5b50601f19601f8301169050602081019050919050565b6000602082019050919050565b600081519050919050565b600081519050919050565b6000602082019050919050565b600073ffffffffffffffffffffffffffffffffffffffff82169050919050565b60008115159050919050565b6000819050919050565b600073ffffffffffffffffffffffffffffffffffffffff82169050919050565b6000819050919050565b82818337600083830152505050565b60005b838110156125e05780820151818401526020810190506125c5565b838111156125ef576000848401525b50505050565b6000601f19601f83011690509190505600a265627a7a723058204661fd23b52fb7796324e5762f1399f9cd39f43b3ad06b85427d1015cf0c48ae6c6578706572696d656e74616cf50037",
  "source": "pragma solidity ^0.4.19;\r\npragma experimental ABIEncoderV2;\r\nimport \"./MyLib.sol\";\r\nimport \"./RegistrationClub.sol\";\r\ncontract VotingClub is RegistrationClub {\r\n\r\n    uint public termLength;\r\n    uint public numberOfRepresentatives;\r\n    MyLib.Agent[] listOfRepresentatives;\r\n\r\n      uint[] candidates;\r\n  address[][] votes;\r\n  mapping (address => bool) public voted;\r\n  bool public voteStarted = false;\r\n  uint public timeVoteStarted =0;\r\n  uint public timeVoteEnded =0;\r\n\r\n    function VotingClub(uint cost, uint term, uint reps) RegistrationClub(cost) public {\r\n        termLength = term;\r\n        numberOfRepresentatives = reps;\r\n  }\r\n\r\n      //saves gass as dont have to look at candidates with no votes\r\n    function apply() public {\r\n      if(!addressUsed(msg.sender,buildCandidateList()))\r\n      {\r\n        for (uint i = 0; i < registeredUser.length; i++)\r\n        {\r\n          if(registeredUser[i].myAddress == msg.sender)\r\n          {\r\n            candidates.push(i);\r\n          }\r\n        }\r\n      }\r\n    }\r\n\r\n    function buildCandidateList() internal constant returns (MyLib.User[])\r\n    {\r\n      uint candidatesLength = candidates.length;\r\n      MyLib.User[] memory userList = new MyLib.User[](candidatesLength);\r\n      for(uint i = 0; i < candidatesLength; i ++)\r\n      {\r\n        userList[i] = registeredUser[candidates[i]];\r\n      }\r\n      return userList;\r\n    }\r\n\r\n  function startVote() public {\r\n    if(timeVoteEnded + termLength < block.timestamp && voteStarted == false)\r\n    {\r\n      voteStarted = true;\r\n      timeVoteStarted = block.timestamp;\r\n    }\r\n  }\r\n\r\n  function vote(address[] myVote) public {\r\n    if(isRegistered() && voteStarted == true && voted[msg.sender] == false){\r\n      voted[msg.sender] = true;\r\n      votes.push(myVote);\r\n\r\n    }\r\n  }\r\n  function endVote() public\r\n  {\r\n    if(timeVoteStarted <= block.timestamp && voteStarted == true)\r\n    {\r\n      voteStarted = false;\r\n      timeVoteEnded = block.timestamp;\r\n      countVotes();\r\n    }\r\n\r\n  }\r\n  //second order copeland\r\n  function countVotes() internal {\r\n    uint i;\r\n    uint p;\r\n    uint[] memory copelandScore = new uint[](candidates.length);\r\n    uint[][] memory defeated = new uint[][](copelandScore.length);\r\n\r\n    //init2d array\r\n    for (i = 0; i < copelandScore.length; i++)\r\n    {\r\n      defeated[i] = new uint[](copelandScore.length);\r\n    }\r\n\r\n    //pairwise each candidate against each other\r\n    for (i = 0; i < copelandScore.length - 1; i++)\r\n    {\r\n      for (p = 1 + i; p < copelandScore.length; p++)\r\n      {\r\n        uint pairwise = pairwiseComparison(i,p);\r\n\r\n        if(pairwise == 0)\r\n        {\r\n          defeated[i][copelandScore[i]] = p;\r\n          copelandScore[i] ++;\r\n        }\r\n        else if (pairwise == 1) {\r\n          defeated[p][copelandScore[p]] = i;\r\n          copelandScore[p] ++;\r\n        }\r\n\r\n\r\n      }\r\n    }\r\n\r\n    //add up the copeland scores of defeated users\r\n    uint[] memory secondOrderCopeland = new uint[](copelandScore.length);\r\n    for(i =0; i < copelandScore.length; i++)\r\n    {\r\n      if(copelandScore[i] != 0)\r\n      {\r\n        for(p =0; p < copelandScore[i] ; p++)\r\n        {\r\n          secondOrderCopeland[i] += copelandScore[defeated[i][p]];\r\n        }\r\n      }\r\n    }\r\n\r\n    uint[] memory ranked = new uint[](copelandScore.length);\r\n    uint[] memory sortedSecondOrderCopeland = sort(copy(secondOrderCopeland));\r\n\r\n\r\n    for(i=0; i < copelandScore.length; i ++ )\r\n    {\r\n      for(p=0; p < copelandScore.length; p ++ )\r\n      {\r\n        if(sortedSecondOrderCopeland[i] == secondOrderCopeland[p])\r\n        {\r\n          ranked[i] = p;\r\n          //stops same score being matched twice\r\n          secondOrderCopeland[p] = copelandScore.length  * copelandScore.length;\r\n          break;\r\n        }\r\n      }\r\n    }\r\n\r\n    weightCandidates(ranked);\r\n  }\r\n\r\n\r\n  function copy(uint[] toCopy) internal pure returns (uint[])\r\n  {\r\n    uint[] memory copyTo = new uint[](toCopy.length);\r\n    for(uint i = 0; i < toCopy.length; i ++)\r\n    {\r\n      copyTo[i] = toCopy[i];\r\n    }\r\n    return copyTo;\r\n  }\r\n  function pairwiseComparison(uint i, uint p) internal constant returns (uint)\r\n  {\r\n    uint scorei = 0;\r\n    uint scorep = 0;\r\n    uint voteLength = votes.length;\r\n    address iaddress = registeredUser[candidates[i]].myAddress;\r\n    address paddress = registeredUser[candidates[p]].myAddress;\r\n\r\n    for(uint z =0; z < voteLength; z ++)\r\n    {\r\n      if (scorei <= voteLength / 2 && scorep <= voteLength /2)\r\n      {\r\n        //if not seen its the highest\r\n        uint votezlength = votes[z].length;\r\n        for(uint j =0; j < votezlength; j ++)\r\n        {\r\n          address voteaddress = votes[z][j];\r\n          if(voteaddress == iaddress )\r\n          {\r\n            scorei ++;\r\n            break;\r\n          }\r\n          else if(voteaddress == paddress )\r\n          {\r\n            scorep ++;\r\n            break;\r\n          }\r\n        }\r\n      }\r\n      else{\r\n        //if majority for one candidate no need to continue\r\n        break;\r\n      }\r\n    }\r\n    if(scorei > scorep)\r\n    {\r\n      return 0;\r\n    }\r\n    else if (scorep > scorei) {\r\n      return 1;\r\n    }\r\n    else\r\n    {\r\n      return 2;\r\n    }\r\n  }\r\n  function weightCandidates(uint[] ranked) public\r\n  {\r\n    for (uint i = 0; i < numberOfRepresentatives; i++)\r\n    {\r\n      MyLib.Agent memory a;\r\n      a.u = candidates[ranked[i]];\r\n      a.weight = 1;\r\n      listOfRepresentatives.push(a);\r\n    }\r\n    candidates.length = 0;\r\n\r\n  }\r\n  function sort(uint[] data) public returns (uint[]) {\r\n    quickSort(data, uint(0), uint(data.length - 1));\r\n    return data;\r\n  }\r\n\r\n  function quickSort(uint[] memory arr, uint left, uint right) internal{\r\n    uint i = left;\r\n    uint j = right;\r\n    if(i==j) return;\r\n    uint pivot = arr[uint(left + (right - left) / 2)];\r\n    while (i <= j) {\r\n      while (arr[uint(i)] > pivot) i++;\r\n      while (pivot > arr[uint(j)]) j--;\r\n      if (i <= j) {\r\n        (arr[uint(i)], arr[uint(j)]) = (arr[uint(j)], arr[uint(i)]);\r\n        i++;\r\n        j--;\r\n      }\r\n    }\r\n    if (left < j)\r\n    quickSort(arr, left, j);\r\n    if (i < right)\r\n    quickSort(arr, i, right);\r\n  }\r\n\r\n    function listCandidates(uint number) public constant returns (string,address) {\r\n\r\n      return (registeredUser[candidates[number]].name, registeredUser[candidates[number]].myAddress);\r\n    }\r\n\r\n    function getCandidatesLength() public constant returns (uint)\r\n    {\r\n      return candidates.length;\r\n    }\r\n\r\n    function listRepresentives(uint number) public constant returns (string,address,uint,uint[]) {\r\n\r\n      return (registeredUser[listOfRepresentatives[number].u].name, registeredUser[listOfRepresentatives[number].u].myAddress, listOfRepresentatives[number].weight,listOfRepresentatives[number].budget);\r\n    }\r\n\r\n    function getRepresentivesLength() public constant returns (uint)\r\n    {\r\n      return listOfRepresentatives.length;\r\n    }\r\n\r\n\r\n}\r\n",
  "sourcePath": "C:\\Users\\JakeL\\Desktop\\MultiAgentSystemsOnTheBlockChain\\contracts\\VotingClub.sol",
  "compiler": {
    "name": "solc",
    "version": "0.4.19+commit.c4cbbb05.Emscripten.clang"
  },
  "schemaVersion": "2.0.0",
  "updatedAt": "2018-04-08T08:18:34.119Z"
}