{
  "contractName": "VotingClub",
  "abi": [
    {
      "constant": true,
      "inputs": [
        {
          "name": "number",
          "type": "uint256"
        }
      ],
      "name": "listRegisteredUsers",
      "outputs": [
        {
          "name": "",
          "type": "string"
        },
        {
          "name": "",
          "type": "address"
        }
      ],
      "payable": false,
      "stateMutability": "view",
      "type": "function"
    },
    {
      "constant": true,
      "inputs": [],
      "name": "timeVoteStarted",
      "outputs": [
        {
          "name": "",
          "type": "uint256"
        }
      ],
      "payable": false,
      "stateMutability": "view",
      "type": "function"
    },
    {
      "constant": true,
      "inputs": [],
      "name": "getCandidatesLength",
      "outputs": [
        {
          "name": "",
          "type": "uint256"
        }
      ],
      "payable": false,
      "stateMutability": "view",
      "type": "function"
    },
    {
      "constant": true,
      "inputs": [],
      "name": "getRegisteredUsersLength",
      "outputs": [
        {
          "name": "",
          "type": "uint256"
        }
      ],
      "payable": false,
      "stateMutability": "view",
      "type": "function"
    },
    {
      "constant": true,
      "inputs": [
        {
          "name": "number",
          "type": "uint256"
        }
      ],
      "name": "listCandidates",
      "outputs": [
        {
          "name": "",
          "type": "string"
        },
        {
          "name": "",
          "type": "address"
        }
      ],
      "payable": false,
      "stateMutability": "view",
      "type": "function"
    },
    {
      "constant": false,
      "inputs": [],
      "name": "startVote",
      "outputs": [],
      "payable": false,
      "stateMutability": "nonpayable",
      "type": "function"
    },
    {
      "constant": false,
      "inputs": [
        {
          "name": "ranked",
          "type": "uint256[]"
        }
      ],
      "name": "weightCandidates",
      "outputs": [],
      "payable": false,
      "stateMutability": "nonpayable",
      "type": "function"
    },
    {
      "constant": true,
      "inputs": [
        {
          "name": "number",
          "type": "uint256"
        }
      ],
      "name": "showVotes",
      "outputs": [
        {
          "name": "",
          "type": "address[]"
        }
      ],
      "payable": false,
      "stateMutability": "view",
      "type": "function"
    },
    {
      "constant": false,
      "inputs": [
        {
          "name": "suggestion",
          "type": "uint256"
        }
      ],
      "name": "changeRegistrationCostSuggestion",
      "outputs": [],
      "payable": false,
      "stateMutability": "nonpayable",
      "type": "function"
    },
    {
      "constant": true,
      "inputs": [],
      "name": "termLength",
      "outputs": [
        {
          "name": "",
          "type": "uint256"
        }
      ],
      "payable": false,
      "stateMutability": "view",
      "type": "function"
    },
    {
      "constant": false,
      "inputs": [],
      "name": "subsidize",
      "outputs": [],
      "payable": true,
      "stateMutability": "payable",
      "type": "function"
    },
    {
      "constant": false,
      "inputs": [
        {
          "name": "data",
          "type": "uint256[]"
        }
      ],
      "name": "sort",
      "outputs": [
        {
          "name": "",
          "type": "uint256[]"
        }
      ],
      "payable": false,
      "stateMutability": "nonpayable",
      "type": "function"
    },
    {
      "constant": false,
      "inputs": [],
      "name": "changeRegistrationCost",
      "outputs": [],
      "payable": false,
      "stateMutability": "nonpayable",
      "type": "function"
    },
    {
      "constant": true,
      "inputs": [],
      "name": "numberOfRepresentatives",
      "outputs": [
        {
          "name": "",
          "type": "uint256"
        }
      ],
      "payable": false,
      "stateMutability": "view",
      "type": "function"
    },
    {
      "constant": true,
      "inputs": [
        {
          "name": "",
          "type": "address"
        }
      ],
      "name": "voted",
      "outputs": [
        {
          "name": "",
          "type": "bool"
        }
      ],
      "payable": false,
      "stateMutability": "view",
      "type": "function"
    },
    {
      "constant": false,
      "inputs": [],
      "name": "endVote",
      "outputs": [],
      "payable": false,
      "stateMutability": "nonpayable",
      "type": "function"
    },
    {
      "constant": true,
      "inputs": [],
      "name": "sayhi",
      "outputs": [],
      "payable": false,
      "stateMutability": "view",
      "type": "function"
    },
    {
      "constant": true,
      "inputs": [],
      "name": "checkRegistrationSuggestions",
      "outputs": [
        {
          "name": "",
          "type": "uint256"
        }
      ],
      "payable": false,
      "stateMutability": "view",
      "type": "function"
    },
    {
      "constant": true,
      "inputs": [],
      "name": "voteStarted",
      "outputs": [
        {
          "name": "",
          "type": "bool"
        }
      ],
      "payable": false,
      "stateMutability": "view",
      "type": "function"
    },
    {
      "constant": true,
      "inputs": [],
      "name": "getRepresentivesLength",
      "outputs": [
        {
          "name": "",
          "type": "uint256"
        }
      ],
      "payable": false,
      "stateMutability": "view",
      "type": "function"
    },
    {
      "constant": false,
      "inputs": [],
      "name": "apply",
      "outputs": [],
      "payable": false,
      "stateMutability": "nonpayable",
      "type": "function"
    },
    {
      "constant": true,
      "inputs": [],
      "name": "registrationCost",
      "outputs": [
        {
          "name": "",
          "type": "uint256"
        }
      ],
      "payable": false,
      "stateMutability": "view",
      "type": "function"
    },
    {
      "constant": true,
      "inputs": [],
      "name": "getContractValue",
      "outputs": [
        {
          "name": "",
          "type": "uint256"
        }
      ],
      "payable": false,
      "stateMutability": "view",
      "type": "function"
    },
    {
      "constant": true,
      "inputs": [
        {
          "name": "text",
          "type": "string"
        }
      ],
      "name": "chat",
      "outputs": [],
      "payable": false,
      "stateMutability": "view",
      "type": "function"
    },
    {
      "constant": true,
      "inputs": [
        {
          "name": "number",
          "type": "uint256"
        }
      ],
      "name": "listRepresentives",
      "outputs": [
        {
          "name": "",
          "type": "string"
        },
        {
          "name": "",
          "type": "address"
        },
        {
          "name": "",
          "type": "uint256"
        },
        {
          "name": "",
          "type": "uint256[]"
        }
      ],
      "payable": false,
      "stateMutability": "view",
      "type": "function"
    },
    {
      "constant": true,
      "inputs": [],
      "name": "timeVoteEnded",
      "outputs": [
        {
          "name": "",
          "type": "uint256"
        }
      ],
      "payable": false,
      "stateMutability": "view",
      "type": "function"
    },
    {
      "constant": false,
      "inputs": [
        {
          "name": "myVote",
          "type": "address[]"
        }
      ],
      "name": "vote",
      "outputs": [],
      "payable": false,
      "stateMutability": "nonpayable",
      "type": "function"
    },
    {
      "constant": false,
      "inputs": [
        {
          "name": "name",
          "type": "string"
        }
      ],
      "name": "register",
      "outputs": [],
      "payable": true,
      "stateMutability": "payable",
      "type": "function"
    },
    {
      "inputs": [
        {
          "name": "cost",
          "type": "uint256"
        },
        {
          "name": "term",
          "type": "uint256"
        },
        {
          "name": "reps",
          "type": "uint256"
        }
      ],
      "payable": false,
      "stateMutability": "nonpayable",
      "type": "constructor"
    },
    {
      "anonymous": false,
      "inputs": [
        {
          "indexed": false,
          "name": "message",
          "type": "string"
        },
        {
          "indexed": false,
          "name": "name",
          "type": "string"
        }
      ],
      "name": "message",
      "type": "event"
    }
  ],
  "bytecode": "0x60606040526000600960006101000a81548160ff0219169083151502179055506000600a556000600b556000600c55341561003957600080fd5b604051606080612be5833981016040528080519060200190919080519060200190919080519060200190919050508280600181905550508160038190555080600481905550505050612b55806100906000396000f30060606040526004361061016a576000357c0100000000000000000000000000000000000000000000000000000000900463ffffffff1680630cf35f441461016f578063161893d0146101a75780631859df65146101d05780631afad36d146101f957806322ca968b146102225780634c0a6af01461025a5780635846fc461461026f5780636687d4fe146102c95780637392445a1461030057806379b18cd11461032357806390f10ed11461034c5780639ec8b02614610356578063a90cc0d9146103c4578063ae0689ac146103d9578063aec2ccae14610402578063b92239461461044f578063bc9c707d14610464578063c0fc41e614610479578063d0dc0180146104a2578063d5268b22146104cb578063db595b3b146104f4578063dc4a7f7f14610509578063dc82697c14610532578063de8caa1e1461055b578063dee6472f146105b8578063ed00af98146105f2578063ed0813291461061b578063f2c298be14610675575b600080fd5b341561017a57600080fd5b61019060048080359060200190919050506106c7565b60405161019e929190612929565b60405180910390f35b34156101b257600080fd5b6101ba6107d6565b6040516101c79190612a16565b60405180910390f35b34156101db57600080fd5b6101e36107dc565b6040516101f09190612a16565b60405180910390f35b341561020457600080fd5b61020c6107e9565b6040516102199190612a16565b60405180910390f35b341561022d57600080fd5b61024360048080359060200190919050506107f5565b604051610251929190612929565b60405180910390f35b341561026557600080fd5b61026d610938565b005b341561027a57600080fd5b6102c760048080359060200190820180359060200190808060200260200160405190810160405280939291908181526020018383602002808284378201915050505050509190505061098a565b005b34156102d457600080fd5b6102ea6004808035906020019091905050610a87565b6040516102f791906128ca565b60405180910390f35b341561030b57600080fd5b6103216004808035906020019091905050610b35565b005b341561032e57600080fd5b610336610be6565b6040516103439190612a16565b60405180910390f35b610354610bec565b005b341561036157600080fd5b6103ae600480803590602001908201803590602001908080602002602001604051908101604052809392919081815260200183836020028082843782019150505050505091905050610bee565b6040516103bb91906128ec565b60405180910390f35b34156103cf57600080fd5b6103d7610c0e565b005b34156103e457600080fd5b6103ec610c30565b6040516103f99190612a16565b60405180910390f35b341561040d57600080fd5b610439600480803573ffffffffffffffffffffffffffffffffffffffff16906020019091905050610c36565b604051610446919061290e565b60405180910390f35b341561045a57600080fd5b610462610c56565b005b341561046f57600080fd5b610477610cd1565b005b341561048457600080fd5b61048c610d08565b6040516104999190612a16565b60405180910390f35b34156104ad57600080fd5b6104b5610dc2565b6040516104c2919061290e565b60405180910390f35b34156104d657600080fd5b6104de610dd5565b6040516104eb9190612a16565b60405180910390f35b34156104ff57600080fd5b610507610de2565b005b341561051457600080fd5b61051c610ebc565b6040516105299190612a16565b60405180910390f35b341561053d57600080fd5b610545610ec2565b6040516105529190612a16565b60405180910390f35b341561056657600080fd5b6105b6600480803590602001908201803590602001908080601f01602080910402602001604051908101604052809392919081815260200183838082843782019150505050505091905050610ee1565b005b34156105c357600080fd5b6105d96004808035906020019091905050610fd2565b6040516105e99493929190612959565b60405180910390f35b34156105fd57600080fd5b6106056111c4565b6040516106129190612a16565b60405180910390f35b341561062657600080fd5b6106736004808035906020019082018035906020019080806020026020016040519081016040528093929190818152602001838360200280828437820191505050505050919050506111ca565b005b6106c5600480803590602001908201803590602001908080601f0160208091040260200160405190810160405280939291908181526020018383808284378201915050505050509190505061143b565b005b6106cf61217f565b600080838154811015156106df57fe5b90600052602060002090600202016001016000848154811015156106ff57fe5b906000526020600020906002020160000160009054906101000a900473ffffffffffffffffffffffffffffffffffffffff16818054600181600116156101000203166002900480601f0160208091040260200160405190810160405280929190818152602001828054600181600116156101000203166002900480156107c65780601f1061079b576101008083540402835291602001916107c6565b820191906000526020600020905b8154815290600101906020018083116107a957829003601f168201915b5050505050915091509150915091565b600a5481565b6000600680549050905090565b60008080549050905090565b6107fd61217f565b60008060068481548110151561080f57fe5b90600052602060002090015481548110151561082757fe5b9060005260206000209060020201600101600060068581548110151561084957fe5b90600052602060002090015481548110151561086157fe5b906000526020600020906002020160000160009054906101000a900473ffffffffffffffffffffffffffffffffffffffff16818054600181600116156101000203166002900480601f0160208091040260200160405190810160405280929190818152602001828054600181600116156101000203166002900480156109285780601f106108fd57610100808354040283529160200191610928565b820191906000526020600020905b81548152906001019060200180831161090b57829003601f168201915b5050505050915091509150915091565b42600354600b5401108015610960575060001515600960009054906101000a900460ff161515145b15610988576001600960006101000a81548160ff02191690831515021790555042600a819055505b565b600080610995612193565b600d549250600091505b600454821015610a8157600684838151811015156109b957fe5b906020019060200201518154811015156109cf57fe5b90600052602060002090015481600001818152505060008314156109fd576001816040018181525050610a16565b6001831415610a155781600454038160400181815250505b5b60058054806001018281610a2a91906121bb565b91600052602060002090600302016000839091909150600082015181600001556020820151816001019080519060200190610a669291906121ed565b5060408201518160020155505050818060010192505061099f565b50505050565b610a8f61223a565b600782815481101515610a9e57fe5b9060005260206000209001805480602002602001604051908101604052809291908181526020018280548015610b2957602002820191906000526020600020905b8160009054906101000a900473ffffffffffffffffffffffffffffffffffffffff1673ffffffffffffffffffffffffffffffffffffffff1681526020019060010190808311610adf575b50505050509050919050565b60008090505b600080549050811015610be2573373ffffffffffffffffffffffffffffffffffffffff16600082815481101515610b6e57fe5b906000526020600020906002020160000160009054906101000a900473ffffffffffffffffffffffffffffffffffffffff1673ffffffffffffffffffffffffffffffffffffffff161415610bd5578160026000838152602001908152602001600020819055505b8080600101915050610b3b565b5050565b60035481565b565b610bf661224e565b610c0682600060018551036116a8565b819050919050565b6000610c18610d08565b905060015481141515610c2d57806001819055505b50565b60045481565b60086020528060005260406000206000915054906101000a900460ff1681565b42600c54600a540111158015610c7f575060011515600960009054906101000a900460ff161515145b15610ccf576000600960006101000a81548160ff02191690831515021790555042600b81905550610cae611808565b6000600681610cbd9190612262565b506000600781610ccd919061228e565b505b565b7f36bf6cf02ecc60712e107054775debd1f2f255ab34df5fc4928044264d16fd1f604051610cfe906129e3565b60405180910390a1565b60008060008060008060036004600080549050811515610d2457fe5b04029450600093505b600080549050841015610db4576000925060026000858152602001908152602001600020549150600090505b600080549050811015610d97576002600082815260200190815260200160002054821415610d8a5782806001019350505b8080600101915050610d59565b84831115610da757819550610dba565b8380600101945050610d2d565b60015495505b505050505090565b600960009054906101000a900460ff1681565b6000600580549050905090565b6000610df533610df0611c24565b611dff565b1515610eb957600090505b600080549050811015610eb8573373ffffffffffffffffffffffffffffffffffffffff16600082815481101515610e3357fe5b906000526020600020906002020160000160009054906101000a900473ffffffffffffffffffffffffffffffffffffffff1673ffffffffffffffffffffffffffffffffffffffff161415610eab5760068054806001018281610e9591906122ba565b9160005260206000209001600083909190915055505b8080600101915050610e00565b5b50565b60015481565b60003073ffffffffffffffffffffffffffffffffffffffff1631905090565b60008090505b600080549050811015610fce573373ffffffffffffffffffffffffffffffffffffffff16600082815481101515610f1a57fe5b906000526020600020906002020160000160009054906101000a900473ffffffffffffffffffffffffffffffffffffffff1673ffffffffffffffffffffffffffffffffffffffff161415610fc1577f36bf6cf02ecc60712e107054775debd1f2f255ab34df5fc4928044264d16fd1f82600083815481101515610f9957fe5b9060005260206000209060020201600101604051610fb89291906129ac565b60405180910390a15b8080600101915050610ee7565b5050565b610fda61217f565b600080610fe561224e565b6000600586815481101515610ff657fe5b90600052602060002090600302016000015481548110151561101457fe5b9060005260206000209060020201600101600060058781548110151561103657fe5b90600052602060002090600302016000015481548110151561105457fe5b906000526020600020906002020160000160009054906101000a900473ffffffffffffffffffffffffffffffffffffffff1660058781548110151561109557fe5b9060005260206000209060030201600201546005888154811015156110b657fe5b9060005260206000209060030201600101838054600181600116156101000203166002900480601f01602080910402602001604051908101604052809291908181526020018280546001816001161561010002031660029004801561115c5780601f106111315761010080835404028352916020019161115c565b820191906000526020600020905b81548152906001019060200180831161113f57829003601f168201915b50505050509350808054806020026020016040519081016040528092919081815260200182805480156111ae57602002820191906000526020600020905b81548152602001906001019080831161119a575b5050505050905093509350935093509193509193565b600b5481565b611323336000805480602002602001604051908101604052809291908181526020016000905b8282101561131a57838290600052602060002090600202016040805190810160405290816000820160009054906101000a900473ffffffffffffffffffffffffffffffffffffffff1673ffffffffffffffffffffffffffffffffffffffff1673ffffffffffffffffffffffffffffffffffffffff168152602001600182018054600181600116156101000203166002900480601f0160208091040260200160405190810160405280929190818152602001828054600181600116156101000203166002900480156113025780601f106112d757610100808354040283529160200191611302565b820191906000526020600020905b8154815290600101906020018083116112e557829003601f168201915b505050505081525050815260200190600101906111f0565b50505050611dff565b8015611342575060011515600960009054906101000a900460ff161515145b801561139e575060001515600860003373ffffffffffffffffffffffffffffffffffffffff1673ffffffffffffffffffffffffffffffffffffffff16815260200190815260200160002060009054906101000a900460ff161515145b15611438576001600860003373ffffffffffffffffffffffffffffffffffffffff1673ffffffffffffffffffffffffffffffffffffffff16815260200190815260200160002060006101000a81548160ff0219169083151502179055506007805480600101828161140f91906122e6565b916000526020600020900160008390919091509080519060200190611435929190612312565b50505b50565b61144361239c565b600154341180156115aa57506115a8336000805480602002602001604051908101604052809291908181526020016000905b8282101561159f57838290600052602060002090600202016040805190810160405290816000820160009054906101000a900473ffffffffffffffffffffffffffffffffffffffff1673ffffffffffffffffffffffffffffffffffffffff1673ffffffffffffffffffffffffffffffffffffffff168152602001600182018054600181600116156101000203166002900480601f0160208091040260200160405190810160405280929190818152602001828054600181600116156101000203166002900480156115875780601f1061155c57610100808354040283529160200191611587565b820191906000526020600020905b81548152906001019060200180831161156a57829003601f168201915b50505050508152505081526020019060010190611475565b50505050611dff565b155b156116825733816000019073ffffffffffffffffffffffffffffffffffffffff16908173ffffffffffffffffffffffffffffffffffffffff16815250508181602001819052506000805480600101828161160491906123d2565b9160005260206000209060020201600083909190915060008201518160000160006101000a81548173ffffffffffffffffffffffffffffffffffffffff021916908373ffffffffffffffffffffffffffffffffffffffff160217905550602082015181600101908051906020019061167d929190612404565b505050505b600154600260006001600080549050038152602001908152602001600020819055505050565b6000806000849250839150818314156116c057611800565b8560028686038115156116cf57fe5b0486018151811015156116de57fe5b9060200190602002015190505b81831115156117d7575b80868481518110151561170457fe5b9060200190602002015111156117215782806001019350506116f5565b5b858281518110151561173057fe5b9060200190602002015181111561174f57818060019003925050611722565b81831115156117d257858281518110151561176657fe5b90602001906020020151868481518110151561177e57fe5b90602001906020020151878581518110151561179657fe5b90602001906020020188858151811015156117ad57fe5b9060200190602002018281525082815250505082806001019350508180600190039250505b6116eb565b818510156117eb576117ea8686846116a8565b5b838310156117ff576117fe8684866116a8565b5b5b505050505050565b60008061181361224e565b61181b612484565b600061182561224e565b61182d61224e565b61183561224e565b6006805490506040518059106118485750595b90808252806020026020018201604052509550855160405180591061186a5750595b9080825280602002602001820160405280156118a057816020015b61188d612498565b8152602001906001900390816118855790505b509450600097505b85518810156118f95785516040518059106118c05750595b908082528060200260200182016040525085898151811015156118df57fe5b9060200190602002018190525087806001019850506118a8565b600097505b6001865103881015611a35578760010196505b8551871015611a28576119248888611e81565b935060008414156119a25786858981518110151561193e57fe5b90602001906020020151878a81518110151561195657fe5b9060200190602002015181518110151561196c57fe5b9060200190602002018181525050858881518110151561198857fe5b906020019060200201805180919060010181525050611a1b565b6001841415611a1a578785888151811015156119ba57fe5b9060200190602002015187898151811015156119d257fe5b906020019060200201518151811015156119e857fe5b90602001906020020181815250508587815181101515611a0457fe5b9060200190602002018051809190600101815250505b5b8680600101975050611911565b87806001019850506118fe565b8551604051805910611a445750595b90808252806020026020018201604052509250600097505b8551881015611b2d5760008689815181101515611a7557fe5b90602001906020020151141515611b2057600096505b8588815181101515611a9957fe5b90602001906020020151871015611b1f57858589815181101515611ab957fe5b9060200190602002015188815181101515611ad057fe5b90602001906020020151815181101515611ae657fe5b906020019060200201518389815181101515611afe57fe5b90602001906020020181815101915081815250508680600101975050611a8b565b5b8780600101985050611a5c565b8551604051805910611b3c5750595b90808252806020026020018201604052509150611b60611b5b846120f2565b610bee565b9050600097505b8551881015611c1157600096505b8551871015611c04578287815181101515611b8c57fe5b906020019060200201518189815181101515611ba457fe5b906020019060200201511415611bf757868289815181101515611bc357fe5b906020019060200201818152505085518651028388815181101515611be457fe5b9060200190602002018181525050611c04565b8680600101975050611b75565b8780600101985050611b67565b611c1a8261098a565b5050505050505050565b611c2c6124ac565b6000611c366124ac565b6000600680549050925082604051805910611c4e5750595b908082528060200260200182016040528015611c8457816020015b611c716124c0565b815260200190600190039081611c695790505b509150600090505b82811015611df6576000600682815481101515611ca557fe5b906000526020600020900154815481101515611cbd57fe5b90600052602060002090600202016040805190810160405290816000820160009054906101000a900473ffffffffffffffffffffffffffffffffffffffff1673ffffffffffffffffffffffffffffffffffffffff1673ffffffffffffffffffffffffffffffffffffffff168152602001600182018054600181600116156101000203166002900480601f016020809104026020016040519081016040528092919081815260200182805460018160011615610100020316600290048015611dc55780601f10611d9a57610100808354040283529160200191611dc5565b820191906000526020600020905b815481529060010190602001808311611da857829003601f168201915b5050505050815250508282815181101515611ddc57fe5b906020019060200201819052508080600101915050611c8c565b81935050505090565b600080600090505b8251811015611e75578373ffffffffffffffffffffffffffffffffffffffff168382815181101515611e3557fe5b906020019060200201516000015173ffffffffffffffffffffffffffffffffffffffff161415611e685760019150611e7a565b8080600101915050611e07565b600091505b5092915050565b60008060008060008060008060008060009850600097506007805490509650600060068d815481101515611eb157fe5b906000526020600020900154815481101515611ec957fe5b906000526020600020906002020160000160009054906101000a900473ffffffffffffffffffffffffffffffffffffffff169550600060068c815481101515611f0e57fe5b906000526020600020900154815481101515611f2657fe5b906000526020600020906002020160000160009054906101000a900473ffffffffffffffffffffffffffffffffffffffff169450600093505b868410156120bc57600287811515611f7357fe5b048911158015611f8f5750600287811515611f8a57fe5b048811155b156120aa57600784815481101515611fa357fe5b9060005260206000209001805490509250600091505b828210156120a557600784815481101515611fd057fe5b906000526020600020900182815481101515611fe857fe5b906000526020600020900160009054906101000a900473ffffffffffffffffffffffffffffffffffffffff1690508573ffffffffffffffffffffffffffffffffffffffff168173ffffffffffffffffffffffffffffffffffffffff1614156120575788806001019950506120a5565b8473ffffffffffffffffffffffffffffffffffffffff168173ffffffffffffffffffffffffffffffffffffffff1614156120985787806001019850506120a5565b8180600101925050611fb9565b6120af565b6120bc565b8380600101945050611f5f565b878911156120cd57600099506120e3565b888811156120de57600199506120e3565b600299505b50505050505050505092915050565b6120fa61224e565b61210261224e565b600083516040518059106121135750595b90808252806020026020018201604052509150600090505b835181101561217557838181518110151561214257fe5b90602001906020020151828281518110151561215a57fe5b9060200190602002018181525050808060010191505061212b565b8192505050919050565b602060405190810160405280600081525090565b606060405190810160405280600081526020016121ae612498565b8152602001600081525090565b8154818355818115116121e8576003028160030283600052602060002091820191016121e791906124f6565b5b505050565b828054828255906000526020600020908101928215612229579160200282015b8281111561222857825182559160200191906001019061220d565b5b5090506122369190612535565b5090565b602060405190810160405280600081525090565b602060405190810160405280600081525090565b815481835581811511612289578183600052602060002091820191016122889190612535565b5b505050565b8154818355818115116122b5578183600052602060002091820191016122b4919061255a565b5b505050565b8154818355818115116122e1578183600052602060002091820191016122e09190612535565b5b505050565b81548183558181151161230d5781836000526020600020918201910161230c919061255a565b5b505050565b82805482825590600052602060002090810192821561238b579160200282015b8281111561238a5782518260006101000a81548173ffffffffffffffffffffffffffffffffffffffff021916908373ffffffffffffffffffffffffffffffffffffffff16021790555091602001919060010190612332565b5b5090506123989190612586565b5090565b6040805190810160405280600073ffffffffffffffffffffffffffffffffffffffff1681526020016123cc6125c9565b81525090565b8154818355818115116123ff576002028160020283600052602060002091820191016123fe91906125dd565b5b505050565b828054600181600116156101000203166002900490600052602060002090601f016020900481019282601f1061244557805160ff1916838001178555612473565b82800160010185558215612473579182015b82811115612472578251825591602001919060010190612457565b5b5090506124809190612535565b5090565b602060405190810160405280600081525090565b602060405190810160405280600081525090565b602060405190810160405280600081525090565b6040805190810160405280600073ffffffffffffffffffffffffffffffffffffffff1681526020016124f06125c9565b81525090565b61253291905b8082111561252e5760008082016000905560018201600061251d9190612633565b6002820160009055506003016124fc565b5090565b90565b61255791905b8082111561255357600081600090555060010161253b565b5090565b90565b61258391905b8082111561257f57600081816125769190612654565b50600101612560565b5090565b90565b6125c691905b808211156125c257600081816101000a81549073ffffffffffffffffffffffffffffffffffffffff02191690555060010161258c565b5090565b90565b602060405190810160405280600081525090565b61263091905b8082111561262c57600080820160006101000a81549073ffffffffffffffffffffffffffffffffffffffff02191690556001820160006126239190612675565b506002016125e3565b5090565b90565b50805460008255906000526020600020908101906126519190612535565b50565b50805460008255906000526020600020908101906126729190612535565b50565b50805460018160011615610100020316600290046000825580601f1061269b57506126ba565b601f0160209004906000526020600020908101906126b99190612535565b5b50565b6126c681612a98565b82525050565b60006126d782612a5d565b8084526020840193506126e983612a31565b60005b8281101561271b576126ff8683516126bd565b61270882612a7e565b91506020860195506001810190506126ec565b50849250505092915050565b600061273282612a68565b80845260208401935061274483612a3e565b60005b828110156127765761275a8683516128bb565b61276382612a8b565b9150602086019550600181019050612747565b50849250505092915050565b61278b81612ab8565b82525050565b600061279c82612a73565b8084526127b0816020860160208601612ace565b6127b981612b0a565b602085010191505092915050565b6000815460018116600081146127e4576001811461280457612845565b607f600283041680865260ff198316602087015260408601935050612845565b6002820480865260208601955061281a85612a4b565b60005b8281101561283c5781548189015260018201915060208101905061281d565b80880195505050505b505092915050565b6000600482527f6a616b65000000000000000000000000000000000000000000000000000000006020830152604082019050919050565b6000600282527f68690000000000000000000000000000000000000000000000000000000000006020830152604082019050919050565b6128c481612ac4565b82525050565b600060208201905081810360008301526128e481846126cc565b905092915050565b600060208201905081810360008301526129068184612727565b905092915050565b60006020820190506129236000830184612782565b92915050565b600060408201905081810360008301526129438185612791565b905061295260208301846126bd565b9392505050565b600060808201905081810360008301526129738187612791565b905061298260208301866126bd565b61298f60408301856128bb565b81810360608301526129a18184612727565b905095945050505050565b600060408201905081810360008301526129c68185612791565b905081810360208301526129da81846127c7565b90509392505050565b600060408201905081810360008301526129fc81612884565b90508181036020830152612a0f8161284d565b9050919050565b6000602082019050612a2b60008301846128bb565b92915050565b6000602082019050919050565b6000602082019050919050565b60008160005260206000209050919050565b600081519050919050565b600081519050919050565b600081519050919050565b6000602082019050919050565b6000602082019050919050565b600073ffffffffffffffffffffffffffffffffffffffff82169050919050565b60008115159050919050565b6000819050919050565b60005b83811015612aec578082015181840152602081019050612ad1565b83811460008114612afc57612b03565b6000858501525b5050505050565b6000601f19601f83011690509190505600a265627a7a72305820a339bd49782dd1f024c803ba7326a59efd074baaa144b67dd97fbf155aff808d6c6578706572696d656e74616cf50037",
  "source": "pragma solidity ^0.4.18;\r\npragma experimental ABIEncoderV2;\r\nimport \"./MyLib.sol\";\r\nimport \"./RegistrationClub.sol\";\r\ncontract VotingClub is RegistrationClub {\r\n\r\n    uint public termLength;\r\n    uint public numberOfRepresentatives;\r\n    MyLib.Agent[] listOfRepresentatives;\r\n\r\n      uint[] candidates;\r\n  address[][] votes;\r\n  mapping (address => bool) public voted;\r\n  bool public voteStarted = false;\r\n  uint public timeVoteStarted =0;\r\n  uint public timeVoteEnded =0;\r\n  uint votingTime = 0;\r\n  uint weightingOption;\r\n    function VotingClub(uint cost, uint term, uint reps) RegistrationClub(cost) public {\r\n        termLength = term;\r\n        numberOfRepresentatives = reps;\r\n  }\r\n\r\n    function apply() public {\r\n      if(!isRegistered(msg.sender,buildCandidateList()))\r\n      {\r\n        for (uint i = 0; i < registeredUser.length; i++)\r\n        {\r\n          if(registeredUser[i].myAddress == msg.sender)\r\n          {\r\n            candidates.push(i);\r\n          }\r\n        }\r\n      }\r\n    }\r\n\r\n    function buildCandidateList() internal constant returns (MyLib.User[])\r\n    {\r\n      uint candidatesLength = candidates.length;\r\n      MyLib.User[] memory userList = new MyLib.User[](candidatesLength);\r\n      for(uint i = 0; i < candidatesLength; i ++)\r\n      {\r\n        userList[i] = registeredUser[candidates[i]];\r\n      }\r\n      return userList;\r\n    }\r\n\r\n  function startVote() public {\r\n    if(timeVoteEnded + termLength < block.timestamp && voteStarted == false)\r\n    {\r\n      voteStarted = true;\r\n      timeVoteStarted = block.timestamp;\r\n    }\r\n  }\r\n\r\n  function vote(address[] myVote) public {\r\n    if(isRegistered(msg.sender,registeredUser) && voteStarted == true && voted[msg.sender] == false){\r\n      voted[msg.sender] = true;\r\n      votes.push(myVote);\r\n\r\n    }\r\n  }\r\n  function endVote() public\r\n  {\r\n    if(timeVoteStarted + votingTime <= block.timestamp && voteStarted == true)\r\n    {\r\n      voteStarted = false;\r\n      timeVoteEnded = block.timestamp;\r\n      countVotes();\r\n      candidates.length = 0;\r\n      votes.length = 0;\r\n    }\r\n\r\n  }\r\n  //second order copeland\r\n  function countVotes() internal {\r\n    uint i;\r\n    uint p;\r\n    uint[] memory copelandScore = new uint[](candidates.length);\r\n    uint[][] memory defeated = new uint[][](copelandScore.length);\r\n\r\n    //init2d array\r\n    for (i = 0; i < copelandScore.length; i++)\r\n    {\r\n      defeated[i] = new uint[](copelandScore.length);\r\n    }\r\n\r\n    //pairwise each candidate against each other\r\n    for (i = 0; i < copelandScore.length - 1; i++)\r\n    {\r\n      for (p = 1 + i; p < copelandScore.length; p++)\r\n      {\r\n        uint pairwise = pairwiseComparison(i,p);\r\n\r\n        if(pairwise == 0)\r\n        {\r\n          defeated[i][copelandScore[i]] = p;\r\n          copelandScore[i] ++;\r\n        }\r\n        else if (pairwise == 1) {\r\n          defeated[p][copelandScore[p]] = i;\r\n          copelandScore[p] ++;\r\n        }\r\n\r\n\r\n      }\r\n    }\r\n\r\n    //add up the copeland scores of defeated users\r\n    uint[] memory secondOrderCopeland = new uint[](copelandScore.length);\r\n    for(i =0; i < copelandScore.length; i++)\r\n    {\r\n      if(copelandScore[i] != 0)\r\n      {\r\n        for(p =0; p < copelandScore[i] ; p++)\r\n        {\r\n          secondOrderCopeland[i] += copelandScore[defeated[i][p]];\r\n        }\r\n      }\r\n    }\r\n\r\n    //because candidates save int instead of user have to save sorted and unsorted and then compare\r\n    uint[] memory ranked = new uint[](copelandScore.length);\r\n    uint[] memory sortedSecondOrderCopeland = sort(copy(secondOrderCopeland));\r\n\r\n\r\n    for(i=0; i < copelandScore.length; i ++ )\r\n    {\r\n      for(p=0; p < copelandScore.length; p ++ )\r\n      {\r\n        if(sortedSecondOrderCopeland[i] == secondOrderCopeland[p])\r\n        {\r\n          ranked[i] = p;\r\n          //stops same score being matched twice\r\n          secondOrderCopeland[p] = copelandScore.length  * copelandScore.length;\r\n          break;\r\n        }\r\n      }\r\n    }\r\n\r\n    weightCandidates(ranked);\r\n  }\r\n\r\n\r\n  function copy(uint[] toCopy) internal pure returns (uint[])\r\n  {\r\n    uint[] memory copyTo = new uint[](toCopy.length);\r\n    for(uint i = 0; i < toCopy.length; i ++)\r\n    {\r\n      copyTo[i] = toCopy[i];\r\n    }\r\n    return copyTo;\r\n  }\r\n  function pairwiseComparison(uint i, uint p) internal constant returns (uint)\r\n  {\r\n    uint scorei = 0;\r\n    uint scorep = 0;\r\n    uint voteLength = votes.length;\r\n    address iaddress = registeredUser[candidates[i]].myAddress;\r\n    address paddress = registeredUser[candidates[p]].myAddress;\r\n\r\n    for(uint z =0; z < voteLength; z ++)\r\n    {\r\n      if (scorei <= voteLength / 2 && scorep <= voteLength /2)\r\n      {\r\n        //if not seen its the highest\r\n        uint votezlength = votes[z].length;\r\n        for(uint j =0; j < votezlength; j ++)\r\n        {\r\n          address voteaddress = votes[z][j];\r\n          if(voteaddress == iaddress )\r\n          {\r\n            scorei ++;\r\n            break;\r\n          }\r\n          else if(voteaddress == paddress )\r\n          {\r\n            scorep ++;\r\n            break;\r\n          }\r\n        }\r\n      }\r\n      else{\r\n        //if majority for one candidate no need to continue\r\n        break;\r\n      }\r\n    }\r\n    if(scorei > scorep)\r\n    {\r\n      return 0;\r\n    }\r\n    else if (scorep > scorei) {\r\n      return 1;\r\n    }\r\n    else\r\n    {\r\n      return 2;\r\n    }\r\n  }\r\n  function weightCandidates(uint[] ranked) public\r\n  {\r\n    uint weightingOptionMemory = weightingOption;\r\n    for (uint i = 0; i < numberOfRepresentatives; i++)\r\n    {\r\n      MyLib.Agent memory a;\r\n      a.u = candidates[ranked[i]];\r\n      if(weightingOptionMemory == 0)\r\n      {\r\n        a.weight = 1;\r\n      }\r\n      else if(weightingOptionMemory == 1)\r\n      {\r\n        a.weight = numberOfRepresentatives - i;\r\n      }\r\n      listOfRepresentatives.push(a);\r\n    }\r\n  }\r\n  function sort(uint[] data) public returns (uint[]) {\r\n    quickSort(data, uint(0), uint(data.length - 1));\r\n    return data;\r\n  }\r\n\r\n  function quickSort(uint[] memory arr, uint left, uint right) internal{\r\n    uint i = left;\r\n    uint j = right;\r\n    if(i==j) return;\r\n    uint pivot = arr[uint(left + (right - left) / 2)];\r\n    while (i <= j) {\r\n      while (arr[uint(i)] > pivot) i++;\r\n      while (pivot > arr[uint(j)]) j--;\r\n      if (i <= j) {\r\n        (arr[uint(i)], arr[uint(j)]) = (arr[uint(j)], arr[uint(i)]);\r\n        i++;\r\n        j--;\r\n      }\r\n    }\r\n    if (left < j)\r\n    quickSort(arr, left, j);\r\n    if (i < right)\r\n    quickSort(arr, i, right);\r\n  }\r\n\r\n    function listCandidates(uint number) public constant returns (string,address) {\r\n\r\n      return (registeredUser[candidates[number]].name, registeredUser[candidates[number]].myAddress);\r\n    }\r\n\r\n    function getCandidatesLength() public constant returns (uint)\r\n    {\r\n      return candidates.length;\r\n    }\r\n\r\n    function listRepresentives(uint number) public constant returns (string,address,uint,uint[]) {\r\n\r\n      return (registeredUser[listOfRepresentatives[number].u].name, registeredUser[listOfRepresentatives[number].u].myAddress, listOfRepresentatives[number].weight,listOfRepresentatives[number].budget);\r\n    }\r\n\r\n    function getRepresentivesLength() public constant returns (uint)\r\n    {\r\n      return listOfRepresentatives.length;\r\n    }\r\n\r\n    function showVotes(uint number) public constant returns(address[])\r\n    {\r\n      return votes[number];\r\n    }\r\n\r\n\r\n}\r\n",
  "sourcePath": "C:\\Users\\JakeL\\Desktop\\MultiAgentSystemsOnTheBlockChain\\contracts\\VotingClub.sol",
  "compiler": {
    "name": "solc",
    "version": "0.4.18+commit.9cf6e910.Emscripten.clang"
  },
  "schemaVersion": "1.0.1",
  "updatedAt": "2018-04-24T16:00:11.757Z"
}