{
  "contractName": "VotingClub",
  "abi": [
    {
      "constant": true,
      "inputs": [
        {
          "name": "number",
          "type": "uint256"
        }
      ],
      "name": "listRegisteredUsers",
      "outputs": [
        {
          "name": "",
          "type": "string"
        },
        {
          "name": "",
          "type": "address"
        }
      ],
      "payable": false,
      "stateMutability": "view",
      "type": "function"
    },
    {
      "constant": true,
      "inputs": [],
      "name": "timeVoteStarted",
      "outputs": [
        {
          "name": "",
          "type": "uint256"
        }
      ],
      "payable": false,
      "stateMutability": "view",
      "type": "function"
    },
    {
      "constant": true,
      "inputs": [],
      "name": "getCandidatesLength",
      "outputs": [
        {
          "name": "",
          "type": "uint256"
        }
      ],
      "payable": false,
      "stateMutability": "view",
      "type": "function"
    },
    {
      "constant": true,
      "inputs": [],
      "name": "getRegisteredUsersLength",
      "outputs": [
        {
          "name": "",
          "type": "uint256"
        }
      ],
      "payable": false,
      "stateMutability": "view",
      "type": "function"
    },
    {
      "constant": true,
      "inputs": [],
      "name": "isRegistered",
      "outputs": [
        {
          "name": "",
          "type": "bool"
        }
      ],
      "payable": false,
      "stateMutability": "view",
      "type": "function"
    },
    {
      "constant": true,
      "inputs": [
        {
          "name": "number",
          "type": "uint256"
        }
      ],
      "name": "listCandidates",
      "outputs": [
        {
          "name": "",
          "type": "string"
        },
        {
          "name": "",
          "type": "address"
        }
      ],
      "payable": false,
      "stateMutability": "view",
      "type": "function"
    },
    {
      "constant": false,
      "inputs": [],
      "name": "startVote",
      "outputs": [],
      "payable": false,
      "stateMutability": "nonpayable",
      "type": "function"
    },
    {
      "constant": false,
      "inputs": [
        {
          "name": "ranked",
          "type": "uint256[]"
        }
      ],
      "name": "weightCandidates",
      "outputs": [],
      "payable": false,
      "stateMutability": "nonpayable",
      "type": "function"
    },
    {
      "constant": true,
      "inputs": [
        {
          "name": "number",
          "type": "uint256"
        }
      ],
      "name": "showVotes",
      "outputs": [
        {
          "name": "",
          "type": "address[]"
        }
      ],
      "payable": false,
      "stateMutability": "view",
      "type": "function"
    },
    {
      "constant": true,
      "inputs": [],
      "name": "termLength",
      "outputs": [
        {
          "name": "",
          "type": "uint256"
        }
      ],
      "payable": false,
      "stateMutability": "view",
      "type": "function"
    },
    {
      "constant": false,
      "inputs": [],
      "name": "subsidize",
      "outputs": [],
      "payable": true,
      "stateMutability": "payable",
      "type": "function"
    },
    {
      "constant": false,
      "inputs": [
        {
          "name": "data",
          "type": "uint256[]"
        }
      ],
      "name": "sort",
      "outputs": [
        {
          "name": "",
          "type": "uint256[]"
        }
      ],
      "payable": false,
      "stateMutability": "nonpayable",
      "type": "function"
    },
    {
      "constant": true,
      "inputs": [],
      "name": "numberOfRepresentatives",
      "outputs": [
        {
          "name": "",
          "type": "uint256"
        }
      ],
      "payable": false,
      "stateMutability": "view",
      "type": "function"
    },
    {
      "constant": true,
      "inputs": [
        {
          "name": "",
          "type": "address"
        }
      ],
      "name": "voted",
      "outputs": [
        {
          "name": "",
          "type": "bool"
        }
      ],
      "payable": false,
      "stateMutability": "view",
      "type": "function"
    },
    {
      "constant": false,
      "inputs": [],
      "name": "endVote",
      "outputs": [],
      "payable": false,
      "stateMutability": "nonpayable",
      "type": "function"
    },
    {
      "constant": true,
      "inputs": [],
      "name": "sayhi",
      "outputs": [],
      "payable": false,
      "stateMutability": "view",
      "type": "function"
    },
    {
      "constant": true,
      "inputs": [],
      "name": "voteStarted",
      "outputs": [
        {
          "name": "",
          "type": "bool"
        }
      ],
      "payable": false,
      "stateMutability": "view",
      "type": "function"
    },
    {
      "constant": true,
      "inputs": [],
      "name": "getRepresentivesLength",
      "outputs": [
        {
          "name": "",
          "type": "uint256"
        }
      ],
      "payable": false,
      "stateMutability": "view",
      "type": "function"
    },
    {
      "constant": false,
      "inputs": [],
      "name": "apply",
      "outputs": [],
      "payable": false,
      "stateMutability": "nonpayable",
      "type": "function"
    },
    {
      "constant": true,
      "inputs": [],
      "name": "registrationCost",
      "outputs": [
        {
          "name": "",
          "type": "uint256"
        }
      ],
      "payable": false,
      "stateMutability": "view",
      "type": "function"
    },
    {
      "constant": true,
      "inputs": [],
      "name": "getContractValue",
      "outputs": [
        {
          "name": "",
          "type": "uint256"
        }
      ],
      "payable": false,
      "stateMutability": "view",
      "type": "function"
    },
    {
      "constant": true,
      "inputs": [
        {
          "name": "text",
          "type": "string"
        }
      ],
      "name": "chat",
      "outputs": [],
      "payable": false,
      "stateMutability": "view",
      "type": "function"
    },
    {
      "constant": true,
      "inputs": [
        {
          "name": "number",
          "type": "uint256"
        }
      ],
      "name": "listRepresentives",
      "outputs": [
        {
          "name": "",
          "type": "string"
        },
        {
          "name": "",
          "type": "address"
        },
        {
          "name": "",
          "type": "uint256"
        },
        {
          "name": "",
          "type": "uint256[]"
        }
      ],
      "payable": false,
      "stateMutability": "view",
      "type": "function"
    },
    {
      "constant": true,
      "inputs": [],
      "name": "timeVoteEnded",
      "outputs": [
        {
          "name": "",
          "type": "uint256"
        }
      ],
      "payable": false,
      "stateMutability": "view",
      "type": "function"
    },
    {
      "constant": false,
      "inputs": [
        {
          "name": "myVote",
          "type": "address[]"
        }
      ],
      "name": "vote",
      "outputs": [],
      "payable": false,
      "stateMutability": "nonpayable",
      "type": "function"
    },
    {
      "constant": false,
      "inputs": [
        {
          "name": "name",
          "type": "string"
        }
      ],
      "name": "register",
      "outputs": [],
      "payable": true,
      "stateMutability": "payable",
      "type": "function"
    },
    {
      "inputs": [
        {
          "name": "cost",
          "type": "uint256"
        },
        {
          "name": "term",
          "type": "uint256"
        },
        {
          "name": "reps",
          "type": "uint256"
        }
      ],
      "payable": false,
      "stateMutability": "nonpayable",
      "type": "constructor"
    },
    {
      "anonymous": false,
      "inputs": [
        {
          "indexed": false,
          "name": "message",
          "type": "string"
        },
        {
          "indexed": false,
          "name": "name",
          "type": "string"
        }
      ],
      "name": "message",
      "type": "event"
    }
  ],
  "bytecode": "0x60606040526000600860006101000a81548160ff02191690831515021790555060006009556000600a556000600b55341561003957600080fd5b604051606080612921833981016040528080519060200190919080519060200190919080519060200190919050508280600181905550508160028190555080600381905550505050612891806100906000396000f300606060405260043610610154576000357c0100000000000000000000000000000000000000000000000000000000900463ffffffff1680630cf35f4414610159578063161893d0146101915780631859df65146101ba5780631afad36d146101e3578063223668441461020c57806322ca968b146102355780634c0a6af01461026d5780635846fc46146102825780636687d4fe146102dc57806379b18cd11461031357806390f10ed11461033c5780639ec8b02614610346578063ae0689ac146103b4578063aec2ccae146103dd578063b92239461461042a578063bc9c707d1461043f578063d0dc018014610454578063d5268b221461047d578063db595b3b146104a6578063dc4a7f7f146104bb578063dc82697c146104e4578063de8caa1e1461050d578063dee6472f1461056a578063ed00af98146105a4578063ed081329146105cd578063f2c298be14610627575b600080fd5b341561016457600080fd5b61017a6004808035906020019091905050610679565b604051610188929190612665565b60405180910390f35b341561019c57600080fd5b6101a4610788565b6040516101b19190612752565b60405180910390f35b34156101c557600080fd5b6101cd61078e565b6040516101da9190612752565b60405180910390f35b34156101ee57600080fd5b6101f661079b565b6040516102039190612752565b60405180910390f35b341561021757600080fd5b61021f6107a7565b60405161022c919061264a565b60405180910390f35b341561024057600080fd5b610256600480803590602001909190505061084f565b604051610264929190612665565b60405180910390f35b341561027857600080fd5b610280610992565b005b341561028d57600080fd5b6102da6004808035906020019082018035906020019080806020026020016040519081016040528093929190818152602001838360200280828437820191505050505050919050506109e4565b005b34156102e757600080fd5b6102fd6004808035906020019091905050610ac3565b60405161030a9190612606565b60405180910390f35b341561031e57600080fd5b610326610b71565b6040516103339190612752565b60405180910390f35b610344610b77565b005b341561035157600080fd5b61039e600480803590602001908201803590602001908080602002602001604051908101604052809392919081815260200183836020028082843782019150505050505091905050610b79565b6040516103ab9190612628565b60405180910390f35b34156103bf57600080fd5b6103c7610b99565b6040516103d49190612752565b60405180910390f35b34156103e857600080fd5b610414600480803573ffffffffffffffffffffffffffffffffffffffff16906020019091905050610b9f565b604051610421919061264a565b60405180910390f35b341561043557600080fd5b61043d610bbf565b005b341561044a57600080fd5b610452610c3a565b005b341561045f57600080fd5b610467610c71565b604051610474919061264a565b60405180910390f35b341561048857600080fd5b610490610c84565b60405161049d9190612752565b60405180910390f35b34156104b157600080fd5b6104b9610c91565b005b34156104c657600080fd5b6104ce610d6b565b6040516104db9190612752565b60405180910390f35b34156104ef57600080fd5b6104f7610d71565b6040516105049190612752565b60405180910390f35b341561051857600080fd5b610568600480803590602001908201803590602001908080601f01602080910402602001604051908101604052809392919081815260200183838082843782019150505050505091905050610d90565b005b341561057557600080fd5b61058b6004808035906020019091905050610e81565b60405161059b9493929190612695565b60405180910390f35b34156105af57600080fd5b6105b7611073565b6040516105c49190612752565b60405180910390f35b34156105d857600080fd5b610625600480803590602001908201803590602001908080602002602001604051908101604052809392919081815260200183836020028082843782019150505050505091905050611079565b005b610677600480803590602001908201803590602001908080601f01602080910402602001604051908101604052809392919081815260200183838082843782019150505050505091905050611199565b005b610681611ebb565b6000808381548110151561069157fe5b90600052602060002090600202016001016000848154811015156106b157fe5b906000526020600020906002020160000160009054906101000a900473ffffffffffffffffffffffffffffffffffffffff16818054600181600116156101000203166002900480601f0160208091040260200160405190810160405280929190818152602001828054600181600116156101000203166002900480156107785780601f1061074d57610100808354040283529160200191610778565b820191906000526020600020905b81548152906001019060200180831161075b57829003601f168201915b5050505050915091509150915091565b60095481565b6000600580549050905090565b60008080549050905090565b600080600090505b600080549050811015610846573373ffffffffffffffffffffffffffffffffffffffff166000828154811015156107e257fe5b906000526020600020906002020160000160009054906101000a900473ffffffffffffffffffffffffffffffffffffffff1673ffffffffffffffffffffffffffffffffffffffff161415610839576001915061084b565b80806001019150506107af565b600091505b5090565b610857611ebb565b60008060058481548110151561086957fe5b90600052602060002090015481548110151561088157fe5b906000526020600020906002020160010160006005858154811015156108a357fe5b9060005260206000209001548154811015156108bb57fe5b906000526020600020906002020160000160009054906101000a900473ffffffffffffffffffffffffffffffffffffffff16818054600181600116156101000203166002900480601f0160208091040260200160405190810160405280929190818152602001828054600181600116156101000203166002900480156109825780601f1061095757610100808354040283529160200191610982565b820191906000526020600020905b81548152906001019060200180831161096557829003601f168201915b5050505050915091509150915091565b42600254600a54011080156109ba575060001515600860009054906101000a900460ff161515145b156109e2576001600860006101000a81548160ff021916908315150217905550426009819055505b565b60006109ee611ecf565b600091505b600354821015610aae5760058383815181101515610a0d57fe5b90602001906020020151815481101515610a2357fe5b906000526020600020900154816000018181525050600181604001818152505060048054806001018281610a579190611ef7565b91600052602060002090600302016000839091909150600082015181600001556020820151816001019080519060200190610a93929190611f29565b506040820151816002015550505081806001019250506109f3565b6000600581610abd9190611f76565b50505050565b610acb611fa2565b600682815481101515610ada57fe5b9060005260206000209001805480602002602001604051908101604052809291908181526020018280548015610b6557602002820191906000526020600020905b8160009054906101000a900473ffffffffffffffffffffffffffffffffffffffff1673ffffffffffffffffffffffffffffffffffffffff1681526020019060010190808311610b1b575b50505050509050919050565b60025481565b565b610b81611fb6565b610b9182600060018551036113e4565b819050919050565b60035481565b60076020528060005260406000206000915054906101000a900460ff1681565b42600b546009540111158015610be8575060011515600860009054906101000a900460ff161515145b15610c38576000600860006101000a81548160ff02191690831515021790555042600a81905550610c17611544565b6000600581610c269190611f76565b506000600681610c369190611fca565b505b565b7f36bf6cf02ecc60712e107054775debd1f2f255ab34df5fc4928044264d16fd1f604051610c679061271f565b60405180910390a1565b600860009054906101000a900460ff1681565b6000600480549050905090565b6000610ca433610c9f611960565b611b3b565b1515610d6857600090505b600080549050811015610d67573373ffffffffffffffffffffffffffffffffffffffff16600082815481101515610ce257fe5b906000526020600020906002020160000160009054906101000a900473ffffffffffffffffffffffffffffffffffffffff1673ffffffffffffffffffffffffffffffffffffffff161415610d5a5760058054806001018281610d449190611ff6565b9160005260206000209001600083909190915055505b8080600101915050610caf565b5b50565b60015481565b60003073ffffffffffffffffffffffffffffffffffffffff1631905090565b60008090505b600080549050811015610e7d573373ffffffffffffffffffffffffffffffffffffffff16600082815481101515610dc957fe5b906000526020600020906002020160000160009054906101000a900473ffffffffffffffffffffffffffffffffffffffff1673ffffffffffffffffffffffffffffffffffffffff161415610e70577f36bf6cf02ecc60712e107054775debd1f2f255ab34df5fc4928044264d16fd1f82600083815481101515610e4857fe5b9060005260206000209060020201600101604051610e679291906126e8565b60405180910390a15b8080600101915050610d96565b5050565b610e89611ebb565b600080610e94611fb6565b6000600486815481101515610ea557fe5b906000526020600020906003020160000154815481101515610ec357fe5b90600052602060002090600202016001016000600487815481101515610ee557fe5b906000526020600020906003020160000154815481101515610f0357fe5b906000526020600020906002020160000160009054906101000a900473ffffffffffffffffffffffffffffffffffffffff16600487815481101515610f4457fe5b906000526020600020906003020160020154600488815481101515610f6557fe5b9060005260206000209060030201600101838054600181600116156101000203166002900480601f01602080910402602001604051908101604052809291908181526020018280546001816001161561010002031660029004801561100b5780601f10610fe05761010080835404028352916020019161100b565b820191906000526020600020905b815481529060010190602001808311610fee57829003601f168201915b505050505093508080548060200260200160405190810160405280929190818152602001828054801561105d57602002820191906000526020600020905b815481526020019060010190808311611049575b5050505050905093509350935093509193509193565b600a5481565b6110816107a7565b80156110a0575060011515600860009054906101000a900460ff161515145b80156110fc575060001515600760003373ffffffffffffffffffffffffffffffffffffffff1673ffffffffffffffffffffffffffffffffffffffff16815260200190815260200160002060009054906101000a900460ff161515145b15611196576001600760003373ffffffffffffffffffffffffffffffffffffffff1673ffffffffffffffffffffffffffffffffffffffff16815260200190815260200160002060006101000a81548160ff0219169083151502179055506006805480600101828161116d9190612022565b91600052602060002090016000839091909150908051906020019061119392919061204e565b50505b50565b6111a16120d8565b600154341180156113085750611306336000805480602002602001604051908101604052809291908181526020016000905b828210156112fd57838290600052602060002090600202016040805190810160405290816000820160009054906101000a900473ffffffffffffffffffffffffffffffffffffffff1673ffffffffffffffffffffffffffffffffffffffff1673ffffffffffffffffffffffffffffffffffffffff168152602001600182018054600181600116156101000203166002900480601f0160208091040260200160405190810160405280929190818152602001828054600181600116156101000203166002900480156112e55780601f106112ba576101008083540402835291602001916112e5565b820191906000526020600020905b8154815290600101906020018083116112c857829003601f168201915b505050505081525050815260200190600101906111d3565b50505050611b3b565b155b156113e05733816000019073ffffffffffffffffffffffffffffffffffffffff16908173ffffffffffffffffffffffffffffffffffffffff168152505081816020018190525060008054806001018281611362919061210e565b9160005260206000209060020201600083909190915060008201518160000160006101000a81548173ffffffffffffffffffffffffffffffffffffffff021916908373ffffffffffffffffffffffffffffffffffffffff16021790555060208201518160010190805190602001906113db929190612140565b505050505b5050565b6000806000849250839150818314156113fc5761153c565b85600286860381151561140b57fe5b04860181518110151561141a57fe5b9060200190602002015190505b8183111515611513575b80868481518110151561144057fe5b90602001906020020151111561145d578280600101935050611431565b5b858281518110151561146c57fe5b9060200190602002015181111561148b5781806001900392505061145e565b818311151561150e5785828151811015156114a257fe5b9060200190602002015186848151811015156114ba57fe5b9060200190602002015187858151811015156114d257fe5b90602001906020020188858151811015156114e957fe5b9060200190602002018281525082815250505082806001019350508180600190039250505b611427565b81851015611527576115268686846113e4565b5b8383101561153b5761153a8684866113e4565b5b5b505050505050565b60008061154f611fb6565b6115576121c0565b6000611561611fb6565b611569611fb6565b611571611fb6565b6005805490506040518059106115845750595b9080825280602002602001820160405250955085516040518059106115a65750595b9080825280602002602001820160405280156115dc57816020015b6115c96121d4565b8152602001906001900390816115c15790505b509450600097505b85518810156116355785516040518059106115fc5750595b9080825280602002602001820160405250858981518110151561161b57fe5b9060200190602002018190525087806001019850506115e4565b600097505b6001865103881015611771578760010196505b8551871015611764576116608888611bbd565b935060008414156116de5786858981518110151561167a57fe5b90602001906020020151878a81518110151561169257fe5b906020019060200201518151811015156116a857fe5b906020019060200201818152505085888151811015156116c457fe5b906020019060200201805180919060010181525050611757565b6001841415611756578785888151811015156116f657fe5b90602001906020020151878981518110151561170e57fe5b9060200190602002015181518110151561172457fe5b9060200190602002018181525050858781518110151561174057fe5b9060200190602002018051809190600101815250505b5b868060010197505061164d565b878060010198505061163a565b85516040518059106117805750595b90808252806020026020018201604052509250600097505b855188101561186957600086898151811015156117b157fe5b9060200190602002015114151561185c57600096505b85888151811015156117d557fe5b9060200190602002015187101561185b578585898151811015156117f557fe5b906020019060200201518881518110151561180c57fe5b9060200190602002015181518110151561182257fe5b90602001906020020151838981518110151561183a57fe5b906020019060200201818151019150818152505086806001019750506117c7565b5b8780600101985050611798565b85516040518059106118785750595b9080825280602002602001820160405250915061189c61189784611e2e565b610b79565b9050600097505b855188101561194d57600096505b85518710156119405782878151811015156118c857fe5b9060200190602002015181898151811015156118e057fe5b906020019060200201511415611933578682898151811015156118ff57fe5b90602001906020020181815250508551865102838881518110151561192057fe5b9060200190602002018181525050611940565b86806001019750506118b1565b87806001019850506118a3565b611956826109e4565b5050505050505050565b6119686121e8565b60006119726121e8565b600060058054905092508260405180591061198a5750595b9080825280602002602001820160405280156119c057816020015b6119ad6121fc565b8152602001906001900390816119a55790505b509150600090505b82811015611b325760006005828154811015156119e157fe5b9060005260206000209001548154811015156119f957fe5b90600052602060002090600202016040805190810160405290816000820160009054906101000a900473ffffffffffffffffffffffffffffffffffffffff1673ffffffffffffffffffffffffffffffffffffffff1673ffffffffffffffffffffffffffffffffffffffff168152602001600182018054600181600116156101000203166002900480601f016020809104026020016040519081016040528092919081815260200182805460018160011615610100020316600290048015611b015780601f10611ad657610100808354040283529160200191611b01565b820191906000526020600020905b815481529060010190602001808311611ae457829003601f168201915b5050505050815250508282815181101515611b1857fe5b9060200190602002018190525080806001019150506119c8565b81935050505090565b600080600090505b8251811015611bb1578373ffffffffffffffffffffffffffffffffffffffff168382815181101515611b7157fe5b906020019060200201516000015173ffffffffffffffffffffffffffffffffffffffff161415611ba45760019150611bb6565b8080600101915050611b43565b600091505b5092915050565b60008060008060008060008060008060009850600097506006805490509650600060058d815481101515611bed57fe5b906000526020600020900154815481101515611c0557fe5b906000526020600020906002020160000160009054906101000a900473ffffffffffffffffffffffffffffffffffffffff169550600060058c815481101515611c4a57fe5b906000526020600020900154815481101515611c6257fe5b906000526020600020906002020160000160009054906101000a900473ffffffffffffffffffffffffffffffffffffffff169450600093505b86841015611df857600287811515611caf57fe5b048911158015611ccb5750600287811515611cc657fe5b048811155b15611de657600684815481101515611cdf57fe5b9060005260206000209001805490509250600091505b82821015611de157600684815481101515611d0c57fe5b906000526020600020900182815481101515611d2457fe5b906000526020600020900160009054906101000a900473ffffffffffffffffffffffffffffffffffffffff1690508573ffffffffffffffffffffffffffffffffffffffff168173ffffffffffffffffffffffffffffffffffffffff161415611d93578880600101995050611de1565b8473ffffffffffffffffffffffffffffffffffffffff168173ffffffffffffffffffffffffffffffffffffffff161415611dd4578780600101985050611de1565b8180600101925050611cf5565b611deb565b611df8565b8380600101945050611c9b565b87891115611e095760009950611e1f565b88881115611e1a5760019950611e1f565b600299505b50505050505050505092915050565b611e36611fb6565b611e3e611fb6565b60008351604051805910611e4f5750595b90808252806020026020018201604052509150600090505b8351811015611eb1578381815181101515611e7e57fe5b906020019060200201518282815181101515611e9657fe5b90602001906020020181815250508080600101915050611e67565b8192505050919050565b602060405190810160405280600081525090565b60606040519081016040528060008152602001611eea6121d4565b8152602001600081525090565b815481835581811511611f2457600302816003028360005260206000209182019101611f239190612232565b5b505050565b828054828255906000526020600020908101928215611f65579160200282015b82811115611f64578251825591602001919060010190611f49565b5b509050611f729190612271565b5090565b815481835581811511611f9d57818360005260206000209182019101611f9c9190612271565b5b505050565b602060405190810160405280600081525090565b602060405190810160405280600081525090565b815481835581811511611ff157818360005260206000209182019101611ff09190612296565b5b505050565b81548183558181151161201d5781836000526020600020918201910161201c9190612271565b5b505050565b815481835581811511612049578183600052602060002091820191016120489190612296565b5b505050565b8280548282559060005260206000209081019282156120c7579160200282015b828111156120c65782518260006101000a81548173ffffffffffffffffffffffffffffffffffffffff021916908373ffffffffffffffffffffffffffffffffffffffff1602179055509160200191906001019061206e565b5b5090506120d491906122c2565b5090565b6040805190810160405280600073ffffffffffffffffffffffffffffffffffffffff168152602001612108612305565b81525090565b81548183558181151161213b5760020281600202836000526020600020918201910161213a9190612319565b5b505050565b828054600181600116156101000203166002900490600052602060002090601f016020900481019282601f1061218157805160ff19168380011785556121af565b828001600101855582156121af579182015b828111156121ae578251825591602001919060010190612193565b5b5090506121bc9190612271565b5090565b602060405190810160405280600081525090565b602060405190810160405280600081525090565b602060405190810160405280600081525090565b6040805190810160405280600073ffffffffffffffffffffffffffffffffffffffff16815260200161222c612305565b81525090565b61226e91905b8082111561226a57600080820160009055600182016000612259919061236f565b600282016000905550600301612238565b5090565b90565b61229391905b8082111561228f576000816000905550600101612277565b5090565b90565b6122bf91905b808211156122bb57600081816122b29190612390565b5060010161229c565b5090565b90565b61230291905b808211156122fe57600081816101000a81549073ffffffffffffffffffffffffffffffffffffffff0219169055506001016122c8565b5090565b90565b602060405190810160405280600081525090565b61236c91905b8082111561236857600080820160006101000a81549073ffffffffffffffffffffffffffffffffffffffff021916905560018201600061235f91906123b1565b5060020161231f565b5090565b90565b508054600082559060005260206000209081019061238d9190612271565b50565b50805460008255906000526020600020908101906123ae9190612271565b50565b50805460018160011615610100020316600290046000825580601f106123d757506123f6565b601f0160209004906000526020600020908101906123f59190612271565b5b50565b612402816127d4565b82525050565b600061241382612799565b8084526020840193506124258361276d565b60005b828110156124575761243b8683516123f9565b612444826127ba565b9150602086019550600181019050612428565b50849250505092915050565b600061246e826127a4565b8084526020840193506124808361277a565b60005b828110156124b2576124968683516125f7565b61249f826127c7565b9150602086019550600181019050612483565b50849250505092915050565b6124c7816127f4565b82525050565b60006124d8826127af565b8084526124ec81602086016020860161280a565b6124f581612846565b602085010191505092915050565b600081546001811660008114612520576001811461254057612581565b607f600283041680865260ff198316602087015260408601935050612581565b6002820480865260208601955061255685612787565b60005b8281101561257857815481890152600182019150602081019050612559565b80880195505050505b505092915050565b6000600482527f6a616b65000000000000000000000000000000000000000000000000000000006020830152604082019050919050565b6000600282527f68690000000000000000000000000000000000000000000000000000000000006020830152604082019050919050565b61260081612800565b82525050565b600060208201905081810360008301526126208184612408565b905092915050565b600060208201905081810360008301526126428184612463565b905092915050565b600060208201905061265f60008301846124be565b92915050565b6000604082019050818103600083015261267f81856124cd565b905061268e60208301846123f9565b9392505050565b600060808201905081810360008301526126af81876124cd565b90506126be60208301866123f9565b6126cb60408301856125f7565b81810360608301526126dd8184612463565b905095945050505050565b6000604082019050818103600083015261270281856124cd565b905081810360208301526127168184612503565b90509392505050565b60006040820190508181036000830152612738816125c0565b9050818103602083015261274b81612589565b9050919050565b600060208201905061276760008301846125f7565b92915050565b6000602082019050919050565b6000602082019050919050565b60008160005260206000209050919050565b600081519050919050565b600081519050919050565b600081519050919050565b6000602082019050919050565b6000602082019050919050565b600073ffffffffffffffffffffffffffffffffffffffff82169050919050565b60008115159050919050565b6000819050919050565b60005b8381101561282857808201518184015260208101905061280d565b838114600081146128385761283f565b6000858501525b5050505050565b6000601f19601f83011690509190505600a265627a7a723058203e2566f4adc71cbdc2530b688b4acbfff2fe52bafccbd1b5f5be688d014e94cb6c6578706572696d656e74616cf50037",
  "source": "pragma solidity ^0.4.18;\r\npragma experimental ABIEncoderV2;\r\nimport \"./MyLib.sol\";\r\nimport \"./RegistrationClub.sol\";\r\ncontract VotingClub is RegistrationClub {\r\n\r\n    uint public termLength;\r\n    uint public numberOfRepresentatives;\r\n    MyLib.Agent[] listOfRepresentatives;\r\n\r\n      uint[] candidates;\r\n  address[][] votes;\r\n  mapping (address => bool) public voted;\r\n  bool public voteStarted = false;\r\n  uint public timeVoteStarted =0;\r\n  uint public timeVoteEnded =0;\r\n  uint votingTime = 0;\r\n\r\n    function VotingClub(uint cost, uint term, uint reps) RegistrationClub(cost) public {\r\n        termLength = term;\r\n        numberOfRepresentatives = reps;\r\n  }\r\n\r\n      //saves gass as dont have to look at candidates with no votes\r\n    function apply() public {\r\n      if(!addressUsed(msg.sender,buildCandidateList()))\r\n      {\r\n        for (uint i = 0; i < registeredUser.length; i++)\r\n        {\r\n          if(registeredUser[i].myAddress == msg.sender)\r\n          {\r\n            candidates.push(i);\r\n          }\r\n        }\r\n      }\r\n    }\r\n\r\n    function buildCandidateList() internal constant returns (MyLib.User[])\r\n    {\r\n      uint candidatesLength = candidates.length;\r\n      MyLib.User[] memory userList = new MyLib.User[](candidatesLength);\r\n      for(uint i = 0; i < candidatesLength; i ++)\r\n      {\r\n        userList[i] = registeredUser[candidates[i]];\r\n      }\r\n      return userList;\r\n    }\r\n\r\n  function startVote() public {\r\n    if(timeVoteEnded + termLength < block.timestamp && voteStarted == false)\r\n    {\r\n      voteStarted = true;\r\n      timeVoteStarted = block.timestamp;\r\n    }\r\n  }\r\n\r\n  function vote(address[] myVote) public {\r\n    if(isRegistered() && voteStarted == true && voted[msg.sender] == false){\r\n      voted[msg.sender] = true;\r\n      votes.push(myVote);\r\n\r\n    }\r\n  }\r\n  function endVote() public\r\n  {\r\n    if(timeVoteStarted + votingTime <= block.timestamp && voteStarted == true)\r\n    {\r\n      voteStarted = false;\r\n      timeVoteEnded = block.timestamp;\r\n      countVotes();\r\n      candidates.length = 0;\r\n      votes.length = 0;\r\n    }\r\n\r\n  }\r\n  //second order copeland\r\n  function countVotes() internal {\r\n    uint i;\r\n    uint p;\r\n    uint[] memory copelandScore = new uint[](candidates.length);\r\n    uint[][] memory defeated = new uint[][](copelandScore.length);\r\n\r\n    //init2d array\r\n    for (i = 0; i < copelandScore.length; i++)\r\n    {\r\n      defeated[i] = new uint[](copelandScore.length);\r\n    }\r\n\r\n    //pairwise each candidate against each other\r\n    for (i = 0; i < copelandScore.length - 1; i++)\r\n    {\r\n      for (p = 1 + i; p < copelandScore.length; p++)\r\n      {\r\n        uint pairwise = pairwiseComparison(i,p);\r\n\r\n        if(pairwise == 0)\r\n        {\r\n          defeated[i][copelandScore[i]] = p;\r\n          copelandScore[i] ++;\r\n        }\r\n        else if (pairwise == 1) {\r\n          defeated[p][copelandScore[p]] = i;\r\n          copelandScore[p] ++;\r\n        }\r\n\r\n\r\n      }\r\n    }\r\n\r\n    //add up the copeland scores of defeated users\r\n    uint[] memory secondOrderCopeland = new uint[](copelandScore.length);\r\n    for(i =0; i < copelandScore.length; i++)\r\n    {\r\n      if(copelandScore[i] != 0)\r\n      {\r\n        for(p =0; p < copelandScore[i] ; p++)\r\n        {\r\n          secondOrderCopeland[i] += copelandScore[defeated[i][p]];\r\n        }\r\n      }\r\n    }\r\n\r\n    uint[] memory ranked = new uint[](copelandScore.length);\r\n    uint[] memory sortedSecondOrderCopeland = sort(copy(secondOrderCopeland));\r\n\r\n\r\n    for(i=0; i < copelandScore.length; i ++ )\r\n    {\r\n      for(p=0; p < copelandScore.length; p ++ )\r\n      {\r\n        if(sortedSecondOrderCopeland[i] == secondOrderCopeland[p])\r\n        {\r\n          ranked[i] = p;\r\n          //stops same score being matched twice\r\n          secondOrderCopeland[p] = copelandScore.length  * copelandScore.length;\r\n          break;\r\n        }\r\n      }\r\n    }\r\n\r\n    weightCandidates(ranked);\r\n  }\r\n\r\n\r\n  function copy(uint[] toCopy) internal pure returns (uint[])\r\n  {\r\n    uint[] memory copyTo = new uint[](toCopy.length);\r\n    for(uint i = 0; i < toCopy.length; i ++)\r\n    {\r\n      copyTo[i] = toCopy[i];\r\n    }\r\n    return copyTo;\r\n  }\r\n  function pairwiseComparison(uint i, uint p) internal constant returns (uint)\r\n  {\r\n    uint scorei = 0;\r\n    uint scorep = 0;\r\n    uint voteLength = votes.length;\r\n    address iaddress = registeredUser[candidates[i]].myAddress;\r\n    address paddress = registeredUser[candidates[p]].myAddress;\r\n\r\n    for(uint z =0; z < voteLength; z ++)\r\n    {\r\n      if (scorei <= voteLength / 2 && scorep <= voteLength /2)\r\n      {\r\n        //if not seen its the highest\r\n        uint votezlength = votes[z].length;\r\n        for(uint j =0; j < votezlength; j ++)\r\n        {\r\n          address voteaddress = votes[z][j];\r\n          if(voteaddress == iaddress )\r\n          {\r\n            scorei ++;\r\n            break;\r\n          }\r\n          else if(voteaddress == paddress )\r\n          {\r\n            scorep ++;\r\n            break;\r\n          }\r\n        }\r\n      }\r\n      else{\r\n        //if majority for one candidate no need to continue\r\n        break;\r\n      }\r\n    }\r\n    if(scorei > scorep)\r\n    {\r\n      return 0;\r\n    }\r\n    else if (scorep > scorei) {\r\n      return 1;\r\n    }\r\n    else\r\n    {\r\n      return 2;\r\n    }\r\n  }\r\n  function weightCandidates(uint[] ranked) public\r\n  {\r\n    for (uint i = 0; i < numberOfRepresentatives; i++)\r\n    {\r\n      MyLib.Agent memory a;\r\n      a.u = candidates[ranked[i]];\r\n      a.weight = 1;\r\n      listOfRepresentatives.push(a);\r\n    }\r\n    candidates.length = 0;\r\n\r\n  }\r\n  function sort(uint[] data) public returns (uint[]) {\r\n    quickSort(data, uint(0), uint(data.length - 1));\r\n    return data;\r\n  }\r\n\r\n  function quickSort(uint[] memory arr, uint left, uint right) internal{\r\n    uint i = left;\r\n    uint j = right;\r\n    if(i==j) return;\r\n    uint pivot = arr[uint(left + (right - left) / 2)];\r\n    while (i <= j) {\r\n      while (arr[uint(i)] > pivot) i++;\r\n      while (pivot > arr[uint(j)]) j--;\r\n      if (i <= j) {\r\n        (arr[uint(i)], arr[uint(j)]) = (arr[uint(j)], arr[uint(i)]);\r\n        i++;\r\n        j--;\r\n      }\r\n    }\r\n    if (left < j)\r\n    quickSort(arr, left, j);\r\n    if (i < right)\r\n    quickSort(arr, i, right);\r\n  }\r\n\r\n    function listCandidates(uint number) public constant returns (string,address) {\r\n\r\n      return (registeredUser[candidates[number]].name, registeredUser[candidates[number]].myAddress);\r\n    }\r\n\r\n    function getCandidatesLength() public constant returns (uint)\r\n    {\r\n      return candidates.length;\r\n    }\r\n\r\n    function listRepresentives(uint number) public constant returns (string,address,uint,uint[]) {\r\n\r\n      return (registeredUser[listOfRepresentatives[number].u].name, registeredUser[listOfRepresentatives[number].u].myAddress, listOfRepresentatives[number].weight,listOfRepresentatives[number].budget);\r\n    }\r\n\r\n    function getRepresentivesLength() public constant returns (uint)\r\n    {\r\n      return listOfRepresentatives.length;\r\n    }\r\n\r\n    function showVotes(uint number) public constant returns(address[])\r\n    {\r\n      return votes[number];\r\n    }\r\n\r\n\r\n}\r\n",
  "sourcePath": "C:\\Users\\JakeL\\Desktop\\MultiAgentSystemsOnTheBlockChain\\contracts\\VotingClub.sol",
  "compiler": {
    "name": "solc",
    "version": "0.4.18+commit.9cf6e910.Emscripten.clang"
  },
  "schemaVersion": "1.0.1",
  "updatedAt": "2018-04-16T19:57:42.737Z"
}