{
  "contractName": "VotingClub",
  "abi": [
    {
      "constant": true,
      "inputs": [
        {
          "name": "number",
          "type": "uint256"
        }
      ],
      "name": "listRegisteredUsers",
      "outputs": [
        {
          "name": "",
          "type": "string"
        },
        {
          "name": "",
          "type": "address"
        }
      ],
      "payable": false,
      "stateMutability": "view",
      "type": "function"
    },
    {
      "constant": true,
      "inputs": [],
      "name": "timeVoteStarted",
      "outputs": [
        {
          "name": "",
          "type": "uint256"
        }
      ],
      "payable": false,
      "stateMutability": "view",
      "type": "function"
    },
    {
      "constant": true,
      "inputs": [],
      "name": "getCandidatesLength",
      "outputs": [
        {
          "name": "",
          "type": "uint256"
        }
      ],
      "payable": false,
      "stateMutability": "view",
      "type": "function"
    },
    {
      "constant": true,
      "inputs": [],
      "name": "getRegisteredUsersLength",
      "outputs": [
        {
          "name": "",
          "type": "uint256"
        }
      ],
      "payable": false,
      "stateMutability": "view",
      "type": "function"
    },
    {
      "constant": true,
      "inputs": [],
      "name": "isRegistered",
      "outputs": [
        {
          "name": "",
          "type": "bool"
        }
      ],
      "payable": false,
      "stateMutability": "view",
      "type": "function"
    },
    {
      "constant": true,
      "inputs": [
        {
          "name": "number",
          "type": "uint256"
        }
      ],
      "name": "listCandidates",
      "outputs": [
        {
          "name": "",
          "type": "string"
        },
        {
          "name": "",
          "type": "address"
        }
      ],
      "payable": false,
      "stateMutability": "view",
      "type": "function"
    },
    {
      "constant": false,
      "inputs": [],
      "name": "startVote",
      "outputs": [],
      "payable": false,
      "stateMutability": "nonpayable",
      "type": "function"
    },
    {
      "constant": false,
      "inputs": [
        {
          "name": "ranked",
          "type": "uint256[]"
        }
      ],
      "name": "weightCandidates",
      "outputs": [],
      "payable": false,
      "stateMutability": "nonpayable",
      "type": "function"
    },
    {
      "constant": true,
      "inputs": [
        {
          "name": "number",
          "type": "uint256"
        }
      ],
      "name": "showVotes",
      "outputs": [
        {
          "name": "",
          "type": "address[]"
        }
      ],
      "payable": false,
      "stateMutability": "view",
      "type": "function"
    },
    {
      "constant": true,
      "inputs": [],
      "name": "termLength",
      "outputs": [
        {
          "name": "",
          "type": "uint256"
        }
      ],
      "payable": false,
      "stateMutability": "view",
      "type": "function"
    },
    {
      "constant": false,
      "inputs": [],
      "name": "subsidize",
      "outputs": [],
      "payable": true,
      "stateMutability": "payable",
      "type": "function"
    },
    {
      "constant": false,
      "inputs": [
        {
          "name": "data",
          "type": "uint256[]"
        }
      ],
      "name": "sort",
      "outputs": [
        {
          "name": "",
          "type": "uint256[]"
        }
      ],
      "payable": false,
      "stateMutability": "nonpayable",
      "type": "function"
    },
    {
      "constant": true,
      "inputs": [],
      "name": "numberOfRepresentatives",
      "outputs": [
        {
          "name": "",
          "type": "uint256"
        }
      ],
      "payable": false,
      "stateMutability": "view",
      "type": "function"
    },
    {
      "constant": true,
      "inputs": [
        {
          "name": "",
          "type": "address"
        }
      ],
      "name": "voted",
      "outputs": [
        {
          "name": "",
          "type": "bool"
        }
      ],
      "payable": false,
      "stateMutability": "view",
      "type": "function"
    },
    {
      "constant": false,
      "inputs": [],
      "name": "endVote",
      "outputs": [],
      "payable": false,
      "stateMutability": "nonpayable",
      "type": "function"
    },
    {
      "constant": true,
      "inputs": [],
      "name": "voteStarted",
      "outputs": [
        {
          "name": "",
          "type": "bool"
        }
      ],
      "payable": false,
      "stateMutability": "view",
      "type": "function"
    },
    {
      "constant": true,
      "inputs": [],
      "name": "getRepresentivesLength",
      "outputs": [
        {
          "name": "",
          "type": "uint256"
        }
      ],
      "payable": false,
      "stateMutability": "view",
      "type": "function"
    },
    {
      "constant": false,
      "inputs": [],
      "name": "apply",
      "outputs": [],
      "payable": false,
      "stateMutability": "nonpayable",
      "type": "function"
    },
    {
      "constant": true,
      "inputs": [],
      "name": "registrationCost",
      "outputs": [
        {
          "name": "",
          "type": "uint256"
        }
      ],
      "payable": false,
      "stateMutability": "view",
      "type": "function"
    },
    {
      "constant": true,
      "inputs": [],
      "name": "getContractValue",
      "outputs": [
        {
          "name": "",
          "type": "uint256"
        }
      ],
      "payable": false,
      "stateMutability": "view",
      "type": "function"
    },
    {
      "constant": true,
      "inputs": [
        {
          "name": "text",
          "type": "string"
        }
      ],
      "name": "chat",
      "outputs": [],
      "payable": false,
      "stateMutability": "view",
      "type": "function"
    },
    {
      "constant": true,
      "inputs": [
        {
          "name": "number",
          "type": "uint256"
        }
      ],
      "name": "listRepresentives",
      "outputs": [
        {
          "name": "",
          "type": "string"
        },
        {
          "name": "",
          "type": "address"
        },
        {
          "name": "",
          "type": "uint256"
        },
        {
          "name": "",
          "type": "uint256[]"
        }
      ],
      "payable": false,
      "stateMutability": "view",
      "type": "function"
    },
    {
      "constant": true,
      "inputs": [],
      "name": "timeVoteEnded",
      "outputs": [
        {
          "name": "",
          "type": "uint256"
        }
      ],
      "payable": false,
      "stateMutability": "view",
      "type": "function"
    },
    {
      "constant": false,
      "inputs": [
        {
          "name": "myVote",
          "type": "address[]"
        }
      ],
      "name": "vote",
      "outputs": [],
      "payable": false,
      "stateMutability": "nonpayable",
      "type": "function"
    },
    {
      "constant": false,
      "inputs": [
        {
          "name": "name",
          "type": "string"
        }
      ],
      "name": "register",
      "outputs": [],
      "payable": true,
      "stateMutability": "payable",
      "type": "function"
    },
    {
      "inputs": [
        {
          "name": "cost",
          "type": "uint256"
        },
        {
          "name": "term",
          "type": "uint256"
        },
        {
          "name": "reps",
          "type": "uint256"
        }
      ],
      "payable": false,
      "stateMutability": "nonpayable",
      "type": "constructor"
    },
    {
      "anonymous": false,
      "inputs": [
        {
          "indexed": false,
          "name": "message",
          "type": "string"
        },
        {
          "indexed": false,
          "name": "name",
          "type": "string"
        }
      ],
      "name": "message",
      "type": "event"
    }
  ],
  "bytecode": "0x60606040526000600860006101000a81548160ff02191690831515021790555060006009556000600a556000600b55341561003957600080fd5b604051606080612829833981016040528080519060200190919080519060200190919080519060200190919050508280600181905550508160028190555080600381905550505050612799806100906000396000f300606060405260043610610149576000357c0100000000000000000000000000000000000000000000000000000000900463ffffffff1680630cf35f441461014e578063161893d0146101865780631859df65146101af5780631afad36d146101d8578063223668441461020157806322ca968b1461022a5780634c0a6af0146102625780635846fc46146102775780636687d4fe146102d157806379b18cd11461030857806390f10ed1146103315780639ec8b0261461033b578063ae0689ac146103a9578063aec2ccae146103d2578063b92239461461041f578063d0dc018014610434578063d5268b221461045d578063db595b3b14610486578063dc4a7f7f1461049b578063dc82697c146104c4578063de8caa1e146104ed578063dee6472f1461054a578063ed00af9814610584578063ed081329146105ad578063f2c298be14610607575b600080fd5b341561015957600080fd5b61016f6004808035906020019091905050610659565b60405161017d9291906125a0565b60405180910390f35b341561019157600080fd5b610199610768565b6040516101a6919061265a565b60405180910390f35b34156101ba57600080fd5b6101c261076e565b6040516101cf919061265a565b60405180910390f35b34156101e357600080fd5b6101eb61077b565b6040516101f8919061265a565b60405180910390f35b341561020c57600080fd5b610214610787565b6040516102219190612585565b60405180910390f35b341561023557600080fd5b61024b600480803590602001909190505061082f565b6040516102599291906125a0565b60405180910390f35b341561026d57600080fd5b610275610972565b005b341561028257600080fd5b6102cf6004808035906020019082018035906020019080806020026020016040519081016040528093929190818152602001838360200280828437820191505050505050919050506109c4565b005b34156102dc57600080fd5b6102f26004808035906020019091905050610aa3565b6040516102ff9190612541565b60405180910390f35b341561031357600080fd5b61031b610b51565b604051610328919061265a565b60405180910390f35b610339610b57565b005b341561034657600080fd5b610393600480803590602001908201803590602001908080602002602001604051908101604052809392919081815260200183836020028082843782019150505050505091905050610b59565b6040516103a09190612563565b60405180910390f35b34156103b457600080fd5b6103bc610b79565b6040516103c9919061265a565b60405180910390f35b34156103dd57600080fd5b610409600480803573ffffffffffffffffffffffffffffffffffffffff16906020019091905050610b7f565b6040516104169190612585565b60405180910390f35b341561042a57600080fd5b610432610b9f565b005b341561043f57600080fd5b610447610c1a565b6040516104549190612585565b60405180910390f35b341561046857600080fd5b610470610c2d565b60405161047d919061265a565b60405180910390f35b341561049157600080fd5b610499610c3a565b005b34156104a657600080fd5b6104ae610d14565b6040516104bb919061265a565b60405180910390f35b34156104cf57600080fd5b6104d7610d1a565b6040516104e4919061265a565b60405180910390f35b34156104f857600080fd5b610548600480803590602001908201803590602001908080601f01602080910402602001604051908101604052809392919081815260200183838082843782019150505050505091905050610d39565b005b341561055557600080fd5b61056b6004808035906020019091905050610e2a565b60405161057b94939291906125d0565b60405180910390f35b341561058f57600080fd5b61059761101c565b6040516105a4919061265a565b60405180910390f35b34156105b857600080fd5b610605600480803590602001908201803590602001908080602002602001604051908101604052809392919081815260200183836020028082843782019150505050505091905050611022565b005b610657600480803590602001908201803590602001908080601f01602080910402602001604051908101604052809392919081815260200183838082843782019150505050505091905050611142565b005b610661611e64565b6000808381548110151561067157fe5b906000526020600020906002020160010160008481548110151561069157fe5b906000526020600020906002020160000160009054906101000a900473ffffffffffffffffffffffffffffffffffffffff16818054600181600116156101000203166002900480601f0160208091040260200160405190810160405280929190818152602001828054600181600116156101000203166002900480156107585780601f1061072d57610100808354040283529160200191610758565b820191906000526020600020905b81548152906001019060200180831161073b57829003601f168201915b5050505050915091509150915091565b60095481565b6000600580549050905090565b60008080549050905090565b600080600090505b600080549050811015610826573373ffffffffffffffffffffffffffffffffffffffff166000828154811015156107c257fe5b906000526020600020906002020160000160009054906101000a900473ffffffffffffffffffffffffffffffffffffffff1673ffffffffffffffffffffffffffffffffffffffff161415610819576001915061082b565b808060010191505061078f565b600091505b5090565b610837611e64565b60008060058481548110151561084957fe5b90600052602060002090015481548110151561086157fe5b9060005260206000209060020201600101600060058581548110151561088357fe5b90600052602060002090015481548110151561089b57fe5b906000526020600020906002020160000160009054906101000a900473ffffffffffffffffffffffffffffffffffffffff16818054600181600116156101000203166002900480601f0160208091040260200160405190810160405280929190818152602001828054600181600116156101000203166002900480156109625780601f1061093757610100808354040283529160200191610962565b820191906000526020600020905b81548152906001019060200180831161094557829003601f168201915b5050505050915091509150915091565b42600254600a540110801561099a575060001515600860009054906101000a900460ff161515145b156109c2576001600860006101000a81548160ff021916908315150217905550426009819055505b565b60006109ce611e78565b600091505b600354821015610a8e57600583838151811015156109ed57fe5b90602001906020020151815481101515610a0357fe5b906000526020600020900154816000018181525050600181604001818152505060048054806001018281610a379190611ea0565b91600052602060002090600302016000839091909150600082015181600001556020820151816001019080519060200190610a73929190611ed2565b506040820151816002015550505081806001019250506109d3565b6000600581610a9d9190611f1f565b50505050565b610aab611f4b565b600682815481101515610aba57fe5b9060005260206000209001805480602002602001604051908101604052809291908181526020018280548015610b4557602002820191906000526020600020905b8160009054906101000a900473ffffffffffffffffffffffffffffffffffffffff1673ffffffffffffffffffffffffffffffffffffffff1681526020019060010190808311610afb575b50505050509050919050565b60025481565b565b610b61611f5f565b610b71826000600185510361138d565b819050919050565b60035481565b60076020528060005260406000206000915054906101000a900460ff1681565b42600b546009540111158015610bc8575060011515600860009054906101000a900460ff161515145b15610c18576000600860006101000a81548160ff02191690831515021790555042600a81905550610bf76114ed565b6000600581610c069190611f1f565b506000600681610c169190611f73565b505b565b600860009054906101000a900460ff1681565b6000600480549050905090565b6000610c4d33610c48611909565b611ae4565b1515610d1157600090505b600080549050811015610d10573373ffffffffffffffffffffffffffffffffffffffff16600082815481101515610c8b57fe5b906000526020600020906002020160000160009054906101000a900473ffffffffffffffffffffffffffffffffffffffff1673ffffffffffffffffffffffffffffffffffffffff161415610d035760058054806001018281610ced9190611f9f565b9160005260206000209001600083909190915055505b8080600101915050610c58565b5b50565b60015481565b60003073ffffffffffffffffffffffffffffffffffffffff1631905090565b60008090505b600080549050811015610e26573373ffffffffffffffffffffffffffffffffffffffff16600082815481101515610d7257fe5b906000526020600020906002020160000160009054906101000a900473ffffffffffffffffffffffffffffffffffffffff1673ffffffffffffffffffffffffffffffffffffffff161415610e19577f36bf6cf02ecc60712e107054775debd1f2f255ab34df5fc4928044264d16fd1f82600083815481101515610df157fe5b9060005260206000209060020201600101604051610e10929190612623565b60405180910390a15b8080600101915050610d3f565b5050565b610e32611e64565b600080610e3d611f5f565b6000600486815481101515610e4e57fe5b906000526020600020906003020160000154815481101515610e6c57fe5b90600052602060002090600202016001016000600487815481101515610e8e57fe5b906000526020600020906003020160000154815481101515610eac57fe5b906000526020600020906002020160000160009054906101000a900473ffffffffffffffffffffffffffffffffffffffff16600487815481101515610eed57fe5b906000526020600020906003020160020154600488815481101515610f0e57fe5b9060005260206000209060030201600101838054600181600116156101000203166002900480601f016020809104026020016040519081016040528092919081815260200182805460018160011615610100020316600290048015610fb45780601f10610f8957610100808354040283529160200191610fb4565b820191906000526020600020905b815481529060010190602001808311610f9757829003601f168201915b505050505093508080548060200260200160405190810160405280929190818152602001828054801561100657602002820191906000526020600020905b815481526020019060010190808311610ff2575b5050505050905093509350935093509193509193565b600a5481565b61102a610787565b8015611049575060011515600860009054906101000a900460ff161515145b80156110a5575060001515600760003373ffffffffffffffffffffffffffffffffffffffff1673ffffffffffffffffffffffffffffffffffffffff16815260200190815260200160002060009054906101000a900460ff161515145b1561113f576001600760003373ffffffffffffffffffffffffffffffffffffffff1673ffffffffffffffffffffffffffffffffffffffff16815260200190815260200160002060006101000a81548160ff021916908315150217905550600680548060010182816111169190611fcb565b91600052602060002090016000839091909150908051906020019061113c929190611ff7565b50505b50565b61114a612081565b600154341180156112b157506112af336000805480602002602001604051908101604052809291908181526020016000905b828210156112a657838290600052602060002090600202016040805190810160405290816000820160009054906101000a900473ffffffffffffffffffffffffffffffffffffffff1673ffffffffffffffffffffffffffffffffffffffff1673ffffffffffffffffffffffffffffffffffffffff168152602001600182018054600181600116156101000203166002900480601f01602080910402602001604051908101604052809291908181526020018280546001816001161561010002031660029004801561128e5780601f106112635761010080835404028352916020019161128e565b820191906000526020600020905b81548152906001019060200180831161127157829003601f168201915b5050505050815250508152602001906001019061117c565b50505050611ae4565b155b156113895733816000019073ffffffffffffffffffffffffffffffffffffffff16908173ffffffffffffffffffffffffffffffffffffffff16815250508181602001819052506000805480600101828161130b91906120b7565b9160005260206000209060020201600083909190915060008201518160000160006101000a81548173ffffffffffffffffffffffffffffffffffffffff021916908373ffffffffffffffffffffffffffffffffffffffff16021790555060208201518160010190805190602001906113849291906120e9565b505050505b5050565b6000806000849250839150818314156113a5576114e5565b8560028686038115156113b457fe5b0486018151811015156113c357fe5b9060200190602002015190505b81831115156114bc575b8086848151811015156113e957fe5b9060200190602002015111156114065782806001019350506113da565b5b858281518110151561141557fe5b9060200190602002015181111561143457818060019003925050611407565b81831115156114b757858281518110151561144b57fe5b90602001906020020151868481518110151561146357fe5b90602001906020020151878581518110151561147b57fe5b906020019060200201888581518110151561149257fe5b9060200190602002018281525082815250505082806001019350508180600190039250505b6113d0565b818510156114d0576114cf86868461138d565b5b838310156114e4576114e386848661138d565b5b5b505050505050565b6000806114f8611f5f565b611500612169565b600061150a611f5f565b611512611f5f565b61151a611f5f565b60058054905060405180591061152d5750595b90808252806020026020018201604052509550855160405180591061154f5750595b90808252806020026020018201604052801561158557816020015b61157261217d565b81526020019060019003908161156a5790505b509450600097505b85518810156115de5785516040518059106115a55750595b908082528060200260200182016040525085898151811015156115c457fe5b90602001906020020181905250878060010198505061158d565b600097505b600186510388101561171a578760010196505b855187101561170d576116098888611b66565b935060008414156116875786858981518110151561162357fe5b90602001906020020151878a81518110151561163b57fe5b9060200190602002015181518110151561165157fe5b9060200190602002018181525050858881518110151561166d57fe5b906020019060200201805180919060010181525050611700565b60018414156116ff5787858881518110151561169f57fe5b9060200190602002015187898151811015156116b757fe5b906020019060200201518151811015156116cd57fe5b906020019060200201818152505085878151811015156116e957fe5b9060200190602002018051809190600101815250505b5b86806001019750506115f6565b87806001019850506115e3565b85516040518059106117295750595b90808252806020026020018201604052509250600097505b8551881015611812576000868981518110151561175a57fe5b9060200190602002015114151561180557600096505b858881518110151561177e57fe5b906020019060200201518710156118045785858981518110151561179e57fe5b90602001906020020151888151811015156117b557fe5b906020019060200201518151811015156117cb57fe5b9060200190602002015183898151811015156117e357fe5b90602001906020020181815101915081815250508680600101975050611770565b5b8780600101985050611741565b85516040518059106118215750595b9080825280602002602001820160405250915061184561184084611dd7565b610b59565b9050600097505b85518810156118f657600096505b85518710156118e957828781518110151561187157fe5b90602001906020020151818981518110151561188957fe5b9060200190602002015114156118dc578682898151811015156118a857fe5b9060200190602002018181525050855186510283888151811015156118c957fe5b90602001906020020181815250506118e9565b868060010197505061185a565b878060010198505061184c565b6118ff826109c4565b5050505050505050565b611911612191565b600061191b612191565b60006005805490509250826040518059106119335750595b90808252806020026020018201604052801561196957816020015b6119566121a5565b81526020019060019003908161194e5790505b509150600090505b82811015611adb57600060058281548110151561198a57fe5b9060005260206000209001548154811015156119a257fe5b90600052602060002090600202016040805190810160405290816000820160009054906101000a900473ffffffffffffffffffffffffffffffffffffffff1673ffffffffffffffffffffffffffffffffffffffff1673ffffffffffffffffffffffffffffffffffffffff168152602001600182018054600181600116156101000203166002900480601f016020809104026020016040519081016040528092919081815260200182805460018160011615610100020316600290048015611aaa5780601f10611a7f57610100808354040283529160200191611aaa565b820191906000526020600020905b815481529060010190602001808311611a8d57829003601f168201915b5050505050815250508282815181101515611ac157fe5b906020019060200201819052508080600101915050611971565b81935050505090565b600080600090505b8251811015611b5a578373ffffffffffffffffffffffffffffffffffffffff168382815181101515611b1a57fe5b906020019060200201516000015173ffffffffffffffffffffffffffffffffffffffff161415611b4d5760019150611b5f565b8080600101915050611aec565b600091505b5092915050565b60008060008060008060008060008060009850600097506006805490509650600060058d815481101515611b9657fe5b906000526020600020900154815481101515611bae57fe5b906000526020600020906002020160000160009054906101000a900473ffffffffffffffffffffffffffffffffffffffff169550600060058c815481101515611bf357fe5b906000526020600020900154815481101515611c0b57fe5b906000526020600020906002020160000160009054906101000a900473ffffffffffffffffffffffffffffffffffffffff169450600093505b86841015611da157600287811515611c5857fe5b048911158015611c745750600287811515611c6f57fe5b048811155b15611d8f57600684815481101515611c8857fe5b9060005260206000209001805490509250600091505b82821015611d8a57600684815481101515611cb557fe5b906000526020600020900182815481101515611ccd57fe5b906000526020600020900160009054906101000a900473ffffffffffffffffffffffffffffffffffffffff1690508573ffffffffffffffffffffffffffffffffffffffff168173ffffffffffffffffffffffffffffffffffffffff161415611d3c578880600101995050611d8a565b8473ffffffffffffffffffffffffffffffffffffffff168173ffffffffffffffffffffffffffffffffffffffff161415611d7d578780600101985050611d8a565b8180600101925050611c9e565b611d94565b611da1565b8380600101945050611c44565b87891115611db25760009950611dc8565b88881115611dc35760019950611dc8565b600299505b50505050505050505092915050565b611ddf611f5f565b611de7611f5f565b60008351604051805910611df85750595b90808252806020026020018201604052509150600090505b8351811015611e5a578381815181101515611e2757fe5b906020019060200201518282815181101515611e3f57fe5b90602001906020020181815250508080600101915050611e10565b8192505050919050565b602060405190810160405280600081525090565b60606040519081016040528060008152602001611e9361217d565b8152602001600081525090565b815481835581811511611ecd57600302816003028360005260206000209182019101611ecc91906121db565b5b505050565b828054828255906000526020600020908101928215611f0e579160200282015b82811115611f0d578251825591602001919060010190611ef2565b5b509050611f1b919061221a565b5090565b815481835581811511611f4657818360005260206000209182019101611f45919061221a565b5b505050565b602060405190810160405280600081525090565b602060405190810160405280600081525090565b815481835581811511611f9a57818360005260206000209182019101611f99919061223f565b5b505050565b815481835581811511611fc657818360005260206000209182019101611fc5919061221a565b5b505050565b815481835581811511611ff257818360005260206000209182019101611ff1919061223f565b5b505050565b828054828255906000526020600020908101928215612070579160200282015b8281111561206f5782518260006101000a81548173ffffffffffffffffffffffffffffffffffffffff021916908373ffffffffffffffffffffffffffffffffffffffff16021790555091602001919060010190612017565b5b50905061207d919061226b565b5090565b6040805190810160405280600073ffffffffffffffffffffffffffffffffffffffff1681526020016120b16122ae565b81525090565b8154818355818115116120e4576002028160020283600052602060002091820191016120e391906122c2565b5b505050565b828054600181600116156101000203166002900490600052602060002090601f016020900481019282601f1061212a57805160ff1916838001178555612158565b82800160010185558215612158579182015b8281111561215757825182559160200191906001019061213c565b5b509050612165919061221a565b5090565b602060405190810160405280600081525090565b602060405190810160405280600081525090565b602060405190810160405280600081525090565b6040805190810160405280600073ffffffffffffffffffffffffffffffffffffffff1681526020016121d56122ae565b81525090565b61221791905b80821115612213576000808201600090556001820160006122029190612318565b6002820160009055506003016121e1565b5090565b90565b61223c91905b80821115612238576000816000905550600101612220565b5090565b90565b61226891905b80821115612264576000818161225b9190612339565b50600101612245565b5090565b90565b6122ab91905b808211156122a757600081816101000a81549073ffffffffffffffffffffffffffffffffffffffff021916905550600101612271565b5090565b90565b602060405190810160405280600081525090565b61231591905b8082111561231157600080820160006101000a81549073ffffffffffffffffffffffffffffffffffffffff0219169055600182016000612308919061235a565b506002016122c8565b5090565b90565b5080546000825590600052602060002090810190612336919061221a565b50565b5080546000825590600052602060002090810190612357919061221a565b50565b50805460018160011615610100020316600290046000825580601f10612380575061239f565b601f01602090049060005260206000209081019061239e919061221a565b5b50565b6123ab816126dc565b82525050565b60006123bc826126a1565b8084526020840193506123ce83612675565b60005b82811015612400576123e48683516123a2565b6123ed826126c2565b91506020860195506001810190506123d1565b50849250505092915050565b6000612417826126ac565b80845260208401935061242983612682565b60005b8281101561245b5761243f868351612532565b612448826126cf565b915060208601955060018101905061242c565b50849250505092915050565b612470816126fc565b82525050565b6000612481826126b7565b808452612495816020860160208601612712565b61249e8161274e565b602085010191505092915050565b6000815460018116600081146124c957600181146124e95761252a565b607f600283041680865260ff19831660208701526040860193505061252a565b600282048086526020860195506124ff8561268f565b60005b8281101561252157815481890152600182019150602081019050612502565b80880195505050505b505092915050565b61253b81612708565b82525050565b6000602082019050818103600083015261255b81846123b1565b905092915050565b6000602082019050818103600083015261257d818461240c565b905092915050565b600060208201905061259a6000830184612467565b92915050565b600060408201905081810360008301526125ba8185612476565b90506125c960208301846123a2565b9392505050565b600060808201905081810360008301526125ea8187612476565b90506125f960208301866123a2565b6126066040830185612532565b8181036060830152612618818461240c565b905095945050505050565b6000604082019050818103600083015261263d8185612476565b9050818103602083015261265181846124ac565b90509392505050565b600060208201905061266f6000830184612532565b92915050565b6000602082019050919050565b6000602082019050919050565b60008160005260206000209050919050565b600081519050919050565b600081519050919050565b600081519050919050565b6000602082019050919050565b6000602082019050919050565b600073ffffffffffffffffffffffffffffffffffffffff82169050919050565b60008115159050919050565b6000819050919050565b60005b83811015612730578082015181840152602081019050612715565b8381146000811461274057612747565b6000858501525b5050505050565b6000601f19601f83011690509190505600a265627a7a72305820ff07a592497c340c5ff7ba8a0884f9ea7a2cd5f0603c949e6cc09d0f0c450ecd6c6578706572696d656e74616cf50037",
  "source": "pragma solidity ^0.4.18;\r\npragma experimental ABIEncoderV2;\r\nimport \"./MyLib.sol\";\r\nimport \"./RegistrationClub.sol\";\r\ncontract VotingClub is RegistrationClub {\r\n\r\n    uint public termLength;\r\n    uint public numberOfRepresentatives;\r\n    MyLib.Agent[] listOfRepresentatives;\r\n\r\n      uint[] candidates;\r\n  address[][] votes;\r\n  mapping (address => bool) public voted;\r\n  bool public voteStarted = false;\r\n  uint public timeVoteStarted =0;\r\n  uint public timeVoteEnded =0;\r\n  uint votingTime = 0;\r\n\r\n    function VotingClub(uint cost, uint term, uint reps) RegistrationClub(cost) public {\r\n        termLength = term;\r\n        numberOfRepresentatives = reps;\r\n  }\r\n\r\n      //saves gass as dont have to look at candidates with no votes\r\n    function apply() public {\r\n      if(!addressUsed(msg.sender,buildCandidateList()))\r\n      {\r\n        for (uint i = 0; i < registeredUser.length; i++)\r\n        {\r\n          if(registeredUser[i].myAddress == msg.sender)\r\n          {\r\n            candidates.push(i);\r\n          }\r\n        }\r\n      }\r\n    }\r\n\r\n    function buildCandidateList() internal constant returns (MyLib.User[])\r\n    {\r\n      uint candidatesLength = candidates.length;\r\n      MyLib.User[] memory userList = new MyLib.User[](candidatesLength);\r\n      for(uint i = 0; i < candidatesLength; i ++)\r\n      {\r\n        userList[i] = registeredUser[candidates[i]];\r\n      }\r\n      return userList;\r\n    }\r\n\r\n  function startVote() public {\r\n    if(timeVoteEnded + termLength < block.timestamp && voteStarted == false)\r\n    {\r\n      voteStarted = true;\r\n      timeVoteStarted = block.timestamp;\r\n    }\r\n  }\r\n\r\n  function vote(address[] myVote) public {\r\n    if(isRegistered() && voteStarted == true && voted[msg.sender] == false){\r\n      voted[msg.sender] = true;\r\n      votes.push(myVote);\r\n\r\n    }\r\n  }\r\n  function endVote() public\r\n  {\r\n    if(timeVoteStarted + votingTime <= block.timestamp && voteStarted == true)\r\n    {\r\n      voteStarted = false;\r\n      timeVoteEnded = block.timestamp;\r\n      countVotes();\r\n      candidates.length = 0;\r\n      votes.length = 0;\r\n    }\r\n\r\n  }\r\n  //second order copeland\r\n  function countVotes() internal {\r\n    uint i;\r\n    uint p;\r\n    uint[] memory copelandScore = new uint[](candidates.length);\r\n    uint[][] memory defeated = new uint[][](copelandScore.length);\r\n\r\n    //init2d array\r\n    for (i = 0; i < copelandScore.length; i++)\r\n    {\r\n      defeated[i] = new uint[](copelandScore.length);\r\n    }\r\n\r\n    //pairwise each candidate against each other\r\n    for (i = 0; i < copelandScore.length - 1; i++)\r\n    {\r\n      for (p = 1 + i; p < copelandScore.length; p++)\r\n      {\r\n        uint pairwise = pairwiseComparison(i,p);\r\n\r\n        if(pairwise == 0)\r\n        {\r\n          defeated[i][copelandScore[i]] = p;\r\n          copelandScore[i] ++;\r\n        }\r\n        else if (pairwise == 1) {\r\n          defeated[p][copelandScore[p]] = i;\r\n          copelandScore[p] ++;\r\n        }\r\n\r\n\r\n      }\r\n    }\r\n\r\n    //add up the copeland scores of defeated users\r\n    uint[] memory secondOrderCopeland = new uint[](copelandScore.length);\r\n    for(i =0; i < copelandScore.length; i++)\r\n    {\r\n      if(copelandScore[i] != 0)\r\n      {\r\n        for(p =0; p < copelandScore[i] ; p++)\r\n        {\r\n          secondOrderCopeland[i] += copelandScore[defeated[i][p]];\r\n        }\r\n      }\r\n    }\r\n\r\n    uint[] memory ranked = new uint[](copelandScore.length);\r\n    uint[] memory sortedSecondOrderCopeland = sort(copy(secondOrderCopeland));\r\n\r\n\r\n    for(i=0; i < copelandScore.length; i ++ )\r\n    {\r\n      for(p=0; p < copelandScore.length; p ++ )\r\n      {\r\n        if(sortedSecondOrderCopeland[i] == secondOrderCopeland[p])\r\n        {\r\n          ranked[i] = p;\r\n          //stops same score being matched twice\r\n          secondOrderCopeland[p] = copelandScore.length  * copelandScore.length;\r\n          break;\r\n        }\r\n      }\r\n    }\r\n\r\n    weightCandidates(ranked);\r\n  }\r\n\r\n\r\n  function copy(uint[] toCopy) internal pure returns (uint[])\r\n  {\r\n    uint[] memory copyTo = new uint[](toCopy.length);\r\n    for(uint i = 0; i < toCopy.length; i ++)\r\n    {\r\n      copyTo[i] = toCopy[i];\r\n    }\r\n    return copyTo;\r\n  }\r\n  function pairwiseComparison(uint i, uint p) internal constant returns (uint)\r\n  {\r\n    uint scorei = 0;\r\n    uint scorep = 0;\r\n    uint voteLength = votes.length;\r\n    address iaddress = registeredUser[candidates[i]].myAddress;\r\n    address paddress = registeredUser[candidates[p]].myAddress;\r\n\r\n    for(uint z =0; z < voteLength; z ++)\r\n    {\r\n      if (scorei <= voteLength / 2 && scorep <= voteLength /2)\r\n      {\r\n        //if not seen its the highest\r\n        uint votezlength = votes[z].length;\r\n        for(uint j =0; j < votezlength; j ++)\r\n        {\r\n          address voteaddress = votes[z][j];\r\n          if(voteaddress == iaddress )\r\n          {\r\n            scorei ++;\r\n            break;\r\n          }\r\n          else if(voteaddress == paddress )\r\n          {\r\n            scorep ++;\r\n            break;\r\n          }\r\n        }\r\n      }\r\n      else{\r\n        //if majority for one candidate no need to continue\r\n        break;\r\n      }\r\n    }\r\n    if(scorei > scorep)\r\n    {\r\n      return 0;\r\n    }\r\n    else if (scorep > scorei) {\r\n      return 1;\r\n    }\r\n    else\r\n    {\r\n      return 2;\r\n    }\r\n  }\r\n  function weightCandidates(uint[] ranked) public\r\n  {\r\n    for (uint i = 0; i < numberOfRepresentatives; i++)\r\n    {\r\n      MyLib.Agent memory a;\r\n      a.u = candidates[ranked[i]];\r\n      a.weight = 1;\r\n      listOfRepresentatives.push(a);\r\n    }\r\n    candidates.length = 0;\r\n\r\n  }\r\n  function sort(uint[] data) public returns (uint[]) {\r\n    quickSort(data, uint(0), uint(data.length - 1));\r\n    return data;\r\n  }\r\n\r\n  function quickSort(uint[] memory arr, uint left, uint right) internal{\r\n    uint i = left;\r\n    uint j = right;\r\n    if(i==j) return;\r\n    uint pivot = arr[uint(left + (right - left) / 2)];\r\n    while (i <= j) {\r\n      while (arr[uint(i)] > pivot) i++;\r\n      while (pivot > arr[uint(j)]) j--;\r\n      if (i <= j) {\r\n        (arr[uint(i)], arr[uint(j)]) = (arr[uint(j)], arr[uint(i)]);\r\n        i++;\r\n        j--;\r\n      }\r\n    }\r\n    if (left < j)\r\n    quickSort(arr, left, j);\r\n    if (i < right)\r\n    quickSort(arr, i, right);\r\n  }\r\n\r\n    function listCandidates(uint number) public constant returns (string,address) {\r\n\r\n      return (registeredUser[candidates[number]].name, registeredUser[candidates[number]].myAddress);\r\n    }\r\n\r\n    function getCandidatesLength() public constant returns (uint)\r\n    {\r\n      return candidates.length;\r\n    }\r\n\r\n    function listRepresentives(uint number) public constant returns (string,address,uint,uint[]) {\r\n\r\n      return (registeredUser[listOfRepresentatives[number].u].name, registeredUser[listOfRepresentatives[number].u].myAddress, listOfRepresentatives[number].weight,listOfRepresentatives[number].budget);\r\n    }\r\n\r\n    function getRepresentivesLength() public constant returns (uint)\r\n    {\r\n      return listOfRepresentatives.length;\r\n    }\r\n\r\n    function showVotes(uint number) public constant returns(address[])\r\n    {\r\n      return votes[number];\r\n    }\r\n\r\n\r\n}\r\n",
  "sourcePath": "C:\\Users\\JakeL\\Desktop\\MultiAgentSystemsOnTheBlockChain\\contracts\\VotingClub.sol",
  "compiler": {
    "name": "solc",
    "version": "0.4.18+commit.9cf6e910.Emscripten.clang"
  },
  "schemaVersion": "1.0.1",
  "updatedAt": "2018-04-14T19:04:29.685Z"
}