{
  "contractName": "VotingClub",
  "abi": [
    {
      "constant": true,
      "inputs": [
        {
          "name": "number",
          "type": "uint256"
        }
      ],
      "name": "listRegisteredUsers",
      "outputs": [
        {
          "name": "",
          "type": "string"
        },
        {
          "name": "",
          "type": "address"
        }
      ],
      "payable": false,
      "stateMutability": "view",
      "type": "function"
    },
    {
      "constant": true,
      "inputs": [],
      "name": "timeVoteStarted",
      "outputs": [
        {
          "name": "",
          "type": "uint256"
        }
      ],
      "payable": false,
      "stateMutability": "view",
      "type": "function"
    },
    {
      "constant": true,
      "inputs": [],
      "name": "getCandidatesLength",
      "outputs": [
        {
          "name": "",
          "type": "uint256"
        }
      ],
      "payable": false,
      "stateMutability": "view",
      "type": "function"
    },
    {
      "constant": true,
      "inputs": [],
      "name": "getRegisteredUsersLength",
      "outputs": [
        {
          "name": "",
          "type": "uint256"
        }
      ],
      "payable": false,
      "stateMutability": "view",
      "type": "function"
    },
    {
      "constant": true,
      "inputs": [
        {
          "name": "number",
          "type": "uint256"
        }
      ],
      "name": "listCandidates",
      "outputs": [
        {
          "name": "",
          "type": "string"
        },
        {
          "name": "",
          "type": "address"
        }
      ],
      "payable": false,
      "stateMutability": "view",
      "type": "function"
    },
    {
      "constant": false,
      "inputs": [],
      "name": "startVote",
      "outputs": [],
      "payable": false,
      "stateMutability": "nonpayable",
      "type": "function"
    },
    {
      "constant": false,
      "inputs": [
        {
          "name": "ranked",
          "type": "uint256[]"
        }
      ],
      "name": "weightCandidates",
      "outputs": [],
      "payable": false,
      "stateMutability": "nonpayable",
      "type": "function"
    },
    {
      "constant": true,
      "inputs": [
        {
          "name": "number",
          "type": "uint256"
        }
      ],
      "name": "showVotes",
      "outputs": [
        {
          "name": "",
          "type": "address[]"
        }
      ],
      "payable": false,
      "stateMutability": "view",
      "type": "function"
    },
    {
      "constant": false,
      "inputs": [
        {
          "name": "suggestion",
          "type": "uint256"
        }
      ],
      "name": "changeRegistrationCostSuggestion",
      "outputs": [],
      "payable": false,
      "stateMutability": "nonpayable",
      "type": "function"
    },
    {
      "constant": true,
      "inputs": [],
      "name": "termLength",
      "outputs": [
        {
          "name": "",
          "type": "uint256"
        }
      ],
      "payable": false,
      "stateMutability": "view",
      "type": "function"
    },
    {
      "constant": false,
      "inputs": [],
      "name": "subsidize",
      "outputs": [],
      "payable": true,
      "stateMutability": "payable",
      "type": "function"
    },
    {
      "constant": false,
      "inputs": [
        {
          "name": "data",
          "type": "uint256[]"
        }
      ],
      "name": "sort",
      "outputs": [
        {
          "name": "",
          "type": "uint256[]"
        }
      ],
      "payable": false,
      "stateMutability": "nonpayable",
      "type": "function"
    },
    {
      "constant": false,
      "inputs": [],
      "name": "changeRegistrationCost",
      "outputs": [],
      "payable": false,
      "stateMutability": "nonpayable",
      "type": "function"
    },
    {
      "constant": true,
      "inputs": [],
      "name": "numberOfRepresentatives",
      "outputs": [
        {
          "name": "",
          "type": "uint256"
        }
      ],
      "payable": false,
      "stateMutability": "view",
      "type": "function"
    },
    {
      "constant": true,
      "inputs": [
        {
          "name": "",
          "type": "address"
        }
      ],
      "name": "voted",
      "outputs": [
        {
          "name": "",
          "type": "bool"
        }
      ],
      "payable": false,
      "stateMutability": "view",
      "type": "function"
    },
    {
      "constant": false,
      "inputs": [],
      "name": "endVote",
      "outputs": [],
      "payable": false,
      "stateMutability": "nonpayable",
      "type": "function"
    },
    {
      "constant": true,
      "inputs": [],
      "name": "sayhi",
      "outputs": [],
      "payable": false,
      "stateMutability": "view",
      "type": "function"
    },
    {
      "constant": true,
      "inputs": [],
      "name": "checkRegistrationSuggestions",
      "outputs": [
        {
          "name": "",
          "type": "uint256"
        }
      ],
      "payable": false,
      "stateMutability": "view",
      "type": "function"
    },
    {
      "constant": true,
      "inputs": [],
      "name": "voteStarted",
      "outputs": [
        {
          "name": "",
          "type": "bool"
        }
      ],
      "payable": false,
      "stateMutability": "view",
      "type": "function"
    },
    {
      "constant": true,
      "inputs": [],
      "name": "getRepresentivesLength",
      "outputs": [
        {
          "name": "",
          "type": "uint256"
        }
      ],
      "payable": false,
      "stateMutability": "view",
      "type": "function"
    },
    {
      "constant": false,
      "inputs": [],
      "name": "apply",
      "outputs": [],
      "payable": false,
      "stateMutability": "nonpayable",
      "type": "function"
    },
    {
      "constant": true,
      "inputs": [],
      "name": "registrationCost",
      "outputs": [
        {
          "name": "",
          "type": "uint256"
        }
      ],
      "payable": false,
      "stateMutability": "view",
      "type": "function"
    },
    {
      "constant": true,
      "inputs": [],
      "name": "getContractValue",
      "outputs": [
        {
          "name": "",
          "type": "uint256"
        }
      ],
      "payable": false,
      "stateMutability": "view",
      "type": "function"
    },
    {
      "constant": true,
      "inputs": [
        {
          "name": "text",
          "type": "string"
        }
      ],
      "name": "chat",
      "outputs": [],
      "payable": false,
      "stateMutability": "view",
      "type": "function"
    },
    {
      "constant": true,
      "inputs": [
        {
          "name": "number",
          "type": "uint256"
        }
      ],
      "name": "listRepresentives",
      "outputs": [
        {
          "name": "",
          "type": "string"
        },
        {
          "name": "",
          "type": "address"
        },
        {
          "name": "",
          "type": "uint256"
        },
        {
          "name": "",
          "type": "uint256[]"
        }
      ],
      "payable": false,
      "stateMutability": "view",
      "type": "function"
    },
    {
      "constant": true,
      "inputs": [],
      "name": "timeVoteEnded",
      "outputs": [
        {
          "name": "",
          "type": "uint256"
        }
      ],
      "payable": false,
      "stateMutability": "view",
      "type": "function"
    },
    {
      "constant": false,
      "inputs": [
        {
          "name": "myVote",
          "type": "address[]"
        }
      ],
      "name": "vote",
      "outputs": [],
      "payable": false,
      "stateMutability": "nonpayable",
      "type": "function"
    },
    {
      "constant": false,
      "inputs": [
        {
          "name": "name",
          "type": "string"
        }
      ],
      "name": "register",
      "outputs": [],
      "payable": true,
      "stateMutability": "payable",
      "type": "function"
    },
    {
      "inputs": [
        {
          "name": "cost",
          "type": "uint256"
        },
        {
          "name": "term",
          "type": "uint256"
        },
        {
          "name": "reps",
          "type": "uint256"
        }
      ],
      "payable": false,
      "stateMutability": "nonpayable",
      "type": "constructor"
    },
    {
      "anonymous": false,
      "inputs": [
        {
          "indexed": false,
          "name": "message",
          "type": "string"
        },
        {
          "indexed": false,
          "name": "name",
          "type": "string"
        }
      ],
      "name": "message",
      "type": "event"
    }
  ],
  "bytecode": "0x60606040526000600960006101000a81548160ff0219169083151502179055506000600a556000600b556000600c55341561003957600080fd5b604051606080612bc7833981016040528080519060200190919080519060200190919080519060200190919050508280600181905550508160038190555080600481905550505050612b37806100906000396000f30060606040526004361061016a576000357c0100000000000000000000000000000000000000000000000000000000900463ffffffff1680630cf35f441461016f578063161893d0146101a75780631859df65146101d05780631afad36d146101f957806322ca968b146102225780634c0a6af01461025a5780635846fc461461026f5780636687d4fe146102c95780637392445a1461030057806379b18cd11461032357806390f10ed11461034c5780639ec8b02614610356578063a90cc0d9146103c4578063ae0689ac146103d9578063aec2ccae14610402578063b92239461461044f578063bc9c707d14610464578063c0fc41e614610479578063d0dc0180146104a2578063d5268b22146104cb578063db595b3b146104f4578063dc4a7f7f14610509578063dc82697c14610532578063de8caa1e1461055b578063dee6472f146105b8578063ed00af98146105f2578063ed0813291461061b578063f2c298be14610675575b600080fd5b341561017a57600080fd5b61019060048080359060200190919050506106c7565b60405161019e92919061290b565b60405180910390f35b34156101b257600080fd5b6101ba6107d6565b6040516101c791906129f8565b60405180910390f35b34156101db57600080fd5b6101e36107dc565b6040516101f091906129f8565b60405180910390f35b341561020457600080fd5b61020c6107e9565b60405161021991906129f8565b60405180910390f35b341561022d57600080fd5b61024360048080359060200190919050506107f5565b60405161025192919061290b565b60405180910390f35b341561026557600080fd5b61026d610938565b005b341561027a57600080fd5b6102c760048080359060200190820180359060200190808060200260200160405190810160405280939291908181526020018383602002808284378201915050505050509190505061098a565b005b34156102d457600080fd5b6102ea6004808035906020019091905050610a69565b6040516102f791906128ac565b60405180910390f35b341561030b57600080fd5b6103216004808035906020019091905050610b17565b005b341561032e57600080fd5b610336610bc8565b60405161034391906129f8565b60405180910390f35b610354610bce565b005b341561036157600080fd5b6103ae600480803590602001908201803590602001908080602002602001604051908101604052809392919081815260200183836020028082843782019150505050505091905050610bd0565b6040516103bb91906128ce565b60405180910390f35b34156103cf57600080fd5b6103d7610bf0565b005b34156103e457600080fd5b6103ec610c12565b6040516103f991906129f8565b60405180910390f35b341561040d57600080fd5b610439600480803573ffffffffffffffffffffffffffffffffffffffff16906020019091905050610c18565b60405161044691906128f0565b60405180910390f35b341561045a57600080fd5b610462610c38565b005b341561046f57600080fd5b610477610cb3565b005b341561048457600080fd5b61048c610cea565b60405161049991906129f8565b60405180910390f35b34156104ad57600080fd5b6104b5610da4565b6040516104c291906128f0565b60405180910390f35b34156104d657600080fd5b6104de610db7565b6040516104eb91906129f8565b60405180910390f35b34156104ff57600080fd5b610507610dc4565b005b341561051457600080fd5b61051c610e9e565b60405161052991906129f8565b60405180910390f35b341561053d57600080fd5b610545610ea4565b60405161055291906129f8565b60405180910390f35b341561056657600080fd5b6105b6600480803590602001908201803590602001908080601f01602080910402602001604051908101604052809392919081815260200183838082843782019150505050505091905050610ec3565b005b34156105c357600080fd5b6105d96004808035906020019091905050610fb4565b6040516105e9949392919061293b565b60405180910390f35b34156105fd57600080fd5b6106056111a6565b60405161061291906129f8565b60405180910390f35b341561062657600080fd5b6106736004808035906020019082018035906020019080806020026020016040519081016040528093929190818152602001838360200280828437820191505050505050919050506111ac565b005b6106c5600480803590602001908201803590602001908080601f0160208091040260200160405190810160405280939291908181526020018383808284378201915050505050509190505061141d565b005b6106cf612161565b600080838154811015156106df57fe5b90600052602060002090600202016001016000848154811015156106ff57fe5b906000526020600020906002020160000160009054906101000a900473ffffffffffffffffffffffffffffffffffffffff16818054600181600116156101000203166002900480601f0160208091040260200160405190810160405280929190818152602001828054600181600116156101000203166002900480156107c65780601f1061079b576101008083540402835291602001916107c6565b820191906000526020600020905b8154815290600101906020018083116107a957829003601f168201915b5050505050915091509150915091565b600a5481565b6000600680549050905090565b60008080549050905090565b6107fd612161565b60008060068481548110151561080f57fe5b90600052602060002090015481548110151561082757fe5b9060005260206000209060020201600101600060068581548110151561084957fe5b90600052602060002090015481548110151561086157fe5b906000526020600020906002020160000160009054906101000a900473ffffffffffffffffffffffffffffffffffffffff16818054600181600116156101000203166002900480601f0160208091040260200160405190810160405280929190818152602001828054600181600116156101000203166002900480156109285780601f106108fd57610100808354040283529160200191610928565b820191906000526020600020905b81548152906001019060200180831161090b57829003601f168201915b5050505050915091509150915091565b42600354600b5401108015610960575060001515600960009054906101000a900460ff161515145b15610988576001600960006101000a81548160ff02191690831515021790555042600a819055505b565b6000610994612175565b600091505b600454821015610a5457600683838151811015156109b357fe5b906020019060200201518154811015156109c957fe5b9060005260206000209001548160000181815250506001816040018181525050600580548060010182816109fd919061219d565b91600052602060002090600302016000839091909150600082015181600001556020820151816001019080519060200190610a399291906121cf565b50604082015181600201555050508180600101925050610999565b6000600681610a63919061221c565b50505050565b610a71612248565b600782815481101515610a8057fe5b9060005260206000209001805480602002602001604051908101604052809291908181526020018280548015610b0b57602002820191906000526020600020905b8160009054906101000a900473ffffffffffffffffffffffffffffffffffffffff1673ffffffffffffffffffffffffffffffffffffffff1681526020019060010190808311610ac1575b50505050509050919050565b60008090505b600080549050811015610bc4573373ffffffffffffffffffffffffffffffffffffffff16600082815481101515610b5057fe5b906000526020600020906002020160000160009054906101000a900473ffffffffffffffffffffffffffffffffffffffff1673ffffffffffffffffffffffffffffffffffffffff161415610bb7578160026000838152602001908152602001600020819055505b8080600101915050610b1d565b5050565b60035481565b565b610bd861225c565b610be8826000600185510361168a565b819050919050565b6000610bfa610cea565b905060015481141515610c0f57806001819055505b50565b60045481565b60086020528060005260406000206000915054906101000a900460ff1681565b42600c54600a540111158015610c61575060011515600960009054906101000a900460ff161515145b15610cb1576000600960006101000a81548160ff02191690831515021790555042600b81905550610c906117ea565b6000600681610c9f919061221c565b506000600781610caf9190612270565b505b565b7f36bf6cf02ecc60712e107054775debd1f2f255ab34df5fc4928044264d16fd1f604051610ce0906129c5565b60405180910390a1565b60008060008060008060036004600080549050811515610d0657fe5b04029450600093505b600080549050841015610d96576000925060026000858152602001908152602001600020549150600090505b600080549050811015610d79576002600082815260200190815260200160002054821415610d6c5782806001019350505b8080600101915050610d3b565b84831115610d8957819550610d9c565b8380600101945050610d0f565b60015495505b505050505090565b600960009054906101000a900460ff1681565b6000600580549050905090565b6000610dd733610dd2611c06565b611de1565b1515610e9b57600090505b600080549050811015610e9a573373ffffffffffffffffffffffffffffffffffffffff16600082815481101515610e1557fe5b906000526020600020906002020160000160009054906101000a900473ffffffffffffffffffffffffffffffffffffffff1673ffffffffffffffffffffffffffffffffffffffff161415610e8d5760068054806001018281610e77919061229c565b9160005260206000209001600083909190915055505b8080600101915050610de2565b5b50565b60015481565b60003073ffffffffffffffffffffffffffffffffffffffff1631905090565b60008090505b600080549050811015610fb0573373ffffffffffffffffffffffffffffffffffffffff16600082815481101515610efc57fe5b906000526020600020906002020160000160009054906101000a900473ffffffffffffffffffffffffffffffffffffffff1673ffffffffffffffffffffffffffffffffffffffff161415610fa3577f36bf6cf02ecc60712e107054775debd1f2f255ab34df5fc4928044264d16fd1f82600083815481101515610f7b57fe5b9060005260206000209060020201600101604051610f9a92919061298e565b60405180910390a15b8080600101915050610ec9565b5050565b610fbc612161565b600080610fc761225c565b6000600586815481101515610fd857fe5b906000526020600020906003020160000154815481101515610ff657fe5b9060005260206000209060020201600101600060058781548110151561101857fe5b90600052602060002090600302016000015481548110151561103657fe5b906000526020600020906002020160000160009054906101000a900473ffffffffffffffffffffffffffffffffffffffff1660058781548110151561107757fe5b90600052602060002090600302016002015460058881548110151561109857fe5b9060005260206000209060030201600101838054600181600116156101000203166002900480601f01602080910402602001604051908101604052809291908181526020018280546001816001161561010002031660029004801561113e5780601f106111135761010080835404028352916020019161113e565b820191906000526020600020905b81548152906001019060200180831161112157829003601f168201915b505050505093508080548060200260200160405190810160405280929190818152602001828054801561119057602002820191906000526020600020905b81548152602001906001019080831161117c575b5050505050905093509350935093509193509193565b600b5481565b611305336000805480602002602001604051908101604052809291908181526020016000905b828210156112fc57838290600052602060002090600202016040805190810160405290816000820160009054906101000a900473ffffffffffffffffffffffffffffffffffffffff1673ffffffffffffffffffffffffffffffffffffffff1673ffffffffffffffffffffffffffffffffffffffff168152602001600182018054600181600116156101000203166002900480601f0160208091040260200160405190810160405280929190818152602001828054600181600116156101000203166002900480156112e45780601f106112b9576101008083540402835291602001916112e4565b820191906000526020600020905b8154815290600101906020018083116112c757829003601f168201915b505050505081525050815260200190600101906111d2565b50505050611de1565b8015611324575060011515600960009054906101000a900460ff161515145b8015611380575060001515600860003373ffffffffffffffffffffffffffffffffffffffff1673ffffffffffffffffffffffffffffffffffffffff16815260200190815260200160002060009054906101000a900460ff161515145b1561141a576001600860003373ffffffffffffffffffffffffffffffffffffffff1673ffffffffffffffffffffffffffffffffffffffff16815260200190815260200160002060006101000a81548160ff021916908315150217905550600780548060010182816113f191906122c8565b9160005260206000209001600083909190915090805190602001906114179291906122f4565b50505b50565b61142561237e565b6001543411801561158c575061158a336000805480602002602001604051908101604052809291908181526020016000905b8282101561158157838290600052602060002090600202016040805190810160405290816000820160009054906101000a900473ffffffffffffffffffffffffffffffffffffffff1673ffffffffffffffffffffffffffffffffffffffff1673ffffffffffffffffffffffffffffffffffffffff168152602001600182018054600181600116156101000203166002900480601f0160208091040260200160405190810160405280929190818152602001828054600181600116156101000203166002900480156115695780601f1061153e57610100808354040283529160200191611569565b820191906000526020600020905b81548152906001019060200180831161154c57829003601f168201915b50505050508152505081526020019060010190611457565b50505050611de1565b155b156116645733816000019073ffffffffffffffffffffffffffffffffffffffff16908173ffffffffffffffffffffffffffffffffffffffff1681525050818160200181905250600080548060010182816115e691906123b4565b9160005260206000209060020201600083909190915060008201518160000160006101000a81548173ffffffffffffffffffffffffffffffffffffffff021916908373ffffffffffffffffffffffffffffffffffffffff160217905550602082015181600101908051906020019061165f9291906123e6565b505050505b600154600260006001600080549050038152602001908152602001600020819055505050565b6000806000849250839150818314156116a2576117e2565b8560028686038115156116b157fe5b0486018151811015156116c057fe5b9060200190602002015190505b81831115156117b9575b8086848151811015156116e657fe5b9060200190602002015111156117035782806001019350506116d7565b5b858281518110151561171257fe5b9060200190602002015181111561173157818060019003925050611704565b81831115156117b457858281518110151561174857fe5b90602001906020020151868481518110151561176057fe5b90602001906020020151878581518110151561177857fe5b906020019060200201888581518110151561178f57fe5b9060200190602002018281525082815250505082806001019350508180600190039250505b6116cd565b818510156117cd576117cc86868461168a565b5b838310156117e1576117e086848661168a565b5b5b505050505050565b6000806117f561225c565b6117fd612466565b600061180761225c565b61180f61225c565b61181761225c565b60068054905060405180591061182a5750595b90808252806020026020018201604052509550855160405180591061184c5750595b90808252806020026020018201604052801561188257816020015b61186f61247a565b8152602001906001900390816118675790505b509450600097505b85518810156118db5785516040518059106118a25750595b908082528060200260200182016040525085898151811015156118c157fe5b90602001906020020181905250878060010198505061188a565b600097505b6001865103881015611a17578760010196505b8551871015611a0a576119068888611e63565b935060008414156119845786858981518110151561192057fe5b90602001906020020151878a81518110151561193857fe5b9060200190602002015181518110151561194e57fe5b9060200190602002018181525050858881518110151561196a57fe5b9060200190602002018051809190600101815250506119fd565b60018414156119fc5787858881518110151561199c57fe5b9060200190602002015187898151811015156119b457fe5b906020019060200201518151811015156119ca57fe5b906020019060200201818152505085878151811015156119e657fe5b9060200190602002018051809190600101815250505b5b86806001019750506118f3565b87806001019850506118e0565b8551604051805910611a265750595b90808252806020026020018201604052509250600097505b8551881015611b0f5760008689815181101515611a5757fe5b90602001906020020151141515611b0257600096505b8588815181101515611a7b57fe5b90602001906020020151871015611b0157858589815181101515611a9b57fe5b9060200190602002015188815181101515611ab257fe5b90602001906020020151815181101515611ac857fe5b906020019060200201518389815181101515611ae057fe5b90602001906020020181815101915081815250508680600101975050611a6d565b5b8780600101985050611a3e565b8551604051805910611b1e5750595b90808252806020026020018201604052509150611b42611b3d846120d4565b610bd0565b9050600097505b8551881015611bf357600096505b8551871015611be6578287815181101515611b6e57fe5b906020019060200201518189815181101515611b8657fe5b906020019060200201511415611bd957868289815181101515611ba557fe5b906020019060200201818152505085518651028388815181101515611bc657fe5b9060200190602002018181525050611be6565b8680600101975050611b57565b8780600101985050611b49565b611bfc8261098a565b5050505050505050565b611c0e61248e565b6000611c1861248e565b6000600680549050925082604051805910611c305750595b908082528060200260200182016040528015611c6657816020015b611c536124a2565b815260200190600190039081611c4b5790505b509150600090505b82811015611dd8576000600682815481101515611c8757fe5b906000526020600020900154815481101515611c9f57fe5b90600052602060002090600202016040805190810160405290816000820160009054906101000a900473ffffffffffffffffffffffffffffffffffffffff1673ffffffffffffffffffffffffffffffffffffffff1673ffffffffffffffffffffffffffffffffffffffff168152602001600182018054600181600116156101000203166002900480601f016020809104026020016040519081016040528092919081815260200182805460018160011615610100020316600290048015611da75780601f10611d7c57610100808354040283529160200191611da7565b820191906000526020600020905b815481529060010190602001808311611d8a57829003601f168201915b5050505050815250508282815181101515611dbe57fe5b906020019060200201819052508080600101915050611c6e565b81935050505090565b600080600090505b8251811015611e57578373ffffffffffffffffffffffffffffffffffffffff168382815181101515611e1757fe5b906020019060200201516000015173ffffffffffffffffffffffffffffffffffffffff161415611e4a5760019150611e5c565b8080600101915050611de9565b600091505b5092915050565b60008060008060008060008060008060009850600097506007805490509650600060068d815481101515611e9357fe5b906000526020600020900154815481101515611eab57fe5b906000526020600020906002020160000160009054906101000a900473ffffffffffffffffffffffffffffffffffffffff169550600060068c815481101515611ef057fe5b906000526020600020900154815481101515611f0857fe5b906000526020600020906002020160000160009054906101000a900473ffffffffffffffffffffffffffffffffffffffff169450600093505b8684101561209e57600287811515611f5557fe5b048911158015611f715750600287811515611f6c57fe5b048811155b1561208c57600784815481101515611f8557fe5b9060005260206000209001805490509250600091505b8282101561208757600784815481101515611fb257fe5b906000526020600020900182815481101515611fca57fe5b906000526020600020900160009054906101000a900473ffffffffffffffffffffffffffffffffffffffff1690508573ffffffffffffffffffffffffffffffffffffffff168173ffffffffffffffffffffffffffffffffffffffff161415612039578880600101995050612087565b8473ffffffffffffffffffffffffffffffffffffffff168173ffffffffffffffffffffffffffffffffffffffff16141561207a578780600101985050612087565b8180600101925050611f9b565b612091565b61209e565b8380600101945050611f41565b878911156120af57600099506120c5565b888811156120c057600199506120c5565b600299505b50505050505050505092915050565b6120dc61225c565b6120e461225c565b600083516040518059106120f55750595b90808252806020026020018201604052509150600090505b835181101561215757838181518110151561212457fe5b90602001906020020151828281518110151561213c57fe5b9060200190602002018181525050808060010191505061210d565b8192505050919050565b602060405190810160405280600081525090565b6060604051908101604052806000815260200161219061247a565b8152602001600081525090565b8154818355818115116121ca576003028160030283600052602060002091820191016121c991906124d8565b5b505050565b82805482825590600052602060002090810192821561220b579160200282015b8281111561220a5782518255916020019190600101906121ef565b5b5090506122189190612517565b5090565b815481835581811511612243578183600052602060002091820191016122429190612517565b5b505050565b602060405190810160405280600081525090565b602060405190810160405280600081525090565b81548183558181151161229757818360005260206000209182019101612296919061253c565b5b505050565b8154818355818115116122c3578183600052602060002091820191016122c29190612517565b5b505050565b8154818355818115116122ef578183600052602060002091820191016122ee919061253c565b5b505050565b82805482825590600052602060002090810192821561236d579160200282015b8281111561236c5782518260006101000a81548173ffffffffffffffffffffffffffffffffffffffff021916908373ffffffffffffffffffffffffffffffffffffffff16021790555091602001919060010190612314565b5b50905061237a9190612568565b5090565b6040805190810160405280600073ffffffffffffffffffffffffffffffffffffffff1681526020016123ae6125ab565b81525090565b8154818355818115116123e1576002028160020283600052602060002091820191016123e091906125bf565b5b505050565b828054600181600116156101000203166002900490600052602060002090601f016020900481019282601f1061242757805160ff1916838001178555612455565b82800160010185558215612455579182015b82811115612454578251825591602001919060010190612439565b5b5090506124629190612517565b5090565b602060405190810160405280600081525090565b602060405190810160405280600081525090565b602060405190810160405280600081525090565b6040805190810160405280600073ffffffffffffffffffffffffffffffffffffffff1681526020016124d26125ab565b81525090565b61251491905b80821115612510576000808201600090556001820160006124ff9190612615565b6002820160009055506003016124de565b5090565b90565b61253991905b8082111561253557600081600090555060010161251d565b5090565b90565b61256591905b8082111561256157600081816125589190612636565b50600101612542565b5090565b90565b6125a891905b808211156125a457600081816101000a81549073ffffffffffffffffffffffffffffffffffffffff02191690555060010161256e565b5090565b90565b602060405190810160405280600081525090565b61261291905b8082111561260e57600080820160006101000a81549073ffffffffffffffffffffffffffffffffffffffff02191690556001820160006126059190612657565b506002016125c5565b5090565b90565b50805460008255906000526020600020908101906126339190612517565b50565b50805460008255906000526020600020908101906126549190612517565b50565b50805460018160011615610100020316600290046000825580601f1061267d575061269c565b601f01602090049060005260206000209081019061269b9190612517565b5b50565b6126a881612a7a565b82525050565b60006126b982612a3f565b8084526020840193506126cb83612a13565b60005b828110156126fd576126e186835161269f565b6126ea82612a60565b91506020860195506001810190506126ce565b50849250505092915050565b600061271482612a4a565b80845260208401935061272683612a20565b60005b828110156127585761273c86835161289d565b61274582612a6d565b9150602086019550600181019050612729565b50849250505092915050565b61276d81612a9a565b82525050565b600061277e82612a55565b808452612792816020860160208601612ab0565b61279b81612aec565b602085010191505092915050565b6000815460018116600081146127c657600181146127e657612827565b607f600283041680865260ff198316602087015260408601935050612827565b600282048086526020860195506127fc85612a2d565b60005b8281101561281e578154818901526001820191506020810190506127ff565b80880195505050505b505092915050565b6000600482527f6a616b65000000000000000000000000000000000000000000000000000000006020830152604082019050919050565b6000600282527f68690000000000000000000000000000000000000000000000000000000000006020830152604082019050919050565b6128a681612aa6565b82525050565b600060208201905081810360008301526128c681846126ae565b905092915050565b600060208201905081810360008301526128e88184612709565b905092915050565b60006020820190506129056000830184612764565b92915050565b600060408201905081810360008301526129258185612773565b9050612934602083018461269f565b9392505050565b600060808201905081810360008301526129558187612773565b9050612964602083018661269f565b612971604083018561289d565b81810360608301526129838184612709565b905095945050505050565b600060408201905081810360008301526129a88185612773565b905081810360208301526129bc81846127a9565b90509392505050565b600060408201905081810360008301526129de81612866565b905081810360208301526129f18161282f565b9050919050565b6000602082019050612a0d600083018461289d565b92915050565b6000602082019050919050565b6000602082019050919050565b60008160005260206000209050919050565b600081519050919050565b600081519050919050565b600081519050919050565b6000602082019050919050565b6000602082019050919050565b600073ffffffffffffffffffffffffffffffffffffffff82169050919050565b60008115159050919050565b6000819050919050565b60005b83811015612ace578082015181840152602081019050612ab3565b83811460008114612ade57612ae5565b6000858501525b5050505050565b6000601f19601f83011690509190505600a265627a7a72305820fb79166a987ddd75833f3ee06300cfd22c5b3bcb2f8770b592f6ee2eb8eb9db26c6578706572696d656e74616cf50037",
  "source": "pragma solidity ^0.4.18;\r\npragma experimental ABIEncoderV2;\r\nimport \"./MyLib.sol\";\r\nimport \"./RegistrationClub.sol\";\r\ncontract VotingClub is RegistrationClub {\r\n\r\n    uint public termLength;\r\n    uint public numberOfRepresentatives;\r\n    MyLib.Agent[] listOfRepresentatives;\r\n\r\n      uint[] candidates;\r\n  address[][] votes;\r\n  mapping (address => bool) public voted;\r\n  bool public voteStarted = false;\r\n  uint public timeVoteStarted =0;\r\n  uint public timeVoteEnded =0;\r\n  uint votingTime = 0;\r\n\r\n    function VotingClub(uint cost, uint term, uint reps) RegistrationClub(cost) public {\r\n        termLength = term;\r\n        numberOfRepresentatives = reps;\r\n  }\r\n\r\n      //saves gass as dont have to look at candidates with no votes\r\n    function apply() public {\r\n      if(!isRegistered(msg.sender,buildCandidateList()))\r\n      {\r\n        for (uint i = 0; i < registeredUser.length; i++)\r\n        {\r\n          if(registeredUser[i].myAddress == msg.sender)\r\n          {\r\n            candidates.push(i);\r\n          }\r\n        }\r\n      }\r\n    }\r\n\r\n    function buildCandidateList() internal constant returns (MyLib.User[])\r\n    {\r\n      uint candidatesLength = candidates.length;\r\n      MyLib.User[] memory userList = new MyLib.User[](candidatesLength);\r\n      for(uint i = 0; i < candidatesLength; i ++)\r\n      {\r\n        userList[i] = registeredUser[candidates[i]];\r\n      }\r\n      return userList;\r\n    }\r\n\r\n  function startVote() public {\r\n    if(timeVoteEnded + termLength < block.timestamp && voteStarted == false)\r\n    {\r\n      voteStarted = true;\r\n      timeVoteStarted = block.timestamp;\r\n    }\r\n  }\r\n\r\n  function vote(address[] myVote) public {\r\n    if(isRegistered(msg.sender,registeredUser) && voteStarted == true && voted[msg.sender] == false){\r\n      voted[msg.sender] = true;\r\n      votes.push(myVote);\r\n\r\n    }\r\n  }\r\n  function endVote() public\r\n  {\r\n    if(timeVoteStarted + votingTime <= block.timestamp && voteStarted == true)\r\n    {\r\n      voteStarted = false;\r\n      timeVoteEnded = block.timestamp;\r\n      countVotes();\r\n      candidates.length = 0;\r\n      votes.length = 0;\r\n    }\r\n\r\n  }\r\n  //second order copeland\r\n  function countVotes() internal {\r\n    uint i;\r\n    uint p;\r\n    uint[] memory copelandScore = new uint[](candidates.length);\r\n    uint[][] memory defeated = new uint[][](copelandScore.length);\r\n\r\n    //init2d array\r\n    for (i = 0; i < copelandScore.length; i++)\r\n    {\r\n      defeated[i] = new uint[](copelandScore.length);\r\n    }\r\n\r\n    //pairwise each candidate against each other\r\n    for (i = 0; i < copelandScore.length - 1; i++)\r\n    {\r\n      for (p = 1 + i; p < copelandScore.length; p++)\r\n      {\r\n        uint pairwise = pairwiseComparison(i,p);\r\n\r\n        if(pairwise == 0)\r\n        {\r\n          defeated[i][copelandScore[i]] = p;\r\n          copelandScore[i] ++;\r\n        }\r\n        else if (pairwise == 1) {\r\n          defeated[p][copelandScore[p]] = i;\r\n          copelandScore[p] ++;\r\n        }\r\n\r\n\r\n      }\r\n    }\r\n\r\n    //add up the copeland scores of defeated users\r\n    uint[] memory secondOrderCopeland = new uint[](copelandScore.length);\r\n    for(i =0; i < copelandScore.length; i++)\r\n    {\r\n      if(copelandScore[i] != 0)\r\n      {\r\n        for(p =0; p < copelandScore[i] ; p++)\r\n        {\r\n          secondOrderCopeland[i] += copelandScore[defeated[i][p]];\r\n        }\r\n      }\r\n    }\r\n\r\n    uint[] memory ranked = new uint[](copelandScore.length);\r\n    uint[] memory sortedSecondOrderCopeland = sort(copy(secondOrderCopeland));\r\n\r\n\r\n    for(i=0; i < copelandScore.length; i ++ )\r\n    {\r\n      for(p=0; p < copelandScore.length; p ++ )\r\n      {\r\n        if(sortedSecondOrderCopeland[i] == secondOrderCopeland[p])\r\n        {\r\n          ranked[i] = p;\r\n          //stops same score being matched twice\r\n          secondOrderCopeland[p] = copelandScore.length  * copelandScore.length;\r\n          break;\r\n        }\r\n      }\r\n    }\r\n\r\n    weightCandidates(ranked);\r\n  }\r\n\r\n\r\n  function copy(uint[] toCopy) internal pure returns (uint[])\r\n  {\r\n    uint[] memory copyTo = new uint[](toCopy.length);\r\n    for(uint i = 0; i < toCopy.length; i ++)\r\n    {\r\n      copyTo[i] = toCopy[i];\r\n    }\r\n    return copyTo;\r\n  }\r\n  function pairwiseComparison(uint i, uint p) internal constant returns (uint)\r\n  {\r\n    uint scorei = 0;\r\n    uint scorep = 0;\r\n    uint voteLength = votes.length;\r\n    address iaddress = registeredUser[candidates[i]].myAddress;\r\n    address paddress = registeredUser[candidates[p]].myAddress;\r\n\r\n    for(uint z =0; z < voteLength; z ++)\r\n    {\r\n      if (scorei <= voteLength / 2 && scorep <= voteLength /2)\r\n      {\r\n        //if not seen its the highest\r\n        uint votezlength = votes[z].length;\r\n        for(uint j =0; j < votezlength; j ++)\r\n        {\r\n          address voteaddress = votes[z][j];\r\n          if(voteaddress == iaddress )\r\n          {\r\n            scorei ++;\r\n            break;\r\n          }\r\n          else if(voteaddress == paddress )\r\n          {\r\n            scorep ++;\r\n            break;\r\n          }\r\n        }\r\n      }\r\n      else{\r\n        //if majority for one candidate no need to continue\r\n        break;\r\n      }\r\n    }\r\n    if(scorei > scorep)\r\n    {\r\n      return 0;\r\n    }\r\n    else if (scorep > scorei) {\r\n      return 1;\r\n    }\r\n    else\r\n    {\r\n      return 2;\r\n    }\r\n  }\r\n  function weightCandidates(uint[] ranked) public\r\n  {\r\n    for (uint i = 0; i < numberOfRepresentatives; i++)\r\n    {\r\n      MyLib.Agent memory a;\r\n      a.u = candidates[ranked[i]];\r\n      a.weight = 1;\r\n      listOfRepresentatives.push(a);\r\n    }\r\n    candidates.length = 0;\r\n\r\n  }\r\n  function sort(uint[] data) public returns (uint[]) {\r\n    quickSort(data, uint(0), uint(data.length - 1));\r\n    return data;\r\n  }\r\n\r\n  function quickSort(uint[] memory arr, uint left, uint right) internal{\r\n    uint i = left;\r\n    uint j = right;\r\n    if(i==j) return;\r\n    uint pivot = arr[uint(left + (right - left) / 2)];\r\n    while (i <= j) {\r\n      while (arr[uint(i)] > pivot) i++;\r\n      while (pivot > arr[uint(j)]) j--;\r\n      if (i <= j) {\r\n        (arr[uint(i)], arr[uint(j)]) = (arr[uint(j)], arr[uint(i)]);\r\n        i++;\r\n        j--;\r\n      }\r\n    }\r\n    if (left < j)\r\n    quickSort(arr, left, j);\r\n    if (i < right)\r\n    quickSort(arr, i, right);\r\n  }\r\n\r\n    function listCandidates(uint number) public constant returns (string,address) {\r\n\r\n      return (registeredUser[candidates[number]].name, registeredUser[candidates[number]].myAddress);\r\n    }\r\n\r\n    function getCandidatesLength() public constant returns (uint)\r\n    {\r\n      return candidates.length;\r\n    }\r\n\r\n    function listRepresentives(uint number) public constant returns (string,address,uint,uint[]) {\r\n\r\n      return (registeredUser[listOfRepresentatives[number].u].name, registeredUser[listOfRepresentatives[number].u].myAddress, listOfRepresentatives[number].weight,listOfRepresentatives[number].budget);\r\n    }\r\n\r\n    function getRepresentivesLength() public constant returns (uint)\r\n    {\r\n      return listOfRepresentatives.length;\r\n    }\r\n\r\n    function showVotes(uint number) public constant returns(address[])\r\n    {\r\n      return votes[number];\r\n    }\r\n\r\n\r\n}\r\n",
  "sourcePath": "C:\\Users\\JakeL\\Desktop\\MultiAgentSystemsOnTheBlockChain\\contracts\\VotingClub.sol",
  "compiler": {
    "name": "solc",
    "version": "0.4.18+commit.9cf6e910.Emscripten.clang"
  },
  "schemaVersion": "1.0.1",
  "updatedAt": "2018-04-20T14:25:25.356Z"
}