{
  "contractName": "VotingClub",
  "abi": [
    {
      "constant": true,
      "inputs": [
        {
          "name": "number",
          "type": "uint256"
        }
      ],
      "name": "listRegisteredUsers",
      "outputs": [
        {
          "name": "",
          "type": "string"
        },
        {
          "name": "",
          "type": "address"
        }
      ],
      "payable": false,
      "stateMutability": "view",
      "type": "function"
    },
    {
      "constant": true,
      "inputs": [],
      "name": "timeVoteStarted",
      "outputs": [
        {
          "name": "",
          "type": "uint256"
        }
      ],
      "payable": false,
      "stateMutability": "view",
      "type": "function"
    },
    {
      "constant": true,
      "inputs": [],
      "name": "getRegisteredUsersLength",
      "outputs": [
        {
          "name": "",
          "type": "uint256"
        }
      ],
      "payable": false,
      "stateMutability": "view",
      "type": "function"
    },
    {
      "constant": false,
      "inputs": [
        {
          "name": "suggestion",
          "type": "uint256"
        }
      ],
      "name": "changeRegistrationCostSuggestion",
      "outputs": [],
      "payable": false,
      "stateMutability": "nonpayable",
      "type": "function"
    },
    {
      "constant": true,
      "inputs": [],
      "name": "termLength",
      "outputs": [
        {
          "name": "",
          "type": "uint256"
        }
      ],
      "payable": false,
      "stateMutability": "view",
      "type": "function"
    },
    {
      "constant": false,
      "inputs": [],
      "name": "subsidize",
      "outputs": [],
      "payable": true,
      "stateMutability": "payable",
      "type": "function"
    },
    {
      "constant": false,
      "inputs": [],
      "name": "changeRegistrationCost",
      "outputs": [],
      "payable": false,
      "stateMutability": "nonpayable",
      "type": "function"
    },
    {
      "constant": true,
      "inputs": [],
      "name": "numberOfRepresentatives",
      "outputs": [
        {
          "name": "",
          "type": "uint256"
        }
      ],
      "payable": false,
      "stateMutability": "view",
      "type": "function"
    },
    {
      "constant": true,
      "inputs": [],
      "name": "sayhi",
      "outputs": [],
      "payable": false,
      "stateMutability": "view",
      "type": "function"
    },
    {
      "constant": true,
      "inputs": [],
      "name": "checkRegistrationSuggestions",
      "outputs": [
        {
          "name": "",
          "type": "uint256"
        }
      ],
      "payable": false,
      "stateMutability": "view",
      "type": "function"
    },
    {
      "constant": true,
      "inputs": [],
      "name": "voteStarted",
      "outputs": [
        {
          "name": "",
          "type": "bool"
        }
      ],
      "payable": false,
      "stateMutability": "view",
      "type": "function"
    },
    {
      "constant": true,
      "inputs": [],
      "name": "registrationCost",
      "outputs": [
        {
          "name": "",
          "type": "uint256"
        }
      ],
      "payable": false,
      "stateMutability": "view",
      "type": "function"
    },
    {
      "constant": true,
      "inputs": [],
      "name": "getContractValue",
      "outputs": [
        {
          "name": "",
          "type": "uint256"
        }
      ],
      "payable": false,
      "stateMutability": "view",
      "type": "function"
    },
    {
      "constant": true,
      "inputs": [
        {
          "name": "text",
          "type": "string"
        }
      ],
      "name": "chat",
      "outputs": [],
      "payable": false,
      "stateMutability": "view",
      "type": "function"
    },
    {
      "constant": true,
      "inputs": [],
      "name": "timeVoteEnded",
      "outputs": [
        {
          "name": "",
          "type": "uint256"
        }
      ],
      "payable": false,
      "stateMutability": "view",
      "type": "function"
    },
    {
      "constant": false,
      "inputs": [
        {
          "name": "name",
          "type": "string"
        }
      ],
      "name": "register",
      "outputs": [],
      "payable": true,
      "stateMutability": "payable",
      "type": "function"
    },
    {
      "inputs": [
        {
          "name": "cost",
          "type": "uint256"
        },
        {
          "name": "term",
          "type": "uint256"
        },
        {
          "name": "reps",
          "type": "uint256"
        },
        {
          "name": "option",
          "type": "uint256"
        }
      ],
      "payable": false,
      "stateMutability": "nonpayable",
      "type": "constructor"
    },
    {
      "anonymous": false,
      "inputs": [
        {
          "indexed": false,
          "name": "message",
          "type": "string"
        },
        {
          "indexed": false,
          "name": "name",
          "type": "string"
        }
      ],
      "name": "message",
      "type": "event"
    },
    {
      "constant": false,
      "inputs": [],
      "name": "apply",
      "outputs": [],
      "payable": false,
      "stateMutability": "nonpayable",
      "type": "function"
    },
    {
      "constant": false,
      "inputs": [],
      "name": "startVote",
      "outputs": [],
      "payable": false,
      "stateMutability": "nonpayable",
      "type": "function"
    },
    {
      "constant": false,
      "inputs": [
        {
          "name": "myVote",
          "type": "address[]"
        }
      ],
      "name": "vote",
      "outputs": [],
      "payable": false,
      "stateMutability": "nonpayable",
      "type": "function"
    },
    {
      "constant": false,
      "inputs": [],
      "name": "endVote",
      "outputs": [],
      "payable": false,
      "stateMutability": "nonpayable",
      "type": "function"
    },
    {
      "constant": false,
      "inputs": [
        {
          "name": "ranked",
          "type": "uint256[]"
        }
      ],
      "name": "weightCandidates",
      "outputs": [],
      "payable": false,
      "stateMutability": "nonpayable",
      "type": "function"
    },
    {
      "constant": false,
      "inputs": [
        {
          "name": "data",
          "type": "uint256[]"
        }
      ],
      "name": "sort",
      "outputs": [
        {
          "name": "",
          "type": "uint256[]"
        }
      ],
      "payable": false,
      "stateMutability": "nonpayable",
      "type": "function"
    },
    {
      "constant": true,
      "inputs": [
        {
          "name": "number",
          "type": "uint256"
        }
      ],
      "name": "listCandidates",
      "outputs": [
        {
          "name": "",
          "type": "string"
        },
        {
          "name": "",
          "type": "address"
        }
      ],
      "payable": false,
      "stateMutability": "view",
      "type": "function"
    },
    {
      "constant": true,
      "inputs": [],
      "name": "getCandidatesLength",
      "outputs": [
        {
          "name": "",
          "type": "uint256"
        }
      ],
      "payable": false,
      "stateMutability": "view",
      "type": "function"
    },
    {
      "constant": true,
      "inputs": [
        {
          "name": "number",
          "type": "uint256"
        }
      ],
      "name": "listRepresentives",
      "outputs": [
        {
          "name": "",
          "type": "string"
        },
        {
          "name": "",
          "type": "address"
        },
        {
          "name": "",
          "type": "uint256"
        },
        {
          "name": "",
          "type": "uint256[]"
        }
      ],
      "payable": false,
      "stateMutability": "view",
      "type": "function"
    },
    {
      "constant": true,
      "inputs": [],
      "name": "getRepresentivesLength",
      "outputs": [
        {
          "name": "",
          "type": "uint256"
        }
      ],
      "payable": false,
      "stateMutability": "view",
      "type": "function"
    },
    {
      "constant": true,
      "inputs": [
        {
          "name": "number",
          "type": "uint256"
        }
      ],
      "name": "showVotes",
      "outputs": [
        {
          "name": "",
          "type": "address[]"
        }
      ],
      "payable": false,
      "stateMutability": "view",
      "type": "function"
    }
  ],
  "bytecode": "0x60606040526000600860006101000a81548160ff02191690831515021790555060006009556000600a556000600b5534156200003a57600080fd5b60405160808062002e72833981016040526200006090678000000000000000906200009e565b838060018190555050826003819055508160048190555080600c81905550505050506200011e565b600062000096825162000114565b905092915050565b60008060008060808587031260018114620000b957620000be565b600080fd5b506000620000cf8782880162000088565b9450506020620000e28782880162000088565b9350506040620000f58782880162000088565b9250506060620001088782880162000088565b91505092959194509250565b6000819050919050565b612d44806200012e6000396000f30060606040526004361061015f576000357c0100000000000000000000000000000000000000000000000000000000900463ffffffff1680630cf35f4414610164578063161893d01461019b5780631859df65146101c45780631afad36d146101ed57806322ca968b146102165780634c0a6af01461024d5780635846fc46146102625780636687d4fe146102845780637392445a146102ba57806379b18cd1146102dc57806390f10ed1146103055780639ec8b0261461030f578063a90cc0d914610345578063ae0689ac1461035a578063b922394614610383578063bc9c707d14610398578063c0fc41e6146103ad578063d0dc0180146103d6578063d5268b22146103ff578063db595b3b14610428578063dc4a7f7f1461043d578063dc82697c14610466578063de8caa1e1461048f578063dee6472f146104b1578063ed00af98146104ea578063ed08132914610513578063f2c298be14610535575b600080fd5b341561016f57600080fd5b610184600461017f90369061277d565b61054c565b604051610192929190612a1b565b60405180910390f35b34156101a657600080fd5b6101ae61065b565b6040516101bb9190612b08565b60405180910390f35b34156101cf57600080fd5b6101d7610661565b6040516101e49190612b08565b60405180910390f35b34156101f857600080fd5b61020061066e565b60405161020d9190612b08565b60405180910390f35b341561022157600080fd5b610236600461023190369061277d565b61067a565b604051610244929190612a1b565b60405180910390f35b341561025857600080fd5b6102606107bd565b005b341561026d57600080fd5b610282600461027d9036906126d7565b61080f565b005b341561028f57600080fd5b6102a4600461029f90369061277d565b61090c565b6040516102b191906129bc565b60405180910390f35b34156102c557600080fd5b6102da60046102d590369061277d565b6109ba565b005b34156102e757600080fd5b6102ef610a6b565b6040516102fc9190612b08565b60405180910390f35b61030d610a71565b005b341561031a57600080fd5b61032f600461032a9036906126d7565b610a73565b60405161033c91906129de565b60405180910390f35b341561035057600080fd5b610358610a93565b005b341561036557600080fd5b61036d610ab5565b60405161037a9190612b08565b60405180910390f35b341561038e57600080fd5b610396610abb565b005b34156103a357600080fd5b6103ab610b52565b005b34156103b857600080fd5b6103c0610b89565b6040516103cd9190612b08565b60405180910390f35b34156103e157600080fd5b6103e9610c56565b6040516103f69190612a00565b60405180910390f35b341561040a57600080fd5b610412610c69565b60405161041f9190612b08565b60405180910390f35b341561043357600080fd5b61043b610c76565b005b341561044857600080fd5b610450610d50565b60405161045d9190612b08565b60405180910390f35b341561047157600080fd5b610479610d56565b6040516104869190612b08565b60405180910390f35b341561049a57600080fd5b6104af60046104aa90369061272a565b610d75565b005b34156104bc57600080fd5b6104d160046104cc90369061277d565b610e66565b6040516104e19493929190612a4b565b60405180910390f35b34156104f557600080fd5b6104fd611058565b60405161050a9190612b08565b60405180910390f35b341561051e57600080fd5b610533600461052e903690612684565b61105e565b005b61054a600461054590369061272a565b6111c6565b005b610554611f63565b6000808381548110151561056457fe5b906000526020600020906003020160010160008481548110151561058457fe5b906000526020600020906003020160000160009054906101000a900473ffffffffffffffffffffffffffffffffffffffff16818054600181600116156101000203166002900480601f01602080910402602001604051908101604052809291908181526020018280546001816001161561010002031660029004801561064b5780601f106106205761010080835404028352916020019161064b565b820191906000526020600020905b81548152906001019060200180831161062e57829003601f168201915b5050505050915091509150915091565b60095481565b6000600680549050905090565b60008080549050905090565b610682611f63565b60008060068481548110151561069457fe5b9060005260206000209001548154811015156106ac57fe5b906000526020600020906003020160010160006006858154811015156106ce57fe5b9060005260206000209001548154811015156106e657fe5b906000526020600020906003020160000160009054906101000a900473ffffffffffffffffffffffffffffffffffffffff16818054600181600116156101000203166002900480601f0160208091040260200160405190810160405280929190818152602001828054600181600116156101000203166002900480156107ad5780601f10610782576101008083540402835291602001916107ad565b820191906000526020600020905b81548152906001019060200180831161079057829003601f168201915b5050505050915091509150915091565b42600354600a54011080156107e5575060001515600860009054906101000a900460ff161515145b1561080d576001600860006101000a81548160ff021916908315150217905550426009819055505b565b60008061081a611f77565b600c549250600091505b600454821015610906576006848381518110151561083e57fe5b9060200190602002015181548110151561085457fe5b906000526020600020900154816000018181525050600083141561088257600181604001818152505061089b565b600183141561089a5781600454038160400181815250505b5b600580548060010182816108af9190611f9f565b916000526020600020906003020160008390919091506000820151816000015560208201518160010190805190602001906108eb929190611fd1565b50604082015181600201555050508180600101925050610824565b50505050565b61091461201e565b60078281548110151561092357fe5b90600052602060002090018054806020026020016040519081016040528092919081815260200182805480156109ae57602002820191906000526020600020905b8160009054906101000a900473ffffffffffffffffffffffffffffffffffffffff1673ffffffffffffffffffffffffffffffffffffffff1681526020019060010190808311610964575b50505050509050919050565b60008090505b600080549050811015610a67573373ffffffffffffffffffffffffffffffffffffffff166000828154811015156109f357fe5b906000526020600020906003020160000160009054906101000a900473ffffffffffffffffffffffffffffffffffffffff1673ffffffffffffffffffffffffffffffffffffffff161415610a5a578160026000838152602001908152602001600020819055505b80806001019150506109c0565b5050565b60035481565b565b610a7b612032565b610a8b8260006001855103611470565b819050919050565b6000610a9d610b89565b905060015481141515610ab257806001819055505b50565b60045481565b42600b546009540111158015610ae4575060011515600860009054906101000a900460ff161515145b15610b50576000600860006101000a81548160ff02191690831515021790555042600a819055506004546006805490501015610b27576006805490506004819055505b610b2f6115d0565b6000600681610b3e9190612046565b506000600781610b4e9190612072565b505b565b7f36bf6cf02ecc60712e107054775debd1f2f255ab34df5fc4928044264d16fd1f604051610b7f90612ad5565b60405180910390a1565b60008060008060008060016000805490501115610c485760016003600260008054905002811515610bb657fe5b04019450600093505b600080549050841015610c47576000925060026000858152602001908152602001600020549150600090505b600080549050811015610c29576002600082815260200190815260200160002054821415610c1c5782806001019350505b8080600101915050610beb565b8483101515610c3a57819550610c4e565b8380600101945050610bbf565b5b60015495505b505050505090565b600860009054906101000a900460ff1681565b6000600580549050905090565b6000610c8933610c846119ec565b611be3565b1515610d4d57600090505b600080549050811015610d4c573373ffffffffffffffffffffffffffffffffffffffff16600082815481101515610cc757fe5b906000526020600020906003020160000160009054906101000a900473ffffffffffffffffffffffffffffffffffffffff1673ffffffffffffffffffffffffffffffffffffffff161415610d3f5760068054806001018281610d29919061209e565b9160005260206000209001600083909190915055505b8080600101915050610c94565b5b50565b60015481565b60003073ffffffffffffffffffffffffffffffffffffffff1631905090565b60008090505b600080549050811015610e62573373ffffffffffffffffffffffffffffffffffffffff16600082815481101515610dae57fe5b906000526020600020906003020160000160009054906101000a900473ffffffffffffffffffffffffffffffffffffffff1673ffffffffffffffffffffffffffffffffffffffff161415610e55577f36bf6cf02ecc60712e107054775debd1f2f255ab34df5fc4928044264d16fd1f82600083815481101515610e2d57fe5b9060005260206000209060030201600101604051610e4c929190612a9e565b60405180910390a15b8080600101915050610d7b565b5050565b610e6e611f63565b600080610e79612032565b6000600586815481101515610e8a57fe5b906000526020600020906003020160000154815481101515610ea857fe5b90600052602060002090600302016001016000600587815481101515610eca57fe5b906000526020600020906003020160000154815481101515610ee857fe5b906000526020600020906003020160000160009054906101000a900473ffffffffffffffffffffffffffffffffffffffff16600587815481101515610f2957fe5b906000526020600020906003020160020154600588815481101515610f4a57fe5b9060005260206000209060030201600101838054600181600116156101000203166002900480601f016020809104026020016040519081016040528092919081815260200182805460018160011615610100020316600290048015610ff05780601f10610fc557610100808354040283529160200191610ff0565b820191906000526020600020905b815481529060010190602001808311610fd357829003601f168201915b505050505093508080548060200260200160405190810160405280929190818152602001828054801561104257602002820191906000526020600020905b81548152602001906001019080831161102e575b5050505050905093509350935093509193509193565b600a5481565b60008090505b6000805490508110156111c2573373ffffffffffffffffffffffffffffffffffffffff1660008281548110151561109757fe5b906000526020600020906003020160000160009054906101000a900473ffffffffffffffffffffffffffffffffffffffff1673ffffffffffffffffffffffffffffffffffffffff1614156111b55760011515600860009054906101000a900460ff16151514801561113957506000151560008281548110151561111657fe5b906000526020600020906003020160020160009054906101000a900460ff161515145b156111b457600160008281548110151561114f57fe5b906000526020600020906003020160020160006101000a81548160ff0219169083151502179055506007805480600101828161118b91906120ca565b9160005260206000209001600084909190915090805190602001906111b19291906120f6565b50505b5b8080600101915050611064565b5050565b6111ce612180565b60015434101580156113525750611350336000805480602002602001604051908101604052809291908181526020016000905b828210156113475783829060005260206000209060030201606060405190810160405290816000820160009054906101000a900473ffffffffffffffffffffffffffffffffffffffff1673ffffffffffffffffffffffffffffffffffffffff1673ffffffffffffffffffffffffffffffffffffffff168152602001600182018054600181600116156101000203166002900480601f0160208091040260200160405190810160405280929190818152602001828054600181600116156101000203166002900480156113145780601f106112e957610100808354040283529160200191611314565b820191906000526020600020905b8154815290600101906020018083116112f757829003601f168201915b505050505081526020016002820160009054906101000a900460ff16151515158152505081526020019060010190611201565b50505050611be3565b155b1561144a5733816000019073ffffffffffffffffffffffffffffffffffffffff16908173ffffffffffffffffffffffffffffffffffffffff1681525050818160200181905250600080548060010182816113ac91906121c0565b9160005260206000209060030201600083909190915060008201518160000160006101000a81548173ffffffffffffffffffffffffffffffffffffffff021916908373ffffffffffffffffffffffffffffffffffffffff16021790555060208201518160010190805190602001906114259291906121f2565b5060408201518160020160006101000a81548160ff0219169083151502179055505050505b600154600260006001600080549050038152602001908152602001600020819055505050565b600080600084925083915081831415611488576115c8565b85600286860381151561149757fe5b0486018151811015156114a657fe5b9060200190602002015190505b818311151561159f575b8086848151811015156114cc57fe5b9060200190602002015111156114e95782806001019350506114bd565b5b85828151811015156114f857fe5b90602001906020020151811115611517578180600190039250506114ea565b818311151561159a57858281518110151561152e57fe5b90602001906020020151868481518110151561154657fe5b90602001906020020151878581518110151561155e57fe5b906020019060200201888581518110151561157557fe5b9060200190602002018281525082815250505082806001019350508180600190039250505b6114b3565b818510156115b3576115b2868684611470565b5b838310156115c7576115c6868486611470565b5b5b505050505050565b6000806115db612032565b6115e3612272565b60006115ed612032565b6115f5612032565b6115fd612032565b6006805490506040518059106116105750595b9080825280602002602001820160405250955085516040518059106116325750595b90808252806020026020018201604052801561166857816020015b611655612286565b81526020019060019003908161164d5790505b509450600097505b85518810156116c15785516040518059106116885750595b908082528060200260200182016040525085898151811015156116a757fe5b906020019060200201819052508780600101985050611670565b600097505b60018651038810156117fd578760010196505b85518710156117f0576116ec8888611c65565b9350600084141561176a5786858981518110151561170657fe5b90602001906020020151878a81518110151561171e57fe5b9060200190602002015181518110151561173457fe5b9060200190602002018181525050858881518110151561175057fe5b9060200190602002018051809190600101815250506117e3565b60018414156117e25787858881518110151561178257fe5b90602001906020020151878981518110151561179a57fe5b906020019060200201518151811015156117b057fe5b906020019060200201818152505085878151811015156117cc57fe5b9060200190602002018051809190600101815250505b5b86806001019750506116d9565b87806001019850506116c6565b855160405180591061180c5750595b90808252806020026020018201604052509250600097505b85518810156118f5576000868981518110151561183d57fe5b906020019060200201511415156118e857600096505b858881518110151561186157fe5b906020019060200201518710156118e75785858981518110151561188157fe5b906020019060200201518881518110151561189857fe5b906020019060200201518151811015156118ae57fe5b9060200190602002015183898151811015156118c657fe5b90602001906020020181815101915081815250508680600101975050611853565b5b8780600101985050611824565b85516040518059106119045750595b9080825280602002602001820160405250915061192861192384611ed6565b610a73565b9050600097505b85518810156119d957600096505b85518710156119cc57828781518110151561195457fe5b90602001906020020151818981518110151561196c57fe5b9060200190602002015114156119bf5786828981518110151561198b57fe5b9060200190602002018181525050855186510283888151811015156119ac57fe5b90602001906020020181815250506119cc565b868060010197505061193d565b878060010198505061192f565b6119e28261080f565b5050505050505050565b6119f461229a565b60006119fe61229a565b6000600680549050925082604051805910611a165750595b908082528060200260200182016040528015611a4c57816020015b611a396122ae565b815260200190600190039081611a315790505b509150600090505b82811015611bda576000600682815481101515611a6d57fe5b906000526020600020900154815481101515611a8557fe5b9060005260206000209060030201606060405190810160405290816000820160009054906101000a900473ffffffffffffffffffffffffffffffffffffffff1673ffffffffffffffffffffffffffffffffffffffff1673ffffffffffffffffffffffffffffffffffffffff168152602001600182018054600181600116156101000203166002900480601f016020809104026020016040519081016040528092919081815260200182805460018160011615610100020316600290048015611b8e5780601f10611b6357610100808354040283529160200191611b8e565b820191906000526020600020905b815481529060010190602001808311611b7157829003601f168201915b505050505081526020016002820160009054906101000a900460ff1615151515815250508282815181101515611bc057fe5b906020019060200201819052508080600101915050611a54565b81935050505090565b600080600090505b8251811015611c59578373ffffffffffffffffffffffffffffffffffffffff168382815181101515611c1957fe5b906020019060200201516000015173ffffffffffffffffffffffffffffffffffffffff161415611c4c5760019150611c5e565b8080600101915050611beb565b600091505b5092915050565b60008060008060008060008060008060009850600097506007805490509650600060068d815481101515611c9557fe5b906000526020600020900154815481101515611cad57fe5b906000526020600020906003020160000160009054906101000a900473ffffffffffffffffffffffffffffffffffffffff169550600060068c815481101515611cf257fe5b906000526020600020900154815481101515611d0a57fe5b906000526020600020906003020160000160009054906101000a900473ffffffffffffffffffffffffffffffffffffffff169450600093505b86841015611ea057600287811515611d5757fe5b048911158015611d735750600287811515611d6e57fe5b048811155b15611e8e57600784815481101515611d8757fe5b9060005260206000209001805490509250600091505b82821015611e8957600784815481101515611db457fe5b906000526020600020900182815481101515611dcc57fe5b906000526020600020900160009054906101000a900473ffffffffffffffffffffffffffffffffffffffff1690508573ffffffffffffffffffffffffffffffffffffffff168173ffffffffffffffffffffffffffffffffffffffff161415611e3b578880600101995050611e89565b8473ffffffffffffffffffffffffffffffffffffffff168173ffffffffffffffffffffffffffffffffffffffff161415611e7c578780600101985050611e89565b8180600101925050611d9d565b611e93565b611ea0565b8380600101945050611d43565b87891115611eb15760009950611ec7565b88881115611ec25760019950611ec7565b600299505b50505050505050505092915050565b611ede612032565b611ee6612032565b60008351604051805910611ef75750595b90808252806020026020018201604052509150600090505b8351811015611f59578381815181101515611f2657fe5b906020019060200201518282815181101515611f3e57fe5b90602001906020020181815250508080600101915050611f0f565b8192505050919050565b602060405190810160405280600081525090565b60606040519081016040528060008152602001611f92612286565b8152602001600081525090565b815481835581811511611fcc57600302816003028360005260206000209182019101611fcb91906122ee565b5b505050565b82805482825590600052602060002090810192821561200d579160200282015b8281111561200c578251825591602001919060010190611ff1565b5b50905061201a919061232d565b5090565b602060405190810160405280600081525090565b602060405190810160405280600081525090565b81548183558181151161206d5781836000526020600020918201910161206c919061232d565b5b505050565b815481835581811511612099578183600052602060002091820191016120989190612352565b5b505050565b8154818355818115116120c5578183600052602060002091820191016120c4919061232d565b5b505050565b8154818355818115116120f1578183600052602060002091820191016120f09190612352565b5b505050565b82805482825590600052602060002090810192821561216f579160200282015b8281111561216e5782518260006101000a81548173ffffffffffffffffffffffffffffffffffffffff021916908373ffffffffffffffffffffffffffffffffffffffff16021790555091602001919060010190612116565b5b50905061217c919061237e565b5090565b606060405190810160405280600073ffffffffffffffffffffffffffffffffffffffff1681526020016121b16123c1565b81526020016000151581525090565b8154818355818115116121ed576003028160030283600052602060002091820191016121ec91906123d5565b5b505050565b828054600181600116156101000203166002900490600052602060002090601f016020900481019282601f1061223357805160ff1916838001178555612261565b82800160010185558215612261579182015b82811115612260578251825591602001919060010190612245565b5b50905061226e919061232d565b5090565b602060405190810160405280600081525090565b602060405190810160405280600081525090565b602060405190810160405280600081525090565b606060405190810160405280600073ffffffffffffffffffffffffffffffffffffffff1681526020016122df6123c1565b81526020016000151581525090565b61232a91905b8082111561232657600080820160009055600182016000612315919061243f565b6002820160009055506003016122f4565b5090565b90565b61234f91905b8082111561234b576000816000905550600101612333565b5090565b90565b61237b91905b80821115612377576000818161236e9190612460565b50600101612358565b5090565b90565b6123be91905b808211156123ba57600081816101000a81549073ffffffffffffffffffffffffffffffffffffffff021916905550600101612384565b5090565b90565b602060405190810160405280600081525090565b61243c91905b8082111561243857600080820160006101000a81549073ffffffffffffffffffffffffffffffffffffffff021916905560018201600061241b9190612481565b6002820160006101000a81549060ff0219169055506003016123db565b5090565b90565b508054600082559060005260206000209081019061245d919061232d565b50565b508054600082559060005260206000209081019061247e919061232d565b50565b50805460018160011615610100020316600290046000825580601f106124a757506124c6565b601f0160209004906000526020600020908101906124c5919061232d565b5b50565b60006124d58235612c8d565b905092915050565b600082601f830112600081146124f2576124f7565b600080fd5b50813561250b61250682612b59565b612b23565b9150818183526020840193506020810190508385602084028201116001811461253357612538565b600080fd5b5060005b83811015612569578161254f88826124c9565b84526020840193506020830192505060018101905061253c565b5050505092915050565b600082601f830112600081146125885761258d565b600080fd5b5081356125a161259c82612b8a565b612b23565b915081818352602084019350602081019050838560208402820111600181146125c9576125ce565b600080fd5b5060005b838110156125ff57816125e58882612670565b8452602084019350602083019250506001810190506125d2565b5050505092915050565b600082601f8301126000811461261e57612623565b600080fd5b50813561263761263282612bbb565b612b23565b915080825260208301602083018583830111600181146126565761265b565b600080fd5b50612667838284612cb7565b50505092915050565b600061267c8235612cad565b905092915050565b6000602082840312600181146126995761269e565b600080fd5b50600082013567ffffffffffffffff8111600181146126bc576126c1565b600080fd5b506126ce848285016124dd565b91505092915050565b6000602082840312600181146126ec576126f1565b600080fd5b50600082013567ffffffffffffffff81116001811461270f57612714565b600080fd5b5061272184828501612573565b91505092915050565b60006020828403126001811461273f57612744565b600080fd5b50600082013567ffffffffffffffff81116001811461276257612767565b600080fd5b5061277484828501612609565b91505092915050565b60006020828403126001811461279257612797565b600080fd5b5060006127a684828501612670565b91505092915050565b6127b881612c57565b82525050565b60006127c982612c1c565b8084526020840193506127db83612bf0565b60005b8281101561280d576127f18683516127af565b6127fa82612c3d565b91506020860195506001810190506127de565b50849250505092915050565b600061282482612c27565b80845260208401935061283683612bfd565b60005b828110156128685761284c8683516129ad565b61285582612c4a565b9150602086019550600181019050612839565b50849250505092915050565b61287d81612c77565b82525050565b600061288e82612c32565b8084526128a2816020860160208601612cc6565b6128ab81612cf9565b602085010191505092915050565b6000815460018116600081146128d657600181146128f657612937565b607f600283041680865260ff198316602087015260408601935050612937565b6002820480865260208601955061290c85612c0a565b60005b8281101561292e5781548189015260018201915060208101905061290f565b80880195505050505b505092915050565b6000600482527f6a616b65000000000000000000000000000000000000000000000000000000006020830152604082019050919050565b6000600282527f68690000000000000000000000000000000000000000000000000000000000006020830152604082019050919050565b6129b681612c83565b82525050565b600060208201905081810360008301526129d681846127be565b905092915050565b600060208201905081810360008301526129f88184612819565b905092915050565b6000602082019050612a156000830184612874565b92915050565b60006040820190508181036000830152612a358185612883565b9050612a4460208301846127af565b9392505050565b60006080820190508181036000830152612a658187612883565b9050612a7460208301866127af565b612a8160408301856129ad565b8181036060830152612a938184612819565b905095945050505050565b60006040820190508181036000830152612ab88185612883565b90508181036020830152612acc81846128b9565b90509392505050565b60006040820190508181036000830152612aee81612976565b90508181036020830152612b018161293f565b9050919050565b6000602082019050612b1d60008301846129ad565b92915050565b6000604051905081810181811067ffffffffffffffff82111760018114612b4957612b4e565b600080fd5b508060405250919050565b600067ffffffffffffffff821160018114612b7357612b78565b600080fd5b50602082029050602081019050919050565b600067ffffffffffffffff821160018114612ba457612ba9565b600080fd5b50602082029050602081019050919050565b600067ffffffffffffffff821160018114612bd557612bda565b600080fd5b50601f19601f8301169050602081019050919050565b6000602082019050919050565b6000602082019050919050565b60008160005260206000209050919050565b600081519050919050565b600081519050919050565b600081519050919050565b6000602082019050919050565b6000602082019050919050565b600073ffffffffffffffffffffffffffffffffffffffff82169050919050565b60008115159050919050565b6000819050919050565b600073ffffffffffffffffffffffffffffffffffffffff82169050919050565b6000819050919050565b82818337600083830152505050565b60005b83811015612ce4578082015181840152602081019050612cc9565b83811115612cf3576000848401525b50505050565b6000601f19601f83011690509190505600a265627a7a7230582079ff991021bf3416f5e827561c18a731b5ed28adf9eb496e1626d8e7208f995a6c6578706572696d656e74616cf50037",
  "source": "pragma solidity ^0.4.18;\r\npragma experimental ABIEncoderV2;\r\nimport \"./MyLib.sol\";\r\nimport \"./RegistrationClub.sol\";\r\ncontract VotingClub is RegistrationClub {\r\n\r\n    uint public termLength;\r\n    uint public numberOfRepresentatives;\r\n    MyLib.Agent[] listOfRepresentatives;\r\n\r\n      uint[] candidates;\r\n  address[][] votes;\r\n  bool public voteStarted = false;\r\n  uint public timeVoteStarted =0;\r\n  uint public timeVoteEnded =0;\r\n  uint votingTime = 0;\r\n  uint weightingOption;\r\n    function VotingClub(uint cost, uint term, uint reps, uint option) RegistrationClub(cost) public {\r\n        termLength = term;\r\n        numberOfRepresentatives = reps;\r\n        weightingOption = option;\r\n  }\r\n\r\n\r\n    function apply() public {\r\n      if(!isRegistered(msg.sender,buildCandidateList()))\r\n      {\r\n        for (uint i = 0; i < registeredUser.length; i++)\r\n        {\r\n          if(registeredUser[i].myAddress == msg.sender)\r\n          {\r\n            candidates.push(i);\r\n          }\r\n        }\r\n      }\r\n    }\r\n\r\n    function buildCandidateList() internal constant returns (MyLib.User[])\r\n    {\r\n      uint candidatesLength = candidates.length;\r\n      MyLib.User[] memory userList = new MyLib.User[](candidatesLength);\r\n      for(uint i = 0; i < candidatesLength; i ++)\r\n      {\r\n        userList[i] = registeredUser[candidates[i]];\r\n      }\r\n      return userList;\r\n    }\r\n\r\n  function startVote() public {\r\n    if(timeVoteEnded + termLength < block.timestamp && voteStarted == false)\r\n    {\r\n      voteStarted = true;\r\n      timeVoteStarted = block.timestamp;\r\n    }\r\n  }\r\n  function vote(address[] myVote) public {\r\n    for (uint i = 0; i < registeredUser.length; i++)\r\n    {\r\n      if(registeredUser[i].myAddress == msg.sender)\r\n      {\r\n        if(voteStarted == true && registeredUser[i].voted == false){\r\n          registeredUser[i].voted = true;\r\n          votes.push(myVote);\r\n        }\r\n      }\r\n    }\r\n\r\n  }\r\n  function endVote() public\r\n  {\r\n\r\n    if(timeVoteStarted + votingTime <= block.timestamp && voteStarted == true)\r\n    {\r\n      voteStarted = false;\r\n      timeVoteEnded = block.timestamp;\r\n      if(candidates.length < numberOfRepresentatives)\r\n      {\r\n        numberOfRepresentatives = candidates.length;\r\n      }\r\n\r\n      countVotes();\r\n\r\n      candidates.length = 0;\r\n      votes.length = 0;\r\n\r\n    }\r\n\r\n\r\n  }\r\n  //second order copeland\r\n  function countVotes() internal {\r\n    uint i;\r\n    uint p;\r\n    uint[] memory copelandScore = new uint[](candidates.length);\r\n    uint[][] memory defeated = new uint[][](copelandScore.length);\r\n\r\n    //init2d array\r\n    for (i = 0; i < copelandScore.length; i++)\r\n    {\r\n      defeated[i] = new uint[](copelandScore.length);\r\n    }\r\n\r\n    //pairwise each candidate against each other\r\n    for (i = 0; i < copelandScore.length - 1; i++)\r\n    {\r\n      for (p = 1 + i; p < copelandScore.length; p++)\r\n      {\r\n        uint pairwise = pairwiseComparison(i,p);\r\n\r\n        if(pairwise == 0)\r\n        {\r\n          defeated[i][copelandScore[i]] = p;\r\n          copelandScore[i] ++;\r\n        }\r\n        else if (pairwise == 1) {\r\n          defeated[p][copelandScore[p]] = i;\r\n          copelandScore[p] ++;\r\n        }\r\n\r\n\r\n      }\r\n    }\r\n\r\n    //add up the copeland scores of defeated users\r\n    uint[] memory secondOrderCopeland = new uint[](copelandScore.length);\r\n    for(i =0; i < copelandScore.length; i++)\r\n    {\r\n      if(copelandScore[i] != 0)\r\n      {\r\n        for(p =0; p < copelandScore[i] ; p++)\r\n        {\r\n          secondOrderCopeland[i] += copelandScore[defeated[i][p]];\r\n        }\r\n      }\r\n    }\r\n\r\n\r\n    //because candidates save int instead of user have to save sorted and unsorted and then compare\r\n    uint[] memory ranked = new uint[](copelandScore.length);\r\n    uint[] memory sortedSecondOrderCopeland = sort(copy(secondOrderCopeland));\r\n\r\n    for(i=0; i < copelandScore.length; i ++ )\r\n    {\r\n      for(p=0; p < copelandScore.length; p ++ )\r\n      {\r\n        if(sortedSecondOrderCopeland[i] == secondOrderCopeland[p])\r\n        {\r\n          ranked[i] = p;\r\n          //stops same score being matched twice\r\n          secondOrderCopeland[p] = copelandScore.length  * copelandScore.length;\r\n          break;\r\n        }\r\n      }\r\n    }\r\n\r\n    weightCandidates(ranked);\r\n\r\n\r\n  }\r\n\r\n\r\n  function copy(uint[] toCopy) internal pure returns (uint[])\r\n  {\r\n    uint[] memory copyTo = new uint[](toCopy.length);\r\n    for(uint i = 0; i < toCopy.length; i ++)\r\n    {\r\n      copyTo[i] = toCopy[i];\r\n    }\r\n    return copyTo;\r\n  }\r\n  function pairwiseComparison(uint i, uint p) internal constant returns (uint)\r\n  {\r\n    uint scorei = 0;\r\n    uint scorep = 0;\r\n    uint voteLength = votes.length;\r\n    address iaddress = registeredUser[candidates[i]].myAddress;\r\n    address paddress = registeredUser[candidates[p]].myAddress;\r\n\r\n    for(uint z =0; z < voteLength; z ++)\r\n    {\r\n      if (scorei <= voteLength / 2 && scorep <= voteLength /2)\r\n      {\r\n        //if not seen its the highest\r\n        uint votezlength = votes[z].length;\r\n        for(uint j =0; j < votezlength; j ++)\r\n        {\r\n          address voteaddress = votes[z][j];\r\n          if(voteaddress == iaddress )\r\n          {\r\n            scorei ++;\r\n            break;\r\n          }\r\n          else if(voteaddress == paddress )\r\n          {\r\n            scorep ++;\r\n            break;\r\n          }\r\n        }\r\n      }\r\n      else{\r\n        //if majority for one candidate no need to continue\r\n        break;\r\n      }\r\n    }\r\n    if(scorei > scorep)\r\n    {\r\n      return 0;\r\n    }\r\n    else if (scorep > scorei) {\r\n      return 1;\r\n    }\r\n    else\r\n    {\r\n      return 2;\r\n    }\r\n  }\r\n  function weightCandidates(uint[] ranked) public\r\n  {\r\n    uint weightingOptionMemory = weightingOption;\r\n    for (uint i = 0; i < numberOfRepresentatives; i++)\r\n    {\r\n      MyLib.Agent memory a;\r\n      a.u = candidates[ranked[i]];\r\n      if(weightingOptionMemory == 0)\r\n      {\r\n        a.weight = 1;\r\n      }\r\n      else if(weightingOptionMemory == 1)\r\n      {\r\n        a.weight = numberOfRepresentatives - i;\r\n      }\r\n      listOfRepresentatives.push(a);\r\n    }\r\n  }\r\n  function sort(uint[] data) public returns (uint[]) {\r\n    quickSort(data, uint(0), uint(data.length - 1));\r\n    return data;\r\n  }\r\n\r\n  function quickSort(uint[] memory arr, uint left, uint right) internal{\r\n    uint i = left;\r\n    uint j = right;\r\n    if(i==j) return;\r\n    uint pivot = arr[uint(left + (right - left) / 2)];\r\n    while (i <= j) {\r\n      while (arr[uint(i)] > pivot) i++;\r\n      while (pivot > arr[uint(j)]) j--;\r\n      if (i <= j) {\r\n        (arr[uint(i)], arr[uint(j)]) = (arr[uint(j)], arr[uint(i)]);\r\n        i++;\r\n        j--;\r\n      }\r\n    }\r\n    if (left < j)\r\n    quickSort(arr, left, j);\r\n    if (i < right)\r\n    quickSort(arr, i, right);\r\n  }\r\n\r\n    function listCandidates(uint number) public constant returns (string,address) {\r\n\r\n      return (registeredUser[candidates[number]].name, registeredUser[candidates[number]].myAddress);\r\n    }\r\n\r\n    function getCandidatesLength() public constant returns (uint)\r\n    {\r\n      return candidates.length;\r\n    }\r\n\r\n    function listRepresentives(uint number) public constant returns (string,address,uint,uint[]) {\r\n\r\n      return (registeredUser[listOfRepresentatives[number].u].name, registeredUser[listOfRepresentatives[number].u].myAddress, listOfRepresentatives[number].weight,listOfRepresentatives[number].budget);\r\n    }\r\n\r\n    function getRepresentivesLength() public constant returns (uint)\r\n    {\r\n      return listOfRepresentatives.length;\r\n    }\r\n\r\n    function showVotes(uint number) public constant returns(address[])\r\n    {\r\n      return votes[number];\r\n    }\r\n\r\n\r\n}\r\n",
  "sourcePath": "C:\\Users\\JakeL\\Desktop\\MultiAgentSystemsOnTheBlockChain\\contracts\\VotingClub.sol",
  "compiler": {
    "name": "solc",
    "version": "0.4.19+commit.c4cbbb05.Emscripten.clang"
  },
  "schemaVersion": "2.0.0",
  "updatedAt": "2018-04-26T01:24:34.142Z"
}