{
  "contractName": "VotingClub",
  "abi": [
    {
      "constant": true,
      "inputs": [
        {
          "name": "number",
          "type": "uint256"
        }
      ],
      "name": "listRegisteredUsers",
      "outputs": [
        {
          "name": "",
          "type": "string"
        },
        {
          "name": "",
          "type": "address"
        }
      ],
      "payable": false,
      "stateMutability": "view",
      "type": "function"
    },
    {
      "constant": true,
      "inputs": [],
      "name": "timeVoteStarted",
      "outputs": [
        {
          "name": "",
          "type": "uint256"
        }
      ],
      "payable": false,
      "stateMutability": "view",
      "type": "function"
    },
    {
      "constant": true,
      "inputs": [],
      "name": "getCandidatesLength",
      "outputs": [
        {
          "name": "",
          "type": "uint256"
        }
      ],
      "payable": false,
      "stateMutability": "view",
      "type": "function"
    },
    {
      "constant": true,
      "inputs": [],
      "name": "getRegisteredUsersLength",
      "outputs": [
        {
          "name": "",
          "type": "uint256"
        }
      ],
      "payable": false,
      "stateMutability": "view",
      "type": "function"
    },
    {
      "constant": true,
      "inputs": [
        {
          "name": "number",
          "type": "uint256"
        }
      ],
      "name": "listCandidates",
      "outputs": [
        {
          "name": "",
          "type": "string"
        },
        {
          "name": "",
          "type": "address"
        }
      ],
      "payable": false,
      "stateMutability": "view",
      "type": "function"
    },
    {
      "constant": false,
      "inputs": [],
      "name": "startVote",
      "outputs": [],
      "payable": false,
      "stateMutability": "nonpayable",
      "type": "function"
    },
    {
      "constant": false,
      "inputs": [
        {
          "name": "ranked",
          "type": "uint256[]"
        }
      ],
      "name": "weightCandidates",
      "outputs": [],
      "payable": false,
      "stateMutability": "nonpayable",
      "type": "function"
    },
    {
      "constant": true,
      "inputs": [
        {
          "name": "number",
          "type": "uint256"
        }
      ],
      "name": "showVotes",
      "outputs": [
        {
          "name": "",
          "type": "address[]"
        }
      ],
      "payable": false,
      "stateMutability": "view",
      "type": "function"
    },
    {
      "constant": false,
      "inputs": [
        {
          "name": "suggestion",
          "type": "uint256"
        }
      ],
      "name": "changeRegistrationCostSuggestion",
      "outputs": [],
      "payable": false,
      "stateMutability": "nonpayable",
      "type": "function"
    },
    {
      "constant": true,
      "inputs": [],
      "name": "termLength",
      "outputs": [
        {
          "name": "",
          "type": "uint256"
        }
      ],
      "payable": false,
      "stateMutability": "view",
      "type": "function"
    },
    {
      "constant": false,
      "inputs": [],
      "name": "subsidize",
      "outputs": [],
      "payable": true,
      "stateMutability": "payable",
      "type": "function"
    },
    {
      "constant": false,
      "inputs": [
        {
          "name": "data",
          "type": "uint256[]"
        }
      ],
      "name": "sort",
      "outputs": [
        {
          "name": "",
          "type": "uint256[]"
        }
      ],
      "payable": false,
      "stateMutability": "nonpayable",
      "type": "function"
    },
    {
      "constant": false,
      "inputs": [],
      "name": "changeRegistrationCost",
      "outputs": [],
      "payable": false,
      "stateMutability": "nonpayable",
      "type": "function"
    },
    {
      "constant": true,
      "inputs": [],
      "name": "numberOfRepresentatives",
      "outputs": [
        {
          "name": "",
          "type": "uint256"
        }
      ],
      "payable": false,
      "stateMutability": "view",
      "type": "function"
    },
    {
      "constant": false,
      "inputs": [],
      "name": "endVote",
      "outputs": [],
      "payable": false,
      "stateMutability": "nonpayable",
      "type": "function"
    },
    {
      "constant": true,
      "inputs": [],
      "name": "sayhi",
      "outputs": [],
      "payable": false,
      "stateMutability": "view",
      "type": "function"
    },
    {
      "constant": true,
      "inputs": [],
      "name": "checkRegistrationSuggestions",
      "outputs": [
        {
          "name": "",
          "type": "uint256"
        }
      ],
      "payable": false,
      "stateMutability": "view",
      "type": "function"
    },
    {
      "constant": true,
      "inputs": [],
      "name": "voteStarted",
      "outputs": [
        {
          "name": "",
          "type": "bool"
        }
      ],
      "payable": false,
      "stateMutability": "view",
      "type": "function"
    },
    {
      "constant": true,
      "inputs": [],
      "name": "getRepresentivesLength",
      "outputs": [
        {
          "name": "",
          "type": "uint256"
        }
      ],
      "payable": false,
      "stateMutability": "view",
      "type": "function"
    },
    {
      "constant": false,
      "inputs": [],
      "name": "apply",
      "outputs": [],
      "payable": false,
      "stateMutability": "nonpayable",
      "type": "function"
    },
    {
      "constant": true,
      "inputs": [],
      "name": "registrationCost",
      "outputs": [
        {
          "name": "",
          "type": "uint256"
        }
      ],
      "payable": false,
      "stateMutability": "view",
      "type": "function"
    },
    {
      "constant": true,
      "inputs": [],
      "name": "getContractValue",
      "outputs": [
        {
          "name": "",
          "type": "uint256"
        }
      ],
      "payable": false,
      "stateMutability": "view",
      "type": "function"
    },
    {
      "constant": true,
      "inputs": [
        {
          "name": "text",
          "type": "string"
        }
      ],
      "name": "chat",
      "outputs": [],
      "payable": false,
      "stateMutability": "view",
      "type": "function"
    },
    {
      "constant": true,
      "inputs": [
        {
          "name": "number",
          "type": "uint256"
        }
      ],
      "name": "listRepresentives",
      "outputs": [
        {
          "name": "",
          "type": "string"
        },
        {
          "name": "",
          "type": "address"
        },
        {
          "name": "",
          "type": "uint256"
        },
        {
          "name": "",
          "type": "uint256[]"
        }
      ],
      "payable": false,
      "stateMutability": "view",
      "type": "function"
    },
    {
      "constant": true,
      "inputs": [],
      "name": "timeVoteEnded",
      "outputs": [
        {
          "name": "",
          "type": "uint256"
        }
      ],
      "payable": false,
      "stateMutability": "view",
      "type": "function"
    },
    {
      "constant": false,
      "inputs": [
        {
          "name": "myVote",
          "type": "address[]"
        }
      ],
      "name": "vote",
      "outputs": [],
      "payable": false,
      "stateMutability": "nonpayable",
      "type": "function"
    },
    {
      "constant": false,
      "inputs": [
        {
          "name": "name",
          "type": "string"
        }
      ],
      "name": "register",
      "outputs": [],
      "payable": true,
      "stateMutability": "payable",
      "type": "function"
    },
    {
      "inputs": [
        {
          "name": "cost",
          "type": "uint256"
        },
        {
          "name": "term",
          "type": "uint256"
        },
        {
          "name": "reps",
          "type": "uint256"
        },
        {
          "name": "option",
          "type": "uint256"
        }
      ],
      "payable": false,
      "stateMutability": "nonpayable",
      "type": "constructor"
    },
    {
      "anonymous": false,
      "inputs": [
        {
          "indexed": false,
          "name": "message",
          "type": "string"
        },
        {
          "indexed": false,
          "name": "name",
          "type": "string"
        }
      ],
      "name": "message",
      "type": "event"
    }
  ],
  "bytecode": "0x60606040526000600860006101000a81548160ff02191690831515021790555060006009556000600a556000600b55341561003957600080fd5b604051608080612c6883398101604052808051906020019091908051906020019091908051906020019091908051906020019091905050838060018190555050826003819055508160048190555080600c8190555050505050612bc7806100a16000396000f30060606040526004361061015f576000357c0100000000000000000000000000000000000000000000000000000000900463ffffffff1680630cf35f4414610164578063161893d01461019c5780631859df65146101c55780631afad36d146101ee57806322ca968b146102175780634c0a6af01461024f5780635846fc46146102645780636687d4fe146102be5780637392445a146102f557806379b18cd11461031857806390f10ed1146103415780639ec8b0261461034b578063a90cc0d9146103b9578063ae0689ac146103ce578063b9223946146103f7578063bc9c707d1461040c578063c0fc41e614610421578063d0dc01801461044a578063d5268b2214610473578063db595b3b1461049c578063dc4a7f7f146104b1578063dc82697c146104da578063de8caa1e14610503578063dee6472f14610560578063ed00af981461059a578063ed081329146105c3578063f2c298be1461061d575b600080fd5b341561016f57600080fd5b610185600480803590602001909190505061066f565b60405161019392919061299b565b60405180910390f35b34156101a757600080fd5b6101af61077e565b6040516101bc9190612a88565b60405180910390f35b34156101d057600080fd5b6101d8610784565b6040516101e59190612a88565b60405180910390f35b34156101f957600080fd5b610201610791565b60405161020e9190612a88565b60405180910390f35b341561022257600080fd5b610238600480803590602001909190505061079d565b60405161024692919061299b565b60405180910390f35b341561025a57600080fd5b6102626108e0565b005b341561026f57600080fd5b6102bc600480803590602001908201803590602001908080602002602001604051908101604052809392919081815260200183836020028082843782019150505050505091905050610932565b005b34156102c957600080fd5b6102df6004808035906020019091905050610a39565b6040516102ec919061293c565b60405180910390f35b341561030057600080fd5b6103166004808035906020019091905050610ae7565b005b341561032357600080fd5b61032b610b98565b6040516103389190612a88565b60405180910390f35b610349610b9e565b005b341561035657600080fd5b6103a3600480803590602001908201803590602001908080602002602001604051908101604052809392919081815260200183836020028082843782019150505050505091905050610ba0565b6040516103b0919061295e565b60405180910390f35b34156103c457600080fd5b6103cc610edf565b005b34156103d957600080fd5b6103e1610f01565b6040516103ee9190612a88565b60405180910390f35b341561040257600080fd5b61040a610f07565b005b341561041757600080fd5b61041f610f9e565b005b341561042c57600080fd5b610434610fd5565b6040516104419190612a88565b60405180910390f35b341561045557600080fd5b61045d6110a2565b60405161046a9190612980565b60405180910390f35b341561047e57600080fd5b6104866110b5565b6040516104939190612a88565b60405180910390f35b34156104a757600080fd5b6104af6110c2565b005b34156104bc57600080fd5b6104c461119c565b6040516104d19190612a88565b60405180910390f35b34156104e557600080fd5b6104ed6111a2565b6040516104fa9190612a88565b60405180910390f35b341561050e57600080fd5b61055e600480803590602001908201803590602001908080601f016020809104026020016040519081016040528093929190818152602001838380828437820191505050505050919050506111c1565b005b341561056b57600080fd5b61058160048080359060200190919050506112b2565b60405161059194939291906129cb565b60405180910390f35b34156105a557600080fd5b6105ad6114a4565b6040516105ba9190612a88565b60405180910390f35b34156105ce57600080fd5b61061b6004808035906020019082018035906020019080806020026020016040519081016040528093929190818152602001838360200280828437820191505050505050919050506114aa565b005b61066d600480803590602001908201803590602001908080601f01602080910402602001604051908101604052809392919081815260200183838082843782019150505050505091905050611612565b005b6106776121ba565b6000808381548110151561068757fe5b90600052602060002090600302016001016000848154811015156106a757fe5b906000526020600020906003020160000160009054906101000a900473ffffffffffffffffffffffffffffffffffffffff16818054600181600116156101000203166002900480601f01602080910402602001604051908101604052809291908181526020018280546001816001161561010002031660029004801561076e5780601f106107435761010080835404028352916020019161076e565b820191906000526020600020905b81548152906001019060200180831161075157829003601f168201915b5050505050915091509150915091565b60095481565b6000600680549050905090565b60008080549050905090565b6107a56121ba565b6000806006848154811015156107b757fe5b9060005260206000209001548154811015156107cf57fe5b906000526020600020906003020160010160006006858154811015156107f157fe5b90600052602060002090015481548110151561080957fe5b906000526020600020906003020160000160009054906101000a900473ffffffffffffffffffffffffffffffffffffffff16818054600181600116156101000203166002900480601f0160208091040260200160405190810160405280929190818152602001828054600181600116156101000203166002900480156108d05780601f106108a5576101008083540402835291602001916108d0565b820191906000526020600020905b8154815290600101906020018083116108b357829003601f168201915b5050505050915091509150915091565b42600354600a5401108015610908575060001515600860009054906101000a900460ff161515145b15610930576001600860006101000a81548160ff021916908315150217905550426009819055505b565b60008061093d6121ce565b600c549250600091505b600454821015610a33576006848381518110151561096157fe5b9060200190602002015181548110151561097757fe5b90600052602060002090015481600001818152505060008314156109a55760018160400181815250506109be565b60018314156109bd5781600454038160400181815250505b5b600580548060010182816109d291906121fd565b91600052602060002090600402016000839091909150600082015181600001556020820151816001019080519060200190610a0e92919061222f565b5060408201518160020155606082015181600301555050508180600101925050610947565b50505050565b610a4161227c565b600782815481101515610a5057fe5b9060005260206000209001805480602002602001604051908101604052809291908181526020018280548015610adb57602002820191906000526020600020905b8160009054906101000a900473ffffffffffffffffffffffffffffffffffffffff1673ffffffffffffffffffffffffffffffffffffffff1681526020019060010190808311610a91575b50505050509050919050565b60008090505b600080549050811015610b94573373ffffffffffffffffffffffffffffffffffffffff16600082815481101515610b2057fe5b906000526020600020906003020160000160009054906101000a900473ffffffffffffffffffffffffffffffffffffffff1673ffffffffffffffffffffffffffffffffffffffff161415610b87578160026000838152602001908152602001600020819055505b8080600101915050610aed565b5050565b60035481565b565b610ba8612290565b6000610bb2612290565b6000610bbc612290565b6000806000806000808b51995089604051805910610bd75750595b90808252806020026020018201604052509850600097505b89881015610c38578b88815181101515610c0557fe5b906020019060200201518989815181101515610c1d57fe5b90602001906020020181815250508780600101985050610bef565b60028a01604051805910610c495750595b908082528060200260200182016040525096506001955060008787815181101515610c7057fe5b906020019060200201818152505060018601955060018a038787815181101515610c9657fe5b90602001906020020181815250505b6000861115610ecd578686815181101515610cbc57fe5b9060200190602002015194506001860395508686815181101515610cdc57fe5b9060200190602002015193506001860395508397508885815181101515610cff57fe5b9060200190602002015192508391505b84821015610db357828983815181101515610d2657fe5b90602001906020020151101515610da6578882815181101515610d4557fe5b906020019060200201518989815181101515610d5d57fe5b906020019060200201518a8a815181101515610d7557fe5b9060200190602002018b85815181101515610d8c57fe5b906020019060200201828152508281525050506001880197505b8180600101925050610d0f565b8885815181101515610dc157fe5b906020019060200201518989815181101515610dd957fe5b906020019060200201518a8a815181101515610df157fe5b9060200190602002018b88815181101515610e0857fe5b9060200190602002018281525082815250505087905060018401811115610e7357600186019550838787815181101515610e3e57fe5b9060200190602002018181525050600186019550600181038787815181101515610e6457fe5b90602001906020020181815250505b84600182011015610ec857600186019550600181018787815181101515610e9657fe5b9060200190602002018181525050600186019550848787815181101515610eb957fe5b90602001906020020181815250505b610ca5565b889a5050505050505050505050919050565b6000610ee9610fd5565b905060015481141515610efe57806001819055505b50565b60045481565b42600b546009540111158015610f30575060011515600860009054906101000a900460ff161515145b15610f9c576000600860006101000a81548160ff02191690831515021790555042600a819055506004546006805490501015610f73576006805490506004819055505b610f7b6118bc565b6000600681610f8a91906122a4565b506000600781610f9a91906122d0565b505b565b7f36bf6cf02ecc60712e107054775debd1f2f255ab34df5fc4928044264d16fd1f604051610fcb90612a55565b60405180910390a1565b60008060008060008060016000805490501115611094576001600360026000805490500281151561100257fe5b04019450600093505b600080549050841015611093576000925060026000858152602001908152602001600020549150600090505b6000805490508110156110755760026000828152602001908152602001600020548214156110685782806001019350505b8080600101915050611037565b84831015156110865781955061109a565b838060010194505061100b565b5b60015495505b505050505090565b600860009054906101000a900460ff1681565b6000600580549050905090565b60006110d5336110d0611cd0565b611ec7565b151561119957600090505b600080549050811015611198573373ffffffffffffffffffffffffffffffffffffffff1660008281548110151561111357fe5b906000526020600020906003020160000160009054906101000a900473ffffffffffffffffffffffffffffffffffffffff1673ffffffffffffffffffffffffffffffffffffffff16141561118b576006805480600101828161117591906122fc565b9160005260206000209001600083909190915055505b80806001019150506110e0565b5b50565b60015481565b60003073ffffffffffffffffffffffffffffffffffffffff1631905090565b60008090505b6000805490508110156112ae573373ffffffffffffffffffffffffffffffffffffffff166000828154811015156111fa57fe5b906000526020600020906003020160000160009054906101000a900473ffffffffffffffffffffffffffffffffffffffff1673ffffffffffffffffffffffffffffffffffffffff1614156112a1577f36bf6cf02ecc60712e107054775debd1f2f255ab34df5fc4928044264d16fd1f8260008381548110151561127957fe5b9060005260206000209060030201600101604051611298929190612a1e565b60405180910390a15b80806001019150506111c7565b5050565b6112ba6121ba565b6000806112c5612290565b60006005868154811015156112d657fe5b9060005260206000209060040201600001548154811015156112f457fe5b9060005260206000209060030201600101600060058781548110151561131657fe5b90600052602060002090600402016000015481548110151561133457fe5b906000526020600020906003020160000160009054906101000a900473ffffffffffffffffffffffffffffffffffffffff1660058781548110151561137557fe5b90600052602060002090600402016002015460058881548110151561139657fe5b9060005260206000209060040201600101838054600181600116156101000203166002900480601f01602080910402602001604051908101604052809291908181526020018280546001816001161561010002031660029004801561143c5780601f106114115761010080835404028352916020019161143c565b820191906000526020600020905b81548152906001019060200180831161141f57829003601f168201915b505050505093508080548060200260200160405190810160405280929190818152602001828054801561148e57602002820191906000526020600020905b81548152602001906001019080831161147a575b5050505050905093509350935093509193509193565b600a5481565b60008090505b60008054905081101561160e573373ffffffffffffffffffffffffffffffffffffffff166000828154811015156114e357fe5b906000526020600020906003020160000160009054906101000a900473ffffffffffffffffffffffffffffffffffffffff1673ffffffffffffffffffffffffffffffffffffffff1614156116015760011515600860009054906101000a900460ff16151514801561158557506000151560008281548110151561156257fe5b906000526020600020906003020160020160009054906101000a900460ff161515145b1561160057600160008281548110151561159b57fe5b906000526020600020906003020160020160006101000a81548160ff021916908315150217905550600780548060010182816115d79190612328565b9160005260206000209001600084909190915090805190602001906115fd929190612354565b50505b5b80806001019150506114b0565b5050565b61161a6123de565b600154341015801561179e575061179c336000805480602002602001604051908101604052809291908181526020016000905b828210156117935783829060005260206000209060030201606060405190810160405290816000820160009054906101000a900473ffffffffffffffffffffffffffffffffffffffff1673ffffffffffffffffffffffffffffffffffffffff1673ffffffffffffffffffffffffffffffffffffffff168152602001600182018054600181600116156101000203166002900480601f0160208091040260200160405190810160405280929190818152602001828054600181600116156101000203166002900480156117605780601f1061173557610100808354040283529160200191611760565b820191906000526020600020905b81548152906001019060200180831161174357829003601f168201915b505050505081526020016002820160009054906101000a900460ff1615151515815250508152602001906001019061164d565b50505050611ec7565b155b156118965733816000019073ffffffffffffffffffffffffffffffffffffffff16908173ffffffffffffffffffffffffffffffffffffffff1681525050818160200181905250600080548060010182816117f8919061241e565b9160005260206000209060030201600083909190915060008201518160000160006101000a81548173ffffffffffffffffffffffffffffffffffffffff021916908373ffffffffffffffffffffffffffffffffffffffff1602179055506020820151816001019080519060200190611871929190612450565b5060408201518160020160006101000a81548160ff0219169083151502179055505050505b600154600260006001600080549050038152602001908152602001600020819055505050565b6000806118c7612290565b6118cf6124d0565b60006118d9612290565b6118e1612290565b6118e9612290565b6006805490506040518059106118fc5750595b90808252806020026020018201604052509550855160405180591061191e5750595b90808252806020026020018201604052801561195457816020015b6119416124e4565b8152602001906001900390816119395790505b509450600097505b85518810156119ad5785516040518059106119745750595b9080825280602002602001820160405250858981518110151561199357fe5b90602001906020020181905250878060010198505061195c565b600097505b6001865103881015611ae9578760010196505b8551871015611adc576119d88888611f49565b93506000841415611a56578685898151811015156119f257fe5b90602001906020020151878a815181101515611a0a57fe5b90602001906020020151815181101515611a2057fe5b90602001906020020181815250508588815181101515611a3c57fe5b906020019060200201805180919060010181525050611acf565b6001841415611ace57878588815181101515611a6e57fe5b906020019060200201518789815181101515611a8657fe5b90602001906020020151815181101515611a9c57fe5b90602001906020020181815250508587815181101515611ab857fe5b9060200190602002018051809190600101815250505b5b86806001019750506119c5565b87806001019850506119b2565b8551604051805910611af85750595b90808252806020026020018201604052509250600097505b8551881015611be15760008689815181101515611b2957fe5b90602001906020020151141515611bd457600096505b8588815181101515611b4d57fe5b90602001906020020151871015611bd357858589815181101515611b6d57fe5b9060200190602002015188815181101515611b8457fe5b90602001906020020151815181101515611b9a57fe5b906020019060200201518389815181101515611bb257fe5b90602001906020020181815101915081815250508680600101975050611b3f565b5b8780600101985050611b10565b8551604051805910611bf05750595b90808252806020026020018201604052509150611c0c83610ba0565b9050600097505b8551881015611cbd57600096505b8551871015611cb0578287815181101515611c3857fe5b906020019060200201518189815181101515611c5057fe5b906020019060200201511415611ca357868289815181101515611c6f57fe5b906020019060200201818152505085518651028388815181101515611c9057fe5b9060200190602002018181525050611cb0565b8680600101975050611c21565b8780600101985050611c13565b611cc682610932565b5050505050505050565b611cd86124f8565b6000611ce26124f8565b6000600680549050925082604051805910611cfa5750595b908082528060200260200182016040528015611d3057816020015b611d1d61250c565b815260200190600190039081611d155790505b509150600090505b82811015611ebe576000600682815481101515611d5157fe5b906000526020600020900154815481101515611d6957fe5b9060005260206000209060030201606060405190810160405290816000820160009054906101000a900473ffffffffffffffffffffffffffffffffffffffff1673ffffffffffffffffffffffffffffffffffffffff1673ffffffffffffffffffffffffffffffffffffffff168152602001600182018054600181600116156101000203166002900480601f016020809104026020016040519081016040528092919081815260200182805460018160011615610100020316600290048015611e725780601f10611e4757610100808354040283529160200191611e72565b820191906000526020600020905b815481529060010190602001808311611e5557829003601f168201915b505050505081526020016002820160009054906101000a900460ff1615151515815250508282815181101515611ea457fe5b906020019060200201819052508080600101915050611d38565b81935050505090565b600080600090505b8251811015611f3d578373ffffffffffffffffffffffffffffffffffffffff168382815181101515611efd57fe5b906020019060200201516000015173ffffffffffffffffffffffffffffffffffffffff161415611f305760019150611f42565b8080600101915050611ecf565b600091505b5092915050565b60008060008060008060008060008060009850600097506007805490509650600060068d815481101515611f7957fe5b906000526020600020900154815481101515611f9157fe5b906000526020600020906003020160000160009054906101000a900473ffffffffffffffffffffffffffffffffffffffff169550600060068c815481101515611fd657fe5b906000526020600020900154815481101515611fee57fe5b906000526020600020906003020160000160009054906101000a900473ffffffffffffffffffffffffffffffffffffffff169450600093505b868410156121845760028781151561203b57fe5b048911158015612057575060028781151561205257fe5b048811155b156121725760078481548110151561206b57fe5b9060005260206000209001805490509250600091505b8282101561216d5760078481548110151561209857fe5b9060005260206000209001828154811015156120b057fe5b906000526020600020900160009054906101000a900473ffffffffffffffffffffffffffffffffffffffff1690508573ffffffffffffffffffffffffffffffffffffffff168173ffffffffffffffffffffffffffffffffffffffff16141561211f57888060010199505061216d565b8473ffffffffffffffffffffffffffffffffffffffff168173ffffffffffffffffffffffffffffffffffffffff16141561216057878060010198505061216d565b8180600101925050612081565b612177565b612184565b8380600101945050612027565b8789111561219557600099506121ab565b888811156121a657600199506121ab565b600299505b50505050505050505092915050565b602060405190810160405280600081525090565b608060405190810160405280600081526020016121e96124e4565b815260200160008152602001600081525090565b81548183558181151161222a57600402816004028360005260206000209182019101612229919061254c565b5b505050565b82805482825590600052602060002090810192821561226b579160200282015b8281111561226a57825182559160200191906001019061224f565b5b5090506122789190612593565b5090565b602060405190810160405280600081525090565b602060405190810160405280600081525090565b8154818355818115116122cb578183600052602060002091820191016122ca9190612593565b5b505050565b8154818355818115116122f7578183600052602060002091820191016122f691906125b8565b5b505050565b815481835581811511612323578183600052602060002091820191016123229190612593565b5b505050565b81548183558181151161234f5781836000526020600020918201910161234e91906125b8565b5b505050565b8280548282559060005260206000209081019282156123cd579160200282015b828111156123cc5782518260006101000a81548173ffffffffffffffffffffffffffffffffffffffff021916908373ffffffffffffffffffffffffffffffffffffffff16021790555091602001919060010190612374565b5b5090506123da91906125e4565b5090565b606060405190810160405280600073ffffffffffffffffffffffffffffffffffffffff16815260200161240f612627565b81526020016000151581525090565b81548183558181151161244b5760030281600302836000526020600020918201910161244a919061263b565b5b505050565b828054600181600116156101000203166002900490600052602060002090601f016020900481019282601f1061249157805160ff19168380011785556124bf565b828001600101855582156124bf579182015b828111156124be5782518255916020019190600101906124a3565b5b5090506124cc9190612593565b5090565b602060405190810160405280600081525090565b602060405190810160405280600081525090565b602060405190810160405280600081525090565b606060405190810160405280600073ffffffffffffffffffffffffffffffffffffffff16815260200161253d612627565b81526020016000151581525090565b61259091905b8082111561258c5760008082016000905560018201600061257391906126a5565b6002820160009055600382016000905550600401612552565b5090565b90565b6125b591905b808211156125b1576000816000905550600101612599565b5090565b90565b6125e191905b808211156125dd57600081816125d491906126c6565b506001016125be565b5090565b90565b61262491905b8082111561262057600081816101000a81549073ffffffffffffffffffffffffffffffffffffffff0219169055506001016125ea565b5090565b90565b602060405190810160405280600081525090565b6126a291905b8082111561269e57600080820160006101000a81549073ffffffffffffffffffffffffffffffffffffffff021916905560018201600061268191906126e7565b6002820160006101000a81549060ff021916905550600301612641565b5090565b90565b50805460008255906000526020600020908101906126c39190612593565b50565b50805460008255906000526020600020908101906126e49190612593565b50565b50805460018160011615610100020316600290046000825580601f1061270d575061272c565b601f01602090049060005260206000209081019061272b9190612593565b5b50565b61273881612b0a565b82525050565b600061274982612acf565b80845260208401935061275b83612aa3565b60005b8281101561278d5761277186835161272f565b61277a82612af0565b915060208601955060018101905061275e565b50849250505092915050565b60006127a482612ada565b8084526020840193506127b683612ab0565b60005b828110156127e8576127cc86835161292d565b6127d582612afd565b91506020860195506001810190506127b9565b50849250505092915050565b6127fd81612b2a565b82525050565b600061280e82612ae5565b808452612822816020860160208601612b40565b61282b81612b7c565b602085010191505092915050565b6000815460018116600081146128565760018114612876576128b7565b607f600283041680865260ff1983166020870152604086019350506128b7565b6002820480865260208601955061288c85612abd565b60005b828110156128ae5781548189015260018201915060208101905061288f565b80880195505050505b505092915050565b6000600482527f6a616b65000000000000000000000000000000000000000000000000000000006020830152604082019050919050565b6000600282527f68690000000000000000000000000000000000000000000000000000000000006020830152604082019050919050565b61293681612b36565b82525050565b60006020820190508181036000830152612956818461273e565b905092915050565b600060208201905081810360008301526129788184612799565b905092915050565b600060208201905061299560008301846127f4565b92915050565b600060408201905081810360008301526129b58185612803565b90506129c4602083018461272f565b9392505050565b600060808201905081810360008301526129e58187612803565b90506129f4602083018661272f565b612a01604083018561292d565b8181036060830152612a138184612799565b905095945050505050565b60006040820190508181036000830152612a388185612803565b90508181036020830152612a4c8184612839565b90509392505050565b60006040820190508181036000830152612a6e816128f6565b90508181036020830152612a81816128bf565b9050919050565b6000602082019050612a9d600083018461292d565b92915050565b6000602082019050919050565b6000602082019050919050565b60008160005260206000209050919050565b600081519050919050565b600081519050919050565b600081519050919050565b6000602082019050919050565b6000602082019050919050565b600073ffffffffffffffffffffffffffffffffffffffff82169050919050565b60008115159050919050565b6000819050919050565b60005b83811015612b5e578082015181840152602081019050612b43565b83811460008114612b6e57612b75565b6000858501525b5050505050565b6000601f19601f83011690509190505600a265627a7a72305820616f39584ee1a7eed120528a4d409f56ccbb560425e03a2b810fe37645c556a26c6578706572696d656e74616cf50037",
  "source": "pragma solidity ^0.4.18;\r\npragma experimental ABIEncoderV2;\r\nimport \"./MyLib.sol\";\r\nimport \"./RegistrationClub.sol\";\r\ncontract VotingClub is RegistrationClub {\r\n\r\n    uint public termLength;\r\n    uint public numberOfRepresentatives;\r\n    MyLib.Agent[] listOfRepresentatives;\r\n\r\n      uint[] candidates;\r\n  address[][] votes;\r\n  bool public voteStarted = false;\r\n  uint public timeVoteStarted =0;\r\n  uint public timeVoteEnded =0;\r\n  uint votingTime = 0;\r\n  uint weightingOption;\r\n    function VotingClub(uint cost, uint term, uint reps, uint option) RegistrationClub(cost) public {\r\n        termLength = term;\r\n        numberOfRepresentatives = reps;\r\n        weightingOption = option;\r\n  }\r\n\r\n\r\n    function apply() public {\r\n      if(!isRegistered(msg.sender,buildCandidateList()))\r\n      {\r\n        for (uint i = 0; i < registeredUser.length; i++)\r\n        {\r\n          if(registeredUser[i].myAddress == msg.sender)\r\n          {\r\n            candidates.push(i);\r\n          }\r\n        }\r\n      }\r\n    }\r\n\r\n    function buildCandidateList() internal constant returns (MyLib.User[])\r\n    {\r\n      uint candidatesLength = candidates.length;\r\n      MyLib.User[] memory userList = new MyLib.User[](candidatesLength);\r\n      for(uint i = 0; i < candidatesLength; i ++)\r\n      {\r\n        userList[i] = registeredUser[candidates[i]];\r\n      }\r\n      return userList;\r\n    }\r\n\r\n  function startVote() public {\r\n    if(timeVoteEnded + termLength < block.timestamp && voteStarted == false)\r\n    {\r\n      voteStarted = true;\r\n      timeVoteStarted = block.timestamp;\r\n    }\r\n  }\r\n  function vote(address[] myVote) public {\r\n    for (uint i = 0; i < registeredUser.length; i++)\r\n    {\r\n      if(registeredUser[i].myAddress == msg.sender)\r\n      {\r\n        if(voteStarted == true && registeredUser[i].voted == false){\r\n          registeredUser[i].voted = true;\r\n          votes.push(myVote);\r\n        }\r\n      }\r\n    }\r\n\r\n  }\r\n  function endVote() public\r\n  {\r\n\r\n    if(timeVoteStarted + votingTime <= block.timestamp && voteStarted == true)\r\n    {\r\n      voteStarted = false;\r\n      timeVoteEnded = block.timestamp;\r\n      if(candidates.length < numberOfRepresentatives)\r\n      {\r\n        numberOfRepresentatives = candidates.length;\r\n      }\r\n\r\n      countVotes();\r\n\r\n      candidates.length = 0;\r\n      votes.length = 0;\r\n\r\n    }\r\n\r\n\r\n  }\r\n  //second order copeland\r\n  function countVotes() internal {\r\n    uint i;\r\n    uint p;\r\n    uint[] memory copelandScore = new uint[](candidates.length);\r\n    uint[][] memory defeated = new uint[][](copelandScore.length);\r\n\r\n    //init2d array\r\n    for (i = 0; i < copelandScore.length; i++)\r\n    {\r\n      defeated[i] = new uint[](copelandScore.length);\r\n    }\r\n\r\n    //pairwise each candidate against each other\r\n    for (i = 0; i < copelandScore.length - 1; i++)\r\n    {\r\n      for (p = 1 + i; p < copelandScore.length; p++)\r\n      {\r\n        uint pairwise = pairwiseComparison(i,p);\r\n\r\n        if(pairwise == 0)\r\n        {\r\n          defeated[i][copelandScore[i]] = p;\r\n          copelandScore[i] ++;\r\n        }\r\n        else if (pairwise == 1) {\r\n          defeated[p][copelandScore[p]] = i;\r\n          copelandScore[p] ++;\r\n        }\r\n\r\n\r\n      }\r\n    }\r\n\r\n    //add up the copeland scores of defeated users\r\n    uint[] memory secondOrderCopeland = new uint[](copelandScore.length);\r\n    for(i =0; i < copelandScore.length; i++)\r\n    {\r\n      if(copelandScore[i] != 0)\r\n      {\r\n        for(p =0; p < copelandScore[i] ; p++)\r\n        {\r\n          secondOrderCopeland[i] += copelandScore[defeated[i][p]];\r\n        }\r\n      }\r\n    }\r\n\r\n\r\n    //because candidates save int instead of user have to save sorted and unsorted and then compare\r\n    uint[] memory ranked = new uint[](copelandScore.length);\r\n    uint[] memory sortedSecondOrderCopeland = sort(secondOrderCopeland);\r\n\r\n    for(i=0; i < copelandScore.length; i ++ )\r\n    {\r\n      for(p=0; p < copelandScore.length; p ++ )\r\n      {\r\n        if(sortedSecondOrderCopeland[i] == secondOrderCopeland[p])\r\n        {\r\n          ranked[i] = p;\r\n          //stops same score being matched twice\r\n          secondOrderCopeland[p] = copelandScore.length  * copelandScore.length;\r\n          break;\r\n        }\r\n      }\r\n    }\r\n\r\n    weightCandidates(ranked);\r\n\r\n\r\n  }\r\n\r\n  function sort(uint[] data) returns (uint[]) {\r\n\r\n    uint n = data.length;\r\n    uint[] memory arr = new uint[](n);\r\n    uint i;\r\n\r\n    for(i=0; i<n; i++) {\r\n      arr[i] = data[i];\r\n    }\r\n\r\n    uint[] memory stack = new uint[](n+2);\r\n\r\n    //Push initial lower and higher bound\r\n    uint top = 1;\r\n    stack[top] = 0;\r\n    top = top + 1;\r\n    stack[top] = n-1;\r\n\r\n    //Keep popping from stack while is not empty\r\n    while (top > 0) {\r\n\r\n      uint h = stack[top];\r\n      top = top - 1;\r\n      uint l = stack[top];\r\n      top = top - 1;\r\n\r\n      i = l;\r\n      uint x = arr[h];\r\n\r\n      for(uint j=l; j<h; j++){\r\n        if  (arr[j] >= x) {\r\n          //Move smaller element\r\n          (arr[i], arr[j]) = (arr[j],arr[i]);\r\n          i = i + 1;\r\n        }\r\n      }\r\n      (arr[i], arr[h]) = (arr[h],arr[i]);\r\n      uint p = i;\r\n\r\n      //Push left side to stack\r\n      if (p > l + 1) {\r\n        top = top + 1;\r\n        stack[top] = l;\r\n        top = top + 1;\r\n        stack[top] = p - 1;\r\n      }\r\n\r\n      //Push right side to stack\r\n      if (p+1 < h) {\r\n        top = top + 1;\r\n        stack[top] = p + 1;\r\n        top = top + 1;\r\n        stack[top] = h;\r\n      }\r\n    }\r\n\r\n    return arr;\r\n  }\r\n  function pairwiseComparison(uint i, uint p) internal constant returns (uint)\r\n  {\r\n    uint scorei = 0;\r\n    uint scorep = 0;\r\n    uint voteLength = votes.length;\r\n    address iaddress = registeredUser[candidates[i]].myAddress;\r\n    address paddress = registeredUser[candidates[p]].myAddress;\r\n\r\n    for(uint z =0; z < voteLength; z ++)\r\n    {\r\n      if (scorei <= voteLength / 2 && scorep <= voteLength /2)\r\n      {\r\n        //if not seen its the highest\r\n        uint votezlength = votes[z].length;\r\n        for(uint j =0; j < votezlength; j ++)\r\n        {\r\n          address voteaddress = votes[z][j];\r\n          if(voteaddress == iaddress )\r\n          {\r\n            scorei ++;\r\n            break;\r\n          }\r\n          else if(voteaddress == paddress )\r\n          {\r\n            scorep ++;\r\n            break;\r\n          }\r\n        }\r\n      }\r\n      else{\r\n        //if majority for one candidate no need to continue\r\n        break;\r\n      }\r\n    }\r\n    if(scorei > scorep)\r\n    {\r\n      return 0;\r\n    }\r\n    else if (scorep > scorei) {\r\n      return 1;\r\n    }\r\n    else\r\n    {\r\n      return 2;\r\n    }\r\n  }\r\n  function weightCandidates(uint[] ranked) public\r\n  {\r\n    uint weightingOptionMemory = weightingOption;\r\n    for (uint i = 0; i < numberOfRepresentatives; i++)\r\n    {\r\n      MyLib.Agent memory a;\r\n      a.u = candidates[ranked[i]];\r\n      if(weightingOptionMemory == 0)\r\n      {\r\n        a.weight = 1;\r\n      }\r\n      else if(weightingOptionMemory == 1)\r\n      {\r\n        a.weight = numberOfRepresentatives - i;\r\n      }\r\n      listOfRepresentatives.push(a);\r\n    }\r\n  }\r\n\r\n\r\n    function listCandidates(uint number) public constant returns (string,address) {\r\n\r\n      return (registeredUser[candidates[number]].name, registeredUser[candidates[number]].myAddress);\r\n    }\r\n\r\n    function getCandidatesLength() public constant returns (uint)\r\n    {\r\n      return candidates.length;\r\n    }\r\n\r\n    function listRepresentives(uint number) public constant returns (string,address,uint,uint[]) {\r\n\r\n      return (registeredUser[listOfRepresentatives[number].u].name, registeredUser[listOfRepresentatives[number].u].myAddress, listOfRepresentatives[number].weight,listOfRepresentatives[number].budget);\r\n    }\r\n\r\n    function getRepresentivesLength() public constant returns (uint)\r\n    {\r\n      return listOfRepresentatives.length;\r\n    }\r\n\r\n    function showVotes(uint number) public constant returns(address[])\r\n    {\r\n      return votes[number];\r\n    }\r\n\r\n\r\n}\r\n",
  "sourcePath": "C:\\Users\\JakeL\\Desktop\\MultiAgentSystemsOnTheBlockChain\\contracts\\VotingClub.sol",
  "compiler": {
    "name": "solc",
    "version": "0.4.18+commit.9cf6e910.Emscripten.clang"
  },
  "schemaVersion": "1.0.1",
  "updatedAt": "2018-04-26T22:56:47.575Z"
}